Component: ARM Compiler 5.06 (build 20) Tool: armlink [4d35a3]

==============================================================================

Section Cross References

    raw-os.o(.text) refers to cpu.o(.text) for OS_CPU_SR_Save
    raw-os.o(.text) refers to port_error_process.o(.text) for port_system_error_process
    raw-os.o(.text) refers to raw-os.o(.data) for high_ready_obj
    raw-os.o(.text) refers to raw-os.o(.bss) for raw_ready_queue
    raw-os.o(.text) refers to user_extension.o(.text) for raw_memset
    raw-os.o(.text) refers to port.o(.text) for port_stack_init
    raw-os.o(.text) refers to port_hook.o(.text) for task_create_hook
    raw-os.o(.text) refers to port_extension.o(.text) for user_sys_time_get
    raw-os.o(.text) refers to lludivv7m.o(.text) for __aeabi_uldivmod
    fifo.o(.text) refers to cpu.o(.text) for OS_CPU_SR_Save
    fifo.o(.text) refers to user_extension.o(.text) for raw_memcpy
    rsh.o(.text) refers to cpu.o(.text) for OS_CPU_SR_Save
    rsh.o(.text) refers to string.o(.text) for raw_strncmp
    rsh.o(.text) refers to user_extension.o(.text) for raw_memset
    rsh.o(.text) refers to rsh.o(.data) for current_command_list_point
    rsh.o(.text) refers to rsh.o(.conststring) for .conststring
    rsh.o(.constdata) refers to rsh.o(.conststring) for .conststring
    rsh.o(.constdata) refers to rsh.o(.text) for rsh_help_command
==============================================================================

Removing Unused input sections from the image.

    Removing rsh.o(.text), (608 bytes).
    Removing rsh.o(.constdata), (16 bytes).
    Removing rsh.o(.conststring), (225 bytes).
    Removing rsh.o(.data), (20 bytes).
    Removing string.o(.text), (700 bytes).
    Removing sysinit.o(.rev16_text), (4 bytes).
    Removing sysinit.o(.revsh_text), (4 bytes).
    Removing main.o(.rev16_text), (4 bytes).
    Removing main.o(.revsh_text), (4 bytes).
    Removing lpc43xx_scu.o(.rev16_text), (4 bytes).
    Removing lpc43xx_scu.o(.revsh_text), (4 bytes).
    Removing lpc43xx_sdram.o(.rev16_text), (4 bytes).
    Removing lpc43xx_sdram.o(.revsh_text), (4 bytes).
    Removing board.o(.rev16_text), (4 bytes).
    Removing board.o(.revsh_text), (4 bytes).
    Removing board_sysinit.o(.rev16_text), (4 bytes).
    Removing board_sysinit.o(.revsh_text), (4 bytes).
    Removing chip_18xx_43xx.o(.rev16_text), (4 bytes).
==============================================================================

Image Symbol Table

    Local Symbols

    Symbol Name                              Value     Ov Type        Size  Object(Section)

    ../clib/angel/boardlib.s                 0x00000000   Number         0  boardinit1.o ABSOLUTE
    ../clib/angel/boardlib.s                 0x00000000   Number         0  boardinit3.o ABSOLUTE
    ../clib/angel/boardlib.s                 0x00000000   Number         0  boardinit2.o ABSOLUTE
    ../clib/angel/boardlib.s                 0x00000000   Number         0  boardshut.o ABSOLUTE
    ../clib/angel/handlers.s                 0x00000000   Number         0  __scatter_zi.o ABSOLUTE
    ../clib/angel/handlers.s                 0x00000000   Number         0  __scatter_copy.o ABSOLUTE
    ../clib/angel/kernel.s                   0x00000000   Number         0  __rtentry.o ABSOLUTE
    ../clib/angel/kernel.s                   0x00000000   Number         0  rtexit.o ABSOLUTE
    ../clib/angel/kernel.s                   0x00000000   Number         0  __rtentry4.o ABSOLUTE
    ../clib/angel/kernel.s                   0x00000000   Number         0  __rtentry2.o ABSOLUTE
    ../clib/angel/kernel.s                   0x00000000   Number         0  rtexit2.o ABSOLUTE
    ../clib/angel/rt.s                       0x00000000   Number         0  aeabi_ldiv0.o ABSOLUTE
    ../clib/angel/rt.s                       0x00000000   Number         0  rt_raise.o ABSOLUTE
    ../clib/angel/rt.s                       0x00000000   Number         0  rt_div0.o ABSOLUTE
    ../clib/angel/rt.s                       0x00000000   Number         0  aeabi_ldiv0_sigfpe.o ABSOLUTE
    ../clib/angel/scatter.s                  0x00000000   Number         0  __scatter.o ABSOLUTE
    ../clib/angel/startup.s                  0x00000000   Number         0  __main.o ABSOLUTE
    ../clib/angel/sys.s                      0x00000000   Number         0  libspace.o ABSOLUTE
    ../clib/angel/sys.s                      0x00000000   Number         0  use_no_semi.o ABSOLUTE
    ../clib/angel/sys.s                      0x00000000   Number         0  sys_stackheap_outer.o ABSOLUTE
    ../clib/angel/sys.s                      0x00000000   Number         0  indicate_semi.o ABSOLUTE
    ../clib/angel/sysapp.c                   0x00000000   Number         0  sys_command.o ABSOLUTE
    ../clib/angel/sysapp.c                   0x00000000   Number         0  sys_wrch.o ABSOLUTE
    ../clib/armsys.c                         0x00000000   Number         0  _get_argv_nomalloc.o ABSOLUTE
    ../clib/armsys.c                         0x00000000   Number         0  no_argv.o ABSOLUTE
    ../clib/armsys.c                         0x00000000   Number         0  argv_veneer.o ABSOLUTE
    ../clib/armsys.c                         0x00000000   Number         0  argv_veneer.o ABSOLUTE
    ../clib/heapalloc.c                      0x00000000   Number         0  hrguard.o ABSOLUTE
    ../clib/heapaux.c                        0x00000000   Number         0  heapauxi.o ABSOLUTE
    ../clib/libinit.s                        0x00000000   Number         0  libinit.o ABSOLUTE
    ../clib/libinit.s                        0x00000000   Number         0  libshutdown.o ABSOLUTE
    ../clib/libinit.s                        0x00000000   Number         0  libinit2.o ABSOLUTE
    ../clib/libinit.s                        0x00000000   Number         0  libshutdown2.o ABSOLUTE
    ../clib/longlong.s                       0x00000000   Number         0  lludivv7m.o ABSOLUTE
    ../clib/memcpset.s                       0x00000000   Number         0  rt_memcpy_w.o ABSOLUTE
    ../clib/memcpset.s                       0x00000000   Number         0  rt_memclr_w.o ABSOLUTE
    ../clib/memcpset.s                       0x00000000   Number         0  rt_memcpy_v6.o ABSOLUTE
    ../clib/printf.c                         0x00000000   Number         0  __printf_nopercent.o ABSOLUTE
    ../clib/printf.c                         0x00000000   Number         0  _printf_char_common.o ABSOLUTE
    ../clib/printf.c                         0x00000000   Number         0  _printf_char_file.o ABSOLUTE
    ../clib/printf.c                         0x00000000   Number         0  __2printf.o ABSOLUTE
    ../clib/printf.c                         0x00000000   Number         0  noretval__2printf.o ABSOLUTE
    ../clib/signal.c                         0x00000000   Number         0  defsig_segv_inner.o ABSOLUTE
    ../clib/signal.c                         0x00000000   Number         0  defsig_fpe_inner.o ABSOLUTE
    ../clib/signal.c                         0x00000000   Number         0  defsig_fpe_outer.o ABSOLUTE
    ../clib/signal.c                         0x00000000   Number         0  defsig_abrt_inner.o ABSOLUTE
    ../clib/signal.c                         0x00000000   Number         0  defsig_rtred_inner.o ABSOLUTE
    ../clib/signal.c                         0x00000000   Number         0  defsig_rtmem_inner.o ABSOLUTE
    ../clib/signal.c                         0x00000000   Number         0  defsig_rtmem_outer.o ABSOLUTE
    ../clib/signal.c                         0x00000000   Number         0  defsig_rtmem_formal.o ABSOLUTE
    ../clib/signal.c                         0x00000000   Number         0  defsig_general.o ABSOLUTE
    ../clib/signal.c                         0x00000000   Number         0  defsig_pvfn_inner.o ABSOLUTE
    ../clib/signal.c                         0x00000000   Number         0  defsig_cppl_inner.o ABSOLUTE
    ../clib/signal.c                         0x00000000   Number         0  defsig_other.o ABSOLUTE
    ../clib/signal.c                         0x00000000   Number         0  defsig_fpe_formal.o ABSOLUTE
    ../clib/signal.c                         0x00000000   Number         0  __raise.o ABSOLUTE
    ../clib/signal.c                         0x00000000   Number         0  defsig_exit.o ABSOLUTE
    ../clib/signal.c                         0x00000000   Number         0  defsig_stak_inner.o ABSOLUTE
    ../clib/signal.s                         0x00000000   Number         0  defsig.o ABSOLUTE
    ../clib/stdlib.c                         0x00000000   Number         0  exit.o ABSOLUTE
    ../fplib/fpinit.s                        0x00000000   Number         0  fpinit.o ABSOLUTE
    ..\..\..\..\software\common\lpc43xx_scu.c 0x00000000   Number         0  lpc43xx_scu.o ABSOLUTE
    ..\..\..\..\software\common\lpc43xx_sdram.c 0x00000000   Number         0  lpc43xx_sdram.o ABSOLUTE
    ..\..\..\..\software\kernel\port\cpu.asm 0x00000000   Number         0  cpu.o ABSOLUTE
    ..\..\..\..\software\kernel\port\port.c  0x00000000   Number         0  port.o ABSOLUTE
    ..\..\..\..\software\kernel\port\port_error_process.c 0x00000000   Number         0  port_error_process.o ABSOLUTE
    ..\..\..\..\software\kernel\port\port_extension.c 0x00000000   Number         0  port_extension.o ABSOLUTE
    ..\..\..\..\software\kernel\port\port_hook.c 0x00000000   Number         0  port_hook.o ABSOLUTE
    ..\..\..\..\software\kernel\port\raw_trace_port.c 0x00000000   Number         0  raw_trace_port.o ABSOLUTE
    ..\..\..\..\software\kernel\port\user_extension.c 0x00000000   Number         0  user_extension.o ABSOLUTE
    ..\..\..\..\software\kernel\raw-os\extension\lib\fifo.c 0x00000000   Number         0  fifo.o ABSOLUTE
    ..\..\..\..\software\kernel\raw-os\extension\lib\string.c 0x00000000   Number         0  string.o ABSOLUTE
    ..\..\..\..\software\kernel\raw-os\extension\shell\rsh.c 0x00000000   Number         0  rsh.o ABSOLUTE
    ..\..\..\..\software\kernel\raw-os\raw-os.c 0x00000000   Number         0  raw-os.o ABSOLUTE
    ..\..\board_common\uda1380.c             0x00000000   Number         0  uda1380.o ABSOLUTE
    ..\..\examples\i2s_play\successwave.c    0x00000000   Number         0  successwave.o ABSOLUTE
    ..\..\examples\led\test.cpp              0x00000000   Number         0  test.o ABSOLUTE
    ..\..\examples\sdram\main.c              0x00000000   Number         0  main.o ABSOLUTE
    ..\..\startup_code\keil_startup_lpc18xx43xx.s 0x00000000   Number         0  keil_startup_lpc18xx43xx.o ABSOLUTE
    ..\..\startup_code\sysinit.c             0x00000000   Number         0  sysinit.o ABSOLUTE
    ..\\..\\..\\..\\software\\common\\lpc43xx_scu.c 0x00000000   Number         0  lpc43xx_scu.o ABSOLUTE
    ..\\..\\..\\..\\software\\common\\lpc43xx_sdram.c 0x00000000   Number         0  lpc43xx_sdram.o ABSOLUTE
    ..\\..\\board_common\\uda1380.c          0x00000000   Number         0  uda1380.o ABSOLUTE
    ..\\..\\examples\\sdram\\main.c          0x00000000   Number         0  main.o ABSOLUTE
    ..\\..\\startup_code\\sysinit.c          0x00000000   Number         0  sysinit.o ABSOLUTE
    ..\\chip_common\\fpu_init.c              0x00000000   Number         0  fpu_init.o ABSOLUTE
    ..\chip_common\fpu_init.c                0x00000000   Number         0  fpu_init.o ABSOLUTE
    ..\chip_common\ring_buffer.c             0x00000000   Number         0  ring_buffer.o ABSOLUTE
    board.c                                  0x00000000   Number         0  board.o ABSOLUTE
    board.c                                  0x00000000   Number         0  board.o ABSOLUTE
    board_sysinit.c                          0x00000000   Number         0  board_sysinit.o ABSOLUTE
    board_sysinit.c                          0x00000000   Number         0  board_sysinit.o ABSOLUTE
    chip_18xx_43xx.c                         0x00000000   Number         0  chip_18xx_43xx.o ABSOLUTE
    chip_18xx_43xx.c                         0x00000000   Number         0  chip_18xx_43xx.o ABSOLUTE
    clock_18xx_43xx.c                        0x00000000   Number         0  clock_18xx_43xx.o ABSOLUTE
    clock_18xx_43xx.c                        0x00000000   Number         0  clock_18xx_43xx.o ABSOLUTE
    dc.s                                     0x00000000   Number         0  dc.o ABSOLUTE
    emc_18xx_43xx.c                          0x00000000   Number         0  emc_18xx_43xx.o ABSOLUTE
    emc_18xx_43xx.c                          0x00000000   Number         0  emc_18xx_43xx.o ABSOLUTE
    gpio_18xx_43xx.c                         0x00000000   Number         0  gpio_18xx_43xx.o ABSOLUTE
    gpio_18xx_43xx.c                         0x00000000   Number         0  gpio_18xx_43xx.o ABSOLUTE
    i2c_18xx_43xx.c                          0x00000000   Number         0  i2c_18xx_43xx.o ABSOLUTE
    i2c_18xx_43xx.c                          0x00000000   Number         0  i2c_18xx_43xx.o ABSOLUTE
    i2s_18xx_43xx.c                          0x00000000   Number         0  i2s_18xx_43xx.o ABSOLUTE
    i2s_18xx_43xx.c                          0x00000000   Number         0  i2s_18xx_43xx.o ABSOLUTE
    rgu_18xx_43xx.c                          0x00000000   Number         0  rgu_18xx_43xx.o ABSOLUTE
    rgu_18xx_43xx.c                          0x00000000   Number         0  rgu_18xx_43xx.o ABSOLUTE
    ssp_18xx_43xx.c                          0x00000000   Number         0  ssp_18xx_43xx.o ABSOLUTE
    ssp_18xx_43xx.c                          0x00000000   Number         0  ssp_18xx_43xx.o ABSOLUTE
    sysinit_18xx_43xx.c                      0x00000000   Number         0  sysinit_18xx_43xx.o ABSOLUTE
    sysinit_18xx_43xx.c                      0x00000000   Number         0  sysinit_18xx_43xx.o ABSOLUTE
    uart_18xx_43xx.c                         0x00000000   Number         0  uart_18xx_43xx.o ABSOLUTE
    uart_18xx_43xx.c                         0x00000000   Number         0  uart_18xx_43xx.o ABSOLUTE
    .data                                    0x10000000   Section       56  raw-os.o(.data)
    .data                                    0x10000038   Section        4  main.o(.data)
    .data                                    0x1000003c   Section       20  board.o(.data)
    .data                                    0x10000050   Section        4  chip_18xx_43xx.o(.data)
    .data                                    0x10000054   Section        8  clock_18xx_43xx.o(.data)
    audio_usb_pll_freq                       0x10000054   Data           8  clock_18xx_43xx.o(.data)
    .data                                    0x1000005c   Section       56  i2c_18xx_43xx.o(.data)
    i2c                                      0x1000005c   Data          56  i2c_18xx_43xx.o(.data)
    .bss                                     0x10000098   Section     3548  raw-os.o(.bss)
    .bss                                     0x10000e78   Section     1932  main.o(.bss)
    fifo_buffer                              0x10001584   Data         128  main.o(.bss)
    .bss                                     0x10001604   Section       96  libspace.o(.bss)
    HEAP                                     0x10001668   Section      256  keil_startup_lpc18xx43xx.o(HEAP)
    Heap_Mem                                 0x10001668   Data         256  keil_startup_lpc18xx43xx.o(HEAP)
    STACK                                    0x10001768   Section     1536  keil_startup_lpc18xx43xx.o(STACK)
    __initial_sp                             0x10001d68   Data           0  keil_startup_lpc18xx43xx.o(STACK)
    RESET                                    0x1a000000   Section      276  keil_startup_lpc18xx43xx.o(RESET)
    !!!main                                  0x1a000114   Section        8  __main.o(!!!main)
    !!!scatter                               0x1a00011c   Section       52  __scatter.o(!!!scatter)
    !!handler_copy                           0x1a000150   Section       26  __scatter_copy.o(!!handler_copy)
    !!handler_zi                             0x1a00016c   Section       28  __scatter_zi.o(!!handler_zi)
    .ARM.Collect$$libinit$$00000000          0x1a000188   Section        2  libinit.o(.ARM.Collect$$libinit$$00000000)
    .ARM.Collect$$libinit$$00000001          0x1a00018a   Section        4  libinit2.o(.ARM.Collect$$libinit$$00000001)
    .ARM.Collect$$libinit$$00000004          0x1a00018e   Section        0  libinit2.o(.ARM.Collect$$libinit$$00000004)
    .ARM.Collect$$libinit$$0000000A          0x1a00018e   Section        0  libinit2.o(.ARM.Collect$$libinit$$0000000A)
    .ARM.Collect$$libinit$$0000000C          0x1a00018e   Section        0  libinit2.o(.ARM.Collect$$libinit$$0000000C)
    .ARM.Collect$$libinit$$0000000E          0x1a00018e   Section        0  libinit2.o(.ARM.Collect$$libinit$$0000000E)
    .ARM.Collect$$libinit$$00000011          0x1a00018e   Section        0  libinit2.o(.ARM.Collect$$libinit$$00000011)
    .ARM.Collect$$libinit$$00000013          0x1a00018e   Section        0  libinit2.o(.ARM.Collect$$libinit$$00000013)
    .ARM.Collect$$libinit$$00000015          0x1a00018e   Section        0  libinit2.o(.ARM.Collect$$libinit$$00000015)
    .ARM.Collect$$libinit$$00000017          0x1a00018e   Section        0  libinit2.o(.ARM.Collect$$libinit$$00000017)
    .ARM.Collect$$libinit$$00000019          0x1a00018e   Section        0  libinit2.o(.ARM.Collect$$libinit$$00000019)
    .ARM.Collect$$libinit$$0000001B          0x1a00018e   Section        0  libinit2.o(.ARM.Collect$$libinit$$0000001B)
    .ARM.Collect$$libinit$$0000001D          0x1a00018e   Section        0  libinit2.o(.ARM.Collect$$libinit$$0000001D)
    .ARM.Collect$$libinit$$0000001F          0x1a00018e   Section        0  libinit2.o(.ARM.Collect$$libinit$$0000001F)
    .ARM.Collect$$libinit$$00000021          0x1a00018e   Section        0  libinit2.o(.ARM.Collect$$libinit$$00000021)
    .ARM.Collect$$libinit$$00000023          0x1a00018e   Section        0  libinit2.o(.ARM.Collect$$libinit$$00000023)
    .ARM.Collect$$libinit$$00000025          0x1a00018e   Section        0  libinit2.o(.ARM.Collect$$libinit$$00000025)
    .ARM.Collect$$libinit$$0000002C          0x1a00018e   Section        0  libinit2.o(.ARM.Collect$$libinit$$0000002C)
    .ARM.Collect$$libinit$$0000002E          0x1a00018e   Section        0  libinit2.o(.ARM.Collect$$libinit$$0000002E)
    .ARM.Collect$$libinit$$00000030          0x1a00018e   Section        0  libinit2.o(.ARM.Collect$$libinit$$00000030)
    .ARM.Collect$$libinit$$00000032          0x1a00018e   Section        0  libinit2.o(.ARM.Collect$$libinit$$00000032)
    .ARM.Collect$$libinit$$00000033          0x1a00018e   Section        2  libinit2.o(.ARM.Collect$$libinit$$00000033)
    .ARM.Collect$$libshutdown$$00000000      0x1a000190   Section        2  libshutdown.o(.ARM.Collect$$libshutdown$$00000000)
    .ARM.Collect$$libshutdown$$00000002      0x1a000192   Section        0  libshutdown2.o(.ARM.Collect$$libshutdown$$00000002)
    .ARM.Collect$$libshutdown$$00000004      0x1a000192   Section        0  libshutdown2.o(.ARM.Collect$$libshutdown$$00000004)
    .ARM.Collect$$libshutdown$$00000007      0x1a000192   Section        0  libshutdown2.o(.ARM.Collect$$libshutdown$$00000007)
    .ARM.Collect$$libshutdown$$0000000A      0x1a000192   Section        0  libshutdown2.o(.ARM.Collect$$libshutdown$$0000000A)
    .ARM.Collect$$libshutdown$$0000000C      0x1a000192   Section        0  libshutdown2.o(.ARM.Collect$$libshutdown$$0000000C)
    .ARM.Collect$$libshutdown$$0000000F      0x1a000192   Section        0  libshutdown2.o(.ARM.Collect$$libshutdown$$0000000F)
    .ARM.Collect$$libshutdown$$00000010      0x1a000192   Section        2  libshutdown2.o(.ARM.Collect$$libshutdown$$00000010)
    .ARM.Collect$$rtentry$$00000000          0x1a000194   Section        0  __rtentry.o(.ARM.Collect$$rtentry$$00000000)
    .ARM.Collect$$rtentry$$00000002          0x1a000194   Section        0  __rtentry2.o(.ARM.Collect$$rtentry$$00000002)
    .ARM.Collect$$rtentry$$00000004          0x1a000194   Section        6  __rtentry4.o(.ARM.Collect$$rtentry$$00000004)
    .ARM.Collect$$rtentry$$00000009          0x1a00019a   Section        0  __rtentry2.o(.ARM.Collect$$rtentry$$00000009)
    .ARM.Collect$$rtentry$$0000000A          0x1a00019a   Section        4  __rtentry2.o(.ARM.Collect$$rtentry$$0000000A)
    .ARM.Collect$$rtentry$$0000000C          0x1a00019e   Section        0  __rtentry2.o(.ARM.Collect$$rtentry$$0000000C)
    .ARM.Collect$$rtentry$$0000000D          0x1a00019e   Section        8  __rtentry2.o(.ARM.Collect$$rtentry$$0000000D)
    .ARM.Collect$$rtexit$$00000000           0x1a0001a6   Section        2  rtexit.o(.ARM.Collect$$rtexit$$00000000)
    .ARM.Collect$$rtexit$$00000002           0x1a0001a8   Section        0  rtexit2.o(.ARM.Collect$$rtexit$$00000002)
    .ARM.Collect$$rtexit$$00000003           0x1a0001a8   Section        4  rtexit2.o(.ARM.Collect$$rtexit$$00000003)
    .ARM.Collect$$rtexit$$00000004           0x1a0001ac   Section        6  rtexit2.o(.ARM.Collect$$rtexit$$00000004)
    .text                                    0x1a0001b4   Section        0  raw-os.o(.text)
    list_insert                              0x1a0001b5   Thumb Code    14  raw-os.o(.text)
    debug_head_list_init                     0x1a000225   Thumb Code    58  raw-os.o(.text)
    add_to_priority_list                     0x1a000333   Thumb Code    52  raw-os.o(.text)
    bit_set                                  0x1a000383   Thumb Code    26  raw-os.o(.text)
    release_mutex                            0x1a000601   Thumb Code    34  raw-os.o(.text)
    tick_task_process                        0x1a00094b   Thumb Code    28  raw-os.o(.text)
    pend_task_wake_up                        0x1a000b57   Thumb Code   112  raw-os.o(.text)
    timer_list_remove                        0x1a000ca9   Thumb Code    20  raw-os.o(.text)
    timer_list_priority_insert               0x1a000cbd   Thumb Code    60  raw-os.o(.text)
    timer_list_init                          0x1a000ff5   Thumb Code    10  raw-os.o(.text)
    raw_byte_pool_search                     0x1a001d1d   Thumb Code   254  raw-os.o(.text)
    msg_to_end_buffer                        0x1a0027af   Thumb Code   104  raw-os.o(.text)
    buffer_to_msg                            0x1a002817   Thumb Code   108  raw-os.o(.text)
    list_init                                0x1a003749   Thumb Code     6  raw-os.o(.text)
    is_list_empty                            0x1a00374f   Thumb Code    16  raw-os.o(.text)
    list_delete                              0x1a00375f   Thumb Code    14  raw-os.o(.text)
    .text                                    0x1a003774   Section        0  fifo.o(.text)
    fifo_unused                              0x1a003775   Thumb Code    16  fifo.o(.text)
    is_power_of_2                            0x1a003785   Thumb Code    18  fifo.o(.text)
    fifo_copy_in                             0x1a0037d9   Thumb Code    68  fifo.o(.text)
    kfifo_copy_out                           0x1a00386b   Thumb Code    70  fifo.o(.text)
    internal_fifo_out_peek                   0x1a0038b1   Thumb Code    40  fifo.o(.text)
    .text                                    0x1a00399c   Section      172  cpu.o(.text)
    $v0                                      0x1a00399c   Number         0  cpu.o(.text)
    .text                                    0x1a003a48   Section        0  port.o(.text)
    .text                                    0x1a003c7c   Section        0  port_hook.o(.text)
    .text                                    0x1a003c98   Section        0  user_extension.o(.text)
    .text                                    0x1a003d38   Section        0  port_error_process.o(.text)
    .text                                    0x1a003db0   Section        0  port_extension.o(.text)
    .text                                    0x1a003de4   Section       68  keil_startup_lpc18xx43xx.o(.text)
    $v0                                      0x1a003de4   Number         0  keil_startup_lpc18xx43xx.o(.text)
    .text                                    0x1a003e28   Section        0  sysinit.o(.text)
    .text                                    0x1a003e44   Section        0  main.o(.text)
    NVIC_SetPriority                         0x1a003e45   Thumb Code    32  main.o(.text)
    uart_3_irq                               0x1a003efd   Thumb Code    58  main.o(.text)
    uart3_int_init                           0x1a003f47   Thumb Code    32  main.o(.text)
    prepare_src_data                         0x1a003f67   Thumb Code    34  main.o(.text)
    check_src_data                           0x1a003f89   Thumb Code    62  main.o(.text)
    NVIC_EnableIRQ                           0x1a00412d   Thumb Code    22  main.o(.text)
    .text                                    0x1a0041d4   Section        0  lpc43xx_scu.o(.text)
    .text                                    0x1a0041f8   Section        0  lpc43xx_sdram.o(.text)
    .text                                    0x1a0046a8   Section        0  board.o(.text)
    delay                                    0x1a004711   Thumb Code    12  board.o(.text)
    Board_Audio_CodecInit                    0x1a00471d   Thumb Code    32  board.o(.text)
    writeLCD00_16                            0x1a00473d   Thumb Code    58  board.o(.text)
    writeLCD01_16                            0x1a004777   Thumb Code    72  board.o(.text)
    writeLCDReg                              0x1a0047bf   Thumb Code    20  board.o(.text)
    pinConfig                                0x1a0047d3   Thumb Code    14  board.o(.text)
    writeTSCReg                              0x1a0047e1   Thumb Code    28  board.o(.text)
    readTSCReg                               0x1a0047fd   Thumb Code    24  board.o(.text)
    detectTSCTouch                           0x1a004815   Thumb Code    36  board.o(.text)
    getTSCCoord                              0x1a004839   Thumb Code   114  board.o(.text)
    Board_LED_Init                           0x1a004943   Thumb Code    28  board.o(.text)
    Chip_SCU_PinMuxSet                       0x1a0050c5   Thumb Code    12  board.o(.text)
    Chip_GPIO_SetPinState                    0x1a0050d1   Thumb Code    10  board.o(.text)
    Chip_GPIO_GetPinState                    0x1a0050db   Thumb Code    18  board.o(.text)
    Chip_GPIO_SetPinDIROutput                0x1a0050ed   Thumb Code    72  board.o(.text)
    Chip_GPIO_SetPinDIRInput                 0x1a005135   Thumb Code    28  board.o(.text)
    .text                                    0x1a005150   Section        0  board_sysinit.o(.text)
    Chip_SCU_SetPinMuxing                    0x1a005151   Thumb Code    44  board_sysinit.o(.text)
    .text                                    0x1a0052ec   Section        0  uda1380.o(.text)
    Audio_Codec_SetDefaultValues             0x1a005353   Thumb Code    36  uda1380.o(.text)
    .text                                    0x1a005470   Section      238  lludivv7m.o(.text)
    .text                                    0x1a005560   Section        0  noretval__2printf.o(.text)
    .text                                    0x1a005578   Section       78  rt_memclr_w.o(.text)
    .text                                    0x1a0055c6   Section        0  heapauxi.o(.text)
    .text                                    0x1a0055cc   Section        0  _printf_char_file.o(.text)
    .text                                    0x1a0055f0   Section        0  _printf_char_common.o(.text)
    _printf_input_char                       0x1a0055f1   Thumb Code    10  _printf_char_common.o(.text)
    .text                                    0x1a005620   Section       74  sys_stackheap_outer.o(.text)
    .text                                    0x1a00566a   Section        0  __printf_nopercent.o(.text)
    .text                                    0x1a005692   Section        0  exit.o(.text)
    .text                                    0x1a0056a4   Section        8  libspace.o(.text)
    i.Chip_Clock_Enable                      0x1a0056ac   Section        0  clock_18xx_43xx.o(i.Chip_Clock_Enable)
    i.Chip_Clock_EnableOpts                  0x1a0056e4   Section        0  clock_18xx_43xx.o(i.Chip_Clock_EnableOpts)
    i.Chip_Clock_FindBaseClock               0x1a005720   Section        0  clock_18xx_43xx.o(i.Chip_Clock_FindBaseClock)
    Chip_Clock_FindBaseClock                 0x1a005721   Thumb Code    74  clock_18xx_43xx.o(i.Chip_Clock_FindBaseClock)
    i.Chip_Clock_GetBaseClock                0x1a005770   Section        0  clock_18xx_43xx.o(i.Chip_Clock_GetBaseClock)
    i.Chip_Clock_GetBaseClocktHz             0x1a005794   Section        0  clock_18xx_43xx.o(i.Chip_Clock_GetBaseClocktHz)
    i.Chip_Clock_GetClockInputHz             0x1a0057a8   Section        0  clock_18xx_43xx.o(i.Chip_Clock_GetClockInputHz)
    i.Chip_Clock_GetDivRate                  0x1a00587c   Section        0  clock_18xx_43xx.o(i.Chip_Clock_GetDivRate)
    Chip_Clock_GetDivRate                    0x1a00587d   Thumb Code    40  clock_18xx_43xx.o(i.Chip_Clock_GetDivRate)
    i.Chip_Clock_GetDividerDivisor           0x1a0058a4   Section        0  clock_18xx_43xx.o(i.Chip_Clock_GetDividerDivisor)
    i.Chip_Clock_GetDividerSource            0x1a0058c4   Section        0  clock_18xx_43xx.o(i.Chip_Clock_GetDividerSource)
    i.Chip_Clock_GetEMCRate                  0x1a0058e4   Section        0  clock_18xx_43xx.o(i.Chip_Clock_GetEMCRate)
    i.Chip_Clock_GetMainPLLHz                0x1a005914   Section        0  clock_18xx_43xx.o(i.Chip_Clock_GetMainPLLHz)
    i.Chip_Clock_GetRate                     0x1a00598c   Section        0  clock_18xx_43xx.o(i.Chip_Clock_GetRate)
    i.Chip_Clock_SetBaseClock                0x1a0059e4   Section        0  clock_18xx_43xx.o(i.Chip_Clock_SetBaseClock)
    i.Chip_Clock_SetDivider                  0x1a005a2c   Section        0  clock_18xx_43xx.o(i.Chip_Clock_SetDivider)
    i.Chip_EMC_Dynamic_Init                  0x1a005a7c   Section        0  emc_18xx_43xx.o(i.Chip_EMC_Dynamic_Init)
    i.Chip_EMC_Init                          0x1a005a98   Section        0  emc_18xx_43xx.o(i.Chip_EMC_Init)
    i.Chip_EMC_Static_Init                   0x1a005ac4   Section        0  emc_18xx_43xx.o(i.Chip_EMC_Static_Init)
    i.Chip_GPIO_Init                         0x1a005ae0   Section        0  gpio_18xx_43xx.o(i.Chip_GPIO_Init)
    i.Chip_I2C_EventHandler                  0x1a005ae4   Section        0  i2c_18xx_43xx.o(i.Chip_I2C_EventHandler)
    i.Chip_I2C_EventHandlerPolling           0x1a005b0c   Section        0  i2c_18xx_43xx.o(i.Chip_I2C_EventHandlerPolling)
    i.Chip_I2C_GetMasterEventHandler         0x1a005b4c   Section        0  i2c_18xx_43xx.o(i.Chip_I2C_GetMasterEventHandler)
    i.Chip_I2C_Init                          0x1a005b60   Section        0  i2c_18xx_43xx.o(i.Chip_I2C_Init)
    i.Chip_I2C_IsStateChanged                0x1a005b8c   Section        0  i2c_18xx_43xx.o(i.Chip_I2C_IsStateChanged)
    i.Chip_I2C_MasterCmdRead                 0x1a005ba4   Section        0  i2c_18xx_43xx.o(i.Chip_I2C_MasterCmdRead)
    i.Chip_I2C_MasterSend                    0x1a005bde   Section        0  i2c_18xx_43xx.o(i.Chip_I2C_MasterSend)
    i.Chip_I2C_MasterStateHandler            0x1a005c10   Section        0  i2c_18xx_43xx.o(i.Chip_I2C_MasterStateHandler)
    i.Chip_I2C_MasterTransfer                0x1a005c48   Section        0  i2c_18xx_43xx.o(i.Chip_I2C_MasterTransfer)
    i.Chip_I2C_SetClockRate                  0x1a005cb4   Section        0  i2c_18xx_43xx.o(i.Chip_I2C_SetClockRate)
    i.Chip_I2C_SetMasterEventHandler         0x1a005cf0   Section        0  i2c_18xx_43xx.o(i.Chip_I2C_SetMasterEventHandler)
    i.Chip_I2S_Init                          0x1a005d18   Section        0  i2s_18xx_43xx.o(i.Chip_I2S_Init)
    i.Chip_I2S_TxConfig                      0x1a005d24   Section        0  i2s_18xx_43xx.o(i.Chip_I2S_TxConfig)
    i.Chip_RGU_InReset                       0x1a005da0   Section        0  rgu_18xx_43xx.o(i.Chip_RGU_InReset)
    i.Chip_RGU_TriggerReset                  0x1a005dd8   Section        0  rgu_18xx_43xx.o(i.Chip_RGU_TriggerReset)
    i.Chip_SSP_ClearIntPending               0x1a005e04   Section        0  ssp_18xx_43xx.o(i.Chip_SSP_ClearIntPending)
    Chip_SSP_ClearIntPending                 0x1a005e05   Thumb Code     4  ssp_18xx_43xx.o(i.Chip_SSP_ClearIntPending)
    i.Chip_SSP_GetClockIndex                 0x1a005e08   Section        0  ssp_18xx_43xx.o(i.Chip_SSP_GetClockIndex)
    Chip_SSP_GetClockIndex                   0x1a005e09   Thumb Code    16  ssp_18xx_43xx.o(i.Chip_SSP_GetClockIndex)
    i.Chip_SSP_GetRawIntStatus               0x1a005e1c   Section        0  ssp_18xx_43xx.o(i.Chip_SSP_GetRawIntStatus)
    Chip_SSP_GetRawIntStatus                 0x1a005e1d   Thumb Code    16  ssp_18xx_43xx.o(i.Chip_SSP_GetRawIntStatus)
    i.Chip_SSP_GetStatus                     0x1a005e2c   Section        0  ssp_18xx_43xx.o(i.Chip_SSP_GetStatus)
    Chip_SSP_GetStatus                       0x1a005e2d   Thumb Code    16  ssp_18xx_43xx.o(i.Chip_SSP_GetStatus)
    i.Chip_SSP_Init                          0x1a005e3c   Section        0  ssp_18xx_43xx.o(i.Chip_SSP_Init)
    i.Chip_SSP_ReceiveFrame                  0x1a005e78   Section        0  ssp_18xx_43xx.o(i.Chip_SSP_ReceiveFrame)
    Chip_SSP_ReceiveFrame                    0x1a005e79   Thumb Code     8  ssp_18xx_43xx.o(i.Chip_SSP_ReceiveFrame)
    i.Chip_SSP_SendFrame                     0x1a005e80   Section        0  ssp_18xx_43xx.o(i.Chip_SSP_SendFrame)
    Chip_SSP_SendFrame                       0x1a005e81   Thumb Code     6  ssp_18xx_43xx.o(i.Chip_SSP_SendFrame)
    i.Chip_SSP_SetBitRate                    0x1a005e86   Section        0  ssp_18xx_43xx.o(i.Chip_SSP_SetBitRate)
    i.Chip_SSP_SetClockRate                  0x1a005ecc   Section        0  ssp_18xx_43xx.o(i.Chip_SSP_SetClockRate)
    i.Chip_SSP_SetMaster                     0x1a005ee0   Section        0  ssp_18xx_43xx.o(i.Chip_SSP_SetMaster)
    i.Chip_SSP_Set_Mode                      0x1a005efc   Section        0  ssp_18xx_43xx.o(i.Chip_SSP_Set_Mode)
    Chip_SSP_Set_Mode                        0x1a005efd   Thumb Code    12  ssp_18xx_43xx.o(i.Chip_SSP_Set_Mode)
    i.Chip_SSP_WriteFrames_Blocking          0x1a005f08   Section        0  ssp_18xx_43xx.o(i.Chip_SSP_WriteFrames_Blocking)
    i.Chip_SetupCoreClock                    0x1a005ff2   Section        0  sysinit_18xx_43xx.o(i.Chip_SetupCoreClock)
    i.Chip_UART_DisableDivisorAccess         0x1a006000   Section        0  uart_18xx_43xx.o(i.Chip_UART_DisableDivisorAccess)
    Chip_UART_DisableDivisorAccess           0x1a006001   Thumb Code    10  uart_18xx_43xx.o(i.Chip_UART_DisableDivisorAccess)
    i.Chip_UART_EnableDivisorAccess          0x1a00600a   Section        0  uart_18xx_43xx.o(i.Chip_UART_EnableDivisorAccess)
    Chip_UART_EnableDivisorAccess            0x1a00600b   Thumb Code    10  uart_18xx_43xx.o(i.Chip_UART_EnableDivisorAccess)
    i.Chip_UART_GetClockIndex                0x1a006014   Section        0  uart_18xx_43xx.o(i.Chip_UART_GetClockIndex)
    Chip_UART_GetClockIndex                  0x1a006015   Thumb Code    36  uart_18xx_43xx.o(i.Chip_UART_GetClockIndex)
    i.Chip_UART_Init                         0x1a006044   Section        0  uart_18xx_43xx.o(i.Chip_UART_Init)
    i.Chip_UART_SetBaud                      0x1a006090   Section        0  uart_18xx_43xx.o(i.Chip_UART_SetBaud)
    i.Chip_UART_SetDivisorLatches            0x1a0060d2   Section        0  uart_18xx_43xx.o(i.Chip_UART_SetDivisorLatches)
    Chip_UART_SetDivisorLatches              0x1a0060d3   Thumb Code     6  uart_18xx_43xx.o(i.Chip_UART_SetDivisorLatches)
    i.SystemCoreClockUpdate                  0x1a0060d8   Section        0  chip_18xx_43xx.o(i.SystemCoreClockUpdate)
    i.clock_init_delay                       0x1a0060ec   Section        0  sysinit_18xx_43xx.o(i.clock_init_delay)
    clock_init_delay                         0x1a0060ed   Thumb Code    36  sysinit_18xx_43xx.o(i.clock_init_delay)
    i.clock_main_init                        0x1a006110   Section        0  sysinit_18xx_43xx.o(i.clock_main_init)
    clock_main_init                          0x1a006111   Thumb Code   168  sysinit_18xx_43xx.o(i.clock_main_init)
    i.convertTimmingParam                    0x1a0061cc   Section        0  emc_18xx_43xx.o(i.convertTimmingParam)
    convertTimmingParam                      0x1a0061cd   Thumb Code    50  emc_18xx_43xx.o(i.convertTimmingParam)
    i.fpuInit                                0x1a006204   Section        0  fpu_init.o(i.fpuInit)
    i.getClkDiv                              0x1a006254   Section        0  i2s_18xx_43xx.o(i.getClkDiv)
    getClkDiv                                0x1a006255   Thumb Code   354  i2s_18xx_43xx.o(i.getClkDiv)
    i.getClkRate                             0x1a0063b8   Section        0  i2c_18xx_43xx.o(i.getClkRate)
    getClkRate                               0x1a0063b9   Thumb Code    22  i2c_18xx_43xx.o(i.getClkRate)
    i.getColsLen                             0x1a0063d4   Section        0  emc_18xx_43xx.o(i.getColsLen)
    getColsLen                               0x1a0063d5   Thumb Code    40  emc_18xx_43xx.o(i.getColsLen)
    i.getCurState                            0x1a0063fc   Section        0  i2c_18xx_43xx.o(i.getCurState)
    getCurState                              0x1a0063fd   Thumb Code    10  i2c_18xx_43xx.o(i.getCurState)
    i.handleMasterXferState                  0x1a006406   Section        0  i2c_18xx_43xx.o(i.handleMasterXferState)
    i.initDynMem                             0x1a0064e6   Section        0  emc_18xx_43xx.o(i.initDynMem)
    i.initStaticMem                          0x1a0066ce   Section        0  emc_18xx_43xx.o(i.initStaticMem)
    i.startSlaverXfer                        0x1a006736   Section        0  i2c_18xx_43xx.o(i.startSlaverXfer)
    startSlaverXfer                          0x1a006737   Thumb Code    10  i2c_18xx_43xx.o(i.startSlaverXfer)
    x$fpl$fpinit                             0x1a006740   Section       10  fpinit.o(x$fpl$fpinit)
    $v0                                      0x1a006740   Number         0  fpinit.o(x$fpl$fpinit)
    .constdata                               0x1a00674a   Section    183340  successwave.o(.constdata)
    .constdata                               0x1a033378   Section       64  board.o(.constdata)
    ledports                                 0x1a033378   Data           8  board.o(.constdata)
    ledbits                                  0x1a033380   Data           8  board.o(.constdata)
    .constdata                               0x1a0333b8   Section      700  board_sysinit.o(.constdata)
    InitClkStates                            0x1a0333b8   Data          16  board_sysinit.o(.constdata)
    spifipinmuxing                           0x1a0333c8   Data          24  board_sysinit.o(.constdata)
    pinmuxing                                0x1a0333e0   Data         496  board_sysinit.o(.constdata)
    pinclockmuxing                           0x1a0335d0   Data          16  board_sysinit.o(.constdata)
    MT48LC4M32_config                        0x1a0335e0   Data         116  board_sysinit.o(.constdata)
    S29GL64N90_config                        0x1a033654   Data          32  board_sysinit.o(.constdata)
    .constdata                               0x1a033674   Section       31  uda1380.o(.constdata)
    UDA_sys_regs_dat                         0x1a033674   Data          11  uda1380.o(.constdata)
    UDA_interfil_regs_dat                    0x1a03367f   Data          11  uda1380.o(.constdata)
    UDA_decimator_regs_dat                   0x1a03368a   Data           9  uda1380.o(.constdata)
    .constdata                               0x1a033694   Section      108  clock_18xx_43xx.o(.constdata)
    periph_to_base                           0x1a033694   Data         108  clock_18xx_43xx.o(.constdata)
    .constdata                               0x1a033700   Section       72  sysinit_18xx_43xx.o(.constdata)
    InitClkStates                            0x1a033700   Data          72  sysinit_18xx_43xx.o(.constdata)

    Global Symbols

    Symbol Name                              Value     Ov Type        Size  Object(Section)

    BuildAttributes$$THM_ISAv4$E$P$D$K$B$S$7EM$VFPi3$EXTD16$VFPS$VFMA$PE$A:L22UL41UL21$X:L11$S22US41US21$IEEE1$IW$USESV6$~STKCKD$USESV7$~SHL$OSPACE$ROPI$EBA8$UX$STANDARDLIB$REQ8$PRES8$EABIv2 0x00000000   Number         0  anon$$obj.o ABSOLUTE
    __ARM_use_no_argv                        0x00000000   Number         0  main.o ABSOLUTE
    __ARM_exceptions_init                     - Undefined Weak Reference
    __alloca_initialize                       - Undefined Weak Reference
    __arm_preinit_                            - Undefined Weak Reference
    __cpp_initialize__aeabi_                  - Undefined Weak Reference
    __cxa_finalize                            - Undefined Weak Reference
    __rt_locale                               - Undefined Weak Reference
    __sigvec_lookup                           - Undefined Weak Reference
    _atexit_init                              - Undefined Weak Reference
    _call_atexit_fns                          - Undefined Weak Reference
    _clock_init                               - Undefined Weak Reference
    _fp_trap_init                             - Undefined Weak Reference
    _fp_trap_shutdown                         - Undefined Weak Reference
    _get_lc_collate                           - Undefined Weak Reference
    _get_lc_ctype                             - Undefined Weak Reference
    _get_lc_monetary                          - Undefined Weak Reference
    _get_lc_numeric                           - Undefined Weak Reference
    _get_lc_time                              - Undefined Weak Reference
    _getenv_init                              - Undefined Weak Reference
    _handle_redirection                       - Undefined Weak Reference
    _init_alloc                               - Undefined Weak Reference
    _init_user_alloc                          - Undefined Weak Reference
    _initio                                   - Undefined Weak Reference
    _rand_init                                - Undefined Weak Reference
    _signal_finish                            - Undefined Weak Reference
    _signal_init                              - Undefined Weak Reference
    _terminate_alloc                          - Undefined Weak Reference
    _terminate_user_alloc                     - Undefined Weak Reference
    _terminateio                              - Undefined Weak Reference
    raw_os_active                            0x10000000   Data           2  raw-os.o(.data)
    idle_task_exit                           0x10000002   Data           1  raw-os.o(.data)
    raw_sched_lock                           0x10000003   Data           1  raw-os.o(.data)
    raw_int_nesting                          0x10000004   Data           1  raw-os.o(.data)
    high_ready_obj                           0x10000008   Data           4  raw-os.o(.data)
    raw_task_active                          0x1000000c   Data           4  raw-os.o(.data)
    raw_idle_count                           0x10000010   Data           8  raw-os.o(.data)
    raw_tick_count                           0x10000018   Data           4  raw-os.o(.data)
    timer_head                               0x1000001c   Data           8  raw-os.o(.data)
    raw_timer_count                          0x10000024   Data           4  raw-os.o(.data)
    raw_timer_ctrl                           0x10000028   Data           4  raw-os.o(.data)
    sys_time_tick                            0x10000030   Data           8  raw-os.o(.data)
    test_count                               0x10000038   Data           4  main.o(.data)
    __stdout                                 0x1000003c   Data           4  board.o(.data)
    __stdin                                  0x10000040   Data           4  board.o(.data)
    __stderr                                 0x10000044   Data           4  board.o(.data)
    g_isPenDn                                0x10000048   Data           4  board.o(.data)
    g_isNewPenDn                             0x1000004c   Data           4  board.o(.data)
    SystemCoreClock                          0x10000050   Data           4  chip_18xx_43xx.o(.data)
    raw_ready_queue                          0x10000098   Data         508  raw-os.o(.bss)
    raw_idle_obj                             0x10000298   Data         144  raw-os.o(.bss)
    idle_stack                               0x10000328   Data         320  raw-os.o(.bss)
    tick_head                                0x10000468   Data          64  raw-os.o(.bss)
    raw_timer_obj                            0x100004a8   Data         144  raw-os.o(.bss)
    timer_task_stack                         0x10000538   Data        1024  raw-os.o(.bss)
    timer_sem                                0x10000938   Data          36  raw-os.o(.bss)
    timer_mutex                              0x1000095c   Data          40  raw-os.o(.bss)
    raw_task_debug                           0x10000984   Data          56  raw-os.o(.bss)
    tick_task_obj                            0x100009c0   Data         144  raw-os.o(.bss)
    tick_task_stack                          0x10000a50   Data        1024  raw-os.o(.bss)
    tick_semaphore_obj                       0x10000e50   Data          36  raw-os.o(.bss)
    shell_task_stack                         0x10000e78   Data        1600  main.o(.bss)
    shell_task_obj                           0x100014b8   Data         144  main.o(.bss)
    uart_sema                                0x10001548   Data          36  main.o(.bss)
    uart_fifo                                0x1000156c   Data          24  main.o(.bss)
    __libspace_start                         0x10001604   Data          96  libspace.o(.bss)
    __temporary_stack_top$libspace           0x10001664   Data           0  libspace.o(.bss)
    Stack_Mem                                0x10001768   Data        1536  keil_startup_lpc18xx43xx.o(STACK)
    __Vectors                                0x1a000000   Data           4  keil_startup_lpc18xx43xx.o(RESET)
    __main                                   0x1a000115   Thumb Code     8  __main.o(!!!main)
    __scatterload                            0x1a00011d   Thumb Code     0  __scatter.o(!!!scatter)
    __scatterload_rt2                        0x1a00011d   Thumb Code    44  __scatter.o(!!!scatter)
    __scatterload_rt2_thumb_only             0x1a00011d   Thumb Code     0  __scatter.o(!!!scatter)
    __scatterload_null                       0x1a00012b   Thumb Code     0  __scatter.o(!!!scatter)
    __scatterload_copy                       0x1a000151   Thumb Code    26  __scatter_copy.o(!!handler_copy)
    __scatterload_zeroinit                   0x1a00016d   Thumb Code    28  __scatter_zi.o(!!handler_zi)
    __rt_lib_init                            0x1a000189   Thumb Code     0  libinit.o(.ARM.Collect$$libinit$$00000000)
    __rt_lib_init_fp_1                       0x1a00018b   Thumb Code     0  libinit2.o(.ARM.Collect$$libinit$$00000001)
    __rt_lib_init_alloca_1                   0x1a00018f   Thumb Code     0  libinit2.o(.ARM.Collect$$libinit$$0000002E)
    __rt_lib_init_argv_1                     0x1a00018f   Thumb Code     0  libinit2.o(.ARM.Collect$$libinit$$0000002C)
    __rt_lib_init_atexit_1                   0x1a00018f   Thumb Code     0  libinit2.o(.ARM.Collect$$libinit$$0000001B)
    __rt_lib_init_clock_1                    0x1a00018f   Thumb Code     0  libinit2.o(.ARM.Collect$$libinit$$00000021)
    __rt_lib_init_cpp_1                      0x1a00018f   Thumb Code     0  libinit2.o(.ARM.Collect$$libinit$$00000032)
    __rt_lib_init_exceptions_1               0x1a00018f   Thumb Code     0  libinit2.o(.ARM.Collect$$libinit$$00000030)
    __rt_lib_init_fp_trap_1                  0x1a00018f   Thumb Code     0  libinit2.o(.ARM.Collect$$libinit$$0000001F)
    __rt_lib_init_getenv_1                   0x1a00018f   Thumb Code     0  libinit2.o(.ARM.Collect$$libinit$$00000023)
    __rt_lib_init_heap_1                     0x1a00018f   Thumb Code     0  libinit2.o(.ARM.Collect$$libinit$$0000000A)
    __rt_lib_init_lc_collate_1               0x1a00018f   Thumb Code     0  libinit2.o(.ARM.Collect$$libinit$$00000011)
    __rt_lib_init_lc_ctype_1                 0x1a00018f   Thumb Code     0  libinit2.o(.ARM.Collect$$libinit$$00000013)
    __rt_lib_init_lc_monetary_1              0x1a00018f   Thumb Code     0  libinit2.o(.ARM.Collect$$libinit$$00000015)
    __rt_lib_init_lc_numeric_1               0x1a00018f   Thumb Code     0  libinit2.o(.ARM.Collect$$libinit$$00000017)
    __rt_lib_init_lc_time_1                  0x1a00018f   Thumb Code     0  libinit2.o(.ARM.Collect$$libinit$$00000019)
    __rt_lib_init_preinit_1                  0x1a00018f   Thumb Code     0  libinit2.o(.ARM.Collect$$libinit$$00000004)
    __rt_lib_init_rand_1                     0x1a00018f   Thumb Code     0  libinit2.o(.ARM.Collect$$libinit$$0000000E)
    __rt_lib_init_return                     0x1a00018f   Thumb Code     0  libinit2.o(.ARM.Collect$$libinit$$00000033)
    __rt_lib_init_signal_1                   0x1a00018f   Thumb Code     0  libinit2.o(.ARM.Collect$$libinit$$0000001D)
    __rt_lib_init_stdio_1                    0x1a00018f   Thumb Code     0  libinit2.o(.ARM.Collect$$libinit$$00000025)
    __rt_lib_init_user_alloc_1               0x1a00018f   Thumb Code     0  libinit2.o(.ARM.Collect$$libinit$$0000000C)
    __rt_lib_shutdown                        0x1a000191   Thumb Code     0  libshutdown.o(.ARM.Collect$$libshutdown$$00000000)
    __rt_lib_shutdown_cpp_1                  0x1a000193   Thumb Code     0  libshutdown2.o(.ARM.Collect$$libshutdown$$00000002)
    __rt_lib_shutdown_fp_trap_1              0x1a000193   Thumb Code     0  libshutdown2.o(.ARM.Collect$$libshutdown$$00000007)
    __rt_lib_shutdown_heap_1                 0x1a000193   Thumb Code     0  libshutdown2.o(.ARM.Collect$$libshutdown$$0000000F)
    __rt_lib_shutdown_return                 0x1a000193   Thumb Code     0  libshutdown2.o(.ARM.Collect$$libshutdown$$00000010)
    __rt_lib_shutdown_signal_1               0x1a000193   Thumb Code     0  libshutdown2.o(.ARM.Collect$$libshutdown$$0000000A)
    __rt_lib_shutdown_stdio_1                0x1a000193   Thumb Code     0  libshutdown2.o(.ARM.Collect$$libshutdown$$00000004)
    __rt_lib_shutdown_user_alloc_1           0x1a000193   Thumb Code     0  libshutdown2.o(.ARM.Collect$$libshutdown$$0000000C)
    __rt_entry                               0x1a000195   Thumb Code     0  __rtentry.o(.ARM.Collect$$rtentry$$00000000)
    __rt_entry_presh_1                       0x1a000195   Thumb Code     0  __rtentry2.o(.ARM.Collect$$rtentry$$00000002)
    __rt_entry_sh                            0x1a000195   Thumb Code     0  __rtentry4.o(.ARM.Collect$$rtentry$$00000004)
    __rt_entry_li                            0x1a00019b   Thumb Code     0  __rtentry2.o(.ARM.Collect$$rtentry$$0000000A)
    __rt_entry_postsh_1                      0x1a00019b   Thumb Code     0  __rtentry2.o(.ARM.Collect$$rtentry$$00000009)
    __rt_entry_main                          0x1a00019f   Thumb Code     0  __rtentry2.o(.ARM.Collect$$rtentry$$0000000D)
    __rt_entry_postli_1                      0x1a00019f   Thumb Code     0  __rtentry2.o(.ARM.Collect$$rtentry$$0000000C)
    __rt_exit                                0x1a0001a7   Thumb Code     0  rtexit.o(.ARM.Collect$$rtexit$$00000000)
    __rt_exit_ls                             0x1a0001a9   Thumb Code     0  rtexit2.o(.ARM.Collect$$rtexit$$00000003)
    __rt_exit_prels_1                        0x1a0001a9   Thumb Code     0  rtexit2.o(.ARM.Collect$$rtexit$$00000002)
    __rt_exit_exit                           0x1a0001ad   Thumb Code     0  rtexit2.o(.ARM.Collect$$rtexit$$00000004)
    get_ready_task                           0x1a0001c3   Thumb Code    20  raw-os.o(.text)
    raw_sched                                0x1a0001d7   Thumb Code    78  raw-os.o(.text)
    raw_semaphore_create                     0x1a00025f   Thumb Code    62  raw-os.o(.text)
    raw_task_semaphore_create                0x1a00029d   Thumb Code    28  raw-os.o(.text)
    tick_list_remove                         0x1a0002b9   Thumb Code    22  raw-os.o(.text)
    mutex_priority_look                      0x1a0002cf   Thumb Code   100  raw-os.o(.text)
    change_pend_list_priority                0x1a000367   Thumb Code    28  raw-os.o(.text)
    add_ready_list_end                       0x1a00039d   Thumb Code    44  raw-os.o(.text)
    add_ready_list_head                      0x1a0003c9   Thumb Code    44  raw-os.o(.text)
    bit_search_first_one                     0x1a0003f5   Thumb Code   146  raw-os.o(.text)
    remove_ready_list                        0x1a000487   Thumb Code   122  raw-os.o(.text)
    change_internal_task_priority            0x1a000501   Thumb Code   256  raw-os.o(.text)
    mutex_state_change                       0x1a000623   Thumb Code    44  raw-os.o(.text)
    add_ready_list                           0x1a00064f   Thumb Code    42  raw-os.o(.text)
    tick_list_update                         0x1a000679   Thumb Code   272  raw-os.o(.text)
    block_state_post_process                 0x1a000789   Thumb Code    74  raw-os.o(.text)
    tick_list_insert                         0x1a0007d3   Thumb Code   106  raw-os.o(.text)
    raw_pend_object                          0x1a00083d   Thumb Code    72  raw-os.o(.text)
    raw_semaphore_get                        0x1a000885   Thumb Code   180  raw-os.o(.text)
    raw_task_semaphore_get                   0x1a000939   Thumb Code    18  raw-os.o(.text)
    raw_task_create                          0x1a000967   Thumb Code   366  raw-os.o(.text)
    tick_task_start                          0x1a000ad5   Thumb Code    52  raw-os.o(.text)
    raw_mutex_create                         0x1a000b09   Thumb Code    78  raw-os.o(.text)
    raw_wake_object                          0x1a000bc7   Thumb Code    12  raw-os.o(.text)
    raw_mutex_put                            0x1a000bd3   Thumb Code   214  raw-os.o(.text)
    raw_mutex_get                            0x1a000cf9   Thumb Code   456  raw-os.o(.text)
    raw_semaphore_set                        0x1a000ec1   Thumb Code   114  raw-os.o(.text)
    timer_task                               0x1a000f33   Thumb Code   194  raw-os.o(.text)
    raw_timer_init                           0x1a000fff   Thumb Code    62  raw-os.o(.text)
    raw_idle_task                            0x1a00103d   Thumb Code    42  raw-os.o(.text)
    tick_list_init                           0x1a001067   Thumb Code    26  raw-os.o(.text)
    run_queue_init                           0x1a001081   Thumb Code    32  raw-os.o(.text)
    raw_os_init                              0x1a0010a1   Thumb Code    88  raw-os.o(.text)
    raw_os_start                             0x1a0010f9   Thumb Code    44  raw-os.o(.text)
    move_to_ready_list_end                   0x1a001125   Thumb Code    36  raw-os.o(.text)
    calculate_time_slice                     0x1a001149   Thumb Code   146  raw-os.o(.text)
    wake_send_msg                            0x1a0011db   Thumb Code    16  raw-os.o(.text)
    wake_send_msg_size                       0x1a0011eb   Thumb Code    20  raw-os.o(.text)
    delete_pend_obj                          0x1a0011ff   Thumb Code   114  raw-os.o(.text)
    raw_task_stack_check                     0x1a001271   Thumb Code    56  raw-os.o(.text)
    raw_isr_stack_check                      0x1a0012a9   Thumb Code   132  raw-os.o(.text)
    raw_disable_sche                         0x1a00132d   Thumb Code    62  raw-os.o(.text)
    raw_enable_sche                          0x1a00136b   Thumb Code    84  raw-os.o(.text)
    raw_sleep                                0x1a0013bf   Thumb Code   128  raw-os.o(.text)
    raw_task_yield                           0x1a00143f   Thumb Code    44  raw-os.o(.text)
    raw_time_sleep                           0x1a00146b   Thumb Code   110  raw-os.o(.text)
    task_suspend                             0x1a0014d9   Thumb Code   210  raw-os.o(.text)
    raw_task_suspend                         0x1a0015ab   Thumb Code    34  raw-os.o(.text)
    task_resume                              0x1a0015cd   Thumb Code   190  raw-os.o(.text)
    raw_task_resume                          0x1a00168b   Thumb Code    20  raw-os.o(.text)
    chg_pri_mutex                            0x1a00169f   Thumb Code   152  raw-os.o(.text)
    raw_task_priority_change                 0x1a001737   Thumb Code   190  raw-os.o(.text)
    raw_task_free_mutex                      0x1a0017f5   Thumb Code    86  raw-os.o(.text)
    raw_task_delete                          0x1a00184b   Thumb Code   234  raw-os.o(.text)
    raw_set_task_user_point                  0x1a001935   Thumb Code    44  raw-os.o(.text)
    raw_get_task_user_point                  0x1a001961   Thumb Code    12  raw-os.o(.text)
    raw_task_time_slice_change               0x1a00196d   Thumb Code    66  raw-os.o(.text)
    raw_set_sched_way                        0x1a0019af   Thumb Code    70  raw-os.o(.text)
    raw_get_sched_way                        0x1a0019f5   Thumb Code    66  raw-os.o(.text)
    raw_task_wait_abort                      0x1a001a37   Thumb Code   196  raw-os.o(.text)
    raw_task_identify                        0x1a001afb   Thumb Code     6  raw-os.o(.text)
    raw_iter_block_task                      0x1a001b01   Thumb Code   108  raw-os.o(.text)
    raw_get_system_global_space              0x1a001b6d   Thumb Code    16  raw-os.o(.text)
    raw_block_pool_create                    0x1a001b7d   Thumb Code   138  raw-os.o(.text)
    raw_block_allocate                       0x1a001c07   Thumb Code    94  raw-os.o(.text)
    raw_block_release                        0x1a001c65   Thumb Code    78  raw-os.o(.text)
    raw_byte_pool_create                     0x1a001cb3   Thumb Code   106  raw-os.o(.text)
    raw_byte_allocate                        0x1a001e1b   Thumb Code   146  raw-os.o(.text)
    raw_byte_release                         0x1a001ead   Thumb Code    90  raw-os.o(.text)
    raw_event_create                         0x1a001f07   Thumb Code    48  raw-os.o(.text)
    raw_event_get                            0x1a001f37   Thumb Code   282  raw-os.o(.text)
    event_set                                0x1a002051   Thumb Code   234  raw-os.o(.text)
    raw_event_set                            0x1a00213b   Thumb Code    40  raw-os.o(.text)
    raw_event_delete                         0x1a002163   Thumb Code   116  raw-os.o(.text)
    raw_mutex_delete                         0x1a0021d7   Thumb Code   124  raw-os.o(.text)
    raw_queue_create                         0x1a002253   Thumb Code    92  raw-os.o(.text)
    raw_queue_block_way_set                  0x1a0022af   Thumb Code    16  raw-os.o(.text)
    raw_queue_full_register                  0x1a0022bf   Thumb Code    46  raw-os.o(.text)
    msg_post                                 0x1a0022ed   Thumb Code   248  raw-os.o(.text)
    raw_queue_front_post                     0x1a0023e5   Thumb Code    36  raw-os.o(.text)
    raw_queue_end_post                       0x1a002409   Thumb Code    36  raw-os.o(.text)
    raw_queue_post_notify                    0x1a00242d   Thumb Code    36  raw-os.o(.text)
    raw_queue_all_post                       0x1a002451   Thumb Code    38  raw-os.o(.text)
    raw_queue_send_notify                    0x1a002477   Thumb Code    76  raw-os.o(.text)
    raw_queue_receive                        0x1a0024c3   Thumb Code   258  raw-os.o(.text)
    raw_queue_full_check                     0x1a0025c5   Thumb Code    78  raw-os.o(.text)
    raw_queue_flush                          0x1a002613   Thumb Code    84  raw-os.o(.text)
    raw_queue_delete                         0x1a002667   Thumb Code   112  raw-os.o(.text)
    raw_queue_get_information                0x1a0026d7   Thumb Code    96  raw-os.o(.text)
    raw_queue_buffer_create                  0x1a002737   Thumb Code   120  raw-os.o(.text)
    queue_buffer_post                        0x1a002883   Thumb Code   158  raw-os.o(.text)
    raw_queue_buffer_end_post                0x1a002921   Thumb Code    64  raw-os.o(.text)
    raw_queue_buffer_receive                 0x1a002961   Thumb Code   250  raw-os.o(.text)
    raw_queue_buffer_flush                   0x1a002a5b   Thumb Code    82  raw-os.o(.text)
    raw_queue_buffer_delete                  0x1a002aad   Thumb Code   112  raw-os.o(.text)
    raw_queue_buffer_info_get                0x1a002b1d   Thumb Code    92  raw-os.o(.text)
    raw_queue_size_create                    0x1a002b79   Thumb Code   118  raw-os.o(.text)
    raw_queue_size_full_register             0x1a002bef   Thumb Code    46  raw-os.o(.text)
    msg_size_post                            0x1a002c1d   Thumb Code   248  raw-os.o(.text)
    raw_queue_size_receive                   0x1a002d15   Thumb Code   306  raw-os.o(.text)
    raw_queue_size_front_post                0x1a002e47   Thumb Code    42  raw-os.o(.text)
    raw_queue_size_end_post                  0x1a002e71   Thumb Code    42  raw-os.o(.text)
    raw_queue_size_all_post                  0x1a002e9b   Thumb Code    44  raw-os.o(.text)
    raw_queue_size_full_check                0x1a002ec7   Thumb Code    78  raw-os.o(.text)
    raw_queue_size_flush                     0x1a002f15   Thumb Code    94  raw-os.o(.text)
    raw_queue_size_delete                    0x1a002f73   Thumb Code   112  raw-os.o(.text)
    raw_queue_size_get_information           0x1a002fe3   Thumb Code    92  raw-os.o(.text)
    raw_semaphore_block_way_set              0x1a00303f   Thumb Code    28  raw-os.o(.text)
    semaphore_put                            0x1a00305b   Thumb Code   170  raw-os.o(.text)
    raw_semaphore_put                        0x1a003105   Thumb Code    22  raw-os.o(.text)
    raw_semaphore_put_notify                 0x1a00311b   Thumb Code    22  raw-os.o(.text)
    raw_semaphore_put_all                    0x1a003131   Thumb Code    22  raw-os.o(.text)
    raw_semphore_send_notify                 0x1a003147   Thumb Code    76  raw-os.o(.text)
    raw_semaphore_delete                     0x1a003193   Thumb Code   124  raw-os.o(.text)
    raw_stack_check                          0x1a00320f   Thumb Code    72  raw-os.o(.text)
    raw_statistics_check                     0x1a003257   Thumb Code    64  raw-os.o(.text)
    raw_finish_int                           0x1a003297   Thumb Code   118  raw-os.o(.text)
    call_timer_task                          0x1a00330d   Thumb Code    30  raw-os.o(.text)
    raw_task_semaphore_put                   0x1a00332b   Thumb Code    12  raw-os.o(.text)
    raw_time_tick                            0x1a003337   Thumb Code    48  raw-os.o(.text)
    raw_enter_interrupt                      0x1a003367   Thumb Code    84  raw-os.o(.text)
    raw_system_time_get                      0x1a0033bb   Thumb Code    50  raw-os.o(.text)
    raw_os_version_get                       0x1a0033ed   Thumb Code     6  raw-os.o(.text)
    raw_task_qsize_create                    0x1a0033f3   Thumb Code    34  raw-os.o(.text)
    raw_task_qsize_receive                   0x1a003415   Thumb Code    26  raw-os.o(.text)
    raw_task_qsize_front_post                0x1a00342f   Thumb Code    20  raw-os.o(.text)
    raw_task_qsize_end_post                  0x1a003443   Thumb Code    20  raw-os.o(.text)
    raw_task_qsize_flush                     0x1a003457   Thumb Code    12  raw-os.o(.text)
    raw_task_qsize_delete                    0x1a003463   Thumb Code    12  raw-os.o(.text)
    raw_task_qsize_get_information           0x1a00346f   Thumb Code    28  raw-os.o(.text)
    raw_task_semaphore_set                   0x1a00348b   Thumb Code    16  raw-os.o(.text)
    raw_task_semaphore_delete                0x1a00349b   Thumb Code    12  raw-os.o(.text)
    raw_timer_activate                       0x1a0034a7   Thumb Code   144  raw-os.o(.text)
    raw_timer_create                         0x1a003537   Thumb Code   122  raw-os.o(.text)
    raw_timer_change                         0x1a0035b1   Thumb Code   172  raw-os.o(.text)
    raw_timer_deactivate                     0x1a00365d   Thumb Code   122  raw-os.o(.text)
    raw_timer_delete                         0x1a0036d7   Thumb Code   114  raw-os.o(.text)
    fifo_init                                0x1a003797   Thumb Code    66  fifo.o(.text)
    fifo_in                                  0x1a00381d   Thumb Code    78  fifo.o(.text)
    fifo_out_peek                            0x1a0038d9   Thumb Code    50  fifo.o(.text)
    fifo_out                                 0x1a00390b   Thumb Code    62  fifo.o(.text)
    fifo_out_all                             0x1a003949   Thumb Code    82  fifo.o(.text)
    OS_CPU_SR_Save                           0x1a00399d   Thumb Code     0  cpu.o(.text)
    OS_CPU_SR_Restore                        0x1a0039a5   Thumb Code     0  cpu.o(.text)
    CPU_IntDis                               0x1a0039ab   Thumb Code     0  cpu.o(.text)
    CPU_IntEn                                0x1a0039af   Thumb Code     0  cpu.o(.text)
    raw_start_first_task                     0x1a0039b3   Thumb Code     0  cpu.o(.text)
    port_task_switch                         0x1a0039db   Thumb Code     0  cpu.o(.text)
    raw_int_switch                           0x1a0039e5   Thumb Code     0  cpu.o(.text)
    PendSV_Handler                           0x1a0039ef   Thumb Code     0  cpu.o(.text)
    port_stack_init                          0x1a003a49   Thumb Code   440  port.o(.text)
    port_isr_stack_check                     0x1a003c01   Thumb Code     2  port.o(.text)
    port_isr_stack_free_check                0x1a003c03   Thumb Code    24  port.o(.text)
    system_mpu_enable                        0x1a003c1b   Thumb Code    54  port.o(.text)
    task_stack_mpu_set                       0x1a003c51   Thumb Code    28  port.o(.text)
    raw_os_init_hook                         0x1a003c7d   Thumb Code    12  port_hook.o(.text)
    raw_task_delete_hook                     0x1a003c89   Thumb Code     2  port_hook.o(.text)
    raw_task_abort_hook                      0x1a003c8b   Thumb Code     2  port_hook.o(.text)
    raw_idle_task_hook                       0x1a003c8d   Thumb Code     2  port_hook.o(.text)
    raw_task_switch_hook                     0x1a003c8f   Thumb Code     2  port_hook.o(.text)
    raw_tick_hook                            0x1a003c91   Thumb Code     2  port_hook.o(.text)
    task_create_hook                         0x1a003c93   Thumb Code     2  port_hook.o(.text)
    raw_idle_coroutine_hook                  0x1a003c95   Thumb Code     4  port_hook.o(.text)
    raw_memcpy                               0x1a003c99   Thumb Code    90  user_extension.o(.text)
    raw_memset                               0x1a003cf3   Thumb Code    70  user_extension.o(.text)
    port_system_error_process                0x1a003d39   Thumb Code   118  port_error_process.o(.text)
    cpu_timer_init                           0x1a003db1   Thumb Code    30  port_extension.o(.text)
    user_cpu_time_get                        0x1a003dcf   Thumb Code     6  port_extension.o(.text)
    user_sys_time_get                        0x1a003dd5   Thumb Code     6  port_extension.o(.text)
    Reset_Handler                            0x1a003de5   Thumb Code     8  keil_startup_lpc18xx43xx.o(.text)
    NMI_Handler                              0x1a003ded   Thumb Code     2  keil_startup_lpc18xx43xx.o(.text)
    HardFault_Handler                        0x1a003def   Thumb Code     2  keil_startup_lpc18xx43xx.o(.text)
    MemManage_Handler                        0x1a003df1   Thumb Code     2  keil_startup_lpc18xx43xx.o(.text)
    BusFault_Handler                         0x1a003df3   Thumb Code     2  keil_startup_lpc18xx43xx.o(.text)
    UsageFault_Handler                       0x1a003df5   Thumb Code     2  keil_startup_lpc18xx43xx.o(.text)
    SVC_Handler                              0x1a003df7   Thumb Code     2  keil_startup_lpc18xx43xx.o(.text)
    DebugMon_Handler                         0x1a003df9   Thumb Code     2  keil_startup_lpc18xx43xx.o(.text)
    UnHandled_Vector                         0x1a003dff   Thumb Code     2  keil_startup_lpc18xx43xx.o(.text)
    ADC0_IRQHandler                          0x1a003e01   Thumb Code     0  keil_startup_lpc18xx43xx.o(.text)
    ADC1_IRQHandler                          0x1a003e01   Thumb Code     0  keil_startup_lpc18xx43xx.o(.text)
    ADCHS_IRQHandler                         0x1a003e01   Thumb Code     0  keil_startup_lpc18xx43xx.o(.text)
    ATIMER_IRQHandler                        0x1a003e01   Thumb Code     0  keil_startup_lpc18xx43xx.o(.text)
    CAN0_IRQHandler                          0x1a003e01   Thumb Code     0  keil_startup_lpc18xx43xx.o(.text)
    CAN1_IRQHandler                          0x1a003e01   Thumb Code     0  keil_startup_lpc18xx43xx.o(.text)
    DAC_IRQHandler                           0x1a003e01   Thumb Code     0  keil_startup_lpc18xx43xx.o(.text)
    DMA_IRQHandler                           0x1a003e01   Thumb Code     0  keil_startup_lpc18xx43xx.o(.text)
    ETH_IRQHandler                           0x1a003e01   Thumb Code     0  keil_startup_lpc18xx43xx.o(.text)
    EVRT_IRQHandler                          0x1a003e01   Thumb Code     0  keil_startup_lpc18xx43xx.o(.text)
    FLASHEEPROM_IRQHandler                   0x1a003e01   Thumb Code     0  keil_startup_lpc18xx43xx.o(.text)
    GINT0_IRQHandler                         0x1a003e01   Thumb Code     0  keil_startup_lpc18xx43xx.o(.text)
    GINT1_IRQHandler                         0x1a003e01   Thumb Code     0  keil_startup_lpc18xx43xx.o(.text)
    GPIO0_IRQHandler                         0x1a003e01   Thumb Code     0  keil_startup_lpc18xx43xx.o(.text)
    GPIO1_IRQHandler                         0x1a003e01   Thumb Code     0  keil_startup_lpc18xx43xx.o(.text)
    GPIO2_IRQHandler                         0x1a003e01   Thumb Code     0  keil_startup_lpc18xx43xx.o(.text)
    GPIO3_IRQHandler                         0x1a003e01   Thumb Code     0  keil_startup_lpc18xx43xx.o(.text)
    GPIO4_IRQHandler                         0x1a003e01   Thumb Code     0  keil_startup_lpc18xx43xx.o(.text)
    GPIO5_IRQHandler                         0x1a003e01   Thumb Code     0  keil_startup_lpc18xx43xx.o(.text)
    GPIO6_IRQHandler                         0x1a003e01   Thumb Code     0  keil_startup_lpc18xx43xx.o(.text)
    GPIO7_IRQHandler                         0x1a003e01   Thumb Code     0  keil_startup_lpc18xx43xx.o(.text)
    I2C0_IRQHandler                          0x1a003e01   Thumb Code     0  keil_startup_lpc18xx43xx.o(.text)
    I2C1_IRQHandler                          0x1a003e01   Thumb Code     0  keil_startup_lpc18xx43xx.o(.text)
    I2S0_IRQHandler                          0x1a003e01   Thumb Code     0  keil_startup_lpc18xx43xx.o(.text)
    I2S1_IRQHandler                          0x1a003e01   Thumb Code     0  keil_startup_lpc18xx43xx.o(.text)
    LCD_IRQHandler                           0x1a003e01   Thumb Code     0  keil_startup_lpc18xx43xx.o(.text)
    MCPWM_IRQHandler                         0x1a003e01   Thumb Code     0  keil_startup_lpc18xx43xx.o(.text)
    MX_CORE_IRQHandler                       0x1a003e01   Thumb Code     0  keil_startup_lpc18xx43xx.o(.text)
    QEI_IRQHandler                           0x1a003e01   Thumb Code     0  keil_startup_lpc18xx43xx.o(.text)
    RIT_IRQHandler                           0x1a003e01   Thumb Code     0  keil_startup_lpc18xx43xx.o(.text)
    RTC_IRQHandler                           0x1a003e01   Thumb Code     0  keil_startup_lpc18xx43xx.o(.text)
    SCT_IRQHandler                           0x1a003e01   Thumb Code     0  keil_startup_lpc18xx43xx.o(.text)
    SDIO_IRQHandler                          0x1a003e01   Thumb Code     0  keil_startup_lpc18xx43xx.o(.text)
    SGPIO_IRQHandler                         0x1a003e01   Thumb Code     0  keil_startup_lpc18xx43xx.o(.text)
    SPIFI_IRQHandler                         0x1a003e01   Thumb Code     0  keil_startup_lpc18xx43xx.o(.text)
    SPI_IRQHandler                           0x1a003e01   Thumb Code     0  keil_startup_lpc18xx43xx.o(.text)
    SSP0_IRQHandler                          0x1a003e01   Thumb Code     0  keil_startup_lpc18xx43xx.o(.text)
    SSP1_IRQHandler                          0x1a003e01   Thumb Code     0  keil_startup_lpc18xx43xx.o(.text)
    TIMER0_IRQHandler                        0x1a003e01   Thumb Code     0  keil_startup_lpc18xx43xx.o(.text)
    TIMER1_IRQHandler                        0x1a003e01   Thumb Code     0  keil_startup_lpc18xx43xx.o(.text)
    TIMER2_IRQHandler                        0x1a003e01   Thumb Code     0  keil_startup_lpc18xx43xx.o(.text)
    TIMER3_IRQHandler                        0x1a003e01   Thumb Code     0  keil_startup_lpc18xx43xx.o(.text)
    UART0_IRQHandler                         0x1a003e01   Thumb Code     0  keil_startup_lpc18xx43xx.o(.text)
    UART1_IRQHandler                         0x1a003e01   Thumb Code     0  keil_startup_lpc18xx43xx.o(.text)
    UART2_IRQHandler                         0x1a003e01   Thumb Code     0  keil_startup_lpc18xx43xx.o(.text)
    USB0_IRQHandler                          0x1a003e01   Thumb Code     0  keil_startup_lpc18xx43xx.o(.text)
    USB1_IRQHandler                          0x1a003e01   Thumb Code     0  keil_startup_lpc18xx43xx.o(.text)
    WDT_IRQHandler                           0x1a003e01   Thumb Code     0  keil_startup_lpc18xx43xx.o(.text)
    __user_initial_stackheap                 0x1a003e05   Thumb Code     0  keil_startup_lpc18xx43xx.o(.text)
    SystemInit                               0x1a003e29   Thumb Code    18  sysinit.o(.text)
    SysTick_Handler                          0x1a003e65   Thumb Code    16  main.o(.text)
    OS_CPU_SysTickInit                       0x1a003e75   Thumb Code    60  main.o(.text)
    uart_3_recv                              0x1a003eb1   Thumb Code    76  main.o(.text)
    UART3_IRQHandler                         0x1a003f37   Thumb Code    16  main.o(.text)
    shell_task                               0x1a003fc7   Thumb Code   304  main.o(.text)
    main                                     0x1a0040f7   Thumb Code    54  main.o(.text)
    scu_pinmux                               0x1a0041d5   Thumb Code    30  lpc43xx_scu.o(.text)
    emc_init                                 0x1a0041f9   Thumb Code   980  lpc43xx_sdram.o(.text)
    sdram_init                               0x1a0045cd   Thumb Code   184  lpc43xx_sdram.o(.text)
    Board_UARTPutChar                        0x1a0046a9   Thumb Code    26  board.o(.text)
    _sys_open                                0x1a0046c3   Thumb Code     6  board.o(.text)
    fputc                                    0x1a0046c9   Thumb Code    20  board.o(.text)
    Board_UARTGetChar                        0x1a0046dd   Thumb Code    28  board.o(.text)
    fgetc                                    0x1a0046f9   Thumb Code    10  board.o(.text)
    ferror                                   0x1a004703   Thumb Code     8  board.o(.text)
    _sys_exit                                0x1a00470b   Thumb Code     6  board.o(.text)
    Board_UART_Init                          0x1a0048ab   Thumb Code    88  board.o(.text)
    Board_Debug_Init                         0x1a004903   Thumb Code    42  board.o(.text)
    Board_UARTPutSTR                         0x1a00492d   Thumb Code    22  board.o(.text)
    Board_LED_Set                            0x1a00495f   Thumb Code    28  board.o(.text)
    Board_LED_Test                           0x1a00497b   Thumb Code    28  board.o(.text)
    Board_LED_Toggle                         0x1a004997   Thumb Code    24  board.o(.text)
    Board_ENET_GetMacADDR                    0x1a0049af   Thumb Code    22  board.o(.text)
    Board_Init                               0x1a0049c5   Thumb Code    66  board.o(.text)
    Board_ADC_Init                           0x1a004a07   Thumb Code     2  board.o(.text)
    Board_I2C_Init                           0x1a004a09   Thumb Code    44  board.o(.text)
    Board_Audio_Init                         0x1a004a35   Thumb Code    52  board.o(.text)
    Board_InitLCDController                  0x1a004a69   Thumb Code   660  board.o(.text)
    Board_LCD_Init                           0x1a004cfd   Thumb Code    36  board.o(.text)
    Board_InitTouchController                0x1a004d21   Thumb Code   202  board.o(.text)
    Board_I2C_GetTouchPos                    0x1a004deb   Thumb Code   196  board.o(.text)
    Board_GetTouchPos                        0x1a004eaf   Thumb Code    60  board.o(.text)
    Board_SetLCDBacklight                    0x1a004eeb   Thumb Code    28  board.o(.text)
    Board_SDMMC_Init                         0x1a004f07   Thumb Code    74  board.o(.text)
    Board_SSP_Init                           0x1a004f51   Thumb Code   106  board.o(.text)
    Board_Buttons_Init                       0x1a004fbb   Thumb Code    24  board.o(.text)
    Board_Joystick_Init                      0x1a004fd3   Thumb Code   104  board.o(.text)
    Joystick_GetStatus                       0x1a00503b   Thumb Code    96  board.o(.text)
    Buttons_GetStatus                        0x1a00509b   Thumb Code    24  board.o(.text)
    Board_DAC_Init                           0x1a0050b3   Thumb Code    18  board.o(.text)
    Board_SetupMuxing                        0x1a00517d   Thumb Code    58  board_sysinit.o(.text)
    Board_SetupExtMemory                     0x1a0051b7   Thumb Code    82  board_sysinit.o(.text)
    Board_SetupClocking                      0x1a005209   Thumb Code   160  board_sysinit.o(.text)
    Board_SystemInit                         0x1a0052a9   Thumb Code    12  board_sysinit.o(.text)
    UDA1380_REG_VerifyMult                   0x1a0052ed   Thumb Code    72  uda1380.o(.text)
    UDA1380_REG_WriteMult                    0x1a005335   Thumb Code    30  uda1380.o(.text)
    UDA1380_REG_Write                        0x1a005377   Thumb Code    36  uda1380.o(.text)
    UDA1380_REG_Read                         0x1a00539b   Thumb Code    42  uda1380.o(.text)
    UDA1380_REG_WriteVerify                  0x1a0053c5   Thumb Code    34  uda1380.o(.text)
    UDA1380_Init                             0x1a0053e7   Thumb Code   118  uda1380.o(.text)
    __aeabi_uldivmod                         0x1a005471   Thumb Code     0  lludivv7m.o(.text)
    _ll_udiv                                 0x1a005471   Thumb Code   238  lludivv7m.o(.text)
    __2printf                                0x1a005561   Thumb Code    20  noretval__2printf.o(.text)
    __aeabi_memclr4                          0x1a005579   Thumb Code     0  rt_memclr_w.o(.text)
    __aeabi_memclr8                          0x1a005579   Thumb Code     0  rt_memclr_w.o(.text)
    __rt_memclr_w                            0x1a005579   Thumb Code    78  rt_memclr_w.o(.text)
    _memset_w                                0x1a00557d   Thumb Code     0  rt_memclr_w.o(.text)
    __use_two_region_memory                  0x1a0055c7   Thumb Code     2  heapauxi.o(.text)
    __rt_heap_escrow$2region                 0x1a0055c9   Thumb Code     2  heapauxi.o(.text)
    __rt_heap_expand$2region                 0x1a0055cb   Thumb Code     2  heapauxi.o(.text)
    _printf_char_file                        0x1a0055cd   Thumb Code    32  _printf_char_file.o(.text)
    _printf_char_common                      0x1a0055fb   Thumb Code    32  _printf_char_common.o(.text)
    __user_setup_stackheap                   0x1a005621   Thumb Code    74  sys_stackheap_outer.o(.text)
    __printf                                 0x1a00566b   Thumb Code    40  __printf_nopercent.o(.text)
    exit                                     0x1a005693   Thumb Code    18  exit.o(.text)
    __user_libspace                          0x1a0056a5   Thumb Code     8  libspace.o(.text)
    __user_perproc_libspace                  0x1a0056a5   Thumb Code     0  libspace.o(.text)
    __user_perthread_libspace                0x1a0056a5   Thumb Code     0  libspace.o(.text)
    Chip_Clock_Enable                        0x1a0056ad   Thumb Code    46  clock_18xx_43xx.o(i.Chip_Clock_Enable)
    Chip_Clock_EnableOpts                    0x1a0056e5   Thumb Code    52  clock_18xx_43xx.o(i.Chip_Clock_EnableOpts)
    Chip_Clock_GetBaseClock                  0x1a005771   Thumb Code    32  clock_18xx_43xx.o(i.Chip_Clock_GetBaseClock)
    Chip_Clock_GetBaseClocktHz               0x1a005795   Thumb Code    18  clock_18xx_43xx.o(i.Chip_Clock_GetBaseClocktHz)
    Chip_Clock_GetClockInputHz               0x1a0057a9   Thumb Code   182  clock_18xx_43xx.o(i.Chip_Clock_GetClockInputHz)
    Chip_Clock_GetDividerDivisor             0x1a0058a5   Thumb Code    18  clock_18xx_43xx.o(i.Chip_Clock_GetDividerDivisor)
    Chip_Clock_GetDividerSource              0x1a0058c5   Thumb Code    26  clock_18xx_43xx.o(i.Chip_Clock_GetDividerSource)
    Chip_Clock_GetEMCRate                    0x1a0058e5   Thumb Code    38  clock_18xx_43xx.o(i.Chip_Clock_GetEMCRate)
    Chip_Clock_GetMainPLLHz                  0x1a005915   Thumb Code   110  clock_18xx_43xx.o(i.Chip_Clock_GetMainPLLHz)
    Chip_Clock_GetRate                       0x1a00598d   Thumb Code    78  clock_18xx_43xx.o(i.Chip_Clock_GetRate)
    Chip_Clock_SetBaseClock                  0x1a0059e5   Thumb Code    64  clock_18xx_43xx.o(i.Chip_Clock_SetBaseClock)
    Chip_Clock_SetDivider                    0x1a005a2d   Thumb Code    64  clock_18xx_43xx.o(i.Chip_Clock_SetDivider)
    Chip_EMC_Dynamic_Init                    0x1a005a7d   Thumb Code    22  emc_18xx_43xx.o(i.Chip_EMC_Dynamic_Init)
    Chip_EMC_Init                            0x1a005a99   Thumb Code    40  emc_18xx_43xx.o(i.Chip_EMC_Init)
    Chip_EMC_Static_Init                     0x1a005ac5   Thumb Code    22  emc_18xx_43xx.o(i.Chip_EMC_Static_Init)
    Chip_GPIO_Init                           0x1a005ae1   Thumb Code     2  gpio_18xx_43xx.o(i.Chip_GPIO_Init)
    Chip_I2C_EventHandler                    0x1a005ae5   Thumb Code    36  i2c_18xx_43xx.o(i.Chip_I2C_EventHandler)
    Chip_I2C_EventHandlerPolling             0x1a005b0d   Thumb Code    58  i2c_18xx_43xx.o(i.Chip_I2C_EventHandlerPolling)
    Chip_I2C_GetMasterEventHandler           0x1a005b4d   Thumb Code    16  i2c_18xx_43xx.o(i.Chip_I2C_GetMasterEventHandler)
    Chip_I2C_Init                            0x1a005b61   Thumb Code    40  i2c_18xx_43xx.o(i.Chip_I2C_Init)
    Chip_I2C_IsStateChanged                  0x1a005b8d   Thumb Code    20  i2c_18xx_43xx.o(i.Chip_I2C_IsStateChanged)
    Chip_I2C_MasterCmdRead                   0x1a005ba5   Thumb Code    58  i2c_18xx_43xx.o(i.Chip_I2C_MasterCmdRead)
    Chip_I2C_MasterSend                      0x1a005bdf   Thumb Code    50  i2c_18xx_43xx.o(i.Chip_I2C_MasterSend)
    Chip_I2C_MasterStateHandler              0x1a005c11   Thumb Code    50  i2c_18xx_43xx.o(i.Chip_I2C_MasterStateHandler)
    Chip_I2C_MasterTransfer                  0x1a005c49   Thumb Code   102  i2c_18xx_43xx.o(i.Chip_I2C_MasterTransfer)
    Chip_I2C_SetClockRate                    0x1a005cb5   Thumb Code    56  i2c_18xx_43xx.o(i.Chip_I2C_SetClockRate)
    Chip_I2C_SetMasterEventHandler           0x1a005cf1   Thumb Code    34  i2c_18xx_43xx.o(i.Chip_I2C_SetMasterEventHandler)
    Chip_I2S_Init                            0x1a005d19   Thumb Code    12  i2s_18xx_43xx.o(i.Chip_I2S_Init)
    Chip_I2S_TxConfig                        0x1a005d25   Thumb Code   122  i2s_18xx_43xx.o(i.Chip_I2S_TxConfig)
    Chip_RGU_InReset                         0x1a005da1   Thumb Code    52  rgu_18xx_43xx.o(i.Chip_RGU_InReset)
    Chip_RGU_TriggerReset                    0x1a005dd9   Thumb Code    38  rgu_18xx_43xx.o(i.Chip_RGU_TriggerReset)
    Chip_SSP_Init                            0x1a005e3d   Thumb Code    56  ssp_18xx_43xx.o(i.Chip_SSP_Init)
    Chip_SSP_SetBitRate                      0x1a005e87   Thumb Code    70  ssp_18xx_43xx.o(i.Chip_SSP_SetBitRate)
    Chip_SSP_SetClockRate                    0x1a005ecd   Thumb Code    20  ssp_18xx_43xx.o(i.Chip_SSP_SetClockRate)
    Chip_SSP_SetMaster                       0x1a005ee1   Thumb Code    28  ssp_18xx_43xx.o(i.Chip_SSP_SetMaster)
    Chip_SSP_WriteFrames_Blocking            0x1a005f09   Thumb Code   234  ssp_18xx_43xx.o(i.Chip_SSP_WriteFrames_Blocking)
    Chip_SetupCoreClock                      0x1a005ff3   Thumb Code    14  sysinit_18xx_43xx.o(i.Chip_SetupCoreClock)
    Chip_UART_Init                           0x1a006045   Thumb Code    72  uart_18xx_43xx.o(i.Chip_UART_Init)
    Chip_UART_SetBaud                        0x1a006091   Thumb Code    66  uart_18xx_43xx.o(i.Chip_UART_SetBaud)
    SystemCoreClockUpdate                    0x1a0060d9   Thumb Code    14  chip_18xx_43xx.o(i.SystemCoreClockUpdate)
    fpuInit                                  0x1a006205   Thumb Code    62  fpu_init.o(i.fpuInit)
    handleMasterXferState                    0x1a006407   Thumb Code   224  i2c_18xx_43xx.o(i.handleMasterXferState)
    initDynMem                               0x1a0064e7   Thumb Code   488  emc_18xx_43xx.o(i.initDynMem)
    initStaticMem                            0x1a0066cf   Thumb Code   104  emc_18xx_43xx.o(i.initStaticMem)
    _fp_init                                 0x1a006741   Thumb Code    10  fpinit.o(x$fpl$fpinit)
    __fplib_config_fpu_vfp                   0x1a006749   Thumb Code     0  fpinit.o(x$fpl$fpinit)
    __fplib_config_pureend_doubles           0x1a006749   Thumb Code     0  fpinit.o(x$fpl$fpinit)
    successwave                              0x1a00674a   Data       183340  successwave.o(.constdata)
    ad_left                                  0x1a033388   Data           4  board.o(.constdata)
    ad_top                                   0x1a03338c   Data           4  board.o(.constdata)
    ad_right                                 0x1a033390   Data           4  board.o(.constdata)
    ad_bottom                                0x1a033394   Data           4  board.o(.constdata)
    MCB4300_LCD                              0x1a033398   Data          22  board.o(.constdata)
    ExtRateIn                                0x1a0333b0   Data           4  board.o(.constdata)
    OscRateIn                                0x1a0333b4   Data           4  board.o(.constdata)
    Region$$Table$$Base                      0x1a033748   Number         0  anon$$obj.o(Region$$Table)
    Region$$Table$$Limit                     0x1a033768   Number         0  anon$$obj.o(Region$$Table)



==============================================================================

Memory Map of the image

  Image Entry point : 0x1a000115

  Load Region LR_IROM1 (Base: 0x1a000000, Size: 0x000337fc, Max: 0x00080000, ABSOLUTE)

    Execution Region RW_IRAM1 (Base: 0x10000000, Size: 0x00001d68, Max: 0x00008000, ABSOLUTE)

    Base Addr    Size         Type   Attr      Idx    E Section Name        Object

    0x10000000   0x00000038   Data   RW            3    .data               raw-os.o
    0x10000038   0x00000004   Data   RW          565    .data               main.o
    0x1000003c   0x00000014   Data   RW          853    .data               lib_lpc_board_keil_mcb_4357.lib(board.o)
    0x10000050   0x00000004   Data   RW         1138    .data               lib_lpc_chip_43xx.lib(chip_18xx_43xx.o)
    0x10000054   0x00000008   Data   RW         1625    .data               lib_lpc_chip_43xx.lib(clock_18xx_43xx.o)
    0x1000005c   0x00000038   Data   RW         1971    .data               lib_lpc_chip_43xx.lib(i2c_18xx_43xx.o)
    0x10000094   0x00000004   PAD
    0x10000098   0x00000ddc   Zero   RW            2    .bss                raw-os.o
    0x10000e74   0x00000004   PAD
    0x10000e78   0x0000078c   Zero   RW          564    .bss                main.o
    0x10001604   0x00000060   Zero   RW         2522    .bss                c_w.l(libspace.o)
    0x10001664   0x00000004   PAD
    0x10001668   0x00000100   Zero   RW          329    HEAP                keil_startup_lpc18xx43xx.o
    0x10001768   0x00000600   Zero   RW          328    STACK               keil_startup_lpc18xx43xx.o


    Execution Region ER_IROM1 (Base: 0x1a000000, Size: 0x00033768, Max: 0x00080000, ABSOLUTE)

    Base Addr    Size         Type   Attr      Idx    E Section Name        Object

    0x1a000000   0x00000114   Data   RO          330    RESET               keil_startup_lpc18xx43xx.o
    0x1a000114   0x00000008   Code   RO         2475  * !!!main             c_w.l(__main.o)
    0x1a00011c   0x00000034   Code   RO         2648    !!!scatter          c_w.l(__scatter.o)
    0x1a000150   0x0000001a   Code   RO         2650    !!handler_copy      c_w.l(__scatter_copy.o)
    0x1a00016a   0x00000002   PAD
    0x1a00016c   0x0000001c   Code   RO         2652    !!handler_zi        c_w.l(__scatter_zi.o)
    0x1a000188   0x00000002   Code   RO         2520    .ARM.Collect$$libinit$$00000000  c_w.l(libinit.o)
    0x1a00018a   0x00000004   Code   RO         2532    .ARM.Collect$$libinit$$00000001  c_w.l(libinit2.o)
    0x1a00018e   0x00000000   Code   RO         2535    .ARM.Collect$$libinit$$00000004  c_w.l(libinit2.o)
    0x1a00018e   0x00000000   Code   RO         2538    .ARM.Collect$$libinit$$0000000A  c_w.l(libinit2.o)
    0x1a00018e   0x00000000   Code   RO         2540    .ARM.Collect$$libinit$$0000000C  c_w.l(libinit2.o)
    0x1a00018e   0x00000000   Code   RO         2542    .ARM.Collect$$libinit$$0000000E  c_w.l(libinit2.o)
    0x1a00018e   0x00000000   Code   RO         2545    .ARM.Collect$$libinit$$00000011  c_w.l(libinit2.o)
    0x1a00018e   0x00000000   Code   RO         2547    .ARM.Collect$$libinit$$00000013  c_w.l(libinit2.o)
    0x1a00018e   0x00000000   Code   RO         2549    .ARM.Collect$$libinit$$00000015  c_w.l(libinit2.o)
    0x1a00018e   0x00000000   Code   RO         2551    .ARM.Collect$$libinit$$00000017  c_w.l(libinit2.o)
    0x1a00018e   0x00000000   Code   RO         2553    .ARM.Collect$$libinit$$00000019  c_w.l(libinit2.o)
    0x1a00018e   0x00000000   Code   RO         2555    .ARM.Collect$$libinit$$0000001B  c_w.l(libinit2.o)
    0x1a00018e   0x00000000   Code   RO         2557    .ARM.Collect$$libinit$$0000001D  c_w.l(libinit2.o)
    0x1a00018e   0x00000000   Code   RO         2559    .ARM.Collect$$libinit$$0000001F  c_w.l(libinit2.o)
    0x1a00018e   0x00000000   Code   RO         2561    .ARM.Collect$$libinit$$00000021  c_w.l(libinit2.o)
    0x1a00018e   0x00000000   Code   RO         2563    .ARM.Collect$$libinit$$00000023  c_w.l(libinit2.o)
    0x1a00018e   0x00000000   Code   RO         2565    .ARM.Collect$$libinit$$00000025  c_w.l(libinit2.o)
    0x1a00018e   0x00000000   Code   RO         2569    .ARM.Collect$$libinit$$0000002C  c_w.l(libinit2.o)
    0x1a00018e   0x00000000   Code   RO         2571    .ARM.Collect$$libinit$$0000002E  c_w.l(libinit2.o)
    0x1a00018e   0x00000000   Code   RO         2573    .ARM.Collect$$libinit$$00000030  c_w.l(libinit2.o)
    0x1a00018e   0x00000000   Code   RO         2575    .ARM.Collect$$libinit$$00000032  c_w.l(libinit2.o)
    0x1a00018e   0x00000002   Code   RO         2576    .ARM.Collect$$libinit$$00000033  c_w.l(libinit2.o)
    0x1a000190   0x00000002   Code   RO         2602    .ARM.Collect$$libshutdown$$00000000  c_w.l(libshutdown.o)
    0x1a000192   0x00000000   Code   RO         2631    .ARM.Collect$$libshutdown$$00000002  c_w.l(libshutdown2.o)
    0x1a000192   0x00000000   Code   RO         2633    .ARM.Collect$$libshutdown$$00000004  c_w.l(libshutdown2.o)
    0x1a000192   0x00000000   Code   RO         2636    .ARM.Collect$$libshutdown$$00000007  c_w.l(libshutdown2.o)
    0x1a000192   0x00000000   Code   RO         2639    .ARM.Collect$$libshutdown$$0000000A  c_w.l(libshutdown2.o)
    0x1a000192   0x00000000   Code   RO         2641    .ARM.Collect$$libshutdown$$0000000C  c_w.l(libshutdown2.o)
    0x1a000192   0x00000000   Code   RO         2644    .ARM.Collect$$libshutdown$$0000000F  c_w.l(libshutdown2.o)
    0x1a000192   0x00000002   Code   RO         2645    .ARM.Collect$$libshutdown$$00000010  c_w.l(libshutdown2.o)
    0x1a000194   0x00000000   Code   RO         2477    .ARM.Collect$$rtentry$$00000000  c_w.l(__rtentry.o)
    0x1a000194   0x00000000   Code   RO         2487    .ARM.Collect$$rtentry$$00000002  c_w.l(__rtentry2.o)
    0x1a000194   0x00000006   Code   RO         2499    .ARM.Collect$$rtentry$$00000004  c_w.l(__rtentry4.o)
    0x1a00019a   0x00000000   Code   RO         2489    .ARM.Collect$$rtentry$$00000009  c_w.l(__rtentry2.o)
    0x1a00019a   0x00000004   Code   RO         2490    .ARM.Collect$$rtentry$$0000000A  c_w.l(__rtentry2.o)
    0x1a00019e   0x00000000   Code   RO         2492    .ARM.Collect$$rtentry$$0000000C  c_w.l(__rtentry2.o)
    0x1a00019e   0x00000008   Code   RO         2493    .ARM.Collect$$rtentry$$0000000D  c_w.l(__rtentry2.o)
    0x1a0001a6   0x00000002   Code   RO         2524    .ARM.Collect$$rtexit$$00000000  c_w.l(rtexit.o)
    0x1a0001a8   0x00000000   Code   RO         2578    .ARM.Collect$$rtexit$$00000002  c_w.l(rtexit2.o)
    0x1a0001a8   0x00000004   Code   RO         2579    .ARM.Collect$$rtexit$$00000003  c_w.l(rtexit2.o)
    0x1a0001ac   0x00000006   Code   RO         2580    .ARM.Collect$$rtexit$$00000004  c_w.l(rtexit2.o)
    0x1a0001b2   0x00000002   PAD
    0x1a0001b4   0x000035c0   Code   RO            1    .text               raw-os.o
    0x1a003774   0x00000226   Code   RO          168    .text               fifo.o
    0x1a00399a   0x00000002   PAD
    0x1a00399c   0x000000ac   Code   RO          257    .text               cpu.o
    0x1a003a48   0x00000234   Code   RO          261    .text               port.o
    0x1a003c7c   0x0000001c   Code   RO          274    .text               port_hook.o
    0x1a003c98   0x000000a0   Code   RO          292    .text               user_extension.o
    0x1a003d38   0x00000076   Code   RO          304    .text               port_error_process.o
    0x1a003dae   0x00000002   PAD
    0x1a003db0   0x00000034   Code   RO          316    .text               port_extension.o
    0x1a003de4   0x00000044   Code   RO          331    .text               keil_startup_lpc18xx43xx.o
    0x1a003e28   0x0000001c   Code   RO          337    .text               sysinit.o
    0x1a003e44   0x00000390   Code   RO          563    .text               main.o
    0x1a0041d4   0x00000024   Code   RO          598    .text               lpc43xx_scu.o
    0x1a0041f8   0x000004b0   Code   RO          631    .text               lpc43xx_sdram.o
    0x1a0046a8   0x00000aa8   Code   RO          851    .text               lib_lpc_board_keil_mcb_4357.lib(board.o)
    0x1a005150   0x0000019c   Code   RO         1085    .text               lib_lpc_board_keil_mcb_4357.lib(board_sysinit.o)
    0x1a0052ec   0x00000184   Code   RO         1560    .text               lib_lpc_board_keil_mcb_4357.lib(uda1380.o)
    0x1a005470   0x000000ee   Code   RO         2463    .text               c_w.l(lludivv7m.o)
    0x1a00555e   0x00000002   PAD
    0x1a005560   0x00000018   Code   RO         2467    .text               c_w.l(noretval__2printf.o)
    0x1a005578   0x0000004e   Code   RO         2471    .text               c_w.l(rt_memclr_w.o)
    0x1a0055c6   0x00000006   Code   RO         2473    .text               c_w.l(heapauxi.o)
    0x1a0055cc   0x00000024   Code   RO         2482    .text               c_w.l(_printf_char_file.o)
    0x1a0055f0   0x00000030   Code   RO         2503    .text               c_w.l(_printf_char_common.o)
    0x1a005620   0x0000004a   Code   RO         2505    .text               c_w.l(sys_stackheap_outer.o)
    0x1a00566a   0x00000028   Code   RO         2507    .text               c_w.l(__printf_nopercent.o)
    0x1a005692   0x00000012   Code   RO         2509    .text               c_w.l(exit.o)
    0x1a0056a4   0x00000008   Code   RO         2521    .text               c_w.l(libspace.o)
    0x1a0056ac   0x00000038   Code   RO         1595    i.Chip_Clock_Enable  lib_lpc_chip_43xx.lib(clock_18xx_43xx.o)
    0x1a0056e4   0x0000003c   Code   RO         1599    i.Chip_Clock_EnableOpts  lib_lpc_chip_43xx.lib(clock_18xx_43xx.o)
    0x1a005720   0x00000050   Code   RO         1601    i.Chip_Clock_FindBaseClock  lib_lpc_chip_43xx.lib(clock_18xx_43xx.o)
    0x1a005770   0x00000024   Code   RO         1602    i.Chip_Clock_GetBaseClock  lib_lpc_chip_43xx.lib(clock_18xx_43xx.o)
    0x1a005794   0x00000012   Code   RO         1604    i.Chip_Clock_GetBaseClocktHz  lib_lpc_chip_43xx.lib(clock_18xx_43xx.o)
    0x1a0057a6   0x00000002   PAD
    0x1a0057a8   0x000000d4   Code   RO         1605    i.Chip_Clock_GetClockInputHz  lib_lpc_chip_43xx.lib(clock_18xx_43xx.o)
    0x1a00587c   0x00000028   Code   RO         1606    i.Chip_Clock_GetDivRate  lib_lpc_chip_43xx.lib(clock_18xx_43xx.o)
    0x1a0058a4   0x00000020   Code   RO         1607    i.Chip_Clock_GetDividerDivisor  lib_lpc_chip_43xx.lib(clock_18xx_43xx.o)
    0x1a0058c4   0x00000020   Code   RO         1608    i.Chip_Clock_GetDividerSource  lib_lpc_chip_43xx.lib(clock_18xx_43xx.o)
    0x1a0058e4   0x00000030   Code   RO         1609    i.Chip_Clock_GetEMCRate  lib_lpc_chip_43xx.lib(clock_18xx_43xx.o)
    0x1a005914   0x00000078   Code   RO         1610    i.Chip_Clock_GetMainPLLHz  lib_lpc_chip_43xx.lib(clock_18xx_43xx.o)
    0x1a00598c   0x00000058   Code   RO         1612    i.Chip_Clock_GetRate  lib_lpc_chip_43xx.lib(clock_18xx_43xx.o)
    0x1a0059e4   0x00000048   Code   RO         1616    i.Chip_Clock_SetBaseClock  lib_lpc_chip_43xx.lib(clock_18xx_43xx.o)
    0x1a005a2c   0x00000050   Code   RO         1617    i.Chip_Clock_SetDivider  lib_lpc_chip_43xx.lib(clock_18xx_43xx.o)
    0x1a005a7c   0x0000001c   Code   RO         1813    i.Chip_EMC_Dynamic_Init  lib_lpc_chip_43xx.lib(emc_18xx_43xx.o)
    0x1a005a98   0x0000002c   Code   RO         1815    i.Chip_EMC_Init     lib_lpc_chip_43xx.lib(emc_18xx_43xx.o)
    0x1a005ac4   0x0000001c   Code   RO         1818    i.Chip_EMC_Static_Init  lib_lpc_chip_43xx.lib(emc_18xx_43xx.o)
    0x1a005ae0   0x00000002   Code   RO         1891    i.Chip_GPIO_Init    lib_lpc_chip_43xx.lib(gpio_18xx_43xx.o)
    0x1a005ae2   0x00000002   PAD
    0x1a005ae4   0x00000028   Code   RO         1945    i.Chip_I2C_EventHandler  lib_lpc_chip_43xx.lib(i2c_18xx_43xx.o)
    0x1a005b0c   0x00000040   Code   RO         1946    i.Chip_I2C_EventHandlerPolling  lib_lpc_chip_43xx.lib(i2c_18xx_43xx.o)
    0x1a005b4c   0x00000014   Code   RO         1948    i.Chip_I2C_GetMasterEventHandler  lib_lpc_chip_43xx.lib(i2c_18xx_43xx.o)
    0x1a005b60   0x0000002c   Code   RO         1949    i.Chip_I2C_Init     lib_lpc_chip_43xx.lib(i2c_18xx_43xx.o)
    0x1a005b8c   0x00000018   Code   RO         1951    i.Chip_I2C_IsStateChanged  lib_lpc_chip_43xx.lib(i2c_18xx_43xx.o)
    0x1a005ba4   0x0000003a   Code   RO         1952    i.Chip_I2C_MasterCmdRead  lib_lpc_chip_43xx.lib(i2c_18xx_43xx.o)
    0x1a005bde   0x00000032   Code   RO         1954    i.Chip_I2C_MasterSend  lib_lpc_chip_43xx.lib(i2c_18xx_43xx.o)
    0x1a005c10   0x00000038   Code   RO         1955    i.Chip_I2C_MasterStateHandler  lib_lpc_chip_43xx.lib(i2c_18xx_43xx.o)
    0x1a005c48   0x0000006c   Code   RO         1956    i.Chip_I2C_MasterTransfer  lib_lpc_chip_43xx.lib(i2c_18xx_43xx.o)
    0x1a005cb4   0x0000003c   Code   RO         1957    i.Chip_I2C_SetClockRate  lib_lpc_chip_43xx.lib(i2c_18xx_43xx.o)
    0x1a005cf0   0x00000028   Code   RO         1958    i.Chip_I2C_SetMasterEventHandler  lib_lpc_chip_43xx.lib(i2c_18xx_43xx.o)
    0x1a005d18   0x0000000c   Code   RO         2119    i.Chip_I2S_Init     lib_lpc_chip_43xx.lib(i2s_18xx_43xx.o)
    0x1a005d24   0x0000007a   Code   RO         2123    i.Chip_I2S_TxConfig  lib_lpc_chip_43xx.lib(i2s_18xx_43xx.o)
    0x1a005d9e   0x00000002   PAD
    0x1a005da0   0x00000038   Code   RO         2184    i.Chip_RGU_InReset  lib_lpc_chip_43xx.lib(rgu_18xx_43xx.o)
    0x1a005dd8   0x0000002c   Code   RO         2185    i.Chip_RGU_TriggerReset  lib_lpc_chip_43xx.lib(rgu_18xx_43xx.o)
    0x1a005e04   0x00000004   Code   RO         2215    i.Chip_SSP_ClearIntPending  lib_lpc_chip_43xx.lib(ssp_18xx_43xx.o)
    0x1a005e08   0x00000014   Code   RO         2217    i.Chip_SSP_GetClockIndex  lib_lpc_chip_43xx.lib(ssp_18xx_43xx.o)
    0x1a005e1c   0x00000010   Code   RO         2218    i.Chip_SSP_GetRawIntStatus  lib_lpc_chip_43xx.lib(ssp_18xx_43xx.o)
    0x1a005e2c   0x00000010   Code   RO         2219    i.Chip_SSP_GetStatus  lib_lpc_chip_43xx.lib(ssp_18xx_43xx.o)
    0x1a005e3c   0x0000003c   Code   RO         2220    i.Chip_SSP_Init     lib_lpc_chip_43xx.lib(ssp_18xx_43xx.o)
    0x1a005e78   0x00000008   Code   RO         2226    i.Chip_SSP_ReceiveFrame  lib_lpc_chip_43xx.lib(ssp_18xx_43xx.o)
    0x1a005e80   0x00000006   Code   RO         2227    i.Chip_SSP_SendFrame  lib_lpc_chip_43xx.lib(ssp_18xx_43xx.o)
    0x1a005e86   0x00000046   Code   RO         2228    i.Chip_SSP_SetBitRate  lib_lpc_chip_43xx.lib(ssp_18xx_43xx.o)
    0x1a005ecc   0x00000014   Code   RO         2229    i.Chip_SSP_SetClockRate  lib_lpc_chip_43xx.lib(ssp_18xx_43xx.o)
    0x1a005ee0   0x0000001c   Code   RO         2230    i.Chip_SSP_SetMaster  lib_lpc_chip_43xx.lib(ssp_18xx_43xx.o)
    0x1a005efc   0x0000000c   Code   RO         2231    i.Chip_SSP_Set_Mode  lib_lpc_chip_43xx.lib(ssp_18xx_43xx.o)
    0x1a005f08   0x000000ea   Code   RO         2232    i.Chip_SSP_WriteFrames_Blocking  lib_lpc_chip_43xx.lib(ssp_18xx_43xx.o)
    0x1a005ff2   0x0000000e   Code   RO         2353    i.Chip_SetupCoreClock  lib_lpc_chip_43xx.lib(sysinit_18xx_43xx.o)
    0x1a006000   0x0000000a   Code   RO         1366    i.Chip_UART_DisableDivisorAccess  lib_lpc_chip_43xx.lib(uart_18xx_43xx.o)
    0x1a00600a   0x0000000a   Code   RO         1367    i.Chip_UART_EnableDivisorAccess  lib_lpc_chip_43xx.lib(uart_18xx_43xx.o)
    0x1a006014   0x00000030   Code   RO         1369    i.Chip_UART_GetClockIndex  lib_lpc_chip_43xx.lib(uart_18xx_43xx.o)
    0x1a006044   0x0000004c   Code   RO         1371    i.Chip_UART_Init    lib_lpc_chip_43xx.lib(uart_18xx_43xx.o)
    0x1a006090   0x00000042   Code   RO         1383    i.Chip_UART_SetBaud  lib_lpc_chip_43xx.lib(uart_18xx_43xx.o)
    0x1a0060d2   0x00000006   Code   RO         1385    i.Chip_UART_SetDivisorLatches  lib_lpc_chip_43xx.lib(uart_18xx_43xx.o)
    0x1a0060d8   0x00000014   Code   RO         1136    i.SystemCoreClockUpdate  lib_lpc_chip_43xx.lib(chip_18xx_43xx.o)
    0x1a0060ec   0x00000024   Code   RO         2357    i.clock_init_delay  lib_lpc_chip_43xx.lib(sysinit_18xx_43xx.o)
    0x1a006110   0x000000bc   Code   RO         2358    i.clock_main_init   lib_lpc_chip_43xx.lib(sysinit_18xx_43xx.o)
    0x1a0061cc   0x00000038   Code   RO         1819    i.convertTimmingParam  lib_lpc_chip_43xx.lib(emc_18xx_43xx.o)
    0x1a006204   0x00000050   Code   RO         1537    i.fpuInit           lib_lpc_chip_43xx.lib(fpu_init.o)
    0x1a006254   0x00000162   Code   RO         2124    i.getClkDiv         lib_lpc_chip_43xx.lib(i2s_18xx_43xx.o)
    0x1a0063b6   0x00000002   PAD
    0x1a0063b8   0x0000001c   Code   RO         1961    i.getClkRate        lib_lpc_chip_43xx.lib(i2c_18xx_43xx.o)
    0x1a0063d4   0x00000028   Code   RO         1820    i.getColsLen        lib_lpc_chip_43xx.lib(emc_18xx_43xx.o)
    0x1a0063fc   0x0000000a   Code   RO         1962    i.getCurState       lib_lpc_chip_43xx.lib(i2c_18xx_43xx.o)
    0x1a006406   0x000000e0   Code   RO         1964    i.handleMasterXferState  lib_lpc_chip_43xx.lib(i2c_18xx_43xx.o)
    0x1a0064e6   0x000001e8   Code   RO         1821    i.initDynMem        lib_lpc_chip_43xx.lib(emc_18xx_43xx.o)
    0x1a0066ce   0x00000068   Code   RO         1822    i.initStaticMem     lib_lpc_chip_43xx.lib(emc_18xx_43xx.o)
    0x1a006736   0x0000000a   Code   RO         1969    i.startSlaverXfer   lib_lpc_chip_43xx.lib(i2c_18xx_43xx.o)
    0x1a006740   0x0000000a   Code   RO         2590    x$fpl$fpinit        fz_wm.l(fpinit.o)
    0x1a00674a   0x0002cc2c   Data   RO          649    .constdata          successwave.o
    0x1a033376   0x00000002   PAD
    0x1a033378   0x00000040   Data   RO          852    .constdata          lib_lpc_board_keil_mcb_4357.lib(board.o)
    0x1a0333b8   0x000002bc   Data   RO         1086    .constdata          lib_lpc_board_keil_mcb_4357.lib(board_sysinit.o)
    0x1a033674   0x0000001f   Data   RO         1561    .constdata          lib_lpc_board_keil_mcb_4357.lib(uda1380.o)
    0x1a033693   0x00000001   PAD
    0x1a033694   0x0000006c   Data   RO         1624    .constdata          lib_lpc_chip_43xx.lib(clock_18xx_43xx.o)
    0x1a033700   0x00000048   Data   RO         2359    .constdata          lib_lpc_chip_43xx.lib(sysinit_18xx_43xx.o)
    0x1a033748   0x00000020   Data   RO         2646    Region$$Table       anon$$obj.o


==============================================================================

Image component sizes


      Code (inc. data)   RO Data    RW Data    ZI Data      Debug   Object Name

       172         16          0          0          0        384   cpu.o
       550          0          0          0          0       9124   fifo.o
        68         28        276          0       1792        936   keil_startup_lpc18xx43xx.o
        36          6          0          0          0       1057   lpc43xx_scu.o
      1200         36          0          0          0       2174   lpc43xx_sdram.o
       912        146          0          4       1932      37020   main.o
       564         16          0          0          0       3574   port.o
       118          0          0          0          0       1444   port_error_process.o
        52         10          0          0          0        845   port_extension.o
        28          0          0          0          0       1951   port_hook.o
     13760        484          0         56       3548      81861   raw-os.o
         0          0     183340          0          0        470   successwave.o
        28         10          0          0          0       5105   sysinit.o
       160          0          0          0          0       1672   user_extension.o

    ----------------------------------------------------------------------
     17652        752     183650         60       7276     147617   Object Totals
         0          0         32          0          0          0   (incl. Generated)
         4          0          2          0          4          0   (incl. Padding)

    ----------------------------------------------------------------------

      Code (inc. data)   RO Data    RW Data    ZI Data      Debug   Library Member Name

         8          0          0          0          0         68   __main.o
        40          0          0          0          0         84   __printf_nopercent.o
         0          0          0          0          0          0   __rtentry.o
        12          0          0          0          0          0   __rtentry2.o
         6          0          0          0          0          0   __rtentry4.o
        52          8          0          0          0          0   __scatter.o
        26          0          0          0          0          0   __scatter_copy.o
        28          0          0          0          0          0   __scatter_zi.o
        48          6          0          0          0         96   _printf_char_common.o
        36          4          0          0          0         80   _printf_char_file.o
        18          0          0          0          0         80   exit.o
         6          0          0          0          0        152   heapauxi.o
         2          0          0          0          0          0   libinit.o
         6          0          0          0          0          0   libinit2.o
         2          0          0          0          0          0   libshutdown.o
         2          0          0          0          0          0   libshutdown2.o
         8          4          0          0         96         68   libspace.o
       238          0          0          0          0        100   lludivv7m.o
        24          4          0          0          0         84   noretval__2printf.o
        78          0          0          0          0         80   rt_memclr_w.o
         2          0          0          0          0          0   rtexit.o
        10          0          0          0          0          0   rtexit2.o
        74          0          0          0          0         80   sys_stackheap_outer.o
        10          0          0          0          0        116   fpinit.o
      2728        102         64         20          0      62486   board.o
       412         56        700          0          0      10122   board_sysinit.o
       388         20         31          0          0       3135   uda1380.o
        20          6          0          4          0      26534   chip_18xx_43xx.o
       974        150        108          8          0       9866   clock_18xx_43xx.o
       788         22          0          0          0       5204   emc_18xx_43xx.o
        80         18          0          0          0       1234   fpu_init.o
         2          0          0          0          0       3265   gpio_18xx_43xx.o
       836         62          0         56          0      10510   i2c_18xx_43xx.o
       488          0          0          0          0       2828   i2s_18xx_43xx.o
       100         10          0          0          0       1447   rgu_18xx_43xx.o
       494          8          0          0          0      11299   ssp_18xx_43xx.o
       238         20         72          0          0       2286   sysinit_18xx_43xx.o
       216         16          0          0          0       9189   uart_18xx_43xx.o

    ----------------------------------------------------------------------
      8514        516        976         88        104     160493   Library Totals
        14          0          1          0          8          0   (incl. Padding)

    ----------------------------------------------------------------------

      Code (inc. data)   RO Data    RW Data    ZI Data      Debug   Library Name

       726         26          0          0         96        972   c_w.l
        10          0          0          0          0        116   fz_wm.l
      3528        178        795         20          0      75743   lib_lpc_board_keil_mcb_4357.lib
      4236        312        180         68          0      83662   lib_lpc_chip_43xx.lib

    ----------------------------------------------------------------------
      8514        516        976         88        104     160493   Library Totals

    ----------------------------------------------------------------------

==============================================================================


      Code (inc. data)   RO Data    RW Data    ZI Data      Debug   

     26166       1268     184626        148       7380     299046   Grand Totals
     26166       1268     184626        148       7380     299046   ELF Image Totals
     26166       1268     184626        148          0          0   ROM Totals

==============================================================================

    Total RO  Size (Code + RO Data)               210792 ( 205.85kB)
    Total RW  Size (RW Data + ZI Data)              7528 (   7.35kB)
    Total ROM Size (Code + RO Data + RW Data)     210940 ( 206.00kB)

==============================================================================

