Component: ARM Compiler 5.05 update 1 (build 106) Tool: armlink [4d0efa]

==============================================================================

Section Cross References

    raw-os.o(.text) refers to cpu.o(.text) for OS_CPU_SR_Save
    raw-os.o(.text) refers to raw-os.o(.data) for .data
    raw-os.o(.text) refers to raw-os.o(.bss) for .bss
    raw-os.o(.text) refers to user_extension.o(.text) for raw_memset
    raw-os.o(.text) refers to port_hook.o(.text) for task_create_hook
    raw-os.o(.text) refers to port.o(.text) for port_stack_init
    fifo.o(.text) refers to cpu.o(.text) for OS_CPU_SR_Save
    fifo.o(.text) refers to user_extension.o(.text) for raw_memcpy
    rsh.o(.text) refers to cpu.o(.text) for OS_CPU_SR_Save
    rsh.o(.text) refers to string.o(.text) for raw_strncmp
    rsh.o(.text) refers to user_extension.o(.text) for raw_memset
    rsh.o(.text) refers to rsh.o(.data) for .data
    rsh.o(.text) refers to rsh.o(.conststring) for .conststring
    rsh.o(.constdata) refers to rsh.o(.conststring) for .conststring
    rsh.o(.constdata) refers to rsh.o(.text) for rsh_help_command
    rsh.o(.data) refers to rsh.o(.constdata) for xHelpCommand
    raw_malloc.o(.text) refers to raw-os.o(.text) for raw_mutex_get
    raw_malloc.o(.text) refers to user_extension.o(.text) for raw_memset
==============================================================================

Removing Unused input sections from the image.

    Removing rsh.o(.text), (472 bytes).
    Removing rsh.o(.constdata), (16 bytes).
    Removing rsh.o(.conststring), (50 bytes).
    Removing rsh.o(.conststring), (173 bytes).
    Removing rsh.o(.data), (20 bytes).
    Removing string.o(.text), (592 bytes).
    Removing sysinit.o(.rev16_text), (4 bytes).
    Removing sysinit.o(.revsh_text), (4 bytes).
    Removing lpc43xx_scu.o(.rev16_text), (4 bytes).
    Removing lpc43xx_scu.o(.revsh_text), (4 bytes).
    Removing lpc43xx_sdram.o(.rev16_text), (4 bytes).
    Removing lpc43xx_sdram.o(.revsh_text), (4 bytes).
    Removing k9f1g08.o(.rev16_text), (4 bytes).
    Removing k9f1g08.o(.revsh_text), (4 bytes).
    Removing lpc43xx_gpio.o(.rev16_text), (4 bytes).
    Removing lpc43xx_gpio.o(.revsh_text), (4 bytes).
    Removing main.o(.rev16_text), (4 bytes).
    Removing main.o(.revsh_text), (4 bytes).
==============================================================================

Image Symbol Table

    Local Symbols

    Symbol Name                              Value     Ov Type        Size  Object(Section)

    ../clib/angel/boardlib.s                 0x00000000   Number         0  boardshut.o ABSOLUTE
    ../clib/angel/boardlib.s                 0x00000000   Number         0  boardinit3.o ABSOLUTE
    ../clib/angel/boardlib.s                 0x00000000   Number         0  boardinit2.o ABSOLUTE
    ../clib/angel/boardlib.s                 0x00000000   Number         0  boardinit1.o ABSOLUTE
    ../clib/angel/handlers.s                 0x00000000   Number         0  __scatter_copy.o ABSOLUTE
    ../clib/angel/handlers.s                 0x00000000   Number         0  __scatter_zi.o ABSOLUTE
    ../clib/angel/kernel.s                   0x00000000   Number         0  __rtentry.o ABSOLUTE
    ../clib/angel/kernel.s                   0x00000000   Number         0  __rtentry4.o ABSOLUTE
    ../clib/angel/kernel.s                   0x00000000   Number         0  __rtentry2.o ABSOLUTE
    ../clib/angel/kernel.s                   0x00000000   Number         0  rtexit2.o ABSOLUTE
    ../clib/angel/kernel.s                   0x00000000   Number         0  rtexit.o ABSOLUTE
    ../clib/angel/rt.s                       0x00000000   Number         0  rt_div0.o ABSOLUTE
    ../clib/angel/rt.s                       0x00000000   Number         0  rt_errno_addr_intlibspace.o ABSOLUTE
    ../clib/angel/rt.s                       0x00000000   Number         0  rt_errno_addr.o ABSOLUTE
    ../clib/angel/rt.s                       0x00000000   Number         0  aeabi_ldiv0_sigfpe.o ABSOLUTE
    ../clib/angel/rt.s                       0x00000000   Number         0  aeabi_ldiv0.o ABSOLUTE
    ../clib/angel/rt.s                       0x00000000   Number         0  rt_ctype_table.o ABSOLUTE
    ../clib/angel/rt.s                       0x00000000   Number         0  rt_locale.o ABSOLUTE
    ../clib/angel/rt.s                       0x00000000   Number         0  rt_raise.o ABSOLUTE
    ../clib/angel/rt.s                       0x00000000   Number         0  rt_locale_intlibspace.o ABSOLUTE
    ../clib/angel/scatter.s                  0x00000000   Number         0  __scatter.o ABSOLUTE
    ../clib/angel/startup.s                  0x00000000   Number         0  __main.o ABSOLUTE
    ../clib/angel/sys.s                      0x00000000   Number         0  indicate_semi.o ABSOLUTE
    ../clib/angel/sys.s                      0x00000000   Number         0  use_no_semi.o ABSOLUTE
    ../clib/angel/sys.s                      0x00000000   Number         0  libspace.o ABSOLUTE
    ../clib/angel/sys.s                      0x00000000   Number         0  sys_stackheap_outer.o ABSOLUTE
    ../clib/angel/sysapp.c                   0x00000000   Number         0  sys_wrch.o ABSOLUTE
    ../clib/angel/sysapp.c                   0x00000000   Number         0  sys_command.o ABSOLUTE
    ../clib/armsys.c                         0x00000000   Number         0  argv_veneer.o ABSOLUTE
    ../clib/armsys.c                         0x00000000   Number         0  argv_veneer.o ABSOLUTE
    ../clib/armsys.c                         0x00000000   Number         0  _get_argv_nomalloc.o ABSOLUTE
    ../clib/armsys.c                         0x00000000   Number         0  no_argv.o ABSOLUTE
    ../clib/heapalloc.c                      0x00000000   Number         0  hrguard.o ABSOLUTE
    ../clib/heapaux.c                        0x00000000   Number         0  heapauxi.o ABSOLUTE
    ../clib/libinit.s                        0x00000000   Number         0  libshutdown2.o ABSOLUTE
    ../clib/libinit.s                        0x00000000   Number         0  libshutdown.o ABSOLUTE
    ../clib/libinit.s                        0x00000000   Number         0  libinit.o ABSOLUTE
    ../clib/libinit.s                        0x00000000   Number         0  libinit2.o ABSOLUTE
    ../clib/locale.s                         0x00000000   Number         0  lc_ctype_c.o ABSOLUTE
    ../clib/longlong.s                       0x00000000   Number         0  lludiv10.o ABSOLUTE
    ../clib/longlong.s                       0x00000000   Number         0  lludivv7m.o ABSOLUTE
    ../clib/memcpset.s                       0x00000000   Number         0  rt_memcpy_w.o ABSOLUTE
    ../clib/memcpset.s                       0x00000000   Number         0  aeabi_memset.o ABSOLUTE
    ../clib/memcpset.s                       0x00000000   Number         0  rt_memmove_w.o ABSOLUTE
    ../clib/memcpset.s                       0x00000000   Number         0  strncpy.o ABSOLUTE
    ../clib/memcpset.s                       0x00000000   Number         0  rt_memclr_w.o ABSOLUTE
    ../clib/memcpset.s                       0x00000000   Number         0  strcmpv7m.o ABSOLUTE
    ../clib/memcpset.s                       0x00000000   Number         0  rt_memclr.o ABSOLUTE
    ../clib/memcpset.s                       0x00000000   Number         0  rt_memcpy_v6.o ABSOLUTE
    ../clib/memcpset.s                       0x00000000   Number         0  rt_memmove_v6.o ABSOLUTE
    ../clib/misc.s                           0x00000000   Number         0  printf_stubs.o ABSOLUTE
    ../clib/printf.c                         0x00000000   Number         0  __printf_ss_wp.o ABSOLUTE
    ../clib/printf.c                         0x00000000   Number         0  __printf_flags_ss_wp.o ABSOLUTE
    ../clib/printf.c                         0x00000000   Number         0  _printf_longlong_dec.o ABSOLUTE
    ../clib/printf.c                         0x00000000   Number         0  __printf_flags_wp.o ABSOLUTE
    ../clib/printf.c                         0x00000000   Number         0  __printf_flags_ss.o ABSOLUTE
    ../clib/printf.c                         0x00000000   Number         0  __printf_wp.o ABSOLUTE
    ../clib/printf.c                         0x00000000   Number         0  _printf_intcommon.o ABSOLUTE
    ../clib/printf.c                         0x00000000   Number         0  _printf_char_common.o ABSOLUTE
    ../clib/printf.c                         0x00000000   Number         0  __printf_ss.o ABSOLUTE
    ../clib/printf.c                         0x00000000   Number         0  _printf_char.o ABSOLUTE
    ../clib/printf.c                         0x00000000   Number         0  _printf_char_file.o ABSOLUTE
    ../clib/printf.c                         0x00000000   Number         0  __printf_flags.o ABSOLUTE
    ../clib/printf.c                         0x00000000   Number         0  _printf_hex_int_ll_ptr.o ABSOLUTE
    ../clib/printf.c                         0x00000000   Number         0  _printf_hex_ll_ptr.o ABSOLUTE
    ../clib/printf.c                         0x00000000   Number         0  _printf_hex_int_ptr.o ABSOLUTE
    ../clib/printf.c                         0x00000000   Number         0  _printf_hex_ptr.o ABSOLUTE
    ../clib/printf.c                         0x00000000   Number         0  __printf_nopercent.o ABSOLUTE
    ../clib/printf.c                         0x00000000   Number         0  _printf_hex_int_ll.o ABSOLUTE
    ../clib/printf.c                         0x00000000   Number         0  _printf_hex_int.o ABSOLUTE
    ../clib/printf.c                         0x00000000   Number         0  __2printf.o ABSOLUTE
    ../clib/printf.c                         0x00000000   Number         0  __2sprintf.o ABSOLUTE
    ../clib/printf.c                         0x00000000   Number         0  _printf_hex_ll.o ABSOLUTE
    ../clib/printf.c                         0x00000000   Number         0  _printf_dec.o ABSOLUTE
    ../clib/printf.c                         0x00000000   Number         0  _printf_str.o ABSOLUTE
    ../clib/printf.c                         0x00000000   Number         0  noretval__2printf.o ABSOLUTE
    ../clib/printf.c                         0x00000000   Number         0  _printf_truncate.o ABSOLUTE
    ../clib/printf.c                         0x00000000   Number         0  __printf.o ABSOLUTE
    ../clib/printf.c                         0x00000000   Number         0  noretval__2sprintf.o ABSOLUTE
    ../clib/printf.c                         0x00000000   Number         0  _sputc.o ABSOLUTE
    ../clib/printf_percent.s                 0x00000000   Number         0  _printf_lld.o ABSOLUTE
    ../clib/printf_percent.s                 0x00000000   Number         0  _printf_percent.o ABSOLUTE
    ../clib/printf_percent.s                 0x00000000   Number         0  _printf_s.o ABSOLUTE
    ../clib/printf_percent.s                 0x00000000   Number         0  _printf_x.o ABSOLUTE
    ../clib/printf_percent.s                 0x00000000   Number         0  _printf_p.o ABSOLUTE
    ../clib/printf_percent.s                 0x00000000   Number         0  _printf_d.o ABSOLUTE
    ../clib/printf_percent.s                 0x00000000   Number         0  _printf_u.o ABSOLUTE
    ../clib/printf_percent.s                 0x00000000   Number         0  _printf_percent_end.o ABSOLUTE
    ../clib/printf_percent.s                 0x00000000   Number         0  _printf_ll.o ABSOLUTE
    ../clib/scanf.c                          0x00000000   Number         0  _chval.o ABSOLUTE
    ../clib/scanf.c                          0x00000000   Number         0  strtol.o ABSOLUTE
    ../clib/scanf.c                          0x00000000   Number         0  _strtoul.o ABSOLUTE
    ../clib/scanf.c                          0x00000000   Number         0  atol.o ABSOLUTE
    ../clib/signal.c                         0x00000000   Number         0  defsig_abrt_inner.o ABSOLUTE
    ../clib/signal.c                         0x00000000   Number         0  defsig_cppl_inner.o ABSOLUTE
    ../clib/signal.c                         0x00000000   Number         0  defsig_fpe_outer.o ABSOLUTE
    ../clib/signal.c                         0x00000000   Number         0  defsig_fpe_formal.o ABSOLUTE
    ../clib/signal.c                         0x00000000   Number         0  defsig_pvfn_inner.o ABSOLUTE
    ../clib/signal.c                         0x00000000   Number         0  defsig_stak_inner.o ABSOLUTE
    ../clib/signal.c                         0x00000000   Number         0  defsig_rtred_inner.o ABSOLUTE
    ../clib/signal.c                         0x00000000   Number         0  defsig_rtmem_inner.o ABSOLUTE
    ../clib/signal.c                         0x00000000   Number         0  defsig_rtmem_outer.o ABSOLUTE
    ../clib/signal.c                         0x00000000   Number         0  defsig_other.o ABSOLUTE
    ../clib/signal.c                         0x00000000   Number         0  defsig_segv_inner.o ABSOLUTE
    ../clib/signal.c                         0x00000000   Number         0  defsig_rtmem_formal.o ABSOLUTE
    ../clib/signal.c                         0x00000000   Number         0  defsig_exit.o ABSOLUTE
    ../clib/signal.c                         0x00000000   Number         0  defsig_fpe_inner.o ABSOLUTE
    ../clib/signal.c                         0x00000000   Number         0  __raise.o ABSOLUTE
    ../clib/signal.c                         0x00000000   Number         0  defsig_general.o ABSOLUTE
    ../clib/signal.s                         0x00000000   Number         0  defsig.o ABSOLUTE
    ../clib/stdlib.c                         0x00000000   Number         0  qsortnoex.o ABSOLUTE
    ../clib/stdlib.c                         0x00000000   Number         0  exit.o ABSOLUTE
    ../clib/string.c                         0x00000000   Number         0  strncmp.o ABSOLUTE
    ../clib/string.c                         0x00000000   Number         0  memchr.o ABSOLUTE
    ../clib/string.c                         0x00000000   Number         0  strlen.o ABSOLUTE
    ../clib/string.c                         0x00000000   Number         0  strcpy.o ABSOLUTE
    ../clib/string.c                         0x00000000   Number         0  memcmp.o ABSOLUTE
    ../clib/string.c                         0x00000000   Number         0  strstr.o ABSOLUTE
    ../clib/string.c                         0x00000000   Number         0  strcat.o ABSOLUTE
    ../fplib/fpinit.s                        0x00000000   Number         0  fpinit.o ABSOLUTE
    ../fplib/setjmp.s                        0x00000000   Number         0  setjmp.o ABSOLUTE
    ..\..\..\..\software\common\k9f1g08.c    0x00000000   Number         0  k9f1g08.o ABSOLUTE
    ..\..\..\..\software\common\lpc43xx_gpio.c 0x00000000   Number         0  lpc43xx_gpio.o ABSOLUTE
    ..\..\..\..\software\common\lpc43xx_lcd.c 0x00000000   Number         0  lpc43xx_lcd.o ABSOLUTE
    ..\..\..\..\software\common\lpc43xx_scu.c 0x00000000   Number         0  lpc43xx_scu.o ABSOLUTE
    ..\..\..\..\software\common\lpc43xx_sdram.c 0x00000000   Number         0  lpc43xx_sdram.o ABSOLUTE
    ..\..\..\..\software\common\yaffs_port_nand_drv.c 0x00000000   Number         0  yaffs_port_nand_drv.o ABSOLUTE
    ..\..\..\..\software\filesystems\yaffs2\direct\test-framework\yaffs_osglue.c 0x00000000   Number         0  yaffs_osglue.o ABSOLUTE
    ..\..\..\..\software\filesystems\yaffs2\direct\test-framework\yaffscfg2k.c 0x00000000   Number         0  yaffscfg2k.o ABSOLUTE
    ..\..\..\..\software\filesystems\yaffs2\direct\yaffs_attribs.c 0x00000000   Number         0  yaffs_attribs.o ABSOLUTE
    ..\..\..\..\software\filesystems\yaffs2\direct\yaffs_error.c 0x00000000   Number         0  yaffs_error.o ABSOLUTE
    ..\..\..\..\software\filesystems\yaffs2\direct\yaffs_hweight.c 0x00000000   Number         0  yaffs_hweight.o ABSOLUTE
    ..\..\..\..\software\filesystems\yaffs2\direct\yaffs_qsort.c 0x00000000   Number         0  yaffs_qsort.o ABSOLUTE
    ..\..\..\..\software\filesystems\yaffs2\direct\yaffs_startup.c 0x00000000   Number         0  yaffs_startup.o ABSOLUTE
    ..\..\..\..\software\filesystems\yaffs2\direct\yaffsfs.c 0x00000000   Number         0  yaffsfs.o ABSOLUTE
    ..\..\..\..\software\filesystems\yaffs2\yaffs_allocator.c 0x00000000   Number         0  yaffs_allocator.o ABSOLUTE
    ..\..\..\..\software\filesystems\yaffs2\yaffs_bitmap.c 0x00000000   Number         0  yaffs_bitmap.o ABSOLUTE
    ..\..\..\..\software\filesystems\yaffs2\yaffs_checkptrw.c 0x00000000   Number         0  yaffs_checkptrw.o ABSOLUTE
    ..\..\..\..\software\filesystems\yaffs2\yaffs_ecc.c 0x00000000   Number         0  yaffs_ecc.o ABSOLUTE
    ..\..\..\..\software\filesystems\yaffs2\yaffs_guts.c 0x00000000   Number         0  yaffs_guts.o ABSOLUTE
    ..\..\..\..\software\filesystems\yaffs2\yaffs_nameval.c 0x00000000   Number         0  yaffs_nameval.o ABSOLUTE
    ..\..\..\..\software\filesystems\yaffs2\yaffs_nand.c 0x00000000   Number         0  yaffs_nand.o ABSOLUTE
    ..\..\..\..\software\filesystems\yaffs2\yaffs_packedtags1.c 0x00000000   Number         0  yaffs_packedtags1.o ABSOLUTE
    ..\..\..\..\software\filesystems\yaffs2\yaffs_packedtags2.c 0x00000000   Number         0  yaffs_packedtags2.o ABSOLUTE
    ..\..\..\..\software\filesystems\yaffs2\yaffs_summary.c 0x00000000   Number         0  yaffs_summary.o ABSOLUTE
    ..\..\..\..\software\filesystems\yaffs2\yaffs_tagscompat.c 0x00000000   Number         0  yaffs_tagscompat.o ABSOLUTE
    ..\..\..\..\software\filesystems\yaffs2\yaffs_tagsmarshall.c 0x00000000   Number         0  yaffs_tagsmarshall.o ABSOLUTE
    ..\..\..\..\software\filesystems\yaffs2\yaffs_verify.c 0x00000000   Number         0  yaffs_verify.o ABSOLUTE
    ..\..\..\..\software\filesystems\yaffs2\yaffs_yaffs1.c 0x00000000   Number         0  yaffs_yaffs1.o ABSOLUTE
    ..\..\..\..\software\filesystems\yaffs2\yaffs_yaffs2.c 0x00000000   Number         0  yaffs_yaffs2.o ABSOLUTE
    ..\..\..\..\software\freetype-2.5.3\freetype_draw.c 0x00000000   Number         0  freetype_draw.o ABSOLUTE
    ..\..\..\..\software\freetype-2.5.3\ft_yaffs_port.c 0x00000000   Number         0  ft_yaffs_port.o ABSOLUTE
    ..\..\..\..\software\freetype-2.5.3\src\autofit\autofit.c 0x00000000   Number         0  autofit.o ABSOLUTE
    ..\..\..\..\software\freetype-2.5.3\src\base\ftbase.c 0x00000000   Number         0  ftbase.o ABSOLUTE
    ..\..\..\..\software\freetype-2.5.3\src\base\ftbbox.c 0x00000000   Number         0  ftbbox.o ABSOLUTE
    ..\..\..\..\software\freetype-2.5.3\src\base\ftbitmap.c 0x00000000   Number         0  ftbitmap.o ABSOLUTE
    ..\..\..\..\software\freetype-2.5.3\src\base\ftdebug.c 0x00000000   Number         0  ftdebug.o ABSOLUTE
    ..\..\..\..\software\freetype-2.5.3\src\base\ftfstype.c 0x00000000   Number         0  ftfstype.o ABSOLUTE
    ..\..\..\..\software\freetype-2.5.3\src\base\ftgasp.c 0x00000000   Number         0  ftgasp.o ABSOLUTE
    ..\..\..\..\software\freetype-2.5.3\src\base\ftglyph.c 0x00000000   Number         0  ftglyph.o ABSOLUTE
    ..\..\..\..\software\freetype-2.5.3\src\base\ftgxval.c 0x00000000   Number         0  ftgxval.o ABSOLUTE
    ..\..\..\..\software\freetype-2.5.3\src\base\ftinit.c 0x00000000   Number         0  ftinit.o ABSOLUTE
    ..\..\..\..\software\freetype-2.5.3\src\base\ftlcdfil.c 0x00000000   Number         0  ftlcdfil.o ABSOLUTE
    ..\..\..\..\software\freetype-2.5.3\src\base\ftmm.c 0x00000000   Number         0  ftmm.o ABSOLUTE
    ..\..\..\..\software\freetype-2.5.3\src\base\ftotval.c 0x00000000   Number         0  ftotval.o ABSOLUTE
    ..\..\..\..\software\freetype-2.5.3\src\base\ftpatent.c 0x00000000   Number         0  ftpatent.o ABSOLUTE
    ..\..\..\..\software\freetype-2.5.3\src\base\ftpfr.c 0x00000000   Number         0  ftpfr.o ABSOLUTE
    ..\..\..\..\software\freetype-2.5.3\src\base\ftstroke.c 0x00000000   Number         0  ftstroke.o ABSOLUTE
    ..\..\..\..\software\freetype-2.5.3\src\base\ftsynth.c 0x00000000   Number         0  ftsynth.o ABSOLUTE
    ..\..\..\..\software\freetype-2.5.3\src\base\ftsystem.c 0x00000000   Number         0  ftsystem.o ABSOLUTE
    ..\..\..\..\software\freetype-2.5.3\src\base\fttype1.c 0x00000000   Number         0  fttype1.o ABSOLUTE
    ..\..\..\..\software\freetype-2.5.3\src\base\ftwinfnt.c 0x00000000   Number         0  ftwinfnt.o ABSOLUTE
    ..\..\..\..\software\freetype-2.5.3\src\base\ftxf86.c 0x00000000   Number         0  ftxf86.o ABSOLUTE
    ..\..\..\..\software\freetype-2.5.3\src\bdf\bdf.c 0x00000000   Number         0  bdf.o ABSOLUTE
    ..\..\..\..\software\freetype-2.5.3\src\cache\ftcache.c 0x00000000   Number         0  ftcache.o ABSOLUTE
    ..\..\..\..\software\freetype-2.5.3\src\cff\cff.c 0x00000000   Number         0  cff.o ABSOLUTE
    ..\..\..\..\software\freetype-2.5.3\src\cid\type1cid.c 0x00000000   Number         0  type1cid.o ABSOLUTE
    ..\..\..\..\software\freetype-2.5.3\src\gzip\ftgzip.c 0x00000000   Number         0  ftgzip.o ABSOLUTE
    ..\..\..\..\software\freetype-2.5.3\src\lzw\ftlzw.c 0x00000000   Number         0  ftlzw.o ABSOLUTE
    ..\..\..\..\software\freetype-2.5.3\src\pcf\pcf.c 0x00000000   Number         0  pcf.o ABSOLUTE
    ..\..\..\..\software\freetype-2.5.3\src\pfr\pfr.c 0x00000000   Number         0  pfr.o ABSOLUTE
    ..\..\..\..\software\freetype-2.5.3\src\psaux\psaux.c 0x00000000   Number         0  psaux.o ABSOLUTE
    ..\..\..\..\software\freetype-2.5.3\src\pshinter\pshinter.c 0x00000000   Number         0  pshinter.o ABSOLUTE
    ..\..\..\..\software\freetype-2.5.3\src\psnames\psmodule.c 0x00000000   Number         0  psmodule.o ABSOLUTE
    ..\..\..\..\software\freetype-2.5.3\src\raster\raster.c 0x00000000   Number         0  raster.o ABSOLUTE
    ..\..\..\..\software\freetype-2.5.3\src\sfnt\sfnt.c 0x00000000   Number         0  sfnt.o ABSOLUTE
    ..\..\..\..\software\freetype-2.5.3\src\smooth\smooth.c 0x00000000   Number         0  smooth.o ABSOLUTE
    ..\..\..\..\software\freetype-2.5.3\src\truetype\truetype.c 0x00000000   Number         0  truetype.o ABSOLUTE
    ..\..\..\..\software\freetype-2.5.3\src\type1\type1.c 0x00000000   Number         0  type1.o ABSOLUTE
    ..\..\..\..\software\freetype-2.5.3\src\type42\type42.c 0x00000000   Number         0  type42.o ABSOLUTE
    ..\..\..\..\software\freetype-2.5.3\src\winfonts\winfnt.c 0x00000000   Number         0  winfnt.o ABSOLUTE
    ..\..\..\..\software\kernel\port\cpu.asm 0x00000000   Number         0  cpu.o ABSOLUTE
    ..\..\..\..\software\kernel\port\port.c  0x00000000   Number         0  port.o ABSOLUTE
    ..\..\..\..\software\kernel\port\port_hook.c 0x00000000   Number         0  port_hook.o ABSOLUTE
    ..\..\..\..\software\kernel\port\raw_trace_port.c 0x00000000   Number         0  raw_trace_port.o ABSOLUTE
    ..\..\..\..\software\kernel\port\user_extension.c 0x00000000   Number         0  user_extension.o ABSOLUTE
    ..\..\..\..\software\kernel\raw-os\extension\lib\fifo.c 0x00000000   Number         0  fifo.o ABSOLUTE
    ..\..\..\..\software\kernel\raw-os\extension\lib\string.c 0x00000000   Number         0  string.o ABSOLUTE
    ..\..\..\..\software\kernel\raw-os\extension\mm\raw_malloc.c 0x00000000   Number         0  raw_malloc.o ABSOLUTE
    ..\..\..\..\software\kernel\raw-os\extension\mm\raw_page.c 0x00000000   Number         0  raw_page.o ABSOLUTE
    ..\..\..\..\software\kernel\raw-os\extension\shell\rsh.c 0x00000000   Number         0  rsh.o ABSOLUTE
    ..\..\..\..\software\kernel\raw-os\raw-os.c 0x00000000   Number         0  raw-os.o ABSOLUTE
    ..\..\board_common\uda1380.c             0x00000000   Number         0  uda1380.o ABSOLUTE
    ..\..\examples\freetype_display\main.c   0x00000000   Number         0  main.o ABSOLUTE
    ..\..\startup_code\keil_startup_lpc18xx43xx.s 0x00000000   Number         0  keil_startup_lpc18xx43xx.o ABSOLUTE
    ..\..\startup_code\sysinit.c             0x00000000   Number         0  sysinit.o ABSOLUTE
    ..\\..\\..\\..\\software\\common\\k9f1g08.c 0x00000000   Number         0  k9f1g08.o ABSOLUTE
    ..\\..\\..\\..\\software\\common\\lpc43xx_gpio.c 0x00000000   Number         0  lpc43xx_gpio.o ABSOLUTE
    ..\\..\\..\\..\\software\\common\\lpc43xx_lcd.c 0x00000000   Number         0  lpc43xx_lcd.o ABSOLUTE
    ..\\..\\..\\..\\software\\common\\lpc43xx_scu.c 0x00000000   Number         0  lpc43xx_scu.o ABSOLUTE
    ..\\..\\..\\..\\software\\common\\lpc43xx_sdram.c 0x00000000   Number         0  lpc43xx_sdram.o ABSOLUTE
    ..\\..\\board_common\\uda1380.c          0x00000000   Number         0  uda1380.o ABSOLUTE
    ..\\..\\examples\\freetype_display\\main.c 0x00000000   Number         0  main.o ABSOLUTE
    ..\\..\\startup_code\\sysinit.c          0x00000000   Number         0  sysinit.o ABSOLUTE
    ..\\chip_common\\fpu_init.c              0x00000000   Number         0  fpu_init.o ABSOLUTE
    ..\chip_common\fpu_init.c                0x00000000   Number         0  fpu_init.o ABSOLUTE
    ..\chip_common\ring_buffer.c             0x00000000   Number         0  ring_buffer.o ABSOLUTE
    board.c                                  0x00000000   Number         0  board.o ABSOLUTE
    board.c                                  0x00000000   Number         0  board.o ABSOLUTE
    board_sysinit.c                          0x00000000   Number         0  board_sysinit.o ABSOLUTE
    board_sysinit.c                          0x00000000   Number         0  board_sysinit.o ABSOLUTE
    chip_18xx_43xx.c                         0x00000000   Number         0  chip_18xx_43xx.o ABSOLUTE
    chip_18xx_43xx.c                         0x00000000   Number         0  chip_18xx_43xx.o ABSOLUTE
    clock_18xx_43xx.c                        0x00000000   Number         0  clock_18xx_43xx.o ABSOLUTE
    clock_18xx_43xx.c                        0x00000000   Number         0  clock_18xx_43xx.o ABSOLUTE
    dc.s                                     0x00000000   Number         0  dc.o ABSOLUTE
    emc_18xx_43xx.c                          0x00000000   Number         0  emc_18xx_43xx.o ABSOLUTE
    emc_18xx_43xx.c                          0x00000000   Number         0  emc_18xx_43xx.o ABSOLUTE
    gpio_18xx_43xx.c                         0x00000000   Number         0  gpio_18xx_43xx.o ABSOLUTE
    gpio_18xx_43xx.c                         0x00000000   Number         0  gpio_18xx_43xx.o ABSOLUTE
    i2c_18xx_43xx.c                          0x00000000   Number         0  i2c_18xx_43xx.o ABSOLUTE
    i2c_18xx_43xx.c                          0x00000000   Number         0  i2c_18xx_43xx.o ABSOLUTE
    i2s_18xx_43xx.c                          0x00000000   Number         0  i2s_18xx_43xx.o ABSOLUTE
    i2s_18xx_43xx.c                          0x00000000   Number         0  i2s_18xx_43xx.o ABSOLUTE
    rgu_18xx_43xx.c                          0x00000000   Number         0  rgu_18xx_43xx.o ABSOLUTE
    rgu_18xx_43xx.c                          0x00000000   Number         0  rgu_18xx_43xx.o ABSOLUTE
    ssp_18xx_43xx.c                          0x00000000   Number         0  ssp_18xx_43xx.o ABSOLUTE
    ssp_18xx_43xx.c                          0x00000000   Number         0  ssp_18xx_43xx.o ABSOLUTE
    sysinit_18xx_43xx.c                      0x00000000   Number         0  sysinit_18xx_43xx.o ABSOLUTE
    sysinit_18xx_43xx.c                      0x00000000   Number         0  sysinit_18xx_43xx.o ABSOLUTE
    uart_18xx_43xx.c                         0x00000000   Number         0  uart_18xx_43xx.o ABSOLUTE
    uart_18xx_43xx.c                         0x00000000   Number         0  uart_18xx_43xx.o ABSOLUTE
    .data                                    0x10000000   Section       88  raw-os.o(.data)
    .data                                    0x10000058   Section        4  raw_malloc.o(.data)
    .data                                    0x1000005c   Section        4  main.o(.data)
    .data                                    0x10000060   Section       12  lpc43xx_lcd.o(.data)
    g_lcdHSize                               0x10000060   Data           4  lpc43xx_lcd.o(.data)
    g_lcdVSize                               0x10000064   Data           4  lpc43xx_lcd.o(.data)
    lcd_frame_buffer                         0x10000068   Data           4  lpc43xx_lcd.o(.data)
    .data                                    0x1000006c   Section        8  yaffs_tagscompat.o(.data)
    init                                     0x1000006c   Data           4  yaffs_tagscompat.o(.data)
    init                                     0x10000070   Data           4  yaffs_tagscompat.o(.data)
    .data                                    0x10000074   Section        4  yaffs_verify.o(.data)
    yaffs_free_verification_failures         0x10000074   Data           4  yaffs_verify.o(.data)
    .data                                    0x10000078   Section        4  yaffscfg2k.o(.data)
    start_up_called                          0x10000078   Data           4  yaffscfg2k.o(.data)
    .data                                    0x1000007c   Section       20  board.o(.data)
    .data                                    0x10000090   Section        4  chip_18xx_43xx.o(.data)
    .bss                                     0x10000098   Section       72  raw_malloc.o(.bss)
    malloc_macb                              0x10000098   Data          72  raw_malloc.o(.bss)
    .bss                                     0x100000e0   Section     4364  main.o(.bss)
    fifo_buffer                              0x1000116c   Data         128  main.o(.bss)
    .bss                                     0x100011ec   Section       28  yaffs_osglue.o(.bss)
    mutex_yaffs_obj                          0x100011ec   Data          28  yaffs_osglue.o(.bss)
    .bss                                     0x10001208   Section       96  libspace.o(.bss)
    .data                                    0x10080000   Section       12  k9f1g08.o(.data)
    .data                                    0x1008000c   Section        4  yaffsfs.o(.data)
    .data                                    0x10080010   Section       24  yaffsfs.o(.data)
    yaffsfs_handlesInitialised               0x10080010   Data           4  yaffsfs.o(.data)
    dev_iterator                             0x10080014   Data           4  yaffsfs.o(.data)
    search_contexts                          0x10080020   Data           8  yaffsfs.o(.data)
    .data                                    0x10080028   Section        4  yaffs_osglue.o(.data)
    yaffsfs_lastError                        0x10080028   Data           4  yaffs_osglue.o(.data)
    .data                                    0x1008002c   Section        4  yaffscfg2k.o(.data)
    .data                                    0x10080030   Section       12  freetype_draw.o(.data)
    .data                                    0x1008003c   Section        8  clock_18xx_43xx.o(.data)
    audio_usb_pll_freq                       0x1008003c   Data           8  clock_18xx_43xx.o(.data)
    .bss                                     0x10080044   Section     4840  raw-os.o(.bss)
    .bss                                     0x1008132c   Section       44  raw_page.o(.bss)
    system_page_table                        0x1008132c   Data          44  raw_page.o(.bss)
    .bss                                     0x10081358   Section     6120  yaffsfs.o(.bss)
    yaffsfs_dsc                              0x10081358   Data        5520  yaffsfs.o(.bss)
    yaffsfs_inode                            0x100828e8   Data         240  yaffsfs.o(.bss)
    yaffsfs_fd                               0x100829d8   Data         240  yaffsfs.o(.bss)
    yaffsfs_handle                           0x10082ac8   Data         120  yaffsfs.o(.bss)
    .bss                                     0x10082b40   Section       32  yaffs_tagscompat.o(.bss)
    spare_ff                                 0x10082b40   Data          16  yaffs_tagscompat.o(.bss)
    spare_ff                                 0x10082b50   Data          16  yaffs_tagscompat.o(.bss)
    HEAP                                     0x10082b60   Section      256  keil_startup_lpc18xx43xx.o(HEAP)
    Heap_Mem                                 0x10082b60   Data         256  keil_startup_lpc18xx43xx.o(HEAP)
    STACK                                    0x10082c60   Section     1536  keil_startup_lpc18xx43xx.o(STACK)
    Stack_Mem                                0x10082c60   Data        1536  keil_startup_lpc18xx43xx.o(STACK)
    __initial_sp                             0x10083260   Data           0  keil_startup_lpc18xx43xx.o(STACK)
    RESET                                    0x1a000000   Section      276  keil_startup_lpc18xx43xx.o(RESET)
    !!!main                                  0x1a000114   Section        8  __main.o(!!!main)
    !!!scatter                               0x1a00011c   Section       52  __scatter.o(!!!scatter)
    !!handler_copy                           0x1a000150   Section       26  __scatter_copy.o(!!handler_copy)
    !!handler_zi                             0x1a00016c   Section       28  __scatter_zi.o(!!handler_zi)
    .ARM.Collect$$_printf_percent$$00000000  0x1a000188   Section        0  _printf_percent.o(.ARM.Collect$$_printf_percent$$00000000)
    .ARM.Collect$$_printf_percent$$00000002  0x1a000188   Section        6  _printf_p.o(.ARM.Collect$$_printf_percent$$00000002)
    .ARM.Collect$$_printf_percent$$00000007  0x1a00018e   Section       10  _printf_ll.o(.ARM.Collect$$_printf_percent$$00000007)
    .ARM.Collect$$_printf_percent$$00000009  0x1a000198   Section        6  _printf_d.o(.ARM.Collect$$_printf_percent$$00000009)
    .ARM.Collect$$_printf_percent$$0000000A  0x1a00019e   Section        6  _printf_u.o(.ARM.Collect$$_printf_percent$$0000000A)
    .ARM.Collect$$_printf_percent$$0000000C  0x1a0001a4   Section        6  _printf_x.o(.ARM.Collect$$_printf_percent$$0000000C)
    .ARM.Collect$$_printf_percent$$0000000E  0x1a0001aa   Section        6  _printf_lld.o(.ARM.Collect$$_printf_percent$$0000000E)
    .ARM.Collect$$_printf_percent$$00000014  0x1a0001b0   Section        6  _printf_s.o(.ARM.Collect$$_printf_percent$$00000014)
    .ARM.Collect$$_printf_percent$$00000017  0x1a0001b6   Section        4  _printf_percent_end.o(.ARM.Collect$$_printf_percent$$00000017)
    .ARM.Collect$$libinit$$00000000          0x1a0001ba   Section        2  libinit.o(.ARM.Collect$$libinit$$00000000)
    .ARM.Collect$$libinit$$00000001          0x1a0001bc   Section        4  libinit2.o(.ARM.Collect$$libinit$$00000001)
    .ARM.Collect$$libinit$$00000004          0x1a0001c0   Section        0  libinit2.o(.ARM.Collect$$libinit$$00000004)
    .ARM.Collect$$libinit$$0000000A          0x1a0001c0   Section        0  libinit2.o(.ARM.Collect$$libinit$$0000000A)
    .ARM.Collect$$libinit$$0000000C          0x1a0001c0   Section        0  libinit2.o(.ARM.Collect$$libinit$$0000000C)
    .ARM.Collect$$libinit$$0000000E          0x1a0001c0   Section        0  libinit2.o(.ARM.Collect$$libinit$$0000000E)
    .ARM.Collect$$libinit$$0000000F          0x1a0001c0   Section        6  libinit2.o(.ARM.Collect$$libinit$$0000000F)
    .ARM.Collect$$libinit$$00000011          0x1a0001c6   Section        0  libinit2.o(.ARM.Collect$$libinit$$00000011)
    .ARM.Collect$$libinit$$00000012          0x1a0001c6   Section       12  libinit2.o(.ARM.Collect$$libinit$$00000012)
    .ARM.Collect$$libinit$$00000013          0x1a0001d2   Section        0  libinit2.o(.ARM.Collect$$libinit$$00000013)
    .ARM.Collect$$libinit$$00000015          0x1a0001d2   Section        0  libinit2.o(.ARM.Collect$$libinit$$00000015)
    .ARM.Collect$$libinit$$00000017          0x1a0001d2   Section        0  libinit2.o(.ARM.Collect$$libinit$$00000017)
    .ARM.Collect$$libinit$$00000019          0x1a0001d2   Section        0  libinit2.o(.ARM.Collect$$libinit$$00000019)
    .ARM.Collect$$libinit$$0000001B          0x1a0001d2   Section        0  libinit2.o(.ARM.Collect$$libinit$$0000001B)
    .ARM.Collect$$libinit$$0000001D          0x1a0001d2   Section        0  libinit2.o(.ARM.Collect$$libinit$$0000001D)
    .ARM.Collect$$libinit$$0000001F          0x1a0001d2   Section        0  libinit2.o(.ARM.Collect$$libinit$$0000001F)
    .ARM.Collect$$libinit$$00000021          0x1a0001d2   Section        0  libinit2.o(.ARM.Collect$$libinit$$00000021)
    .ARM.Collect$$libinit$$00000023          0x1a0001d2   Section        0  libinit2.o(.ARM.Collect$$libinit$$00000023)
    .ARM.Collect$$libinit$$00000025          0x1a0001d2   Section        0  libinit2.o(.ARM.Collect$$libinit$$00000025)
    .ARM.Collect$$libinit$$0000002C          0x1a0001d2   Section        0  libinit2.o(.ARM.Collect$$libinit$$0000002C)
    .ARM.Collect$$libinit$$0000002E          0x1a0001d2   Section        0  libinit2.o(.ARM.Collect$$libinit$$0000002E)
    .ARM.Collect$$libinit$$00000030          0x1a0001d2   Section        0  libinit2.o(.ARM.Collect$$libinit$$00000030)
    .ARM.Collect$$libinit$$00000032          0x1a0001d2   Section        0  libinit2.o(.ARM.Collect$$libinit$$00000032)
    .ARM.Collect$$libinit$$00000033          0x1a0001d2   Section        2  libinit2.o(.ARM.Collect$$libinit$$00000033)
    .ARM.Collect$$libshutdown$$00000000      0x1a0001d4   Section        2  libshutdown.o(.ARM.Collect$$libshutdown$$00000000)
    .ARM.Collect$$libshutdown$$00000003      0x1a0001d6   Section        0  libshutdown2.o(.ARM.Collect$$libshutdown$$00000003)
    .ARM.Collect$$libshutdown$$00000006      0x1a0001d6   Section        0  libshutdown2.o(.ARM.Collect$$libshutdown$$00000006)
    .ARM.Collect$$libshutdown$$00000009      0x1a0001d6   Section        0  libshutdown2.o(.ARM.Collect$$libshutdown$$00000009)
    .ARM.Collect$$libshutdown$$0000000B      0x1a0001d6   Section        0  libshutdown2.o(.ARM.Collect$$libshutdown$$0000000B)
    .ARM.Collect$$libshutdown$$0000000E      0x1a0001d6   Section        0  libshutdown2.o(.ARM.Collect$$libshutdown$$0000000E)
    .ARM.Collect$$libshutdown$$0000000F      0x1a0001d6   Section        2  libshutdown2.o(.ARM.Collect$$libshutdown$$0000000F)
    .ARM.Collect$$rtentry$$00000000          0x1a0001d8   Section        0  __rtentry.o(.ARM.Collect$$rtentry$$00000000)
    .ARM.Collect$$rtentry$$00000002          0x1a0001d8   Section        0  __rtentry2.o(.ARM.Collect$$rtentry$$00000002)
    .ARM.Collect$$rtentry$$00000004          0x1a0001d8   Section        6  __rtentry4.o(.ARM.Collect$$rtentry$$00000004)
    .ARM.Collect$$rtentry$$00000009          0x1a0001de   Section        0  __rtentry2.o(.ARM.Collect$$rtentry$$00000009)
    .ARM.Collect$$rtentry$$0000000A          0x1a0001de   Section        4  __rtentry2.o(.ARM.Collect$$rtentry$$0000000A)
    .ARM.Collect$$rtentry$$0000000C          0x1a0001e2   Section        0  __rtentry2.o(.ARM.Collect$$rtentry$$0000000C)
    .ARM.Collect$$rtentry$$0000000D          0x1a0001e2   Section        8  __rtentry2.o(.ARM.Collect$$rtentry$$0000000D)
    .ARM.Collect$$rtexit$$00000000           0x1a0001ea   Section        2  rtexit.o(.ARM.Collect$$rtexit$$00000000)
    .ARM.Collect$$rtexit$$00000002           0x1a0001ec   Section        0  rtexit2.o(.ARM.Collect$$rtexit$$00000002)
    .ARM.Collect$$rtexit$$00000003           0x1a0001ec   Section        4  rtexit2.o(.ARM.Collect$$rtexit$$00000003)
    .ARM.Collect$$rtexit$$00000004           0x1a0001f0   Section        6  rtexit2.o(.ARM.Collect$$rtexit$$00000004)
    .text                                    0x1a0001f8   Section        0  raw-os.o(.text)
    release_mutex                            0x1a0004f9   Thumb Code    88  raw-os.o(.text)
    tick_task_process                        0x1a000831   Thumb Code    28  raw-os.o(.text)
    pend_task_wake_up                        0x1a000a35   Thumb Code    90  raw-os.o(.text)
    int_msg_handler                          0x1a000e63   Thumb Code   116  raw-os.o(.text)
    task_0_post                              0x1a000ed7   Thumb Code   120  raw-os.o(.text)
    task_0_tick_handler                      0x1a001089   Thumb Code    28  raw-os.o(.text)
    task_0_process                           0x1a0010a5   Thumb Code   124  raw-os.o(.text)
    internal_raw_mq_send                     0x1a001fa1   Thumb Code   214  raw-os.o(.text)
    is_list_empty                            0x1a002beb   Thumb Code    14  raw-os.o(.text)
    list_insert                              0x1a002bf9   Thumb Code    14  raw-os.o(.text)
    list_delete                              0x1a002c07   Thumb Code    12  raw-os.o(.text)
    add_to_priority_list                     0x1a002c13   Thumb Code    28  raw-os.o(.text)
    bit_set                                  0x1a002c2f   Thumb Code    20  raw-os.o(.text)
    timer_list_remove                        0x1a002c43   Thumb Code    22  raw-os.o(.text)
    timer_list_priority_insert               0x1a002c59   Thumb Code    32  raw-os.o(.text)
    raw_byte_pool_search                     0x1a002c79   Thumb Code   190  raw-os.o(.text)
    .text                                    0x1a002d48   Section        0  fifo.o(.text)
    internal_fifo_out_peek                   0x1a002de7   Thumb Code    62  fifo.o(.text)
    .text                                    0x1a002ebc   Section        0  raw_malloc.o(.text)
    chkalloc_test                            0x1a002ebd   Thumb Code   102  raw_malloc.o(.text)
    removeFreeQue                            0x1a002fa7   Thumb Code    68  raw_malloc.o(.text)
    allocate                                 0x1a002feb   Thumb Code    58  raw_malloc.o(.text)
    _mem_malloc                              0x1a003025   Thumb Code   172  raw_malloc.o(.text)
    _mem_free                                0x1a0030d1   Thumb Code   134  raw_malloc.o(.text)
    list_insert                              0x1a003263   Thumb Code    14  raw_malloc.o(.text)
    insertAreaQue                            0x1a003271   Thumb Code    22  raw_malloc.o(.text)
    removeAreaQue                            0x1a003287   Thumb Code    24  raw_malloc.o(.text)
    _mem_realloc                             0x1a00329f   Thumb Code   206  raw_malloc.o(.text)
    .text                                    0x1a00336c   Section        0  raw_page.o(.text)
    remove_free_page                         0x1a00336d   Thumb Code    52  raw_page.o(.text)
    search_free_page                         0x1a0033a1   Thumb Code    50  raw_page.o(.text)
    add_page_to_pool                         0x1a0033d3   Thumb Code   168  raw_page.o(.text)
    set_page_attr                            0x1a003573   Thumb Code    20  raw_page.o(.text)
    get_pages                                0x1a003587   Thumb Code    90  raw_page.o(.text)
    free_pages                               0x1a0035e1   Thumb Code   178  raw_page.o(.text)
    set_page_used                            0x1a003693   Thumb Code   142  raw_page.o(.text)
    .text                                    0x1a003740   Section      164  cpu.o(.text)
    $v0                                      0x1a003740   Number         0  cpu.o(.text)
    .text                                    0x1a0037e4   Section        0  port.o(.text)
    .text                                    0x1a003928   Section        0  port_hook.o(.text)
    .text                                    0x1a00393a   Section        0  user_extension.o(.text)
    .text                                    0x1a0039c4   Section       68  keil_startup_lpc18xx43xx.o(.text)
    $v0                                      0x1a0039c4   Number         0  keil_startup_lpc18xx43xx.o(.text)
    .text                                    0x1a003a08   Section        0  sysinit.o(.text)
    .text                                    0x1a003a24   Section        0  lpc43xx_scu.o(.text)
    .text                                    0x1a003a38   Section        0  lpc43xx_sdram.o(.text)
    .text                                    0x1a003e94   Section        0  k9f1g08.o(.text)
    k9f_state_read                           0x1a003f11   Thumb Code    36  k9f1g08.o(.text)
    k9f_busy_wait                            0x1a0041ed   Thumb Code    22  k9f1g08.o(.text)
    .text                                    0x1a00420c   Section        0  lpc43xx_gpio.o(.text)
    .text                                    0x1a00424c   Section        0  yaffs_port_nand_drv.o(.text)
    yaffs_nand_drv_WriteChunk                0x1a00424d   Thumb Code   104  yaffs_port_nand_drv.o(.text)
    yaffs_nand_drv_ReadChunk                 0x1a0042b5   Thumb Code   106  yaffs_port_nand_drv.o(.text)
    yaffs_nand_drv_EraseBlock                0x1a00431f   Thumb Code    16  yaffs_port_nand_drv.o(.text)
    yaffs_nand_drv_MarkBad                   0x1a00432f   Thumb Code    22  yaffs_port_nand_drv.o(.text)
    yaffs_nand_drv_CheckBad                  0x1a004345   Thumb Code    36  yaffs_port_nand_drv.o(.text)
    yaffs_nand_drv_Initialise                0x1a004369   Thumb Code     4  yaffs_port_nand_drv.o(.text)
    yaffs_nand_drv_Deinitialise              0x1a00436d   Thumb Code     4  yaffs_port_nand_drv.o(.text)
    .text                                    0x1a0043b0   Section        0  main.o(.text)
    NVIC_EnableIRQ                           0x1a0045ef   Thumb Code    22  main.o(.text)
    NVIC_SetPriority                         0x1a004605   Thumb Code    32  main.o(.text)
    .text                                    0x1a00467c   Section        0  lpc43xx_lcd.o(.text)
    .text                                    0x1a0049ac   Section        0  yaffs_attribs.o(.text)
    .text                                    0x1a004ad0   Section        0  yaffs_hweight.o(.text)
    .text                                    0x1a004af8   Section        0  yaffs_qsort.o(.text)
    swapfunc                                 0x1a004af9   Thumb Code    44  yaffs_qsort.o(.text)
    med3                                     0x1a004b25   Thumb Code    70  yaffs_qsort.o(.text)
    .text                                    0x1a004dc8   Section        0  yaffsfs.o(.text)
    yaffsfs_HandleToObject                   0x1a004dd5   Thumb Code    48  yaffsfs.o(.text)
    yaffsfs_PutInode                         0x1a004e05   Thumb Code    44  yaffsfs.o(.text)
    yaffsfs_NewHandle                        0x1a004e31   Thumb Code    50  yaffsfs.o(.text)
    yaffsfs_closedir_no_lock                 0x1a004e63   Thumb Code    56  yaffsfs.o(.text)
    yaffsfs_PutHandle                        0x1a004e9b   Thumb Code   110  yaffsfs.o(.text)
    yaffsfs_BreakDeviceHandles               0x1a004f09   Thumb Code   102  yaffsfs.o(.text)
    yaffsfs_alt_dir_path                     0x1a004f6f   Thumb Code    86  yaffsfs.o(.text)
    yaffsfs_FindDevice                       0x1a004fc5   Thumb Code   184  yaffsfs.o(.text)
    yaffsfs_CheckPath                        0x1a00507d   Thumb Code    46  yaffsfs.o(.text)
    yaffsfs_DoFindDirectory                  0x1a0050ab   Thumb Code   220  yaffsfs.o(.text)
    yaffsfs_FindObject                       0x1a005187   Thumb Code    78  yaffsfs.o(.text)
    yaffsfs_FollowLink                       0x1a0051d5   Thumb Code    92  yaffsfs.o(.text)
    yaffsfs_SetDirRewound                    0x1a005291   Thumb Code    60  yaffsfs.o(.text)
    yaffsfs_opendir_reldir_no_lock           0x1a0052cd   Thumb Code   260  yaffsfs.o(.text)
    yaffs_Dofsync                            0x1a0057f7   Thumb Code    64  yaffsfs.o(.text)
    yaffsfs_do_read                          0x1a005897   Thumb Code   316  yaffsfs.o(.text)
    yaffsfs_do_write                         0x1a0059eb   Thumb Code   342  yaffsfs.o(.text)
    yaffsfs_DoUnlink_reldir                  0x1a005d35   Thumb Code   258  yaffsfs.o(.text)
    yaffsfs_DoStat                           0x1a00603b   Thumb Code   138  yaffsfs.o(.text)
    yaffsfs_DoStatOrLStat_reldir             0x1a0060c5   Thumb Code   172  yaffsfs.o(.text)
    yaffsfs_DoUtime                          0x1a0061f9   Thumb Code    84  yaffsfs.o(.text)
    yaffs_do_setxattr_reldir                 0x1a00631d   Thumb Code   208  yaffsfs.o(.text)
    yaffs_do_getxattr_reldir                 0x1a0064f3   Thumb Code   204  yaffsfs.o(.text)
    yaffs_do_listxattr_reldir                0x1a0066a9   Thumb Code   186  yaffsfs.o(.text)
    yaffs_do_removexattr_reldir              0x1a006817   Thumb Code   184  yaffsfs.o(.text)
    yaffsfs_DoChMod                          0x1a006961   Thumb Code    46  yaffsfs.o(.text)
    yaffsfs_bg_gc_common                     0x1a006e95   Thumb Code   112  yaffsfs.o(.text)
    yaffsfs_DirAdvance                       0x1a0072af   Thumb Code    68  yaffsfs.o(.text)
    yaffsfs_RemoveObjectCallback             0x1a0072f3   Thumb Code    40  yaffsfs.o(.text)
    list_empty                               0x1a0078a5   Thumb Code    14  yaffsfs.o(.text)
    yaffsfs_InitHandles                      0x1a0078b3   Thumb Code    92  yaffsfs.o(.text)
    yaffsfs_HandleToPointer                  0x1a00790f   Thumb Code    16  yaffsfs.o(.text)
    yaffsfs_HandleToFileDes                  0x1a00791f   Thumb Code    42  yaffsfs.o(.text)
    yaffsfs_FindInodeIdForObject             0x1a007949   Thumb Code    42  yaffsfs.o(.text)
    yaffsfs_GetHandle                        0x1a007973   Thumb Code    30  yaffsfs.o(.text)
    yaffsfs_IsPathDivider                    0x1a007991   Thumb Code    24  yaffsfs.o(.text)
    yaffsfs_FindMountPoint                   0x1a0079a9   Thumb Code    32  yaffsfs.o(.text)
    yaffsfs_FindDirectory                    0x1a0079c9   Thumb Code    16  yaffsfs.o(.text)
    yaffsfs_TooManyObjects                   0x1a0079d9   Thumb Code    26  yaffsfs.o(.text)
    yaffsfs_IsDevBusy                        0x1a0079f3   Thumb Code    34  yaffsfs.o(.text)
    yaffsfs_rewinddir_no_lock                0x1a007a15   Thumb Code    30  yaffsfs.o(.text)
    .text                                    0x1a007a48   Section        0  yaffs_allocator.o(.text)
    yaffs_create_tnodes                      0x1a007a49   Thumb Code   164  yaffs_allocator.o(.text)
    yaffs_create_free_objs                   0x1a007b47   Thumb Code   142  yaffs_allocator.o(.text)
    list_empty                               0x1a007ce5   Thumb Code    14  yaffs_allocator.o(.text)
    yaffs_deinit_raw_objs                    0x1a007cf3   Thumb Code    58  yaffs_allocator.o(.text)
    .text                                    0x1a007e44   Section        0  yaffs_bitmap.o(.text)
    yaffs_block_bits                         0x1a007e45   Thumb Code    64  yaffs_bitmap.o(.text)
    .text                                    0x1a008048   Section        0  yaffs_checkptrw.o(.text)
    yaffs_get_block_info                     0x1a008049   Thumb Code    60  yaffs_checkptrw.o(.text)
    yaffs_checkpt_erase                      0x1a008085   Thumb Code   182  yaffs_checkptrw.o(.text)
    yaffs2_checkpt_find_block                0x1a00813b   Thumb Code   212  yaffs_checkptrw.o(.text)
    yaffs2_checkpt_flush_buffer              0x1a0082f7   Thumb Code   224  yaffs_checkptrw.o(.text)
    yaffs2_checkpt_init_chunk_hdr            0x1a008807   Thumb Code    36  yaffs_checkptrw.o(.text)
    yaffs2_checkpt_find_erased_block         0x1a00882b   Thumb Code   134  yaffs_checkptrw.o(.text)
    .text                                    0x1a00894c   Section        0  yaffs_ecc.o(.text)
    .text                                    0x1a008bc8   Section        0  yaffs_guts.o(.text)
    yaffs_get_block_info                     0x1a008bc9   Thumb Code    60  yaffs_guts.o(.text)
    yaffs_retire_block                       0x1a008d4f   Thumb Code   184  yaffs_guts.o(.text)
    yaffs_check_chunk_erased                 0x1a008e1d   Thumb Code    86  yaffs_guts.o(.text)
    yaffs_find_alloc_block                   0x1a0092e9   Thumb Code   178  yaffs_guts.o(.text)
    yaffs_alloc_chunk                        0x1a00939b   Thumb Code   200  yaffs_guts.o(.text)
    yaffs_write_new_chunk                    0x1a009463   Thumb Code   758  yaffs_guts.o(.text)
    yaffs_fix_null_name                      0x1a009759   Thumb Code    88  yaffs_guts.o(.text)
    yaffs_load_tnode_0                       0x1a00982b   Thumb Code    86  yaffs_guts.o(.text)
    yaffs_find_chunk_in_group                0x1a0099d5   Thumb Code   102  yaffs_guts.o(.text)
    yaffs_soft_del_worker                    0x1a009c69   Thumb Code   192  yaffs_guts.o(.text)
    yaffs_remove_obj_from_dir                0x1a009d29   Thumb Code    50  yaffs_guts.o(.text)
    yaffs_check_obj_details_loaded           0x1a009e3f   Thumb Code   100  yaffs_guts.o(.text)
    yaffs_free_obj                           0x1a009ea3   Thumb Code   170  yaffs_guts.o(.text)
    yaffs_invalidate_whole_cache             0x1a009f4d   Thumb Code    46  yaffs_guts.o(.text)
    yaffs_generic_obj_del                    0x1a009f7b   Thumb Code    70  yaffs_guts.o(.text)
    yaffs_gc_process_chunk                   0x1a00a0bf   Thumb Code   392  yaffs_guts.o(.text)
    yaffs_gc_block                           0x1a00a247   Thumb Code   428  yaffs_guts.o(.text)
    yaffs_find_gc_block                      0x1a00a3f3   Thumb Code   940  yaffs_guts.o(.text)
    yaffs_check_gc                           0x1a00a79f   Thumb Code   328  yaffs_guts.o(.text)
    yaffs_change_obj_name                    0x1a00ad47   Thumb Code   182  yaffs_guts.o(.text)
    yaffs_wr_data_obj                        0x1a00adfd   Thumb Code   186  yaffs_guts.o(.text)
    yaffs_flush_file_cache                   0x1a00aeb7   Thumb Code   146  yaffs_guts.o(.text)
    yaffs_grab_chunk_worker                  0x1a00af8b   Thumb Code    50  yaffs_guts.o(.text)
    yaffs_grab_chunk_cache                   0x1a00afbd   Thumb Code   360  yaffs_guts.o(.text)
    yaffs_find_chunk_cache                   0x1a00b125   Thumb Code    76  yaffs_guts.o(.text)
    yaffs_use_cache                          0x1a00b171   Thumb Code    74  yaffs_guts.o(.text)
    yaffs_soft_del_file                      0x1a00b1c7   Thumb Code    88  yaffs_guts.o(.text)
    yaffs_prune_worker                       0x1a00b21f   Thumb Code   112  yaffs_guts.o(.text)
    yaffs_new_obj                            0x1a00b28f   Thumb Code   174  yaffs_guts.o(.text)
    yaffs_create_fake_dir                    0x1a00b33d   Thumb Code    38  yaffs_guts.o(.text)
    yaffs_init_tnodes_and_objs               0x1a00b363   Thumb Code    48  yaffs_guts.o(.text)
    yaffs_update_parent                      0x1a00b3b3   Thumb Code    94  yaffs_guts.o(.text)
    yaffs_rd_data_obj                        0x1a00b487   Thumb Code    60  yaffs_guts.o(.text)
    yaffs_prune_chunks                       0x1a00b4c3   Thumb Code   426  yaffs_guts.o(.text)
    yaffs_del_file                           0x1a00b783   Thumb Code   118  yaffs_guts.o(.text)
    yaffs_create_obj                         0x1a00b869   Thumb Code   224  yaffs_guts.o(.text)
    yaffs_deinit_blocks                      0x1a00ba89   Thumb Code    68  yaffs_guts.o(.text)
    yaffs_init_blocks                        0x1a00bacd   Thumb Code   182  yaffs_guts.o(.text)
    yaffs_do_xattrib_mod                     0x1a00bbbb   Thumb Code    56  yaffs_guts.o(.text)
    yaffs_do_xattrib_fetch                   0x1a00bbf3   Thumb Code   174  yaffs_guts.o(.text)
    yaffs_unlink_worker                      0x1a00c10b   Thumb Code   232  yaffs_guts.o(.text)
    yaffs_fix_hanging_objs                   0x1a00c351   Thumb Code   154  yaffs_guts.o(.text)
    yaffs_del_dir_contents                   0x1a00c3eb   Thumb Code    82  yaffs_guts.o(.text)
    yaffs_create_initial_dir                 0x1a00c4e7   Thumb Code   122  yaffs_guts.o(.text)
    list_add                                 0x1a00cd43   Thumb Code    12  yaffs_guts.o(.text)
    list_del_init                            0x1a00cd4f   Thumb Code    14  yaffs_guts.o(.text)
    list_empty                               0x1a00cd5d   Thumb Code    14  yaffs_guts.o(.text)
    yaffs_hash_fn                            0x1a00cd6b   Thumb Code    20  yaffs_guts.o(.text)
    yaffs_get_erased_chunks                  0x1a00cd7f   Thumb Code    28  yaffs_guts.o(.text)
    yaffs_calc_name_sum                      0x1a00cd9b   Thumb Code    38  yaffs_guts.o(.text)
    yaffs_free_tnode                         0x1a00cdc1   Thumb Code    26  yaffs_guts.o(.text)
    yaffs_deinit_tnodes_and_objs             0x1a00cddb   Thumb Code    20  yaffs_guts.o(.text)
    yaffs_alloc_empty_obj                    0x1a00cdef   Thumb Code   118  yaffs_guts.o(.text)
    yaffs_new_obj_id                         0x1a00ce65   Thumb Code   102  yaffs_guts.o(.text)
    yaffs_del_link                           0x1a00cecb   Thumb Code    20  yaffs_guts.o(.text)
    yaffs_del_symlink                        0x1a00cedf   Thumb Code    24  yaffs_guts.o(.text)
    yaffs_del_dir                            0x1a00cef7   Thumb Code    24  yaffs_guts.o(.text)
    yaffs_unlink_file_if_needed              0x1a00cf0f   Thumb Code   110  yaffs_guts.o(.text)
    yaffs_unlink_obj                         0x1a00cf7d   Thumb Code    16  yaffs_guts.o(.text)
    yaffs_has_null_parent                    0x1a00cf8d   Thumb Code    32  yaffs_guts.o(.text)
    .text                                    0x1a00d058   Section        0  yaffs_nameval.o(.text)
    nval_find                                0x1a00d059   Thumb Code    96  yaffs_nameval.o(.text)
    nval_used                                0x1a00d287   Thumb Code    38  yaffs_nameval.o(.text)
    .text                                    0x1a00d2ac   Section        0  yaffs_nand.o(.text)
    .text                                    0x1a00d500   Section        0  yaffs_packedtags2.o(.text)
    yaffs_dump_packed_tags2_tags_only        0x1a00d501   Thumb Code    26  yaffs_packedtags2.o(.text)
    yaffs_dump_tags2                         0x1a00d51b   Thumb Code    52  yaffs_packedtags2.o(.text)
    .text                                    0x1a00d6f8   Section        0  yaffs_summary.o(.text)
    yaffs_get_block_info                     0x1a00d6f9   Thumb Code    60  yaffs_summary.o(.text)
    yaffs_summary_write                      0x1a00d7af   Thumb Code   252  yaffs_summary.o(.text)
    yaffs_summary_clear                      0x1a00dab1   Thumb Code   160  yaffs_summary.o(.text)
    yaffs_summary_sum                        0x1a00db51   Thumb Code    34  yaffs_summary.o(.text)
    .text                                    0x1a00db74   Section        0  yaffs_tagscompat.o(.text)
    yaffs_rd_chunk_nand                      0x1a00dbef   Thumb Code   298  yaffs_tagscompat.o(.text)
    yaffs_tags_compat_wr                     0x1a00dd19   Thumb Code   214  yaffs_tagscompat.o(.text)
    yaffs_tags_compat_rd                     0x1a00ddef   Thumb Code   280  yaffs_tagscompat.o(.text)
    yaffs_tags_compat_mark_bad               0x1a00df07   Thumb Code    58  yaffs_tagscompat.o(.text)
    yaffs_tags_compat_query_block            0x1a00df41   Thumb Code   368  yaffs_tagscompat.o(.text)
    yaffs_wr_nand                            0x1a00e0eb   Thumb Code    20  yaffs_tagscompat.o(.text)
    yaffs_handle_rd_data_error               0x1a00e0ff   Thumb Code   102  yaffs_tagscompat.o(.text)
    .text                                    0x1a00e228   Section        0  yaffs_tagsmarshall.o(.text)
    yaffs_tags_marshall_write                0x1a00e229   Thumb Code   124  yaffs_tagsmarshall.o(.text)
    yaffs_tags_marshall_read                 0x1a00e2a5   Thumb Code   220  yaffs_tagsmarshall.o(.text)
    yaffs_tags_marshall_query_block          0x1a00e381   Thumb Code   136  yaffs_tagsmarshall.o(.text)
    yaffs_tags_marshall_mark_bad             0x1a00e409   Thumb Code     6  yaffs_tagsmarshall.o(.text)
    .text                                    0x1a00e588   Section        0  yaffs_verify.o(.text)
    yaffs_skip_nand_verification             0x1a00efe3   Thumb Code    12  yaffs_verify.o(.text)
    .text                                    0x1a00f1fc   Section        0  yaffs_yaffs1.o(.text)
    .text                                    0x1a00f838   Section        0  yaffs_yaffs2.o(.text)
    yaffs2_wr_checkpt_validity_marker        0x1a00f9ff   Thumb Code    46  yaffs_yaffs2.o(.text)
    yaffs2_rd_checkpt_validity_marker        0x1a00fa2d   Thumb Code    76  yaffs_yaffs2.o(.text)
    yaffs2_checkpt_obj_to_obj                0x1a00fa79   Thumb Code   224  yaffs_yaffs2.o(.text)
    yaffs2_checkpt_tnode_worker              0x1a00fb59   Thumb Code   112  yaffs_yaffs2.o(.text)
    yaffs2_rd_checkpt_tnodes                 0x1a00fbc9   Thumb Code   138  yaffs_yaffs2.o(.text)
    yaffs2_wr_checkpt_objs                   0x1a00fc53   Thumb Code   318  yaffs_yaffs2.o(.text)
    yaffs2_rd_checkpt_objs                   0x1a00fd91   Thumb Code   190  yaffs_yaffs2.o(.text)
    yaffs2_wr_checkpt_data                   0x1a00fe4f   Thumb Code   204  yaffs_yaffs2.o(.text)
    yaffs2_rd_checkpt_data                   0x1a00ff1b   Thumb Code   230  yaffs_yaffs2.o(.text)
    yaffs2_ybicmp                            0x1a0103ed   Thumb Code    20  yaffs_yaffs2.o(.text)
    yaffs2_scan_chunk                        0x1a010401   Thumb Code  1380  yaffs_yaffs2.o(.text)
    yaffs2_wr_checkpt_dev                    0x1a010c55   Thumb Code   156  yaffs_yaffs2.o(.text)
    yaffs2_rd_checkpt_dev                    0x1a010cf1   Thumb Code   644  yaffs_yaffs2.o(.text)
    yaffs2_obj_checkpt_obj                   0x1a010f75   Thumb Code   114  yaffs_yaffs2.o(.text)
    .text                                    0x1a010fe8   Section        0  yaffs_osglue.o(.text)
    .text                                    0x1a01106c   Section        0  yaffscfg2k.o(.text)
    .text                                    0x1a0110a8   Section        0  yaffs_startup.o(.text)
    .text                                    0x1a011110   Section        0  autofit.o(.text)
    af_sort_and_quantize_widths              0x1a011111   Thumb Code   234  autofit.o(.text)
    af_face_globals_compute_style_coverage   0x1a0111ff   Thumb Code   274  autofit.o(.text)
    af_face_globals_free                     0x1a011311   Thumb Code    88  autofit.o(.text)
    af_face_globals_new                      0x1a011369   Thumb Code    70  autofit.o(.text)
    af_axis_hints_new_edge                   0x1a0113af   Thumb Code   166  autofit.o(.text)
    af_direction_compute                     0x1a011455   Thumb Code    68  autofit.o(.text)
    af_glyph_hints_done                      0x1a011499   Thumb Code    96  autofit.o(.text)
    af_glyph_hints_reload                    0x1a0114f9   Thumb Code   778  autofit.o(.text)
    af_glyph_hints_save                      0x1a011803   Thumb Code    68  autofit.o(.text)
    af_glyph_hints_align_strong_points       0x1a011847   Thumb Code   326  autofit.o(.text)
    af_iup_interp                            0x1a01198d   Thumb Code   160  autofit.o(.text)
    af_glyph_hints_align_weak_points         0x1a011a2d   Thumb Code   280  autofit.o(.text)
    af_dummy_hints_init                      0x1a011b45   Thumb Code    26  autofit.o(.text)
    af_dummy_hints_apply                     0x1a011b5f   Thumb Code    26  autofit.o(.text)
    af_latin_hints_link_segments             0x1a011b79   Thumb Code   222  autofit.o(.text)
    af_latin_hints_compute_segments          0x1a011c57   Thumb Code   584  autofit.o(.text)
    af_latin_metrics_init_widths             0x1a011ebb   Thumb Code   444  autofit.o(.text)
    af_latin_metrics_init_blues              0x1a012077   Thumb Code  1346  autofit.o(.text)
    af_latin_metrics_init                    0x1a0125b9   Thumb Code   130  autofit.o(.text)
    af_latin_metrics_scale_dim               0x1a01263b   Thumb Code   398  autofit.o(.text)
    af_latin_metrics_scale                   0x1a0127c9   Thumb Code    38  autofit.o(.text)
    af_latin_hints_compute_edges             0x1a0127ef   Thumb Code   490  autofit.o(.text)
    af_latin_hints_compute_blue_edges        0x1a0129d9   Thumb Code   224  autofit.o(.text)
    af_latin_hints_init                      0x1a012ab9   Thumb Code    96  autofit.o(.text)
    af_latin_compute_stem_width              0x1a012b19   Thumb Code   330  autofit.o(.text)
    af_latin_hint_edges                      0x1a012c63   Thumb Code   916  autofit.o(.text)
    af_latin_hints_apply                     0x1a012ff7   Thumb Code   148  autofit.o(.text)
    af_cjk_metrics_init_widths               0x1a01308b   Thumb Code   446  autofit.o(.text)
    af_cjk_metrics_init_blues                0x1a013249   Thumb Code   558  autofit.o(.text)
    af_cjk_metrics_check_digits              0x1a013477   Thumb Code    88  autofit.o(.text)
    af_cjk_metrics_init                      0x1a0134cf   Thumb Code    60  autofit.o(.text)
    af_cjk_metrics_scale_dim                 0x1a01350b   Thumb Code   214  autofit.o(.text)
    af_cjk_metrics_scale                     0x1a0135e1   Thumb Code    36  autofit.o(.text)
    af_cjk_hints_link_segments               0x1a013605   Thumb Code   450  autofit.o(.text)
    af_cjk_hints_compute_edges               0x1a0137c7   Thumb Code   540  autofit.o(.text)
    af_cjk_hints_detect_features             0x1a0139e3   Thumb Code   120  autofit.o(.text)
    af_cjk_hints_compute_blue_edges          0x1a013a5b   Thumb Code   202  autofit.o(.text)
    af_cjk_hints_init                        0x1a013b25   Thumb Code    80  autofit.o(.text)
    af_cjk_compute_stem_width                0x1a013b75   Thumb Code   288  autofit.o(.text)
    af_hint_normal_stem                      0x1a013c95   Thumb Code   302  autofit.o(.text)
    af_cjk_hint_edges                        0x1a013dc3   Thumb Code   658  autofit.o(.text)
    af_cjk_hints_apply                       0x1a014055   Thumb Code   158  autofit.o(.text)
    af_indic_metrics_init                    0x1a0140f3   Thumb Code    58  autofit.o(.text)
    af_indic_metrics_scale                   0x1a01412d   Thumb Code     4  autofit.o(.text)
    af_indic_hints_init                      0x1a014131   Thumb Code     2  autofit.o(.text)
    af_indic_hints_apply                     0x1a014133   Thumb Code     2  autofit.o(.text)
    af_loader_load_g                         0x1a014135   Thumb Code  1340  autofit.o(.text)
    af_loader_load_glyph                     0x1a014671   Thumb Code   218  autofit.o(.text)
    af_property_get_face_globals             0x1a01474b   Thumb Code    50  autofit.o(.text)
    af_property_set                          0x1a01477d   Thumb Code   122  autofit.o(.text)
    af_property_get                          0x1a0147f7   Thumb Code   126  autofit.o(.text)
    af_get_interface                         0x1a014875   Thumb Code     6  autofit.o(.text)
    af_autofitter_init                       0x1a01487b   Thumb Code    50  autofit.o(.text)
    af_autofitter_done                       0x1a0148ad   Thumb Code    28  autofit.o(.text)
    af_autofitter_load_glyph                 0x1a0148c9   Thumb Code     8  autofit.o(.text)
    FT_MulFix_arm                            0x1a0148d1   Thumb Code    28  autofit.o(.text)
    af_sort_pos                              0x1a0148ed   Thumb Code    46  autofit.o(.text)
    af_face_globals_get_metrics              0x1a01491b   Thumb Code   142  autofit.o(.text)
    af_glyph_hints_init                      0x1a0149a9   Thumb Code    16  autofit.o(.text)
    af_glyph_hints_align_edge_points         0x1a0149b9   Thumb Code    98  autofit.o(.text)
    af_latin_hints_detect_features           0x1a014a1b   Thumb Code    36  autofit.o(.text)
    af_latin_align_linked_edge               0x1a014a3f   Thumb Code   118  autofit.o(.text)
    af_cjk_align_linked_edge                 0x1a014ab5   Thumb Code    30  autofit.o(.text)
    af_cjk_align_serif_edge                  0x1a014ad3   Thumb Code    14  autofit.o(.text)
    af_cjk_align_edge_points                 0x1a014ae1   Thumb Code   170  autofit.o(.text)
    .text                                    0x1a014b8c   Section        0  bdf.o(.text)
    hash_bucket                              0x1a014b8d   Thumb Code    88  bdf.o(.text)
    hash_init                                0x1a014be5   Thumb Code    46  bdf.o(.text)
    hash_free                                0x1a014c13   Thumb Code    54  bdf.o(.text)
    hash_insert                              0x1a014c49   Thumb Code    88  bdf.o(.text)
    _bdf_list_ensure                         0x1a014ca1   Thumb Code    76  bdf.o(.text)
    _bdf_list_shift                          0x1a014ced   Thumb Code    56  bdf.o(.text)
    _bdf_list_join                           0x1a014d25   Thumb Code    86  bdf.o(.text)
    _bdf_list_split                          0x1a014d7b   Thumb Code   352  bdf.o(.text)
    _bdf_readstream                          0x1a014edb   Thumb Code   354  bdf.o(.text)
    _bdf_atoul                               0x1a01503d   Thumb Code   114  bdf.o(.text)
    _bdf_atol                                0x1a0150af   Thumb Code   136  bdf.o(.text)
    _bdf_atos                                0x1a015137   Thumb Code   142  bdf.o(.text)
    by_encoding                              0x1a0151c5   Thumb Code    28  bdf.o(.text)
    _bdf_add_comment                         0x1a0151e1   Thumb Code    78  bdf.o(.text)
    _bdf_is_atom                             0x1a01522f   Thumb Code   202  bdf.o(.text)
    _bdf_add_property                        0x1a0152f9   Thumb Code   506  bdf.o(.text)
    _bdf_parse_glyphs                        0x1a0154f3   Thumb Code  1730  bdf.o(.text)
    bdf_get_font_property                    0x1a015bb5   Thumb Code    46  bdf.o(.text)
    _bdf_parse_properties                    0x1a015be3   Thumb Code   332  bdf.o(.text)
    _bdf_parse_start                         0x1a015d2f   Thumb Code  1106  bdf.o(.text)
    bdf_free_font                            0x1a016181   Thumb Code   390  bdf.o(.text)
    bdf_load_font                            0x1a016307   Thumb Code   402  bdf.o(.text)
    bdf_cmap_init                            0x1a016499   Thumb Code    18  bdf.o(.text)
    bdf_cmap_done                            0x1a0164ab   Thumb Code     8  bdf.o(.text)
    bdf_cmap_char_index                      0x1a0164b3   Thumb Code    56  bdf.o(.text)
    bdf_cmap_char_next                       0x1a0164eb   Thumb Code    76  bdf.o(.text)
    bdf_interpret_style                      0x1a016537   Thumb Code   362  bdf.o(.text)
    BDF_Face_Done                            0x1a0166a1   Thumb Code   192  bdf.o(.text)
    BDF_Face_Init                            0x1a016761   Thumb Code   784  bdf.o(.text)
    BDF_Size_Select                          0x1a016a71   Thumb Code    38  bdf.o(.text)
    BDF_Size_Request                         0x1a016a97   Thumb Code    78  bdf.o(.text)
    BDF_Glyph_Load                           0x1a016ae5   Thumb Code   368  bdf.o(.text)
    bdf_get_bdf_property                     0x1a016c55   Thumb Code    42  bdf.o(.text)
    bdf_get_charset_id                       0x1a016c7f   Thumb Code    14  bdf.o(.text)
    bdf_driver_requester                     0x1a016c8d   Thumb Code     6  bdf.o(.text)
    hash_rehash                              0x1a016c93   Thumb Code    96  bdf.o(.text)
    hash_lookup                              0x1a016cf3   Thumb Code    10  bdf.o(.text)
    _bdf_list_init                           0x1a016cfd   Thumb Code    12  bdf.o(.text)
    _bdf_list_done                           0x1a016d09   Thumb Code    28  bdf.o(.text)
    bdf_create_property                      0x1a016d25   Thumb Code   158  bdf.o(.text)
    _bdf_set_default_spacing                 0x1a016dc3   Thumb Code   140  bdf.o(.text)
    .text                                    0x1a016e5c   Section        0  ftbase.o(.text)
    ft_multo64                               0x1a016e5d   Thumb Code    60  ftbase.o(.text)
    _ft_face_scale_advances                  0x1a016f13   Thumb Code    62  ftbase.o(.text)
    ft_trig_downscale                        0x1a0175c9   Thumb Code    70  ftbase.o(.text)
    ft_trig_pseudo_polarize                  0x1a01760f   Thumb Code   142  ftbase.o(.text)
    ft_trig_prenorm                          0x1a01769d   Thumb Code    66  ftbase.o(.text)
    FT_GlyphLoader_Adjust_Points             0x1a017b1b   Thumb Code    64  ftbase.o(.text)
    ft_glyphslot_done                        0x1a017fa1   Thumb Code    72  ftbase.o(.text)
    destroy_size                             0x1a018167   Thumb Code    50  ftbase.o(.text)
    destroy_charmaps                         0x1a018199   Thumb Code    56  ftbase.o(.text)
    destroy_face                             0x1a018205   Thumb Code   116  ftbase.o(.text)
    find_unicode_charmap                     0x1a018279   Thumb Code    88  ftbase.o(.text)
    find_variant_selector_charmap            0x1a018303   Thumb Code    48  ftbase.o(.text)
    open_face                                0x1a018333   Thumb Code   230  ftbase.o(.text)
    ft_recompute_scaled_metrics              0x1a01892b   Thumb Code    78  ftbase.o(.text)
    ft_property_do                           0x1a01941d   Thumb Code   136  ftbase.o(.text)
    ft_raccess_sort_ref_by_id                0x1a01a005   Thumb Code    28  ftbase.o(.text)
    ft_trig_pseudo_rotate                    0x1a01a687   Thumb Code   106  ftbase.o(.text)
    ft_div64by32                             0x1a01a8fb   Thumb Code    44  ftbase.o(.text)
    FT_Add64                                 0x1a01a927   Thumb Code    32  ftbase.o(.text)
    ft_glyphslot_grid_fit_metrics            0x1a01a947   Thumb Code   162  ftbase.o(.text)
    FT_GlyphLoader_Adjust_Subglyphs          0x1a01a9e9   Thumb Code    12  ftbase.o(.text)
    ft_cmap_done_internal                    0x1a01a9f5   Thumb Code    30  ftbase.o(.text)
    ft_add_renderer                          0x1a01aa13   Thumb Code   122  ftbase.o(.text)
    Destroy_Module                           0x1a01aa8d   Thumb Code   160  ftbase.o(.text)
    ft_set_current_renderer                  0x1a01ab2d   Thumb Code    18  ftbase.o(.text)
    .text                                    0x1a01ab48   Section        0  ftgzip.o(.text)
    .text                                    0x1a01ab50   Section        0  smooth.o(.text)
    gray_record_cell                         0x1a01ab51   Thumb Code   108  smooth.o(.text)
    gray_set_cell                            0x1a01abbd   Thumb Code    80  smooth.o(.text)
    gray_render_scanline                     0x1a01ac0d   Thumb Code   288  smooth.o(.text)
    gray_render_line                         0x1a01ad2d   Thumb Code   448  smooth.o(.text)
    gray_render_conic                        0x1a01aeed   Thumb Code   292  smooth.o(.text)
    gray_render_cubic                        0x1a01b011   Thumb Code   352  smooth.o(.text)
    gray_move_to                             0x1a01b171   Thumb Code    84  smooth.o(.text)
    gray_line_to                             0x1a01b1c5   Thumb Code    22  smooth.o(.text)
    gray_conic_to                            0x1a01b1db   Thumb Code    18  smooth.o(.text)
    gray_cubic_to                            0x1a01b1ed   Thumb Code    20  smooth.o(.text)
    gray_render_span                         0x1a01b201   Thumb Code   106  smooth.o(.text)
    gray_hline                               0x1a01b26b   Thumb Code   220  smooth.o(.text)
    gray_convert_glyph_inner                 0x1a01b347   Thumb Code    54  smooth.o(.text)
    gray_convert_glyph                       0x1a01b37d   Thumb Code   446  smooth.o(.text)
    gray_raster_render                       0x1a01b53b   Thumb Code   286  smooth.o(.text)
    gray_raster_new                          0x1a01b659   Thumb Code    32  smooth.o(.text)
    gray_raster_done                         0x1a01b679   Thumb Code    10  smooth.o(.text)
    gray_raster_reset                        0x1a01b683   Thumb Code    48  smooth.o(.text)
    ft_smooth_init                           0x1a01b6b3   Thumb Code    24  smooth.o(.text)
    ft_smooth_set_mode                       0x1a01b6cb   Thumb Code    18  smooth.o(.text)
    ft_smooth_transform                      0x1a01b6dd   Thumb Code    48  smooth.o(.text)
    ft_smooth_get_cbox                       0x1a01b70d   Thumb Code    32  smooth.o(.text)
    ft_smooth_render_generic                 0x1a01b72d   Thumb Code   608  smooth.o(.text)
    ft_smooth_render                         0x1a01b98d   Thumb Code    18  smooth.o(.text)
    ft_smooth_render_lcd                     0x1a01b99f   Thumb Code    26  smooth.o(.text)
    ft_smooth_render_lcd_v                   0x1a01b9b9   Thumb Code    26  smooth.o(.text)
    gray_compute_cbox                        0x1a01b9d3   Thumb Code   118  smooth.o(.text)
    gray_split_cubic                         0x1a01ba49   Thumb Code   140  smooth.o(.text)
    gray_sweep                               0x1a01bad5   Thumb Code   164  smooth.o(.text)
    .text                                    0x1a01bb7c   Section        0  ftsystem.o(.text)
    ft_alloc                                 0x1a01bb7d   Thumb Code     6  ftsystem.o(.text)
    ft_realloc                               0x1a01bb83   Thumb Code     8  ftsystem.o(.text)
    ft_free                                  0x1a01bb8b   Thumb Code     6  ftsystem.o(.text)
    ft_ansi_stream_close                     0x1a01bb91   Thumb Code    20  ftsystem.o(.text)
    ft_ansi_stream_io                        0x1a01bba5   Thumb Code    50  ftsystem.o(.text)
    .text                                    0x1a01bc70   Section        0  ftinit.o(.text)
    .text                                    0x1a01bccc   Section        0  ftbitmap.o(.text)
    ft_bitmap_assure_buffer                  0x1a01bd59   Thumb Code   312  ftbitmap.o(.text)
    ft_gray_for_premultiplied_srgb_bgra      0x1a01c303   Thumb Code   152  ftbitmap.o(.text)
    FT_MulFix_arm                            0x1a01c39b   Thumb Code    28  ftbitmap.o(.text)
    .text                                    0x1a01c3bc   Section        0  freetype_draw.o(.text)
    .text                                    0x1a01c4e8   Section        0  ft_yaffs_port.o(.text)
    .text                                    0x1a01c538   Section        0  cff.o(.text)
    cff_get_kerning                          0x1a01c539   Thumb Code    26  cff.o(.text)
    cff_free_glyph_data                      0x1a01c553   Thumb Code    50  cff.o(.text)
    cff_builder_close_contour                0x1a01c585   Thumb Code   130  cff.o(.text)
    cf2_arrstack_setNumElements              0x1a01c607   Thumb Code    92  cff.o(.text)
    cf2_arrstack_push                        0x1a01c663   Thumb Code    52  cff.o(.text)
    cf2_hintmap_adjustHints                  0x1a01c697   Thumb Code   418  cff.o(.text)
    cf2_hintmap_map                          0x1a01c839   Thumb Code   116  cff.o(.text)
    cf2_hintmap_insertHint                   0x1a01c8ad   Thumb Code   366  cff.o(.text)
    cf2_hint_init                            0x1a01ca1b   Thumb Code   188  cff.o(.text)
    cf2_blues_capture                        0x1a01cad7   Thumb Code   306  cff.o(.text)
    cf2_hintmap_build                        0x1a01cc09   Thumb Code   562  cff.o(.text)
    cf2_glyphpath_hintPoint                  0x1a01ce3b   Thumb Code   118  cff.o(.text)
    cf2_glyphpath_computeIntersection        0x1a01ceb1   Thumb Code   366  cff.o(.text)
    cf2_glyphpath_pushPrevElem               0x1a01d01f   Thumb Code   410  cff.o(.text)
    cf2_glyphpath_computeOffset              0x1a01d1b9   Thumb Code   262  cff.o(.text)
    cf2_glyphpath_lineTo                     0x1a01d2bf   Thumb Code   238  cff.o(.text)
    cf2_glyphpath_closeOpenPath              0x1a01d3ad   Thumb Code    92  cff.o(.text)
    cf2_glyphpath_moveTo                     0x1a01d409   Thumb Code    98  cff.o(.text)
    cf2_glyphpath_pushMove                   0x1a01d46b   Thumb Code    88  cff.o(.text)
    cf2_glyphpath_curveTo                    0x1a01d4c3   Thumb Code   296  cff.o(.text)
    cf2_stack_getReal                        0x1a01d5eb   Thumb Code    82  cff.o(.text)
    cf2_stack_popFixed                       0x1a01d63d   Thumb Code    76  cff.o(.text)
    cf2_doStems                              0x1a01d689   Thumb Code   144  cff.o(.text)
    cff_index_read_offset                    0x1a01d719   Thumb Code    48  cff.o(.text)
    cff_index_access_element                 0x1a01d749   Thumb Code   216  cff.o(.text)
    cff_get_glyph_data                       0x1a01d821   Thumb Code    52  cff.o(.text)
    cf2_getSeacComponent                     0x1a01d855   Thumb Code    98  cff.o(.text)
    cf2_stack_popInt                         0x1a01d8b7   Thumb Code    50  cff.o(.text)
    cf2_doFlex                               0x1a01d8e9   Thumb Code   292  cff.o(.text)
    cf2_glyphpath_init                       0x1a01da0d   Thumb Code   258  cff.o(.text)
    cf2_interpT2CharString                   0x1a01db0f   Thumb Code  2820  cff.o(.text)
    cf2_blues_init                           0x1a01e613   Thumb Code   824  cff.o(.text)
    cf2_computeDarkening                     0x1a01e94b   Thumb Code   326  cff.o(.text)
    cf2_font_setup                           0x1a01ea91   Thumb Code   418  cff.o(.text)
    cff_builder_add_point                    0x1a01ec33   Thumb Code    50  cff.o(.text)
    cff_check_points                         0x1a01ec65   Thumb Code    32  cff.o(.text)
    cf2_builder_cubeTo                       0x1a01ec85   Thumb Code    68  cff.o(.text)
    cf2_builder_lineTo                       0x1a01ecc9   Thumb Code    36  cff.o(.text)
    cf2_builder_moveTo                       0x1a01eced   Thumb Code    18  cff.o(.text)
    cf2_free_instance                        0x1a01ecff   Thumb Code     2  cff.o(.text)
    cf2_decoder_parse_charstrings            0x1a01ed01   Thumb Code   386  cff.o(.text)
    cff_fd_select_get                        0x1a01ee83   Thumb Code    86  cff.o(.text)
    cff_slot_load                            0x1a01eed9   Thumb Code  1364  cff.o(.text)
    cff_glyph_load                           0x1a01f42d   Thumb Code    44  cff.o(.text)
    cff_get_advances                         0x1a01f459   Thumb Code    68  cff.o(.text)
    cff_index_get_sid_string                 0x1a01f49d   Thumb Code    40  cff.o(.text)
    cff_get_glyph_name                       0x1a01f4c5   Thumb Code    48  cff.o(.text)
    cff_get_name_index                       0x1a01f4f5   Thumb Code    88  cff.o(.text)
    cff_ps_has_glyph_names                   0x1a01f54d   Thumb Code     8  cff.o(.text)
    cff_ps_get_font_info                     0x1a01f555   Thumb Code   126  cff.o(.text)
    cff_get_ps_name                          0x1a01f5d3   Thumb Code    10  cff.o(.text)
    cff_get_cmap_info                        0x1a01f5dd   Thumb Code    64  cff.o(.text)
    cff_get_ros                              0x1a01f61d   Thumb Code   106  cff.o(.text)
    cff_get_is_cid                           0x1a01f687   Thumb Code    32  cff.o(.text)
    cff_get_cid_from_glyph_index             0x1a01f6a7   Thumb Code    52  cff.o(.text)
    cff_property_set                         0x1a01f6db   Thumb Code   298  cff.o(.text)
    cff_property_get                         0x1a01f805   Thumb Code   104  cff.o(.text)
    cff_get_interface                        0x1a01f86d   Thumb Code    52  cff.o(.text)
    cff_parse_integer                        0x1a01f8a1   Thumb Code   110  cff.o(.text)
    cff_parse_real                           0x1a01f90f   Thumb Code   526  cff.o(.text)
    cff_parse_num                            0x1a01fb1d   Thumb Code    32  cff.o(.text)
    do_fixed                                 0x1a01fb3d   Thumb Code    68  cff.o(.text)
    cff_parse_font_matrix                    0x1a01fb81   Thumb Code   172  cff.o(.text)
    cff_parse_font_bbox                      0x1a01fc2d   Thumb Code   100  cff.o(.text)
    cff_parse_private_dict                   0x1a01fc91   Thumb Code    46  cff.o(.text)
    cff_parse_cid_ros                        0x1a01fcbf   Thumb Code    58  cff.o(.text)
    cff_parser_run                           0x1a01fcf9   Thumb Code   376  cff.o(.text)
    cff_index_init                           0x1a01fe71   Thumb Code   168  cff.o(.text)
    cff_index_done                           0x1a01ff19   Thumb Code    50  cff.o(.text)
    cff_index_load_offsets                   0x1a01ff4b   Thumb Code   212  cff.o(.text)
    cff_index_get_pointers                   0x1a02001f   Thumb Code   264  cff.o(.text)
    cff_index_get_name                       0x1a020127   Thumb Code    78  cff.o(.text)
    cff_charset_compute_cids                 0x1a020175   Thumb Code    90  cff.o(.text)
    cff_charset_load                         0x1a0201cf   Thumb Code   428  cff.o(.text)
    cff_encoding_load                        0x1a02037b   Thumb Code   496  cff.o(.text)
    cff_subfont_load                         0x1a02056b   Thumb Code   350  cff.o(.text)
    cff_font_load                            0x1a0206c9   Thumb Code   660  cff.o(.text)
    cff_font_done                            0x1a02095d   Thumb Code   266  cff.o(.text)
    cff_size_get_globals_funcs               0x1a020a67   Thumb Code    40  cff.o(.text)
    cff_size_done                            0x1a020a8f   Thumb Code    50  cff.o(.text)
    cff_make_private_dict                    0x1a020ac1   Thumb Code   252  cff.o(.text)
    cff_size_init                            0x1a020bbd   Thumb Code   130  cff.o(.text)
    cff_size_select                          0x1a020c3f   Thumb Code   130  cff.o(.text)
    cff_size_request                         0x1a020cc1   Thumb Code   172  cff.o(.text)
    cff_slot_done                            0x1a020d6d   Thumb Code    10  cff.o(.text)
    cff_slot_init                            0x1a020d77   Thumb Code    42  cff.o(.text)
    cff_face_init                            0x1a020da1   Thumb Code  1542  cff.o(.text)
    cff_face_done                            0x1a0213a7   Thumb Code    50  cff.o(.text)
    cff_driver_init                          0x1a0213d9   Thumb Code    54  cff.o(.text)
    cff_driver_done                          0x1a02140f   Thumb Code     2  cff.o(.text)
    cff_cmap_encoding_init                   0x1a021411   Thumb Code    16  cff.o(.text)
    cff_cmap_encoding_done                   0x1a021421   Thumb Code     6  cff.o(.text)
    cff_cmap_encoding_char_index             0x1a021427   Thumb Code    16  cff.o(.text)
    cff_cmap_encoding_char_next              0x1a021437   Thumb Code    34  cff.o(.text)
    cff_sid_to_glyph_name                    0x1a021459   Thumb Code    18  cff.o(.text)
    cff_cmap_unicode_init                    0x1a02146b   Thumb Code    46  cff.o(.text)
    cff_cmap_unicode_done                    0x1a021499   Thumb Code    22  cff.o(.text)
    cff_cmap_unicode_char_index              0x1a0214af   Thumb Code    14  cff.o(.text)
    cff_cmap_unicode_char_next               0x1a0214bd   Thumb Code    14  cff.o(.text)
    FT_MulFix_arm                            0x1a0214cb   Thumb Code    28  cff.o(.text)
    cff_index_forget_element                 0x1a0214e7   Thumb Code    14  cff.o(.text)
    cf2_setError                             0x1a0214f5   Thumb Code    14  cff.o(.text)
    cf2_arrstack_finalize                    0x1a021503   Thumb Code    24  cff.o(.text)
    cf2_buf_readByte                         0x1a02151b   Thumb Code    30  cff.o(.text)
    cf2_stack_pushInt                        0x1a021539   Thumb Code    40  cff.o(.text)
    cf2_hint_isTop                           0x1a021561   Thumb Code    12  cff.o(.text)
    cf2_arrstack_getPointer                  0x1a02156d   Thumb Code    30  cff.o(.text)
    cf2_hint_isPair                          0x1a02158b   Thumb Code    12  cff.o(.text)
    cf2_hint_isLocked                        0x1a021597   Thumb Code     8  cff.o(.text)
    cf2_hint_isValid                         0x1a02159f   Thumb Code    10  cff.o(.text)
    cf2_hint_initZero                        0x1a0215a9   Thumb Code     6  cff.o(.text)
    cf2_hintmask_setCounts                   0x1a0215af   Thumb Code    36  cff.o(.text)
    cf2_hintmask_init                        0x1a0215d3   Thumb Code    16  cff.o(.text)
    cf2_getWindingMomentum                   0x1a0215e3   Thumb Code    20  cff.o(.text)
    cf2_stack_count                          0x1a0215f7   Thumb Code    12  cff.o(.text)
    cf2_hintmask_read                        0x1a021603   Thumb Code    40  cff.o(.text)
    cf2_hintmap_init                         0x1a02162b   Thumb Code    44  cff.o(.text)
    cf2_getNominalWidthX                     0x1a021657   Thumb Code    12  cff.o(.text)
    cf2_freeSeacComponent                    0x1a021663   Thumb Code    12  cff.o(.text)
    cf2_arrstack_init                        0x1a02166f   Thumb Code    20  cff.o(.text)
    cf2_getGlyphOutline                      0x1a021683   Thumb Code   166  cff.o(.text)
    cff_builder_add_point1                   0x1a021729   Thumb Code    36  cff.o(.text)
    cff_builder_start_point                  0x1a02174d   Thumb Code    48  cff.o(.text)
    cff_compute_bias                         0x1a02177d   Thumb Code    38  cff.o(.text)
    cff_decoder_prepare                      0x1a0217a3   Thumb Code   130  cff.o(.text)
    cff_builder_init                         0x1a021825   Thumb Code   102  cff.o(.text)
    cff_charset_cid_to_gindex                0x1a02188b   Thumb Code    18  cff.o(.text)
    cff_index_get_string                     0x1a02189d   Thumb Code    22  cff.o(.text)
    cff_parser_init                          0x1a0218b3   Thumb Code    36  cff.o(.text)
    cff_parse_fixed                          0x1a0218d7   Thumb Code     6  cff.o(.text)
    cff_parse_fixed_scaled                   0x1a0218dd   Thumb Code     4  cff.o(.text)
    cff_parse_fixed_dynamic                  0x1a0218e1   Thumb Code   108  cff.o(.text)
    CFF_Load_FD_Select                       0x1a02194d   Thumb Code    98  cff.o(.text)
    cff_subfont_done                         0x1a0219af   Thumb Code    34  cff.o(.text)
    cff_strcpy                               0x1a0219d1   Thumb Code    10  cff.o(.text)
    cff_builder_add_contour                  0x1a0219db   Thumb Code    86  cff.o(.text)
    .text                                    0x1a021a34   Section        0  pcf.o(.text)
    pcf_read_TOC                             0x1a021a35   Thumb Code   258  pcf.o(.text)
    pcf_get_metric                           0x1a021b37   Thumb Code    94  pcf.o(.text)
    pcf_seek_to_table_type                   0x1a021b95   Thumb Code    80  pcf.o(.text)
    pcf_find_property                        0x1a021be5   Thumb Code    70  pcf.o(.text)
    pcf_get_properties                       0x1a021c2b   Thumb Code   462  pcf.o(.text)
    pcf_get_metrics                          0x1a021df9   Thumb Code   248  pcf.o(.text)
    pcf_get_bitmaps                          0x1a021ef1   Thumb Code   278  pcf.o(.text)
    pcf_get_encodings                        0x1a022007   Thumb Code   340  pcf.o(.text)
    pcf_get_accel                            0x1a02215b   Thumb Code   200  pcf.o(.text)
    pcf_interpret_style                      0x1a022223   Thumb Code   338  pcf.o(.text)
    pcf_load_font                            0x1a022375   Thumb Code   744  pcf.o(.text)
    pcf_cmap_init                            0x1a02265d   Thumb Code    18  pcf.o(.text)
    pcf_cmap_done                            0x1a02266f   Thumb Code     8  pcf.o(.text)
    pcf_cmap_char_index                      0x1a022677   Thumb Code    54  pcf.o(.text)
    pcf_cmap_char_next                       0x1a0226ad   Thumb Code    74  pcf.o(.text)
    PCF_Face_Done                            0x1a0226f7   Thumb Code   206  pcf.o(.text)
    PCF_Face_Init                            0x1a0227c5   Thumb Code   164  pcf.o(.text)
    PCF_Size_Select                          0x1a022869   Thumb Code    40  pcf.o(.text)
    PCF_Size_Request                         0x1a022891   Thumb Code    74  pcf.o(.text)
    PCF_Glyph_Load                           0x1a0228db   Thumb Code   462  pcf.o(.text)
    pcf_get_bdf_property                     0x1a022aa9   Thumb Code    34  pcf.o(.text)
    pcf_get_charset_id                       0x1a022acb   Thumb Code    14  pcf.o(.text)
    pcf_driver_requester                     0x1a022ad9   Thumb Code     8  pcf.o(.text)
    .text                                    0x1a022b00   Section        0  pfr.o(.text)
    pfr_extra_items_parse                    0x1a022b01   Thumb Code   106  pfr.o(.text)
    pfr_log_font_load                        0x1a022b6b   Thumb Code   444  pfr.o(.text)
    pfr_extra_item_load_bitmap_info          0x1a022d27   Thumb Code   290  pfr.o(.text)
    pfr_extra_item_load_font_id              0x1a022e49   Thumb Code    48  pfr.o(.text)
    pfr_extra_item_load_stem_snaps           0x1a022e79   Thumb Code   100  pfr.o(.text)
    pfr_extra_item_load_kerning_pairs        0x1a022edd   Thumb Code   214  pfr.o(.text)
    pfr_aux_name_load                        0x1a022fb3   Thumb Code    96  pfr.o(.text)
    pfr_phy_font_load                        0x1a023013   Thumb Code   760  pfr.o(.text)
    pfr_glyph_close_contour                  0x1a02330b   Thumb Code   106  pfr.o(.text)
    pfr_glyph_line_to                        0x1a023375   Thumb Code    88  pfr.o(.text)
    pfr_glyph_load_simple                    0x1a0233cd   Thumb Code   774  pfr.o(.text)
    pfr_glyph_load_compound                  0x1a0236d3   Thumb Code   486  pfr.o(.text)
    pfr_glyph_load_rec                       0x1a0238b9   Thumb Code   300  pfr.o(.text)
    pfr_cmap_init                            0x1a0239e5   Thumb Code    56  pfr.o(.text)
    pfr_cmap_done                            0x1a023a1d   Thumb Code     8  pfr.o(.text)
    pfr_cmap_char_index                      0x1a023a25   Thumb Code    52  pfr.o(.text)
    pfr_cmap_char_next                       0x1a023a59   Thumb Code    84  pfr.o(.text)
    pfr_face_done                            0x1a023aad   Thumb Code    38  pfr.o(.text)
    pfr_face_init                            0x1a023ad3   Thumb Code   638  pfr.o(.text)
    pfr_slot_init                            0x1a023d51   Thumb Code    36  pfr.o(.text)
    pfr_slot_done                            0x1a023d75   Thumb Code    50  pfr.o(.text)
    pfr_load_bitmap_metrics                  0x1a023da7   Thumb Code   402  pfr.o(.text)
    pfr_slot_load_bitmap                     0x1a023f39   Thumb Code   454  pfr.o(.text)
    pfr_slot_load                            0x1a0240ff   Thumb Code   358  pfr.o(.text)
    pfr_face_get_kerning                     0x1a024265   Thumb Code   340  pfr.o(.text)
    pfr_get_kerning                          0x1a0243b9   Thumb Code    50  pfr.o(.text)
    pfr_get_advance                          0x1a0243eb   Thumb Code    46  pfr.o(.text)
    pfr_get_metrics                          0x1a024419   Thumb Code    84  pfr.o(.text)
    pfr_get_service                          0x1a02446d   Thumb Code     6  pfr.o(.text)
    FT_MulFix_arm                            0x1a024473   Thumb Code    28  pfr.o(.text)
    pfr_extra_items_skip                     0x1a02448f   Thumb Code     8  pfr.o(.text)
    pfr_phy_font_done                        0x1a024497   Thumb Code   132  pfr.o(.text)
    pfr_glyph_curve_to                       0x1a02451b   Thumb Code   118  pfr.o(.text)
    pfr_load_bitmap_bits                     0x1a024591   Thumb Code   120  pfr.o(.text)
    pfr_lookup_bitmap_data                   0x1a024609   Thumb Code   150  pfr.o(.text)
    pfr_bitwriter_decode_rle2                0x1a02469f   Thumb Code   124  pfr.o(.text)
    pfr_bitwriter_decode_rle1                0x1a02471b   Thumb Code   144  pfr.o(.text)
    pfr_bitwriter_decode_bytes               0x1a0247ab   Thumb Code   100  pfr.o(.text)
    .text                                    0x1a024814   Section        0  psaux.o(.text)
    ps_table_new                             0x1a024815   Thumb Code   104  psaux.o(.text)
    ps_table_add                             0x1a02487d   Thumb Code   200  psaux.o(.text)
    ps_table_done                            0x1a024945   Thumb Code    60  psaux.o(.text)
    ps_table_release                         0x1a024981   Thumb Code    50  psaux.o(.text)
    skip_spaces                              0x1a0249b3   Thumb Code    60  psaux.o(.text)
    skip_literal_string                      0x1a0249ef   Thumb Code   122  psaux.o(.text)
    skip_string                              0x1a024a69   Thumb Code    86  psaux.o(.text)
    skip_procedure                           0x1a024abf   Thumb Code   110  psaux.o(.text)
    ps_parser_skip_PS_token                  0x1a024b2d   Thumb Code   224  psaux.o(.text)
    ps_parser_skip_spaces                    0x1a024c0d   Thumb Code     4  psaux.o(.text)
    ps_parser_to_token                       0x1a024c11   Thumb Code   228  psaux.o(.text)
    ps_parser_to_token_array                 0x1a024cf5   Thumb Code   130  psaux.o(.text)
    PS_Conv_Strtol                           0x1a024d77   Thumb Code   160  psaux.o(.text)
    PS_Conv_ToInt                            0x1a024e17   Thumb Code    64  psaux.o(.text)
    PS_Conv_ToFixed                          0x1a024e57   Thumb Code   408  psaux.o(.text)
    ps_tofixedarray                          0x1a024fef   Thumb Code   144  psaux.o(.text)
    ps_parser_load_field                     0x1a02507f   Thumb Code   646  psaux.o(.text)
    ps_parser_load_field_table               0x1a025305   Thumb Code   168  psaux.o(.text)
    ps_parser_to_int                         0x1a0253ad   Thumb Code    18  psaux.o(.text)
    ps_parser_to_bytes                       0x1a0253bf   Thumb Code    90  psaux.o(.text)
    ps_parser_to_fixed                       0x1a025419   Thumb Code    22  psaux.o(.text)
    ps_parser_to_coord_array                 0x1a02542f   Thumb Code    28  psaux.o(.text)
    ps_parser_to_fixed_array                 0x1a02544b   Thumb Code    30  psaux.o(.text)
    ps_parser_init                           0x1a025469   Thumb Code    26  psaux.o(.text)
    ps_parser_done                           0x1a025483   Thumb Code     2  psaux.o(.text)
    t1_builder_init                          0x1a025485   Thumb Code   112  psaux.o(.text)
    t1_builder_done                          0x1a0254f5   Thumb Code    20  psaux.o(.text)
    t1_builder_check_points                  0x1a025509   Thumb Code    32  psaux.o(.text)
    t1_builder_add_point                     0x1a025529   Thumb Code    70  psaux.o(.text)
    t1_builder_add_point1                    0x1a02556f   Thumb Code    36  psaux.o(.text)
    t1_builder_add_contour                   0x1a025593   Thumb Code    92  psaux.o(.text)
    t1_builder_start_point                   0x1a0255ef   Thumb Code    48  psaux.o(.text)
    t1_builder_close_contour                 0x1a02561f   Thumb Code   130  psaux.o(.text)
    t1_decrypt                               0x1a0256a1   Thumb Code    60  psaux.o(.text)
    t1_lookup_glyph_by_stdcharcode           0x1a0256dd   Thumb Code    80  psaux.o(.text)
    t1operator_seac                          0x1a02572d   Thumb Code   292  psaux.o(.text)
    t1_decoder_parse_charstrings             0x1a025851   Thumb Code  2260  psaux.o(.text)
    t1_decoder_init                          0x1a026125   Thumb Code   100  psaux.o(.text)
    t1_decoder_done                          0x1a026189   Thumb Code     4  psaux.o(.text)
    t1_cmap_std_done                         0x1a02618d   Thumb Code    12  psaux.o(.text)
    t1_cmap_std_char_index                   0x1a026199   Thumb Code    70  psaux.o(.text)
    t1_cmap_std_char_next                    0x1a0261df   Thumb Code    34  psaux.o(.text)
    t1_cmap_standard_init                    0x1a026201   Thumb Code    12  psaux.o(.text)
    t1_cmap_expert_init                      0x1a02620d   Thumb Code    12  psaux.o(.text)
    t1_cmap_custom_init                      0x1a026219   Thumb Code    26  psaux.o(.text)
    t1_cmap_custom_done                      0x1a026233   Thumb Code    10  psaux.o(.text)
    t1_cmap_custom_char_index                0x1a02623d   Thumb Code    28  psaux.o(.text)
    t1_cmap_custom_char_next                 0x1a026259   Thumb Code    44  psaux.o(.text)
    psaux_get_glyph_name                     0x1a026285   Thumb Code    10  psaux.o(.text)
    t1_cmap_unicode_init                     0x1a02628f   Thumb Code    32  psaux.o(.text)
    t1_cmap_unicode_done                     0x1a0262af   Thumb Code    22  psaux.o(.text)
    t1_cmap_unicode_char_index               0x1a0262c5   Thumb Code    10  psaux.o(.text)
    t1_cmap_unicode_char_next                0x1a0262cf   Thumb Code    10  psaux.o(.text)
    afm_stream_skip_spaces                   0x1a0262d9   Thumb Code    78  psaux.o(.text)
    afm_stream_read_one                      0x1a026327   Thumb Code    88  psaux.o(.text)
    afm_stream_read_string                   0x1a02637f   Thumb Code    72  psaux.o(.text)
    afm_parser_read_vals                     0x1a0263c7   Thumb Code   188  psaux.o(.text)
    afm_parser_next_key                      0x1a026483   Thumb Code    96  psaux.o(.text)
    afm_tokenize                             0x1a0264e3   Thumb Code   106  psaux.o(.text)
    afm_parser_init                          0x1a02654d   Thumb Code    50  psaux.o(.text)
    afm_parser_done                          0x1a02657f   Thumb Code    18  psaux.o(.text)
    afm_compare_kern_pairs                   0x1a026591   Thumb Code    40  psaux.o(.text)
    afm_parse_kern_pairs                     0x1a0265b9   Thumb Code   236  psaux.o(.text)
    afm_parser_parse                         0x1a0266a5   Thumb Code   490  psaux.o(.text)
    FT_MulFix_arm                            0x1a02688f   Thumb Code    28  psaux.o(.text)
    shift_elements                           0x1a0268ab   Thumb Code    30  psaux.o(.text)
    skip_comment                             0x1a0268c9   Thumb Code    24  psaux.o(.text)
    ps_tocoordarray                          0x1a0268e1   Thumb Code   140  psaux.o(.text)
    PS_Conv_ASCIIHexDecode                   0x1a02696d   Thumb Code   112  psaux.o(.text)
    t1_decoder_parse_glyph                   0x1a0269dd   Thumb Code     6  psaux.o(.text)
    t1_cmap_std_init                         0x1a0269e3   Thumb Code    36  psaux.o(.text)
    afm_parser_read_int                      0x1a026a07   Thumb Code    34  psaux.o(.text)
    afm_parse_track_kern                     0x1a026a29   Thumb Code   222  psaux.o(.text)
    .text                                    0x1a026b08   Section        0  pshinter.o(.text)
    ps_mask_ensure                           0x1a026b09   Thumb Code    62  pshinter.o(.text)
    ps_mask_set_bit                          0x1a026b47   Thumb Code    56  pshinter.o(.text)
    ps_mask_table_done                       0x1a026b7f   Thumb Code    58  pshinter.o(.text)
    ps_mask_table_alloc                      0x1a026bb9   Thumb Code    98  pshinter.o(.text)
    ps_dimension_done                        0x1a026c1b   Thumb Code    40  pshinter.o(.text)
    ps_dimension_add_t1stem                  0x1a026c43   Thumb Code   242  pshinter.o(.text)
    ps_hints_stem                            0x1a026d35   Thumb Code    80  pshinter.o(.text)
    ps_hints_t1stem3                         0x1a026d85   Thumb Code   122  pshinter.o(.text)
    ps_hints_t1reset                         0x1a026dff   Thumb Code    58  pshinter.o(.text)
    ps_hints_t2mask                          0x1a026e39   Thumb Code    76  pshinter.o(.text)
    ps_hints_t2counter                       0x1a026e85   Thumb Code    82  pshinter.o(.text)
    ps_hints_close                           0x1a026ed7   Thumb Code    48  pshinter.o(.text)
    t1_hints_open                            0x1a026f07   Thumb Code     6  pshinter.o(.text)
    t1_hints_stem                            0x1a026f0d   Thumb Code    42  pshinter.o(.text)
    psh_hint_table_done                      0x1a026f37   Thumb Code    50  pshinter.o(.text)
    psh_blues_scale_zones                    0x1a026f69   Thumb Code   320  pshinter.o(.text)
    psh_globals_scale_widths                 0x1a0270a9   Thumb Code    82  pshinter.o(.text)
    psh_globals_set_scale                    0x1a0270fb   Thumb Code    88  pshinter.o(.text)
    psh_glyph_interpolate_other_points       0x1a027153   Thumb Code   282  pshinter.o(.text)
    psh_glyph_interpolate_normal_points      0x1a02726d   Thumb Code   370  pshinter.o(.text)
    psh_hint_table_find_strong_points        0x1a0273df   Thumb Code   346  pshinter.o(.text)
    psh_hint_table_activate_mask             0x1a027539   Thumb Code   164  pshinter.o(.text)
    psh_glyph_find_strong_points             0x1a0275dd   Thumb Code   232  pshinter.o(.text)
    psh_hint_align                           0x1a0276c5   Thumb Code   570  pshinter.o(.text)
    psh_glyph_load_points                    0x1a0278ff   Thumb Code    48  pshinter.o(.text)
    psh_hint_table_record                    0x1a02792f   Thumb Code    94  pshinter.o(.text)
    psh_hint_table_init                      0x1a02798d   Thumb Code   256  pshinter.o(.text)
    psh_compute_dir                          0x1a027a8d   Thumb Code    74  pshinter.o(.text)
    psh_glyph_init                           0x1a027ad7   Thumb Code   454  pshinter.o(.text)
    t2_hints_open                            0x1a027e5d   Thumb Code     6  pshinter.o(.text)
    t2_hints_stems                           0x1a027e63   Thumb Code   110  pshinter.o(.text)
    psh_blues_set_zones_0                    0x1a027ed1   Thumb Code   188  pshinter.o(.text)
    psh_blues_set_zones                      0x1a027f8d   Thumb Code   270  pshinter.o(.text)
    psh_globals_destroy                      0x1a02809b   Thumb Code    40  pshinter.o(.text)
    psh_globals_new                          0x1a0280c3   Thumb Code   288  pshinter.o(.text)
    ps_hinter_done                           0x1a0281e3   Thumb Code    40  pshinter.o(.text)
    ps_hinter_init                           0x1a02820b   Thumb Code   114  pshinter.o(.text)
    pshinter_get_globals_funcs               0x1a02827d   Thumb Code     4  pshinter.o(.text)
    pshinter_get_t1_funcs                    0x1a028281   Thumb Code     4  pshinter.o(.text)
    pshinter_get_t2_funcs                    0x1a028285   Thumb Code     4  pshinter.o(.text)
    FT_MulFix_arm                            0x1a028289   Thumb Code    28  pshinter.o(.text)
    ps_mask_table_last                       0x1a0282a5   Thumb Code    42  pshinter.o(.text)
    ps_dimension_reset_mask                  0x1a0282cf   Thumb Code    24  pshinter.o(.text)
    ps_dimension_set_mask_bits               0x1a0282e7   Thumb Code    46  pshinter.o(.text)
    ps_dimension_add_counter                 0x1a028315   Thumb Code   122  pshinter.o(.text)
    ps_dimension_end                         0x1a02838f   Thumb Code    24  pshinter.o(.text)
    ps_hints_open                            0x1a0283a7   Thumb Code    46  pshinter.o(.text)
    psh_glyph_interpolate_strong_points      0x1a0283d5   Thumb Code   126  pshinter.o(.text)
    psh_glyph_find_blue_points               0x1a028453   Thumb Code   192  pshinter.o(.text)
    psh_blues_snap_stem                      0x1a028513   Thumb Code   156  pshinter.o(.text)
    psh_glyph_compute_extrema                0x1a0285af   Thumb Code   250  pshinter.o(.text)
    psh_glyph_compute_inflections            0x1a0286a9   Thumb Code   236  pshinter.o(.text)
    psh_calc_max_height                      0x1a028795   Thumb Code    36  pshinter.o(.text)
    ps_mask_test_bit                         0x1a0287b9   Thumb Code    30  pshinter.o(.text)
    ps_mask_table_set_bits                   0x1a0287d7   Thumb Code    96  pshinter.o(.text)
    ps_mask_table_merge_all                  0x1a028837   Thumb Code   120  pshinter.o(.text)
    ps_dimension_init                        0x1a0288af   Thumb Code    10  pshinter.o(.text)
    ps_dimension_end_mask                    0x1a0288b9   Thumb Code    22  pshinter.o(.text)
    ps_mask_table_merge                      0x1a0288cf   Thumb Code   204  pshinter.o(.text)
    .text                                    0x1a02899c   Section        0  psmodule.o(.text)
    ps_get_macintosh_name                    0x1a02899d   Thumb Code    22  psmodule.o(.text)
    ps_get_standard_strings                  0x1a0289b3   Thumb Code    22  psmodule.o(.text)
    psnames_get_service                      0x1a0289c9   Thumb Code     6  psmodule.o(.text)
    .text                                    0x1a0289e0   Section        0  raster.o(.text)
    New_Profile                              0x1a0289e1   Thumb Code   132  raster.o(.text)
    End_Profile                              0x1a028a65   Thumb Code   108  raster.o(.text)
    Insert_Y_Turn                            0x1a028ad1   Thumb Code    84  raster.o(.text)
    Split_Conic                              0x1a028b25   Thumb Code    78  raster.o(.text)
    Split_Cubic                              0x1a028b73   Thumb Code   116  raster.o(.text)
    Line_Up                                  0x1a028be7   Thumb Code   304  raster.o(.text)
    Bezier_Up                                0x1a028d17   Thumb Code   272  raster.o(.text)
    Bezier_Down                              0x1a028e27   Thumb Code    80  raster.o(.text)
    Line_To                                  0x1a028e77   Thumb Code   298  raster.o(.text)
    Conic_To                                 0x1a028fa1   Thumb Code   230  raster.o(.text)
    Cubic_To                                 0x1a029087   Thumb Code   258  raster.o(.text)
    Decompose_Curve                          0x1a029189   Thumb Code   558  raster.o(.text)
    Convert_Glyph                            0x1a0293b7   Thumb Code   236  raster.o(.text)
    Sort                                     0x1a0294a3   Thumb Code    92  raster.o(.text)
    Vertical_Sweep_Init                      0x1a0294ff   Thumb Code    46  raster.o(.text)
    Vertical_Sweep_Span                      0x1a02952d   Thumb Code   164  raster.o(.text)
    Vertical_Sweep_Drop                      0x1a0295d1   Thumb Code   292  raster.o(.text)
    Vertical_Sweep_Step                      0x1a0296f5   Thumb Code    14  raster.o(.text)
    Horizontal_Sweep_Init                    0x1a029703   Thumb Code     2  raster.o(.text)
    Horizontal_Sweep_Span                    0x1a029705   Thumb Code    74  raster.o(.text)
    Horizontal_Sweep_Drop                    0x1a02974f   Thumb Code   288  raster.o(.text)
    Horizontal_Sweep_Step                    0x1a02986f   Thumb Code     2  raster.o(.text)
    Draw_Sweep                               0x1a029871   Thumb Code   544  raster.o(.text)
    Render_Single_Pass                       0x1a029a91   Thumb Code   186  raster.o(.text)
    Render_Glyph                             0x1a029b4b   Thumb Code   254  raster.o(.text)
    ft_black_new                             0x1a029c49   Thumb Code    32  raster.o(.text)
    ft_black_done                            0x1a029c69   Thumb Code    10  raster.o(.text)
    ft_black_reset                           0x1a029c73   Thumb Code    38  raster.o(.text)
    ft_black_set_mode                        0x1a029c99   Thumb Code     2  raster.o(.text)
    ft_black_render                          0x1a029c9b   Thumb Code   156  raster.o(.text)
    ft_raster1_init                          0x1a029d37   Thumb Code    24  raster.o(.text)
    ft_raster1_set_mode                      0x1a029d4f   Thumb Code    18  raster.o(.text)
    ft_raster1_transform                     0x1a029d61   Thumb Code    48  raster.o(.text)
    ft_raster1_get_cbox                      0x1a029d91   Thumb Code    32  raster.o(.text)
    ft_raster1_render                        0x1a029db1   Thumb Code   348  raster.o(.text)
    Finalize_Profile_Table                   0x1a029f0d   Thumb Code   126  raster.o(.text)
    InsNew                                   0x1a029f8b   Thumb Code    70  raster.o(.text)
    DelOld                                   0x1a029fd1   Thumb Code    20  raster.o(.text)
    .text                                    0x1a029fe4   Section        0  sfnt.o(.text)
    tt_face_goto_table                       0x1a029fe5   Thumb Code    34  sfnt.o(.text)
    check_table_dir                          0x1a02a007   Thumb Code   222  sfnt.o(.text)
    tt_face_load_font_dir                    0x1a02a0e5   Thumb Code   218  sfnt.o(.text)
    tt_face_load_any                         0x1a02a1bf   Thumb Code    66  sfnt.o(.text)
    tt_face_load_head                        0x1a02a201   Thumb Code     6  sfnt.o(.text)
    tt_face_load_bhed                        0x1a02a207   Thumb Code     6  sfnt.o(.text)
    tt_face_load_maxp                        0x1a02a20d   Thumb Code   126  sfnt.o(.text)
    tt_face_load_name                        0x1a02a28b   Thumb Code   226  sfnt.o(.text)
    tt_face_free_name                        0x1a02a36d   Thumb Code    62  sfnt.o(.text)
    tt_face_load_cmap                        0x1a02a3ab   Thumb Code    50  sfnt.o(.text)
    tt_face_load_os2                         0x1a02a3dd   Thumb Code   190  sfnt.o(.text)
    tt_face_load_post                        0x1a02a49b   Thumb Code    42  sfnt.o(.text)
    tt_face_load_pclt                        0x1a02a4c5   Thumb Code    42  sfnt.o(.text)
    tt_face_load_gasp                        0x1a02a4ef   Thumb Code   170  sfnt.o(.text)
    tt_face_load_hmtx                        0x1a02a599   Thumb Code    58  sfnt.o(.text)
    tt_face_load_hhea                        0x1a02a5d3   Thumb Code    72  sfnt.o(.text)
    tt_face_get_metrics                      0x1a02a61b   Thumb Code   210  sfnt.o(.text)
    tt_cmap_init                             0x1a02a6ed   Thumb Code     6  sfnt.o(.text)
    tt_cmap0_validate                        0x1a02a6f3   Thumb Code    88  sfnt.o(.text)
    tt_cmap0_char_index                      0x1a02a74b   Thumb Code    16  sfnt.o(.text)
    tt_cmap0_char_next                       0x1a02a75b   Thumb Code    32  sfnt.o(.text)
    tt_cmap0_get_info                        0x1a02a77b   Thumb Code    16  sfnt.o(.text)
    tt_cmap2_validate                        0x1a02a78b   Thumb Code   330  sfnt.o(.text)
    tt_cmap2_get_subheader                   0x1a02a8d5   Thumb Code    64  sfnt.o(.text)
    tt_cmap2_char_index                      0x1a02a915   Thumb Code    68  sfnt.o(.text)
    tt_cmap2_char_next                       0x1a02a959   Thumb Code   144  sfnt.o(.text)
    tt_cmap2_get_info                        0x1a02a9e9   Thumb Code    16  sfnt.o(.text)
    tt_cmap4_init                            0x1a02a9f9   Thumb Code    24  sfnt.o(.text)
    tt_cmap4_set_range                       0x1a02aa11   Thumb Code   136  sfnt.o(.text)
    tt_cmap4_next                            0x1a02aa99   Thumb Code   126  sfnt.o(.text)
    tt_cmap4_validate                        0x1a02ab17   Thumb Code   586  sfnt.o(.text)
    tt_cmap4_char_map_linear                 0x1a02ad61   Thumb Code   234  sfnt.o(.text)
    tt_cmap4_char_map_binary                 0x1a02ae4b   Thumb Code   566  sfnt.o(.text)
    tt_cmap4_char_index                      0x1a02b081   Thumb Code    38  sfnt.o(.text)
    tt_cmap4_char_next                       0x1a02b0a7   Thumb Code    68  sfnt.o(.text)
    tt_cmap4_get_info                        0x1a02b0eb   Thumb Code    16  sfnt.o(.text)
    tt_cmap6_validate                        0x1a02b0fb   Thumb Code   104  sfnt.o(.text)
    tt_cmap6_char_index                      0x1a02b163   Thumb Code    32  sfnt.o(.text)
    tt_cmap6_char_next                       0x1a02b183   Thumb Code    66  sfnt.o(.text)
    tt_cmap6_get_info                        0x1a02b1c5   Thumb Code    16  sfnt.o(.text)
    tt_cmap8_validate                        0x1a02b1d5   Thumb Code   380  sfnt.o(.text)
    tt_cmap8_char_index                      0x1a02b351   Thumb Code    98  sfnt.o(.text)
    tt_cmap8_char_next                       0x1a02b3b3   Thumb Code   126  sfnt.o(.text)
    tt_cmap8_get_info                        0x1a02b431   Thumb Code    24  sfnt.o(.text)
    tt_cmap10_validate                       0x1a02b449   Thumb Code   120  sfnt.o(.text)
    tt_cmap10_char_index                     0x1a02b4c1   Thumb Code    48  sfnt.o(.text)
    tt_cmap10_char_next                      0x1a02b4f1   Thumb Code    70  sfnt.o(.text)
    tt_cmap10_get_info                       0x1a02b537   Thumb Code    24  sfnt.o(.text)
    tt_cmap12_init                           0x1a02b54f   Thumb Code    24  sfnt.o(.text)
    tt_cmap12_validate                       0x1a02b567   Thumb Code   216  sfnt.o(.text)
    tt_cmap12_next                           0x1a02b63f   Thumb Code   106  sfnt.o(.text)
    tt_cmap12_char_map_binary                0x1a02b6a9   Thumb Code   214  sfnt.o(.text)
    tt_cmap12_char_index                     0x1a02b77f   Thumb Code    12  sfnt.o(.text)
    tt_cmap12_char_next                      0x1a02b78b   Thumb Code    58  sfnt.o(.text)
    tt_cmap12_get_info                       0x1a02b7c5   Thumb Code    24  sfnt.o(.text)
    tt_cmap13_init                           0x1a02b7dd   Thumb Code    24  sfnt.o(.text)
    tt_cmap13_validate                       0x1a02b7f5   Thumb Code   206  sfnt.o(.text)
    tt_cmap13_next                           0x1a02b8c3   Thumb Code    98  sfnt.o(.text)
    tt_cmap13_char_map_binary                0x1a02b925   Thumb Code   206  sfnt.o(.text)
    tt_cmap13_char_index                     0x1a02b9f3   Thumb Code    12  sfnt.o(.text)
    tt_cmap13_char_next                      0x1a02b9ff   Thumb Code    58  sfnt.o(.text)
    tt_cmap13_get_info                       0x1a02ba39   Thumb Code    24  sfnt.o(.text)
    tt_cmap14_done                           0x1a02ba51   Thumb Code    28  sfnt.o(.text)
    tt_cmap14_ensure                         0x1a02ba6d   Thumb Code    52  sfnt.o(.text)
    tt_cmap14_init                           0x1a02baa1   Thumb Code    28  sfnt.o(.text)
    tt_cmap14_validate                       0x1a02babd   Thumb Code   488  sfnt.o(.text)
    tt_cmap14_char_index                     0x1a02bca5   Thumb Code     4  sfnt.o(.text)
    tt_cmap14_char_next                      0x1a02bca9   Thumb Code     6  sfnt.o(.text)
    tt_cmap14_get_info                       0x1a02bcaf   Thumb Code    14  sfnt.o(.text)
    tt_cmap14_char_map_def_binary            0x1a02bcbd   Thumb Code    74  sfnt.o(.text)
    tt_cmap14_char_map_nondef_binary         0x1a02bd07   Thumb Code    80  sfnt.o(.text)
    tt_cmap14_find_variant                   0x1a02bd57   Thumb Code    80  sfnt.o(.text)
    tt_cmap14_char_var_index                 0x1a02bda7   Thumb Code    98  sfnt.o(.text)
    tt_cmap14_char_var_isdefault             0x1a02be09   Thumb Code    90  sfnt.o(.text)
    tt_cmap14_variants                       0x1a02be63   Thumb Code    68  sfnt.o(.text)
    tt_cmap14_char_variants                  0x1a02bea7   Thumb Code   140  sfnt.o(.text)
    tt_cmap14_get_def_chars                  0x1a02bf33   Thumb Code    98  sfnt.o(.text)
    tt_cmap14_get_nondef_chars               0x1a02bf95   Thumb Code    76  sfnt.o(.text)
    tt_cmap14_variant_chars                  0x1a02bfe1   Thumb Code   450  sfnt.o(.text)
    tt_face_build_cmaps                      0x1a02c1a3   Thumb Code   310  sfnt.o(.text)
    tt_get_cmap_info                         0x1a02c2d9   Thumb Code     6  sfnt.o(.text)
    tt_face_load_kern                        0x1a02c2df   Thumb Code   262  sfnt.o(.text)
    tt_face_get_kerning                      0x1a02c3e5   Thumb Code   252  sfnt.o(.text)
    tt_name_entry_ascii_from_utf16           0x1a02c4e1   Thumb Code    72  sfnt.o(.text)
    tt_name_entry_ascii_from_other           0x1a02c529   Thumb Code    68  sfnt.o(.text)
    tt_face_get_name                         0x1a02c56d   Thumb Code   350  sfnt.o(.text)
    sfnt_stream_close                        0x1a02c6cb   Thumb Code    22  sfnt.o(.text)
    compare_offsets                          0x1a02c6e1   Thumb Code    32  sfnt.o(.text)
    woff_open_font                           0x1a02c701   Thumb Code   926  sfnt.o(.text)
    sfnt_open_font                           0x1a02ca9f   Thumb Code   326  sfnt.o(.text)
    sfnt_init_face                           0x1a02cbe5   Thumb Code   130  sfnt.o(.text)
    sfnt_load_face                           0x1a02cc67   Thumb Code  1336  sfnt.o(.text)
    sfnt_done_face                           0x1a02d19f   Thumb Code   288  sfnt.o(.text)
    get_sfnt_table                           0x1a02d2bf   Thumb Code    82  sfnt.o(.text)
    sfnt_table_info                          0x1a02d311   Thumb Code    72  sfnt.o(.text)
    load_format_20                           0x1a02d359   Thumb Code   442  sfnt.o(.text)
    load_post_names                          0x1a02d513   Thumb Code    94  sfnt.o(.text)
    tt_face_get_ps_name                      0x1a02d571   Thumb Code   194  sfnt.o(.text)
    sfnt_get_glyph_name                      0x1a02d633   Thumb Code    30  sfnt.o(.text)
    sfnt_get_name_index                      0x1a02d651   Thumb Code    62  sfnt.o(.text)
    sfnt_get_ps_name                         0x1a02d68f   Thumb Code   382  sfnt.o(.text)
    tt_face_find_bdf_prop                    0x1a02d80d   Thumb Code   268  sfnt.o(.text)
    sfnt_get_charset_id                      0x1a02d919   Thumb Code    66  sfnt.o(.text)
    sfnt_get_interface                       0x1a02d95b   Thumb Code     6  sfnt.o(.text)
    tt_face_load_sbit                        0x1a02d961   Thumb Code   376  sfnt.o(.text)
    tt_face_free_sbit                        0x1a02dad9   Thumb Code    30  sfnt.o(.text)
    tt_face_set_sbit_strike                  0x1a02daf7   Thumb Code     8  sfnt.o(.text)
    tt_face_load_strike_metrics              0x1a02daff   Thumb Code   296  sfnt.o(.text)
    tt_sbit_decoder_init                     0x1a02dc27   Thumb Code   194  sfnt.o(.text)
    tt_sbit_decoder_load_metrics             0x1a02dce9   Thumb Code   156  sfnt.o(.text)
    tt_sbit_decoder_load_byte_aligned        0x1a02dd85   Thumb Code   254  sfnt.o(.text)
    tt_sbit_decoder_load_bit_aligned         0x1a02de83   Thumb Code   344  sfnt.o(.text)
    tt_sbit_decoder_load_bitmap              0x1a02dfdb   Thumb Code   254  sfnt.o(.text)
    tt_sbit_decoder_load_image               0x1a02e0d9   Thumb Code   558  sfnt.o(.text)
    tt_sbit_decoder_load_compound            0x1a02e307   Thumb Code   164  sfnt.o(.text)
    tt_face_load_sbix_image                  0x1a02e3ab   Thumb Code   376  sfnt.o(.text)
    tt_face_load_sbit_image                  0x1a02e523   Thumb Code   180  sfnt.o(.text)
    tt_face_free_ps_names                    0x1a02e5d7   Thumb Code   114  sfnt.o(.text)
    tt_face_lookup_table                     0x1a02e649   Thumb Code    38  sfnt.o(.text)
    tt_face_load_generic_header              0x1a02e66f   Thumb Code    44  sfnt.o(.text)
    tt_cmap14_def_char_count                 0x1a02e69b   Thumb Code    38  sfnt.o(.text)
    load_format_25                           0x1a02e6c1   Thumb Code   132  sfnt.o(.text)
    tt_face_load_bdf_props                   0x1a02e745   Thumb Code   184  sfnt.o(.text)
    tt_sbit_decoder_alloc_bitmap             0x1a02e7fd   Thumb Code   172  sfnt.o(.text)
    .text                                    0x1a02e8a8   Section        0  truetype.o(.text)
    tt_property_set                          0x1a02e8a9   Thumb Code    40  truetype.o(.text)
    tt_property_get                          0x1a02e8d1   Thumb Code    30  truetype.o(.text)
    tt_get_kerning                           0x1a02e8ef   Thumb Code    26  truetype.o(.text)
    TT_Get_VMetrics                          0x1a02e909   Thumb Code    76  truetype.o(.text)
    tt_get_advances                          0x1a02e955   Thumb Code    90  truetype.o(.text)
    tt_size_reset                            0x1a02e9af   Thumb Code   224  truetype.o(.text)
    tt_size_select                           0x1a02ea8f   Thumb Code    60  truetype.o(.text)
    tt_size_request                          0x1a02eacb   Thumb Code    90  truetype.o(.text)
    compute_glyph_metrics                    0x1a02eb25   Thumb Code   408  truetype.o(.text)
    TT_Hint_Glyph                            0x1a02ecbd   Thumb Code   402  truetype.o(.text)
    tt_prepare_zone                          0x1a02ee4f   Thumb Code    56  truetype.o(.text)
    Update_Max                               0x1a02ee87   Thumb Code    50  truetype.o(.text)
    TT_Process_Composite_Glyph               0x1a02eeb9   Thumb Code   402  truetype.o(.text)
    TT_Process_Composite_Component           0x1a02f04b   Thumb Code   290  truetype.o(.text)
    ft_var_readpackeddeltas                  0x1a02f16d   Thumb Code   180  truetype.o(.text)
    ft_var_readpackedpoints                  0x1a02f221   Thumb Code   220  truetype.o(.text)
    ft_var_apply_tuple                       0x1a02f2fd   Thumb Code   124  truetype.o(.text)
    TT_Vary_Get_Glyph_Deltas                 0x1a02f379   Thumb Code   794  truetype.o(.text)
    TT_Process_Simple_Glyph                  0x1a02f693   Thumb Code   420  truetype.o(.text)
    tt_get_metrics_incr_overrides            0x1a02f837   Thumb Code   104  truetype.o(.text)
    tt_get_metrics                           0x1a02f89f   Thumb Code   130  truetype.o(.text)
    tt_face_get_location                     0x1a02f921   Thumb Code   140  truetype.o(.text)
    load_truetype_glyph                      0x1a02f9ad   Thumb Code  1212  truetype.o(.text)
    TT_Save_Context                          0x1a02fe69   Thumb Code    60  truetype.o(.text)
    TT_Load_Context                          0x1a02fea5   Thumb Code   348  truetype.o(.text)
    tt_size_run_prep                         0x1a030001   Thumb Code   208  truetype.o(.text)
    tt_glyphzone_done                        0x1a0300d1   Thumb Code    74  truetype.o(.text)
    tt_size_done_bytecode                    0x1a03011b   Thumb Code   118  truetype.o(.text)
    Ins_Goto_CodeRange                       0x1a030191   Thumb Code    62  truetype.o(.text)
    Ins_UNKNOWN                              0x1a0301cf   Thumb Code   110  truetype.o(.text)
    Ins_MDRP                                 0x1a03023d   Thumb Code   362  truetype.o(.text)
    TT_MulFix14                              0x1a0303a7   Thumb Code    60  truetype.o(.text)
    Ins_MIRP                                 0x1a0303e3   Thumb Code   456  truetype.o(.text)
    SkipCode                                 0x1a0305ab   Thumb Code    86  truetype.o(.text)
    Direct_Move_Orig_Y                       0x1a030601   Thumb Code    16  truetype.o(.text)
    Direct_Move_Y                            0x1a030611   Thumb Code    28  truetype.o(.text)
    Direct_Move_Orig_X                       0x1a03062d   Thumb Code    14  truetype.o(.text)
    Direct_Move_X                            0x1a03063b   Thumb Code    26  truetype.o(.text)
    Direct_Move_Orig                         0x1a030655   Thumb Code    76  truetype.o(.text)
    Direct_Move                              0x1a0306a1   Thumb Code    96  truetype.o(.text)
    TT_DotFix14                              0x1a030701   Thumb Code   118  truetype.o(.text)
    Dual_Project                             0x1a030777   Thumb Code    22  truetype.o(.text)
    Project_y                                0x1a03078d   Thumb Code     4  truetype.o(.text)
    Project_x                                0x1a030791   Thumb Code     4  truetype.o(.text)
    Project                                  0x1a030795   Thumb Code    22  truetype.o(.text)
    Compute_Funcs                            0x1a0307ab   Thumb Code   204  truetype.o(.text)
    Normalize                                0x1a030877   Thumb Code    84  truetype.o(.text)
    Round_Down_To_Grid                       0x1a0308cb   Thumb Code    38  truetype.o(.text)
    Round_Up_To_Grid                         0x1a0308f1   Thumb Code    44  truetype.o(.text)
    Round_Super_45                           0x1a03091d   Thumb Code    64  truetype.o(.text)
    SetSuperRound                            0x1a03095d   Thumb Code   228  truetype.o(.text)
    Round_Super                              0x1a030a41   Thumb Code    62  truetype.o(.text)
    Current_Ratio                            0x1a030a7f   Thumb Code    76  truetype.o(.text)
    Ins_DELTAP                               0x1a030acb   Thumb Code   168  truetype.o(.text)
    Ins_MD                                   0x1a030b73   Thumb Code   218  truetype.o(.text)
    Round_To_Double_Grid                     0x1a030c4d   Thumb Code    44  truetype.o(.text)
    Ins_IP                                   0x1a030c79   Thumb Code   490  truetype.o(.text)
    Move_Zp2_Point                           0x1a030e63   Thumb Code    76  truetype.o(.text)
    Compute_Point_Displacement               0x1a030eaf   Thumb Code   176  truetype.o(.text)
    _iup_worker_interpolate                  0x1a030f5f   Thumb Code   218  truetype.o(.text)
    Ins_IUP                                  0x1a031039   Thumb Code   308  truetype.o(.text)
    Round_To_Half_Grid                       0x1a03116d   Thumb Code    42  truetype.o(.text)
    Round_To_Grid                            0x1a031197   Thumb Code    44  truetype.o(.text)
    Ins_ISECT                                0x1a0311c3   Thumb Code   418  truetype.o(.text)
    Ins_SxVTL                                0x1a031365   Thumb Code    90  truetype.o(.text)
    Move_CVT                                 0x1a0313bf   Thumb Code    16  truetype.o(.text)
    Write_CVT                                0x1a0313cf   Thumb Code    10  truetype.o(.text)
    Read_CVT                                 0x1a0313d9   Thumb Code    10  truetype.o(.text)
    Move_CVT_Stretched                       0x1a0313e3   Thumb Code    38  truetype.o(.text)
    Write_CVT_Stretched                      0x1a031409   Thumb Code    30  truetype.o(.text)
    Read_CVT_Stretched                       0x1a031427   Thumb Code    28  truetype.o(.text)
    tt_size_init_bytecode                    0x1a032251   Thumb Code   308  truetype.o(.text)
    tt_loader_init                           0x1a032385   Thumb Code   302  truetype.o(.text)
    TT_Load_Glyph                            0x1a0324b3   Thumb Code   336  truetype.o(.text)
    tt_glyph_load                            0x1a032603   Thumb Code    92  truetype.o(.text)
    tt_get_interface                         0x1a03265f   Thumb Code    56  truetype.o(.text)
    tt_face_vary_cvt                         0x1a032697   Thumb Code   638  truetype.o(.text)
    tt_face_load_cvt                         0x1a032915   Thumb Code   140  truetype.o(.text)
    TT_Access_Glyph_Frame                    0x1a0329a1   Thumb Code    46  truetype.o(.text)
    TT_Forget_Glyph_Frame                    0x1a0329cf   Thumb Code     6  truetype.o(.text)
    TT_Load_Glyph_Header                     0x1a0329d5   Thumb Code    72  truetype.o(.text)
    TT_Load_Simple_Glyph                     0x1a032a1d   Thumb Code   624  truetype.o(.text)
    TT_Load_Composite_Glyph                  0x1a032c8d   Thumb Code   300  truetype.o(.text)
    tt_check_trickyness_sfnt_ids             0x1a032db9   Thumb Code   292  truetype.o(.text)
    tt_face_init                             0x1a032edd   Thumb Code   416  truetype.o(.text)
    tt_face_done                             0x1a03307d   Thumb Code   144  truetype.o(.text)
    tt_size_init                             0x1a03310d   Thumb Code    22  truetype.o(.text)
    tt_size_done                             0x1a033123   Thumb Code    22  truetype.o(.text)
    TT_Done_Context                          0x1a033139   Thumb Code    84  truetype.o(.text)
    tt_driver_init                           0x1a033231   Thumb Code    22  truetype.o(.text)
    tt_driver_done                           0x1a033247   Thumb Code    20  truetype.o(.text)
    tt_slot_init                             0x1a03325b   Thumb Code    10  truetype.o(.text)
    ft_var_load_avar                         0x1a033265   Thumb Code   268  truetype.o(.text)
    ft_var_load_gvar                         0x1a033371   Thumb Code   366  truetype.o(.text)
    TT_Get_MM_Var                            0x1a0334df   Thumb Code   752  truetype.o(.text)
    TT_Set_MM_Blend                          0x1a0337cf   Thumb Code   242  truetype.o(.text)
    TT_Set_Var_Design                        0x1a0338c1   Thumb Code   322  truetype.o(.text)
    FT_MulFix_arm                            0x1a033a03   Thumb Code    28  truetype.o(.text)
    TT_Get_HMetrics                          0x1a033a1f   Thumb Code    22  truetype.o(.text)
    TT_Goto_CodeRange                        0x1a033a35   Thumb Code    30  truetype.o(.text)
    TT_Run_Context                           0x1a033a53   Thumb Code   184  truetype.o(.text)
    TT_Set_CodeRange                         0x1a033b0b   Thumb Code    12  truetype.o(.text)
    TT_Clear_CodeRange                       0x1a033b17   Thumb Code    18  truetype.o(.text)
    tt_size_run_fpgm                         0x1a033b29   Thumb Code   182  truetype.o(.text)
    GetShortIns                              0x1a033bdf   Thumb Code    32  truetype.o(.text)
    Round_None                               0x1a033bff   Thumb Code    26  truetype.o(.text)
    Ins_IDEF                                 0x1a033c19   Thumb Code   140  truetype.o(.text)
    Ins_SDPVTL                               0x1a033ca5   Thumb Code   170  truetype.o(.text)
    Ins_SCANCTRL                             0x1a033d4f   Thumb Code   124  truetype.o(.text)
    Current_Ppem                             0x1a033dcb   Thumb Code    20  truetype.o(.text)
    Ins_DELTAC                               0x1a033ddf   Thumb Code   166  truetype.o(.text)
    Ins_MIAP                                 0x1a033e85   Thumb Code   204  truetype.o(.text)
    Ins_ALIGNRP                              0x1a033f51   Thumb Code   162  truetype.o(.text)
    Ins_MSIRP                                0x1a033ff3   Thumb Code   194  truetype.o(.text)
    Ins_SHPIX                                0x1a0340b5   Thumb Code   134  truetype.o(.text)
    Ins_SHZ                                  0x1a03413b   Thumb Code   142  truetype.o(.text)
    Ins_SHC                                  0x1a0341c9   Thumb Code   166  truetype.o(.text)
    Ins_SHP                                  0x1a03426f   Thumb Code   126  truetype.o(.text)
    Ins_FDEF                                 0x1a0342ed   Thumb Code   150  truetype.o(.text)
    Ins_CALL                                 0x1a034383   Thumb Code   146  truetype.o(.text)
    Ins_LOOPCALL                             0x1a034415   Thumb Code   154  truetype.o(.text)
    Ins_ALIGNPTS                             0x1a0344af   Thumb Code   124  truetype.o(.text)
    tt_glyphzone_new                         0x1a03452b   Thumb Code   158  truetype.o(.text)
    tt_size_ready_bytecode                   0x1a0345c9   Thumb Code   178  truetype.o(.text)
    load_sbit_image                          0x1a03467b   Thumb Code   152  truetype.o(.text)
    tt_face_load_loca                        0x1a034713   Thumb Code   200  truetype.o(.text)
    tt_face_load_hdmx                        0x1a0347db   Thumb Code   208  truetype.o(.text)
    tt_get_sfnt_checksum                     0x1a0348ab   Thumb Code   112  truetype.o(.text)
    tt_check_single_notdef                   0x1a03491b   Thumb Code    98  truetype.o(.text)
    tt_done_blend                            0x1a03497d   Thumb Code   112  truetype.o(.text)
    .text                                    0x1a034a08   Section        0  type1.o(.text)
    read_pfb_tag                             0x1a034a09   Thumb Code    64  type1.o(.text)
    check_type1_format                       0x1a034a49   Thumb Code    96  type1.o(.text)
    T1_New_Parser                            0x1a034aa9   Thumb Code   252  type1.o(.text)
    T1_Get_Private_Dict                      0x1a034ba5   Thumb Code   656  type1.o(.text)
    t1_allocate_blend                        0x1a034e35   Thumb Code   374  type1.o(.text)
    T1_Get_Multi_Master                      0x1a034fab   Thumb Code    78  type1.o(.text)
    mm_weights_unmap                         0x1a034ff9   Thumb Code   212  type1.o(.text)
    T1_Get_MM_Var                            0x1a0350cd   Thumb Code   318  type1.o(.text)
    T1_Set_MM_Blend                          0x1a03520b   Thumb Code   104  type1.o(.text)
    T1_Set_MM_Design                         0x1a035273   Thumb Code   168  type1.o(.text)
    T1_Set_Var_Design                        0x1a03531b   Thumb Code    60  type1.o(.text)
    T1_Done_Blend                            0x1a035357   Thumb Code   206  type1.o(.text)
    parse_blend_axis_types                   0x1a035425   Thumb Code   168  type1.o(.text)
    parse_blend_design_positions             0x1a0354cd   Thumb Code   250  type1.o(.text)
    parse_blend_design_map                   0x1a0355c7   Thumb Code   254  type1.o(.text)
    parse_weight_vector                      0x1a0356c5   Thumb Code   154  type1.o(.text)
    parse_buildchar                          0x1a03575f   Thumb Code    24  type1.o(.text)
    t1_load_keyword                          0x1a035777   Thumb Code   170  type1.o(.text)
    parse_private                            0x1a035821   Thumb Code    14  type1.o(.text)
    read_binary_data                         0x1a03582f   Thumb Code    98  type1.o(.text)
    t1_parse_font_matrix                     0x1a035891   Thumb Code   170  type1.o(.text)
    parse_encoding                           0x1a03593b   Thumb Code   612  type1.o(.text)
    parse_subrs                              0x1a035b9f   Thumb Code   394  type1.o(.text)
    parse_charstrings                        0x1a035d29   Thumb Code   998  type1.o(.text)
    parse_dict                               0x1a03610f   Thumb Code   640  type1.o(.text)
    T1_Open_Face                             0x1a03638f   Thumb Code   610  type1.o(.text)
    T1_Size_Get_Globals_Funcs                0x1a0365f1   Thumb Code    36  type1.o(.text)
    T1_Size_Done                             0x1a036615   Thumb Code    32  type1.o(.text)
    T1_Size_Init                             0x1a036635   Thumb Code    38  type1.o(.text)
    T1_Size_Request                          0x1a03665b   Thumb Code    42  type1.o(.text)
    T1_GlyphSlot_Done                        0x1a036685   Thumb Code    10  type1.o(.text)
    T1_GlyphSlot_Init                        0x1a03668f   Thumb Code    38  type1.o(.text)
    T1_Done_Metrics                          0x1a0366b5   Thumb Code    42  type1.o(.text)
    T1_Face_Done                             0x1a0366df   Thumb Code   246  type1.o(.text)
    T1_Parse_Glyph_And_Get_Char_String       0x1a0367d5   Thumb Code   188  type1.o(.text)
    T1_Parse_Glyph                           0x1a036891   Thumb Code    38  type1.o(.text)
    T1_Face_Init                             0x1a0368b7   Thumb Code   666  type1.o(.text)
    T1_Driver_Init                           0x1a036b51   Thumb Code     4  type1.o(.text)
    T1_Driver_Done                           0x1a036b55   Thumb Code     2  type1.o(.text)
    t1_get_glyph_name                        0x1a036b57   Thumb Code    24  type1.o(.text)
    t1_get_name_index                        0x1a036b6f   Thumb Code    44  type1.o(.text)
    t1_get_ps_name                           0x1a036b9b   Thumb Code     6  type1.o(.text)
    t1_ps_get_font_info                      0x1a036ba1   Thumb Code    20  type1.o(.text)
    t1_ps_get_font_extra                     0x1a036bb5   Thumb Code    10  type1.o(.text)
    t1_ps_has_glyph_names                    0x1a036bbf   Thumb Code     4  type1.o(.text)
    t1_ps_get_font_private                   0x1a036bc3   Thumb Code    20  type1.o(.text)
    t1_ps_get_font_value                     0x1a036bd7   Thumb Code  1162  type1.o(.text)
    Get_Interface                            0x1a037061   Thumb Code     6  type1.o(.text)
    Get_Kerning                              0x1a037067   Thumb Code    90  type1.o(.text)
    T1_Get_Advances                          0x1a0370c1   Thumb Code   192  type1.o(.text)
    T1_Load_Glyph                            0x1a037181   Thumb Code   810  type1.o(.text)
    t1_get_index                             0x1a0374ab   Thumb Code    82  type1.o(.text)
    compare_kern_pairs                       0x1a0374fd   Thumb Code    40  type1.o(.text)
    T1_Read_PFM                              0x1a037525   Thumb Code   274  type1.o(.text)
    T1_Read_Metrics                          0x1a037637   Thumb Code   300  type1.o(.text)
    T1_Get_Track_Kerning                     0x1a037763   Thumb Code    94  type1.o(.text)
    FT_MulFix_arm                            0x1a0377c1   Thumb Code    28  type1.o(.text)
    mm_axis_unmap                            0x1a0377dd   Thumb Code    90  type1.o(.text)
    t1_done_loader                           0x1a037837   Thumb Code   104  type1.o(.text)
    T1_Compute_Max_Advance                   0x1a03789f   Thumb Code   174  type1.o(.text)
    .text                                    0x1a037958   Section        0  type1cid.o(.text)
    cid_parser_new                           0x1a037959   Thumb Code   472  type1cid.o(.text)
    cid_parse_font_matrix                    0x1a037b31   Thumb Code   194  type1cid.o(.text)
    parse_fd_array                           0x1a037bf3   Thumb Code    90  type1cid.o(.text)
    parse_expansion_factor                   0x1a037c4d   Thumb Code    50  type1cid.o(.text)
    cid_parse_dict                           0x1a037c7f   Thumb Code   218  type1cid.o(.text)
    cid_read_subrs                           0x1a037d59   Thumb Code   634  type1cid.o(.text)
    cid_hex_to_binary                        0x1a037fd3   Thumb Code   204  type1cid.o(.text)
    cid_face_open                            0x1a03809f   Thumb Code   170  type1cid.o(.text)
    cid_slot_done                            0x1a038149   Thumb Code    10  type1cid.o(.text)
    cid_slot_init                            0x1a038153   Thumb Code    38  type1cid.o(.text)
    cid_size_get_globals_funcs               0x1a038179   Thumb Code    36  type1cid.o(.text)
    cid_size_done                            0x1a03819d   Thumb Code    30  type1cid.o(.text)
    cid_size_init                            0x1a0381bb   Thumb Code    50  type1cid.o(.text)
    cid_size_request                         0x1a0381ed   Thumb Code    40  type1cid.o(.text)
    cid_face_done                            0x1a038215   Thumb Code   228  type1cid.o(.text)
    cid_face_init                            0x1a0382f9   Thumb Code   376  type1cid.o(.text)
    cid_driver_init                          0x1a038471   Thumb Code     4  type1cid.o(.text)
    cid_driver_done                          0x1a038475   Thumb Code     2  type1cid.o(.text)
    cid_get_postscript_name                  0x1a038477   Thumb Code    18  type1cid.o(.text)
    cid_ps_get_font_info                     0x1a038489   Thumb Code    20  type1cid.o(.text)
    cid_ps_get_font_extra                    0x1a03849d   Thumb Code    10  type1cid.o(.text)
    cid_get_ros                              0x1a0384a7   Thumb Code    26  type1cid.o(.text)
    cid_get_is_cid                           0x1a0384c1   Thumb Code    12  type1cid.o(.text)
    cid_get_cid_from_glyph_index             0x1a0384cd   Thumb Code    10  type1cid.o(.text)
    cid_get_interface                        0x1a0384d7   Thumb Code     6  type1cid.o(.text)
    cid_load_glyph                           0x1a0384dd   Thumb Code   570  type1cid.o(.text)
    cid_slot_load_glyph                      0x1a038717   Thumb Code   546  type1cid.o(.text)
    FT_MulFix_arm                            0x1a038939   Thumb Code    28  type1cid.o(.text)
    cid_get_offset                           0x1a038955   Thumb Code    30  type1cid.o(.text)
    cid_load_keyword                         0x1a038973   Thumb Code   120  type1cid.o(.text)
    .text                                    0x1a0389f4   Section        0  type42.o(.text)
    t42_parse_dict                           0x1a0389f5   Thumb Code   314  type42.o(.text)
    t42_parser_init                          0x1a038b2f   Thumb Code   210  type42.o(.text)
    T42_Open_Face                            0x1a038c01   Thumb Code   404  type42.o(.text)
    T42_Face_Init                            0x1a038d95   Thumb Code   656  type42.o(.text)
    T42_Face_Done                            0x1a039025   Thumb Code   216  type42.o(.text)
    T42_Driver_Init                          0x1a0390fd   Thumb Code    26  type42.o(.text)
    T42_Driver_Done                          0x1a039117   Thumb Code     2  type42.o(.text)
    T42_Size_Init                            0x1a039119   Thumb Code    30  type42.o(.text)
    T42_Size_Request                         0x1a039137   Thumb Code    50  type42.o(.text)
    T42_Size_Select                          0x1a039169   Thumb Code    50  type42.o(.text)
    T42_Size_Done                            0x1a03919b   Thumb Code    34  type42.o(.text)
    T42_GlyphSlot_Init                       0x1a0391bd   Thumb Code    40  type42.o(.text)
    T42_GlyphSlot_Done                       0x1a0391e5   Thumb Code     8  type42.o(.text)
    T42_GlyphSlot_Load                       0x1a0391ed   Thumb Code   248  type42.o(.text)
    t42_parse_font_matrix                    0x1a0392e5   Thumb Code   170  type42.o(.text)
    t42_parse_encoding                       0x1a03938f   Thumb Code   550  type42.o(.text)
    t42_parse_sfnts                          0x1a0395b5   Thumb Code   486  type42.o(.text)
    t42_parse_charstrings                    0x1a03979b   Thumb Code   726  type42.o(.text)
    t42_get_glyph_name                       0x1a039a71   Thumb Code    24  type42.o(.text)
    t42_get_name_index                       0x1a039a89   Thumb Code    64  type42.o(.text)
    t42_get_ps_font_name                     0x1a039ac9   Thumb Code     6  type42.o(.text)
    t42_ps_get_font_info                     0x1a039acf   Thumb Code    20  type42.o(.text)
    t42_ps_get_font_extra                    0x1a039ae3   Thumb Code    10  type42.o(.text)
    t42_ps_has_glyph_names                   0x1a039aed   Thumb Code     4  type42.o(.text)
    t42_ps_get_font_private                  0x1a039af1   Thumb Code    20  type42.o(.text)
    T42_Get_Interface                        0x1a039b05   Thumb Code     6  type42.o(.text)
    t42_load_keyword                         0x1a039b0b   Thumb Code    82  type42.o(.text)
    t42_is_space                             0x1a039b5d   Thumb Code    30  type42.o(.text)
    .text                                    0x1a039b80   Section        0  winfnt.o(.text)
    fnt_font_done                            0x1a039b81   Thumb Code    64  winfnt.o(.text)
    fnt_font_load                            0x1a039bc1   Thumb Code   136  winfnt.o(.text)
    fnt_face_get_dll_font                    0x1a039c49   Thumb Code  1004  winfnt.o(.text)
    fnt_cmap_init                            0x1a03a035   Thumb Code    24  winfnt.o(.text)
    fnt_cmap_char_index                      0x1a03a04d   Thumb Code    18  winfnt.o(.text)
    fnt_cmap_char_next                       0x1a03a05f   Thumb Code    40  winfnt.o(.text)
    FNT_Face_Done                            0x1a03a087   Thumb Code    28  winfnt.o(.text)
    FNT_Face_Init                            0x1a03a0a3   Thumb Code   530  winfnt.o(.text)
    FNT_Size_Select                          0x1a03a2b5   Thumb Code    46  winfnt.o(.text)
    FNT_Size_Request                         0x1a03a2e3   Thumb Code    78  winfnt.o(.text)
    FNT_Load_Glyph                           0x1a03a331   Thumb Code   342  winfnt.o(.text)
    winfnt_get_header                        0x1a03a487   Thumb Code    22  winfnt.o(.text)
    winfnt_get_service                       0x1a03a49d   Thumb Code     6  winfnt.o(.text)
    .text                                    0x1a03a4d8   Section        0  noretval__2printf.o(.text)
    .text                                    0x1a03a4f0   Section        0  noretval__2sprintf.o(.text)
    .text                                    0x1a03a518   Section        0  _printf_truncate.o(.text)
    .text                                    0x1a03a53c   Section        0  _printf_str.o(.text)
    .text                                    0x1a03a590   Section        0  _printf_dec.o(.text)
    .text                                    0x1a03a608   Section        0  _printf_longlong_dec.o(.text)
    .text                                    0x1a03a684   Section        0  _printf_hex_int_ptr.o(.text)
    _printf_hex_common                       0x1a03a685   Thumb Code     0  _printf_hex_int_ptr.o(.text)
    .text                                    0x1a03a700   Section        0  __printf_ss.o(.text)
    .text                                    0x1a03a7b8   Section        0  atol.o(.text)
    .text                                    0x1a03a7d2   Section        0  qsortnoex.o(.text)
    _partition_sort                          0x1a03a7d3   Thumb Code   478  qsortnoex.o(.text)
    .text                                    0x1a03aa36   Section        0  strstr.o(.text)
    .text                                    0x1a03aa5a   Section        0  memcmp.o(.text)
    .text                                    0x1a03aab2   Section        0  strcpy.o(.text)
    .text                                    0x1a03aafa   Section        0  strlen.o(.text)
    .text                                    0x1a03ab38   Section        0  memchr.o(.text)
    .text                                    0x1a03ab4c   Section        0  strncmp.o(.text)
    .text                                    0x1a03abe2   Section        0  strcat.o(.text)
    .text                                    0x1a03abfa   Section      138  rt_memcpy_v6.o(.text)
    .text                                    0x1a03ac84   Section      132  rt_memmove_v6.o(.text)
    .text                                    0x1a03ad08   Section      100  rt_memcpy_w.o(.text)
    .text                                    0x1a03ad6c   Section      122  rt_memmove_w.o(.text)
    .text                                    0x1a03ade6   Section       16  aeabi_memset.o(.text)
    .text                                    0x1a03adf6   Section       68  rt_memclr.o(.text)
    .text                                    0x1a03ae3a   Section       78  rt_memclr_w.o(.text)
    .text                                    0x1a03ae88   Section       86  strncpy.o(.text)
    .text                                    0x1a03aee0   Section      128  strcmpv7m.o(.text)
    .text                                    0x1a03af60   Section        0  heapauxi.o(.text)
    .text                                    0x1a03af66   Section       98  setjmp.o(.text)
    $v0                                      0x1a03af66   Number         0  setjmp.o(.text)
    .text                                    0x1a03afc8   Section        8  rt_errno_addr_intlibspace.o(.text)
    .text                                    0x1a03afd0   Section      138  lludiv10.o(.text)
    .text                                    0x1a03b05a   Section        0  _printf_intcommon.o(.text)
    .text                                    0x1a03b10c   Section        0  _printf_char_common.o(.text)
    _printf_input_char                       0x1a03b10d   Thumb Code    10  _printf_char_common.o(.text)
    .text                                    0x1a03b13c   Section        0  _sputc.o(.text)
    .text                                    0x1a03b146   Section        0  _printf_char.o(.text)
    .text                                    0x1a03b174   Section        0  _printf_char_file.o(.text)
    .text                                    0x1a03b198   Section        0  strtol.o(.text)
    .text                                    0x1a03b208   Section        8  libspace.o(.text)
    .text                                    0x1a03b210   Section       16  rt_ctype_table.o(.text)
    .text                                    0x1a03b220   Section        0  _strtoul.o(.text)
    .text                                    0x1a03b2be   Section       74  sys_stackheap_outer.o(.text)
    .text                                    0x1a03b308   Section        8  rt_locale_intlibspace.o(.text)
    .text                                    0x1a03b310   Section        0  _chval.o(.text)
    .text                                    0x1a03b32c   Section        0  exit.o(.text)
    i.Board_SetupClocking                    0x1a03b338   Section        0  board_sysinit.o(i.Board_SetupClocking)
    i.Board_SetupMuxing                      0x1a03b3ec   Section        0  board_sysinit.o(i.Board_SetupMuxing)
    i.Board_SystemInit                       0x1a03b438   Section        0  board_sysinit.o(i.Board_SystemInit)
    i.Board_UARTPutChar                      0x1a03b444   Section        0  board.o(i.Board_UARTPutChar)
    i.Board_UART_Init                        0x1a03b464   Section        0  board.o(i.Board_UART_Init)
    i.Chip_Clock_EnableOpts                  0x1a03b4a8   Section        0  clock_18xx_43xx.o(i.Chip_Clock_EnableOpts)
    i.Chip_Clock_FindBaseClock               0x1a03b4e4   Section        0  clock_18xx_43xx.o(i.Chip_Clock_FindBaseClock)
    Chip_Clock_FindBaseClock                 0x1a03b4e5   Thumb Code    74  clock_18xx_43xx.o(i.Chip_Clock_FindBaseClock)
    i.Chip_Clock_GetBaseClock                0x1a03b534   Section        0  clock_18xx_43xx.o(i.Chip_Clock_GetBaseClock)
    i.Chip_Clock_GetBaseClocktHz             0x1a03b558   Section        0  clock_18xx_43xx.o(i.Chip_Clock_GetBaseClocktHz)
    i.Chip_Clock_GetClockInputHz             0x1a03b56c   Section        0  clock_18xx_43xx.o(i.Chip_Clock_GetClockInputHz)
    i.Chip_Clock_GetDivRate                  0x1a03b640   Section        0  clock_18xx_43xx.o(i.Chip_Clock_GetDivRate)
    Chip_Clock_GetDivRate                    0x1a03b641   Thumb Code    40  clock_18xx_43xx.o(i.Chip_Clock_GetDivRate)
    i.Chip_Clock_GetDividerDivisor           0x1a03b668   Section        0  clock_18xx_43xx.o(i.Chip_Clock_GetDividerDivisor)
    i.Chip_Clock_GetDividerSource            0x1a03b688   Section        0  clock_18xx_43xx.o(i.Chip_Clock_GetDividerSource)
    i.Chip_Clock_GetMainPLLHz                0x1a03b6a8   Section        0  clock_18xx_43xx.o(i.Chip_Clock_GetMainPLLHz)
    i.Chip_Clock_GetRate                     0x1a03b720   Section        0  clock_18xx_43xx.o(i.Chip_Clock_GetRate)
    i.Chip_Clock_SetBaseClock                0x1a03b778   Section        0  clock_18xx_43xx.o(i.Chip_Clock_SetBaseClock)
    i.Chip_Clock_SetDivider                  0x1a03b7c0   Section        0  clock_18xx_43xx.o(i.Chip_Clock_SetDivider)
    i.Chip_SCU_PinMuxSet                     0x1a03b810   Section        0  board.o(i.Chip_SCU_PinMuxSet)
    Chip_SCU_PinMuxSet                       0x1a03b811   Thumb Code    12  board.o(i.Chip_SCU_PinMuxSet)
    i.Chip_SCU_SetPinMuxing                  0x1a03b820   Section        0  board_sysinit.o(i.Chip_SCU_SetPinMuxing)
    Chip_SCU_SetPinMuxing                    0x1a03b821   Thumb Code    44  board_sysinit.o(i.Chip_SCU_SetPinMuxing)
    i.Chip_SetupCoreClock                    0x1a03b850   Section        0  sysinit_18xx_43xx.o(i.Chip_SetupCoreClock)
    i.Chip_UART_DisableDivisorAccess         0x1a03b85e   Section        0  uart_18xx_43xx.o(i.Chip_UART_DisableDivisorAccess)
    Chip_UART_DisableDivisorAccess           0x1a03b85f   Thumb Code    10  uart_18xx_43xx.o(i.Chip_UART_DisableDivisorAccess)
    i.Chip_UART_EnableDivisorAccess          0x1a03b868   Section        0  uart_18xx_43xx.o(i.Chip_UART_EnableDivisorAccess)
    Chip_UART_EnableDivisorAccess            0x1a03b869   Thumb Code    10  uart_18xx_43xx.o(i.Chip_UART_EnableDivisorAccess)
    i.Chip_UART_GetClockIndex                0x1a03b874   Section        0  uart_18xx_43xx.o(i.Chip_UART_GetClockIndex)
    Chip_UART_GetClockIndex                  0x1a03b875   Thumb Code    36  uart_18xx_43xx.o(i.Chip_UART_GetClockIndex)
    i.Chip_UART_Init                         0x1a03b8a4   Section        0  uart_18xx_43xx.o(i.Chip_UART_Init)
    i.Chip_UART_SetBaud                      0x1a03b8f0   Section        0  uart_18xx_43xx.o(i.Chip_UART_SetBaud)
    i.Chip_UART_SetDivisorLatches            0x1a03b932   Section        0  uart_18xx_43xx.o(i.Chip_UART_SetDivisorLatches)
    Chip_UART_SetDivisorLatches              0x1a03b933   Thumb Code     6  uart_18xx_43xx.o(i.Chip_UART_SetDivisorLatches)
    i.SystemCoreClockUpdate                  0x1a03b938   Section        0  chip_18xx_43xx.o(i.SystemCoreClockUpdate)
    i._sys_exit                              0x1a03b94c   Section        0  board.o(i._sys_exit)
    i.clock_init_delay                       0x1a03b952   Section        0  sysinit_18xx_43xx.o(i.clock_init_delay)
    clock_init_delay                         0x1a03b953   Thumb Code    36  sysinit_18xx_43xx.o(i.clock_init_delay)
    i.clock_main_init                        0x1a03b978   Section        0  sysinit_18xx_43xx.o(i.clock_main_init)
    clock_main_init                          0x1a03b979   Thumb Code   168  sysinit_18xx_43xx.o(i.clock_main_init)
    i.ferror                                 0x1a03ba34   Section        0  board.o(i.ferror)
    i.fpuInit                                0x1a03ba3c   Section        0  fpu_init.o(i.fpuInit)
    i.fputc                                  0x1a03ba8c   Section        0  board.o(i.fputc)
    locale$$code                             0x1a03baa0   Section       44  lc_ctype_c.o(locale$$code)
    x$fpl$fpinit                             0x1a03bacc   Section       10  fpinit.o(x$fpl$fpinit)
    $v0                                      0x1a03bacc   Number         0  fpinit.o(x$fpl$fpinit)
    .constdata                               0x1a03bad6   Section      256  yaffs_hweight.o(.constdata)
    yaffs_count_bits_table                   0x1a03bad6   Data         256  yaffs_hweight.o(.constdata)
    .constdata                               0x1a03bbd6   Section      256  yaffs_ecc.o(.constdata)
    column_parity_table                      0x1a03bbd6   Data         256  yaffs_ecc.o(.constdata)
    .constdata                               0x1a03bcd8   Section       40  yaffs_verify.o(.constdata)
    block_state_name                         0x1a03bcd8   Data          40  yaffs_verify.o(.constdata)
    .constdata                               0x1a03bd00   Section      948  autofit.o(.constdata)
    af_services                              0x1a03c0a4   Data          16  autofit.o(.constdata)
    .constdata                               0x1a03c0b4   Section       20  autofit.o(.constdata)
    .constdata                               0x1a03c0c8   Section       20  autofit.o(.constdata)
    .constdata                               0x1a03c0dc   Section       20  autofit.o(.constdata)
    .constdata                               0x1a03c0f0   Section       20  autofit.o(.constdata)
    .constdata                               0x1a03c104   Section       20  autofit.o(.constdata)
    .constdata                               0x1a03c118   Section       20  autofit.o(.constdata)
    .constdata                               0x1a03c12c   Section       20  autofit.o(.constdata)
    .constdata                               0x1a03c140   Section       20  autofit.o(.constdata)
    .constdata                               0x1a03c154   Section       20  autofit.o(.constdata)
    .constdata                               0x1a03c168   Section       20  autofit.o(.constdata)
    .constdata                               0x1a03c17c   Section       20  autofit.o(.constdata)
    .constdata                               0x1a03c190   Section       20  autofit.o(.constdata)
    .constdata                               0x1a03c1a4   Section       20  autofit.o(.constdata)
    .constdata                               0x1a03c1b8   Section       20  autofit.o(.constdata)
    .constdata                               0x1a03c1cc   Section       20  autofit.o(.constdata)
    .constdata                               0x1a03c1e0   Section       20  autofit.o(.constdata)
    .constdata                               0x1a03c1f4   Section       20  autofit.o(.constdata)
    .constdata                               0x1a03c208   Section       20  autofit.o(.constdata)
    .constdata                               0x1a03c21c   Section       20  autofit.o(.constdata)
    .constdata                               0x1a03c230   Section       20  autofit.o(.constdata)
    .constdata                               0x1a03c244   Section        5  autofit.o(.constdata)
    .constdata                               0x1a03c249   Section        5  autofit.o(.constdata)
    .constdata                               0x1a03c24e   Section        5  autofit.o(.constdata)
    .constdata                               0x1a03c253   Section        5  autofit.o(.constdata)
    .constdata                               0x1a03c258   Section        5  autofit.o(.constdata)
    .constdata                               0x1a03c25d   Section        5  autofit.o(.constdata)
    .constdata                               0x1a03c262   Section        5  autofit.o(.constdata)
    .constdata                               0x1a03c267   Section        5  autofit.o(.constdata)
    .constdata                               0x1a03c26c   Section        5  autofit.o(.constdata)
    .constdata                               0x1a03c271   Section        5  autofit.o(.constdata)
    .constdata                               0x1a03c276   Section        5  autofit.o(.constdata)
    .constdata                               0x1a03c27b   Section        5  autofit.o(.constdata)
    .constdata                               0x1a03c280   Section        5  autofit.o(.constdata)
    .constdata                               0x1a03c285   Section        5  autofit.o(.constdata)
    .constdata                               0x1a03c28a   Section        5  autofit.o(.constdata)
    .constdata                               0x1a03c28f   Section        5  autofit.o(.constdata)
    .constdata                               0x1a03c294   Section        5  autofit.o(.constdata)
    .constdata                               0x1a03c299   Section        5  autofit.o(.constdata)
    .constdata                               0x1a03c29e   Section        5  autofit.o(.constdata)
    .constdata                               0x1a03c2a3   Section        5  autofit.o(.constdata)
    .constdata                               0x1a03c2a8   Section        5  autofit.o(.constdata)
    .constdata                               0x1a03c2ad   Section        5  autofit.o(.constdata)
    .constdata                               0x1a03c2b2   Section        5  autofit.o(.constdata)
    .constdata                               0x1a03c2b7   Section        5  autofit.o(.constdata)
    .constdata                               0x1a03c2bc   Section        5  autofit.o(.constdata)
    .constdata                               0x1a03c2c1   Section        5  autofit.o(.constdata)
    .constdata                               0x1a03c2c6   Section        5  autofit.o(.constdata)
    .constdata                               0x1a03c2cb   Section        5  autofit.o(.constdata)
    .constdata                               0x1a03c2d0   Section        5  autofit.o(.constdata)
    .constdata                               0x1a03c2d5   Section        5  autofit.o(.constdata)
    .constdata                               0x1a03c2da   Section        5  autofit.o(.constdata)
    .constdata                               0x1a03c2df   Section        5  autofit.o(.constdata)
    .constdata                               0x1a03c2e4   Section        5  autofit.o(.constdata)
    .constdata                               0x1a03c2e9   Section        5  autofit.o(.constdata)
    .constdata                               0x1a03c2ee   Section        5  autofit.o(.constdata)
    .constdata                               0x1a03c2f3   Section        5  autofit.o(.constdata)
    .constdata                               0x1a03c2f8   Section        5  autofit.o(.constdata)
    .constdata                               0x1a03c2fd   Section        5  autofit.o(.constdata)
    .constdata                               0x1a03c302   Section        5  autofit.o(.constdata)
    .constdata                               0x1a03c307   Section        5  autofit.o(.constdata)
    .constdata                               0x1a03c30c   Section        5  autofit.o(.constdata)
    .constdata                               0x1a03c311   Section        5  autofit.o(.constdata)
    .constdata                               0x1a03c316   Section        5  autofit.o(.constdata)
    .constdata                               0x1a03c31b   Section        5  autofit.o(.constdata)
    .constdata                               0x1a03c320   Section        5  autofit.o(.constdata)
    .constdata                               0x1a03c325   Section        5  autofit.o(.constdata)
    .constdata                               0x1a03c32a   Section        5  autofit.o(.constdata)
    .constdata                               0x1a03c330   Section       40  autofit.o(.constdata)
    .constdata                               0x1a03c358   Section       24  autofit.o(.constdata)
    .constdata                               0x1a03c370   Section       24  autofit.o(.constdata)
    .constdata                               0x1a03c388   Section      184  autofit.o(.constdata)
    .constdata                               0x1a03c440   Section        8  autofit.o(.constdata)
    .constdata                               0x1a03c448   Section       16  autofit.o(.constdata)
    .constdata                               0x1a03c458   Section       16  autofit.o(.constdata)
    .constdata                               0x1a03c468   Section       16  autofit.o(.constdata)
    .constdata                               0x1a03c478   Section       16  autofit.o(.constdata)
    .constdata                               0x1a03c488   Section       16  autofit.o(.constdata)
    .constdata                               0x1a03c498   Section       16  autofit.o(.constdata)
    .constdata                               0x1a03c4a8   Section       16  autofit.o(.constdata)
    .constdata                               0x1a03c4b8   Section       16  autofit.o(.constdata)
    .constdata                               0x1a03c4c8   Section       16  autofit.o(.constdata)
    .constdata                               0x1a03c4d8   Section       16  autofit.o(.constdata)
    .constdata                               0x1a03c4e8   Section       16  autofit.o(.constdata)
    .constdata                               0x1a03c4f8   Section       16  autofit.o(.constdata)
    .constdata                               0x1a03c508   Section       16  autofit.o(.constdata)
    .constdata                               0x1a03c518   Section       16  autofit.o(.constdata)
    .constdata                               0x1a03c528   Section      264  autofit.o(.constdata)
    .constdata                               0x1a03c630   Section       28  autofit.o(.constdata)
    .constdata                               0x1a03c64c   Section       28  autofit.o(.constdata)
    .constdata                               0x1a03c668   Section       28  autofit.o(.constdata)
    .constdata                               0x1a03c684   Section       28  autofit.o(.constdata)
    .constdata                               0x1a03c6a0   Section        8  autofit.o(.constdata)
    af_service_properties                    0x1a03c6a0   Data           8  autofit.o(.constdata)
    .constdata                               0x1a03c6a8   Section       16  autofit.o(.constdata)
    .constdata                               0x1a03c6b8   Section       36  autofit.o(.constdata)
    .constdata                               0x1a03c6dc   Section     1644  bdf.o(.constdata)
    empty                                    0x1a03c6dc   Data           1  bdf.o(.constdata)
    nibble_mask                              0x1a03c6dd   Data           8  bdf.o(.constdata)
    _bdf_opts                                0x1a03c6e8   Data          16  bdf.o(.constdata)
    _bdf_properties                          0x1a03c6f8   Data        1328  bdf.o(.constdata)
    a2i                                      0x1a03cc28   Data         128  bdf.o(.constdata)
    odigits                                  0x1a03cca8   Data          32  bdf.o(.constdata)
    ddigits                                  0x1a03ccc8   Data          32  bdf.o(.constdata)
    hdigits                                  0x1a03cce8   Data          32  bdf.o(.constdata)
    bdf_services                             0x1a03cd30   Data          24  bdf.o(.constdata)
    .constdata                               0x1a03cd48   Section        8  bdf.o(.constdata)
    bdf_service_bdf                          0x1a03cd48   Data           8  bdf.o(.constdata)
    .constdata                               0x1a03cd50   Section       96  bdf.o(.constdata)
    .constdata                               0x1a03cdb0   Section      116  ftbase.o(.constdata)
    null_outline                             0x1a03cdb8   Data          20  ftbase.o(.constdata)
    ft_trig_arctan_table                     0x1a03cdcc   Data          88  ftbase.o(.constdata)
    .constdata                               0x1a03ce24   Section       24  smooth.o(.constdata)
    func_interface                           0x1a03ce24   Data          24  smooth.o(.constdata)
    .constdata                               0x1a03ce3c   Section       24  smooth.o(.constdata)
    .constdata                               0x1a03ce54   Section       60  smooth.o(.constdata)
    .constdata                               0x1a03ce90   Section       60  smooth.o(.constdata)
    .constdata                               0x1a03cecc   Section       60  smooth.o(.constdata)
    .constdata                               0x1a03cf08   Section       76  ftinit.o(.constdata)
    ft_default_modules                       0x1a03cf08   Data          76  ftinit.o(.constdata)
    .constdata                               0x1a03cf54   Section       24  ftbitmap.o(.constdata)
    null_bitmap                              0x1a03cf54   Data          24  ftbitmap.o(.constdata)
    .constdata                               0x1a03cf6c   Section        8  cff.o(.constdata)
    cff_service_glyph_dict                   0x1a03cf6c   Data           8  cff.o(.constdata)
    .constdata                               0x1a03cf74   Section       20  cff.o(.constdata)
    cff_service_ps_info                      0x1a03cf74   Data          20  cff.o(.constdata)
    .constdata                               0x1a03cf88   Section        4  cff.o(.constdata)
    cff_service_ps_name                      0x1a03cf88   Data           4  cff.o(.constdata)
    .constdata                               0x1a03cf8c   Section        4  cff.o(.constdata)
    cff_service_get_cmap_info                0x1a03cf8c   Data           4  cff.o(.constdata)
    .constdata                               0x1a03cf90   Section       12  cff.o(.constdata)
    cff_service_cid_info                     0x1a03cf90   Data          12  cff.o(.constdata)
    .constdata                               0x1a03cf9c   Section        8  cff.o(.constdata)
    cff_service_properties                   0x1a03cf9c   Data           8  cff.o(.constdata)
    .constdata                               0x1a03cfa4   Section     3700  cff.o(.constdata)
    cff_services                             0x1a03cfa4   Data          64  cff.o(.constdata)
    power_tens                               0x1a03cfe4   Data          40  cff.o(.constdata)
    cff_field_handlers                       0x1a03d00c   Data        1456  cff.o(.constdata)
    cff_isoadobe_charset                     0x1a03d5bc   Data         458  cff.o(.constdata)
    cff_expert_charset                       0x1a03d786   Data         332  cff.o(.constdata)
    cff_expertsubset_charset                 0x1a03d8d2   Data         174  cff.o(.constdata)
    cff_standard_encoding                    0x1a03d980   Data         512  cff.o(.constdata)
    cff_expert_encoding                      0x1a03db80   Data         512  cff.o(.constdata)
    cff_header_fields                        0x1a03ddd0   Data          24  cff.o(.constdata)
    readFromStack                            0x1a03dde8   Data          12  cff.o(.constdata)
    readFromStack                            0x1a03ddf4   Data          12  cff.o(.constdata)
    readFromStack                            0x1a03de00   Data          12  cff.o(.constdata)
    readFromStack                            0x1a03de0c   Data          12  cff.o(.constdata)
    .constdata                               0x1a03de18   Section       96  cff.o(.constdata)
    .constdata                               0x1a03de78   Section      340  pcf.o(.constdata)
    pcf_toc_header                           0x1a03de78   Data          16  pcf.o(.constdata)
    pcf_table_header                         0x1a03de88   Data          24  pcf.o(.constdata)
    pcf_metric_header                        0x1a03dea0   Data          32  pcf.o(.constdata)
    pcf_metric_msb_header                    0x1a03dec0   Data          32  pcf.o(.constdata)
    pcf_compressed_metric_header             0x1a03dee0   Data          28  pcf.o(.constdata)
    pcf_property_header                      0x1a03defc   Data          20  pcf.o(.constdata)
    pcf_property_msb_header                  0x1a03df10   Data          20  pcf.o(.constdata)
    pcf_accel_header                         0x1a03df24   Data          52  pcf.o(.constdata)
    pcf_accel_msb_header                     0x1a03df58   Data          52  pcf.o(.constdata)
    pcf_services                             0x1a03dfb4   Data          24  pcf.o(.constdata)
    .constdata                               0x1a03dfcc   Section        8  pcf.o(.constdata)
    pcf_service_bdf                          0x1a03dfcc   Data           8  pcf.o(.constdata)
    .constdata                               0x1a03dfd4   Section       96  pcf.o(.constdata)
    .constdata                               0x1a03e034   Section      220  pfr.o(.constdata)
    pfr_header_fields                        0x1a03e034   Data         116  pfr.o(.constdata)
    pfr_phy_font_extra_items                 0x1a03e0a8   Data          40  pfr.o(.constdata)
    pfr_services                             0x1a03e0f8   Data          24  pfr.o(.constdata)
    .constdata                               0x1a03e110   Section       12  pfr.o(.constdata)
    .constdata                               0x1a03e11c   Section       96  pfr.o(.constdata)
    .constdata                               0x1a03e17c   Section      644  psaux.o(.constdata)
    t1_args_count                            0x1a03e1ec   Data         108  psaux.o(.constdata)
    afm_key_table                            0x1a03e258   Data         296  psaux.o(.constdata)
    ft_char_table                            0x1a03e380   Data         128  psaux.o(.constdata)
    .constdata                               0x1a03e400   Section       12  psaux.o(.constdata)
    .constdata                               0x1a03e40c   Section       16  psaux.o(.constdata)
    .constdata                               0x1a03e41c   Section       28  psaux.o(.constdata)
    psaux_interface                          0x1a03e41c   Data          28  psaux.o(.constdata)
    .constdata                               0x1a03e438   Section       36  psaux.o(.constdata)
    .constdata                               0x1a03e45c   Section       40  psaux.o(.constdata)
    .constdata                               0x1a03e484   Section       40  psaux.o(.constdata)
    .constdata                               0x1a03e4ac   Section       40  psaux.o(.constdata)
    .constdata                               0x1a03e4d4   Section       40  psaux.o(.constdata)
    .constdata                               0x1a03e4fc   Section       12  pshinter.o(.constdata)
    pshinter_interface                       0x1a03e4fc   Data          12  pshinter.o(.constdata)
    .constdata                               0x1a03e508   Section       36  pshinter.o(.constdata)
    .constdata                               0x1a03e52c   Section     5012  psmodule.o(.constdata)
    ft_standard_glyph_names                  0x1a03e52c   Data        3696  psmodule.o(.constdata)
    ft_mac_names                             0x1a03f39c   Data         516  psmodule.o(.constdata)
    ft_sid_names                             0x1a03f5a0   Data         782  psmodule.o(.constdata)
    pscmaps_services                         0x1a03f8b0   Data          16  psmodule.o(.constdata)
    .constdata                               0x1a03f8c0   Section      512  psmodule.o(.constdata)
    t1_standard_encoding                     0x1a03f8c0   Data         512  psmodule.o(.constdata)
    .constdata                               0x1a03fac0   Section      512  psmodule.o(.constdata)
    t1_expert_encoding                       0x1a03fac0   Data         512  psmodule.o(.constdata)
    .constdata                               0x1a03fcc0   Section       32  psmodule.o(.constdata)
    pscmaps_interface                        0x1a03fcc0   Data          32  psmodule.o(.constdata)
    .constdata                               0x1a03fce0   Section       36  psmodule.o(.constdata)
    .constdata                               0x1a03fd04   Section       24  raster.o(.constdata)
    .constdata                               0x1a03fd1c   Section      120  raster.o(.constdata)
    .constdata                               0x1a03fd94   Section       52  sfnt.o(.constdata)
    .constdata                               0x1a03fdc8   Section       52  sfnt.o(.constdata)
    .constdata                               0x1a03fdfc   Section       52  sfnt.o(.constdata)
    .constdata                               0x1a03fe30   Section       52  sfnt.o(.constdata)
    .constdata                               0x1a03fe64   Section       52  sfnt.o(.constdata)
    .constdata                               0x1a03fe98   Section       52  sfnt.o(.constdata)
    .constdata                               0x1a03fecc   Section       52  sfnt.o(.constdata)
    .constdata                               0x1a03ff00   Section       52  sfnt.o(.constdata)
    .constdata                               0x1a03ff34   Section       52  sfnt.o(.constdata)
    .constdata                               0x1a03ff68   Section      976  sfnt.o(.constdata)
    tt_cmap_classes                          0x1a03ff68   Data          40  sfnt.o(.constdata)
    sfnt_services                            0x1a03ff90   Data          48  sfnt.o(.constdata)
    table_dir_entry_fields                   0x1a03ffc0   Data          24  sfnt.o(.constdata)
    offset_table_fields                      0x1a03ffd8   Data          24  sfnt.o(.constdata)
    header_fields                            0x1a03fff0   Data          84  sfnt.o(.constdata)
    maxp_fields                              0x1a040044   Data          16  sfnt.o(.constdata)
    maxp_fields_extra                        0x1a040054   Data          60  sfnt.o(.constdata)
    name_table_fields                        0x1a040090   Data          20  sfnt.o(.constdata)
    name_record_fields                       0x1a0400a4   Data          28  sfnt.o(.constdata)
    os2_fields                               0x1a0400c0   Data         176  sfnt.o(.constdata)
    os2_fields_extra1                        0x1a040170   Data          16  sfnt.o(.constdata)
    os2_fields_extra2                        0x1a040180   Data          28  sfnt.o(.constdata)
    os2_fields_extra5                        0x1a04019c   Data          16  sfnt.o(.constdata)
    post_fields                              0x1a0401ac   Data          44  sfnt.o(.constdata)
    pclt_fields                              0x1a0401d8   Data          68  sfnt.o(.constdata)
    metrics_header_fields                    0x1a04021c   Data          76  sfnt.o(.constdata)
    tt_encodings                             0x1a040268   Data         132  sfnt.o(.constdata)
    woff_header_fields                       0x1a0402ec   Data          60  sfnt.o(.constdata)
    ttc_header_fields                        0x1a040328   Data          16  sfnt.o(.constdata)
    .constdata                               0x1a040338   Section       12  sfnt.o(.constdata)
    sfnt_service_sfnt_table                  0x1a040338   Data          12  sfnt.o(.constdata)
    .constdata                               0x1a040344   Section        8  sfnt.o(.constdata)
    sfnt_service_glyph_dict                  0x1a040344   Data           8  sfnt.o(.constdata)
    .constdata                               0x1a04034c   Section        4  sfnt.o(.constdata)
    sfnt_service_ps_name                     0x1a04034c   Data           4  sfnt.o(.constdata)
    .constdata                               0x1a040350   Section        4  sfnt.o(.constdata)
    tt_service_get_cmap_info                 0x1a040350   Data           4  sfnt.o(.constdata)
    .constdata                               0x1a040354   Section        8  sfnt.o(.constdata)
    sfnt_service_bdf                         0x1a040354   Data           8  sfnt.o(.constdata)
    .constdata                               0x1a04035c   Section      116  sfnt.o(.constdata)
    sfnt_interface                           0x1a04035c   Data         116  sfnt.o(.constdata)
    .constdata                               0x1a0403d0   Section       36  sfnt.o(.constdata)
    .constdata                               0x1a0403f4   Section        8  truetype.o(.constdata)
    tt_service_properties                    0x1a0403f4   Data           8  truetype.o(.constdata)
    .constdata                               0x1a0403fc   Section       20  truetype.o(.constdata)
    tt_service_gx_multi_masters              0x1a0403fc   Data          20  truetype.o(.constdata)
    .constdata                               0x1a040410   Section        1  truetype.o(.constdata)
    tt_service_truetype_engine               0x1a040410   Data           1  truetype.o(.constdata)
    .constdata                               0x1a040414   Section        4  truetype.o(.constdata)
    tt_service_truetype_glyf                 0x1a040414   Data           4  truetype.o(.constdata)
    .constdata                               0x1a040418   Section     1320  truetype.o(.constdata)
    tt_services                              0x1a040418   Data          48  truetype.o(.constdata)
    Pop_Push_Count                           0x1a04048c   Data         256  truetype.o(.constdata)
    opcode_length                            0x1a04058c   Data         256  truetype.o(.constdata)
    trick_names                              0x1a04068c   Data         180  truetype.o(.constdata)
    sfnt_id                                  0x1a040740   Data         408  truetype.o(.constdata)
    gvar_fields                              0x1a0408d8   Data          36  truetype.o(.constdata)
    fvar_fields                              0x1a0408fc   Data          36  truetype.o(.constdata)
    fvaraxis_fields                          0x1a040920   Data          32  truetype.o(.constdata)
    .constdata                               0x1a040940   Section       96  truetype.o(.constdata)
    .constdata                               0x1a0409a0   Section     1560  type1.o(.constdata)
    t1_keywords                              0x1a0409a0   Data        1504  type1.o(.constdata)
    t1_services                              0x1a040f80   Data          56  type1.o(.constdata)
    .constdata                               0x1a040fb8   Section        8  type1.o(.constdata)
    t1_service_glyph_dict                    0x1a040fb8   Data           8  type1.o(.constdata)
    .constdata                               0x1a040fc0   Section        4  type1.o(.constdata)
    t1_service_ps_name                       0x1a040fc0   Data           4  type1.o(.constdata)
    .constdata                               0x1a040fc4   Section       20  type1.o(.constdata)
    t1_service_multi_masters                 0x1a040fc4   Data          20  type1.o(.constdata)
    .constdata                               0x1a040fd8   Section       20  type1.o(.constdata)
    t1_service_ps_info                       0x1a040fd8   Data          20  type1.o(.constdata)
    .constdata                               0x1a040fec   Section        4  type1.o(.constdata)
    t1_service_kerning                       0x1a040fec   Data           4  type1.o(.constdata)
    .constdata                               0x1a040ff0   Section       96  type1.o(.constdata)
    .constdata                               0x1a041050   Section     1672  type1cid.o(.constdata)
    cid_field_records                        0x1a041050   Data        1632  type1cid.o(.constdata)
    cid_services                             0x1a0416b0   Data          40  type1cid.o(.constdata)
    .constdata                               0x1a0416d8   Section        4  type1cid.o(.constdata)
    cid_service_ps_name                      0x1a0416d8   Data           4  type1cid.o(.constdata)
    .constdata                               0x1a0416dc   Section       20  type1cid.o(.constdata)
    cid_service_ps_info                      0x1a0416dc   Data          20  type1cid.o(.constdata)
    .constdata                               0x1a0416f0   Section       12  type1cid.o(.constdata)
    cid_service_cid_info                     0x1a0416f0   Data          12  type1cid.o(.constdata)
    .constdata                               0x1a0416fc   Section       96  type1cid.o(.constdata)
    .constdata                               0x1a04175c   Section      680  type42.o(.constdata)
    t42_keywords                             0x1a04175c   Data         640  type42.o(.constdata)
    t42_services                             0x1a0419dc   Data          40  type42.o(.constdata)
    .constdata                               0x1a041a04   Section        8  type42.o(.constdata)
    t42_service_glyph_dict                   0x1a041a04   Data           8  type42.o(.constdata)
    .constdata                               0x1a041a0c   Section        4  type42.o(.constdata)
    t42_service_ps_font_name                 0x1a041a0c   Data           4  type42.o(.constdata)
    .constdata                               0x1a041a10   Section       20  type42.o(.constdata)
    t42_service_ps_info                      0x1a041a10   Data          20  type42.o(.constdata)
    .constdata                               0x1a041a24   Section       96  type42.o(.constdata)
    .constdata                               0x1a041a84   Section      380  winfnt.o(.constdata)
    fnt_cmap_class                           0x1a041a84   Data           4  winfnt.o(.constdata)
    winmz_header_fields                      0x1a041a88   Data          20  winfnt.o(.constdata)
    winne_header_fields                      0x1a041a9c   Data          24  winfnt.o(.constdata)
    winpe32_header_fields                    0x1a041ab4   Data          52  winfnt.o(.constdata)
    winpe32_section_fields                   0x1a041ae8   Data          32  winfnt.o(.constdata)
    winpe_rsrc_dir_fields                    0x1a041b08   Data          32  winfnt.o(.constdata)
    winpe_rsrc_dir_entry_fields              0x1a041b28   Data          16  winfnt.o(.constdata)
    winpe_rsrc_data_entry_fields             0x1a041b38   Data          24  winfnt.o(.constdata)
    winfnt_header_fields                     0x1a041b50   Data         152  winfnt.o(.constdata)
    winfnt_services                          0x1a041be8   Data          24  winfnt.o(.constdata)
    .constdata                               0x1a041c00   Section       40  winfnt.o(.constdata)
    fnt_cmap_class_rec                       0x1a041c00   Data          40  winfnt.o(.constdata)
    .constdata                               0x1a041c28   Section        4  winfnt.o(.constdata)
    winfnt_service_rec                       0x1a041c28   Data           4  winfnt.o(.constdata)
    .constdata                               0x1a041c2c   Section       96  winfnt.o(.constdata)
    .constdata                               0x1a041c8c   Section       64  board.o(.constdata)
    ledports                                 0x1a041c8c   Data           8  board.o(.constdata)
    ledbits                                  0x1a041c94   Data           8  board.o(.constdata)
    .constdata                               0x1a041ccc   Section      700  board_sysinit.o(.constdata)
    InitClkStates                            0x1a041ccc   Data          16  board_sysinit.o(.constdata)
    spifipinmuxing                           0x1a041cdc   Data          24  board_sysinit.o(.constdata)
    pinmuxing                                0x1a041cf4   Data         496  board_sysinit.o(.constdata)
    pinclockmuxing                           0x1a041ee4   Data          16  board_sysinit.o(.constdata)
    MT48LC4M32_config                        0x1a041ef4   Data         116  board_sysinit.o(.constdata)
    S29GL64N90_config                        0x1a041f68   Data          32  board_sysinit.o(.constdata)
    .constdata                               0x1a041f88   Section      108  clock_18xx_43xx.o(.constdata)
    periph_to_base                           0x1a041f88   Data         108  clock_18xx_43xx.o(.constdata)
    .constdata                               0x1a041ff4   Section       72  sysinit_18xx_43xx.o(.constdata)
    InitClkStates                            0x1a041ff4   Data          72  sysinit_18xx_43xx.o(.constdata)
    .constdata                               0x1a04203c   Section       40  _printf_hex_int_ptr.o(.constdata)
    uc_hextab                                0x1a04203c   Data          20  _printf_hex_int_ptr.o(.constdata)
    lc_hextab                                0x1a042050   Data          20  _printf_hex_int_ptr.o(.constdata)
    .conststring                             0x1a042064   Section      157  yaffs_checkptrw.o(.conststring)
    .conststring                             0x1a042104   Section      589  yaffs_guts.o(.conststring)
    .conststring                             0x1a042354   Section       91  yaffs_packedtags2.o(.conststring)
    .conststring                             0x1a0423b0   Section      390  yaffs_verify.o(.conststring)
    .conststring                             0x1a042538   Section       98  yaffs_yaffs1.o(.conststring)
    .conststring                             0x1a04259c   Section      652  yaffs_yaffs2.o(.conststring)
    .conststring                             0x1a042828   Section       11  autofit.o(.conststring)
    .conststring                             0x1a042834   Section       11  autofit.o(.conststring)
    .conststring                             0x1a042840   Section      996  bdf.o(.conststring)
    .conststring                             0x1a042c24   Section        7  ftbase.o(.conststring)
    .conststring                             0x1a042c2c   Section        7  smooth.o(.conststring)
    .conststring                             0x1a042c34   Section       11  smooth.o(.conststring)
    .conststring                             0x1a042c40   Section       12  smooth.o(.conststring)
    .conststring                             0x1a042c4c   Section       71  cff.o(.conststring)
    .conststring                             0x1a042c94   Section        4  cff.o(.conststring)
    .conststring                             0x1a042c98   Section        4  pcf.o(.conststring)
    .conststring                             0x1a042c9c   Section        4  pcf.o(.conststring)
    .conststring                             0x1a042ca0   Section       16  pfr.o(.conststring)
    .conststring                             0x1a042cb0   Section        4  pfr.o(.conststring)
    .conststring                             0x1a042cb4   Section      801  psaux.o(.conststring)
    .conststring                             0x1a042fd8   Section        6  psaux.o(.conststring)
    .conststring                             0x1a042fe0   Section        9  pshinter.o(.conststring)
    .conststring                             0x1a042fec   Section       17  psmodule.o(.conststring)
    .conststring                             0x1a043000   Section        8  psmodule.o(.conststring)
    .conststring                             0x1a043008   Section       16  raster.o(.conststring)
    .conststring                             0x1a043018   Section       11  sfnt.o(.conststring)
    .conststring                             0x1a043024   Section        5  sfnt.o(.conststring)
    .conststring                             0x1a04302c   Section       50  truetype.o(.conststring)
    .conststring                             0x1a043060   Section        9  truetype.o(.conststring)
    .conststring                             0x1a04306c   Section      369  type1.o(.conststring)
    .conststring                             0x1a0431e0   Section        6  type1.o(.conststring)
    .conststring                             0x1a0431e8   Section      221  type1cid.o(.conststring)
    .conststring                             0x1a0432c8   Section        6  type1cid.o(.conststring)
    .conststring                             0x1a0432d0   Section       14  type42.o(.conststring)
    .conststring                             0x1a0432e0   Section       21  winfnt.o(.conststring)
    locale$$data                             0x1a043338   Section      272  lc_ctype_c.o(locale$$data)
    __lcctype_c_name                         0x1a04333c   Data           2  lc_ctype_c.o(locale$$data)
    __lcctype_c_start                        0x1a043344   Data           0  lc_ctype_c.o(locale$$data)
    __lcctype_c_end                          0x1a043448   Data           0  lc_ctype_c.o(locale$$data)

    Global Symbols

    Symbol Name                              Value     Ov Type        Size  Object(Section)

    BuildAttributes$$THM_ISAv4$E$P$D$K$B$S$7EM$VFPi3$EXTD16$VFPS$VFMA$PE$A:L22UL41UL21$X:L11$S22US41US21$IEEE1$IW$USESV6$~STKCKD$USESV7$~SHL$OSPACE$ROPI$EBA8$UX$STANDARDLIB$REQ8$PRES8$EABIv2 0x00000000   Number         0  anon$$obj.o ABSOLUTE
    __ARM_use_no_argv                        0x00000000   Number         0  main.o ABSOLUTE
    _printf_flags                            0x00000000   Number         0  printf_stubs.o ABSOLUTE
    _printf_return_value                     0x00000000   Number         0  printf_stubs.o ABSOLUTE
    _printf_sizespec                         0x00000000   Number         0  printf_stubs.o ABSOLUTE
    _printf_widthprec                        0x00000000   Number         0  printf_stubs.o ABSOLUTE
    __ARM_exceptions_init                     - Undefined Weak Reference
    __alloca_initialize                       - Undefined Weak Reference
    __alloca_longjmp                          - Undefined Weak Reference
    __alloca_setjmp                           - Undefined Weak Reference
    __arm_preinit_                            - Undefined Weak Reference
    __cpp_initialize__aeabi_                  - Undefined Weak Reference
    __cxa_finalize                            - Undefined Weak Reference
    __sigvec_lookup                           - Undefined Weak Reference
    _atexit_init                              - Undefined Weak Reference
    _call_atexit_fns                          - Undefined Weak Reference
    _clock_init                               - Undefined Weak Reference
    _fp_trap_init                             - Undefined Weak Reference
    _fp_trap_shutdown                         - Undefined Weak Reference
    _get_lc_collate                           - Undefined Weak Reference
    _get_lc_monetary                          - Undefined Weak Reference
    _get_lc_numeric                           - Undefined Weak Reference
    _get_lc_time                              - Undefined Weak Reference
    _getenv_init                              - Undefined Weak Reference
    _handle_redirection                       - Undefined Weak Reference
    _init_alloc                               - Undefined Weak Reference
    _init_user_alloc                          - Undefined Weak Reference
    _initio                                   - Undefined Weak Reference
    _printf_mbtowc                            - Undefined Weak Reference
    _printf_post_padding                      - Undefined Weak Reference
    _printf_pre_padding                       - Undefined Weak Reference
    _rand_init                                - Undefined Weak Reference
    _signal_finish                            - Undefined Weak Reference
    _signal_init                              - Undefined Weak Reference
    _terminate_alloc                          - Undefined Weak Reference
    _terminate_user_alloc                     - Undefined Weak Reference
    _terminateio                              - Undefined Weak Reference
    raw_os_active                            0x10000000   Data           1  raw-os.o(.data)
    idle_task_exit                           0x10000001   Data           1  raw-os.o(.data)
    raw_sched_lock                           0x10000002   Data           1  raw-os.o(.data)
    raw_int_nesting                          0x10000003   Data           1  raw-os.o(.data)
    mutex_recursion_levels                   0x10000004   Data           1  raw-os.o(.data)
    mutex_recursion_max_levels               0x10000005   Data           1  raw-os.o(.data)
    task_0_exit                              0x10000006   Data           1  raw-os.o(.data)
    task_0_event_head                        0x10000008   Data           2  raw-os.o(.data)
    task_0_event_end                         0x1000000a   Data           2  raw-os.o(.data)
    task_0_events                            0x1000000c   Data           2  raw-os.o(.data)
    peak_events                              0x1000000e   Data           2  raw-os.o(.data)
    high_ready_obj                           0x10000010   Data           4  raw-os.o(.data)
    raw_task_active                          0x10000014   Data           4  raw-os.o(.data)
    raw_tick_count                           0x10000018   Data           4  raw-os.o(.data)
    raw_timer_count                          0x1000001c   Data           4  raw-os.o(.data)
    raw_timer_ctrl                           0x10000020   Data           4  raw-os.o(.data)
    task_0_event_handler                     0x10000024   Data           4  raw-os.o(.data)
    free_object_int_msg                      0x10000028   Data           4  raw-os.o(.data)
    int_msg_full                             0x1000002c   Data           4  raw-os.o(.data)
    msg_event_handler                        0x10000030   Data           4  raw-os.o(.data)
    raw_idle_count                           0x10000038   Data           8  raw-os.o(.data)
    tick_head                                0x10000040   Data           8  raw-os.o(.data)
    timer_head                               0x10000048   Data           8  raw-os.o(.data)
    raw_task_debug                           0x10000050   Data           8  raw-os.o(.data)
    _mem_minfragment                         0x10000058   Data           4  raw_malloc.o(.data)
    g_lcdShowMemory                          0x1000005c   Data           4  main.o(.data)
    __stdout                                 0x1000007c   Data           4  board.o(.data)
    __stdin                                  0x10000080   Data           4  board.o(.data)
