Component: ARM Compiler 5.06 (build 20) Tool: armlink [4d35a3]

==============================================================================

Section Cross References

    raw-os.o(.text) refers to cpu.o(.text) for OS_CPU_SR_Save
    raw-os.o(.text) refers to port_hook.o(.text) for raw_idle_coroutine_hook
    raw-os.o(.text) refers to user_extension.o(.text) for raw_memset
    raw-os.o(.text) refers to port.o(.text) for port_stack_init
    raw-os.o(.text) refers to port_error_process.o(.text) for port_system_error_process
    raw-os.o(.text) refers to raw-os.o(.data) for .data
    raw-os.o(.text) refers to raw-os.o(.bss) for .bss
    raw-os.o(.text) refers to lludivv7m.o(.text) for __aeabi_uldivmod
    fifo.o(.text) refers to cpu.o(.text) for OS_CPU_SR_Save
    fifo.o(.text) refers to user_extension.o(.text) for raw_memcpy
    rsh.o(.text) refers to cpu.o(.text) for OS_CPU_SR_Save
    rsh.o(.text) refers to string.o(.text) for raw_strncmp
    rsh.o(.text) refers to user_extension.o(.text) for raw_memset
    rsh.o(.text) refers to rsh.o(.data) for .data
    rsh.o(.text) refers to rsh.o(.conststring) for .conststring
    rsh.o(.constdata) refers to rsh.o(.conststring) for .conststring
    rsh.o(.constdata) refers to rsh.o(.text) for rsh_help_command
    rsh.o(.data) refers to rsh.o(.constdata) for xHelpCommand
==============================================================================

Removing Unused input sections from the image.

    Removing rsh.o(.text), (472 bytes).
    Removing rsh.o(.constdata), (16 bytes).
    Removing rsh.o(.conststring), (50 bytes).
    Removing rsh.o(.conststring), (173 bytes).
    Removing rsh.o(.data), (20 bytes).
    Removing string.o(.text), (592 bytes).
    Removing sysinit.o(.rev16_text), (4 bytes).
    Removing sysinit.o(.revsh_text), (4 bytes).
    Removing lpc43xx_scu.o(.rev16_text), (4 bytes).
    Removing lpc43xx_scu.o(.revsh_text), (4 bytes).
    Removing lpc43xx_sdram.o(.rev16_text), (4 bytes).
    Removing lpc43xx_sdram.o(.revsh_text), (4 bytes).
    Removing lpc43xx_gpio.o(.rev16_text), (4 bytes).
    Removing lpc43xx_gpio.o(.revsh_text), (4 bytes).
    Removing lpc43xx_lcd.o(.rev16_text), (4 bytes).
    Removing lpc43xx_lcd.o(.revsh_text), (4 bytes).
    Removing main.o(.rev16_text), (4 bytes).
    Removing main.o(.revsh_text), (4 bytes).
==============================================================================

Image Symbol Table

    Local Symbols

    Symbol Name                              Value     Ov Type        Size  Object(Section)

    ../clib/angel/boardlib.s                 0x00000000   Number         0  boardinit3.o ABSOLUTE
    ../clib/angel/boardlib.s                 0x00000000   Number         0  boardinit2.o ABSOLUTE
    ../clib/angel/boardlib.s                 0x00000000   Number         0  boardinit1.o ABSOLUTE
    ../clib/angel/boardlib.s                 0x00000000   Number         0  boardshut.o ABSOLUTE
    ../clib/angel/handlers.s                 0x00000000   Number         0  __scatter_copy.o ABSOLUTE
    ../clib/angel/handlers.s                 0x00000000   Number         0  __scatter_zi.o ABSOLUTE
    ../clib/angel/kernel.s                   0x00000000   Number         0  rtexit2.o ABSOLUTE
    ../clib/angel/kernel.s                   0x00000000   Number         0  __rtentry.o ABSOLUTE
    ../clib/angel/kernel.s                   0x00000000   Number         0  __rtentry4.o ABSOLUTE
    ../clib/angel/kernel.s                   0x00000000   Number         0  __rtentry2.o ABSOLUTE
    ../clib/angel/kernel.s                   0x00000000   Number         0  rtexit.o ABSOLUTE
    ../clib/angel/rt.s                       0x00000000   Number         0  rt_raise.o ABSOLUTE
    ../clib/angel/rt.s                       0x00000000   Number         0  aeabi_ldiv0.o ABSOLUTE
    ../clib/angel/rt.s                       0x00000000   Number         0  aeabi_ldiv0_sigfpe.o ABSOLUTE
    ../clib/angel/rt.s                       0x00000000   Number         0  rt_div0.o ABSOLUTE
    ../clib/angel/scatter.s                  0x00000000   Number         0  __scatter.o ABSOLUTE
    ../clib/angel/startup.s                  0x00000000   Number         0  __main.o ABSOLUTE
    ../clib/angel/sys.s                      0x00000000   Number         0  indicate_semi.o ABSOLUTE
    ../clib/angel/sys.s                      0x00000000   Number         0  use_no_semi.o ABSOLUTE
    ../clib/angel/sys.s                      0x00000000   Number         0  libspace.o ABSOLUTE
    ../clib/angel/sys.s                      0x00000000   Number         0  sys_stackheap_outer.o ABSOLUTE
    ../clib/angel/sysapp.c                   0x00000000   Number         0  sys_command.o ABSOLUTE
    ../clib/angel/sysapp.c                   0x00000000   Number         0  sys_wrch.o ABSOLUTE
    ../clib/armsys.c                         0x00000000   Number         0  _get_argv_nomalloc.o ABSOLUTE
    ../clib/armsys.c                         0x00000000   Number         0  argv_veneer.o ABSOLUTE
    ../clib/armsys.c                         0x00000000   Number         0  argv_veneer.o ABSOLUTE
    ../clib/armsys.c                         0x00000000   Number         0  no_argv.o ABSOLUTE
    ../clib/heapalloc.c                      0x00000000   Number         0  hrguard.o ABSOLUTE
    ../clib/heapaux.c                        0x00000000   Number         0  heapauxi.o ABSOLUTE
    ../clib/libinit.s                        0x00000000   Number         0  libshutdown2.o ABSOLUTE
    ../clib/libinit.s                        0x00000000   Number         0  libinit2.o ABSOLUTE
    ../clib/libinit.s                        0x00000000   Number         0  libinit.o ABSOLUTE
    ../clib/libinit.s                        0x00000000   Number         0  libshutdown.o ABSOLUTE
    ../clib/longlong.s                       0x00000000   Number         0  lludivv7m.o ABSOLUTE
    ../clib/memcpset.s                       0x00000000   Number         0  rt_memcpy_w.o ABSOLUTE
    ../clib/memcpset.s                       0x00000000   Number         0  rt_memcpy_v6.o ABSOLUTE
    ../clib/memcpset.s                       0x00000000   Number         0  rt_memclr_w.o ABSOLUTE
    ../clib/printf.c                         0x00000000   Number         0  noretval__2printf.o ABSOLUTE
    ../clib/printf.c                         0x00000000   Number         0  __2printf.o ABSOLUTE
    ../clib/printf.c                         0x00000000   Number         0  _printf_char_common.o ABSOLUTE
    ../clib/printf.c                         0x00000000   Number         0  _printf_intcommon.o ABSOLUTE
    ../clib/printf.c                         0x00000000   Number         0  __printf_nopercent.o ABSOLUTE
    ../clib/printf.c                         0x00000000   Number         0  __printf_ss_wp.o ABSOLUTE
    ../clib/printf.c                         0x00000000   Number         0  _printf_char_file.o ABSOLUTE
    ../clib/printf.c                         0x00000000   Number         0  __printf_flags_ss.o ABSOLUTE
    ../clib/printf.c                         0x00000000   Number         0  __printf_flags_ss_wp.o ABSOLUTE
    ../clib/printf.c                         0x00000000   Number         0  __printf_flags_wp.o ABSOLUTE
    ../clib/printf.c                         0x00000000   Number         0  __printf_wp.o ABSOLUTE
    ../clib/printf.c                         0x00000000   Number         0  __printf_ss.o ABSOLUTE
    ../clib/printf.c                         0x00000000   Number         0  __printf_flags.o ABSOLUTE
    ../clib/printf.c                         0x00000000   Number         0  _printf_dec.o ABSOLUTE
    ../clib/printf.c                         0x00000000   Number         0  __printf.o ABSOLUTE
    ../clib/printf_percent.s                 0x00000000   Number         0  _printf_percent.o ABSOLUTE
    ../clib/printf_percent.s                 0x00000000   Number         0  _printf_d.o ABSOLUTE
    ../clib/printf_percent.s                 0x00000000   Number         0  _printf_percent_end.o ABSOLUTE
    ../clib/signal.c                         0x00000000   Number         0  defsig_other.o ABSOLUTE
    ../clib/signal.c                         0x00000000   Number         0  defsig_segv_inner.o ABSOLUTE
    ../clib/signal.c                         0x00000000   Number         0  defsig_cppl_inner.o ABSOLUTE
    ../clib/signal.c                         0x00000000   Number         0  defsig_pvfn_inner.o ABSOLUTE
    ../clib/signal.c                         0x00000000   Number         0  defsig_rtmem_formal.o ABSOLUTE
    ../clib/signal.c                         0x00000000   Number         0  defsig_fpe_formal.o ABSOLUTE
    ../clib/signal.c                         0x00000000   Number         0  defsig_rtmem_outer.o ABSOLUTE
    ../clib/signal.c                         0x00000000   Number         0  defsig_rtmem_inner.o ABSOLUTE
    ../clib/signal.c                         0x00000000   Number         0  defsig_rtred_inner.o ABSOLUTE
    ../clib/signal.c                         0x00000000   Number         0  defsig_stak_inner.o ABSOLUTE
    ../clib/signal.c                         0x00000000   Number         0  defsig_fpe_outer.o ABSOLUTE
    ../clib/signal.c                         0x00000000   Number         0  defsig_abrt_inner.o ABSOLUTE
    ../clib/signal.c                         0x00000000   Number         0  defsig_general.o ABSOLUTE
    ../clib/signal.c                         0x00000000   Number         0  __raise.o ABSOLUTE
    ../clib/signal.c                         0x00000000   Number         0  defsig_exit.o ABSOLUTE
    ../clib/signal.c                         0x00000000   Number         0  defsig_fpe_inner.o ABSOLUTE
    ../clib/signal.s                         0x00000000   Number         0  defsig.o ABSOLUTE
    ../clib/stdlib.c                         0x00000000   Number         0  exit.o ABSOLUTE
    ../fplib/fpinit.s                        0x00000000   Number         0  fpinit.o ABSOLUTE
    ..\..\..\..\software\common\lpc43xx_gpio.c 0x00000000   Number         0  lpc43xx_gpio.o ABSOLUTE
    ..\..\..\..\software\common\lpc43xx_lcd.c 0x00000000   Number         0  lpc43xx_lcd.o ABSOLUTE
    ..\..\..\..\software\common\lpc43xx_scu.c 0x00000000   Number         0  lpc43xx_scu.o ABSOLUTE
    ..\..\..\..\software\common\lpc43xx_sdram.c 0x00000000   Number         0  lpc43xx_sdram.o ABSOLUTE
    ..\..\..\..\software\kernel\port\cpu.asm 0x00000000   Number         0  cpu.o ABSOLUTE
    ..\..\..\..\software\kernel\port\port.c  0x00000000   Number         0  port.o ABSOLUTE
    ..\..\..\..\software\kernel\port\port_error_process.c 0x00000000   Number         0  port_error_process.o ABSOLUTE
    ..\..\..\..\software\kernel\port\port_hook.c 0x00000000   Number         0  port_hook.o ABSOLUTE
    ..\..\..\..\software\kernel\port\raw_trace_port.c 0x00000000   Number         0  raw_trace_port.o ABSOLUTE
    ..\..\..\..\software\kernel\port\user_extension.c 0x00000000   Number         0  user_extension.o ABSOLUTE
    ..\..\..\..\software\kernel\raw-os\extension\lib\fifo.c 0x00000000   Number         0  fifo.o ABSOLUTE
    ..\..\..\..\software\kernel\raw-os\extension\lib\string.c 0x00000000   Number         0  string.o ABSOLUTE
    ..\..\..\..\software\kernel\raw-os\extension\shell\rsh.c 0x00000000   Number         0  rsh.o ABSOLUTE
    ..\..\..\..\software\kernel\raw-os\raw-os.c 0x00000000   Number         0  raw-os.o ABSOLUTE
    ..\..\board_common\uda1380.c             0x00000000   Number         0  uda1380.o ABSOLUTE
    ..\..\examples\lcd\main.c                0x00000000   Number         0  main.o ABSOLUTE
    ..\..\startup_code\keil_startup_lpc18xx43xx.s 0x00000000   Number         0  keil_startup_lpc18xx43xx.o ABSOLUTE
    ..\..\startup_code\sysinit.c             0x00000000   Number         0  sysinit.o ABSOLUTE
    ..\\..\\..\\..\\software\\common\\lpc43xx_gpio.c 0x00000000   Number         0  lpc43xx_gpio.o ABSOLUTE
    ..\\..\\..\\..\\software\\common\\lpc43xx_lcd.c 0x00000000   Number         0  lpc43xx_lcd.o ABSOLUTE
    ..\\..\\..\\..\\software\\common\\lpc43xx_scu.c 0x00000000   Number         0  lpc43xx_scu.o ABSOLUTE
    ..\\..\\..\\..\\software\\common\\lpc43xx_sdram.c 0x00000000   Number         0  lpc43xx_sdram.o ABSOLUTE
    ..\\..\\board_common\\uda1380.c          0x00000000   Number         0  uda1380.o ABSOLUTE
    ..\\..\\examples\\lcd\\main.c            0x00000000   Number         0  main.o ABSOLUTE
    ..\\..\\startup_code\\sysinit.c          0x00000000   Number         0  sysinit.o ABSOLUTE
    ..\\chip_common\\fpu_init.c              0x00000000   Number         0  fpu_init.o ABSOLUTE
    ..\chip_common\fpu_init.c                0x00000000   Number         0  fpu_init.o ABSOLUTE
    ..\chip_common\ring_buffer.c             0x00000000   Number         0  ring_buffer.o ABSOLUTE
    board.c                                  0x00000000   Number         0  board.o ABSOLUTE
    board.c                                  0x00000000   Number         0  board.o ABSOLUTE
    board_sysinit.c                          0x00000000   Number         0  board_sysinit.o ABSOLUTE
    board_sysinit.c                          0x00000000   Number         0  board_sysinit.o ABSOLUTE
    chip_18xx_43xx.c                         0x00000000   Number         0  chip_18xx_43xx.o ABSOLUTE
    chip_18xx_43xx.c                         0x00000000   Number         0  chip_18xx_43xx.o ABSOLUTE
    clock_18xx_43xx.c                        0x00000000   Number         0  clock_18xx_43xx.o ABSOLUTE
    clock_18xx_43xx.c                        0x00000000   Number         0  clock_18xx_43xx.o ABSOLUTE
    dc.s                                     0x00000000   Number         0  dc.o ABSOLUTE
    emc_18xx_43xx.c                          0x00000000   Number         0  emc_18xx_43xx.o ABSOLUTE
    emc_18xx_43xx.c                          0x00000000   Number         0  emc_18xx_43xx.o ABSOLUTE
    gpio_18xx_43xx.c                         0x00000000   Number         0  gpio_18xx_43xx.o ABSOLUTE
    gpio_18xx_43xx.c                         0x00000000   Number         0  gpio_18xx_43xx.o ABSOLUTE
    i2c_18xx_43xx.c                          0x00000000   Number         0  i2c_18xx_43xx.o ABSOLUTE
    i2c_18xx_43xx.c                          0x00000000   Number         0  i2c_18xx_43xx.o ABSOLUTE
    i2s_18xx_43xx.c                          0x00000000   Number         0  i2s_18xx_43xx.o ABSOLUTE
    i2s_18xx_43xx.c                          0x00000000   Number         0  i2s_18xx_43xx.o ABSOLUTE
    rgu_18xx_43xx.c                          0x00000000   Number         0  rgu_18xx_43xx.o ABSOLUTE
    rgu_18xx_43xx.c                          0x00000000   Number         0  rgu_18xx_43xx.o ABSOLUTE
    ssp_18xx_43xx.c                          0x00000000   Number         0  ssp_18xx_43xx.o ABSOLUTE
    ssp_18xx_43xx.c                          0x00000000   Number         0  ssp_18xx_43xx.o ABSOLUTE
    sysinit_18xx_43xx.c                      0x00000000   Number         0  sysinit_18xx_43xx.o ABSOLUTE
    sysinit_18xx_43xx.c                      0x00000000   Number         0  sysinit_18xx_43xx.o ABSOLUTE
    uart_18xx_43xx.c                         0x00000000   Number         0  uart_18xx_43xx.o ABSOLUTE
    uart_18xx_43xx.c                         0x00000000   Number         0  uart_18xx_43xx.o ABSOLUTE
    .data                                    0x10000000   Section       40  raw-os.o(.data)
    .data                                    0x10000028   Section       12  lpc43xx_lcd.o(.data)
    g_lcdHSize                               0x10000028   Data           4  lpc43xx_lcd.o(.data)
    g_lcdVSize                               0x1000002c   Data           4  lpc43xx_lcd.o(.data)
    lcd_frame_buffer                         0x10000030   Data           4  lpc43xx_lcd.o(.data)
    .data                                    0x10000034   Section        8  main.o(.data)
    .data                                    0x1000003c   Section       20  board.o(.data)
    .data                                    0x10000050   Section        4  chip_18xx_43xx.o(.data)
    .data                                    0x10000054   Section        8  clock_18xx_43xx.o(.data)
    audio_usb_pll_freq                       0x10000054   Data           8  clock_18xx_43xx.o(.data)
    .bss                                     0x1000005c   Section      996  raw-os.o(.bss)
    .bss                                     0x10000440   Section     1900  main.o(.bss)
    fifo_buffer                              0x10000b2c   Data         128  main.o(.bss)
    .bss                                     0x10000bac   Section       96  libspace.o(.bss)
    HEAP                                     0x10000c10   Section      256  keil_startup_lpc18xx43xx.o(HEAP)
    Heap_Mem                                 0x10000c10   Data         256  keil_startup_lpc18xx43xx.o(HEAP)
    STACK                                    0x10000d10   Section     1536  keil_startup_lpc18xx43xx.o(STACK)
    Stack_Mem                                0x10000d10   Data        1536  keil_startup_lpc18xx43xx.o(STACK)
    __initial_sp                             0x10001310   Data           0  keil_startup_lpc18xx43xx.o(STACK)
    RESET                                    0x1a000000   Section      276  keil_startup_lpc18xx43xx.o(RESET)
    !!!main                                  0x1a000114   Section        8  __main.o(!!!main)
    !!!scatter                               0x1a00011c   Section       52  __scatter.o(!!!scatter)
    !!handler_copy                           0x1a000150   Section       26  __scatter_copy.o(!!handler_copy)
    !!handler_zi                             0x1a00016c   Section       28  __scatter_zi.o(!!handler_zi)
    .ARM.Collect$$_printf_percent$$00000000  0x1a000188   Section        0  _printf_percent.o(.ARM.Collect$$_printf_percent$$00000000)
    .ARM.Collect$$_printf_percent$$00000009  0x1a000188   Section        6  _printf_d.o(.ARM.Collect$$_printf_percent$$00000009)
    .ARM.Collect$$_printf_percent$$00000017  0x1a00018e   Section        4  _printf_percent_end.o(.ARM.Collect$$_printf_percent$$00000017)
    .ARM.Collect$$libinit$$00000000          0x1a000192   Section        2  libinit.o(.ARM.Collect$$libinit$$00000000)
    .ARM.Collect$$libinit$$00000001          0x1a000194   Section        4  libinit2.o(.ARM.Collect$$libinit$$00000001)
    .ARM.Collect$$libinit$$00000004          0x1a000198   Section        0  libinit2.o(.ARM.Collect$$libinit$$00000004)
    .ARM.Collect$$libinit$$0000000A          0x1a000198   Section        0  libinit2.o(.ARM.Collect$$libinit$$0000000A)
    .ARM.Collect$$libinit$$0000000C          0x1a000198   Section        0  libinit2.o(.ARM.Collect$$libinit$$0000000C)
    .ARM.Collect$$libinit$$0000000E          0x1a000198   Section        0  libinit2.o(.ARM.Collect$$libinit$$0000000E)
    .ARM.Collect$$libinit$$00000011          0x1a000198   Section        0  libinit2.o(.ARM.Collect$$libinit$$00000011)
    .ARM.Collect$$libinit$$00000013          0x1a000198   Section        0  libinit2.o(.ARM.Collect$$libinit$$00000013)
    .ARM.Collect$$libinit$$00000015          0x1a000198   Section        0  libinit2.o(.ARM.Collect$$libinit$$00000015)
    .ARM.Collect$$libinit$$00000017          0x1a000198   Section        0  libinit2.o(.ARM.Collect$$libinit$$00000017)
    .ARM.Collect$$libinit$$00000019          0x1a000198   Section        0  libinit2.o(.ARM.Collect$$libinit$$00000019)
    .ARM.Collect$$libinit$$0000001B          0x1a000198   Section        0  libinit2.o(.ARM.Collect$$libinit$$0000001B)
    .ARM.Collect$$libinit$$0000001D          0x1a000198   Section        0  libinit2.o(.ARM.Collect$$libinit$$0000001D)
    .ARM.Collect$$libinit$$0000001F          0x1a000198   Section        0  libinit2.o(.ARM.Collect$$libinit$$0000001F)
    .ARM.Collect$$libinit$$00000021          0x1a000198   Section        0  libinit2.o(.ARM.Collect$$libinit$$00000021)
    .ARM.Collect$$libinit$$00000023          0x1a000198   Section        0  libinit2.o(.ARM.Collect$$libinit$$00000023)
    .ARM.Collect$$libinit$$00000025          0x1a000198   Section        0  libinit2.o(.ARM.Collect$$libinit$$00000025)
    .ARM.Collect$$libinit$$0000002C          0x1a000198   Section        0  libinit2.o(.ARM.Collect$$libinit$$0000002C)
    .ARM.Collect$$libinit$$0000002E          0x1a000198   Section        0  libinit2.o(.ARM.Collect$$libinit$$0000002E)
    .ARM.Collect$$libinit$$00000030          0x1a000198   Section        0  libinit2.o(.ARM.Collect$$libinit$$00000030)
    .ARM.Collect$$libinit$$00000032          0x1a000198   Section        0  libinit2.o(.ARM.Collect$$libinit$$00000032)
    .ARM.Collect$$libinit$$00000033          0x1a000198   Section        2  libinit2.o(.ARM.Collect$$libinit$$00000033)
    .ARM.Collect$$libshutdown$$00000000      0x1a00019a   Section        2  libshutdown.o(.ARM.Collect$$libshutdown$$00000000)
    .ARM.Collect$$libshutdown$$00000002      0x1a00019c   Section        0  libshutdown2.o(.ARM.Collect$$libshutdown$$00000002)
    .ARM.Collect$$libshutdown$$00000004      0x1a00019c   Section        0  libshutdown2.o(.ARM.Collect$$libshutdown$$00000004)
    .ARM.Collect$$libshutdown$$00000007      0x1a00019c   Section        0  libshutdown2.o(.ARM.Collect$$libshutdown$$00000007)
    .ARM.Collect$$libshutdown$$0000000A      0x1a00019c   Section        0  libshutdown2.o(.ARM.Collect$$libshutdown$$0000000A)
    .ARM.Collect$$libshutdown$$0000000C      0x1a00019c   Section        0  libshutdown2.o(.ARM.Collect$$libshutdown$$0000000C)
    .ARM.Collect$$libshutdown$$0000000F      0x1a00019c   Section        0  libshutdown2.o(.ARM.Collect$$libshutdown$$0000000F)
    .ARM.Collect$$libshutdown$$00000010      0x1a00019c   Section        2  libshutdown2.o(.ARM.Collect$$libshutdown$$00000010)
    .ARM.Collect$$rtentry$$00000000          0x1a00019e   Section        0  __rtentry.o(.ARM.Collect$$rtentry$$00000000)
    .ARM.Collect$$rtentry$$00000002          0x1a00019e   Section        0  __rtentry2.o(.ARM.Collect$$rtentry$$00000002)
    .ARM.Collect$$rtentry$$00000004          0x1a00019e   Section        6  __rtentry4.o(.ARM.Collect$$rtentry$$00000004)
    .ARM.Collect$$rtentry$$00000009          0x1a0001a4   Section        0  __rtentry2.o(.ARM.Collect$$rtentry$$00000009)
    .ARM.Collect$$rtentry$$0000000A          0x1a0001a4   Section        4  __rtentry2.o(.ARM.Collect$$rtentry$$0000000A)
    .ARM.Collect$$rtentry$$0000000C          0x1a0001a8   Section        0  __rtentry2.o(.ARM.Collect$$rtentry$$0000000C)
    .ARM.Collect$$rtentry$$0000000D          0x1a0001a8   Section        8  __rtentry2.o(.ARM.Collect$$rtentry$$0000000D)
    .ARM.Collect$$rtexit$$00000000           0x1a0001b0   Section        2  rtexit.o(.ARM.Collect$$rtexit$$00000000)
    .ARM.Collect$$rtexit$$00000002           0x1a0001b2   Section        0  rtexit2.o(.ARM.Collect$$rtexit$$00000002)
    .ARM.Collect$$rtexit$$00000003           0x1a0001b2   Section        4  rtexit2.o(.ARM.Collect$$rtexit$$00000003)
    .ARM.Collect$$rtexit$$00000004           0x1a0001b6   Section        6  rtexit2.o(.ARM.Collect$$rtexit$$00000004)
    .text                                    0x1a0001bc   Section        0  raw-os.o(.text)
    pend_task_wake_up                        0x1a000595   Thumb Code   126  raw-os.o(.text)
    is_list_empty                            0x1a0024ad   Thumb Code    32  raw-os.o(.text)
    list_insert                              0x1a0024cd   Thumb Code    14  raw-os.o(.text)
    list_delete                              0x1a0024db   Thumb Code    12  raw-os.o(.text)
    bit_set                                  0x1a0024e7   Thumb Code    20  raw-os.o(.text)
    add_to_priority_list                     0x1a0024fb   Thumb Code    28  raw-os.o(.text)
    release_mutex                            0x1a002517   Thumb Code    28  raw-os.o(.text)
    raw_byte_pool_search                     0x1a002533   Thumb Code   188  raw-os.o(.text)
    .text                                    0x1a0025fc   Section        0  fifo.o(.text)
    internal_fifo_out_peek                   0x1a00269d   Thumb Code    62  fifo.o(.text)
    .text                                    0x1a002770   Section      164  cpu.o(.text)
    $v0                                      0x1a002770   Number         0  cpu.o(.text)
    .text                                    0x1a002814   Section        0  port.o(.text)
    .text                                    0x1a00295a   Section        0  port_hook.o(.text)
    .text                                    0x1a00296c   Section        0  user_extension.o(.text)
    .text                                    0x1a0029f4   Section        0  port_error_process.o(.text)
    .text                                    0x1a002a4c   Section       68  keil_startup_lpc18xx43xx.o(.text)
    $v0                                      0x1a002a4c   Number         0  keil_startup_lpc18xx43xx.o(.text)
    .text                                    0x1a002a90   Section        0  sysinit.o(.text)
    .text                                    0x1a002aac   Section        0  lpc43xx_scu.o(.text)
    .text                                    0x1a002ac0   Section        0  lpc43xx_sdram.o(.text)
    .text                                    0x1a002f1c   Section        0  lpc43xx_gpio.o(.text)
    .text                                    0x1a002f5c   Section        0  lpc43xx_lcd.o(.text)
    .text                                    0x1a0032e8   Section        0  main.o(.text)
    NVIC_EnableIRQ                           0x1a0034c9   Thumb Code    22  main.o(.text)
    NVIC_SetPriority                         0x1a0034df   Thumb Code    32  main.o(.text)
    .text                                    0x1a003554   Section      238  lludivv7m.o(.text)
    .text                                    0x1a003644   Section        0  noretval__2printf.o(.text)
    .text                                    0x1a00365c   Section        0  __printf.o(.text)
    .text                                    0x1a0036c4   Section        0  _printf_dec.o(.text)
    .text                                    0x1a00373c   Section        0  heapauxi.o(.text)
    .text                                    0x1a003742   Section        0  _printf_intcommon.o(.text)
    .text                                    0x1a0037f4   Section        0  _printf_char_file.o(.text)
    .text                                    0x1a003818   Section        0  _printf_char_common.o(.text)
    _printf_input_char                       0x1a003819   Thumb Code    10  _printf_char_common.o(.text)
    .text                                    0x1a003848   Section       74  sys_stackheap_outer.o(.text)
    .text                                    0x1a003892   Section        0  exit.o(.text)
    .text                                    0x1a0038a4   Section        8  libspace.o(.text)
    i.Board_SetupClocking                    0x1a0038ac   Section        0  board_sysinit.o(i.Board_SetupClocking)
    i.Board_SetupMuxing                      0x1a003960   Section        0  board_sysinit.o(i.Board_SetupMuxing)
    i.Board_SystemInit                       0x1a0039ac   Section        0  board_sysinit.o(i.Board_SystemInit)
    i.Board_UARTPutChar                      0x1a0039b8   Section        0  board.o(i.Board_UARTPutChar)
    i.Board_UART_Init                        0x1a0039d8   Section        0  board.o(i.Board_UART_Init)
    i.Chip_Clock_EnableOpts                  0x1a003a1c   Section        0  clock_18xx_43xx.o(i.Chip_Clock_EnableOpts)
    i.Chip_Clock_FindBaseClock               0x1a003a58   Section        0  clock_18xx_43xx.o(i.Chip_Clock_FindBaseClock)
    Chip_Clock_FindBaseClock                 0x1a003a59   Thumb Code    74  clock_18xx_43xx.o(i.Chip_Clock_FindBaseClock)
    i.Chip_Clock_GetBaseClock                0x1a003aa8   Section        0  clock_18xx_43xx.o(i.Chip_Clock_GetBaseClock)
    i.Chip_Clock_GetBaseClocktHz             0x1a003acc   Section        0  clock_18xx_43xx.o(i.Chip_Clock_GetBaseClocktHz)
    i.Chip_Clock_GetClockInputHz             0x1a003ae0   Section        0  clock_18xx_43xx.o(i.Chip_Clock_GetClockInputHz)
    i.Chip_Clock_GetDivRate                  0x1a003bb4   Section        0  clock_18xx_43xx.o(i.Chip_Clock_GetDivRate)
    Chip_Clock_GetDivRate                    0x1a003bb5   Thumb Code    40  clock_18xx_43xx.o(i.Chip_Clock_GetDivRate)
    i.Chip_Clock_GetDividerDivisor           0x1a003bdc   Section        0  clock_18xx_43xx.o(i.Chip_Clock_GetDividerDivisor)
    i.Chip_Clock_GetDividerSource            0x1a003bfc   Section        0  clock_18xx_43xx.o(i.Chip_Clock_GetDividerSource)
    i.Chip_Clock_GetMainPLLHz                0x1a003c1c   Section        0  clock_18xx_43xx.o(i.Chip_Clock_GetMainPLLHz)
    i.Chip_Clock_GetRate                     0x1a003c94   Section        0  clock_18xx_43xx.o(i.Chip_Clock_GetRate)
    i.Chip_Clock_SetBaseClock                0x1a003cec   Section        0  clock_18xx_43xx.o(i.Chip_Clock_SetBaseClock)
    i.Chip_Clock_SetDivider                  0x1a003d34   Section        0  clock_18xx_43xx.o(i.Chip_Clock_SetDivider)
    i.Chip_RGU_InReset                       0x1a003d84   Section        0  rgu_18xx_43xx.o(i.Chip_RGU_InReset)
    i.Chip_RGU_TriggerReset                  0x1a003dbc   Section        0  rgu_18xx_43xx.o(i.Chip_RGU_TriggerReset)
    i.Chip_SCU_PinMuxSet                     0x1a003de8   Section        0  board.o(i.Chip_SCU_PinMuxSet)
    Chip_SCU_PinMuxSet                       0x1a003de9   Thumb Code    12  board.o(i.Chip_SCU_PinMuxSet)
    i.Chip_SCU_SetPinMuxing                  0x1a003df8   Section        0  board_sysinit.o(i.Chip_SCU_SetPinMuxing)
    Chip_SCU_SetPinMuxing                    0x1a003df9   Thumb Code    44  board_sysinit.o(i.Chip_SCU_SetPinMuxing)
    i.Chip_SetupCoreClock                    0x1a003e28   Section        0  sysinit_18xx_43xx.o(i.Chip_SetupCoreClock)
    i.Chip_UART_DisableDivisorAccess         0x1a003e36   Section        0  uart_18xx_43xx.o(i.Chip_UART_DisableDivisorAccess)
    Chip_UART_DisableDivisorAccess           0x1a003e37   Thumb Code    10  uart_18xx_43xx.o(i.Chip_UART_DisableDivisorAccess)
    i.Chip_UART_EnableDivisorAccess          0x1a003e40   Section        0  uart_18xx_43xx.o(i.Chip_UART_EnableDivisorAccess)
    Chip_UART_EnableDivisorAccess            0x1a003e41   Thumb Code    10  uart_18xx_43xx.o(i.Chip_UART_EnableDivisorAccess)
    i.Chip_UART_GetClockIndex                0x1a003e4c   Section        0  uart_18xx_43xx.o(i.Chip_UART_GetClockIndex)
    Chip_UART_GetClockIndex                  0x1a003e4d   Thumb Code    36  uart_18xx_43xx.o(i.Chip_UART_GetClockIndex)
    i.Chip_UART_Init                         0x1a003e7c   Section        0  uart_18xx_43xx.o(i.Chip_UART_Init)
    i.Chip_UART_SetBaud                      0x1a003ec8   Section        0  uart_18xx_43xx.o(i.Chip_UART_SetBaud)
    i.Chip_UART_SetDivisorLatches            0x1a003f0a   Section        0  uart_18xx_43xx.o(i.Chip_UART_SetDivisorLatches)
    Chip_UART_SetDivisorLatches              0x1a003f0b   Thumb Code     6  uart_18xx_43xx.o(i.Chip_UART_SetDivisorLatches)
    i.SystemCoreClockUpdate                  0x1a003f10   Section        0  chip_18xx_43xx.o(i.SystemCoreClockUpdate)
    i._sys_exit                              0x1a003f24   Section        0  board.o(i._sys_exit)
    i.clock_init_delay                       0x1a003f2a   Section        0  sysinit_18xx_43xx.o(i.clock_init_delay)
    clock_init_delay                         0x1a003f2b   Thumb Code    36  sysinit_18xx_43xx.o(i.clock_init_delay)
    i.clock_main_init                        0x1a003f50   Section        0  sysinit_18xx_43xx.o(i.clock_main_init)
    clock_main_init                          0x1a003f51   Thumb Code   168  sysinit_18xx_43xx.o(i.clock_main_init)
    i.ferror                                 0x1a00400c   Section        0  board.o(i.ferror)
    i.fpuInit                                0x1a004014   Section        0  fpu_init.o(i.fpuInit)
    i.fputc                                  0x1a004064   Section        0  board.o(i.fputc)
    x$fpl$fpinit                             0x1a004078   Section       10  fpinit.o(x$fpl$fpinit)
    $v0                                      0x1a004078   Number         0  fpinit.o(x$fpl$fpinit)
    .constdata                               0x1a004084   Section       64  board.o(.constdata)
    ledports                                 0x1a004084   Data           8  board.o(.constdata)
    ledbits                                  0x1a00408c   Data           8  board.o(.constdata)
    .constdata                               0x1a0040c4   Section      700  board_sysinit.o(.constdata)
    InitClkStates                            0x1a0040c4   Data          16  board_sysinit.o(.constdata)
    spifipinmuxing                           0x1a0040d4   Data          24  board_sysinit.o(.constdata)
    pinmuxing                                0x1a0040ec   Data         496  board_sysinit.o(.constdata)
    pinclockmuxing                           0x1a0042dc   Data          16  board_sysinit.o(.constdata)
    MT48LC4M32_config                        0x1a0042ec   Data         116  board_sysinit.o(.constdata)
    S29GL64N90_config                        0x1a004360   Data          32  board_sysinit.o(.constdata)
    .constdata                               0x1a004380   Section      108  clock_18xx_43xx.o(.constdata)
    periph_to_base                           0x1a004380   Data         108  clock_18xx_43xx.o(.constdata)
    .constdata                               0x1a0043ec   Section       72  sysinit_18xx_43xx.o(.constdata)
    InitClkStates                            0x1a0043ec   Data          72  sysinit_18xx_43xx.o(.constdata)

    Global Symbols

    Symbol Name                              Value     Ov Type        Size  Object(Section)

    BuildAttributes$$THM_ISAv4$E$P$D$K$B$S$7EM$VFPi3$EXTD16$VFPS$VFMA$PE$A:L22UL41UL21$X:L11$S22US41US21$IEEE1$IW$USESV6$~STKCKD$USESV7$~SHL$OSPACE$ROPI$EBA8$UX$STANDARDLIB$REQ8$PRES8$EABIv2 0x00000000   Number         0  anon$$obj.o ABSOLUTE
    __ARM_use_no_argv                        0x00000000   Number         0  main.o ABSOLUTE
    __ARM_exceptions_init                     - Undefined Weak Reference
    __alloca_initialize                       - Undefined Weak Reference
    __arm_preinit_                            - Undefined Weak Reference
    __cpp_initialize__aeabi_                  - Undefined Weak Reference
    __cxa_finalize                            - Undefined Weak Reference
    __rt_locale                               - Undefined Weak Reference
    __sigvec_lookup                           - Undefined Weak Reference
    _atexit_init                              - Undefined Weak Reference
    _call_atexit_fns                          - Undefined Weak Reference
    _clock_init                               - Undefined Weak Reference
    _fp_trap_init                             - Undefined Weak Reference
    _fp_trap_shutdown                         - Undefined Weak Reference
    _get_lc_collate                           - Undefined Weak Reference
    _get_lc_ctype                             - Undefined Weak Reference
    _get_lc_monetary                          - Undefined Weak Reference
    _get_lc_numeric                           - Undefined Weak Reference
    _get_lc_time                              - Undefined Weak Reference
    _getenv_init                              - Undefined Weak Reference
    _handle_redirection                       - Undefined Weak Reference
    _init_alloc                               - Undefined Weak Reference
    _init_user_alloc                          - Undefined Weak Reference
    _initio                                   - Undefined Weak Reference
    _printf_post_padding                      - Undefined Weak Reference
    _printf_pre_padding                       - Undefined Weak Reference
    _printf_truncate_signed                   - Undefined Weak Reference
    _printf_truncate_unsigned                 - Undefined Weak Reference
    _rand_init                                - Undefined Weak Reference
    _signal_finish                            - Undefined Weak Reference
    _signal_init                              - Undefined Weak Reference
    _terminate_alloc                          - Undefined Weak Reference
    _terminate_user_alloc                     - Undefined Weak Reference
    _terminateio                              - Undefined Weak Reference
    idle_task_exit                           0x10000000   Data           1  raw-os.o(.data)
    raw_sched_lock                           0x10000001   Data           1  raw-os.o(.data)
    raw_int_nesting                          0x10000002   Data           1  raw-os.o(.data)
    raw_os_active                            0x10000004   Data           2  raw-os.o(.data)
    high_ready_obj                           0x10000008   Data           4  raw-os.o(.data)
    raw_task_active                          0x1000000c   Data           4  raw-os.o(.data)
    raw_tick_count                           0x10000010   Data           4  raw-os.o(.data)
    raw_idle_count                           0x10000018   Data           8  raw-os.o(.data)
    sys_time_tick                            0x10000020   Data           8  raw-os.o(.data)
    g_lcdShowMemory                          0x10000034   Data           4  main.o(.data)
    frame                                    0x10000038   Data           4  main.o(.data)
    __stdout                                 0x1000003c   Data           4  board.o(.data)
    __stdin                                  0x10000040   Data           4  board.o(.data)
    __stderr                                 0x10000044   Data           4  board.o(.data)
    g_isPenDn                                0x10000048   Data           4  board.o(.data)
    g_isNewPenDn                             0x1000004c   Data           4  board.o(.data)
    SystemCoreClock                          0x10000050   Data           4  chip_18xx_43xx.o(.data)
    raw_ready_queue                          0x1000005c   Data         508  raw-os.o(.bss)
    raw_idle_obj                             0x10000258   Data         112  raw-os.o(.bss)
    idle_stack                               0x100002c8   Data         256  raw-os.o(.bss)
    tick_head                                0x100003c8   Data          64  raw-os.o(.bss)
    raw_task_debug                           0x10000408   Data          56  raw-os.o(.bss)
    shell_task_stack                         0x10000440   Data        1600  main.o(.bss)
    shell_task_obj                           0x10000a80   Data         112  main.o(.bss)
    uart_sema                                0x10000af0   Data          36  main.o(.bss)
    uart_fifo                                0x10000b14   Data          24  main.o(.bss)
    __libspace_start                         0x10000bac   Data          96  libspace.o(.bss)
    __temporary_stack_top$libspace           0x10000c0c   Data           0  libspace.o(.bss)
    __Vectors                                0x1a000000   Data           4  keil_startup_lpc18xx43xx.o(RESET)
    __main                                   0x1a000115   Thumb Code     8  __main.o(!!!main)
    __scatterload                            0x1a00011d   Thumb Code     0  __scatter.o(!!!scatter)
    __scatterload_rt2                        0x1a00011d   Thumb Code    44  __scatter.o(!!!scatter)
    __scatterload_rt2_thumb_only             0x1a00011d   Thumb Code     0  __scatter.o(!!!scatter)
    __scatterload_null                       0x1a00012b   Thumb Code     0  __scatter.o(!!!scatter)
    __scatterload_copy                       0x1a000151   Thumb Code    26  __scatter_copy.o(!!handler_copy)
    __scatterload_zeroinit                   0x1a00016d   Thumb Code    28  __scatter_zi.o(!!handler_zi)
    _printf_d                                0x1a000189   Thumb Code     0  _printf_d.o(.ARM.Collect$$_printf_percent$$00000009)
    _printf_percent                          0x1a000189   Thumb Code     0  _printf_percent.o(.ARM.Collect$$_printf_percent$$00000000)
    _printf_percent_end                      0x1a00018f   Thumb Code     0  _printf_percent_end.o(.ARM.Collect$$_printf_percent$$00000017)
    __rt_lib_init                            0x1a000193   Thumb Code     0  libinit.o(.ARM.Collect$$libinit$$00000000)
    __rt_lib_init_fp_1                       0x1a000195   Thumb Code     0  libinit2.o(.ARM.Collect$$libinit$$00000001)
    __rt_lib_init_alloca_1                   0x1a000199   Thumb Code     0  libinit2.o(.ARM.Collect$$libinit$$0000002E)
    __rt_lib_init_argv_1                     0x1a000199   Thumb Code     0  libinit2.o(.ARM.Collect$$libinit$$0000002C)
    __rt_lib_init_atexit_1                   0x1a000199   Thumb Code     0  libinit2.o(.ARM.Collect$$libinit$$0000001B)
    __rt_lib_init_clock_1                    0x1a000199   Thumb Code     0  libinit2.o(.ARM.Collect$$libinit$$00000021)
    __rt_lib_init_cpp_1                      0x1a000199   Thumb Code     0  libinit2.o(.ARM.Collect$$libinit$$00000032)
    __rt_lib_init_exceptions_1               0x1a000199   Thumb Code     0  libinit2.o(.ARM.Collect$$libinit$$00000030)
    __rt_lib_init_fp_trap_1                  0x1a000199   Thumb Code     0  libinit2.o(.ARM.Collect$$libinit$$0000001F)
    __rt_lib_init_getenv_1                   0x1a000199   Thumb Code     0  libinit2.o(.ARM.Collect$$libinit$$00000023)
    __rt_lib_init_heap_1                     0x1a000199   Thumb Code     0  libinit2.o(.ARM.Collect$$libinit$$0000000A)
    __rt_lib_init_lc_collate_1               0x1a000199   Thumb Code     0  libinit2.o(.ARM.Collect$$libinit$$00000011)
    __rt_lib_init_lc_ctype_1                 0x1a000199   Thumb Code     0  libinit2.o(.ARM.Collect$$libinit$$00000013)
    __rt_lib_init_lc_monetary_1              0x1a000199   Thumb Code     0  libinit2.o(.ARM.Collect$$libinit$$00000015)
    __rt_lib_init_lc_numeric_1               0x1a000199   Thumb Code     0  libinit2.o(.ARM.Collect$$libinit$$00000017)
    __rt_lib_init_lc_time_1                  0x1a000199   Thumb Code     0  libinit2.o(.ARM.Collect$$libinit$$00000019)
    __rt_lib_init_preinit_1                  0x1a000199   Thumb Code     0  libinit2.o(.ARM.Collect$$libinit$$00000004)
    __rt_lib_init_rand_1                     0x1a000199   Thumb Code     0  libinit2.o(.ARM.Collect$$libinit$$0000000E)
    __rt_lib_init_return                     0x1a000199   Thumb Code     0  libinit2.o(.ARM.Collect$$libinit$$00000033)
    __rt_lib_init_signal_1                   0x1a000199   Thumb Code     0  libinit2.o(.ARM.Collect$$libinit$$0000001D)
    __rt_lib_init_stdio_1                    0x1a000199   Thumb Code     0  libinit2.o(.ARM.Collect$$libinit$$00000025)
    __rt_lib_init_user_alloc_1               0x1a000199   Thumb Code     0  libinit2.o(.ARM.Collect$$libinit$$0000000C)
    __rt_lib_shutdown                        0x1a00019b   Thumb Code     0  libshutdown.o(.ARM.Collect$$libshutdown$$00000000)
    __rt_lib_shutdown_cpp_1                  0x1a00019d   Thumb Code     0  libshutdown2.o(.ARM.Collect$$libshutdown$$00000002)
    __rt_lib_shutdown_fp_trap_1              0x1a00019d   Thumb Code     0  libshutdown2.o(.ARM.Collect$$libshutdown$$00000007)
    __rt_lib_shutdown_heap_1                 0x1a00019d   Thumb Code     0  libshutdown2.o(.ARM.Collect$$libshutdown$$0000000F)
    __rt_lib_shutdown_return                 0x1a00019d   Thumb Code     0  libshutdown2.o(.ARM.Collect$$libshutdown$$00000010)
    __rt_lib_shutdown_signal_1               0x1a00019d   Thumb Code     0  libshutdown2.o(.ARM.Collect$$libshutdown$$0000000A)
    __rt_lib_shutdown_stdio_1                0x1a00019d   Thumb Code     0  libshutdown2.o(.ARM.Collect$$libshutdown$$00000004)
    __rt_lib_shutdown_user_alloc_1           0x1a00019d   Thumb Code     0  libshutdown2.o(.ARM.Collect$$libshutdown$$0000000C)
    __rt_entry                               0x1a00019f   Thumb Code     0  __rtentry.o(.ARM.Collect$$rtentry$$00000000)
    __rt_entry_presh_1                       0x1a00019f   Thumb Code     0  __rtentry2.o(.ARM.Collect$$rtentry$$00000002)
    __rt_entry_sh                            0x1a00019f   Thumb Code     0  __rtentry4.o(.ARM.Collect$$rtentry$$00000004)
    __rt_entry_li                            0x1a0001a5   Thumb Code     0  __rtentry2.o(.ARM.Collect$$rtentry$$0000000A)
    __rt_entry_postsh_1                      0x1a0001a5   Thumb Code     0  __rtentry2.o(.ARM.Collect$$rtentry$$00000009)
    __rt_entry_main                          0x1a0001a9   Thumb Code     0  __rtentry2.o(.ARM.Collect$$rtentry$$0000000D)
    __rt_entry_postli_1                      0x1a0001a9   Thumb Code     0  __rtentry2.o(.ARM.Collect$$rtentry$$0000000C)
    __rt_exit                                0x1a0001b1   Thumb Code     0  rtexit.o(.ARM.Collect$$rtexit$$00000000)
    __rt_exit_ls                             0x1a0001b3   Thumb Code     0  rtexit2.o(.ARM.Collect$$rtexit$$00000003)
    __rt_exit_prels_1                        0x1a0001b3   Thumb Code     0  rtexit2.o(.ARM.Collect$$rtexit$$00000002)
    __rt_exit_exit                           0x1a0001b7   Thumb Code     0  rtexit2.o(.ARM.Collect$$rtexit$$00000004)
    get_ready_task                           0x1a0001bd   Thumb Code    16  raw-os.o(.text)
    raw_sched                                0x1a0001cd   Thumb Code    46  raw-os.o(.text)
    raw_idle_task                            0x1a0001fb   Thumb Code    30  raw-os.o(.text)
    add_ready_list_end                       0x1a000219   Thumb Code    38  raw-os.o(.text)
    raw_task_create                          0x1a00023f   Thumb Code   260  raw-os.o(.text)
    tick_list_init                           0x1a000343   Thumb Code    24  raw-os.o(.text)
    run_queue_init                           0x1a00035b   Thumb Code    26  raw-os.o(.text)
    raw_os_init                              0x1a000375   Thumb Code   108  raw-os.o(.text)
    raw_os_start                             0x1a0003e1   Thumb Code    36  raw-os.o(.text)
    move_to_ready_list_end                   0x1a000405   Thumb Code    30  raw-os.o(.text)
    calculate_time_slice                     0x1a000423   Thumb Code    76  raw-os.o(.text)
    add_ready_list_head                      0x1a00046f   Thumb Code    38  raw-os.o(.text)
    add_ready_list                           0x1a000495   Thumb Code    16  raw-os.o(.text)
    bit_search_first_one                     0x1a0004a5   Thumb Code   116  raw-os.o(.text)
    remove_ready_list                        0x1a000519   Thumb Code   100  raw-os.o(.text)
    tick_list_remove                         0x1a00057d   Thumb Code    24  raw-os.o(.text)
    raw_wake_object                          0x1a000613   Thumb Code     2  raw-os.o(.text)
    wake_send_msg                            0x1a000615   Thumb Code     4  raw-os.o(.text)
    wake_send_msg_size                       0x1a000619   Thumb Code     6  raw-os.o(.text)
    tick_list_insert                         0x1a00061f   Thumb Code    62  raw-os.o(.text)
    raw_pend_object                          0x1a00065d   Thumb Code    68  raw-os.o(.text)
    delete_pend_obj                          0x1a0006a1   Thumb Code    94  raw-os.o(.text)
    change_pend_list_priority                0x1a0006ff   Thumb Code    32  raw-os.o(.text)
    raw_task_stack_check                     0x1a00071f   Thumb Code    52  raw-os.o(.text)
    raw_disable_sche                         0x1a000753   Thumb Code    42  raw-os.o(.text)
    raw_enable_sche                          0x1a00077d   Thumb Code    58  raw-os.o(.text)
    block_state_post_process                 0x1a0007b7   Thumb Code    62  raw-os.o(.text)
    raw_sleep                                0x1a0007f5   Thumb Code    98  raw-os.o(.text)
    raw_task_yield                           0x1a000857   Thumb Code    36  raw-os.o(.text)
    raw_time_sleep                           0x1a00087b   Thumb Code    94  raw-os.o(.text)
    task_suspend                             0x1a0008d9   Thumb Code   142  raw-os.o(.text)
    raw_task_suspend                         0x1a000967   Thumb Code    22  raw-os.o(.text)
    task_resume                              0x1a00097d   Thumb Code   160  raw-os.o(.text)
    raw_task_resume                          0x1a000a1d   Thumb Code    10  raw-os.o(.text)
    mutex_priority_look                      0x1a000a27   Thumb Code    72  raw-os.o(.text)
    change_internal_task_priority            0x1a000a6f   Thumb Code   154  raw-os.o(.text)
    chg_pri_mutex                            0x1a000b09   Thumb Code   114  raw-os.o(.text)
    raw_task_priority_change                 0x1a000b7b   Thumb Code   134  raw-os.o(.text)
    mutex_state_change                       0x1a000c01   Thumb Code    34  raw-os.o(.text)
    raw_task_free_mutex                      0x1a000c23   Thumb Code    66  raw-os.o(.text)
    raw_task_delete                          0x1a000c65   Thumb Code   176  raw-os.o(.text)
    raw_set_task_user_point                  0x1a000d15   Thumb Code    26  raw-os.o(.text)
    raw_get_task_user_point                  0x1a000d2f   Thumb Code     8  raw-os.o(.text)
    raw_task_time_slice_change               0x1a000d37   Thumb Code    52  raw-os.o(.text)
    raw_set_sched_way                        0x1a000d6b   Thumb Code    54  raw-os.o(.text)
    raw_get_sched_way                        0x1a000da1   Thumb Code    44  raw-os.o(.text)
    raw_task_wait_abort                      0x1a000dcd   Thumb Code   172  raw-os.o(.text)
    raw_task_identify                        0x1a000e79   Thumb Code     6  raw-os.o(.text)
    raw_iter_block_task                      0x1a000e7f   Thumb Code    70  raw-os.o(.text)
    raw_get_system_global_space              0x1a000ec5   Thumb Code     6  raw-os.o(.text)
    raw_block_pool_create                    0x1a000ecb   Thumb Code   108  raw-os.o(.text)
    raw_block_allocate                       0x1a000f37   Thumb Code    76  raw-os.o(.text)
    raw_block_release                        0x1a000f83   Thumb Code    52  raw-os.o(.text)
    raw_byte_pool_create                     0x1a000fb7   Thumb Code    88  raw-os.o(.text)
    raw_byte_allocate                        0x1a00100f   Thumb Code    94  raw-os.o(.text)
    raw_byte_release                         0x1a00106d   Thumb Code    64  raw-os.o(.text)
    raw_event_create                         0x1a0010ad   Thumb Code    42  raw-os.o(.text)
    raw_event_get                            0x1a0010d7   Thumb Code   216  raw-os.o(.text)
    event_set                                0x1a0011af   Thumb Code   130  raw-os.o(.text)
    raw_event_set                            0x1a001231   Thumb Code    22  raw-os.o(.text)
    raw_event_delete                         0x1a001247   Thumb Code   112  raw-os.o(.text)
    raw_mutex_create                         0x1a0012b7   Thumb Code    64  raw-os.o(.text)
    raw_mutex_get                            0x1a0012f7   Thumb Code   268  raw-os.o(.text)
    raw_mutex_put                            0x1a001403   Thumb Code   168  raw-os.o(.text)
    raw_mutex_delete                         0x1a0014ab   Thumb Code   104  raw-os.o(.text)
    raw_queue_create                         0x1a001513   Thumb Code    80  raw-os.o(.text)
    raw_queue_full_register                  0x1a001563   Thumb Code    32  raw-os.o(.text)
    msg_post                                 0x1a001583   Thumb Code   198  raw-os.o(.text)
    raw_queue_front_post                     0x1a001649   Thumb Code    22  raw-os.o(.text)
    raw_queue_end_post                       0x1a00165f   Thumb Code    22  raw-os.o(.text)
    raw_queue_post_notify                    0x1a001675   Thumb Code    22  raw-os.o(.text)
    raw_queue_all_post                       0x1a00168b   Thumb Code    20  raw-os.o(.text)
    raw_queue_send_notify                    0x1a00169f   Thumb Code    64  raw-os.o(.text)
    raw_queue_receive                        0x1a0016df   Thumb Code   214  raw-os.o(.text)
    raw_queue_full_check                     0x1a0017b5   Thumb Code    58  raw-os.o(.text)
    raw_queue_flush                          0x1a0017ef   Thumb Code    62  raw-os.o(.text)
    raw_queue_delete                         0x1a00182d   Thumb Code    94  raw-os.o(.text)
    raw_queue_get_information                0x1a00188b   Thumb Code    82  raw-os.o(.text)
    raw_queue_buffer_create                  0x1a0018dd   Thumb Code    98  raw-os.o(.text)
    queue_buffer_post                        0x1a00193f   Thumb Code   194  raw-os.o(.text)
    raw_queue_buffer_end_post                0x1a001a01   Thumb Code    30  raw-os.o(.text)
    raw_queue_buffer_receive                 0x1a001a1f   Thumb Code   288  raw-os.o(.text)
    raw_queue_buffer_flush                   0x1a001b3f   Thumb Code    62  raw-os.o(.text)
    raw_queue_buffer_delete                  0x1a001b7d   Thumb Code   104  raw-os.o(.text)
    raw_queue_buffer_info_get                0x1a001be5   Thumb Code    58  raw-os.o(.text)
    raw_queue_size_create                    0x1a001c1f   Thumb Code    90  raw-os.o(.text)
    raw_queue_size_full_register             0x1a001c79   Thumb Code    32  raw-os.o(.text)
    msg_size_post                            0x1a001c99   Thumb Code   198  raw-os.o(.text)
    raw_queue_size_receive                   0x1a001d5f   Thumb Code   258  raw-os.o(.text)
    raw_queue_size_front_post                0x1a001e61   Thumb Code    30  raw-os.o(.text)
    raw_queue_size_end_post                  0x1a001e7f   Thumb Code    30  raw-os.o(.text)
    raw_queue_size_all_post                  0x1a001e9d   Thumb Code    28  raw-os.o(.text)
    raw_queue_size_full_check                0x1a001eb9   Thumb Code    58  raw-os.o(.text)
    raw_queue_size_flush                     0x1a001ef3   Thumb Code    74  raw-os.o(.text)
    raw_queue_size_delete                    0x1a001f3d   Thumb Code    94  raw-os.o(.text)
    raw_queue_size_get_information           0x1a001f9b   Thumb Code    78  raw-os.o(.text)
    raw_semaphore_create                     0x1a001fe9   Thumb Code    56  raw-os.o(.text)
    semaphore_put                            0x1a002021   Thumb Code   138  raw-os.o(.text)
    raw_semaphore_put                        0x1a0020ab   Thumb Code    12  raw-os.o(.text)
    raw_semaphore_put_notify                 0x1a0020b7   Thumb Code    12  raw-os.o(.text)
    raw_semaphore_put_all                    0x1a0020c3   Thumb Code    12  raw-os.o(.text)
    raw_semphore_send_notify                 0x1a0020cf   Thumb Code    56  raw-os.o(.text)
    raw_semaphore_get                        0x1a002107   Thumb Code   140  raw-os.o(.text)
    raw_semaphore_set                        0x1a002193   Thumb Code    84  raw-os.o(.text)
    raw_semaphore_delete                     0x1a0021e7   Thumb Code    94  raw-os.o(.text)
    raw_stack_check                          0x1a002245   Thumb Code    68  raw-os.o(.text)
    raw_finish_int                           0x1a002289   Thumb Code    80  raw-os.o(.text)
    tick_list_update                         0x1a0022d9   Thumb Code   226  raw-os.o(.text)
    raw_time_tick                            0x1a0023bb   Thumb Code    38  raw-os.o(.text)
    raw_enter_interrupt                      0x1a0023e1   Thumb Code    62  raw-os.o(.text)
    raw_system_time_get                      0x1a00241f   Thumb Code    36  raw-os.o(.text)
    raw_os_version_get                       0x1a002443   Thumb Code     6  raw-os.o(.text)
    raw_task_qsize_create                    0x1a002449   Thumb Code    22  raw-os.o(.text)
    raw_task_qsize_receive                   0x1a00245f   Thumb Code    20  raw-os.o(.text)
    raw_task_qsize_front_post                0x1a002473   Thumb Code     4  raw-os.o(.text)
    raw_task_qsize_end_post                  0x1a002477   Thumb Code     4  raw-os.o(.text)
    raw_task_qsize_flush                     0x1a00247b   Thumb Code     4  raw-os.o(.text)
    raw_task_qsize_delete                    0x1a00247f   Thumb Code     4  raw-os.o(.text)
    raw_task_qsize_get_information           0x1a002483   Thumb Code     4  raw-os.o(.text)
    raw_task_semaphore_create                0x1a002487   Thumb Code    16  raw-os.o(.text)
    raw_task_semaphore_put                   0x1a002497   Thumb Code     4  raw-os.o(.text)
    raw_task_semaphore_get                   0x1a00249b   Thumb Code    10  raw-os.o(.text)
    raw_task_semaphore_set                   0x1a0024a5   Thumb Code     4  raw-os.o(.text)
    raw_task_semaphore_delete                0x1a0024a9   Thumb Code     4  raw-os.o(.text)
    fifo_init                                0x1a0025fd   Thumb Code    68  fifo.o(.text)
    fifo_in                                  0x1a002641   Thumb Code    92  fifo.o(.text)
    fifo_out_peek                            0x1a0026db   Thumb Code    38  fifo.o(.text)
    fifo_out                                 0x1a002701   Thumb Code    50  fifo.o(.text)
    fifo_out_all                             0x1a002733   Thumb Code    62  fifo.o(.text)
    OS_CPU_SR_Save                           0x1a002771   Thumb Code     0  cpu.o(.text)
    OS_CPU_SR_Restore                        0x1a002779   Thumb Code     0  cpu.o(.text)
    CPU_IntDis                               0x1a00277f   Thumb Code     0  cpu.o(.text)
    CPU_IntEn                                0x1a002783   Thumb Code     0  cpu.o(.text)
    raw_start_first_task                     0x1a002787   Thumb Code     0  cpu.o(.text)
    port_task_switch                         0x1a0027af   Thumb Code     0  cpu.o(.text)
    raw_int_switch                           0x1a0027b9   Thumb Code     0  cpu.o(.text)
    PendSV_Handler                           0x1a0027c3   Thumb Code     0  cpu.o(.text)
    port_stack_init                          0x1a002815   Thumb Code   324  port.o(.text)
    port_isr_stack_check                     0x1a002959   Thumb Code     2  port.o(.text)
    raw_os_init_hook                         0x1a00295b   Thumb Code     2  port_hook.o(.text)
    raw_task_delete_hook                     0x1a00295d   Thumb Code     2  port_hook.o(.text)
    raw_task_abort_hook                      0x1a00295f   Thumb Code     2  port_hook.o(.text)
    raw_idle_task_hook                       0x1a002961   Thumb Code     2  port_hook.o(.text)
    raw_task_switch_hook                     0x1a002963   Thumb Code     2  port_hook.o(.text)
    raw_tick_hook                            0x1a002965   Thumb Code     2  port_hook.o(.text)
    task_create_hook                         0x1a002967   Thumb Code     2  port_hook.o(.text)
    raw_idle_coroutine_hook                  0x1a002969   Thumb Code     4  port_hook.o(.text)
    raw_memcpy                               0x1a00296d   Thumb Code    74  user_extension.o(.text)
    raw_memset                               0x1a0029b7   Thumb Code    62  user_extension.o(.text)
    port_system_error_process                0x1a0029f5   Thumb Code    88  port_error_process.o(.text)
    Reset_Handler                            0x1a002a4d   Thumb Code     8  keil_startup_lpc18xx43xx.o(.text)
    NMI_Handler                              0x1a002a55   Thumb Code     2  keil_startup_lpc18xx43xx.o(.text)
    HardFault_Handler                        0x1a002a57   Thumb Code     2  keil_startup_lpc18xx43xx.o(.text)
    MemManage_Handler                        0x1a002a59   Thumb Code     2  keil_startup_lpc18xx43xx.o(.text)
    BusFault_Handler                         0x1a002a5b   Thumb Code     2  keil_startup_lpc18xx43xx.o(.text)
    UsageFault_Handler                       0x1a002a5d   Thumb Code     2  keil_startup_lpc18xx43xx.o(.text)
    SVC_Handler                              0x1a002a5f   Thumb Code     2  keil_startup_lpc18xx43xx.o(.text)
    DebugMon_Handler                         0x1a002a61   Thumb Code     2  keil_startup_lpc18xx43xx.o(.text)
    UnHandled_Vector                         0x1a002a67   Thumb Code     2  keil_startup_lpc18xx43xx.o(.text)
    ADC0_IRQHandler                          0x1a002a69   Thumb Code     0  keil_startup_lpc18xx43xx.o(.text)
    ADC1_IRQHandler                          0x1a002a69   Thumb Code     0  keil_startup_lpc18xx43xx.o(.text)
    ADCHS_IRQHandler                         0x1a002a69   Thumb Code     0  keil_startup_lpc18xx43xx.o(.text)
    ATIMER_IRQHandler                        0x1a002a69   Thumb Code     0  keil_startup_lpc18xx43xx.o(.text)
    CAN0_IRQHandler                          0x1a002a69   Thumb Code     0  keil_startup_lpc18xx43xx.o(.text)
    CAN1_IRQHandler                          0x1a002a69   Thumb Code     0  keil_startup_lpc18xx43xx.o(.text)
    DAC_IRQHandler                           0x1a002a69   Thumb Code     0  keil_startup_lpc18xx43xx.o(.text)
    DMA_IRQHandler                           0x1a002a69   Thumb Code     0  keil_startup_lpc18xx43xx.o(.text)
    ETH_IRQHandler                           0x1a002a69   Thumb Code     0  keil_startup_lpc18xx43xx.o(.text)
    EVRT_IRQHandler                          0x1a002a69   Thumb Code     0  keil_startup_lpc18xx43xx.o(.text)
    FLASHEEPROM_IRQHandler                   0x1a002a69   Thumb Code     0  keil_startup_lpc18xx43xx.o(.text)
    GINT0_IRQHandler                         0x1a002a69   Thumb Code     0  keil_startup_lpc18xx43xx.o(.text)
    GINT1_IRQHandler                         0x1a002a69   Thumb Code     0  keil_startup_lpc18xx43xx.o(.text)
    GPIO0_IRQHandler                         0x1a002a69   Thumb Code     0  keil_startup_lpc18xx43xx.o(.text)
    GPIO1_IRQHandler                         0x1a002a69   Thumb Code     0  keil_startup_lpc18xx43xx.o(.text)
    GPIO2_IRQHandler                         0x1a002a69   Thumb Code     0  keil_startup_lpc18xx43xx.o(.text)
    GPIO3_IRQHandler                         0x1a002a69   Thumb Code     0  keil_startup_lpc18xx43xx.o(.text)
    GPIO4_IRQHandler                         0x1a002a69   Thumb Code     0  keil_startup_lpc18xx43xx.o(.text)
    GPIO5_IRQHandler                         0x1a002a69   Thumb Code     0  keil_startup_lpc18xx43xx.o(.text)
    GPIO6_IRQHandler                         0x1a002a69   Thumb Code     0  keil_startup_lpc18xx43xx.o(.text)
    GPIO7_IRQHandler                         0x1a002a69   Thumb Code     0  keil_startup_lpc18xx43xx.o(.text)
    I2C0_IRQHandler                          0x1a002a69   Thumb Code     0  keil_startup_lpc18xx43xx.o(.text)
    I2C1_IRQHandler                          0x1a002a69   Thumb Code     0  keil_startup_lpc18xx43xx.o(.text)
    I2S0_IRQHandler                          0x1a002a69   Thumb Code     0  keil_startup_lpc18xx43xx.o(.text)
    I2S1_IRQHandler                          0x1a002a69   Thumb Code     0  keil_startup_lpc18xx43xx.o(.text)
    LCD_IRQHandler                           0x1a002a69   Thumb Code     0  keil_startup_lpc18xx43xx.o(.text)
    MCPWM_IRQHandler                         0x1a002a69   Thumb Code     0  keil_startup_lpc18xx43xx.o(.text)
    MX_CORE_IRQHandler                       0x1a002a69   Thumb Code     0  keil_startup_lpc18xx43xx.o(.text)
    QEI_IRQHandler                           0x1a002a69   Thumb Code     0  keil_startup_lpc18xx43xx.o(.text)
    RIT_IRQHandler                           0x1a002a69   Thumb Code     0  keil_startup_lpc18xx43xx.o(.text)
    RTC_IRQHandler                           0x1a002a69   Thumb Code     0  keil_startup_lpc18xx43xx.o(.text)
    SCT_IRQHandler                           0x1a002a69   Thumb Code     0  keil_startup_lpc18xx43xx.o(.text)
    SDIO_IRQHandler                          0x1a002a69   Thumb Code     0  keil_startup_lpc18xx43xx.o(.text)
    SGPIO_IRQHandler                         0x1a002a69   Thumb Code     0  keil_startup_lpc18xx43xx.o(.text)
    SPIFI_IRQHandler                         0x1a002a69   Thumb Code     0  keil_startup_lpc18xx43xx.o(.text)
    SPI_IRQHandler                           0x1a002a69   Thumb Code     0  keil_startup_lpc18xx43xx.o(.text)
    SSP0_IRQHandler                          0x1a002a69   Thumb Code     0  keil_startup_lpc18xx43xx.o(.text)
    SSP1_IRQHandler                          0x1a002a69   Thumb Code     0  keil_startup_lpc18xx43xx.o(.text)
    TIMER0_IRQHandler                        0x1a002a69   Thumb Code     0  keil_startup_lpc18xx43xx.o(.text)
    TIMER1_IRQHandler                        0x1a002a69   Thumb Code     0  keil_startup_lpc18xx43xx.o(.text)
    TIMER2_IRQHandler                        0x1a002a69   Thumb Code     0  keil_startup_lpc18xx43xx.o(.text)
    TIMER3_IRQHandler                        0x1a002a69   Thumb Code     0  keil_startup_lpc18xx43xx.o(.text)
    UART0_IRQHandler                         0x1a002a69   Thumb Code     0  keil_startup_lpc18xx43xx.o(.text)
    UART1_IRQHandler                         0x1a002a69   Thumb Code     0  keil_startup_lpc18xx43xx.o(.text)
    UART2_IRQHandler                         0x1a002a69   Thumb Code     0  keil_startup_lpc18xx43xx.o(.text)
    USB0_IRQHandler                          0x1a002a69   Thumb Code     0  keil_startup_lpc18xx43xx.o(.text)
    USB1_IRQHandler                          0x1a002a69   Thumb Code     0  keil_startup_lpc18xx43xx.o(.text)
    WDT_IRQHandler                           0x1a002a69   Thumb Code     0  keil_startup_lpc18xx43xx.o(.text)
    __user_initial_stackheap                 0x1a002a6d   Thumb Code     0  keil_startup_lpc18xx43xx.o(.text)
    SystemInit                               0x1a002a91   Thumb Code    20  sysinit.o(.text)
    scu_pinmux                               0x1a002aad   Thumb Code    16  lpc43xx_scu.o(.text)
    emc_init                                 0x1a002ac1   Thumb Code   944  lpc43xx_sdram.o(.text)
    sdram_init                               0x1a002e71   Thumb Code   144  lpc43xx_sdram.o(.text)
    GPIO_SetDir                              0x1a002f1d   Thumb Code    22  lpc43xx_gpio.o(.text)
    GPIO_SetValue                            0x1a002f33   Thumb Code    12  lpc43xx_gpio.o(.text)
    GPIO_ClearValue                          0x1a002f3f   Thumb Code    12  lpc43xx_gpio.o(.text)
    GPIO_ReadValue                           0x1a002f4b   Thumb Code    12  lpc43xx_gpio.o(.text)
    MCPMW_Init                               0x1a002f5d   Thumb Code    38  lpc43xx_lcd.o(.text)
    MCPWM_Set_Ratio                          0x1a002f83   Thumb Code    12  lpc43xx_lcd.o(.text)
    LCD_init                                 0x1a002f8f   Thumb Code   704  lpc43xx_lcd.o(.text)
    LCD_enable                               0x1a00324f   Thumb Code    52  lpc43xx_lcd.o(.text)
    LCD_displayMemorySet                     0x1a003283   Thumb Code    10  lpc43xx_lcd.o(.text)
    LCD_backLightCtl                         0x1a00328d   Thumb Code    10  lpc43xx_lcd.o(.text)
    LCD_one_pixel_write                      0x1a003297   Thumb Code    18  lpc43xx_lcd.o(.text)
    LCD_one_pixel_read                       0x1a0032a9   Thumb Code    16  lpc43xx_lcd.o(.text)
    SysTick_Handler                          0x1a0032e9   Thumb Code    18  main.o(.text)
    OS_CPU_SysTickInit                       0x1a0032fb   Thumb Code    48  main.o(.text)
    uart_3_recv                              0x1a00332b   Thumb Code    76  main.o(.text)
    UART3_IRQHandler                         0x1a003377   Thumb Code    56  main.o(.text)
    shell_task                               0x1a0033af   Thumb Code   226  main.o(.text)
    main                                     0x1a003491   Thumb Code    56  main.o(.text)
    __aeabi_uldivmod                         0x1a003555   Thumb Code     0  lludivv7m.o(.text)
    _ll_udiv                                 0x1a003555   Thumb Code   238  lludivv7m.o(.text)
    __2printf                                0x1a003645   Thumb Code    20  noretval__2printf.o(.text)
    __printf                                 0x1a00365d   Thumb Code   104  __printf.o(.text)
    _printf_int_dec                          0x1a0036c5   Thumb Code   104  _printf_dec.o(.text)
    __use_two_region_memory                  0x1a00373d   Thumb Code     2  heapauxi.o(.text)
    __rt_heap_escrow$2region                 0x1a00373f   Thumb Code     2  heapauxi.o(.text)
    __rt_heap_expand$2region                 0x1a003741   Thumb Code     2  heapauxi.o(.text)
    _printf_int_common                       0x1a003743   Thumb Code   178  _printf_intcommon.o(.text)
    _printf_char_file                        0x1a0037f5   Thumb Code    32  _printf_char_file.o(.text)
    _printf_char_common                      0x1a003823   Thumb Code    32  _printf_char_common.o(.text)
    __user_setup_stackheap                   0x1a003849   Thumb Code    74  sys_stackheap_outer.o(.text)
    exit                                     0x1a003893   Thumb Code    18  exit.o(.text)
    __user_libspace                          0x1a0038a5   Thumb Code     8  libspace.o(.text)
    __user_perproc_libspace                  0x1a0038a5   Thumb Code     0  libspace.o(.text)
    __user_perthread_libspace                0x1a0038a5   Thumb Code     0  libspace.o(.text)
    Board_SetupClocking                      0x1a0038ad   Thumb Code   158  board_sysinit.o(i.Board_SetupClocking)
    Board_SetupMuxing                        0x1a003961   Thumb Code    58  board_sysinit.o(i.Board_SetupMuxing)
    Board_SystemInit                         0x1a0039ad   Thumb Code    12  board_sysinit.o(i.Board_SystemInit)
    Board_UARTPutChar                        0x1a0039b9   Thumb Code    26  board.o(i.Board_UARTPutChar)
    Board_UART_Init                          0x1a0039d9   Thumb Code    60  board.o(i.Board_UART_Init)
    Chip_Clock_EnableOpts                    0x1a003a1d   Thumb Code    52  clock_18xx_43xx.o(i.Chip_Clock_EnableOpts)
    Chip_Clock_GetBaseClock                  0x1a003aa9   Thumb Code    32  clock_18xx_43xx.o(i.Chip_Clock_GetBaseClock)
    Chip_Clock_GetBaseClocktHz               0x1a003acd   Thumb Code    18  clock_18xx_43xx.o(i.Chip_Clock_GetBaseClocktHz)
    Chip_Clock_GetClockInputHz               0x1a003ae1   Thumb Code   182  clock_18xx_43xx.o(i.Chip_Clock_GetClockInputHz)
    Chip_Clock_GetDividerDivisor             0x1a003bdd   Thumb Code    18  clock_18xx_43xx.o(i.Chip_Clock_GetDividerDivisor)
    Chip_Clock_GetDividerSource              0x1a003bfd   Thumb Code    26  clock_18xx_43xx.o(i.Chip_Clock_GetDividerSource)
    Chip_Clock_GetMainPLLHz                  0x1a003c1d   Thumb Code   110  clock_18xx_43xx.o(i.Chip_Clock_GetMainPLLHz)
    Chip_Clock_GetRate                       0x1a003c95   Thumb Code    78  clock_18xx_43xx.o(i.Chip_Clock_GetRate)
    Chip_Clock_SetBaseClock                  0x1a003ced   Thumb Code    64  clock_18xx_43xx.o(i.Chip_Clock_SetBaseClock)
    Chip_Clock_SetDivider                    0x1a003d35   Thumb Code    64  clock_18xx_43xx.o(i.Chip_Clock_SetDivider)
    Chip_RGU_InReset                         0x1a003d85   Thumb Code    52  rgu_18xx_43xx.o(i.Chip_RGU_InReset)
    Chip_RGU_TriggerReset                    0x1a003dbd   Thumb Code    38  rgu_18xx_43xx.o(i.Chip_RGU_TriggerReset)
    Chip_SetupCoreClock                      0x1a003e29   Thumb Code    14  sysinit_18xx_43xx.o(i.Chip_SetupCoreClock)
    Chip_UART_Init                           0x1a003e7d   Thumb Code    72  uart_18xx_43xx.o(i.Chip_UART_Init)
    Chip_UART_SetBaud                        0x1a003ec9   Thumb Code    66  uart_18xx_43xx.o(i.Chip_UART_SetBaud)
    SystemCoreClockUpdate                    0x1a003f11   Thumb Code    14  chip_18xx_43xx.o(i.SystemCoreClockUpdate)
    _sys_exit                                0x1a003f25   Thumb Code     6  board.o(i._sys_exit)
    ferror                                   0x1a00400d   Thumb Code     8  board.o(i.ferror)
    fpuInit                                  0x1a004015   Thumb Code    62  fpu_init.o(i.fpuInit)
    fputc                                    0x1a004065   Thumb Code    20  board.o(i.fputc)
    _fp_init                                 0x1a004079   Thumb Code    10  fpinit.o(x$fpl$fpinit)
    __fplib_config_fpu_vfp                   0x1a004081   Thumb Code     0  fpinit.o(x$fpl$fpinit)
    __fplib_config_pureend_doubles           0x1a004081   Thumb Code     0  fpinit.o(x$fpl$fpinit)
    ad_left                                  0x1a004094   Data           4  board.o(.constdata)
    ad_top                                   0x1a004098   Data           4  board.o(.constdata)
    ad_right                                 0x1a00409c   Data           4  board.o(.constdata)
    ad_bottom                                0x1a0040a0   Data           4  board.o(.constdata)
    MCB4300_LCD                              0x1a0040a4   Data          22  board.o(.constdata)
    ExtRateIn                                0x1a0040bc   Data           4  board.o(.constdata)
    OscRateIn                                0x1a0040c0   Data           4  board.o(.constdata)
    Region$$Table$$Base                      0x1a004434   Number         0  anon$$obj.o(Region$$Table)
    Region$$Table$$Limit                     0x1a004454   Number         0  anon$$obj.o(Region$$Table)



==============================================================================

Memory Map of the image

  Image Entry point : 0x1a000115

  Load Region LR_IROM1 (Base: 0x1a000000, Size: 0x000044b0, Max: 0x00080000, ABSOLUTE)

    Execution Region RW_IRAM1 (Base: 0x10000000, Size: 0x00001310, Max: 0x00008000, ABSOLUTE)

    Base Addr    Size         Type   Attr      Idx    E Section Name        Object

    0x10000000   0x00000028   Data   RW            3    .data               raw-os.o
    0x10000028   0x0000000c   Data   RW          637    .data               lpc43xx_lcd.o
    0x10000034   0x00000008   Data   RW          671    .data               main.o
    0x1000003c   0x00000014   Data   RW          748    .data               lib_lpc_board_keil_mcb_4357.lib(board.o)
    0x10000050   0x00000004   Data   RW         1280    .data               lib_lpc_chip_43xx.lib(chip_18xx_43xx.o)
    0x10000054   0x00000008   Data   RW         1828    .data               lib_lpc_chip_43xx.lib(clock_18xx_43xx.o)
    0x1000005c   0x000003e4   Zero   RW            2    .bss                raw-os.o
    0x10000440   0x0000076c   Zero   RW          669    .bss                main.o
    0x10000bac   0x00000060   Zero   RW         2722    .bss                c_w.l(libspace.o)
    0x10000c0c   0x00000004   PAD
    0x10000c10   0x00000100   Zero   RW          323    HEAP                keil_startup_lpc18xx43xx.o
    0x10000d10   0x00000600   Zero   RW          322    STACK               keil_startup_lpc18xx43xx.o


    Execution Region ER_IROM1 (Base: 0x1a000000, Size: 0x00004454, Max: 0x00080000, ABSOLUTE)

    Base Addr    Size         Type   Attr      Idx    E Section Name        Object

    0x1a000000   0x00000114   Data   RO          324    RESET               keil_startup_lpc18xx43xx.o
    0x1a000114   0x00000008   Code   RO         2672  * !!!main             c_w.l(__main.o)
    0x1a00011c   0x00000034   Code   RO         2848    !!!scatter          c_w.l(__scatter.o)
    0x1a000150   0x0000001a   Code   RO         2850    !!handler_copy      c_w.l(__scatter_copy.o)
    0x1a00016a   0x00000002   PAD
    0x1a00016c   0x0000001c   Code   RO         2852    !!handler_zi        c_w.l(__scatter_zi.o)
    0x1a000188   0x00000000   Code   RO         2665    .ARM.Collect$$_printf_percent$$00000000  c_w.l(_printf_percent.o)
    0x1a000188   0x00000006   Code   RO         2664    .ARM.Collect$$_printf_percent$$00000009  c_w.l(_printf_d.o)
    0x1a00018e   0x00000004   Code   RO         2683    .ARM.Collect$$_printf_percent$$00000017  c_w.l(_printf_percent_end.o)
    0x1a000192   0x00000002   Code   RO         2720    .ARM.Collect$$libinit$$00000000  c_w.l(libinit.o)
    0x1a000194   0x00000004   Code   RO         2732    .ARM.Collect$$libinit$$00000001  c_w.l(libinit2.o)
    0x1a000198   0x00000000   Code   RO         2735    .ARM.Collect$$libinit$$00000004  c_w.l(libinit2.o)
    0x1a000198   0x00000000   Code   RO         2738    .ARM.Collect$$libinit$$0000000A  c_w.l(libinit2.o)
    0x1a000198   0x00000000   Code   RO         2740    .ARM.Collect$$libinit$$0000000C  c_w.l(libinit2.o)
    0x1a000198   0x00000000   Code   RO         2742    .ARM.Collect$$libinit$$0000000E  c_w.l(libinit2.o)
    0x1a000198   0x00000000   Code   RO         2745    .ARM.Collect$$libinit$$00000011  c_w.l(libinit2.o)
    0x1a000198   0x00000000   Code   RO         2747    .ARM.Collect$$libinit$$00000013  c_w.l(libinit2.o)
    0x1a000198   0x00000000   Code   RO         2749    .ARM.Collect$$libinit$$00000015  c_w.l(libinit2.o)
    0x1a000198   0x00000000   Code   RO         2751    .ARM.Collect$$libinit$$00000017  c_w.l(libinit2.o)
    0x1a000198   0x00000000   Code   RO         2753    .ARM.Collect$$libinit$$00000019  c_w.l(libinit2.o)
    0x1a000198   0x00000000   Code   RO         2755    .ARM.Collect$$libinit$$0000001B  c_w.l(libinit2.o)
    0x1a000198   0x00000000   Code   RO         2757    .ARM.Collect$$libinit$$0000001D  c_w.l(libinit2.o)
    0x1a000198   0x00000000   Code   RO         2759    .ARM.Collect$$libinit$$0000001F  c_w.l(libinit2.o)
    0x1a000198   0x00000000   Code   RO         2761    .ARM.Collect$$libinit$$00000021  c_w.l(libinit2.o)
    0x1a000198   0x00000000   Code   RO         2763    .ARM.Collect$$libinit$$00000023  c_w.l(libinit2.o)
    0x1a000198   0x00000000   Code   RO         2765    .ARM.Collect$$libinit$$00000025  c_w.l(libinit2.o)
    0x1a000198   0x00000000   Code   RO         2769    .ARM.Collect$$libinit$$0000002C  c_w.l(libinit2.o)
    0x1a000198   0x00000000   Code   RO         2771    .ARM.Collect$$libinit$$0000002E  c_w.l(libinit2.o)
    0x1a000198   0x00000000   Code   RO         2773    .ARM.Collect$$libinit$$00000030  c_w.l(libinit2.o)
    0x1a000198   0x00000000   Code   RO         2775    .ARM.Collect$$libinit$$00000032  c_w.l(libinit2.o)
    0x1a000198   0x00000002   Code   RO         2776    .ARM.Collect$$libinit$$00000033  c_w.l(libinit2.o)
    0x1a00019a   0x00000002   Code   RO         2802    .ARM.Collect$$libshutdown$$00000000  c_w.l(libshutdown.o)
    0x1a00019c   0x00000000   Code   RO         2831    .ARM.Collect$$libshutdown$$00000002  c_w.l(libshutdown2.o)
    0x1a00019c   0x00000000   Code   RO         2833    .ARM.Collect$$libshutdown$$00000004  c_w.l(libshutdown2.o)
    0x1a00019c   0x00000000   Code   RO         2836    .ARM.Collect$$libshutdown$$00000007  c_w.l(libshutdown2.o)
    0x1a00019c   0x00000000   Code   RO         2839    .ARM.Collect$$libshutdown$$0000000A  c_w.l(libshutdown2.o)
    0x1a00019c   0x00000000   Code   RO         2841    .ARM.Collect$$libshutdown$$0000000C  c_w.l(libshutdown2.o)
    0x1a00019c   0x00000000   Code   RO         2844    .ARM.Collect$$libshutdown$$0000000F  c_w.l(libshutdown2.o)
    0x1a00019c   0x00000002   Code   RO         2845    .ARM.Collect$$libshutdown$$00000010  c_w.l(libshutdown2.o)
    0x1a00019e   0x00000000   Code   RO         2674    .ARM.Collect$$rtentry$$00000000  c_w.l(__rtentry.o)
    0x1a00019e   0x00000000   Code   RO         2687    .ARM.Collect$$rtentry$$00000002  c_w.l(__rtentry2.o)
    0x1a00019e   0x00000006   Code   RO         2699    .ARM.Collect$$rtentry$$00000004  c_w.l(__rtentry4.o)
    0x1a0001a4   0x00000000   Code   RO         2689    .ARM.Collect$$rtentry$$00000009  c_w.l(__rtentry2.o)
    0x1a0001a4   0x00000004   Code   RO         2690    .ARM.Collect$$rtentry$$0000000A  c_w.l(__rtentry2.o)
    0x1a0001a8   0x00000000   Code   RO         2692    .ARM.Collect$$rtentry$$0000000C  c_w.l(__rtentry2.o)
    0x1a0001a8   0x00000008   Code   RO         2693    .ARM.Collect$$rtentry$$0000000D  c_w.l(__rtentry2.o)
    0x1a0001b0   0x00000002   Code   RO         2724    .ARM.Collect$$rtexit$$00000000  c_w.l(rtexit.o)
    0x1a0001b2   0x00000000   Code   RO         2778    .ARM.Collect$$rtexit$$00000002  c_w.l(rtexit2.o)
    0x1a0001b2   0x00000004   Code   RO         2779    .ARM.Collect$$rtexit$$00000003  c_w.l(rtexit2.o)
    0x1a0001b6   0x00000006   Code   RO         2780    .ARM.Collect$$rtexit$$00000004  c_w.l(rtexit2.o)
    0x1a0001bc   0x00002440   Code   RO            1    .text               raw-os.o
    0x1a0025fc   0x00000174   Code   RO          173    .text               fifo.o
    0x1a002770   0x000000a4   Code   RO          264    .text               cpu.o
    0x1a002814   0x00000146   Code   RO          268    .text               port.o
    0x1a00295a   0x00000012   Code   RO          280    .text               port_hook.o
    0x1a00296c   0x00000088   Code   RO          298    .text               user_extension.o
    0x1a0029f4   0x00000058   Code   RO          310    .text               port_error_process.o
    0x1a002a4c   0x00000044   Code   RO          325    .text               keil_startup_lpc18xx43xx.o
    0x1a002a90   0x0000001c   Code   RO          331    .text               sysinit.o
    0x1a002aac   0x00000014   Code   RO          557    .text               lpc43xx_scu.o
    0x1a002ac0   0x0000045c   Code   RO          590    .text               lpc43xx_sdram.o
    0x1a002f1c   0x00000040   Code   RO          613    .text               lpc43xx_gpio.o
    0x1a002f5c   0x0000038c   Code   RO          636    .text               lpc43xx_lcd.o
    0x1a0032e8   0x0000026c   Code   RO          668    .text               main.o
    0x1a003554   0x000000ee   Code   RO         2634    .text               c_w.l(lludivv7m.o)
    0x1a003642   0x00000002   PAD
    0x1a003644   0x00000018   Code   RO         2638    .text               c_w.l(noretval__2printf.o)
    0x1a00365c   0x00000068   Code   RO         2640    .text               c_w.l(__printf.o)
    0x1a0036c4   0x00000078   Code   RO         2642    .text               c_w.l(_printf_dec.o)
    0x1a00373c   0x00000006   Code   RO         2670    .text               c_w.l(heapauxi.o)
    0x1a003742   0x000000b2   Code   RO         2679    .text               c_w.l(_printf_intcommon.o)
    0x1a0037f4   0x00000024   Code   RO         2681    .text               c_w.l(_printf_char_file.o)
    0x1a003818   0x00000030   Code   RO         2703    .text               c_w.l(_printf_char_common.o)
    0x1a003848   0x0000004a   Code   RO         2705    .text               c_w.l(sys_stackheap_outer.o)
    0x1a003892   0x00000012   Code   RO         2709    .text               c_w.l(exit.o)
    0x1a0038a4   0x00000008   Code   RO         2721    .text               c_w.l(libspace.o)
    0x1a0038ac   0x000000b4   Code   RO         1200    i.Board_SetupClocking  lib_lpc_board_keil_mcb_4357.lib(board_sysinit.o)
    0x1a003960   0x0000004c   Code   RO         1202    i.Board_SetupMuxing  lib_lpc_board_keil_mcb_4357.lib(board_sysinit.o)
    0x1a0039ac   0x0000000c   Code   RO         1203    i.Board_SystemInit  lib_lpc_board_keil_mcb_4357.lib(board_sysinit.o)
    0x1a0039b8   0x00000020   Code   RO          723    i.Board_UARTPutChar  lib_lpc_board_keil_mcb_4357.lib(board.o)
    0x1a0039d8   0x00000044   Code   RO          725    i.Board_UART_Init   lib_lpc_board_keil_mcb_4357.lib(board.o)
    0x1a003a1c   0x0000003c   Code   RO         1802    i.Chip_Clock_EnableOpts  lib_lpc_chip_43xx.lib(clock_18xx_43xx.o)
    0x1a003a58   0x00000050   Code   RO         1804    i.Chip_Clock_FindBaseClock  lib_lpc_chip_43xx.lib(clock_18xx_43xx.o)
    0x1a003aa8   0x00000024   Code   RO         1805    i.Chip_Clock_GetBaseClock  lib_lpc_chip_43xx.lib(clock_18xx_43xx.o)
    0x1a003acc   0x00000012   Code   RO         1807    i.Chip_Clock_GetBaseClocktHz  lib_lpc_chip_43xx.lib(clock_18xx_43xx.o)
    0x1a003ade   0x00000002   PAD
    0x1a003ae0   0x000000d4   Code   RO         1808    i.Chip_Clock_GetClockInputHz  lib_lpc_chip_43xx.lib(clock_18xx_43xx.o)
    0x1a003bb4   0x00000028   Code   RO         1809    i.Chip_Clock_GetDivRate  lib_lpc_chip_43xx.lib(clock_18xx_43xx.o)
    0x1a003bdc   0x00000020   Code   RO         1810    i.Chip_Clock_GetDividerDivisor  lib_lpc_chip_43xx.lib(clock_18xx_43xx.o)
    0x1a003bfc   0x00000020   Code   RO         1811    i.Chip_Clock_GetDividerSource  lib_lpc_chip_43xx.lib(clock_18xx_43xx.o)
    0x1a003c1c   0x00000078   Code   RO         1813    i.Chip_Clock_GetMainPLLHz  lib_lpc_chip_43xx.lib(clock_18xx_43xx.o)
    0x1a003c94   0x00000058   Code   RO         1815    i.Chip_Clock_GetRate  lib_lpc_chip_43xx.lib(clock_18xx_43xx.o)
    0x1a003cec   0x00000048   Code   RO         1819    i.Chip_Clock_SetBaseClock  lib_lpc_chip_43xx.lib(clock_18xx_43xx.o)
    0x1a003d34   0x00000050   Code   RO         1820    i.Chip_Clock_SetDivider  lib_lpc_chip_43xx.lib(clock_18xx_43xx.o)
    0x1a003d84   0x00000038   Code   RO         1499    i.Chip_RGU_InReset  lib_lpc_chip_43xx.lib(rgu_18xx_43xx.o)
    0x1a003dbc   0x0000002c   Code   RO         1500    i.Chip_RGU_TriggerReset  lib_lpc_chip_43xx.lib(rgu_18xx_43xx.o)
    0x1a003de8   0x00000010   Code   RO          731    i.Chip_SCU_PinMuxSet  lib_lpc_board_keil_mcb_4357.lib(board.o)
    0x1a003df8   0x00000030   Code   RO         1204    i.Chip_SCU_SetPinMuxing  lib_lpc_board_keil_mcb_4357.lib(board_sysinit.o)
    0x1a003e28   0x0000000e   Code   RO         2524    i.Chip_SetupCoreClock  lib_lpc_chip_43xx.lib(sysinit_18xx_43xx.o)
    0x1a003e36   0x0000000a   Code   RO         1541    i.Chip_UART_DisableDivisorAccess  lib_lpc_chip_43xx.lib(uart_18xx_43xx.o)
    0x1a003e40   0x0000000a   Code   RO         1542    i.Chip_UART_EnableDivisorAccess  lib_lpc_chip_43xx.lib(uart_18xx_43xx.o)
    0x1a003e4a   0x00000002   PAD
    0x1a003e4c   0x00000030   Code   RO         1544    i.Chip_UART_GetClockIndex  lib_lpc_chip_43xx.lib(uart_18xx_43xx.o)
    0x1a003e7c   0x0000004c   Code   RO         1546    i.Chip_UART_Init    lib_lpc_chip_43xx.lib(uart_18xx_43xx.o)
    0x1a003ec8   0x00000042   Code   RO         1558    i.Chip_UART_SetBaud  lib_lpc_chip_43xx.lib(uart_18xx_43xx.o)
    0x1a003f0a   0x00000006   Code   RO         1560    i.Chip_UART_SetDivisorLatches  lib_lpc_chip_43xx.lib(uart_18xx_43xx.o)
    0x1a003f10   0x00000014   Code   RO         1278    i.SystemCoreClockUpdate  lib_lpc_chip_43xx.lib(chip_18xx_43xx.o)
    0x1a003f24   0x00000006   Code   RO          733    i._sys_exit         lib_lpc_board_keil_mcb_4357.lib(board.o)
    0x1a003f2a   0x00000024   Code   RO         2528    i.clock_init_delay  lib_lpc_chip_43xx.lib(sysinit_18xx_43xx.o)
    0x1a003f4e   0x00000002   PAD
    0x1a003f50   0x000000bc   Code   RO         2529    i.clock_main_init   lib_lpc_chip_43xx.lib(sysinit_18xx_43xx.o)
    0x1a00400c   0x00000008   Code   RO          737    i.ferror            lib_lpc_board_keil_mcb_4357.lib(board.o)
    0x1a004014   0x00000050   Code   RO         1705    i.fpuInit           lib_lpc_chip_43xx.lib(fpu_init.o)
    0x1a004064   0x00000014   Code   RO          739    i.fputc             lib_lpc_board_keil_mcb_4357.lib(board.o)
    0x1a004078   0x0000000a   Code   RO         2790    x$fpl$fpinit        fz_wm.l(fpinit.o)
    0x1a004082   0x00000002   PAD
    0x1a004084   0x00000040   Data   RO          747    .constdata          lib_lpc_board_keil_mcb_4357.lib(board.o)
    0x1a0040c4   0x000002bc   Data   RO         1205    .constdata          lib_lpc_board_keil_mcb_4357.lib(board_sysinit.o)
    0x1a004380   0x0000006c   Data   RO         1827    .constdata          lib_lpc_chip_43xx.lib(clock_18xx_43xx.o)
    0x1a0043ec   0x00000048   Data   RO         2530    .constdata          lib_lpc_chip_43xx.lib(sysinit_18xx_43xx.o)
    0x1a004434   0x00000020   Data   RO         2846    Region$$Table       anon$$obj.o


==============================================================================

Image component sizes


      Code (inc. data)   RO Data    RW Data    ZI Data      Debug   Object Name

       164         16          0          0          0        380   cpu.o
       372          0          0          0          0       8648   fifo.o
        68         28        276          0       1792        932   keil_startup_lpc18xx43xx.o
        64          6          0          0          0       1347   lpc43xx_gpio.o
       908         48          0         12          0      13060   lpc43xx_lcd.o
        20          4          0          0          0       1041   lpc43xx_scu.o
      1116         28          0          0          0       2130   lpc43xx_sdram.o
       620         86          0          8       1900      36592   main.o
       326          0          0          0          0       1659   port.o
        88          0          0          0          0       1336   port_error_process.o
        18          0          0          0          0       1807   port_hook.o
      9280        180          0         40        996      76285   raw-os.o
        28          8          0          0          0       5137   sysinit.o
       136          0          0          0          0       1848   user_extension.o

    ----------------------------------------------------------------------
     13208        404        308         60       4688     152202   Object Totals
         0          0         32          0          0          0   (incl. Generated)
         0          0          0          0          0          0   (incl. Padding)

    ----------------------------------------------------------------------

      Code (inc. data)   RO Data    RW Data    ZI Data      Debug   Library Member Name

         8          0          0          0          0         68   __main.o
       104          0          0          0          0         84   __printf.o
         0          0          0          0          0          0   __rtentry.o
        12          0          0          0          0          0   __rtentry2.o
         6          0          0          0          0          0   __rtentry4.o
        52          8          0          0          0          0   __scatter.o
        26          0          0          0          0          0   __scatter_copy.o
        28          0          0          0          0          0   __scatter_zi.o
        48          6          0          0          0         96   _printf_char_common.o
        36          4          0          0          0         80   _printf_char_file.o
         6          0          0          0          0          0   _printf_d.o
       120         16          0          0          0         92   _printf_dec.o
       178          0          0          0          0         88   _printf_intcommon.o
         0          0          0          0          0          0   _printf_percent.o
         4          0          0          0          0          0   _printf_percent_end.o
        18          0          0          0          0         80   exit.o
         6          0          0          0          0        152   heapauxi.o
         2          0          0          0          0          0   libinit.o
         6          0          0          0          0          0   libinit2.o
         2          0          0          0          0          0   libshutdown.o
         2          0          0          0          0          0   libshutdown2.o
         8          4          0          0         96         68   libspace.o
       238          0          0          0          0        100   lludivv7m.o
        24          4          0          0          0         84   noretval__2printf.o
         2          0          0          0          0          0   rtexit.o
        10          0          0          0          0          0   rtexit2.o
        74          0          0          0          0         80   sys_stackheap_outer.o
        10          0          0          0          0        116   fpinit.o
       150         18         64         20          0      34818   board.o
       316         44        700          0          0      11181   board_sysinit.o
        20          6          0          4          0       5566   chip_18xx_43xx.o
       870        130        108          8          0       8770   clock_18xx_43xx.o
        80         18          0          0          0       1234   fpu_init.o
       100         10          0          0          0       1447   rgu_18xx_43xx.o
       238         20         72          0          0       2286   sysinit_18xx_43xx.o
       216         16          0          0          0       9189   uart_18xx_43xx.o

    ----------------------------------------------------------------------
      3032        304        944         32        100      75679   Library Totals
        12          0          0          0          4          0   (incl. Padding)

    ----------------------------------------------------------------------

      Code (inc. data)   RO Data    RW Data    ZI Data      Debug   Library Name

      1020         42          0          0         96       1072   c_w.l
        10          0          0          0          0        116   fz_wm.l
       466         62        764         20          0      45999   lib_lpc_board_keil_mcb_4357.lib
      1524        200        180         12          0      28492   lib_lpc_chip_43xx.lib

    ----------------------------------------------------------------------
      3032        304        944         32        100      75679   Library Totals

    ----------------------------------------------------------------------

==============================================================================


      Code (inc. data)   RO Data    RW Data    ZI Data      Debug   

     16240        708       1252         92       4788     222665   Grand Totals
     16240        708       1252         92       4788     222665   ELF Image Totals
     16240        708       1252         92          0          0   ROM Totals

==============================================================================

    Total RO  Size (Code + RO Data)                17492 (  17.08kB)
    Total RW  Size (RW Data + ZI Data)              4880 (   4.77kB)
    Total ROM Size (Code + RO Data + RW Data)      17584 (  17.17kB)

==============================================================================

