:020000041A00E0
:10000000C01E00103D25001A4525001A4725001A7C
:100010004925001A4B25001A4D25001A5A5A5A5ADA
:100020005725001A5725001A5725001A4F25001A80
:100030005125001A5725001A2F22001A9D25001A53
:100040005925001A5925001A5925001A5725001A52
:100050005925001A5925001A5925001A5925001A40
:100060005925001A5925001A5925001A5925001A30
:100070005925001A5925001A5925001A5925001A20
:100080005925001A5925001A5925001A5925001A10
:100090005925001A5925001A5925001A5925001A00
:1000A0005925001A5925001A5925001AF726001A51
:1000B0005925001A5925001A5925001A5925001AE0
:1000C0005925001A5925001A5925001A5925001AD0
:1000D0005925001A5925001A5925001A5925001AC0
:1000E0005925001A5925001A5925001A5925001AB0
:1000F0005725001A5925001A5925001A5925001AA2
:100100005725001A5925001A5725001A5925001A93
:100110005925001A00F002F800F047F80AA090E80C
:10012000000C82448344AAF10107DA4501D100F0B2
:100130003CF8AFF2090EBAE80F0013F0010F18BF38
:10014000FB1A43F001031847D8520000F852000090
:10015000103A24BF78C878C1FAD8520724BF30C8F3
:1001600030C144BF04680C607047000000230024C5
:1001700000250026103A28BF78C1FBD8520728BFB7
:1001800030C148BF0B607047642903F0B78463290E
:1001900003F07D85732903F08285002070471FB529
:1001A00004F028FE1FBD10B510BD03F0A7FD1146D9
:1001B000FFF7F5FF02F005FB03F0C5FD03B4FFF701
:1001C000F2FF03BC02F005FD2DE9F8431546884611
:1001D0000446561E4FF0000701D3354207D08DF874
:1001E000007001F0FBFF9DF800000028FBD02760A5
:1001F000C4F80C806760022D03D20120A760BDE81F
:10020000F8832561A66000206561F8E72DE9F041DB
:1002100015460F46044601F0E1FF8046D4E9002070
:10022000111AA068411A491C8D4200D90D46411C83
:1002300010400E1AAE4200D32E46E1683246084402
:10024000394602F036F9AA1BB919E06802F031F913
:100250002068284420602069401B2061404601F04E
:10026000C1FF2846BDE8F0812DE9F041044615465E
:10027000D4E90002801A0F46854200D90546A068DD
:10028000411C10400E1AAE4200D32E46E1683246A1
:100290000144384602F00DF9AA1BB819E16802F0D2
:1002A00008F92846DEE72DE9F04114460D460646DA
:1002B00001F094FF0746224629463046FFF7D4FF57
:1002C0000446384601F08EFF2046CBE72DE9F04189
:1002D00017460D46044601F081FF06463A46294678
:1002E0002046FFF7C1FF054660682844606020692A
:1002F00028442061304601F075FF2846B2E770B50A
:100300000D46044601F06AFF0646D4E904010A1AC4
:100310000FD029462046FFF7A7FF0546606828440E
:100320006060206928442061304601F05BFF284668
:1003300070BD304601F056FF002070BDF8B50C4688
:1003400006004FF0000507D18DF8005001F046FF80
:100350009DF800100029FBD03CB98DF8005001F049
:100360003DFF9DF800000028FBD06748C4E9006508
:1003700001684C600460F8BD2DE9F84F4FF00004AF
:1003800092468B465FEA0008254607D18DF800505B
:1003900001F024FF9DF800000028FBD0BBF1000F06
:1003A00007D18DF8005001F019FF9DF800000028DA
:1003B000FBD0BAF1000F07D18DF8005001F00EFF0D
:1003C0009DF800000028FBD04F4E7068A8BB06F1D6
:1003D0000C0014E000680068814600F089F80746C8
:1003E000404600F085F8B84201D9024600E03A469E
:1003F0004946404600F0F3F828B1706840687060E4
:100400000028E7D136E0D6F804C0DCF8000090F907
:100410000C70002F0EDB00224046012103E0202B50
:1004200012D00121401C90F90030002BF7D1BA42C4
:1004300000D00124BCF1000F1CD0524654B1334906
:10044000584600F094F813E00029EBD0521C52B249
:100450000021E7E70021584602F050F87068424654
:10046000514600688368584698470446012807D1DA
:10047000756005E052462649584600F078F8012498
:100480002046BDE8F88F30B500231D46136017E005
:10049000401C90F90040ACB1202CF9D110F9014F6B
:1004A00084B1202CFAD05B1C8B4209D1054611681F
:1004B000491C116010F9011F21B12029F7D101E079
:1004C0008B42E6DB284630BD10B50F4C0A46A168CA
:1004D00011B904F10C01A1600968496800F047F8FE
:1004E000A0684068A06008B1002010BD012010BDC8
:1004F000014600E0491C91F900200AB1202AF9D1F7
:10050000081AC0B270470000000000104452001AE0
:10051000A052001A10B5884208D8034603E011F82B
:10052000014B03F8014B521EF9D210BD841811443F
:1005300003E011F8013D04F8013D521EF9D210BD4F
:1005400010B5002306E003780C781B1B04D1401C77
:10055000491C521E002AF6D1184610BD034611F858
:10056000012B00F8012B002AF9D11846704710B56D
:10057000034605E00C781C7004B1491C521E5B1C3C
:10058000002AF7D110BD034600E0401C0278002A83
:10059000FBD111F8012B00F8012B002AF9D11846E4
:1005A000704710B504460AB90CE0401C0378002BD4
:1005B000FBD101E0521E07D011F8013B00F8013BCE
:1005C000002BF7D1204610BD00210170FAE701464B
:1005D00000E0491C0A78002AFBD1081A704710B5C0
:1005E0000EE010F8013B11F8014BA34206D0A342E4
:1005F00002D24FF0FF3010BD012010BD13B1521ECA
:10060000002AEED1002010BD10F8012B11F8013B9B
:100610009A4206D09A4202D24FF0FF307047012032
:100620007047002AF0D1002070472DE9F043894639
:100630000FF2081C0026012700E0401C0178202949
:10064000FBD00929F9D0C9B22B2903D02D2902D119
:100650004FF0FF37401C102A01D072B111E0017831
:1006600030290ED110F8011FA1F16103192B00D818
:10067000203958292ED1401C03E00178302905D0BB
:100680000A22911E232925D30A2223E010F8011FF4
:10069000A1F16102192A00D82039582901D0082275
:1006A000EFE71022E7E7644600210CE0A3F16105C3
:1006B000192D01D8413500E01D4694F800804545CC
:1006C00003D0491C641C9142F0DB914205DA06FB21
:1006D0000216401C0378002BE5D1B9F1000F01D0C0
:1006E000C9F8000006FB07F0BDE8F08370B50446CA
:1006F0000E460846FFF76BFF05461AE03178884240
:1007000012D1204600E0401C0378202B01D9232B76
:10071000F9D1001BA84207D12A4631462046FFF7EF
:100720000FFF08B9204670BD207828B1641C0A2844
:10073000FAD120780028E1D1002070BD3031323369
:100740003435363738394142434445464748494AAB
:100750004B4C4D4E4F505152535455565758595A71
:1007600000000000074C01F039FDD4E90012491CDB
:1007700042F10002C4E9001201F034FD01F06BFE09
:10078000F1E700002800001010B538B1032A08D0A6
:10079000022A06D0042A04D0CF2010BD40F2331024
:1007A00010BD0060406000240473046144618160F6
:1007B0000276E84A437600F12001D3680832C1E9A5
:1007C000002353681960516002214173002010BD5D
:1007D0002DE9F04788460146806D91464746002640
:1007E00048B1427B022A06D1027E032A03D1407E11
:1007F000002800D9064644464D6A13E0287E0228A8
:1008000006D003280AD16C7EB44207D9264605E0FB
:10081000284600F089F908B92868447DBC4200D216
:1008200027466D69002DE9D1B04505D2CD21A9F843
:1008300000103046BDE8F0870021A9F800103846C6
:10084000F8E72DE9F04190F822600F463546243054
:1008500016E0BC4202D16169016011E0207E0228ED
:1008600003D0032807D1657E05E0204600F05CF93F
:1008700008B92068457DAE4200D92E4604F1140027
:100880000468002CE5D13046BDE8F0810146806D5A
:10089000427B022A0CD1027E022A09D1006991F81A
:1008A000211090F821208A4202D1002100F043B9A2
:1008B0007047FEB50F46040005D0A748007828B160
:1008C00040F23510FEBD40F23310FEBD01F086FC53
:1008D0000546607B022805D0284601F083FC4FF4D2
:1008E000FC70FEBD9D4E2269306882421AD1E069DB
:1008F000411C06D0401CE061284601F073FCCC206E
:10090000FEBD0020009001900346024601464FF4D0
:100910002F740290204601F0A0FD284601F062FCF1
:100920002046FEBD217E03290AD190F8223094F89A
:1009300019C0634504D2284601F054FCCD20FEBD09
:1009400042B1E7B1864B1B78F3B1284601F04AFC6F
:100950000720FEBD2061416A616101214462E161BD
:10096000217E032906D190F82120617E8A4201D997
:1009700000F065FF284601F035FC0020FEBD28464A
:1009800001F030FC0620FEBD022908D190F82110AC
:1009900092F82100814202D2104600F050FF3A4600
:1009A0002046316800F09FF9284601F01BFC00F05A
:1009B0002BFA01F013FC0446306800F0D8FC054621
:1009C000204601F00FFC2846FEBD70B5040005D09E
:1009D0006148007828B140F2351070BD40F2331004
:1009E00070BD01F0FBFB0646607B022805D0304657
:1009F00001F0F8FB4FF4FC7070BD584821690268A3
:100A0000914204D0304601F0EDFBCB2070BDE0698F
:100A1000401EE06104D0304601F0E4FBCC2070BD04
:100A20002146104600F087F8204600F07DF828B1F6
:100A300000202061304601F0D5FB1AE025680C3D0E
:100A4000284600F04AF92561686A606101206C62FD
:100A5000E061207E032807D195F82100617E88425D
:100A600002D9284600F0EBFE304601F0BBFB00F057
:100A7000CBF9002070BD2DE9F0410027466A05E062
:100A80002046666900F050F818B127613400F7D1AC
:100A9000FAE625680C3D284600F01FF92561686AD2
:100AA00060616C62207E0328F0D195F82100617EA0
:100AB0008842EBD9284600F0C2FEE7E770B5040093
:100AC00005D02548007828B140F2351070BD40F2BD
:100AD000331070BD01F082FB0546607B022805D013
:100AE000284601F07FFB4FF4FC7070BD002060735E
:100AF000206938B1214600F01EF803E020680C3868
:100B000000F014F9204600F00FF80028F6D0D4E9E0
:100B100008010860D4E908014160284601F062FB41
:100B200000F072F9002070BD0168814201D10120FE
:100B300070470020704710B50446FFF782FE01465B
:100B400094F82100884204D02046BDE8104000F00F
:100B500076BE10BDDC090010180000102000001047
:100B6000170000103E210170002200EBC201091D98
:100B7000521C0960D2B249603E2AF6D3704770B564
:100B800091F82140054600EBC4000C31406800F0AC
:100B90000FF9214605F5FA7000F026F92878A042F1
:100BA00000D92C7070BD70B591F82140054600EB5E
:100BB000C400001D0C3100F0FBF8214605F5FA7069
:100BC00000F012F92878A04200D92C7070BD8B4B30
:100BD00091F821201B6893F821309A4200D1E2E776
:100BE000CDE73EB5054691F8214001F10C0000F03B
:100BF000E6F805EBC40050F8041F814217D105F553
:100C0000FA7303EBD40004F007020121914002784B
:100C10008A4302702878A04209D1C4F13E022146DD
:100C2000184600F0C3FB002802DB204428703EBDBC
:100C3000002000900190034602460146029040F2D7
:100C40005D2001F00AFC3EBD70B591F8212000EB5B
:100C5000C20401F10C000546241D00F0B0F829463D
:100C60002046BDE8704000F0A3B8017800EBC10059
:100C7000634940680C38086070473EB5044690F8F8
:100C80005400002504F10C01022816D0032814D0CA
:100C900004281BD0062819D00023009501951A4678
:100CA000194640F25D20029501F0D7FB204600F086
:100CB000FDFF84F85550A5653EBD084600F07FF85D
:100CC00021465048FFF783FF012003E0084600F06B
:100CD00076F8052084F85400E8E7CEE74164CCE7D5
:100CE000C0E91112C9E770B50C4688650546511C6C
:100CF00013D01146204600F0B8FF032084F85400BA
:100D000021464048FFF76DFF287B012807D0214688
:100D10002846BDE8704000F058B80220EEE704F124
:100D20000C012846BDE8704000F042B83EB50446CC
:100D300090F85400002504F10C01022817D0032874
:100D400015D004281CD006281AD000230095019540
:100D50001A46194640F25D20029501F07EFB2046BE
:100D600000F0A4FF032084F85500A5653EBD0846A9
:100D700000F025F821462348FFF729FF012003E072
:100D8000084600F01CF8052084F85400E7E710B589
:100D90000446806D007B002809D104F10C0000F0AE
:100DA0000EF82146A06DBDE8104000F00EB810BD51
:100DB0004268C1E900024268116041607047D0E9B1
:100DC0000012116003C84160704730B4024691F8C8
:100DD0002130006803E0447D9C4202D800689042C4
:100DE000F9D130BC0C31E3E700EBD10001F0070290
:100DF0000121914002780A430270704720000010E0
:100E00001C000010F400001010B501F0E7F90446D2
:100E10004548007868B94548007850B94448FFF71C
:100E200024FF4448444900680968884201D001F021
:100E3000F4F92046BDE8104001F0D4B900B53F49AF
:100E400085B0052008803A48FFF78CFE00F002FFCD
:100E50003B4800604060083000604060083000603F
:100E6000406008300060406008300060406008303A
:100E70000060406008300060406001F0DFFA3248F6
:100E80000DF1040C01232F4A50218CE80F000020A3
:100E9000024600903D232DA12F4800F0CFFA01F02B
:100EA0003FF9002302222DA12F48FFF76DFC00F02F
:100EB0008EFF05B0002000BD10B5204C208805280D
:100EC00001D0042010BD1A48FFF7CFFE19481A4977
:100ED000006808600420208001F08BF9032010BD19
:100EE00070B5134901EBC006361D01F077F90546D0
:100EF0003068B0420CD0017DA0F10C04012907D06C
:100F00000068B04204D0A06938B1401EA06104D08E
:100F10002846BDE8704001F065B921460448FFF756
:100F200093FEE069A061F3E71800001017000010BD
:100F3000F40000101C00001020000010140000102D
:100F4000DC0900106507001A8003001069646C65F5
:100F50005F7461736B000000F002001074696D65CE
:100F6000725F6D7574657800B4090010B8B1531CD8
:100F700018D0006002614261C0E9010100210173E3
:100F80009B4A016200F1180153691032C1E9002344
:100F9000536819605160012141730020704740F28D
:100FA00033107047C920704728B1427B012A05D011
:100FB0004FF4FC70704740F233107047017300200B
:100FC000704770B50E46044601F008F90546607B8F
:100FD000012805D0284601F005F94FF4FC7070BDDA
:100FE000204600F0FEF8B0B12069411C0ED0401C34
:100FF00020616169884200D96061284601F0F2F8F9
:10100000216A09B120468847002070BD284601F0BA
:10101000E9F8C92070BD26B909E020680C38FFF74F
:101020005CFE204600F0DDF80028F6D003E02068E2
:101030000C38FFF752FE284601F0D4F8FFF7E4FE23
:10104000E2E708B10021BCE740F23310704708B175
:101050000021B6E740F23310704708B10121B0E734
:1010600040F23310704770B50D46040005D061485A
:10107000007828B140F2351070BD40F2331070BDD9
:1010800001F0ACF8617B012904D001F0ABF84FF41A
:10109000FC7070BD256201F0A5F8002070BD70B530
:1010A0000E46050005D05348007828B140F23510AF
:1010B00070BD40F2331070BD01F090F80446687BBB
:1010C000012805D0204601F08DF84FF4FC7070BD6A
:1010D000286930B1401E2861204601F083F80020C5
:1010E00070BD3EB14448007848B1204601F07AF81E
:1010F000072070BD204601F075F8062070BD32460D
:101100003E4E28463168FFF7EEFD204601F06AF8B2
:10111000FFF77AFE01F062F80446306800F027F924
:101120000546204601F05EF8284670BD70B50D46B4
:10113000040005D02F48007828B140F2351070BD6A
:1011400040F2331070BD01F049F80646607B01287B
:1011500005D0304601F046F84FF4FC7070BD2069B0
:1011600018B9204600F03DF828B13046256101F05D
:1011700039F8002070BD304601F034F8CA2070BD47
:1011800070B5040005D01B48007828B140F2351036
:1011900070BD40F2331070BD01F020F80546607B51
:1011A000012805D0284601F01DF84FF4FC7070BDF1
:1011B0000020607303E020680C38FFF7B7FD20467D
:1011C00000F00FF80028F6D0D4E906010860D4E951
:1011D00006014160284601F005F8FFF715FE0020E2
:1011E00070BD0168814201D1012070470020704725
:1011F000DC0900101800001017000010200000107B
:10120000FEB51C4E1C490025306840F2BE274468DC
:101210002068884208D00023009501951A46194697
:101220003846029501F019F930680068A04208D2EA
:101230000023009501951A4619463846029501F09B
:101240000CF9FEBD70B50B4C2068416F491C41671D
:1012500001F0CAFB2168D1F88820D1E91E43821A27
:10126000A21843F10003C1E91E2304490968C1F82B
:10127000880070BD20000010AFBEADDE1C00001065
:1012800038B501F0A3F8664D287840B900208DF8F4
:10129000000000F0A3FF9DF800000028FBD000F044
:1012A0009DFF04462878401E10F0FF0028700DD1E5
:1012B0005C48007850B95C48FFF7D7FC5B485C4954
:1012C00000680968884201D000F0ACFF2046BDE804
:1012D000384000F087BF10B501F0BBF85548D0E9A1
:1012E0000012491C42F10002C0E90012524800F00D
:1012F000A0FC4F48006890F82100FFF7F1FDBDE821
:10130000104000F002BF3EB500F068FF04464448BC
:10131000017864290FD3002140F25B2500910191EF
:101320000B460A462846029101F097F8204600F045
:1013300059FF28463EBD491C0170204600F052FF6F
:1013400000203EBD70B53B484FF47A720024D0E9CE
:101350000013A1FB020503FB025201FB04216422DE
:10136000234602F0E9FA70BD4FF4FA6070473EB5CB
:1013700090F85500002812D0012811D0022811D071
:10138000032811D000200090019003460246014638
:1013900040F2BF240290204601F05FF820463EBD97
:1013A00008203EBD09203EBD64203EBD70B54B09FE
:1013B00000EB83044FEA5113CD0650F8233001F0BF
:1013C0001F0103D001208840401E83430020461E99
:1013D000C1F1200520E0CBB100B948421904090C45
:1013E00001D11B0C103013F0FF0F01D11B0A083084
:1013F000190701D11B09001D990701D19B08801C09
:10140000D90700D1401C904209DB07E008B1203029
:1014100000E0284654F8043F9042DCDB304670BDC3
:101420001800001017000010F40000101C0000103D
:101430002000001048000010180A00102DE9FF5F7E
:101440001D46DDE90F68DDF838A0129F8B460400C9
:1014500005D03E2D06D36C2004B0BDE8F09F40F2CD
:101460003310F9E740F2311136B1119820B1FA4842
:10147000007818B1081DEFE70846EDE700F0AEFE72
:101480004FF001093D2D08D1F4490A781AB100F056
:10149000A9FE0120E0E781F8009000F0A3FE902271
:1014A0000021204601F02AF8BAF1000008D0E061DE
:1014B000A061022084F8200027B184F8549006E04F
:1014C0003220F4E7052084F8540084F823900021AA
:1014D00030460A46666001E004C0491C4145FBD322
:1014E000C4F850B084F8215084F82250C4F8088021
:1014F0006068DB49016041463046119B029A00F06A
:10150000C3FE2060204600F0A5FF00F067FED5492D
:10151000054604F128004A68C0E900124A681060D4
:1015200048601FB12146D048FFF73DFBCF480088F7
:101530000428284603D000F055FE05208CE700F073
:1015400051FE0FB1FFF760FC002085E7002238B1A3
:1015500049B190F85430092B08D04068001D09E0CB
:1015600040F23310704740F23110704740F2BD2016
:101570007047521C08C8002BFBD000200A6070473F
:1015800010B5044600F023FF2060002010BDB248D3
:1015900010B5007810B140F2351010BDB44C207871
:1015A000FA2801D3692010BD00F018FE2178491CEB
:1015B000217000F017FE002010BDA74810B500787C
:1015C00010B140F2351010BDA94C207858B100F090
:1015D00005FE2178491E11F0FF01217005D000F0B1
:1015E00001FE672010BD682010BD00F0FBFDFFF775
:1015F0000BFC002010BD70B506469748007810B16E
:1016000040F2351070BD56B100F0E8FD0446984830
:10161000007830B1204600F0E5FD072070BDD120F4
:1016200070BD944D0721286880F85410314600F0B1
:101630001CFB8D482968FFF7D4FA204600F0D2FD44
:10164000FFF7E2FB00F0CAFD04462868FFF78FFEB3
:101650000546204600F0C6FD284670BD854810B5F9
:10166000016839B191F8540038B17F48FFF7ECFABE
:10167000002010BD40F2331010BD40F2BD2010BD5F
:10168000F0B4754C24781CB140F23510F0BC7047B2
:1016900042F20F74A14202D940F2FB10F6E74FF478
:1016A0007A75A84202D34FF4FD70EFE764244FF43B
:1016B000FA76B6FBF4F633446343B3FBF5F34FF429
:1016C00061656843C1EB011100EB8100104400FB30
:1016D000043008B1F0BC8EE74FF4FE70D6E770B569
:1016E000044600F07BFD054662480068844207D14D
:1016F0005F48007820B1284600F074FD072070BDD7
:1017000094F854100120092931D2DFE801F03005A6
:1017100013191D1D1D0F1D0084F82300052084F8DA
:10172000540021465048FFF75CFA14E084F8230087
:10173000082002E084F82300062084F854000AE020
:1017400084F823000420F8E794F82300FF2809D048
:10175000401C84F82300284600F044FDFFF754FBAA
:10176000002070BD284600F03DFD6A2070BD28466F
:1017700000F038FD40F2BD2070BD20B190F821107E
:101780003D2903D0ABE740F2331070474FF4CB70E4
:10179000704770B5044600F021FD054694F85400EA
:1017A000092841D2DFE800F0400505052E0A24058E
:1017B0001A00284600F016FD6B2070BD94F8230037
:1017C000401E10F0FF0084F8230026D1012084F889
:1017D000540021462448FFF7FAF91EE094F823004C
:1017E000401E10F0FF0084F8230016D1072012E0FD
:1017F00094F82300401E10F0FF0084F823000CD161
:10180000022008E094F82300401E10F0FF0084F846
:10181000230002D1032084F85400284600F0E2FCA3
:10182000FFF7F2FA002070BD284600F0DBFC40F222
:10183000BD2070BD00B1ACE740F233107047FEB57B
:101840000E46044694F82170B7424ED094F85400E6
:1018500009284CD210E000001800001016000010FB
:10186000AFBEADDEDC090010F40000101400001063
:101870001700001020000010DFE800F039051A1AE8
:101880001A171A1717002146E148FFF7AAF9E1488D
:1018900084F82160214600688442DD4802D1FFF7C8
:1018A0006EF922E0FFF77FF91FE084F821601CE069
:1018B00084F821602046FFF76AFAA06D417B022977
:1018C00013D1056994F8211095F8210088420AD8AF
:1018D000B8420AD100212846FEF7B3FF95F821103F
:1018E0000646B14201D02C00ACD10020FEBD002044
:1018F0000090019003460246014640F2BD2402904A
:10190000204600F0AAFD2046FEBDF8B50446C248B8
:1019100015460F46007810B140F23510F8BD40F280
:101920003310002CFAD0002DF8D094F8210040F2AA
:1019300093113D2811D23D2F0FD094F8540009285F
:101940000DD000F04BFC06466A4639462046FEF7AD
:101950003FFFBDF8001089B904E00846F8BD40F229
:10196000BD20F8BD84F82270014694F8210028704B
:101970002046FFF764FFADF8000028B1304600F0C4
:1019800031FCBDF80000F8BD304600F02BFCFFF73D
:101990003BFA0020F8BD70B5040005D09E480078E1
:1019A00028B140F2351070BD40F2331070BD94F88C
:1019B00021003D280ED000F011FC06469548006835
:1019C00084420AD19548007838B1304600F00AFCCC
:1019D000072070BD40F2951070BD2046FFF74BF810
:1019E00094F85400092509282FD2DFE800F02E05CD
:1019F00010101009100C0C0021468548FFF7F1F873
:101A000084F8545011E0204600F050F9F8E72046E1
:101A100000F04CF9D4E903010860D4E90301416006
:101A200084F854502046FEF731FFD4E90A010860DB
:101A3000D4E90A014160204600F007FD304600F07D
:101A4000D1FBFFF7E1F9002070BD304600F0CAFB82
:101A500040F2BD2070BD70B514460D46064600F03C
:101A6000BDFB06EB84014D61BDE8704000F0BABBE0
:101A700000EB81004069704770B50D46040005D049
:101A80006548007828B140F2351070BD40F233103F
:101A900070BD00F0A3FB15B12946E56101E03221DC
:101AA000E161A16100F09EFB002070BD70B50C46A5
:101AB000050006D0012C07D0022C05D04FF49A70F7
:101AC00070BD40F2331070BD5348007810B140F241
:101AD000351070BD00F082FB85F8204000F082FBDD
:101AE000002070BD70B505000C4640F2331006D0E2
:101AF000002C04D04848007810B140F2351070BD79
:101B000000F06CFB95F82010217000F06BFB0020BA
:101B100070BD70B5040005D03F48007828B140F290
:101B2000351070BD40F2331070BD00F057FB064613
:101B300094F854000125092839D2DFE800F0382E46
:101B400018181805180C0C0084F854502146304819
:101B5000FFF73DF821E0204600F0A8F821462C4888
:101B6000FFF735F884F8545084F8555015E02046B6
:101B700000F09CF8D4E903010860D4E90301416056
:101B800021462348FFF723F884F8545084F8555031
:101B90002046FEF77BFE0020A065304600F022FBC9
:101BA000204600F053FCFFF72FF9002070BD3046AF
:101BB00000F018FB40F2BD2070BD16480068704769
:101BC0002DE9F0410446144817460E46007818B136
:101BD00040F23510BDE8F08100F000FB804620683F
:101BE00009E005680EB10C38B0471FB120680C3809
:101BF000FFF773F82846A042F3D1404600F0F2FA0E
:101C0000FFF702F90020E5E740F6C95070470000F1
:101C1000F400001020000010180000101700001041
:101C200030B4144601660846214630BC1A46FFF718
:101C30009DB9006EFFF705BA014605480068006EC1
:101C4000FFF72DBA006EFFF771BA006EFFF798BA72
:101C5000200000106B4A002102EBC100491C00600B
:101C600089B240600829F7D3704730B500291CD0ED
:101C7000654A12685318C0E90E3103F00701614B41
:101C8000C56B03EBC104216804E08B689B1AAB426F
:101C900002D80968A142F8D100F130024B68C2E9CC
:101CA00000134B681A604A60046430BD016C00295F
:101CB00007D0D0E90C121160D0E90C124A60002163
:101CC000016470472DE9FF5F00F088FADFF838B152
:101CD00003904C49DBF800004FF00108401CCBF8A2
:101CE000000000F0070001EBC0074FF002093C685C
:101CF0004FF0050A0025BC4255D054F8086BDBF8BC
:101D0000000054F8381981424DD194F8540003284A
:101D10001DD004282DD007280DD008283BD0002343
:101D2000009501951A46194640F25D20029500F093
:101D300094FB3446DFE784F8555084F854802046FD
:101D4000FFF7B4FF21463148FEF741FFF1E7204697
:101D5000FFF7ACFFD4E903010860D4E90301416057
:101D600021462A48FEF733FF84F8559084F85480C2
:101D70000CE02046FFF79AFFD4E903010860D4E99C
:101D80000301416084F8559084F854A02046FEF782
:101D90007DFDA565CDE784F854A084F85550204614
:101DA000FFF784FFC5E7039804B0BDE8F05F00F0DB
:101DB00019BA174C4FF0FF352846FFF73DFF0028B2
:101DC000FAD120880428F7D1FFF77CFFF4E700B5AB
:101DD00085B0012310480DF1040C0E4A19028CE85D
:101DE0000F000020024600900CA11148FFF726FBCF
:101DF00005B000230FA214490D485DF804EBFFF76E
:101E00000FBF0000C004001030000010F4000010EC
:101E100014000010B31D001AA80A00107469636B47
:101E20005F7461736B5F6F626A65637400000000CA
:101E3000180A00107469636B5F73656D6170686F79
:101E400072655F6F626A0000A80E001038B504006A
:101E500005D0D348007828B140F2351038BD40F2A3
:101E6000331038BD94F82900082802D04FF4FC70D4
:101E700038BD94F8280040F22F12022824D00328FD
:101E800022D061624FF0FF31C648FEF712FD40B12B
:101E900000208DF8000000F0A1F99DF80000002856
:101EA000FBD0C149E06909680144C4E90510BF4895
:101EB0002146A06000F054F9022084F82800B948B7
:101EC000FEF783FD002038BD104638BD2DE9F041F6
:101ED0000D46DDE90761069C40B152B164B1B04FD7
:101EE0003F7867B140F23510BDE8F08140F2331021
:101EF000FAE740F23110F7E74FF49870F4E74362E5
:101F0000C0E9035200F11807002287E854000124B9
:101F1000426180F82840826000604060082280F8BA
:101F2000292011B11946FFF791FF0020DCE7F8B531
:101F300015460E46040005D09948007828B140F2B5
:101F40003510F8BD40F23310F8BD94F82900082888
:101F500002D04FF4FC70F8BD94F82800012802D09C
:101F600040F22F10F8BD4FF0FF318E48FEF7A1FC74
:101F700040B100208DF8000000F030F99DF800001D
:101F80000028FBD0C4E907658648FEF71EFD002047
:101F9000F8BD38B5040005D08148007828B140F27A
:101FA000351038BD40F2331038BD94F829000828A8
:101FB00002D04FF4FC7038BD94F8280040F22F1185
:101FC00001281BD0032819D04FF0FF317548FEF7C8
:101FD00070FC40B100208DF8000000F0FFF89DF883
:101FE00000000028FBD0204600F0CEF8012084F845
:101FF00028006C48FEF7E9FC002038BD084638BDD3
:1020000038B5040005D06648007828B140F2351094
:1020100038BD40F2331038BD94F82900082802D0AA
:102020004FF4FC7038BD94F8280003281BD04FF003
:10203000FF315C48FEF73DFC002538B18DF80050BB
:1020400000F0CCF89DF800000028FBD084F829505F
:10205000204600F099F8032084F828005148FEF744
:10206000B4FC002038BD40F22F1038BD08B5002167
:102070004F48FFF75BF84C4F4FF0FF394FF0010826
:102080004C4649464A48FFF70AF821464548FEF7BC
:1020900010FC40B100208DF8000000F09FF89DF882
:1020A00000000028FBD03868404D401C38602C6888
:1020B000AC4226D0606939682668884221D1204622
:1020C00000F062F8206A48B1A06139680844606194
:1020D00036482146A06000F043F801E084F82880EB
:1020E000216961B1606A8847882808D194F828007E
:1020F000012804D0204600F047F884F828803446B0
:10210000D6E72848FEF761FCBAE72A490868401E6E
:10211000086004D1012008602548FEF792BF70478F
:1021200000B5244885B0012101602048006040606E
:10213000AFF2C7000A020292CDE903011E4B002054
:10214000CDE90003024605231CA12048FFF776F9DC
:1021500005B000221EA116485DF804EBFEF706BF8D
:1021600030B5114B8C6902681B6804E05569ED1AA3
:10217000A54202D812688242F8D15068C1E9002015
:1021800050680160516030BD8168002907D0D0E9F6
:1021900000121160D0E900124A600021816070478E
:1021A00018000010B40900103C00001034000010AA
:1021B00090090010400000109005001074696D65D2
:1021C000725F6F626A6563740000000000050010B2
:1021D00074696D65725F73656D000000EFF31080C8
:1021E00072B6704780F31088704772B6704762B657
:1021F000704721484FF0FF010170002080F30988EB
:10220000EFF30880C008C00080F308881B484FF037
:102210008051016062B6FEE700BF18484FF0805160
:102220000160704715484FF080510160704772B6E9
:10223000EFF3098080B120ED108B203880E8F00F9B
:102240000F490968086000B5FEF7DAFF00F0E0F812
:10225000FEF7F8FF5DF804EB09480A490A680260D6
:10226000106890E8F00F2030B0EC108B80F30988F4
:102270004EF0040E62B6704722ED00E004ED00E07F
:10228000200000101C00001000EB810020F007006F
:10229000AA2140F8041C0A2140F8081C152140F826
:1022A0000C1C142140F8101C132140F8141C12219E
:1022B00040F8181C112140F81C1C102140F8201C6B
:1022C000092140F8241C082140F8281C072140F867
:1022D0002C1C062140F8301C052140F8341C042138
:1022E00040F8381C032140F83C1C022140F8401CF7
:1022F000012140F8441C002140F8481C4FF0807137
:1023000040E914316FF0010140F8541C4FF01231D4
:1023100040F8581C4FF0033140F85C1C4FF002317C
:1023200040F8601C491040E91A21312140F86C1C2A
:10233000302140F8701C292140F8741C282140F8F5
:10234000781C272140F87C1C262140F8801C252180
:1023500040F8841C242140F8881C232140F88C1C60
:10236000222140F8901C212140F8941C202140F8A3
:10237000981C192140F89C1C182140F8A01C17211A
:1023800040F8A41C162140F8A81C4FF0113140F869
:10239000AC1C4FF0103140F8B01C4FF0093140F840
:1023A000B41C4FF0083140F8B81C4FF0073140F82A
:1023B000BC1C4FF0063140F8C01C4FF0053140F80E
:1023C000C41D4FF0043140F8041D70477047174991
:1023D000002021F01F0100E0401C04C9002AFBD0AE
:1023E00070471248124920F01F0040F016000860A4
:1023F000091D104808600E487838016841F48031A2
:1024000001600B480838016841F005010160704720
:102410000948074900684068203020F01F0040F05C
:1024200017000860091D034808607047E018001095
:102430009CED00E0090007061C00001010B5FFF736
:10244000D0FFBDE8104000F0BFBA7047704770473A
:1024500070477047704730BF704708B50021A0F53E
:1024600000705B381CD002280AD061288DF800105B
:102470000FD0FFF7B3FE9DF800000028FBD008BD89
:102480008DF80010FFF7AAFE9DF800000028FBD091
:1024900008BDFFF7A3FE9DF800000028FBD008BD93
:1024A0008DF80010FFF79AFE9DF800000028FBD081
:1024B00008BD10B50346102A1DD38C071BD1840715
:1024C00019D110C9103A10C310C9102A10C351F8FD
:1024D000084B43F8084B51F8044C43F8044CF0D235
:1024E00002E010C9121F10C3042AFAD203E011F847
:1024F000014B03F8014B521EF9D210BD10B5034633
:10250000042A17D3840715D141EA012444EA04447C
:1025100006E010C3103A10C343F8084B43F8044CCC
:10252000102AF6D201E010C3121F042AFBD201E0E8
:1025300003F8011B521EFBD210BD00000A48804761
:102540000A480047FEE7FEE7FEE7FEE7FEE7FEE794
:10255000FEE7FEE7FEE7FEE7FEE700000448054968
:10256000054A064B704700008125001A1501001A24
:10257000C0170010C01E0010C0180010C0180010B6
:10258000044810B50449016002F096F9BDE8104016
:1025900001F0EEB808ED00E00000001A10B5FEF7FB
:1025A000B2FEFEF798FEBDE81040FEF769BE10B51A
:1025B00002F0ECF89E4864210068B0FBF1F0401E88
:1025C000B0F1807F0AD24FF0E024606107216017EC
:1025D00000F01EF90020A0610720206110BDF8B5B1
:1025E00014460D460A4606460021FFF787FF21469E
:1025F0009048FEF754FD040002D0092C12D012E0DE
:102600008C4831462430FDF77AFE0446A8420ADDA4
:1026100000208DF80000FFF7E1FD9DF80000002884
:10262000FBD000E000242046F8BD2DE9F047C0B003
:10263000342132A801F09EFAC821684601F09AFAC6
:102640000024621E322132A8FFF7C9FF794E00270D
:1026500081460DF1C80ABC36774D0FE01AF8041018
:102660000D2910D00A2914D0286808293AD03154ED
:10267000401C286071A001F0D7F9641C4C45EDDBCB
:1026800040B0BDE8F0870AEB040040780A2800D18A
:10269000641C286837546AA001F0C6F9307890B1FC
:1026A0006448C8226946BC30FDF766FE804669462C
:1026B00064A001F0B9F9C82200216846FFF71EFFA7
:1026C000B8F1000FECD061A001F0AEF960A001F00C
:1026D000ABF958484FF480720021BC30FFF70EFF71
:1026E0002F60CAE70028C8D0401E286037545BA07E
:1026F00001F09AF9C1E700B589B0FEF704FE0022A7
:1027000057486B4603E001689954521CD2B24169A4
:10271000C907F8D1474819462430FDF777FD4548E9
:10272000FEF78FFC09B05DF804EBFEF7A9BD08B514
:10273000FFF73DFF00224BA13E48FEF717FC3D4945
:1027400080223C31A1F11800FDF73EFD47486A4662
:102750003C210068FFF7D9F8414C204600F009FB06
:10276000204601F0C9FF4FF4E131204601F0EAFFB5
:102770000120E0650F20A06001211B2000F048F837
:102780001B2000F03AF8606840F00500606001210D
:102790001B2000F03DF81B2000F02FF800F0C1F8DE
:1027A00000F0C4F800F0C0F900F090F900F065F90D
:1027B00026A001F039F926A001F036F9FFF735FF20
:1027C000FCE700B585B0FEF739FB0123AFF2A102AB
:1027D00027480DF1040C4FF4C8718CE80F0000205D
:1027E000024600901348022322A19038FEF726FEED
:1027F000FEF762FB05B0002000BD00F01F020121C2
:1028000091404009800000F1E020C0F800117047BD
:102810004907090E002806DA00F00F0000F1E02059
:1028200080F8141D704700F1E02080F80014704714
:102830009C000010A015001050000010256300003F
:102840000A0000000D0A2573000000000D0A0000B8
:102850007261776F732023200000000008200800B9
:1028600000200C40755F73656D6100002000001052
:10287000D00E00107461736B3100000070B5034618
:10288000002002466FF02F051C7807E09E5C00EBED
:10289000800005EB4000304480B2521C002C01D077
:1028A0008A42F3DB70BD30B514469BB019AA0121F2
:1028B0002046FDF7E8FD01466846199AFFF7F9FD45
:1028C000199A002002210DF8020019AA2046FDF7EE
:1028D000DAFD1999FFF7D2FF054619AA0321204610
:1028E000FDF7D1FD1999FFF7C9FF044612A001F0C9
:1028F0009BF8694611A001F097F8294617A001F04E
:1029000093F821461DA001F08FF81BB0012030BDC7
:1029100010B509A001F088F820A001F085F8012089
:1029200010BD284901F12000FDF708BD25490831F7
:1029300001F10800FDF702BD0D000000546865209C
:10294000666972737420706172616D65746572730B
:102950002069732025730D0A00000000546865206B
:102960007365636F6E6420706172616D657465720A
:10297000732069732025640D0A00000054686520E7
:10298000746869726420706172616D6574657273D8
:102990002069732025640D0A00000000636F6D6DCF
:1029A000616E645F636173655F6E6F5F70617261BA
:1029B0006D65746572732072756E6E696E670D0A4F
:1029C00000000000540000100948016841F08071C7
:1029D0000160084800214160016841F00101016087
:1029E00070470448406870470248406870470000DC
:1029F000FCED00E0001000E02DE9F047214A002640
:102A000035461068044605E00168D0E914309E1987
:102A1000454108469042F7D1924629E054F8509B30
:102A200074E81E708046791C70F100000DD242F2ED
:102A30001070A7FB001C08FB00C0002307FB030766
:102A4000084632462B4639460AE042F2107200230D
:102A50003046294600F070FF02460B463846414694
:102A600000F06AFF024608A0216D00F0DDFF4C4631
:102A70005445D3D10120BDE8F0870D490D48FDF73D
:102A80005DBC0000DC0900100D0A7461736B206EE0
:102A9000616D65206973202573207461736B2063F9
:102AA00070752075737561676520697320256400F2
:102AB00084000010104E001A08B56846FEF760FD4D
:102AC00004A0009900F0B0FF012008BD0A490B489E
:102AD000FDF734BC0D0A696E7465727275707420EE
:102AE0006672656520737461636B2073697A652013
:102AF00069732025642000008C000010204E001A0D
:102B0000F8B50B4E34680BE054F828596946204656
:102B1000FEF71CFD216D07A0009A00F085FF2C46F2
:102B2000B442F1D10120F8BD0F491048FDF706BCB1
:102B3000DC0900100D0A7461736B206E616D6520F5
:102B40006973202573202A2A2A207461736B2066FA
:102B500072656520737461636B2073697A6520699F
:102B6000732025640000000094000010304E001A0D
:102B700000BF00BFFE49496901F020010029F8D0DB
:102B800000BFFB49086000BF704702460020704745
:102B900010B502460C46D3B21846FFF7E9FF00BF56
:102BA000002010BD00BFF248406900F0010020B1D4
:102BB00000BFEF480068C0B270474FF0FF30FBE73E
:102BC00000B50146FFF7EEFF00BD01464FF0FF30B4
:102BD000704700BF30BFFDE700BF011EA0F101003C
:102BE000FBD1704710B504460CB1012100E0002173
:102BF000494201F00C0000F05AFE08B9002010BD57
:102C00000120FCE738B50446002310220721D948EB
:102C100000F0C2FC7020009001226946D64801F005
:102C2000CDFCE0B2009001226946D34801F0C6FC19
:102C3000012310220721CF4800F0AEFC38BD38B583
:102C40000446002310220721CA4800F0A5FC722088
:102C5000009001226946C84801F0B0FC20120090A3
:102C600001226946C44801F0A9FCE0B200900122AB
:102C70006946C14801F0A2FC012310220721BD488A
:102C800000F08AFC38BD70B505460C462846FFF7B3
:102C9000B9FF2046FFF7D3FF70BD10B51022072102
:102CA000B44800F087FC10BD38B504460D468DF8D9
:102CB00000408DF8015002236A464121002001F0B6
:102CC000E8FA38BD38B504460D4601202B462246A9
:102CD00041210090002001F0BFFA38BD08B5002066
:102CE000009069464020FFF7EDFF012806D19DF8CE
:102CF000000000F0800008B1012008BD0020FCE7C2
:102D0000FEB504460D4602A94C20FFF7DBFF002666
:102D10000CE0042001ABD72241210090002001F0FB
:102D20009BFA08B90020FEBD701CC6B29DF80800D1
:102D30008642EEDB042001ABD72241210090002027
:102D400001F08AFA9DF8040000019DF8051040EAA0
:102D5000111020809DF806009DF8051001F00F016C
:102D600040EA012028801F210B20FFF79DFF012052
:102D7000D9E710B50446814884420AD119220021BE
:102D8000022000F003FCD1220121022000F0FEFB12
:102D90001AE07B4884420AD11B2201210A2000F05C
:102DA000F5FBD32202210A2000F0F0FB0CE0704872
:102DB000844209D11A220321022000F0E7FBD2222B
:102DC0000421022000F0E2FB10BD10B56848FFF7B7
:102DD000D0FF674801F090FC4FF4E131644801F006
:102DE000B1FC03206249C86000BF00BF0120C86574
:102DF00000BF10BD00B5024603E012F8010BFFF75B
:102E0000B7FE10780028F8D100BD10B5002407E007
:102E10005C48025D5C48015D564800F0CBFB641CD9
:102E2000082CF5D310BD70B504460D46072C07DC01
:102E30005448025D5448015D2B464E4800F0ACFBFF
:102E400070BD10B50446072C07DC4E48025D4E48A5
:102E5000015D484800F0A5FB10BD0020FCE770B5FF
:102E600004462046FFF7EDFF80F001052946204685
:102E7000FFF7D9FF70BD0CB544A206CACDE9001218
:102E800000990160BDF8041081800CBD10B5FFF7FA
:102E90009CFF384801F07EF942220521092000F00C
:102EA00075FBD2220521022000F070FB4122032194
:102EB000062000F06BFBFFF7A8FF00BF3548006855
:102EC00040F004003449C1F82C0100BF10BD704728
:102ED00010B50446012C0AD1C2220D210E2000F0AB
:102EE00055FBC2220F210E2000F050FB05E040F6FA
:102EF00008002A49086000BF00BF10BD7CB5054628
:102F00000C464BF68030009002208DF80400102013
:102F10008DF80500224801F059FA6946204801F071
:102F20005BFA00BF2046FFF75DFE0128FAD17CBDA9
:102F300010B50520FFF750FEFFF7AFFE0E4801F079
:102F4000D7FA01210C4801F025FB16490A4801F087
:102F5000F4FA072000210A46074B1B6823F0FF0301
:102F600003430B431343044C236000BF00BF1BE02B
:102F700000200C4000400F40003008400010084086
:102F800000100C40484E001A404E001A00603712E4
:102F9000345600002C31044000300440846C08405A
:102FA00000200A4040420F002046406840F00200E6
:102FB0002146486000BFC820FFF70EFE0021EA202E
:102FC000FFF761FE2021EB20FFF75DFE0C21EC20D6
:102FD000FFF759FEC721ED20FFF755FE3821E82005
:102FE000FFF751FE1021E920FFF74DFE0121F120EE
:102FF000FFF749FE1021F220FFF745FE0121402096
:10300000FFF741FE00214120FFF73DFE0021422055
:10301000FFF739FE10214320FFF735FE0E21442033
:10302000FFF731FE24214520FFF72DFE0421462025
:10303000FFF729FE50214720FFF725FE02214820F7
:10304000FFF721FE13214920FFF71DFE19214A2019
:10305000FFF719FE19214B20FFF715FE16214C2012
:10306000FFF711FE1B215020FFF70DFE31215120EB
:10307000FFF709FE2F215220FFF705FE3F215320C5
:10308000FFF701FE3F215420FFF7FDFD3E215520B3
:10309000FFF7F9FD2F215620FFF7F5FD7B21572083
:1030A000FFF7F1FD09215820FFF7EDFD062159201A
:1030B000FFF7E9FD06215A20FFF7E5FD0C215B2013
:1030C000FFF7E1FD1D215C20FFF7DDFDCC215D2038
:1030D000FFF7D9FD1B210846FFF7D5FD01211A2076
:1030E000FFF7D1FD2F212420FFF7CDFD572125200B
:1030F000FFF7C9FD88212320FFF7C5FD36211820E1
:10310000FFF7C1FD01211920FFF7BDFD00210120BE
:10311000FFF7B9FD88211F20FFF7B5FD1420FFF749
:103120005BFD82211F20FFF7AEFD0520FFF754FD58
:1031300092211F20FFF7A7FD0520FFF74DFDD221AB
:103140001F20FFF7A0FD0520FFF746FD55211720A2
:10315000FFF799FD00210846FFF795FD11212F206B
:10316000FFF791FD02213120FFF78DFD0021322074
:10317000FFF789FD38212820FFF785FD1420FFF790
:103180002BFD3C212820FFF77EFD00211620FFF7B4
:103190007AFD00210E20FFF776FD00210F20FFF7BA
:1031A00072FD01211020FFF76EFD40211120FFF775
:1031B0006AFD00211220FFF766FD00211320FFF7B2
:1031C00062FD10BD10B5102001F060F900BF1020A5
:1031D00001F040F90028FAD108220321FC4800F050
:1031E000E9F9FFF7A5FE10BD38B5002001F008F899
:1031F00004460020FFF76CFE002001F00BF8F549B3
:10320000002001F0B1F8F449002001F0CBF80221D0
:103210000320FFF749FD0020009002E00098401CC9
:103220000090EE4900988842F8DB0C210420FFF75B
:103230003BFD07210A20FFF737FD69212020FFF71A
:1032400033FD0020009002E00098401C009049F6F9
:10325000404100988842F7DB01212120FFF724FD3F
:1032600022214020FFF720FDC2214120FFF71CFD55
:1032700001214A20FFF718FD01214B20FFF714FD23
:1032800000214B20FFF710FD01215820FFF70CFD16
:1032900000211720FFF708FD01214020FFF704FD62
:1032A000FF210B20FFF700FD2146002001F07AF8F6
:1032B00038BD7CB504460D46FFF710FD00283DD013
:1032C000694601A8FFF71CFD0120C5490860C549F2
:1032D0000860C54E002E01DA704206B2BDF8040047
:1032E000A0F5B47000B20190BDF90400C0EB00106D
:1032F000000190FBF6F000B22080B4F90000C0F1AC
:10330000F00000B22080B84E733E002E01DA704209
:1033100006B2BDF80000ED3800B20090BDF9000023
:1033200000EB8000800190FBF6F000B22880B5F938
:103330000000C0F5A07000B2288002E00020A8497B
:103340000860A8480068A0B10020A6490860B4F948
:103350000000002803DA2088404200B22080B5F93E
:103360000000002803DA2888404200B228800120AB
:103370007CBD0020FCE72DE9F04104460D4600200D
:1033800000F03EFF064600BF9349002001F00AF816
:103390000028F9D029462046FFF78BFF074600BFDB
:1033A0003146002000F0FEFF0028F9D03846BDE885
:1033B000F08170B504460CB1012000E00020054604
:1033C0002B4608220321824800F0E6F870BD10B5B4
:1033D000F72204210C2000F0D9F8F72205210C2057
:1033E00000F0D4F8F72206210C2000F0CFF8F722E5
:1033F00007210C2000F0CAF8572208210C2000F009
:10340000C5F8F7220A210C2000F0C0F8372200216D
:103410000C2000F0BBF810BD10B504467348844280
:1034200014D1F2220321084600F0B0F8F22206215E
:10343000032000F0ABF8D2220721032000F0A6F809
:10344000D2220821032000F0A1F818E06848844245
:1034500014D1F02204210F2000F098F8F222052167
:103460000F2000F093F8D22206210F2000F08EF8F2
:10347000D22207210F2000F089F800E010BD00BF24
:10348000FCE710B5C0220021042000F07FF80022E4
:1034900002214F4800F0B2F810BD10B5C422092136
:1034A0000C2000F073F8C4220B210C2000F06EF801
:1034B000C4220C21084600F069F8C4220D210C201A
:1034C00000F064F8C4220E210C2000F05FF80A22FC
:1034D00006213F4800F092F80B2206213C4800F0FC
:1034E0008DF80C2206213A4800F088F80D220621BA
:1034F000374800F083F808220621354800F07EF8AE
:1035000010BD10B500240A220621314800F049F808
:1035100010B944F0010422E00B2206212C4800F0EF
:1035200040F810B944F0020419E00C2206212848A2
:1035300000F037F810B944F0040410E00D22062121
:10354000234800F02EF810B944F0080407E00822E0
:1035500006211F4800F025F808B944F01004204661
:1035600010BD10B5002400220221194800F019F8FE
:1035700008B944F00104204610BD00BF1D49096888
:1035800041F001021B490A6000BF70471A4B03EB70
:10359000C01343F82120704710B500EB4114A35429
:1035A00010BD034603EB4110805C08B10120704759
:1035B0000020FCE710B500F5005353F8214001232B
:1035C0009340234300F5005444F8213010BD00001F
:1035D00000400F40A0860100C141001A400D0300C9
:1035E000AC000010B000001083F2FFFF0030084074
:1035F00000500C40906C08400060084010B500F589
:10360000005353F821400123934024EA030300F5BB
:10361000005444F8213010BD70B5024600200EE081
:1036200012F8203002EB8006747802EB8006758871
:10363000524E06EBC31646F8245000BF401C884289
:10364000EED370BD10B57C214D48FFF7E5FF00209B
:1036500004460DE04B4A02EB84025078494A02EBE3
:1036600084025188484A42F8201000BF601C04467A
:10367000042CEFD306214548FFF7CEFF10BD10B54F
:1036800047F27770424908600223012211466F20F9
:1036900000F082FB3F48006840F480303E49C1F8AA
:1036A0002C01662000F05CFB00221146012000F096
:1036B0004DFD3A4800F03CFD394800F05DFD3948C9
:1036C000D0F8000240F400203649C1F8000210BDD5
:1036D00070B53548354AB0FBF2F12E4A0C3A126803
:1036E00022F4704242EA01322B4BC3F82021294ACE
:1036F000083A126822F4704242EA0132C3F82421E7
:1037000000BF01220146062000F0CDFF002411E099
:10371000274D05EB8405EB78254D05EB8405AA784C
:10372000234D05EB84056978214D15F8240000F040
:10373000B3FC641C042CEBD31748406820F00C0049
:10374000154948600846406840F00300486005227B
:103750000921042000F0C4FC0023012210210520CF
:1037600000F09AFC02220921104600F0B9FC70BD5D
:1037700010B5FFF767FFFFF7ABFF10BD0060084013
:10378000A84E001A9850001A006C0840904E001A7B
:10379000006D08402C31044000300440A850001A4D
:1037A0001C51001A0050004000CB280C7037480113
:1037B000804E001A2DE9F8430746884616461D46F6
:1037C00033463A461A210020009500F045FDA842F4
:1037D00002D00020BDE8F883002406E018F80400B9
:1037E000315D884200D002E0641CAC42F6DB00BFD1
:1037F000AC4201D10120EDE70020EBE770B50546B2
:103800000C46E3B22A461A21002000F042FDA042F5
:1038100001D1012070BD0020FCE7FEB504460D4635
:1038200029462046FFF7EAFF064636B16B1E207890
:103830006A46611CFFF7BEFF06463046FEBD38B53E
:1038400005460C468DF8005020128DF80100E0B2BC
:103850008DF8020003236A461A21002000F019FDAA
:1038600038BD1CB50446022001AB22461A21009047
:10387000002000F0F1FC022806D19DF805009DF81B
:10388000041040EA01201CBD0020FCE770B505468D
:103890000C4621462846FFF7D2FF2846FFF7E1FFF6
:1038A0000646A64201D1012070BD0020FCE770B59C
:1038B0000546002000F0A4FC06460020FFF708FBA8
:1038C000002000F0A7FC1749002000F04DFD16492C
:1038D000002000F067FD0B211448FFF79EFF04460F
:1038E00024B10B211248FFF798FF044624B10921A7
:1038F0001048FFF792FF044674B16DB14AF254517B
:103900000220FFF7C3FF044634B1A8B240F0010122
:103910002220FFF7BBFF04463146002000F042FDA5
:10392000204670BDA0860100C141001AF051001A66
:10393000FB51001A0652001A53EA020C00F069808B
:103940002DE9F04B4FF00006002B1FBFB3FA83F5B3
:1039500003FA05F424FA05F65E4012BF1643B2FAE4
:1039600082F502FA05F4C5F120051EBF22FA05FC16
:1039700044EA0C04203556EA044C4FEA144418BFBC
:10398000641C4FF000084FF00009904271EB030CEB
:1039900039D3002919BFB1FA81F701FA07F6B0FA55
:1039A00080F700FA07F6C7F120071EBF20FA07FCD0
:1039B00046EA0C062037B6FBF4FCA7EB0507103FE0
:1039C00007F01F0BCBF120060CFA0BFB2CFA06F6C6
:1039D00044BFB3460026202FA4BF5E464FF0000B25
:1039E0005BEA060C08BF4FF0010B19EB0B09ABFBB0
:1039F000027C48EB0608C01B06FB02CC0BFB03CC89
:103A000071EB0C01C1E70B46024641464846BDE852
:103A1000F08B13B54FF000004FF00001AFF30080C2
:103A2000BDE81C40704700000FB4044910B503AA5C
:103A3000029800F039F910BC5DF814FBA0000010EA
:103A40002DE9F0410E460446002020622046E16840
:103A5000884730B3252805D0D4E901219047206A52
:103A6000401CF2E7E168204600278847050018D08F
:103A7000A5F14100192802D820354FF400673246DD
:103A8000294620462760FCF77FFB40B1012804D07F
:103A9000F61D26F007060836D8E7361DD6E7284675
:103AA000DAE7206ABDE8F08170B50C460546012AC8
:103AB00005D02878800600D5EA69002302E00123BA
:103AC00005E05B1C934202D2E05C0028F9D1A869B2
:103AD000E618C01AA861286A184428622846AFF37D
:103AE000008004E0D5E9012114F8010B9047B442AD
:103AF000F8D32846AFF3008070BD00002DE9F041F7
:103B00000646002410687529314616A510D0AFF37B
:103B10000080002802DA404213A507E031688A07D6
:103B200001D512A502E0490704D511A5012401E041
:103B3000AFF3008000210A2206F1240709E0B0FB60
:103B4000F2FCB0FBF2F302FB1C0030307854184654
:103B5000491C0028F3D123462A463046BDE8F041EF
:103B600000F032B8000000002D0000002B00000023
:103B7000200000004FF0000200B513469446964620
:103B8000203922BFA0E80C50A0E80C50B1F1200170
:103B9000BFF4F7AF090728BFA0E80C5048BF0CC01E
:103BA0005DF804EB890028BF40F8042B08BF70477C
:103BB00048BF20F8022B11F0804F18BF00F8012BEE
:103BC00070477047704770472DE9F0470D4699469A
:103BD0009246044600F124080168880604D5E0698D
:103BE00021F01001216000E00120A84201DD471B07
:103BF00000E00027A1697A1902EB0900081AA06108
:103C00002078C00602D42046AFF30080002608E0EA
:103C1000D4E901211AF806009047206A401C761C5E
:103C200020624E45F4DB2078C0060AD52046AFF36B
:103C3000008006E0D4E9012130209047206A401C32
:103C40002062381EA7F10107F4DC07E0D4E9012166
:103C500018F805009047206A401C2062281EA5F134
:103C60000105F3DC2046AFF300802078000602D582
:103C70000220BDE8F0870120FBE710B5436913B1CE
:103C8000AFF3008001E0FFF70FFF012010BD1278B5
:103C900000F124010A7000224A700122EDE7116848
:103CA0004FF0FF32E9E70000074B70B50D467B444B
:103CB00000F011F804462846FEF787FF10B14FF0D8
:103CC000FF3070BD204670BDDFEEFFFF01694A1C6A
:103CD00002610878704700B58FB0CDE9013100214D
:103CE000059105497944CDE9031011466846FFF76F
:103CF000A7FE0FB000BD0000E5FFFFFF754600F016
:103D00002BF8AE4605006946534620F0070085466D
:103D100018B020B5FEF722FCBDE820404FF00006A9
:103D20004FF000074FF000084FF0000B21F00701A3
:103D3000AC46ACE8C009ACE8C009ACE8C009ACE8E6
:103D4000C0098D46704710B50446AFF30080204689
:103D5000BDE81040FCF732BA004870475C1700100D
:103D6000B0F5A17F0ADB0A49A0F5A17251F8321023
:103D700041F00103064941F8323007E0054951F8A6
:103D8000301041F00102034941F830207047000033
:103D9000002105400011054070B50446012009B11D
:103DA00040F002000AB140F00400022B01D140F0C3
:103DB0002000B4F5A17F05DB044DA4F5A17645F8FC
:103DC000360002E0024D45F8340070BD0021054088
:103DD0000011054010B502461C20002114E001EB43
:103DE00041030F4C34F8133093420CDC01EB4103D8
:103DF00004EB43035B88934205DB01EB410304EBD7
:103E00004303187900E0491C1C2807D101EB41034A
:103E1000034C04EB43031B798342E0D110BD000047
:103E20003C51001A01461C2901DB1120704705484E
:103E300050F8212002F0010008B11120F6E7C2F38A
:103E40000460F3E75C00054070B504462046FFF7C8
:103E5000E9FF054600F002F870BD000070B50446A9
:103E60000025122C51D2DFE804F0090C0E16205068
:103E70002326292C505030363C42484E4FF4004502
:103E800044E0244D42E02448006800F00700042884
:103E900000D0224D3AE02048006800F007000428D6
:103EA00001D01E4D00E01E4D30E01E4805682DE09B
:103EB0001D4805682AE01D48056827E01B4845683D
:103EC00024E000F081F8054620E00021204600F0C3
:103ED0002FF805461AE00121204600F029F8054692
:103EE00014E00221204600F023F805460EE00321ED
:103EF000204600F01DF8054608E00421204600F0A9
:103F000017F8054602E0002500E000BF00BF284684
:103F100070BD0000001BB7002C31044040787D01CB
:103F200080F0FA02784E001A7C4E001AB40000109D
:103F30002DE9F04107460C46204600F01DF80646E4
:103F4000204600F009F805463046FFF787FF691C58
:103F5000B0FBF1F0BDE8F0810146044850F82100C3
:103F600003A2525C02EA900070470000480005403E
:103F7000030F0F0FFF0000000146064B03EB81000B
:103F8000826C02F0010008B111207047C2F3046096
:103F9000FBE700000000054070B5662000F050F817
:103FA000044607480068C0F3C265012D05D10548E5
:103FB000006800F4803000B16408204670BD000045
:103FC000781405402C3104402DE9FE4F1A48446C0A
:103FD000C4F30360FFF742FF074618A00068009093
:103FE0001548006C00F0010010B90020BDE8FE8FFC
:103FF000C4F30748C4F30139C4F3012AC4F3C01B56
:10400000C4F38010029008F1010509F101061DF8C2
:104010000A000190BBF1000F01D1029818B1B7FB63
:10402000F6F06843E2E701984000B5FBF0F0B7FB1B
:10403000F6F14843DAE700000000054001020408F9
:104040002DE9F0410446B4F5A17F05DB1048A4F545
:10405000A17150F8315002E00E4850F8345005F08C
:10406000010080B12046FFF7B5FE80464046FFF7CD
:10407000EBFE0646C5F3421008B9012700E002270F
:10408000B6FBF7F600E000263046BDE8F081000000
:10409000002105400011054070B504460E4E06EBA8
:1040A0008405E86D1C2C10DA112914D00B4D284022
:1040B0000AB140F400600BB140F0010040EA016039
:1040C000054D5C3545F8240005E040F00106024D41
:1040D0005C3545F8246070BD00000540FEF7FFE048
:1040E00030B50F4D05EB8004A36C521E112910D082
:1040F0000CA4245C0D4D45EA8404A34343F40064FE
:1041000044EA016444EA8205054C483444F82050EE
:1041100005E043F00105024C483444F8205030BD1E
:1041200000000540030F0F0FFF0000000100001FFB
:1041300070B50446FFF730FF05462A46214602487F
:1041400000F02BFD70BD00000050004010B50AB11A
:10415000012300E0002309B1012400E0002443EA28
:104160000423044CA36008B1012300E00023014CA8
:10417000236010BD0050004070B50446FFF70CFFEF
:1041800005462A462146024800F0FBFD70BD0000AE
:10419000005000407047000030B5C0EBC004074D30
:1041A00005EB8403012900D030BD1C6904F1140221
:1041B00000BF1478042CFCD000BFF5E7BC00001051
:1041C0002DE9F04104460D46C4EBC4000B4901EB58
:1041D0008007012D01D0BDE8F081386900F1140697
:1041E00006E0204600F02CF810B1204600F06AF8F6
:1041F00030780428F5D000BFEDE70000BC000010C7
:104200000146C1EBC100024A02EB800080687047A2
:10421000BC00001010B5044600BFC4EBC401074A3F
:1042200002EB81018888FFF79BFD00BF6C20C4EB87
:10423000C401024A52F82110886110BDBC00001070
:104240000146C1EBC100034A52F820000068C0F3E8
:10425000C0007047BC000010FFB587B007460C4691
:104260001D46109E182101A8FFF784FC8DF804401C
:1042700009A80290012003900495059600BF01A9AA
:10428000384600F03BF80228F9D00598301A0BB0F8
:10429000F0BDF0B587B007460D4616461C461821FE
:1042A00001A8FFF767FC8DF804500296039400BF45
:1042B00001A9384600F022F80228F9D00398201A04
:1042C00007B0F0BD10B50446C4EBC4020A4B03EBC3
:1042D00082021169C4EBC40253F8220000F0EDFB26
:1042E00040B9C4EBC400044901EB8000022182689C
:1042F0002046904710BD0000BC00001070B5064677
:104300000D46C6EBC600174901EB80040321304679
:10431000A2689047042028752561606930B920683B
:104320002C2181616021016000BF00BF0121304666
:10433000A26890470020206100BF20680168012228
:1043400022EA11110029F8D0208B00F47F4010B12F
:10435000206800F04AFD04213046A2689047287D7D
:1043600070BD0000BC00001070B504460D4620462C
:1043700000F07CFBB0FBF5F67008C4EBC401084A02
:1043800052F821100861C4EBC400114651F8200016
:104390000069301AC4EBC40152F82110486170BDA5
:1043A000BC00001010B50346C3EBC300064C04EB81
:1043B0008002106900B991609068884201D10120A3
:1043C00010BD0020FCE70000BC00001010B5044642
:1043D0002320FFF7C5FC10BD7FB505460E4601A89A
:1043E00002AB03AA31460090284600F08DFA10B9BE
:1043F000002004B070BD286847F6E77120EA010488
:104400007079082800DC07E07079102802DC44F09D
:10441000010401E044F003043079012801D10420B3
:1044200000E00020044300BF7079401EC0F3080084
:1044300044EA80142C60002028630198401EA86282
:10444000BDF80800BDF80C1040EA012028620120E8
:10445000CFE7000010B501460B4B0846CA1701EB29
:10446000D262521103EB82030A46C81701EBD060F7
:104470004011A1EB40140120A0401C68204008B965
:10448000012010BD0020FCE75031054010B5094A5D
:104490000146C31700EBD3635B1102EB8302C31722
:1044A00000EBD3635B11A0EB43140123A340136023
:1044B00010BD000000310540016270470146034A0B
:1044C000914201D1A52000E08320704700500C40AC
:1044D00002469069084008B1012070470020FCE7BF
:1044E0000246D068084008B1012070470020FCE770
:1044F00070B504462046FFF7E1FF0546FFF730FCA4
:104500000021204600F054F8072000210A462368C5
:1045100023F0FF0303430B431343236000BF02490F
:10452000204600F00AF870BDA086010001468868A8
:1045300080B270478AB2826070472DE9F0478046AA
:104540000D464046FFF7BAFF8246FFF779FD8146E8
:104550000024671E02260AE0601C7043B9FBF0F7D6
:10456000AF4204D9641CFF2C01D90024B61CAF4211
:10457000F2D832462146404600F002F8BDE8F08706
:1045800010B5046824F47F43CCB243EA04240460E9
:10459000026110BD70B505460C4624B100212846C5
:1045A00000F006F803E00421284600F001F870BD91
:1045B000426822F004020A43426070472DE9F04746
:1045C00080460F4614460025002602E04046FFF7CD
:1045D000ADFF04214046FFF783FF0028F6D10321F9
:1045E0004046FFF769FF00BFD8F8000000F00F0059
:1045F00007282ADDB94623E002214046FFF770FF75
:10460000012809D1A54207D2B9F800104046FFF7AA
:1046100091FF09F10209AD1C01214046FFF758FF47
:10462000012802D10020BDE8F08703E04046FFF7F3
:104630007DFFB61C04214046FFF752FF0128F5D04C
:10464000A542D9D3A642D7D32BE0B94624E0022114
:104650004046FFF745FF012809D1A54207D299F846
:1046600000104046FFF766FF09F101096D1C0121AA
:104670004046FFF72DFF012801D10020D3E703E0DA
:104680004046FFF753FF761C04214046FFF728FF02
:10469000012801D1A642F3D3A542D8D3A642D6D34E
:1046A00000BF2846BFE770B504460D46164600F029
:1046B00089F870BDC16821F08001C1607047C16890
:1046C00041F08001C16070470146084A914201D122
:1046D000A2200AE0064A914201D1A12005E0054A44
:1046E000914201D1822000E08120704700200C40DF
:1046F00000100C400020084070B504462046FFF72B
:10470000E3FF064601231A461946FFF745FB07203B
:10471000A06000BF00BF0020E06500BF6060E060F7
:104720002062E064606520650548844202D1002073
:104730002061A5690320E06000BF1020A06270BD69
:10474000002008402DE9F04780460E464046FFF71E
:10475000BBFF8246FFF774FC07463001B7FBF0F45D
:10476000250AA4EB05294046FFF7A9FFEAB209F0A4
:10477000FF01404600F007F84046FFF79BFFB7FBFC
:10478000F4F0BDE8F08701604260704710B5692021
:10479000FFF756FC0149086010BD00009C000010A6
:1047A00008B50020009008E00098401C0090009898
:1047B000401E00900098401C00900098B0F5806F5B
:1047C000F2D308BD70B52948806920F0040027495C
:1047D00088610846806920F001008861FFF7E0FFEA
:1047E0002248406C20F07060204948640846406CC4
:1047F00040F0C06048640846406C40F40060486483
:104800000846406C1A490840184948640846406CFC
:1048100018490843154948640846406C20F00100D7
:10482000486400BF1148006C00F001000028F9D076
:10483000FFF7B6FF10480D49C866FFF7B1FF002427
:1048400011E00E4D05EB8405EB780C4D05EB84056E
:10485000AA780A4D05EB84056978084D15F82400FF
:10486000FFF71AFC641C122CEBD370BD000005404E
:104870003DCC00FFC001100000080009A851001A3B
:1048800030B504460B46002B02DA5842001230BD08
:104890000848B4FBF0F101FB03F04FF47A75B0FB6C
:1048A000F5F1FF31090A914201D9881AEFE700209A
:1048B000EDE7000040420F003EB50F480F4B191DB9
:1048C00000221C6801940C6800940D4D019CAC42C0
:1048D00005D10C4D009CAC4201D1012400E0002424
:1048E00022463AB104680294029C44F47004029493
:1048F000029C04603EBD000088ED00E040EF00E057
:1049000021001110110000112DE9FF4F87B00E4654
:104910000020059004904FF6FF7002902320FFF7CF
:104920008FFB814602213068A0FB012370790021B2
:10493000A2FB00CE03FB00E002FB010002210023EA
:10494000ACFB012E00FB01E00CFB0300000440EA7D
:10495000124011044A46CDE9001008460199FEF7BD
:10496000EBFF0746884640240EE00020A7FB041218
:1049700008FB042207FB00204FF48032891A70F1F3
:10498000000000D202E0641E002CEED100BF1CB972
:1049900000200BB0BDE8F08FA7FB0471FF2520E0DD
:1049A000A5FB07A00AF07F4000B119E01FFA8AFBBF
:1049B000BBF5004F04DDCBF1000080B2039001E0B5
:1049C000CDF80CB0039810B9A8B204900BE0DDE963
:1049D0000210884203DA03980290A8B2049000BF44
:1049E0006D1E002DDCD100BF04983168A0FB0103CF
:1049F00002214FF0000CA0FB012E03FB01E100FBA4
:104A00000C137079A2FB001E03FB00E002FB0C02FA
:104A10006346A1FB040C02FB04C201FB0322022338
:104A20004FF0000CA0FB031E02FB03E200FB0C2076
:104A30004A466346CDE9001008460199FEF77CFF1F
:104A400080B205900598FF2801DDFF2005900598AC
:104A500008B9012005900999059808800A990498D9
:104A6000088014980460012093E7000010B5044604
:104A7000C4EBC401034A02EB81018888FFF7E0FA26
:104A800010BD0000BC0000100146C1F3C112022A93
:104A900001D108207047012A03D1C1F381200830D9
:104AA000F8E71AB9C1F381200930F3E70020F1E7F4
:104AB0000146486800F0F800704770B506460C469D
:104AC0003C253046FFF7F4FF00F0070100294ED1E6
:104AD000C0100C284BD2DFE800F045060711371252
:104AE0003D423138272400BFA06808B9012000E00A
:104AF0000020217840EA4100B06038E000BFA068A3
:104B000030B9206908B1202000E01020854307E07B
:104B10006168481C60600878B060A068401EA060B2
:104B200025E025F0100500BFB068C1B2E268501C56
:104B3000E06011702069401E206100BF20690128DB
:104B400001DD25F0040512E000BF0520207525F0E9
:104B500010050CE00120207525F0100507E002206B
:104B6000207504E00320207525F0100500BF00BF6C
:104B700085F03C00306025F01000B06105F01000B9
:104B800010B1207D022806D1207D042801D100200B
:104B90002075002070BD0120FCE72DE9F84F044688
:104BA0000D46914600261AE004EB461005F134014B
:104BB00001EB0611097905F1340202EB0612926845
:104BC0004FF4706303EA02121143C0F8041105F1B7
:104BD000340101EB0611C968C0F80011761C042EDF
:104BE000E2D36868A06201224846A968FFF748FE40
:104BF000206301224846E968FFF742FE6063012214
:104C000048462969FFF73CFEA063012248466969CE
:104C1000FFF736FEE06300224846A969FFF730FE41
:104C2000206401224846E969FFF72AFE60640122F8
:104C30004846296AFFF724FEA06401224846696AB3
:104C4000FFF71EFEE06401224846A96AFFF718FE3E
:104C5000206501224846E96AFFF712FE60650122DD
:104C60004846296BFFF70CFEA0650020009002E08B
:104C70000098401C00900098B0F57A7FF8DB40F275
:104C8000831020620020009002E00098401C0090F9
:104C90000098B0F57A7FF8DB40F203102062022022
:104CA00060620020009002E00098401C0090009894
:104CB0005028F9DB002248462968FFF7E1FD0F3054
:104CC0004FEA101AC4F824A08320206200263FE097
:104CD00005F1340101EB0611C868FFF7D5FEC7B234
:104CE00005F1340000EB0610808900F4804010B11B
:104CF000B81CC7B201E0781CC7B205F1340000EB64
:104D00000610808900F4805060B905F1340000EB92
:104D10000610808900F4606010B9781CC7B201E009
:104D2000B81CC7B205F1340000EB0610D0F80080C3
:104D3000B8F1000F0BD005F1340202EB06129168B6
:104D400001FA07F242EA0802106800BF00BF761CB1
:104D5000042EBDD30020E43444F8C40CE06940F4D0
:104D60000020E061E06B40F40020E063E06D40F47F
:104D70000020E065E06F40F40020E067E43CBDE81F
:104D8000F88F2DE9F04106460C461746207806EBD1
:104D9000401505F500756068286001223846A16855
:104DA000FFF76EFD686000223846E168FFF768FD96
:104DB000A860012238462169FFF762FDE860012200
:104DC00038466169FFF75CFD286102223846A16917
:104DD000FFF756FD686101223846E169FFF750FD93
:104DE000A861A5F50075BDE8F08128218161442105
:104DF000016070474FF04070E1EE100A704700000C
:104E00003C52001A1052001AC904001A0000000097
:104E1000BC53001A9853001AF929001A0000000028
:104E2000EC53001AC453001AB92A001A00000000FB
:104E30001854001AF053001A012B001A0000000049
:104E4000060606060604040418191A1B1C0C0D0E8F
:104E5000E50E0000DD0E000068010000ED0000001E
:104E600008040400F00004030400400100010101F3
:104E7000010602000000000000000000001BB70057
:104E800008030100070301000B0E0100030F0101DD
:104E90000303F3000304F3000305F3000306F30028
:104EA0000307F3000308F3000113F0000001B6004C
:104EB0000112B3000114B3000111F3000C01B3009F
:104EC0000110F700010FF3000000F2000107F300EA
:104ED0000108F3000109F300010AF300010BF300DC
:104EE000010CF300010DF300010EF3000504F200C4
:104EF0000505F2000506F2000507F2000500F200C4
:104F00000501F2000502F2000503F2000D02F200B5
:104F10000D03F2000D04F2000D05F2000D06F20083
:104F20000D07F2000D08F2000D09F2000E05F30066
:104F30000E06F3000E07F3000E08F3000E09F3004F
:104F40000E0AF3000E0BF3000E0CF3000209F3003F
:104F5000020AF300020BF300020CF300020DF3004F
:104F60000100F2000101F2000102F2000208F30068
:104F70000207F3000206F2000202F2000201F20050
:104F80000200F2000608F1000607F1000D10F20021
:104F90000D0FF2000E00F3000E01F3000E02F300FD
:104FA0000E03F3000E04F3000A04F3000104F300FF
:104FB0000606F1000D0DF2000D0AF2000609F300DD
:104FC0000106F3000604F3000605F300060BF300E8
:104FD000060CF300060AF3000D00F2000E0DF300BC
:104FE0000103F3000104F3000606F1000105F300DC
:104FF0000106F3000D0A54000D0B54000D0C540073
:105000000D0D54000D0E5400090050000901500010
:10501000090250000F00F0000F01F4000F02F2002F
:105020000F03F2000401050004020200040502005F
:10503000040602000407000004090200040A02003A
:10504000070000000706030008030300080403002C
:105050000805030008060300080703000B00020010
:105060000B0102000B0202000B0302000B04020002
:105070000B0502000B0602000300F2000600F4001C
:105080000702F2000602F3000701F2000601F30036
:1050900003021200030152000000F0000001F000C2
:1050A0000002F0000003F00000093D0001000000D4
:1050B00000120000002A00000046000000FFFFFF71
:1050C00000FBFFFF000C0000003C0000003C000063
:1050D00000460000000C000000FEFFFF000000285A
:1050E0000300000032000000005500000000000036
:1050F00000000000000000000000000000000000B0
:10510000000000000000000000000000000000009F
:10511000000000000000000000000000000000008F
:10512000820000000000000000410000005A000062
:10513000005A00000023000000FCFFFF00000500F3
:105140000A00200024000900400040000500600023
:10515000A6000400C000C3000200E000E00001005F
:105160000001000103002001200106004001400170
:105170000C00420142011900620162011300820128
:1051800082011200A201A2011100C201C20110009D
:10519000E201E2010F00020202020E0022022202DC
:1051A0000D00230223021C00000101000909010077
:1051B0000A090100010701010209010006090100B5
:1051C0000C0901010D0901000E0901000F09010080
:1051D0001009010011090100120901001309010061
:1051E00014110100191101001A1101001B11010015
:1051F000000F320000A55F00000202100000000056
:1052000000000202000020E4E400000001000000B1
:1052100068656C703A204C6973747320616C6C2003
:10522000746865207265676973746572656420636C
:105230006F6D6D616E64730D0A00000068656C70BF
:10524000000000000D496E636F7272656374206325
:105250006F6D6D616E6420706172616D65746572F1
:105260002873292E2020456E746572202268656C93
:10527000702220746F20766965772061206C6973D5
:1052800074206F6620617661696C61626C65206371
:105290006F6D6D616E64732E0D0A0D0A00000000C3
:1052A0000D436F6D6D616E64206E6F742072656367
:1052B0006F676E697365642E2020456E7465722079
:1052C0002268656C702220746F2076696577206192
:1052D000206C697374206F6620617661696C61620D
:1052E0006C6520636F6D6D616E64732E0D0A0D0A1F
:1052F000000000006563686F5F335F706172616D0D
:1053000065746572733A0D0A093C706172616D31A2
:105310005F737472696E673E203C706172616D32BA
:105320005F696E743E203C706172616D335F696EBF
:10533000743E3A200D0A09457870656374732074D1
:105340006872656520706172616D65746572732C39
:10535000206563686F73206561636820696E2074DF
:1053600075726E0D0A00000074657374202D2D2077
:105370006F6E6C792074657374210A006563686FC1
:105380005F335F706172616D6574657273000000F8
:10539000746573740000000073746174202D2D20F7
:1053A00073686F7720616C6C207461736B2063701D
:1053B00075207573756167650A0000007374617408
:1053C00000000000697372202D2D2073686F772014
:1053D000206672656520696E7465727275707420DE
:1053E000737461636B2073697A650A006973720074
:1053F000737461636B202D2D2073686F7720616C4F
:105400006C2066726565207461736B2073746163D0
:105410006B2073697A650A00737461636B00000026
:105420004054001A00000010F40000005001001A5F
:105430003455001AF4000010CC1D00006C01001A55
:105440000C0000100000000000000000004E001AD8
:10545000000000000000000000000000000000004C
:10546000000000000000000000000000000000003C
:10547000000000000000000000000000000000002C
:10548000000000000000000000000000000000001C
:10549000000000000000000000000000000000000C
:1054A000000000009053001A6853001A1129001AD6
:1054B000000000007C53001AF452001AA728001ABA
:1054C00003000000000000000000000000000000D9
:1054D00000000000000000000000000000000000CC
:1054E00000000000000000000000000000000000BC
:1054F00000000000000000000000000000100A4052
:10550000220000009941001A000000000000000085
:10551000000000000000000000000E40010000003C
:105520009941001A00000000000000000000000087
:045530000000000077
:040000051A000115C7
:00000001FF
