Component: ARM Compiler 5.06 (build 20) Tool: armlink [4d35a3]

==============================================================================

Section Cross References

    fifo.o(.text) refers to cpu.o(.text) for OS_CPU_SR_Save
    fifo.o(.text) refers to user_extension.o(.text) for raw_memcpy
    rsh.o(.text) refers to cpu.o(.text) for OS_CPU_SR_Save
    rsh.o(.text) refers to string.o(.text) for raw_strncmp
    rsh.o(.text) refers to user_extension.o(.text) for raw_memset
    rsh.o(.text) refers to rsh.o(.data) for .data
    rsh.o(.text) refers to rsh.o(.conststring) for .conststring
    rsh.o(.constdata) refers to rsh.o(.conststring) for .conststring
    rsh.o(.constdata) refers to rsh.o(.text) for rsh_help_command
    rsh.o(.data) refers to rsh.o(.constdata) for xHelpCommand
    raw_block.o(.text) refers to cpu.o(.text) for OS_CPU_SR_Save
    raw_byte.o(.text) refers to cpu.o(.text) for OS_CPU_SR_Save
    raw_byte.o(.text) refers to raw_obj.o(.data) for raw_task_active
    raw_event.o(.text) refers to cpu.o(.text) for OS_CPU_SR_Save
    raw_event.o(.text) refers to raw_pend.o(.text) for raw_pend_object
    raw_event.o(.text) refers to raw_sched.o(.text) for raw_sched
    raw_event.o(.text) refers to raw_system.o(.text) for block_state_post_process
    raw_event.o(.text) refers to raw_obj.o(.bss) for raw_task_debug
==============================================================================

Removing Unused input sections from the image.

    Removing raw_block.o(.text), (236 bytes).
    Removing raw_byte.o(.text), (452 bytes).
    Removing raw_event.o(.text), (536 bytes).
    Removing raw_queue.o(.text), (1016 bytes).
    Removing raw_queue_buffer.o(.text), (868 bytes).
    Removing raw_queue_size.o(.text), (1012 bytes).
    Removing raw_task_queue_size.o(.text), (80 bytes).
    Removing sysinit.o(.rev16_text), (4 bytes).
    Removing sysinit.o(.revsh_text), (4 bytes).
    Removing main.o(.rev16_text), (4 bytes).
    Removing main.o(.revsh_text), (4 bytes).
    Removing main.o(.data), (4 bytes).
    Removing lpc43xx_scu.o(.rev16_text), (4 bytes).
    Removing lpc43xx_scu.o(.revsh_text), (4 bytes).
    Removing lpc43xx_scu.o(.text), (20 bytes).
    Removing chip_18xx_43xx.o(.rev16_text), (4 bytes).
    Removing chip_18xx_43xx.o(.revsh_text), (4 bytes).
    Removing chip_18xx_43xx.o(i.Chip_USB0_Init), (60 bytes).
==============================================================================

Image Symbol Table

    Local Symbols

    Symbol Name                              Value     Ov Type        Size  Object(Section)

    ../clib/angel/boardlib.s                 0x00000000   Number         0  boardinit1.o ABSOLUTE
    ../clib/angel/boardlib.s                 0x00000000   Number         0  boardinit2.o ABSOLUTE
    ../clib/angel/boardlib.s                 0x00000000   Number         0  boardshut.o ABSOLUTE
    ../clib/angel/boardlib.s                 0x00000000   Number         0  boardinit3.o ABSOLUTE
    ../clib/angel/handlers.s                 0x00000000   Number         0  __scatter_copy.o ABSOLUTE
    ../clib/angel/handlers.s                 0x00000000   Number         0  __scatter_zi.o ABSOLUTE
    ../clib/angel/kernel.s                   0x00000000   Number         0  __rtentry2.o ABSOLUTE
    ../clib/angel/kernel.s                   0x00000000   Number         0  __rtentry.o ABSOLUTE
    ../clib/angel/kernel.s                   0x00000000   Number         0  rtexit.o ABSOLUTE
    ../clib/angel/kernel.s                   0x00000000   Number         0  __rtentry4.o ABSOLUTE
    ../clib/angel/kernel.s                   0x00000000   Number         0  rtexit2.o ABSOLUTE
    ../clib/angel/rt.s                       0x00000000   Number         0  aeabi_ldiv0_sigfpe.o ABSOLUTE
    ../clib/angel/rt.s                       0x00000000   Number         0  aeabi_ldiv0.o ABSOLUTE
    ../clib/angel/rt.s                       0x00000000   Number         0  rt_raise.o ABSOLUTE
    ../clib/angel/rt.s                       0x00000000   Number         0  rt_div0.o ABSOLUTE
    ../clib/angel/scatter.s                  0x00000000   Number         0  __scatter.o ABSOLUTE
    ../clib/angel/startup.s                  0x00000000   Number         0  __main.o ABSOLUTE
    ../clib/angel/sys.s                      0x00000000   Number         0  indicate_semi.o ABSOLUTE
    ../clib/angel/sys.s                      0x00000000   Number         0  use_no_semi.o ABSOLUTE
    ../clib/angel/sys.s                      0x00000000   Number         0  sys_stackheap_outer.o ABSOLUTE
    ../clib/angel/sys.s                      0x00000000   Number         0  libspace.o ABSOLUTE
    ../clib/angel/sysapp.c                   0x00000000   Number         0  sys_command.o ABSOLUTE
    ../clib/angel/sysapp.c                   0x00000000   Number         0  sys_wrch.o ABSOLUTE
    ../clib/armsys.c                         0x00000000   Number         0  argv_veneer.o ABSOLUTE
    ../clib/armsys.c                         0x00000000   Number         0  _get_argv_nomalloc.o ABSOLUTE
    ../clib/armsys.c                         0x00000000   Number         0  no_argv.o ABSOLUTE
    ../clib/armsys.c                         0x00000000   Number         0  argv_veneer.o ABSOLUTE
    ../clib/heapalloc.c                      0x00000000   Number         0  hrguard.o ABSOLUTE
    ../clib/heapaux.c                        0x00000000   Number         0  heapauxi.o ABSOLUTE
    ../clib/libinit.s                        0x00000000   Number         0  libinit2.o ABSOLUTE
    ../clib/libinit.s                        0x00000000   Number         0  libshutdown.o ABSOLUTE
    ../clib/libinit.s                        0x00000000   Number         0  libshutdown2.o ABSOLUTE
    ../clib/libinit.s                        0x00000000   Number         0  libinit.o ABSOLUTE
    ../clib/longlong.s                       0x00000000   Number         0  lludivv7m.o ABSOLUTE
    ../clib/memcpset.s                       0x00000000   Number         0  rt_memcpy_w.o ABSOLUTE
    ../clib/memcpset.s                       0x00000000   Number         0  rt_memclr_w.o ABSOLUTE
    ../clib/memcpset.s                       0x00000000   Number         0  rt_memcpy_v6.o ABSOLUTE
    ../clib/printf.c                         0x00000000   Number         0  __printf_nopercent.o ABSOLUTE
    ../clib/printf.c                         0x00000000   Number         0  _printf_char_common.o ABSOLUTE
    ../clib/printf.c                         0x00000000   Number         0  __printf_flags_wp.o ABSOLUTE
    ../clib/printf.c                         0x00000000   Number         0  _printf_char.o ABSOLUTE
    ../clib/printf.c                         0x00000000   Number         0  _printf_intcommon.o ABSOLUTE
    ../clib/printf.c                         0x00000000   Number         0  _printf_char_file.o ABSOLUTE
    ../clib/printf.c                         0x00000000   Number         0  __printf_ss.o ABSOLUTE
    ../clib/printf.c                         0x00000000   Number         0  __printf_flags_ss_wp.o ABSOLUTE
    ../clib/printf.c                         0x00000000   Number         0  __printf_ss_wp.o ABSOLUTE
    ../clib/printf.c                         0x00000000   Number         0  __printf_wp.o ABSOLUTE
    ../clib/printf.c                         0x00000000   Number         0  __printf_flags_ss.o ABSOLUTE
    ../clib/printf.c                         0x00000000   Number         0  __printf_flags.o ABSOLUTE
    ../clib/printf.c                         0x00000000   Number         0  _printf_dec.o ABSOLUTE
    ../clib/printf.c                         0x00000000   Number         0  _printf_str.o ABSOLUTE
    ../clib/printf.c                         0x00000000   Number         0  __printf.o ABSOLUTE
    ../clib/printf.c                         0x00000000   Number         0  noretval__2printf.o ABSOLUTE
    ../clib/printf.c                         0x00000000   Number         0  __2printf.o ABSOLUTE
    ../clib/printf_percent.s                 0x00000000   Number         0  _printf_percent_end.o ABSOLUTE
    ../clib/printf_percent.s                 0x00000000   Number         0  _printf_d.o ABSOLUTE
    ../clib/printf_percent.s                 0x00000000   Number         0  _printf_c.o ABSOLUTE
    ../clib/printf_percent.s                 0x00000000   Number         0  _printf_percent.o ABSOLUTE
    ../clib/printf_percent.s                 0x00000000   Number         0  _printf_s.o ABSOLUTE
    ../clib/signal.c                         0x00000000   Number         0  defsig_fpe_inner.o ABSOLUTE
    ../clib/signal.c                         0x00000000   Number         0  defsig_cppl_inner.o ABSOLUTE
    ../clib/signal.c                         0x00000000   Number         0  __raise.o ABSOLUTE
    ../clib/signal.c                         0x00000000   Number         0  defsig_general.o ABSOLUTE
    ../clib/signal.c                         0x00000000   Number         0  defsig_segv_inner.o ABSOLUTE
    ../clib/signal.c                         0x00000000   Number         0  defsig_other.o ABSOLUTE
    ../clib/signal.c                         0x00000000   Number         0  defsig_rtmem_inner.o ABSOLUTE
    ../clib/signal.c                         0x00000000   Number         0  defsig_abrt_inner.o ABSOLUTE
    ../clib/signal.c                         0x00000000   Number         0  defsig_rtred_inner.o ABSOLUTE
    ../clib/signal.c                         0x00000000   Number         0  defsig_rtmem_outer.o ABSOLUTE
    ../clib/signal.c                         0x00000000   Number         0  defsig_rtmem_formal.o ABSOLUTE
    ../clib/signal.c                         0x00000000   Number         0  defsig_fpe_outer.o ABSOLUTE
    ../clib/signal.c                         0x00000000   Number         0  defsig_fpe_formal.o ABSOLUTE
    ../clib/signal.c                         0x00000000   Number         0  defsig_stak_inner.o ABSOLUTE
    ../clib/signal.c                         0x00000000   Number         0  defsig_pvfn_inner.o ABSOLUTE
    ../clib/signal.c                         0x00000000   Number         0  defsig_exit.o ABSOLUTE
    ../clib/signal.s                         0x00000000   Number         0  defsig.o ABSOLUTE
    ../clib/stdlib.c                         0x00000000   Number         0  exit.o ABSOLUTE
    ../fplib/fpinit.s                        0x00000000   Number         0  fpinit.o ABSOLUTE
    ..\..\..\..\software\common\lpc43xx_scu.c 0x00000000   Number         0  lpc43xx_scu.o ABSOLUTE
    ..\..\..\..\software\kernel\port\cpu.asm 0x00000000   Number         0  cpu.o ABSOLUTE
    ..\..\..\..\software\kernel\port\port.c  0x00000000   Number         0  port.o ABSOLUTE
    ..\..\..\..\software\kernel\port\port_error_process.c 0x00000000   Number         0  port_error_process.o ABSOLUTE
    ..\..\..\..\software\kernel\port\port_extension.c 0x00000000   Number         0  port_extension.o ABSOLUTE
    ..\..\..\..\software\kernel\port\port_hook.c 0x00000000   Number         0  port_hook.o ABSOLUTE
    ..\..\..\..\software\kernel\port\raw_trace_port.c 0x00000000   Number         0  raw_trace_port.o ABSOLUTE
    ..\..\..\..\software\kernel\port\user_extension.c 0x00000000   Number         0  user_extension.o ABSOLUTE
    ..\..\..\..\software\kernel\raw-os\extension\lib\fifo.c 0x00000000   Number         0  fifo.o ABSOLUTE
    ..\..\..\..\software\kernel\raw-os\extension\lib\string.c 0x00000000   Number         0  string.o ABSOLUTE
    ..\..\..\..\software\kernel\raw-os\extension\shell\cpu_time_stat.c 0x00000000   Number         0  cpu_time_stat.o ABSOLUTE
    ..\..\..\..\software\kernel\raw-os\extension\shell\isr_stack_detect.c 0x00000000   Number         0  isr_stack_detect.o ABSOLUTE
    ..\..\..\..\software\kernel\raw-os\extension\shell\rsh.c 0x00000000   Number         0  rsh.o ABSOLUTE
    ..\..\..\..\software\kernel\raw-os\extension\shell\task_stack_detect.c 0x00000000   Number         0  task_stack_detect.o ABSOLUTE
    ..\..\..\..\software\kernel\raw-os\raw_block.c 0x00000000   Number         0  raw_block.o ABSOLUTE
    ..\..\..\..\software\kernel\raw-os\raw_byte.c 0x00000000   Number         0  raw_byte.o ABSOLUTE
    ..\..\..\..\software\kernel\raw-os\raw_event.c 0x00000000   Number         0  raw_event.o ABSOLUTE
    ..\..\..\..\software\kernel\raw-os\raw_idle.c 0x00000000   Number         0  raw_idle.o ABSOLUTE
    ..\..\..\..\software\kernel\raw-os\raw_idle_event.c 0x00000000   Number         0  raw_idle_event.o ABSOLUTE
    ..\..\..\..\software\kernel\raw-os\raw_mutex.c 0x00000000   Number         0  raw_mutex.o ABSOLUTE
    ..\..\..\..\software\kernel\raw-os\raw_obj.c 0x00000000   Number         0  raw_obj.o ABSOLUTE
    ..\..\..\..\software\kernel\raw-os\raw_pend.c 0x00000000   Number         0  raw_pend.o ABSOLUTE
    ..\..\..\..\software\kernel\raw-os\raw_queue.c 0x00000000   Number         0  raw_queue.o ABSOLUTE
    ..\..\..\..\software\kernel\raw-os\raw_queue_buffer.c 0x00000000   Number         0  raw_queue_buffer.o ABSOLUTE
    ..\..\..\..\software\kernel\raw-os\raw_queue_size.c 0x00000000   Number         0  raw_queue_size.o ABSOLUTE
    ..\..\..\..\software\kernel\raw-os\raw_sched.c 0x00000000   Number         0  raw_sched.o ABSOLUTE
    ..\..\..\..\software\kernel\raw-os\raw_sem.c 0x00000000   Number         0  raw_sem.o ABSOLUTE
    ..\..\..\..\software\kernel\raw-os\raw_stat.c 0x00000000   Number         0  raw_stat.o ABSOLUTE
    ..\..\..\..\software\kernel\raw-os\raw_stm.c 0x00000000   Number         0  raw_stm.o ABSOLUTE
    ..\..\..\..\software\kernel\raw-os\raw_system.c 0x00000000   Number         0  raw_system.o ABSOLUTE
    ..\..\..\..\software\kernel\raw-os\raw_task.c 0x00000000   Number         0  raw_task.o ABSOLUTE
    ..\..\..\..\software\kernel\raw-os\raw_task_queue_size.c 0x00000000   Number         0  raw_task_queue_size.o ABSOLUTE
    ..\..\..\..\software\kernel\raw-os\raw_task_sem.c 0x00000000   Number         0  raw_task_sem.o ABSOLUTE
    ..\..\..\..\software\kernel\raw-os\raw_tick.c 0x00000000   Number         0  raw_tick.o ABSOLUTE
    ..\..\..\..\software\kernel\raw-os\raw_timer.c 0x00000000   Number         0  raw_timer.o ABSOLUTE
    ..\..\board_common\uda1380.c             0x00000000   Number         0  uda1380.o ABSOLUTE
    ..\..\examples\shell\command_example.c   0x00000000   Number         0  command_example.o ABSOLUTE
    ..\..\examples\shell\main.c              0x00000000   Number         0  main.o ABSOLUTE
    ..\..\startup_code\keil_startup_lpc18xx43xx.s 0x00000000   Number         0  keil_startup_lpc18xx43xx.o ABSOLUTE
    ..\..\startup_code\sysinit.c             0x00000000   Number         0  sysinit.o ABSOLUTE
    ..\\..\\..\\..\\software\\common\\lpc43xx_scu.c 0x00000000   Number         0  lpc43xx_scu.o ABSOLUTE
    ..\\..\\board_common\\uda1380.c          0x00000000   Number         0  uda1380.o ABSOLUTE
    ..\\..\\examples\\shell\\main.c          0x00000000   Number         0  main.o ABSOLUTE
    ..\\..\\startup_code\\sysinit.c          0x00000000   Number         0  sysinit.o ABSOLUTE
    ..\\chip_common\\fpu_init.c              0x00000000   Number         0  fpu_init.o ABSOLUTE
    ..\chip_common\fpu_init.c                0x00000000   Number         0  fpu_init.o ABSOLUTE
    ..\chip_common\ring_buffer.c             0x00000000   Number         0  ring_buffer.o ABSOLUTE
    board.c                                  0x00000000   Number         0  board.o ABSOLUTE
    board.c                                  0x00000000   Number         0  board.o ABSOLUTE
    board_sysinit.c                          0x00000000   Number         0  board_sysinit.o ABSOLUTE
    board_sysinit.c                          0x00000000   Number         0  board_sysinit.o ABSOLUTE
    chip_18xx_43xx.c                         0x00000000   Number         0  chip_18xx_43xx.o ABSOLUTE
    chip_18xx_43xx.c                         0x00000000   Number         0  chip_18xx_43xx.o ABSOLUTE
    clock_18xx_43xx.c                        0x00000000   Number         0  clock_18xx_43xx.o ABSOLUTE
    clock_18xx_43xx.c                        0x00000000   Number         0  clock_18xx_43xx.o ABSOLUTE
    dc.s                                     0x00000000   Number         0  dc.o ABSOLUTE
    emc_18xx_43xx.c                          0x00000000   Number         0  emc_18xx_43xx.o ABSOLUTE
    emc_18xx_43xx.c                          0x00000000   Number         0  emc_18xx_43xx.o ABSOLUTE
    gpio_18xx_43xx.c                         0x00000000   Number         0  gpio_18xx_43xx.o ABSOLUTE
    gpio_18xx_43xx.c                         0x00000000   Number         0  gpio_18xx_43xx.o ABSOLUTE
    i2c_18xx_43xx.c                          0x00000000   Number         0  i2c_18xx_43xx.o ABSOLUTE
    i2c_18xx_43xx.c                          0x00000000   Number         0  i2c_18xx_43xx.o ABSOLUTE
    i2s_18xx_43xx.c                          0x00000000   Number         0  i2s_18xx_43xx.o ABSOLUTE
    i2s_18xx_43xx.c                          0x00000000   Number         0  i2s_18xx_43xx.o ABSOLUTE
    rgu_18xx_43xx.c                          0x00000000   Number         0  rgu_18xx_43xx.o ABSOLUTE
    rgu_18xx_43xx.c                          0x00000000   Number         0  rgu_18xx_43xx.o ABSOLUTE
    ssp_18xx_43xx.c                          0x00000000   Number         0  ssp_18xx_43xx.o ABSOLUTE
    ssp_18xx_43xx.c                          0x00000000   Number         0  ssp_18xx_43xx.o ABSOLUTE
    sysinit_18xx_43xx.c                      0x00000000   Number         0  sysinit_18xx_43xx.o ABSOLUTE
    sysinit_18xx_43xx.c                      0x00000000   Number         0  sysinit_18xx_43xx.o ABSOLUTE
    uart_18xx_43xx.c                         0x00000000   Number         0  uart_18xx_43xx.o ABSOLUTE
    uart_18xx_43xx.c                         0x00000000   Number         0  uart_18xx_43xx.o ABSOLUTE
    .data                                    0x10000000   Section       20  rsh.o(.data)
    current_command_list_point               0x10000000   Data           4  rsh.o(.data)
    current_process_command_point            0x10000004   Data           4  rsh.o(.data)
    current_help_command_point               0x10000008   Data           4  rsh.o(.data)
    xRegisteredCommands                      0x1000000c   Data           8  rsh.o(.data)
    .data                                    0x10000014   Section        2  raw_obj.o(.data)
    .data                                    0x10000016   Section        1  raw_obj.o(.data)
    .data                                    0x10000017   Section        1  raw_obj.o(.data)
    .data                                    0x10000018   Section        1  raw_obj.o(.data)
    .data                                    0x1000001c   Section        4  raw_obj.o(.data)
    .data                                    0x10000020   Section        4  raw_obj.o(.data)
    .data                                    0x10000028   Section        8  raw_obj.o(.data)
    .data                                    0x10000030   Section        4  raw_obj.o(.data)
    .data                                    0x10000034   Section        8  raw_obj.o(.data)
    .data                                    0x1000003c   Section        4  raw_obj.o(.data)
    .data                                    0x10000040   Section        4  raw_obj.o(.data)
    .data                                    0x10000048   Section        8  raw_obj.o(.data)
    .data                                    0x10000050   Section        4  main.o(.data)
    cmdlen                                   0x10000050   Data           4  main.o(.data)
    .data                                    0x10000054   Section       48  command_example.o(.data)
    pxNewListItem3                           0x10000054   Data           8  command_example.o(.data)
    pxNewListItem1                           0x1000005c   Data           8  command_example.o(.data)
    test_rsh_command                         0x10000064   Data          16  command_example.o(.data)
    three_parameters_case                    0x10000074   Data          16  command_example.o(.data)
    .data                                    0x10000084   Section        8  cpu_time_stat.o(.data)
    cpu_usuage_item                          0x10000084   Data           8  cpu_time_stat.o(.data)
    .data                                    0x1000008c   Section        8  isr_stack_detect.o(.data)
    isr_stack_item                           0x1000008c   Data           8  isr_stack_detect.o(.data)
    .data                                    0x10000094   Section        8  task_stack_detect.o(.data)
    task_stack_item                          0x10000094   Data           8  task_stack_detect.o(.data)
    .data                                    0x1000009c   Section        4  chip_18xx_43xx.o(.data)
    .data                                    0x100000a0   Section       20  board.o(.data)
    .data                                    0x100000b4   Section        8  clock_18xx_43xx.o(.data)
    audio_usb_pll_freq                       0x100000b4   Data           8  clock_18xx_43xx.o(.data)
    .data                                    0x100000bc   Section       56  i2c_18xx_43xx.o(.data)
    i2c                                      0x100000bc   Data          56  i2c_18xx_43xx.o(.data)
    .bss                                     0x100000f4   Section      508  raw_obj.o(.bss)
    .bss                                     0x100002f0   Section      144  raw_obj.o(.bss)
    .bss                                     0x10000380   Section      320  raw_obj.o(.bss)
    .bss                                     0x100004c0   Section       64  raw_obj.o(.bss)
    .bss                                     0x10000500   Section      144  raw_obj.o(.bss)
    .bss                                     0x10000590   Section     1024  raw_obj.o(.bss)
    .bss                                     0x10000990   Section       36  raw_obj.o(.bss)
    .bss                                     0x100009b4   Section       40  raw_obj.o(.bss)
    .bss                                     0x100009dc   Section       56  raw_obj.o(.bss)
    .bss                                     0x10000a18   Section      144  raw_obj.o(.bss)
    .bss                                     0x10000aa8   Section     1024  raw_obj.o(.bss)
    .bss                                     0x10000ea8   Section       36  raw_obj.o(.bss)
    .bss                                     0x10000ed0   Section     2188  main.o(.bss)
    fifo_buffer                              0x100015dc   Data         128  main.o(.bss)
    cmdbuf                                   0x1000165c   Data         256  main.o(.bss)
    .bss                                     0x1000175c   Section       96  libspace.o(.bss)
    HEAP                                     0x100017c0   Section      256  keil_startup_lpc18xx43xx.o(HEAP)
    Heap_Mem                                 0x100017c0   Data         256  keil_startup_lpc18xx43xx.o(HEAP)
    STACK                                    0x100018c0   Section     1536  keil_startup_lpc18xx43xx.o(STACK)
    __initial_sp                             0x10001ec0   Data           0  keil_startup_lpc18xx43xx.o(STACK)
    RESET                                    0x1a000000   Section      276  keil_startup_lpc18xx43xx.o(RESET)
    !!!main                                  0x1a000114   Section        8  __main.o(!!!main)
    !!!scatter                               0x1a00011c   Section       52  __scatter.o(!!!scatter)
    !!handler_copy                           0x1a000150   Section       26  __scatter_copy.o(!!handler_copy)
    !!handler_zi                             0x1a00016c   Section       28  __scatter_zi.o(!!handler_zi)
    .ARM.Collect$$_printf_percent$$00000000  0x1a000188   Section        0  _printf_percent.o(.ARM.Collect$$_printf_percent$$00000000)
    .ARM.Collect$$_printf_percent$$00000009  0x1a000188   Section        6  _printf_d.o(.ARM.Collect$$_printf_percent$$00000009)
    .ARM.Collect$$_printf_percent$$00000013  0x1a00018e   Section        6  _printf_c.o(.ARM.Collect$$_printf_percent$$00000013)
    .ARM.Collect$$_printf_percent$$00000014  0x1a000194   Section        6  _printf_s.o(.ARM.Collect$$_printf_percent$$00000014)
    .ARM.Collect$$_printf_percent$$00000017  0x1a00019a   Section        4  _printf_percent_end.o(.ARM.Collect$$_printf_percent$$00000017)
    .ARM.Collect$$libinit$$00000000          0x1a00019e   Section        2  libinit.o(.ARM.Collect$$libinit$$00000000)
    .ARM.Collect$$libinit$$00000001          0x1a0001a0   Section        4  libinit2.o(.ARM.Collect$$libinit$$00000001)
    .ARM.Collect$$libinit$$00000004          0x1a0001a4   Section        0  libinit2.o(.ARM.Collect$$libinit$$00000004)
    .ARM.Collect$$libinit$$0000000A          0x1a0001a4   Section        0  libinit2.o(.ARM.Collect$$libinit$$0000000A)
    .ARM.Collect$$libinit$$0000000C          0x1a0001a4   Section        0  libinit2.o(.ARM.Collect$$libinit$$0000000C)
    .ARM.Collect$$libinit$$0000000E          0x1a0001a4   Section        0  libinit2.o(.ARM.Collect$$libinit$$0000000E)
    .ARM.Collect$$libinit$$00000011          0x1a0001a4   Section        0  libinit2.o(.ARM.Collect$$libinit$$00000011)
    .ARM.Collect$$libinit$$00000013          0x1a0001a4   Section        0  libinit2.o(.ARM.Collect$$libinit$$00000013)
    .ARM.Collect$$libinit$$00000015          0x1a0001a4   Section        0  libinit2.o(.ARM.Collect$$libinit$$00000015)
    .ARM.Collect$$libinit$$00000017          0x1a0001a4   Section        0  libinit2.o(.ARM.Collect$$libinit$$00000017)
    .ARM.Collect$$libinit$$00000019          0x1a0001a4   Section        0  libinit2.o(.ARM.Collect$$libinit$$00000019)
    .ARM.Collect$$libinit$$0000001B          0x1a0001a4   Section        0  libinit2.o(.ARM.Collect$$libinit$$0000001B)
    .ARM.Collect$$libinit$$0000001D          0x1a0001a4   Section        0  libinit2.o(.ARM.Collect$$libinit$$0000001D)
    .ARM.Collect$$libinit$$0000001F          0x1a0001a4   Section        0  libinit2.o(.ARM.Collect$$libinit$$0000001F)
    .ARM.Collect$$libinit$$00000021          0x1a0001a4   Section        0  libinit2.o(.ARM.Collect$$libinit$$00000021)
    .ARM.Collect$$libinit$$00000023          0x1a0001a4   Section        0  libinit2.o(.ARM.Collect$$libinit$$00000023)
    .ARM.Collect$$libinit$$00000025          0x1a0001a4   Section        0  libinit2.o(.ARM.Collect$$libinit$$00000025)
    .ARM.Collect$$libinit$$0000002C          0x1a0001a4   Section        0  libinit2.o(.ARM.Collect$$libinit$$0000002C)
    .ARM.Collect$$libinit$$0000002E          0x1a0001a4   Section        0  libinit2.o(.ARM.Collect$$libinit$$0000002E)
    .ARM.Collect$$libinit$$00000030          0x1a0001a4   Section        0  libinit2.o(.ARM.Collect$$libinit$$00000030)
    .ARM.Collect$$libinit$$00000032          0x1a0001a4   Section        0  libinit2.o(.ARM.Collect$$libinit$$00000032)
    .ARM.Collect$$libinit$$00000033          0x1a0001a4   Section        2  libinit2.o(.ARM.Collect$$libinit$$00000033)
    .ARM.Collect$$libshutdown$$00000000      0x1a0001a6   Section        2  libshutdown.o(.ARM.Collect$$libshutdown$$00000000)
    .ARM.Collect$$libshutdown$$00000002      0x1a0001a8   Section        0  libshutdown2.o(.ARM.Collect$$libshutdown$$00000002)
    .ARM.Collect$$libshutdown$$00000004      0x1a0001a8   Section        0  libshutdown2.o(.ARM.Collect$$libshutdown$$00000004)
    .ARM.Collect$$libshutdown$$00000007      0x1a0001a8   Section        0  libshutdown2.o(.ARM.Collect$$libshutdown$$00000007)
    .ARM.Collect$$libshutdown$$0000000A      0x1a0001a8   Section        0  libshutdown2.o(.ARM.Collect$$libshutdown$$0000000A)
    .ARM.Collect$$libshutdown$$0000000C      0x1a0001a8   Section        0  libshutdown2.o(.ARM.Collect$$libshutdown$$0000000C)
    .ARM.Collect$$libshutdown$$0000000F      0x1a0001a8   Section        0  libshutdown2.o(.ARM.Collect$$libshutdown$$0000000F)
    .ARM.Collect$$libshutdown$$00000010      0x1a0001a8   Section        2  libshutdown2.o(.ARM.Collect$$libshutdown$$00000010)
    .ARM.Collect$$rtentry$$00000000          0x1a0001aa   Section        0  __rtentry.o(.ARM.Collect$$rtentry$$00000000)
    .ARM.Collect$$rtentry$$00000002          0x1a0001aa   Section        0  __rtentry2.o(.ARM.Collect$$rtentry$$00000002)
    .ARM.Collect$$rtentry$$00000004          0x1a0001aa   Section        6  __rtentry4.o(.ARM.Collect$$rtentry$$00000004)
    .ARM.Collect$$rtentry$$00000009          0x1a0001b0   Section        0  __rtentry2.o(.ARM.Collect$$rtentry$$00000009)
    .ARM.Collect$$rtentry$$0000000A          0x1a0001b0   Section        4  __rtentry2.o(.ARM.Collect$$rtentry$$0000000A)
    .ARM.Collect$$rtentry$$0000000C          0x1a0001b4   Section        0  __rtentry2.o(.ARM.Collect$$rtentry$$0000000C)
    .ARM.Collect$$rtentry$$0000000D          0x1a0001b4   Section        8  __rtentry2.o(.ARM.Collect$$rtentry$$0000000D)
    .ARM.Collect$$rtexit$$00000000           0x1a0001bc   Section        2  rtexit.o(.ARM.Collect$$rtexit$$00000000)
    .ARM.Collect$$rtexit$$00000002           0x1a0001be   Section        0  rtexit2.o(.ARM.Collect$$rtexit$$00000002)
    .ARM.Collect$$rtexit$$00000003           0x1a0001be   Section        4  rtexit2.o(.ARM.Collect$$rtexit$$00000003)
    .ARM.Collect$$rtexit$$00000004           0x1a0001c2   Section        6  rtexit2.o(.ARM.Collect$$rtexit$$00000004)
    .text                                    0x1a0001c8   Section        0  fifo.o(.text)
    internal_fifo_out_peek                   0x1a000269   Thumb Code    62  fifo.o(.text)
    .text                                    0x1a00033c   Section        0  rsh.o(.text)
    rsh_help_command                         0x1a0004c9   Thumb Code    40  rsh.o(.text)
    command_length_get                       0x1a0004f1   Thumb Code    22  rsh.o(.text)
    .text                                    0x1a000514   Section        0  string.o(.text)
    .text                                    0x1a000764   Section        0  raw_idle.o(.text)
    .text                                    0x1a000788   Section        0  raw_mutex.o(.text)
    is_list_empty                            0x1a000b29   Thumb Code    14  raw_mutex.o(.text)
    release_mutex                            0x1a000b37   Thumb Code    30  raw_mutex.o(.text)
    .text                                    0x1a000b64   Section        0  raw_pend.o(.text)
    pend_task_wake_up                        0x1a000c7b   Thumb Code    96  raw_pend.o(.text)
    list_insert                              0x1a000db1   Thumb Code    14  raw_pend.o(.text)
    list_delete                              0x1a000dbf   Thumb Code    12  raw_pend.o(.text)
    add_to_priority_list                     0x1a000dcb   Thumb Code    30  raw_pend.o(.text)
    bit_set                                  0x1a000de9   Thumb Code    20  raw_pend.o(.text)
    .text                                    0x1a000e08   Section        0  raw_sched.o(.text)
    .text                                    0x1a000f6c   Section        0  raw_sem.o(.text)
    is_list_empty                            0x1a0011e3   Thumb Code    14  raw_sem.o(.text)
    .text                                    0x1a001200   Section        0  raw_stat.o(.text)
    .text                                    0x1a001280   Section        0  raw_system.o(.text)
    .text                                    0x1a00143c   Section        0  raw_task.o(.text)
    .text                                    0x1a001c20   Section        0  raw_task_sem.o(.text)
    .text                                    0x1a001c54   Section        0  raw_tick.o(.text)
    tick_task_process                        0x1a001db3   Thumb Code    28  raw_tick.o(.text)
    .text                                    0x1a001e4c   Section        0  raw_timer.o(.text)
    timer_list_priority_insert               0x1a002161   Thumb Code    40  raw_timer.o(.text)
    timer_list_remove                        0x1a002189   Thumb Code    24  raw_timer.o(.text)
    .text                                    0x1a0021dc   Section      172  cpu.o(.text)
    $v0                                      0x1a0021dc   Number         0  cpu.o(.text)
    .text                                    0x1a002288   Section        0  port.o(.text)
    .text                                    0x1a00243c   Section        0  port_hook.o(.text)
    .text                                    0x1a00245a   Section        0  port_error_process.o(.text)
    .text                                    0x1a0024b2   Section        0  user_extension.o(.text)
    .text                                    0x1a00253c   Section       68  keil_startup_lpc18xx43xx.o(.text)
    $v0                                      0x1a00253c   Number         0  keil_startup_lpc18xx43xx.o(.text)
    .text                                    0x1a002580   Section        0  sysinit.o(.text)
    .text                                    0x1a00259c   Section        0  main.o(.text)
    NVIC_EnableIRQ                           0x1a0027fb   Thumb Code    22  main.o(.text)
    NVIC_SetPriority                         0x1a002811   Thumb Code    32  main.o(.text)
    .text                                    0x1a00287c   Section        0  command_example.o(.text)
    command_case_three_parameters            0x1a0028a7   Thumb Code   106  command_example.o(.text)
    command_case_no_parameters               0x1a002911   Thumb Code    18  command_example.o(.text)
    .text                                    0x1a0029c8   Section        0  port_extension.o(.text)
    .text                                    0x1a0029f8   Section        0  cpu_time_stat.o(.text)
    rsh_cpu_usuage_command                   0x1a0029f9   Thumb Code   130  cpu_time_stat.o(.text)
    .text                                    0x1a002ab8   Section        0  isr_stack_detect.o(.text)
    rsh_isr_stack_command                    0x1a002ab9   Thumb Code    20  isr_stack_detect.o(.text)
    .text                                    0x1a002b00   Section        0  task_stack_detect.o(.text)
    rsh_task_stack_command                   0x1a002b01   Thumb Code    40  task_stack_detect.o(.text)
    .text                                    0x1a002b70   Section        0  board.o(.text)
    delay                                    0x1a002bd9   Thumb Code    12  board.o(.text)
    Board_Audio_CodecInit                    0x1a002be5   Thumb Code    32  board.o(.text)
    writeLCD00_16                            0x1a002c05   Thumb Code    58  board.o(.text)
    writeLCD01_16                            0x1a002c3f   Thumb Code    72  board.o(.text)
    writeLCDReg                              0x1a002c87   Thumb Code    20  board.o(.text)
    pinConfig                                0x1a002c9b   Thumb Code    14  board.o(.text)
    writeTSCReg                              0x1a002ca9   Thumb Code    28  board.o(.text)
    readTSCReg                               0x1a002cc5   Thumb Code    24  board.o(.text)
    detectTSCTouch                           0x1a002cdd   Thumb Code    36  board.o(.text)
    getTSCCoord                              0x1a002d01   Thumb Code   114  board.o(.text)
    Board_LED_Init                           0x1a002e0b   Thumb Code    28  board.o(.text)
    Chip_SCU_PinMuxSet                       0x1a00358d   Thumb Code    12  board.o(.text)
    Chip_GPIO_SetPinState                    0x1a003599   Thumb Code    10  board.o(.text)
    Chip_GPIO_GetPinState                    0x1a0035a3   Thumb Code    18  board.o(.text)
    Chip_GPIO_SetPinDIROutput                0x1a0035b5   Thumb Code    72  board.o(.text)
    Chip_GPIO_SetPinDIRInput                 0x1a0035fd   Thumb Code    28  board.o(.text)
    .text                                    0x1a003618   Section        0  board_sysinit.o(.text)
    Chip_SCU_SetPinMuxing                    0x1a003619   Thumb Code    44  board_sysinit.o(.text)
    .text                                    0x1a0037b4   Section        0  uda1380.o(.text)
    Audio_Codec_SetDefaultValues             0x1a00381b   Thumb Code    36  uda1380.o(.text)
    .text                                    0x1a003938   Section      238  lludivv7m.o(.text)
    .text                                    0x1a003a28   Section        0  noretval__2printf.o(.text)
    .text                                    0x1a003a40   Section        0  __printf.o(.text)
    .text                                    0x1a003aa8   Section        0  _printf_str.o(.text)
    .text                                    0x1a003afc   Section        0  _printf_dec.o(.text)
    .text                                    0x1a003b74   Section       78  rt_memclr_w.o(.text)
    .text                                    0x1a003bc2   Section        0  heapauxi.o(.text)
    .text                                    0x1a003bc8   Section        0  _printf_intcommon.o(.text)
    .text                                    0x1a003c7a   Section        0  _printf_char.o(.text)
    .text                                    0x1a003ca8   Section        0  _printf_char_file.o(.text)
    .text                                    0x1a003ccc   Section        0  _printf_char_common.o(.text)
    _printf_input_char                       0x1a003ccd   Thumb Code    10  _printf_char_common.o(.text)
    .text                                    0x1a003cfc   Section       74  sys_stackheap_outer.o(.text)
    .text                                    0x1a003d46   Section        0  exit.o(.text)
    .text                                    0x1a003d58   Section        8  libspace.o(.text)
    i.Chip_Clock_Enable                      0x1a003d60   Section        0  clock_18xx_43xx.o(i.Chip_Clock_Enable)
    i.Chip_Clock_EnableOpts                  0x1a003d98   Section        0  clock_18xx_43xx.o(i.Chip_Clock_EnableOpts)
    i.Chip_Clock_FindBaseClock               0x1a003dd4   Section        0  clock_18xx_43xx.o(i.Chip_Clock_FindBaseClock)
    Chip_Clock_FindBaseClock                 0x1a003dd5   Thumb Code    74  clock_18xx_43xx.o(i.Chip_Clock_FindBaseClock)
    i.Chip_Clock_GetBaseClock                0x1a003e24   Section        0  clock_18xx_43xx.o(i.Chip_Clock_GetBaseClock)
    i.Chip_Clock_GetBaseClocktHz             0x1a003e48   Section        0  clock_18xx_43xx.o(i.Chip_Clock_GetBaseClocktHz)
    i.Chip_Clock_GetClockInputHz             0x1a003e5c   Section        0  clock_18xx_43xx.o(i.Chip_Clock_GetClockInputHz)
    i.Chip_Clock_GetDivRate                  0x1a003f30   Section        0  clock_18xx_43xx.o(i.Chip_Clock_GetDivRate)
    Chip_Clock_GetDivRate                    0x1a003f31   Thumb Code    40  clock_18xx_43xx.o(i.Chip_Clock_GetDivRate)
    i.Chip_Clock_GetDividerDivisor           0x1a003f58   Section        0  clock_18xx_43xx.o(i.Chip_Clock_GetDividerDivisor)
    i.Chip_Clock_GetDividerSource            0x1a003f78   Section        0  clock_18xx_43xx.o(i.Chip_Clock_GetDividerSource)
    i.Chip_Clock_GetEMCRate                  0x1a003f98   Section        0  clock_18xx_43xx.o(i.Chip_Clock_GetEMCRate)
    i.Chip_Clock_GetMainPLLHz                0x1a003fc8   Section        0  clock_18xx_43xx.o(i.Chip_Clock_GetMainPLLHz)
    i.Chip_Clock_GetRate                     0x1a004040   Section        0  clock_18xx_43xx.o(i.Chip_Clock_GetRate)
    i.Chip_Clock_SetBaseClock                0x1a004098   Section        0  clock_18xx_43xx.o(i.Chip_Clock_SetBaseClock)
    i.Chip_Clock_SetDivider                  0x1a0040e0   Section        0  clock_18xx_43xx.o(i.Chip_Clock_SetDivider)
    i.Chip_EMC_Dynamic_Init                  0x1a004130   Section        0  emc_18xx_43xx.o(i.Chip_EMC_Dynamic_Init)
    i.Chip_EMC_Init                          0x1a00414c   Section        0  emc_18xx_43xx.o(i.Chip_EMC_Init)
    i.Chip_EMC_Static_Init                   0x1a004178   Section        0  emc_18xx_43xx.o(i.Chip_EMC_Static_Init)
    i.Chip_GPIO_Init                         0x1a004194   Section        0  gpio_18xx_43xx.o(i.Chip_GPIO_Init)
    i.Chip_I2C_EventHandler                  0x1a004198   Section        0  i2c_18xx_43xx.o(i.Chip_I2C_EventHandler)
    i.Chip_I2C_EventHandlerPolling           0x1a0041c0   Section        0  i2c_18xx_43xx.o(i.Chip_I2C_EventHandlerPolling)
    i.Chip_I2C_GetMasterEventHandler         0x1a004200   Section        0  i2c_18xx_43xx.o(i.Chip_I2C_GetMasterEventHandler)
    i.Chip_I2C_Init                          0x1a004214   Section        0  i2c_18xx_43xx.o(i.Chip_I2C_Init)
    i.Chip_I2C_IsStateChanged                0x1a004240   Section        0  i2c_18xx_43xx.o(i.Chip_I2C_IsStateChanged)
    i.Chip_I2C_MasterCmdRead                 0x1a004258   Section        0  i2c_18xx_43xx.o(i.Chip_I2C_MasterCmdRead)
    i.Chip_I2C_MasterSend                    0x1a004292   Section        0  i2c_18xx_43xx.o(i.Chip_I2C_MasterSend)
    i.Chip_I2C_MasterStateHandler            0x1a0042c4   Section        0  i2c_18xx_43xx.o(i.Chip_I2C_MasterStateHandler)
    i.Chip_I2C_MasterTransfer                0x1a0042fc   Section        0  i2c_18xx_43xx.o(i.Chip_I2C_MasterTransfer)
    i.Chip_I2C_SetClockRate                  0x1a004368   Section        0  i2c_18xx_43xx.o(i.Chip_I2C_SetClockRate)
    i.Chip_I2C_SetMasterEventHandler         0x1a0043a4   Section        0  i2c_18xx_43xx.o(i.Chip_I2C_SetMasterEventHandler)
    i.Chip_I2S_Init                          0x1a0043cc   Section        0  i2s_18xx_43xx.o(i.Chip_I2S_Init)
    i.Chip_I2S_TxConfig                      0x1a0043d8   Section        0  i2s_18xx_43xx.o(i.Chip_I2S_TxConfig)
    i.Chip_RGU_InReset                       0x1a004454   Section        0  rgu_18xx_43xx.o(i.Chip_RGU_InReset)
    i.Chip_RGU_TriggerReset                  0x1a00448c   Section        0  rgu_18xx_43xx.o(i.Chip_RGU_TriggerReset)
    i.Chip_SSP_ClearIntPending               0x1a0044b8   Section        0  ssp_18xx_43xx.o(i.Chip_SSP_ClearIntPending)
    Chip_SSP_ClearIntPending                 0x1a0044b9   Thumb Code     4  ssp_18xx_43xx.o(i.Chip_SSP_ClearIntPending)
    i.Chip_SSP_GetClockIndex                 0x1a0044bc   Section        0  ssp_18xx_43xx.o(i.Chip_SSP_GetClockIndex)
    Chip_SSP_GetClockIndex                   0x1a0044bd   Thumb Code    16  ssp_18xx_43xx.o(i.Chip_SSP_GetClockIndex)
    i.Chip_SSP_GetRawIntStatus               0x1a0044d0   Section        0  ssp_18xx_43xx.o(i.Chip_SSP_GetRawIntStatus)
    Chip_SSP_GetRawIntStatus                 0x1a0044d1   Thumb Code    16  ssp_18xx_43xx.o(i.Chip_SSP_GetRawIntStatus)
    i.Chip_SSP_GetStatus                     0x1a0044e0   Section        0  ssp_18xx_43xx.o(i.Chip_SSP_GetStatus)
    Chip_SSP_GetStatus                       0x1a0044e1   Thumb Code    16  ssp_18xx_43xx.o(i.Chip_SSP_GetStatus)
    i.Chip_SSP_Init                          0x1a0044f0   Section        0  ssp_18xx_43xx.o(i.Chip_SSP_Init)
    i.Chip_SSP_ReceiveFrame                  0x1a00452c   Section        0  ssp_18xx_43xx.o(i.Chip_SSP_ReceiveFrame)
    Chip_SSP_ReceiveFrame                    0x1a00452d   Thumb Code     8  ssp_18xx_43xx.o(i.Chip_SSP_ReceiveFrame)
    i.Chip_SSP_SendFrame                     0x1a004534   Section        0  ssp_18xx_43xx.o(i.Chip_SSP_SendFrame)
    Chip_SSP_SendFrame                       0x1a004535   Thumb Code     6  ssp_18xx_43xx.o(i.Chip_SSP_SendFrame)
    i.Chip_SSP_SetBitRate                    0x1a00453a   Section        0  ssp_18xx_43xx.o(i.Chip_SSP_SetBitRate)
    i.Chip_SSP_SetClockRate                  0x1a004580   Section        0  ssp_18xx_43xx.o(i.Chip_SSP_SetClockRate)
    i.Chip_SSP_SetMaster                     0x1a004594   Section        0  ssp_18xx_43xx.o(i.Chip_SSP_SetMaster)
    i.Chip_SSP_Set_Mode                      0x1a0045b0   Section        0  ssp_18xx_43xx.o(i.Chip_SSP_Set_Mode)
    Chip_SSP_Set_Mode                        0x1a0045b1   Thumb Code    12  ssp_18xx_43xx.o(i.Chip_SSP_Set_Mode)
    i.Chip_SSP_WriteFrames_Blocking          0x1a0045bc   Section        0  ssp_18xx_43xx.o(i.Chip_SSP_WriteFrames_Blocking)
    i.Chip_SetupCoreClock                    0x1a0046a6   Section        0  sysinit_18xx_43xx.o(i.Chip_SetupCoreClock)
    i.Chip_UART_DisableDivisorAccess         0x1a0046b4   Section        0  uart_18xx_43xx.o(i.Chip_UART_DisableDivisorAccess)
    Chip_UART_DisableDivisorAccess           0x1a0046b5   Thumb Code    10  uart_18xx_43xx.o(i.Chip_UART_DisableDivisorAccess)
    i.Chip_UART_EnableDivisorAccess          0x1a0046be   Section        0  uart_18xx_43xx.o(i.Chip_UART_EnableDivisorAccess)
    Chip_UART_EnableDivisorAccess            0x1a0046bf   Thumb Code    10  uart_18xx_43xx.o(i.Chip_UART_EnableDivisorAccess)
    i.Chip_UART_GetClockIndex                0x1a0046c8   Section        0  uart_18xx_43xx.o(i.Chip_UART_GetClockIndex)
    Chip_UART_GetClockIndex                  0x1a0046c9   Thumb Code    36  uart_18xx_43xx.o(i.Chip_UART_GetClockIndex)
    i.Chip_UART_Init                         0x1a0046f8   Section        0  uart_18xx_43xx.o(i.Chip_UART_Init)
    i.Chip_UART_SetBaud                      0x1a004744   Section        0  uart_18xx_43xx.o(i.Chip_UART_SetBaud)
    i.Chip_UART_SetDivisorLatches            0x1a004786   Section        0  uart_18xx_43xx.o(i.Chip_UART_SetDivisorLatches)
    Chip_UART_SetDivisorLatches              0x1a004787   Thumb Code     6  uart_18xx_43xx.o(i.Chip_UART_SetDivisorLatches)
    i.SystemCoreClockUpdate                  0x1a00478c   Section        0  chip_18xx_43xx.o(i.SystemCoreClockUpdate)
    i.clock_init_delay                       0x1a0047a0   Section        0  sysinit_18xx_43xx.o(i.clock_init_delay)
    clock_init_delay                         0x1a0047a1   Thumb Code    36  sysinit_18xx_43xx.o(i.clock_init_delay)
    i.clock_main_init                        0x1a0047c4   Section        0  sysinit_18xx_43xx.o(i.clock_main_init)
    clock_main_init                          0x1a0047c5   Thumb Code   168  sysinit_18xx_43xx.o(i.clock_main_init)
    i.convertTimmingParam                    0x1a004880   Section        0  emc_18xx_43xx.o(i.convertTimmingParam)
    convertTimmingParam                      0x1a004881   Thumb Code    50  emc_18xx_43xx.o(i.convertTimmingParam)
    i.fpuInit                                0x1a0048b8   Section        0  fpu_init.o(i.fpuInit)
    i.getClkDiv                              0x1a004908   Section        0  i2s_18xx_43xx.o(i.getClkDiv)
    getClkDiv                                0x1a004909   Thumb Code   354  i2s_18xx_43xx.o(i.getClkDiv)
    i.getClkRate                             0x1a004a6c   Section        0  i2c_18xx_43xx.o(i.getClkRate)
    getClkRate                               0x1a004a6d   Thumb Code    22  i2c_18xx_43xx.o(i.getClkRate)
    i.getColsLen                             0x1a004a88   Section        0  emc_18xx_43xx.o(i.getColsLen)
    getColsLen                               0x1a004a89   Thumb Code    40  emc_18xx_43xx.o(i.getColsLen)
    i.getCurState                            0x1a004ab0   Section        0  i2c_18xx_43xx.o(i.getCurState)
    getCurState                              0x1a004ab1   Thumb Code    10  i2c_18xx_43xx.o(i.getCurState)
    i.handleMasterXferState                  0x1a004aba   Section        0  i2c_18xx_43xx.o(i.handleMasterXferState)
    i.initDynMem                             0x1a004b9a   Section        0  emc_18xx_43xx.o(i.initDynMem)
    i.initStaticMem                          0x1a004d82   Section        0  emc_18xx_43xx.o(i.initStaticMem)
    i.startSlaverXfer                        0x1a004dea   Section        0  i2c_18xx_43xx.o(i.startSlaverXfer)
    startSlaverXfer                          0x1a004deb   Thumb Code    10  i2c_18xx_43xx.o(i.startSlaverXfer)
    x$fpl$fpinit                             0x1a004df4   Section       10  fpinit.o(x$fpl$fpinit)
    $v0                                      0x1a004df4   Number         0  fpinit.o(x$fpl$fpinit)
    .constdata                               0x1a004e00   Section       16  rsh.o(.constdata)
    xHelpCommand                             0x1a004e00   Data          16  rsh.o(.constdata)
    .constdata                               0x1a004e10   Section       16  cpu_time_stat.o(.constdata)
    cpu_usuage_cmd                           0x1a004e10   Data          16  cpu_time_stat.o(.constdata)
    .constdata                               0x1a004e20   Section       16  isr_stack_detect.o(.constdata)
    isr_stack_cmd                            0x1a004e20   Data          16  isr_stack_detect.o(.constdata)
    .constdata                               0x1a004e30   Section       16  task_stack_detect.o(.constdata)
    task_stack_cmd                           0x1a004e30   Data          16  task_stack_detect.o(.constdata)
    .constdata                               0x1a004e40   Section       64  board.o(.constdata)
    ledports                                 0x1a004e40   Data           8  board.o(.constdata)
    ledbits                                  0x1a004e48   Data           8  board.o(.constdata)
    .constdata                               0x1a004e80   Section      700  board_sysinit.o(.constdata)
    InitClkStates                            0x1a004e80   Data          16  board_sysinit.o(.constdata)
    spifipinmuxing                           0x1a004e90   Data          24  board_sysinit.o(.constdata)
    pinmuxing                                0x1a004ea8   Data         496  board_sysinit.o(.constdata)
    pinclockmuxing                           0x1a005098   Data          16  board_sysinit.o(.constdata)
    MT48LC4M32_config                        0x1a0050a8   Data         116  board_sysinit.o(.constdata)
    S29GL64N90_config                        0x1a00511c   Data          32  board_sysinit.o(.constdata)
    .constdata                               0x1a00513c   Section      108  clock_18xx_43xx.o(.constdata)
    periph_to_base                           0x1a00513c   Data         108  clock_18xx_43xx.o(.constdata)
    .constdata                               0x1a0051a8   Section       72  sysinit_18xx_43xx.o(.constdata)
    InitClkStates                            0x1a0051a8   Data          72  sysinit_18xx_43xx.o(.constdata)
    .constdata                               0x1a0051f0   Section       31  uda1380.o(.constdata)
    UDA_sys_regs_dat                         0x1a0051f0   Data          11  uda1380.o(.constdata)
    UDA_interfil_regs_dat                    0x1a0051fb   Data          11  uda1380.o(.constdata)
    UDA_decimator_regs_dat                   0x1a005206   Data           9  uda1380.o(.constdata)
    .conststring                             0x1a005210   Section       49  rsh.o(.conststring)
    .conststring                             0x1a005244   Section      173  rsh.o(.conststring)
    .conststring                             0x1a0052f4   Section      161  command_example.o(.conststring)
    .conststring                             0x1a005398   Section       41  cpu_time_stat.o(.conststring)
    .conststring                             0x1a0053c4   Section       44  isr_stack_detect.o(.conststring)
    .conststring                             0x1a0053f0   Section       46  task_stack_detect.o(.conststring)

    Global Symbols

    Symbol Name                              Value     Ov Type        Size  Object(Section)

    BuildAttributes$$THM_ISAv4$E$P$D$K$B$S$7EM$VFPi3$EXTD16$VFPS$VFMA$PE$A:L22UL41UL21$X:L11$S22US41US21$IEEE1$IW$USESV6$~STKCKD$USESV7$~SHL$OSPACE$ROPI$EBA8$UX$STANDARDLIB$REQ8$PRES8$EABIv2 0x00000000   Number         0  anon$$obj.o ABSOLUTE
    __ARM_use_no_argv                        0x00000000   Number         0  main.o ABSOLUTE
    __ARM_exceptions_init                     - Undefined Weak Reference
    __alloca_initialize                       - Undefined Weak Reference
    __arm_preinit_                            - Undefined Weak Reference
    __cpp_initialize__aeabi_                  - Undefined Weak Reference
    __cxa_finalize                            - Undefined Weak Reference
    __rt_locale                               - Undefined Weak Reference
    __sigvec_lookup                           - Undefined Weak Reference
    _atexit_init                              - Undefined Weak Reference
    _call_atexit_fns                          - Undefined Weak Reference
    _clock_init                               - Undefined Weak Reference
    _fp_trap_init                             - Undefined Weak Reference
    _fp_trap_shutdown                         - Undefined Weak Reference
    _get_lc_collate                           - Undefined Weak Reference
    _get_lc_ctype                             - Undefined Weak Reference
    _get_lc_monetary                          - Undefined Weak Reference
    _get_lc_numeric                           - Undefined Weak Reference
    _get_lc_time                              - Undefined Weak Reference
    _getenv_init                              - Undefined Weak Reference
    _handle_redirection                       - Undefined Weak Reference
    _init_alloc                               - Undefined Weak Reference
    _init_user_alloc                          - Undefined Weak Reference
    _initio                                   - Undefined Weak Reference
    _printf_mbtowc                            - Undefined Weak Reference
    _printf_post_padding                      - Undefined Weak Reference
    _printf_pre_padding                       - Undefined Weak Reference
    _printf_truncate_signed                   - Undefined Weak Reference
    _printf_truncate_unsigned                 - Undefined Weak Reference
    _rand_init                                - Undefined Weak Reference
    _signal_finish                            - Undefined Weak Reference
    _signal_init                              - Undefined Weak Reference
    _terminate_alloc                          - Undefined Weak Reference
    _terminate_user_alloc                     - Undefined Weak Reference
    _terminateio                              - Undefined Weak Reference
    raw_os_active                            0x10000014   Data           2  raw_obj.o(.data)
    idle_task_exit                           0x10000016   Data           1  raw_obj.o(.data)
    raw_sched_lock                           0x10000017   Data           1  raw_obj.o(.data)
    raw_int_nesting                          0x10000018   Data           1  raw_obj.o(.data)
    high_ready_obj                           0x1000001c   Data           4  raw_obj.o(.data)
    raw_task_active                          0x10000020   Data           4  raw_obj.o(.data)
    raw_idle_count                           0x10000028   Data           8  raw_obj.o(.data)
    raw_tick_count                           0x10000030   Data           4  raw_obj.o(.data)
    timer_head                               0x10000034   Data           8  raw_obj.o(.data)
    raw_timer_count                          0x1000003c   Data           4  raw_obj.o(.data)
    raw_timer_ctrl                           0x10000040   Data           4  raw_obj.o(.data)
    sys_time_tick                            0x10000048   Data           8  raw_obj.o(.data)
    SystemCoreClock                          0x1000009c   Data           4  chip_18xx_43xx.o(.data)
    __stdout                                 0x100000a0   Data           4  board.o(.data)
    __stdin                                  0x100000a4   Data           4  board.o(.data)
    __stderr                                 0x100000a8   Data           4  board.o(.data)
    g_isPenDn                                0x100000ac   Data           4  board.o(.data)
    g_isNewPenDn                             0x100000b0   Data           4  board.o(.data)
    raw_ready_queue                          0x100000f4   Data         508  raw_obj.o(.bss)
    raw_idle_obj                             0x100002f0   Data         144  raw_obj.o(.bss)
    idle_stack                               0x10000380   Data         320  raw_obj.o(.bss)
    tick_head                                0x100004c0   Data          64  raw_obj.o(.bss)
    raw_timer_obj                            0x10000500   Data         144  raw_obj.o(.bss)
    timer_task_stack                         0x10000590   Data        1024  raw_obj.o(.bss)
    timer_sem                                0x10000990   Data          36  raw_obj.o(.bss)
    timer_mutex                              0x100009b4   Data          40  raw_obj.o(.bss)
    raw_task_debug                           0x100009dc   Data          56  raw_obj.o(.bss)
    tick_task_obj                            0x10000a18   Data         144  raw_obj.o(.bss)
    tick_task_stack                          0x10000aa8   Data        1024  raw_obj.o(.bss)
    tick_semaphore_obj                       0x10000ea8   Data          36  raw_obj.o(.bss)
    shell_task_stack                         0x10000ed0   Data        1600  main.o(.bss)
    shell_task_obj                           0x10001510   Data         144  main.o(.bss)
    uart_sema                                0x100015a0   Data          36  main.o(.bss)
    uart_fifo                                0x100015c4   Data          24  main.o(.bss)
    __libspace_start                         0x1000175c   Data          96  libspace.o(.bss)
    __temporary_stack_top$libspace           0x100017bc   Data           0  libspace.o(.bss)
    Stack_Mem                                0x100018c0   Data        1536  keil_startup_lpc18xx43xx.o(STACK)
    __Vectors                                0x1a000000   Data           4  keil_startup_lpc18xx43xx.o(RESET)
    __main                                   0x1a000115   Thumb Code     8  __main.o(!!!main)
    __scatterload                            0x1a00011d   Thumb Code     0  __scatter.o(!!!scatter)
    __scatterload_rt2                        0x1a00011d   Thumb Code    44  __scatter.o(!!!scatter)
    __scatterload_rt2_thumb_only             0x1a00011d   Thumb Code     0  __scatter.o(!!!scatter)
    __scatterload_null                       0x1a00012b   Thumb Code     0  __scatter.o(!!!scatter)
    __scatterload_copy                       0x1a000151   Thumb Code    26  __scatter_copy.o(!!handler_copy)
    __scatterload_zeroinit                   0x1a00016d   Thumb Code    28  __scatter_zi.o(!!handler_zi)
    _printf_d                                0x1a000189   Thumb Code     0  _printf_d.o(.ARM.Collect$$_printf_percent$$00000009)
    _printf_percent                          0x1a000189   Thumb Code     0  _printf_percent.o(.ARM.Collect$$_printf_percent$$00000000)
    _printf_c                                0x1a00018f   Thumb Code     0  _printf_c.o(.ARM.Collect$$_printf_percent$$00000013)
    _printf_s                                0x1a000195   Thumb Code     0  _printf_s.o(.ARM.Collect$$_printf_percent$$00000014)
    _printf_percent_end                      0x1a00019b   Thumb Code     0  _printf_percent_end.o(.ARM.Collect$$_printf_percent$$00000017)
    __rt_lib_init                            0x1a00019f   Thumb Code     0  libinit.o(.ARM.Collect$$libinit$$00000000)
    __rt_lib_init_fp_1                       0x1a0001a1   Thumb Code     0  libinit2.o(.ARM.Collect$$libinit$$00000001)
    __rt_lib_init_alloca_1                   0x1a0001a5   Thumb Code     0  libinit2.o(.ARM.Collect$$libinit$$0000002E)
    __rt_lib_init_argv_1                     0x1a0001a5   Thumb Code     0  libinit2.o(.ARM.Collect$$libinit$$0000002C)
    __rt_lib_init_atexit_1                   0x1a0001a5   Thumb Code     0  libinit2.o(.ARM.Collect$$libinit$$0000001B)
    __rt_lib_init_clock_1                    0x1a0001a5   Thumb Code     0  libinit2.o(.ARM.Collect$$libinit$$00000021)
    __rt_lib_init_cpp_1                      0x1a0001a5   Thumb Code     0  libinit2.o(.ARM.Collect$$libinit$$00000032)
    __rt_lib_init_exceptions_1               0x1a0001a5   Thumb Code     0  libinit2.o(.ARM.Collect$$libinit$$00000030)
    __rt_lib_init_fp_trap_1                  0x1a0001a5   Thumb Code     0  libinit2.o(.ARM.Collect$$libinit$$0000001F)
    __rt_lib_init_getenv_1                   0x1a0001a5   Thumb Code     0  libinit2.o(.ARM.Collect$$libinit$$00000023)
    __rt_lib_init_heap_1                     0x1a0001a5   Thumb Code     0  libinit2.o(.ARM.Collect$$libinit$$0000000A)
    __rt_lib_init_lc_collate_1               0x1a0001a5   Thumb Code     0  libinit2.o(.ARM.Collect$$libinit$$00000011)
    __rt_lib_init_lc_ctype_1                 0x1a0001a5   Thumb Code     0  libinit2.o(.ARM.Collect$$libinit$$00000013)
    __rt_lib_init_lc_monetary_1              0x1a0001a5   Thumb Code     0  libinit2.o(.ARM.Collect$$libinit$$00000015)
    __rt_lib_init_lc_numeric_1               0x1a0001a5   Thumb Code     0  libinit2.o(.ARM.Collect$$libinit$$00000017)
    __rt_lib_init_lc_time_1                  0x1a0001a5   Thumb Code     0  libinit2.o(.ARM.Collect$$libinit$$00000019)
    __rt_lib_init_preinit_1                  0x1a0001a5   Thumb Code     0  libinit2.o(.ARM.Collect$$libinit$$00000004)
    __rt_lib_init_rand_1                     0x1a0001a5   Thumb Code     0  libinit2.o(.ARM.Collect$$libinit$$0000000E)
    __rt_lib_init_return                     0x1a0001a5   Thumb Code     0  libinit2.o(.ARM.Collect$$libinit$$00000033)
    __rt_lib_init_signal_1                   0x1a0001a5   Thumb Code     0  libinit2.o(.ARM.Collect$$libinit$$0000001D)
    __rt_lib_init_stdio_1                    0x1a0001a5   Thumb Code     0  libinit2.o(.ARM.Collect$$libinit$$00000025)
    __rt_lib_init_user_alloc_1               0x1a0001a5   Thumb Code     0  libinit2.o(.ARM.Collect$$libinit$$0000000C)
    __rt_lib_shutdown                        0x1a0001a7   Thumb Code     0  libshutdown.o(.ARM.Collect$$libshutdown$$00000000)
    __rt_lib_shutdown_cpp_1                  0x1a0001a9   Thumb Code     0  libshutdown2.o(.ARM.Collect$$libshutdown$$00000002)
    __rt_lib_shutdown_fp_trap_1              0x1a0001a9   Thumb Code     0  libshutdown2.o(.ARM.Collect$$libshutdown$$00000007)
    __rt_lib_shutdown_heap_1                 0x1a0001a9   Thumb Code     0  libshutdown2.o(.ARM.Collect$$libshutdown$$0000000F)
    __rt_lib_shutdown_return                 0x1a0001a9   Thumb Code     0  libshutdown2.o(.ARM.Collect$$libshutdown$$00000010)
    __rt_lib_shutdown_signal_1               0x1a0001a9   Thumb Code     0  libshutdown2.o(.ARM.Collect$$libshutdown$$0000000A)
    __rt_lib_shutdown_stdio_1                0x1a0001a9   Thumb Code     0  libshutdown2.o(.ARM.Collect$$libshutdown$$00000004)
    __rt_lib_shutdown_user_alloc_1           0x1a0001a9   Thumb Code     0  libshutdown2.o(.ARM.Collect$$libshutdown$$0000000C)
    __rt_entry                               0x1a0001ab   Thumb Code     0  __rtentry.o(.ARM.Collect$$rtentry$$00000000)
    __rt_entry_presh_1                       0x1a0001ab   Thumb Code     0  __rtentry2.o(.ARM.Collect$$rtentry$$00000002)
    __rt_entry_sh                            0x1a0001ab   Thumb Code     0  __rtentry4.o(.ARM.Collect$$rtentry$$00000004)
    __rt_entry_li                            0x1a0001b1   Thumb Code     0  __rtentry2.o(.ARM.Collect$$rtentry$$0000000A)
    __rt_entry_postsh_1                      0x1a0001b1   Thumb Code     0  __rtentry2.o(.ARM.Collect$$rtentry$$00000009)
    __rt_entry_main                          0x1a0001b5   Thumb Code     0  __rtentry2.o(.ARM.Collect$$rtentry$$0000000D)
    __rt_entry_postli_1                      0x1a0001b5   Thumb Code     0  __rtentry2.o(.ARM.Collect$$rtentry$$0000000C)
    __rt_exit                                0x1a0001bd   Thumb Code     0  rtexit.o(.ARM.Collect$$rtexit$$00000000)
    __rt_exit_ls                             0x1a0001bf   Thumb Code     0  rtexit2.o(.ARM.Collect$$rtexit$$00000003)
    __rt_exit_prels_1                        0x1a0001bf   Thumb Code     0  rtexit2.o(.ARM.Collect$$rtexit$$00000002)
    __rt_exit_exit                           0x1a0001c3   Thumb Code     0  rtexit2.o(.ARM.Collect$$rtexit$$00000004)
    fifo_init                                0x1a0001c9   Thumb Code    68  fifo.o(.text)
    fifo_in                                  0x1a00020d   Thumb Code    92  fifo.o(.text)
    fifo_out_peek                            0x1a0002a7   Thumb Code    38  fifo.o(.text)
    fifo_out                                 0x1a0002cd   Thumb Code    50  fifo.o(.text)
    fifo_out_all                             0x1a0002ff   Thumb Code    62  fifo.o(.text)
    rsh_register_command                     0x1a00033d   Thumb Code    60  rsh.o(.text)
    rsh_process_command                      0x1a000379   Thumb Code   270  rsh.o(.text)
    rsh_get_parameter                        0x1a000487   Thumb Code    66  rsh.o(.text)
    raw_memmove                              0x1a000515   Thumb Code    44  string.o(.text)
    raw_memcmp                               0x1a000541   Thumb Code    28  string.o(.text)
    raw_strcpy                               0x1a00055d   Thumb Code    18  string.o(.text)
    raw_strncpy                              0x1a00056f   Thumb Code    24  string.o(.text)
    raw_strcat                               0x1a000587   Thumb Code    28  string.o(.text)
    raw_strncat                              0x1a0005a3   Thumb Code    44  string.o(.text)
    raw_strlen                               0x1a0005cf   Thumb Code    16  string.o(.text)
    raw_strncmp                              0x1a0005df   Thumb Code    42  string.o(.text)
    raw_strcmp                               0x1a000609   Thumb Code    34  string.o(.text)
    raw_strtol                               0x1a00062b   Thumb Code   194  string.o(.text)
    search_conf                              0x1a0006ed   Thumb Code    80  string.o(.text)
    raw_idle_task                            0x1a000765   Thumb Code    30  raw_idle.o(.text)
    raw_mutex_create                         0x1a000789   Thumb Code    72  raw_mutex.o(.text)
    chg_pri_mutex                            0x1a0007d1   Thumb Code   114  raw_mutex.o(.text)
    mutex_priority_look                      0x1a000843   Thumb Code    74  raw_mutex.o(.text)
    mutex_state_change                       0x1a00088d   Thumb Code    38  raw_mutex.o(.text)
    raw_mutex_get                            0x1a0008b3   Thumb Code   280  raw_mutex.o(.text)
    raw_mutex_put                            0x1a0009cb   Thumb Code   172  raw_mutex.o(.text)
    raw_task_free_mutex                      0x1a000a77   Thumb Code    70  raw_mutex.o(.text)
    raw_mutex_delete                         0x1a000abd   Thumb Code   108  raw_mutex.o(.text)
    run_queue_init                           0x1a000b65   Thumb Code    26  raw_pend.o(.text)
    add_ready_list_head                      0x1a000b7f   Thumb Code    40  raw_pend.o(.text)
    add_ready_list_end                       0x1a000ba7   Thumb Code    40  raw_pend.o(.text)
    add_ready_list                           0x1a000bcf   Thumb Code    20  raw_pend.o(.text)
    remove_ready_list                        0x1a000be3   Thumb Code   102  raw_pend.o(.text)
    move_to_ready_list_end                   0x1a000c49   Thumb Code    34  raw_pend.o(.text)
    get_ready_task                           0x1a000c6b   Thumb Code    16  raw_pend.o(.text)
    raw_wake_object                          0x1a000cdb   Thumb Code     2  raw_pend.o(.text)
    wake_send_msg                            0x1a000cdd   Thumb Code     4  raw_pend.o(.text)
    wake_send_msg_size                       0x1a000ce1   Thumb Code     6  raw_pend.o(.text)
    raw_pend_object                          0x1a000ce7   Thumb Code    70  raw_pend.o(.text)
    delete_pend_obj                          0x1a000d2d   Thumb Code    98  raw_pend.o(.text)
    change_pend_list_priority                0x1a000d8f   Thumb Code    34  raw_pend.o(.text)
    raw_sched                                0x1a000e09   Thumb Code    52  raw_sched.o(.text)
    raw_os_init                              0x1a000e3d   Thumb Code   124  raw_sched.o(.text)
    raw_os_start                             0x1a000eb9   Thumb Code    40  raw_sched.o(.text)
    calculate_time_slice                     0x1a000ee1   Thumb Code    72  raw_sched.o(.text)
    raw_semaphore_create                     0x1a000f6d   Thumb Code    60  raw_sem.o(.text)
    raw_semaphore_block_way_set              0x1a000fa9   Thumb Code    26  raw_sem.o(.text)
    semaphore_put                            0x1a000fc3   Thumb Code   128  raw_sem.o(.text)
    raw_semaphore_put                        0x1a001043   Thumb Code    12  raw_sem.o(.text)
    raw_semaphore_put_notify                 0x1a00104f   Thumb Code    12  raw_sem.o(.text)
    raw_semaphore_put_all                    0x1a00105b   Thumb Code    12  raw_sem.o(.text)
    raw_semphore_send_notify                 0x1a001067   Thumb Code    56  raw_sem.o(.text)
    raw_semaphore_get                        0x1a00109f   Thumb Code   142  raw_sem.o(.text)
    raw_semaphore_set                        0x1a00112d   Thumb Code    84  raw_sem.o(.text)
    raw_semaphore_delete                     0x1a001181   Thumb Code    98  raw_sem.o(.text)
    raw_stack_check                          0x1a001201   Thumb Code    68  raw_stat.o(.text)
    raw_statistics_check                     0x1a001245   Thumb Code    48  raw_stat.o(.text)
    raw_finish_int                           0x1a001281   Thumb Code    86  raw_system.o(.text)
    raw_time_tick                            0x1a0012d7   Thumb Code    48  raw_system.o(.text)
    raw_enter_interrupt                      0x1a001307   Thumb Code    62  raw_system.o(.text)
    raw_system_time_get                      0x1a001345   Thumb Code    36  raw_system.o(.text)
    raw_os_version_get                       0x1a001369   Thumb Code     6  raw_system.o(.text)
    block_state_post_process                 0x1a00136f   Thumb Code    62  raw_system.o(.text)
    bit_search_first_one                     0x1a0013ad   Thumb Code   116  raw_system.o(.text)
    raw_task_create                          0x1a00143d   Thumb Code   272  raw_task.o(.text)
    raw_task_stack_check                     0x1a00154d   Thumb Code    52  raw_task.o(.text)
    raw_isr_stack_check                      0x1a001581   Thumb Code    14  raw_task.o(.text)
    raw_disable_sche                         0x1a00158f   Thumb Code    44  raw_task.o(.text)
    raw_enable_sche                          0x1a0015bb   Thumb Code    60  raw_task.o(.text)
    raw_sleep                                0x1a0015f7   Thumb Code   102  raw_task.o(.text)
    raw_task_yield                           0x1a00165d   Thumb Code    36  raw_task.o(.text)
    raw_time_sleep                           0x1a001681   Thumb Code    94  raw_task.o(.text)
    task_suspend                             0x1a0016df   Thumb Code   156  raw_task.o(.text)
    raw_task_suspend                         0x1a00177b   Thumb Code    24  raw_task.o(.text)
    task_resume                              0x1a001793   Thumb Code   162  raw_task.o(.text)
    raw_task_resume                          0x1a001835   Thumb Code    10  raw_task.o(.text)
    change_internal_task_priority            0x1a00183f   Thumb Code   204  raw_task.o(.text)
    raw_task_priority_change                 0x1a00190b   Thumb Code   140  raw_task.o(.text)
    raw_task_delete                          0x1a001997   Thumb Code   192  raw_task.o(.text)
    raw_set_task_user_point                  0x1a001a57   Thumb Code    26  raw_task.o(.text)
    raw_get_task_user_point                  0x1a001a71   Thumb Code     8  raw_task.o(.text)
    raw_task_time_slice_change               0x1a001a79   Thumb Code    52  raw_task.o(.text)
    raw_set_sched_way                        0x1a001aad   Thumb Code    56  raw_task.o(.text)
    raw_get_sched_way                        0x1a001ae5   Thumb Code    46  raw_task.o(.text)
    raw_task_wait_abort                      0x1a001b13   Thumb Code   168  raw_task.o(.text)
    raw_task_identify                        0x1a001bbb   Thumb Code     6  raw_task.o(.text)
    raw_iter_block_task                      0x1a001bc1   Thumb Code    72  raw_task.o(.text)
    raw_get_system_global_space              0x1a001c09   Thumb Code     6  raw_task.o(.text)
    raw_task_semaphore_create                0x1a001c21   Thumb Code    18  raw_task_sem.o(.text)
    raw_task_semaphore_put                   0x1a001c33   Thumb Code     6  raw_task_sem.o(.text)
    raw_task_semaphore_get                   0x1a001c39   Thumb Code    12  raw_task_sem.o(.text)
    raw_task_semaphore_set                   0x1a001c45   Thumb Code     6  raw_task_sem.o(.text)
    raw_task_semaphore_delete                0x1a001c4b   Thumb Code     6  raw_task_sem.o(.text)
    tick_list_init                           0x1a001c55   Thumb Code    22  raw_tick.o(.text)
    tick_list_insert                         0x1a001c6b   Thumb Code    66  raw_tick.o(.text)
    tick_list_remove                         0x1a001cad   Thumb Code    24  raw_tick.o(.text)
    tick_list_update                         0x1a001cc5   Thumb Code   238  raw_tick.o(.text)
    tick_task_start                          0x1a001dcf   Thumb Code    52  raw_tick.o(.text)
    raw_timer_activate                       0x1a001e4d   Thumb Code   128  raw_timer.o(.text)
    raw_timer_create                         0x1a001ecd   Thumb Code    98  raw_timer.o(.text)
    raw_timer_change                         0x1a001f2f   Thumb Code   100  raw_timer.o(.text)
    raw_timer_deactivate                     0x1a001f93   Thumb Code   110  raw_timer.o(.text)
    raw_timer_delete                         0x1a002001   Thumb Code   108  raw_timer.o(.text)
    timer_task                               0x1a00206d   Thumb Code   158  raw_timer.o(.text)
    call_timer_task                          0x1a00210b   Thumb Code    22  raw_timer.o(.text)
    raw_timer_init                           0x1a002121   Thumb Code    64  raw_timer.o(.text)
    OS_CPU_SR_Save                           0x1a0021dd   Thumb Code     0  cpu.o(.text)
    OS_CPU_SR_Restore                        0x1a0021e5   Thumb Code     0  cpu.o(.text)
    CPU_IntDis                               0x1a0021eb   Thumb Code     0  cpu.o(.text)
    CPU_IntEn                                0x1a0021ef   Thumb Code     0  cpu.o(.text)
    raw_start_first_task                     0x1a0021f3   Thumb Code     0  cpu.o(.text)
    port_task_switch                         0x1a00221b   Thumb Code     0  cpu.o(.text)
    raw_int_switch                           0x1a002225   Thumb Code     0  cpu.o(.text)
    PendSV_Handler                           0x1a00222f   Thumb Code     0  cpu.o(.text)
    port_stack_init                          0x1a002289   Thumb Code   324  port.o(.text)
    port_isr_stack_check                     0x1a0023cd   Thumb Code     2  port.o(.text)
    port_isr_stack_free_check                0x1a0023cf   Thumb Code    20  port.o(.text)
    system_mpu_enable                        0x1a0023e3   Thumb Code    46  port.o(.text)
    task_stack_mpu_set                       0x1a002411   Thumb Code    28  port.o(.text)
    raw_os_init_hook                         0x1a00243d   Thumb Code    14  port_hook.o(.text)
    raw_task_delete_hook                     0x1a00244b   Thumb Code     2  port_hook.o(.text)
    raw_task_abort_hook                      0x1a00244d   Thumb Code     2  port_hook.o(.text)
    raw_idle_task_hook                       0x1a00244f   Thumb Code     2  port_hook.o(.text)
    raw_task_switch_hook                     0x1a002451   Thumb Code     2  port_hook.o(.text)
    raw_tick_hook                            0x1a002453   Thumb Code     2  port_hook.o(.text)
    task_create_hook                         0x1a002455   Thumb Code     2  port_hook.o(.text)
    raw_idle_coroutine_hook                  0x1a002457   Thumb Code     4  port_hook.o(.text)
    port_system_error_process                0x1a00245b   Thumb Code    88  port_error_process.o(.text)
    raw_memcpy                               0x1a0024b3   Thumb Code    74  user_extension.o(.text)
    raw_memset                               0x1a0024fd   Thumb Code    62  user_extension.o(.text)
    Reset_Handler                            0x1a00253d   Thumb Code     8  keil_startup_lpc18xx43xx.o(.text)
    NMI_Handler                              0x1a002545   Thumb Code     2  keil_startup_lpc18xx43xx.o(.text)
    HardFault_Handler                        0x1a002547   Thumb Code     2  keil_startup_lpc18xx43xx.o(.text)
    MemManage_Handler                        0x1a002549   Thumb Code     2  keil_startup_lpc18xx43xx.o(.text)
    BusFault_Handler                         0x1a00254b   Thumb Code     2  keil_startup_lpc18xx43xx.o(.text)
    UsageFault_Handler                       0x1a00254d   Thumb Code     2  keil_startup_lpc18xx43xx.o(.text)
    SVC_Handler                              0x1a00254f   Thumb Code     2  keil_startup_lpc18xx43xx.o(.text)
    DebugMon_Handler                         0x1a002551   Thumb Code     2  keil_startup_lpc18xx43xx.o(.text)
    UnHandled_Vector                         0x1a002557   Thumb Code     2  keil_startup_lpc18xx43xx.o(.text)
    ADC0_IRQHandler                          0x1a002559   Thumb Code     0  keil_startup_lpc18xx43xx.o(.text)
    ADC1_IRQHandler                          0x1a002559   Thumb Code     0  keil_startup_lpc18xx43xx.o(.text)
    ADCHS_IRQHandler                         0x1a002559   Thumb Code     0  keil_startup_lpc18xx43xx.o(.text)
    ATIMER_IRQHandler                        0x1a002559   Thumb Code     0  keil_startup_lpc18xx43xx.o(.text)
    CAN0_IRQHandler                          0x1a002559   Thumb Code     0  keil_startup_lpc18xx43xx.o(.text)
    CAN1_IRQHandler                          0x1a002559   Thumb Code     0  keil_startup_lpc18xx43xx.o(.text)
    DAC_IRQHandler                           0x1a002559   Thumb Code     0  keil_startup_lpc18xx43xx.o(.text)
    DMA_IRQHandler                           0x1a002559   Thumb Code     0  keil_startup_lpc18xx43xx.o(.text)
    ETH_IRQHandler                           0x1a002559   Thumb Code     0  keil_startup_lpc18xx43xx.o(.text)
    EVRT_IRQHandler                          0x1a002559   Thumb Code     0  keil_startup_lpc18xx43xx.o(.text)
    FLASHEEPROM_IRQHandler                   0x1a002559   Thumb Code     0  keil_startup_lpc18xx43xx.o(.text)
    GINT0_IRQHandler                         0x1a002559   Thumb Code     0  keil_startup_lpc18xx43xx.o(.text)
    GINT1_IRQHandler                         0x1a002559   Thumb Code     0  keil_startup_lpc18xx43xx.o(.text)
    GPIO0_IRQHandler                         0x1a002559   Thumb Code     0  keil_startup_lpc18xx43xx.o(.text)
    GPIO1_IRQHandler                         0x1a002559   Thumb Code     0  keil_startup_lpc18xx43xx.o(.text)
    GPIO2_IRQHandler                         0x1a002559   Thumb Code     0  keil_startup_lpc18xx43xx.o(.text)
    GPIO3_IRQHandler                         0x1a002559   Thumb Code     0  keil_startup_lpc18xx43xx.o(.text)
    GPIO4_IRQHandler                         0x1a002559   Thumb Code     0  keil_startup_lpc18xx43xx.o(.text)
    GPIO5_IRQHandler                         0x1a002559   Thumb Code     0  keil_startup_lpc18xx43xx.o(.text)
    GPIO6_IRQHandler                         0x1a002559   Thumb Code     0  keil_startup_lpc18xx43xx.o(.text)
    GPIO7_IRQHandler                         0x1a002559   Thumb Code     0  keil_startup_lpc18xx43xx.o(.text)
    I2C0_IRQHandler                          0x1a002559   Thumb Code     0  keil_startup_lpc18xx43xx.o(.text)
    I2C1_IRQHandler                          0x1a002559   Thumb Code     0  keil_startup_lpc18xx43xx.o(.text)
    I2S0_IRQHandler                          0x1a002559   Thumb Code     0  keil_startup_lpc18xx43xx.o(.text)
    I2S1_IRQHandler                          0x1a002559   Thumb Code     0  keil_startup_lpc18xx43xx.o(.text)
    LCD_IRQHandler                           0x1a002559   Thumb Code     0  keil_startup_lpc18xx43xx.o(.text)
    MCPWM_IRQHandler                         0x1a002559   Thumb Code     0  keil_startup_lpc18xx43xx.o(.text)
    MX_CORE_IRQHandler                       0x1a002559   Thumb Code     0  keil_startup_lpc18xx43xx.o(.text)
    QEI_IRQHandler                           0x1a002559   Thumb Code     0  keil_startup_lpc18xx43xx.o(.text)
    RIT_IRQHandler                           0x1a002559   Thumb Code     0  keil_startup_lpc18xx43xx.o(.text)
    RTC_IRQHandler                           0x1a002559   Thumb Code     0  keil_startup_lpc18xx43xx.o(.text)
    SCT_IRQHandler                           0x1a002559   Thumb Code     0  keil_startup_lpc18xx43xx.o(.text)
    SDIO_IRQHandler                          0x1a002559   Thumb Code     0  keil_startup_lpc18xx43xx.o(.text)
    SGPIO_IRQHandler                         0x1a002559   Thumb Code     0  keil_startup_lpc18xx43xx.o(.text)
    SPIFI_IRQHandler                         0x1a002559   Thumb Code     0  keil_startup_lpc18xx43xx.o(.text)
    SPI_IRQHandler                           0x1a002559   Thumb Code     0  keil_startup_lpc18xx43xx.o(.text)
    SSP0_IRQHandler                          0x1a002559   Thumb Code     0  keil_startup_lpc18xx43xx.o(.text)
    SSP1_IRQHandler                          0x1a002559   Thumb Code     0  keil_startup_lpc18xx43xx.o(.text)
    TIMER0_IRQHandler                        0x1a002559   Thumb Code     0  keil_startup_lpc18xx43xx.o(.text)
    TIMER1_IRQHandler                        0x1a002559   Thumb Code     0  keil_startup_lpc18xx43xx.o(.text)
    TIMER2_IRQHandler                        0x1a002559   Thumb Code     0  keil_startup_lpc18xx43xx.o(.text)
    TIMER3_IRQHandler                        0x1a002559   Thumb Code     0  keil_startup_lpc18xx43xx.o(.text)
    UART0_IRQHandler                         0x1a002559   Thumb Code     0  keil_startup_lpc18xx43xx.o(.text)
    UART1_IRQHandler                         0x1a002559   Thumb Code     0  keil_startup_lpc18xx43xx.o(.text)
    UART2_IRQHandler                         0x1a002559   Thumb Code     0  keil_startup_lpc18xx43xx.o(.text)
    USB0_IRQHandler                          0x1a002559   Thumb Code     0  keil_startup_lpc18xx43xx.o(.text)
    USB1_IRQHandler                          0x1a002559   Thumb Code     0  keil_startup_lpc18xx43xx.o(.text)
    WDT_IRQHandler                           0x1a002559   Thumb Code     0  keil_startup_lpc18xx43xx.o(.text)
    __user_initial_stackheap                 0x1a00255d   Thumb Code     0  keil_startup_lpc18xx43xx.o(.text)
    SystemInit                               0x1a002581   Thumb Code    20  sysinit.o(.text)
    SysTick_Handler                          0x1a00259d   Thumb Code    18  main.o(.text)
    OS_CPU_SysTickInit                       0x1a0025af   Thumb Code    48  main.o(.text)
    uart_3_recv                              0x1a0025df   Thumb Code    76  main.o(.text)
    read_cmd                                 0x1a00262b   Thumb Code   204  main.o(.text)
    UART3_IRQHandler                         0x1a0026f7   Thumb Code    56  main.o(.text)
    shell_task                               0x1a00272f   Thumb Code   148  main.o(.text)
    main                                     0x1a0027c3   Thumb Code    56  main.o(.text)
    string_to_int                            0x1a00287d   Thumb Code    42  command_example.o(.text)
    three_parameters_cmd_register            0x1a002923   Thumb Code    10  command_example.o(.text)
    no_parameters_cmd_register               0x1a00292d   Thumb Code    12  command_example.o(.text)
    cpu_timer_init                           0x1a0029c9   Thumb Code    26  port_extension.o(.text)
    user_cpu_time_get                        0x1a0029e3   Thumb Code     6  port_extension.o(.text)
    user_sys_time_get                        0x1a0029e9   Thumb Code     6  port_extension.o(.text)
    register_task_cpu_command                0x1a002a7b   Thumb Code     8  cpu_time_stat.o(.text)
    register_isr_stack_command               0x1a002acd   Thumb Code     8  isr_stack_detect.o(.text)
    register_task_stack_command              0x1a002b29   Thumb Code     8  task_stack_detect.o(.text)
    Board_UARTPutChar                        0x1a002b71   Thumb Code    26  board.o(.text)
    _sys_open                                0x1a002b8b   Thumb Code     6  board.o(.text)
    fputc                                    0x1a002b91   Thumb Code    20  board.o(.text)
    Board_UARTGetChar                        0x1a002ba5   Thumb Code    28  board.o(.text)
    fgetc                                    0x1a002bc1   Thumb Code    10  board.o(.text)
    ferror                                   0x1a002bcb   Thumb Code     8  board.o(.text)
    _sys_exit                                0x1a002bd3   Thumb Code     6  board.o(.text)
    Board_UART_Init                          0x1a002d73   Thumb Code    88  board.o(.text)
    Board_Debug_Init                         0x1a002dcb   Thumb Code    42  board.o(.text)
    Board_UARTPutSTR                         0x1a002df5   Thumb Code    22  board.o(.text)
    Board_LED_Set                            0x1a002e27   Thumb Code    28  board.o(.text)
    Board_LED_Test                           0x1a002e43   Thumb Code    28  board.o(.text)
    Board_LED_Toggle                         0x1a002e5f   Thumb Code    24  board.o(.text)
    Board_ENET_GetMacADDR                    0x1a002e77   Thumb Code    22  board.o(.text)
    Board_Init                               0x1a002e8d   Thumb Code    66  board.o(.text)
    Board_ADC_Init                           0x1a002ecf   Thumb Code     2  board.o(.text)
    Board_I2C_Init                           0x1a002ed1   Thumb Code    44  board.o(.text)
    Board_Audio_Init                         0x1a002efd   Thumb Code    52  board.o(.text)
    Board_InitLCDController                  0x1a002f31   Thumb Code   660  board.o(.text)
    Board_LCD_Init                           0x1a0031c5   Thumb Code    36  board.o(.text)
    Board_InitTouchController                0x1a0031e9   Thumb Code   202  board.o(.text)
    Board_I2C_GetTouchPos                    0x1a0032b3   Thumb Code   196  board.o(.text)
    Board_GetTouchPos                        0x1a003377   Thumb Code    60  board.o(.text)
    Board_SetLCDBacklight                    0x1a0033b3   Thumb Code    28  board.o(.text)
    Board_SDMMC_Init                         0x1a0033cf   Thumb Code    74  board.o(.text)
    Board_SSP_Init                           0x1a003419   Thumb Code   106  board.o(.text)
    Board_Buttons_Init                       0x1a003483   Thumb Code    24  board.o(.text)
    Board_Joystick_Init                      0x1a00349b   Thumb Code   104  board.o(.text)
    Joystick_GetStatus                       0x1a003503   Thumb Code    96  board.o(.text)
    Buttons_GetStatus                        0x1a003563   Thumb Code    24  board.o(.text)
    Board_DAC_Init                           0x1a00357b   Thumb Code    18  board.o(.text)
    Board_SetupMuxing                        0x1a003645   Thumb Code    58  board_sysinit.o(.text)
    Board_SetupExtMemory                     0x1a00367f   Thumb Code    82  board_sysinit.o(.text)
    Board_SetupClocking                      0x1a0036d1   Thumb Code   160  board_sysinit.o(.text)
    Board_SystemInit                         0x1a003771   Thumb Code    12  board_sysinit.o(.text)
    UDA1380_REG_VerifyMult                   0x1a0037b5   Thumb Code    72  uda1380.o(.text)
    UDA1380_REG_WriteMult                    0x1a0037fd   Thumb Code    30  uda1380.o(.text)
    UDA1380_REG_Write                        0x1a00383f   Thumb Code    36  uda1380.o(.text)
    UDA1380_REG_Read                         0x1a003863   Thumb Code    42  uda1380.o(.text)
    UDA1380_REG_WriteVerify                  0x1a00388d   Thumb Code    34  uda1380.o(.text)
    UDA1380_Init                             0x1a0038af   Thumb Code   118  uda1380.o(.text)
    __aeabi_uldivmod                         0x1a003939   Thumb Code     0  lludivv7m.o(.text)
    _ll_udiv                                 0x1a003939   Thumb Code   238  lludivv7m.o(.text)
    __2printf                                0x1a003a29   Thumb Code    20  noretval__2printf.o(.text)
    __printf                                 0x1a003a41   Thumb Code   104  __printf.o(.text)
    _printf_str                              0x1a003aa9   Thumb Code    82  _printf_str.o(.text)
    _printf_int_dec                          0x1a003afd   Thumb Code   104  _printf_dec.o(.text)
    __aeabi_memclr4                          0x1a003b75   Thumb Code     0  rt_memclr_w.o(.text)
    __aeabi_memclr8                          0x1a003b75   Thumb Code     0  rt_memclr_w.o(.text)
    __rt_memclr_w                            0x1a003b75   Thumb Code    78  rt_memclr_w.o(.text)
    _memset_w                                0x1a003b79   Thumb Code     0  rt_memclr_w.o(.text)
    __use_two_region_memory                  0x1a003bc3   Thumb Code     2  heapauxi.o(.text)
    __rt_heap_escrow$2region                 0x1a003bc5   Thumb Code     2  heapauxi.o(.text)
    __rt_heap_expand$2region                 0x1a003bc7   Thumb Code     2  heapauxi.o(.text)
    _printf_int_common                       0x1a003bc9   Thumb Code   178  _printf_intcommon.o(.text)
    _printf_cs_common                        0x1a003c7b   Thumb Code    20  _printf_char.o(.text)
    _printf_char                             0x1a003c8f   Thumb Code    16  _printf_char.o(.text)
    _printf_string                           0x1a003c9f   Thumb Code     8  _printf_char.o(.text)
    _printf_char_file                        0x1a003ca9   Thumb Code    32  _printf_char_file.o(.text)
    _printf_char_common                      0x1a003cd7   Thumb Code    32  _printf_char_common.o(.text)
    __user_setup_stackheap                   0x1a003cfd   Thumb Code    74  sys_stackheap_outer.o(.text)
    exit                                     0x1a003d47   Thumb Code    18  exit.o(.text)
    __user_libspace                          0x1a003d59   Thumb Code     8  libspace.o(.text)
    __user_perproc_libspace                  0x1a003d59   Thumb Code     0  libspace.o(.text)
    __user_perthread_libspace                0x1a003d59   Thumb Code     0  libspace.o(.text)
    Chip_Clock_Enable                        0x1a003d61   Thumb Code    46  clock_18xx_43xx.o(i.Chip_Clock_Enable)
    Chip_Clock_EnableOpts                    0x1a003d99   Thumb Code    52  clock_18xx_43xx.o(i.Chip_Clock_EnableOpts)
    Chip_Clock_GetBaseClock                  0x1a003e25   Thumb Code    32  clock_18xx_43xx.o(i.Chip_Clock_GetBaseClock)
    Chip_Clock_GetBaseClocktHz               0x1a003e49   Thumb Code    18  clock_18xx_43xx.o(i.Chip_Clock_GetBaseClocktHz)
    Chip_Clock_GetClockInputHz               0x1a003e5d   Thumb Code   182  clock_18xx_43xx.o(i.Chip_Clock_GetClockInputHz)
    Chip_Clock_GetDividerDivisor             0x1a003f59   Thumb Code    18  clock_18xx_43xx.o(i.Chip_Clock_GetDividerDivisor)
    Chip_Clock_GetDividerSource              0x1a003f79   Thumb Code    26  clock_18xx_43xx.o(i.Chip_Clock_GetDividerSource)
    Chip_Clock_GetEMCRate                    0x1a003f99   Thumb Code    38  clock_18xx_43xx.o(i.Chip_Clock_GetEMCRate)
    Chip_Clock_GetMainPLLHz                  0x1a003fc9   Thumb Code   110  clock_18xx_43xx.o(i.Chip_Clock_GetMainPLLHz)
    Chip_Clock_GetRate                       0x1a004041   Thumb Code    78  clock_18xx_43xx.o(i.Chip_Clock_GetRate)
    Chip_Clock_SetBaseClock                  0x1a004099   Thumb Code    64  clock_18xx_43xx.o(i.Chip_Clock_SetBaseClock)
    Chip_Clock_SetDivider                    0x1a0040e1   Thumb Code    64  clock_18xx_43xx.o(i.Chip_Clock_SetDivider)
    Chip_EMC_Dynamic_Init                    0x1a004131   Thumb Code    22  emc_18xx_43xx.o(i.Chip_EMC_Dynamic_Init)
    Chip_EMC_Init                            0x1a00414d   Thumb Code    40  emc_18xx_43xx.o(i.Chip_EMC_Init)
    Chip_EMC_Static_Init                     0x1a004179   Thumb Code    22  emc_18xx_43xx.o(i.Chip_EMC_Static_Init)
    Chip_GPIO_Init                           0x1a004195   Thumb Code     2  gpio_18xx_43xx.o(i.Chip_GPIO_Init)
    Chip_I2C_EventHandler                    0x1a004199   Thumb Code    36  i2c_18xx_43xx.o(i.Chip_I2C_EventHandler)
    Chip_I2C_EventHandlerPolling             0x1a0041c1   Thumb Code    58  i2c_18xx_43xx.o(i.Chip_I2C_EventHandlerPolling)
    Chip_I2C_GetMasterEventHandler           0x1a004201   Thumb Code    16  i2c_18xx_43xx.o(i.Chip_I2C_GetMasterEventHandler)
    Chip_I2C_Init                            0x1a004215   Thumb Code    40  i2c_18xx_43xx.o(i.Chip_I2C_Init)
    Chip_I2C_IsStateChanged                  0x1a004241   Thumb Code    20  i2c_18xx_43xx.o(i.Chip_I2C_IsStateChanged)
    Chip_I2C_MasterCmdRead                   0x1a004259   Thumb Code    58  i2c_18xx_43xx.o(i.Chip_I2C_MasterCmdRead)
    Chip_I2C_MasterSend                      0x1a004293   Thumb Code    50  i2c_18xx_43xx.o(i.Chip_I2C_MasterSend)
    Chip_I2C_MasterStateHandler              0x1a0042c5   Thumb Code    50  i2c_18xx_43xx.o(i.Chip_I2C_MasterStateHandler)
    Chip_I2C_MasterTransfer                  0x1a0042fd   Thumb Code   102  i2c_18xx_43xx.o(i.Chip_I2C_MasterTransfer)
    Chip_I2C_SetClockRate                    0x1a004369   Thumb Code    56  i2c_18xx_43xx.o(i.Chip_I2C_SetClockRate)
    Chip_I2C_SetMasterEventHandler           0x1a0043a5   Thumb Code    34  i2c_18xx_43xx.o(i.Chip_I2C_SetMasterEventHandler)
    Chip_I2S_Init                            0x1a0043cd   Thumb Code    12  i2s_18xx_43xx.o(i.Chip_I2S_Init)
    Chip_I2S_TxConfig                        0x1a0043d9   Thumb Code   122  i2s_18xx_43xx.o(i.Chip_I2S_TxConfig)
    Chip_RGU_InReset                         0x1a004455   Thumb Code    52  rgu_18xx_43xx.o(i.Chip_RGU_InReset)
    Chip_RGU_TriggerReset                    0x1a00448d   Thumb Code    38  rgu_18xx_43xx.o(i.Chip_RGU_TriggerReset)
    Chip_SSP_Init                            0x1a0044f1   Thumb Code    56  ssp_18xx_43xx.o(i.Chip_SSP_Init)
    Chip_SSP_SetBitRate                      0x1a00453b   Thumb Code    70  ssp_18xx_43xx.o(i.Chip_SSP_SetBitRate)
    Chip_SSP_SetClockRate                    0x1a004581   Thumb Code    20  ssp_18xx_43xx.o(i.Chip_SSP_SetClockRate)
    Chip_SSP_SetMaster                       0x1a004595   Thumb Code    28  ssp_18xx_43xx.o(i.Chip_SSP_SetMaster)
    Chip_SSP_WriteFrames_Blocking            0x1a0045bd   Thumb Code   234  ssp_18xx_43xx.o(i.Chip_SSP_WriteFrames_Blocking)
    Chip_SetupCoreClock                      0x1a0046a7   Thumb Code    14  sysinit_18xx_43xx.o(i.Chip_SetupCoreClock)
    Chip_UART_Init                           0x1a0046f9   Thumb Code    72  uart_18xx_43xx.o(i.Chip_UART_Init)
    Chip_UART_SetBaud                        0x1a004745   Thumb Code    66  uart_18xx_43xx.o(i.Chip_UART_SetBaud)
    SystemCoreClockUpdate                    0x1a00478d   Thumb Code    14  chip_18xx_43xx.o(i.SystemCoreClockUpdate)
    fpuInit                                  0x1a0048b9   Thumb Code    62  fpu_init.o(i.fpuInit)
    handleMasterXferState                    0x1a004abb   Thumb Code   224  i2c_18xx_43xx.o(i.handleMasterXferState)
    initDynMem                               0x1a004b9b   Thumb Code   488  emc_18xx_43xx.o(i.initDynMem)
    initStaticMem                            0x1a004d83   Thumb Code   104  emc_18xx_43xx.o(i.initStaticMem)
    _fp_init                                 0x1a004df5   Thumb Code    10  fpinit.o(x$fpl$fpinit)
    __fplib_config_fpu_vfp                   0x1a004dfd   Thumb Code     0  fpinit.o(x$fpl$fpinit)
    __fplib_config_pureend_doubles           0x1a004dfd   Thumb Code     0  fpinit.o(x$fpl$fpinit)
    ad_left                                  0x1a004e50   Data           4  board.o(.constdata)
    ad_top                                   0x1a004e54   Data           4  board.o(.constdata)
    ad_right                                 0x1a004e58   Data           4  board.o(.constdata)
    ad_bottom                                0x1a004e5c   Data           4  board.o(.constdata)
    MCB4300_LCD                              0x1a004e60   Data          22  board.o(.constdata)
    ExtRateIn                                0x1a004e78   Data           4  board.o(.constdata)
    OscRateIn                                0x1a004e7c   Data           4  board.o(.constdata)
    Region$$Table$$Base                      0x1a005420   Number         0  anon$$obj.o(Region$$Table)
    Region$$Table$$Limit                     0x1a005440   Number         0  anon$$obj.o(Region$$Table)



==============================================================================

Memory Map of the image

  Image Entry point : 0x1a000115

  Load Region LR_IROM1 (Base: 0x1a000000, Size: 0x00005534, Max: 0x00080000, ABSOLUTE)

    Execution Region RW_IRAM1 (Base: 0x10000000, Size: 0x00001ec0, Max: 0x00008000, ABSOLUTE)

    Base Addr    Size         Type   Attr      Idx    E Section Name        Object

    0x10000000   0x00000014   Data   RW          108    .data               rsh.o
    0x10000014   0x00000002   Data   RW          258    .data               raw_obj.o
    0x10000016   0x00000001   Data   RW          259    .data               raw_obj.o
    0x10000017   0x00000001   Data   RW          260    .data               raw_obj.o
    0x10000018   0x00000001   Data   RW          261    .data               raw_obj.o
    0x10000019   0x00000003   PAD
    0x1000001c   0x00000004   Data   RW          262    .data               raw_obj.o
    0x10000020   0x00000004   Data   RW          263    .data               raw_obj.o
    0x10000024   0x00000004   PAD
    0x10000028   0x00000008   Data   RW          264    .data               raw_obj.o
    0x10000030   0x00000004   Data   RW          265    .data               raw_obj.o
    0x10000034   0x00000008   Data   RW          266    .data               raw_obj.o
    0x1000003c   0x00000004   Data   RW          267    .data               raw_obj.o
    0x10000040   0x00000004   Data   RW          268    .data               raw_obj.o
    0x10000044   0x00000004   PAD
    0x10000048   0x00000008   Data   RW          269    .data               raw_obj.o
    0x10000050   0x00000004   Data   RW          863    .data               main.o
    0x10000054   0x00000030   Data   RW          892    .data               command_example.o
    0x10000084   0x00000008   Data   RW          961    .data               cpu_time_stat.o
    0x1000008c   0x00000008   Data   RW          980    .data               isr_stack_detect.o
    0x10000094   0x00000008   Data   RW          996    .data               task_stack_detect.o
    0x1000009c   0x00000004   Data   RW         1016    .data               lib_lpc_chip_43xx.lib(chip_18xx_43xx.o)
    0x100000a0   0x00000014   Data   RW         1440    .data               lib_lpc_board_keil_mcb_4357.lib(board.o)
    0x100000b4   0x00000008   Data   RW         1756    .data               lib_lpc_chip_43xx.lib(clock_18xx_43xx.o)
    0x100000bc   0x00000038   Data   RW         2102    .data               lib_lpc_chip_43xx.lib(i2c_18xx_43xx.o)
    0x100000f4   0x000001fc   Zero   RW          246    .bss                raw_obj.o
    0x100002f0   0x00000090   Zero   RW          247    .bss                raw_obj.o
    0x10000380   0x00000140   Zero   RW          248    .bss                raw_obj.o
    0x100004c0   0x00000040   Zero   RW          249    .bss                raw_obj.o
    0x10000500   0x00000090   Zero   RW          250    .bss                raw_obj.o
    0x10000590   0x00000400   Zero   RW          251    .bss                raw_obj.o
    0x10000990   0x00000024   Zero   RW          252    .bss                raw_obj.o
    0x100009b4   0x00000028   Zero   RW          253    .bss                raw_obj.o
    0x100009dc   0x00000038   Zero   RW          254    .bss                raw_obj.o
    0x10000a14   0x00000004   PAD
    0x10000a18   0x00000090   Zero   RW          255    .bss                raw_obj.o
    0x10000aa8   0x00000400   Zero   RW          256    .bss                raw_obj.o
    0x10000ea8   0x00000024   Zero   RW          257    .bss                raw_obj.o
    0x10000ecc   0x00000004   PAD
    0x10000ed0   0x0000088c   Zero   RW          861    .bss                main.o
    0x1000175c   0x00000060   Zero   RW         2717    .bss                c_w.l(libspace.o)
    0x100017bc   0x00000004   PAD
    0x100017c0   0x00000100   Zero   RW          626    HEAP                keil_startup_lpc18xx43xx.o
    0x100018c0   0x00000600   Zero   RW          625    STACK               keil_startup_lpc18xx43xx.o


    Execution Region ER_IROM1 (Base: 0x1a000000, Size: 0x00005440, Max: 0x00080000, ABSOLUTE)

    Base Addr    Size         Type   Attr      Idx    E Section Name        Object

    0x1a000000   0x00000114   Data   RO          627    RESET               keil_startup_lpc18xx43xx.o
    0x1a000114   0x00000008   Code   RO         2665  * !!!main             c_w.l(__main.o)
    0x1a00011c   0x00000034   Code   RO         2843    !!!scatter          c_w.l(__scatter.o)
    0x1a000150   0x0000001a   Code   RO         2845    !!handler_copy      c_w.l(__scatter_copy.o)
    0x1a00016a   0x00000002   PAD
    0x1a00016c   0x0000001c   Code   RO         2847    !!handler_zi        c_w.l(__scatter_zi.o)
    0x1a000188   0x00000000   Code   RO         2658    .ARM.Collect$$_printf_percent$$00000000  c_w.l(_printf_percent.o)
    0x1a000188   0x00000006   Code   RO         2657    .ARM.Collect$$_printf_percent$$00000009  c_w.l(_printf_d.o)
    0x1a00018e   0x00000006   Code   RO         2655    .ARM.Collect$$_printf_percent$$00000013  c_w.l(_printf_c.o)
    0x1a000194   0x00000006   Code   RO         2656    .ARM.Collect$$_printf_percent$$00000014  c_w.l(_printf_s.o)
    0x1a00019a   0x00000004   Code   RO         2678    .ARM.Collect$$_printf_percent$$00000017  c_w.l(_printf_percent_end.o)
    0x1a00019e   0x00000002   Code   RO         2715    .ARM.Collect$$libinit$$00000000  c_w.l(libinit.o)
    0x1a0001a0   0x00000004   Code   RO         2727    .ARM.Collect$$libinit$$00000001  c_w.l(libinit2.o)
    0x1a0001a4   0x00000000   Code   RO         2730    .ARM.Collect$$libinit$$00000004  c_w.l(libinit2.o)
    0x1a0001a4   0x00000000   Code   RO         2733    .ARM.Collect$$libinit$$0000000A  c_w.l(libinit2.o)
    0x1a0001a4   0x00000000   Code   RO         2735    .ARM.Collect$$libinit$$0000000C  c_w.l(libinit2.o)
    0x1a0001a4   0x00000000   Code   RO         2737    .ARM.Collect$$libinit$$0000000E  c_w.l(libinit2.o)
    0x1a0001a4   0x00000000   Code   RO         2740    .ARM.Collect$$libinit$$00000011  c_w.l(libinit2.o)
    0x1a0001a4   0x00000000   Code   RO         2742    .ARM.Collect$$libinit$$00000013  c_w.l(libinit2.o)
    0x1a0001a4   0x00000000   Code   RO         2744    .ARM.Collect$$libinit$$00000015  c_w.l(libinit2.o)
    0x1a0001a4   0x00000000   Code   RO         2746    .ARM.Collect$$libinit$$00000017  c_w.l(libinit2.o)
    0x1a0001a4   0x00000000   Code   RO         2748    .ARM.Collect$$libinit$$00000019  c_w.l(libinit2.o)
    0x1a0001a4   0x00000000   Code   RO         2750    .ARM.Collect$$libinit$$0000001B  c_w.l(libinit2.o)
    0x1a0001a4   0x00000000   Code   RO         2752    .ARM.Collect$$libinit$$0000001D  c_w.l(libinit2.o)
    0x1a0001a4   0x00000000   Code   RO         2754    .ARM.Collect$$libinit$$0000001F  c_w.l(libinit2.o)
    0x1a0001a4   0x00000000   Code   RO         2756    .ARM.Collect$$libinit$$00000021  c_w.l(libinit2.o)
    0x1a0001a4   0x00000000   Code   RO         2758    .ARM.Collect$$libinit$$00000023  c_w.l(libinit2.o)
    0x1a0001a4   0x00000000   Code   RO         2760    .ARM.Collect$$libinit$$00000025  c_w.l(libinit2.o)
    0x1a0001a4   0x00000000   Code   RO         2764    .ARM.Collect$$libinit$$0000002C  c_w.l(libinit2.o)
    0x1a0001a4   0x00000000   Code   RO         2766    .ARM.Collect$$libinit$$0000002E  c_w.l(libinit2.o)
    0x1a0001a4   0x00000000   Code   RO         2768    .ARM.Collect$$libinit$$00000030  c_w.l(libinit2.o)
    0x1a0001a4   0x00000000   Code   RO         2770    .ARM.Collect$$libinit$$00000032  c_w.l(libinit2.o)
    0x1a0001a4   0x00000002   Code   RO         2771    .ARM.Collect$$libinit$$00000033  c_w.l(libinit2.o)
    0x1a0001a6   0x00000002   Code   RO         2797    .ARM.Collect$$libshutdown$$00000000  c_w.l(libshutdown.o)
    0x1a0001a8   0x00000000   Code   RO         2826    .ARM.Collect$$libshutdown$$00000002  c_w.l(libshutdown2.o)
    0x1a0001a8   0x00000000   Code   RO         2828    .ARM.Collect$$libshutdown$$00000004  c_w.l(libshutdown2.o)
    0x1a0001a8   0x00000000   Code   RO         2831    .ARM.Collect$$libshutdown$$00000007  c_w.l(libshutdown2.o)
    0x1a0001a8   0x00000000   Code   RO         2834    .ARM.Collect$$libshutdown$$0000000A  c_w.l(libshutdown2.o)
    0x1a0001a8   0x00000000   Code   RO         2836    .ARM.Collect$$libshutdown$$0000000C  c_w.l(libshutdown2.o)
    0x1a0001a8   0x00000000   Code   RO         2839    .ARM.Collect$$libshutdown$$0000000F  c_w.l(libshutdown2.o)
    0x1a0001a8   0x00000002   Code   RO         2840    .ARM.Collect$$libshutdown$$00000010  c_w.l(libshutdown2.o)
    0x1a0001aa   0x00000000   Code   RO         2667    .ARM.Collect$$rtentry$$00000000  c_w.l(__rtentry.o)
    0x1a0001aa   0x00000000   Code   RO         2682    .ARM.Collect$$rtentry$$00000002  c_w.l(__rtentry2.o)
    0x1a0001aa   0x00000006   Code   RO         2694    .ARM.Collect$$rtentry$$00000004  c_w.l(__rtentry4.o)
    0x1a0001b0   0x00000000   Code   RO         2684    .ARM.Collect$$rtentry$$00000009  c_w.l(__rtentry2.o)
    0x1a0001b0   0x00000004   Code   RO         2685    .ARM.Collect$$rtentry$$0000000A  c_w.l(__rtentry2.o)
    0x1a0001b4   0x00000000   Code   RO         2687    .ARM.Collect$$rtentry$$0000000C  c_w.l(__rtentry2.o)
    0x1a0001b4   0x00000008   Code   RO         2688    .ARM.Collect$$rtentry$$0000000D  c_w.l(__rtentry2.o)
    0x1a0001bc   0x00000002   Code   RO         2719    .ARM.Collect$$rtexit$$00000000  c_w.l(rtexit.o)
    0x1a0001be   0x00000000   Code   RO         2773    .ARM.Collect$$rtexit$$00000002  c_w.l(rtexit2.o)
    0x1a0001be   0x00000004   Code   RO         2774    .ARM.Collect$$rtexit$$00000003  c_w.l(rtexit2.o)
    0x1a0001c2   0x00000006   Code   RO         2775    .ARM.Collect$$rtexit$$00000004  c_w.l(rtexit2.o)
    0x1a0001c8   0x00000174   Code   RO            1    .text               fifo.o
    0x1a00033c   0x000001d8   Code   RO          104    .text               rsh.o
    0x1a000514   0x00000250   Code   RO          127    .text               string.o
    0x1a000764   0x00000024   Code   RO          216    .text               raw_idle.o
    0x1a000788   0x000003dc   Code   RO          234    .text               raw_mutex.o
    0x1a000b64   0x000002a4   Code   RO          282    .text               raw_pend.o
    0x1a000e08   0x00000164   Code   RO          331    .text               raw_sched.o
    0x1a000f6c   0x00000294   Code   RO          383    .text               raw_sem.o
    0x1a001200   0x00000080   Code   RO          395    .text               raw_stat.o
    0x1a001280   0x000001bc   Code   RO          413    .text               raw_system.o
    0x1a00143c   0x000007e4   Code   RO          425    .text               raw_task.o
    0x1a001c20   0x00000034   Code   RO          489    .text               raw_task_sem.o
    0x1a001c54   0x000001f8   Code   RO          501    .text               raw_tick.o
    0x1a001e4c   0x00000390   Code   RO          554    .text               raw_timer.o
    0x1a0021dc   0x000000ac   Code   RO          566    .text               cpu.o
    0x1a002288   0x000001b4   Code   RO          570    .text               port.o
    0x1a00243c   0x0000001e   Code   RO          583    .text               port_hook.o
    0x1a00245a   0x00000058   Code   RO          601    .text               port_error_process.o
    0x1a0024b2   0x00000088   Code   RO          613    .text               user_extension.o
    0x1a00253a   0x00000002   PAD
    0x1a00253c   0x00000044   Code   RO          628    .text               keil_startup_lpc18xx43xx.o
    0x1a002580   0x0000001c   Code   RO          634    .text               sysinit.o
    0x1a00259c   0x000002e0   Code   RO          860    .text               main.o
    0x1a00287c   0x0000014c   Code   RO          890    .text               command_example.o
    0x1a0029c8   0x00000030   Code   RO          946    .text               port_extension.o
    0x1a0029f8   0x000000c0   Code   RO          958    .text               cpu_time_stat.o
    0x1a002ab8   0x00000048   Code   RO          977    .text               isr_stack_detect.o
    0x1a002b00   0x00000070   Code   RO          993    .text               task_stack_detect.o
    0x1a002b70   0x00000aa8   Code   RO         1438    .text               lib_lpc_board_keil_mcb_4357.lib(board.o)
    0x1a003618   0x0000019c   Code   RO         1672    .text               lib_lpc_board_keil_mcb_4357.lib(board_sysinit.o)
    0x1a0037b4   0x00000184   Code   RO         2594    .text               lib_lpc_board_keil_mcb_4357.lib(uda1380.o)
    0x1a003938   0x000000ee   Code   RO         2623    .text               c_w.l(lludivv7m.o)
    0x1a003a26   0x00000002   PAD
    0x1a003a28   0x00000018   Code   RO         2627    .text               c_w.l(noretval__2printf.o)
    0x1a003a40   0x00000068   Code   RO         2629    .text               c_w.l(__printf.o)
    0x1a003aa8   0x00000052   Code   RO         2631    .text               c_w.l(_printf_str.o)
    0x1a003afa   0x00000002   PAD
    0x1a003afc   0x00000078   Code   RO         2633    .text               c_w.l(_printf_dec.o)
    0x1a003b74   0x0000004e   Code   RO         2661    .text               c_w.l(rt_memclr_w.o)
    0x1a003bc2   0x00000006   Code   RO         2663    .text               c_w.l(heapauxi.o)
    0x1a003bc8   0x000000b2   Code   RO         2672    .text               c_w.l(_printf_intcommon.o)
    0x1a003c7a   0x0000002c   Code   RO         2674    .text               c_w.l(_printf_char.o)
    0x1a003ca6   0x00000002   PAD
    0x1a003ca8   0x00000024   Code   RO         2676    .text               c_w.l(_printf_char_file.o)
    0x1a003ccc   0x00000030   Code   RO         2698    .text               c_w.l(_printf_char_common.o)
    0x1a003cfc   0x0000004a   Code   RO         2700    .text               c_w.l(sys_stackheap_outer.o)
    0x1a003d46   0x00000012   Code   RO         2704    .text               c_w.l(exit.o)
    0x1a003d58   0x00000008   Code   RO         2716    .text               c_w.l(libspace.o)
    0x1a003d60   0x00000038   Code   RO         1726    i.Chip_Clock_Enable  lib_lpc_chip_43xx.lib(clock_18xx_43xx.o)
    0x1a003d98   0x0000003c   Code   RO         1730    i.Chip_Clock_EnableOpts  lib_lpc_chip_43xx.lib(clock_18xx_43xx.o)
    0x1a003dd4   0x00000050   Code   RO         1732    i.Chip_Clock_FindBaseClock  lib_lpc_chip_43xx.lib(clock_18xx_43xx.o)
    0x1a003e24   0x00000024   Code   RO         1733    i.Chip_Clock_GetBaseClock  lib_lpc_chip_43xx.lib(clock_18xx_43xx.o)
    0x1a003e48   0x00000012   Code   RO         1735    i.Chip_Clock_GetBaseClocktHz  lib_lpc_chip_43xx.lib(clock_18xx_43xx.o)
    0x1a003e5a   0x00000002   PAD
    0x1a003e5c   0x000000d4   Code   RO         1736    i.Chip_Clock_GetClockInputHz  lib_lpc_chip_43xx.lib(clock_18xx_43xx.o)
    0x1a003f30   0x00000028   Code   RO         1737    i.Chip_Clock_GetDivRate  lib_lpc_chip_43xx.lib(clock_18xx_43xx.o)
    0x1a003f58   0x00000020   Code   RO         1738    i.Chip_Clock_GetDividerDivisor  lib_lpc_chip_43xx.lib(clock_18xx_43xx.o)
    0x1a003f78   0x00000020   Code   RO         1739    i.Chip_Clock_GetDividerSource  lib_lpc_chip_43xx.lib(clock_18xx_43xx.o)
    0x1a003f98   0x00000030   Code   RO         1740    i.Chip_Clock_GetEMCRate  lib_lpc_chip_43xx.lib(clock_18xx_43xx.o)
    0x1a003fc8   0x00000078   Code   RO         1741    i.Chip_Clock_GetMainPLLHz  lib_lpc_chip_43xx.lib(clock_18xx_43xx.o)
    0x1a004040   0x00000058   Code   RO         1743    i.Chip_Clock_GetRate  lib_lpc_chip_43xx.lib(clock_18xx_43xx.o)
    0x1a004098   0x00000048   Code   RO         1747    i.Chip_Clock_SetBaseClock  lib_lpc_chip_43xx.lib(clock_18xx_43xx.o)
    0x1a0040e0   0x00000050   Code   RO         1748    i.Chip_Clock_SetDivider  lib_lpc_chip_43xx.lib(clock_18xx_43xx.o)
    0x1a004130   0x0000001c   Code   RO         1944    i.Chip_EMC_Dynamic_Init  lib_lpc_chip_43xx.lib(emc_18xx_43xx.o)
    0x1a00414c   0x0000002c   Code   RO         1946    i.Chip_EMC_Init     lib_lpc_chip_43xx.lib(emc_18xx_43xx.o)
    0x1a004178   0x0000001c   Code   RO         1949    i.Chip_EMC_Static_Init  lib_lpc_chip_43xx.lib(emc_18xx_43xx.o)
    0x1a004194   0x00000002   Code   RO         2022    i.Chip_GPIO_Init    lib_lpc_chip_43xx.lib(gpio_18xx_43xx.o)
    0x1a004196   0x00000002   PAD
    0x1a004198   0x00000028   Code   RO         2076    i.Chip_I2C_EventHandler  lib_lpc_chip_43xx.lib(i2c_18xx_43xx.o)
    0x1a0041c0   0x00000040   Code   RO         2077    i.Chip_I2C_EventHandlerPolling  lib_lpc_chip_43xx.lib(i2c_18xx_43xx.o)
    0x1a004200   0x00000014   Code   RO         2079    i.Chip_I2C_GetMasterEventHandler  lib_lpc_chip_43xx.lib(i2c_18xx_43xx.o)
    0x1a004214   0x0000002c   Code   RO         2080    i.Chip_I2C_Init     lib_lpc_chip_43xx.lib(i2c_18xx_43xx.o)
    0x1a004240   0x00000018   Code   RO         2082    i.Chip_I2C_IsStateChanged  lib_lpc_chip_43xx.lib(i2c_18xx_43xx.o)
    0x1a004258   0x0000003a   Code   RO         2083    i.Chip_I2C_MasterCmdRead  lib_lpc_chip_43xx.lib(i2c_18xx_43xx.o)
    0x1a004292   0x00000032   Code   RO         2085    i.Chip_I2C_MasterSend  lib_lpc_chip_43xx.lib(i2c_18xx_43xx.o)
    0x1a0042c4   0x00000038   Code   RO         2086    i.Chip_I2C_MasterStateHandler  lib_lpc_chip_43xx.lib(i2c_18xx_43xx.o)
    0x1a0042fc   0x0000006c   Code   RO         2087    i.Chip_I2C_MasterTransfer  lib_lpc_chip_43xx.lib(i2c_18xx_43xx.o)
    0x1a004368   0x0000003c   Code   RO         2088    i.Chip_I2C_SetClockRate  lib_lpc_chip_43xx.lib(i2c_18xx_43xx.o)
    0x1a0043a4   0x00000028   Code   RO         2089    i.Chip_I2C_SetMasterEventHandler  lib_lpc_chip_43xx.lib(i2c_18xx_43xx.o)
    0x1a0043cc   0x0000000c   Code   RO         2250    i.Chip_I2S_Init     lib_lpc_chip_43xx.lib(i2s_18xx_43xx.o)
    0x1a0043d8   0x0000007a   Code   RO         2254    i.Chip_I2S_TxConfig  lib_lpc_chip_43xx.lib(i2s_18xx_43xx.o)
    0x1a004452   0x00000002   PAD
    0x1a004454   0x00000038   Code   RO         2315    i.Chip_RGU_InReset  lib_lpc_chip_43xx.lib(rgu_18xx_43xx.o)
    0x1a00448c   0x0000002c   Code   RO         2316    i.Chip_RGU_TriggerReset  lib_lpc_chip_43xx.lib(rgu_18xx_43xx.o)
    0x1a0044b8   0x00000004   Code   RO         2346    i.Chip_SSP_ClearIntPending  lib_lpc_chip_43xx.lib(ssp_18xx_43xx.o)
    0x1a0044bc   0x00000014   Code   RO         2348    i.Chip_SSP_GetClockIndex  lib_lpc_chip_43xx.lib(ssp_18xx_43xx.o)
    0x1a0044d0   0x00000010   Code   RO         2349    i.Chip_SSP_GetRawIntStatus  lib_lpc_chip_43xx.lib(ssp_18xx_43xx.o)
    0x1a0044e0   0x00000010   Code   RO         2350    i.Chip_SSP_GetStatus  lib_lpc_chip_43xx.lib(ssp_18xx_43xx.o)
    0x1a0044f0   0x0000003c   Code   RO         2351    i.Chip_SSP_Init     lib_lpc_chip_43xx.lib(ssp_18xx_43xx.o)
    0x1a00452c   0x00000008   Code   RO         2357    i.Chip_SSP_ReceiveFrame  lib_lpc_chip_43xx.lib(ssp_18xx_43xx.o)
    0x1a004534   0x00000006   Code   RO         2358    i.Chip_SSP_SendFrame  lib_lpc_chip_43xx.lib(ssp_18xx_43xx.o)
    0x1a00453a   0x00000046   Code   RO         2359    i.Chip_SSP_SetBitRate  lib_lpc_chip_43xx.lib(ssp_18xx_43xx.o)
    0x1a004580   0x00000014   Code   RO         2360    i.Chip_SSP_SetClockRate  lib_lpc_chip_43xx.lib(ssp_18xx_43xx.o)
    0x1a004594   0x0000001c   Code   RO         2361    i.Chip_SSP_SetMaster  lib_lpc_chip_43xx.lib(ssp_18xx_43xx.o)
    0x1a0045b0   0x0000000c   Code   RO         2362    i.Chip_SSP_Set_Mode  lib_lpc_chip_43xx.lib(ssp_18xx_43xx.o)
    0x1a0045bc   0x000000ea   Code   RO         2363    i.Chip_SSP_WriteFrames_Blocking  lib_lpc_chip_43xx.lib(ssp_18xx_43xx.o)
    0x1a0046a6   0x0000000e   Code   RO         2484    i.Chip_SetupCoreClock  lib_lpc_chip_43xx.lib(sysinit_18xx_43xx.o)
    0x1a0046b4   0x0000000a   Code   RO         1244    i.Chip_UART_DisableDivisorAccess  lib_lpc_chip_43xx.lib(uart_18xx_43xx.o)
    0x1a0046be   0x0000000a   Code   RO         1245    i.Chip_UART_EnableDivisorAccess  lib_lpc_chip_43xx.lib(uart_18xx_43xx.o)
    0x1a0046c8   0x00000030   Code   RO         1247    i.Chip_UART_GetClockIndex  lib_lpc_chip_43xx.lib(uart_18xx_43xx.o)
    0x1a0046f8   0x0000004c   Code   RO         1249    i.Chip_UART_Init    lib_lpc_chip_43xx.lib(uart_18xx_43xx.o)
    0x1a004744   0x00000042   Code   RO         1261    i.Chip_UART_SetBaud  lib_lpc_chip_43xx.lib(uart_18xx_43xx.o)
    0x1a004786   0x00000006   Code   RO         1263    i.Chip_UART_SetDivisorLatches  lib_lpc_chip_43xx.lib(uart_18xx_43xx.o)
    0x1a00478c   0x00000014   Code   RO         1014    i.SystemCoreClockUpdate  lib_lpc_chip_43xx.lib(chip_18xx_43xx.o)
    0x1a0047a0   0x00000024   Code   RO         2488    i.clock_init_delay  lib_lpc_chip_43xx.lib(sysinit_18xx_43xx.o)
    0x1a0047c4   0x000000bc   Code   RO         2489    i.clock_main_init   lib_lpc_chip_43xx.lib(sysinit_18xx_43xx.o)
    0x1a004880   0x00000038   Code   RO         1950    i.convertTimmingParam  lib_lpc_chip_43xx.lib(emc_18xx_43xx.o)
    0x1a0048b8   0x00000050   Code   RO         1415    i.fpuInit           lib_lpc_chip_43xx.lib(fpu_init.o)
    0x1a004908   0x00000162   Code   RO         2255    i.getClkDiv         lib_lpc_chip_43xx.lib(i2s_18xx_43xx.o)
    0x1a004a6a   0x00000002   PAD
    0x1a004a6c   0x0000001c   Code   RO         2092    i.getClkRate        lib_lpc_chip_43xx.lib(i2c_18xx_43xx.o)
    0x1a004a88   0x00000028   Code   RO         1951    i.getColsLen        lib_lpc_chip_43xx.lib(emc_18xx_43xx.o)
    0x1a004ab0   0x0000000a   Code   RO         2093    i.getCurState       lib_lpc_chip_43xx.lib(i2c_18xx_43xx.o)
    0x1a004aba   0x000000e0   Code   RO         2095    i.handleMasterXferState  lib_lpc_chip_43xx.lib(i2c_18xx_43xx.o)
    0x1a004b9a   0x000001e8   Code   RO         1952    i.initDynMem        lib_lpc_chip_43xx.lib(emc_18xx_43xx.o)
    0x1a004d82   0x00000068   Code   RO         1953    i.initStaticMem     lib_lpc_chip_43xx.lib(emc_18xx_43xx.o)
    0x1a004dea   0x0000000a   Code   RO         2100    i.startSlaverXfer   lib_lpc_chip_43xx.lib(i2c_18xx_43xx.o)
    0x1a004df4   0x0000000a   Code   RO         2785    x$fpl$fpinit        fz_wm.l(fpinit.o)
    0x1a004dfe   0x00000002   PAD
    0x1a004e00   0x00000010   Data   RO          105    .constdata          rsh.o
    0x1a004e10   0x00000010   Data   RO          959    .constdata          cpu_time_stat.o
    0x1a004e20   0x00000010   Data   RO          978    .constdata          isr_stack_detect.o
    0x1a004e30   0x00000010   Data   RO          994    .constdata          task_stack_detect.o
    0x1a004e40   0x00000040   Data   RO         1439    .constdata          lib_lpc_board_keil_mcb_4357.lib(board.o)
    0x1a004e80   0x000002bc   Data   RO         1673    .constdata          lib_lpc_board_keil_mcb_4357.lib(board_sysinit.o)
    0x1a00513c   0x0000006c   Data   RO         1755    .constdata          lib_lpc_chip_43xx.lib(clock_18xx_43xx.o)
    0x1a0051a8   0x00000048   Data   RO         2490    .constdata          lib_lpc_chip_43xx.lib(sysinit_18xx_43xx.o)
    0x1a0051f0   0x0000001f   Data   RO         2595    .constdata          lib_lpc_board_keil_mcb_4357.lib(uda1380.o)
    0x1a00520f   0x00000001   PAD
    0x1a005210   0x00000031   Data   RO          106    .conststring        rsh.o
    0x1a005241   0x00000003   PAD
    0x1a005244   0x000000ad   Data   RO          107    .conststring        rsh.o
    0x1a0052f1   0x00000003   PAD
    0x1a0052f4   0x000000a1   Data   RO          891    .conststring        command_example.o
    0x1a005395   0x00000003   PAD
    0x1a005398   0x00000029   Data   RO          960    .conststring        cpu_time_stat.o
    0x1a0053c1   0x00000003   PAD
    0x1a0053c4   0x0000002c   Data   RO          979    .conststring        isr_stack_detect.o
    0x1a0053f0   0x0000002e   Data   RO          995    .conststring        task_stack_detect.o
    0x1a00541e   0x00000002   PAD
    0x1a005420   0x00000020   Data   RO         2841    Region$$Table       anon$$obj.o


==============================================================================

Image component sizes


      Code (inc. data)   RO Data    RW Data    ZI Data      Debug   Object Name

       332        144        161         48          0       4571   command_example.o
       172         16          0          0          0        384   cpu.o
       192         54         57          8          0       2052   cpu_time_stat.o
       372          0          0          0          0      15432   fifo.o
        72         44         60          8          0       1749   isr_stack_detect.o
        68         28        276          0       1792        936   keil_startup_lpc18xx43xx.o
       736         76          0          4       2188      36575   main.o
       436         16          0          0          0       3598   port.o
        88          0          0          0          0       1336   port_error_process.o
        48         10          0          0          0        941   port_extension.o
        30          0          0          0          0       1963   port_hook.o
         0          0          0          0          0       4584   raw_event.o
        36          6          0          0          0        608   raw_idle.o
       988         16          0          0          0       5725   raw_mutex.o
         0          0          0         49       3540       1718   raw_obj.o
       676         12          0          0          0       5616   raw_pend.o
       356         68          0          0          0       6774   raw_sched.o
       660         16          0          0          0       5052   raw_sem.o
       128         12          0          0          0       1179   raw_stat.o
       444         28          0          0          0       2928   raw_system.o
      2020        102          0          0          0      15622   raw_task.o
        52          4          0          0          0       1911   raw_task_sem.o
       504         74          0          0          0       8566   raw_tick.o
       912         60          0          0          0       5011   raw_timer.o
       472         14        238         20          0       4889   rsh.o
       592         40          0          0          0       5102   string.o
        28          8          0          0          0       6353   sysinit.o
       112         64         62          8          0       1822   task_stack_detect.o
       136          0          0          0          0       1852   user_extension.o

    ----------------------------------------------------------------------
     10664        912        900        156       7528     154849   Object Totals
         0          0         32          0          0          0   (incl. Generated)
         2          0         14         11          8          0   (incl. Padding)

    ----------------------------------------------------------------------

      Code (inc. data)   RO Data    RW Data    ZI Data      Debug   Library Member Name

         8          0          0          0          0         68   __main.o
       104          0          0          0          0         84   __printf.o
         0          0          0          0          0          0   __rtentry.o
        12          0          0          0          0          0   __rtentry2.o
         6          0          0          0          0          0   __rtentry4.o
        52          8          0          0          0          0   __scatter.o
        26          0          0          0          0          0   __scatter_copy.o
        28          0          0          0          0          0   __scatter_zi.o
         6          0          0          0          0          0   _printf_c.o
        44          0          0          0          0        108   _printf_char.o
        48          6          0          0          0         96   _printf_char_common.o
        36          4          0          0          0         80   _printf_char_file.o
         6          0          0          0          0          0   _printf_d.o
       120         16          0          0          0         92   _printf_dec.o
       178          0          0          0          0         88   _printf_intcommon.o
         0          0          0          0          0          0   _printf_percent.o
         4          0          0          0          0          0   _printf_percent_end.o
         6          0          0          0          0          0   _printf_s.o
        82          0          0          0          0         80   _printf_str.o
        18          0          0          0          0         80   exit.o
         6          0          0          0          0        152   heapauxi.o
         2          0          0          0          0          0   libinit.o
         6          0          0          0          0          0   libinit2.o
         2          0          0          0          0          0   libshutdown.o
         2          0          0          0          0          0   libshutdown2.o
         8          4          0          0         96         68   libspace.o
       238          0          0          0          0        100   lludivv7m.o
        24          4          0          0          0         84   noretval__2printf.o
        78          0          0          0          0         80   rt_memclr_w.o
         2          0          0          0          0          0   rtexit.o
        10          0          0          0          0          0   rtexit2.o
        74          0          0          0          0         80   sys_stackheap_outer.o
        10          0          0          0          0        116   fpinit.o
      2728        102         64         20          0      62486   board.o
       412         56        700          0          0      10122   board_sysinit.o
       388         20         31          0          0       3135   uda1380.o
        20          6          0          4          0      26534   chip_18xx_43xx.o
       974        150        108          8          0       9866   clock_18xx_43xx.o
       788         22          0          0          0       5204   emc_18xx_43xx.o
        80         18          0          0          0       1234   fpu_init.o
         2          0          0          0          0       3265   gpio_18xx_43xx.o
       836         62          0         56          0      10510   i2c_18xx_43xx.o
       488          0          0          0          0       2828   i2s_18xx_43xx.o
       100         10          0          0          0       1447   rgu_18xx_43xx.o
       494          8          0          0          0      11299   ssp_18xx_43xx.o
       238         20         72          0          0       2286   sysinit_18xx_43xx.o
       216         16          0          0          0       9189   uart_18xx_43xx.o

    ----------------------------------------------------------------------
      9028        532        976         88        100     160861   Library Totals
        18          0          1          0          4          0   (incl. Padding)

    ----------------------------------------------------------------------

      Code (inc. data)   RO Data    RW Data    ZI Data      Debug   Library Name

      1236         42          0          0         96       1340   c_w.l
        10          0          0          0          0        116   fz_wm.l
      3528        178        795         20          0      75743   lib_lpc_board_keil_mcb_4357.lib
      4236        312        180         68          0      83662   lib_lpc_chip_43xx.lib

    ----------------------------------------------------------------------
      9028        532        976         88        100     160861   Library Totals

    ----------------------------------------------------------------------

==============================================================================


      Code (inc. data)   RO Data    RW Data    ZI Data      Debug   

     19692       1444       1876        244       7628     304238   Grand Totals
     19692       1444       1876        244       7628     304238   ELF Image Totals
     19692       1444       1876        244          0          0   ROM Totals

==============================================================================

    Total RO  Size (Code + RO Data)                21568 (  21.06kB)
    Total RW  Size (RW Data + ZI Data)              7872 (   7.69kB)
    Total ROM Size (Code + RO Data + RW Data)      21812 (  21.30kB)

==============================================================================

