Component: ARM Compiler 5.05 update 1 (build 106) Tool: armlink [4d0efa]

==============================================================================

Section Cross References

    raw-os.o(.text) refers to cpu.o(.text) for OS_CPU_SR_Save
    raw-os.o(.text) refers to raw-os.o(.data) for .data
    raw-os.o(.text) refers to raw-os.o(.bss) for .bss
    raw-os.o(.text) refers to user_extension.o(.text) for raw_memset
    raw-os.o(.text) refers to port_hook.o(.text) for task_create_hook
    raw-os.o(.text) refers to port.o(.text) for port_stack_init
    fifo.o(.text) refers to cpu.o(.text) for OS_CPU_SR_Save
    fifo.o(.text) refers to user_extension.o(.text) for raw_memcpy
    rsh.o(.text) refers to cpu.o(.text) for OS_CPU_SR_Save
    rsh.o(.text) refers to string.o(.text) for raw_strncmp
    rsh.o(.text) refers to user_extension.o(.text) for raw_memset
    rsh.o(.text) refers to rsh.o(.data) for .data
    rsh.o(.text) refers to rsh.o(.conststring) for .conststring
    rsh.o(.constdata) refers to rsh.o(.conststring) for .conststring
    rsh.o(.constdata) refers to rsh.o(.text) for rsh_help_command
    rsh.o(.data) refers to rsh.o(.constdata) for xHelpCommand
    raw_malloc.o(.text) refers to raw-os.o(.text) for raw_mutex_get
    raw_malloc.o(.text) refers to user_extension.o(.text) for raw_memset
==============================================================================

Removing Unused input sections from the image.

    Removing rsh.o(.text), (472 bytes).
    Removing rsh.o(.constdata), (16 bytes).
    Removing rsh.o(.conststring), (50 bytes).
    Removing rsh.o(.conststring), (173 bytes).
    Removing rsh.o(.data), (20 bytes).
    Removing string.o(.text), (592 bytes).
    Removing sysinit.o(.rev16_text), (4 bytes).
    Removing sysinit.o(.revsh_text), (4 bytes).
    Removing lpc43xx_scu.o(.rev16_text), (4 bytes).
    Removing lpc43xx_scu.o(.revsh_text), (4 bytes).
    Removing lpc43xx_sdram.o(.rev16_text), (4 bytes).
    Removing lpc43xx_sdram.o(.revsh_text), (4 bytes).
    Removing k9f1g08.o(.rev16_text), (4 bytes).
    Removing k9f1g08.o(.revsh_text), (4 bytes).
    Removing lpc43xx_gpio.o(.rev16_text), (4 bytes).
    Removing lpc43xx_gpio.o(.revsh_text), (4 bytes).
    Removing main.o(.rev16_text), (4 bytes).
    Removing main.o(.revsh_text), (4 bytes).
==============================================================================

Image Symbol Table

    Local Symbols

    Symbol Name                              Value     Ov Type        Size  Object(Section)

    ../clib/angel/boardlib.s                 0x00000000   Number         0  boardshut.o ABSOLUTE
    ../clib/angel/boardlib.s                 0x00000000   Number         0  boardinit3.o ABSOLUTE
    ../clib/angel/boardlib.s                 0x00000000   Number         0  boardinit2.o ABSOLUTE
    ../clib/angel/boardlib.s                 0x00000000   Number         0  boardinit1.o ABSOLUTE
    ../clib/angel/handlers.s                 0x00000000   Number         0  __scatter_copy.o ABSOLUTE
    ../clib/angel/handlers.s                 0x00000000   Number         0  __scatter_zi.o ABSOLUTE
    ../clib/angel/kernel.s                   0x00000000   Number         0  rtexit.o ABSOLUTE
    ../clib/angel/kernel.s                   0x00000000   Number         0  __rtentry.o ABSOLUTE
    ../clib/angel/kernel.s                   0x00000000   Number         0  __rtentry2.o ABSOLUTE
    ../clib/angel/kernel.s                   0x00000000   Number         0  rtexit2.o ABSOLUTE
    ../clib/angel/kernel.s                   0x00000000   Number         0  __rtentry4.o ABSOLUTE
    ../clib/angel/rt.s                       0x00000000   Number         0  rt_raise.o ABSOLUTE
    ../clib/angel/rt.s                       0x00000000   Number         0  rt_ctype_table.o ABSOLUTE
    ../clib/angel/rt.s                       0x00000000   Number         0  rt_div0.o ABSOLUTE
    ../clib/angel/rt.s                       0x00000000   Number         0  rt_locale.o ABSOLUTE
    ../clib/angel/rt.s                       0x00000000   Number         0  rt_locale_intlibspace.o ABSOLUTE
    ../clib/angel/rt.s                       0x00000000   Number         0  aeabi_ldiv0.o ABSOLUTE
    ../clib/angel/rt.s                       0x00000000   Number         0  aeabi_ldiv0_sigfpe.o ABSOLUTE
    ../clib/angel/scatter.s                  0x00000000   Number         0  __scatter.o ABSOLUTE
    ../clib/angel/startup.s                  0x00000000   Number         0  __main.o ABSOLUTE
    ../clib/angel/sys.s                      0x00000000   Number         0  libspace.o ABSOLUTE
    ../clib/angel/sys.s                      0x00000000   Number         0  sys_stackheap_outer.o ABSOLUTE
    ../clib/angel/sys.s                      0x00000000   Number         0  use_no_semi.o ABSOLUTE
    ../clib/angel/sys.s                      0x00000000   Number         0  indicate_semi.o ABSOLUTE
    ../clib/angel/sysapp.c                   0x00000000   Number         0  sys_wrch.o ABSOLUTE
    ../clib/angel/sysapp.c                   0x00000000   Number         0  sys_command.o ABSOLUTE
    ../clib/angel/sysapp.c                   0x00000000   Number         0  getenv.o ABSOLUTE
    ../clib/armsys.c                         0x00000000   Number         0  _get_argv_nomalloc.o ABSOLUTE
    ../clib/armsys.c                         0x00000000   Number         0  argv_veneer.o ABSOLUTE
    ../clib/armsys.c                         0x00000000   Number         0  argv_veneer.o ABSOLUTE
    ../clib/armsys.c                         0x00000000   Number         0  no_argv.o ABSOLUTE
    ../clib/ctype.c                          0x00000000   Number         0  isspace.o ABSOLUTE
    ../clib/heapalloc.c                      0x00000000   Number         0  hrguard.o ABSOLUTE
    ../clib/heapaux.c                        0x00000000   Number         0  heapauxi.o ABSOLUTE
    ../clib/libinit.s                        0x00000000   Number         0  libinit.o ABSOLUTE
    ../clib/libinit.s                        0x00000000   Number         0  libshutdown2.o ABSOLUTE
    ../clib/libinit.s                        0x00000000   Number         0  libinit2.o ABSOLUTE
    ../clib/libinit.s                        0x00000000   Number         0  libshutdown.o ABSOLUTE
    ../clib/locale.c                         0x00000000   Number         0  _wcrtomb.o ABSOLUTE
    ../clib/locale.s                         0x00000000   Number         0  lc_ctype_c.o ABSOLUTE
    ../clib/longlong.s                       0x00000000   Number         0  lludivv7m.o ABSOLUTE
    ../clib/longlong.s                       0x00000000   Number         0  lludiv10.o ABSOLUTE
    ../clib/memcpset.s                       0x00000000   Number         0  aeabi_memset.o ABSOLUTE
    ../clib/memcpset.s                       0x00000000   Number         0  rt_memclr.o ABSOLUTE
    ../clib/memcpset.s                       0x00000000   Number         0  rt_memclr_w.o ABSOLUTE
    ../clib/memcpset.s                       0x00000000   Number         0  strncpy.o ABSOLUTE
    ../clib/memcpset.s                       0x00000000   Number         0  rt_memcpy_v6.o ABSOLUTE
    ../clib/memcpset.s                       0x00000000   Number         0  strcmpv7m.o ABSOLUTE
    ../clib/memcpset.s                       0x00000000   Number         0  rt_memcpy_w.o ABSOLUTE
    ../clib/misc.s                           0x00000000   Number         0  printf_stubs.o ABSOLUTE
    ../clib/printf.c                         0x00000000   Number         0  _printf_oct_int_ll.o ABSOLUTE
    ../clib/printf.c                         0x00000000   Number         0  _printf_oct_int.o ABSOLUTE
    ../clib/printf.c                         0x00000000   Number         0  __printf_wp.o ABSOLUTE
    ../clib/printf.c                         0x00000000   Number         0  _printf_oct_ll.o ABSOLUTE
    ../clib/printf.c                         0x00000000   Number         0  _printf_longlong_dec.o ABSOLUTE
    ../clib/printf.c                         0x00000000   Number         0  _printf_wctomb.o ABSOLUTE
    ../clib/printf.c                         0x00000000   Number         0  __printf_nopercent.o ABSOLUTE
    ../clib/printf.c                         0x00000000   Number         0  _printf_charcount.o ABSOLUTE
    ../clib/printf.c                         0x00000000   Number         0  _printf_dec.o ABSOLUTE
    ../clib/printf.c                         0x00000000   Number         0  _printf_str.o ABSOLUTE
    ../clib/printf.c                         0x00000000   Number         0  _printf_truncate.o ABSOLUTE
    ../clib/printf.c                         0x00000000   Number         0  _printf_pad.o ABSOLUTE
    ../clib/printf.c                         0x00000000   Number         0  __printf.o ABSOLUTE
    ../clib/printf.c                         0x00000000   Number         0  noretval__2sprintf.o ABSOLUTE
    ../clib/printf.c                         0x00000000   Number         0  noretval__2fprintf.o ABSOLUTE
    ../clib/printf.c                         0x00000000   Number         0  noretval__2printf.o ABSOLUTE
    ../clib/printf.c                         0x00000000   Number         0  __2sprintf.o ABSOLUTE
    ../clib/printf.c                         0x00000000   Number         0  __2fprintf.o ABSOLUTE
    ../clib/printf.c                         0x00000000   Number         0  __2printf.o ABSOLUTE
    ../clib/printf.c                         0x00000000   Number         0  _printf_intcommon.o ABSOLUTE
    ../clib/printf.c                         0x00000000   Number         0  _printf_char_common.o ABSOLUTE
    ../clib/printf.c                         0x00000000   Number         0  _sputc.o ABSOLUTE
    ../clib/printf.c                         0x00000000   Number         0  _printf_char.o ABSOLUTE
    ../clib/printf.c                         0x00000000   Number         0  _printf_wchar.o ABSOLUTE
    ../clib/printf.c                         0x00000000   Number         0  __printf_flags_ss_wp.o ABSOLUTE
    ../clib/printf.c                         0x00000000   Number         0  __printf_ss_wp.o ABSOLUTE
    ../clib/printf.c                         0x00000000   Number         0  __printf_flags_wp.o ABSOLUTE
    ../clib/printf.c                         0x00000000   Number         0  _printf_char_file.o ABSOLUTE
    ../clib/printf.c                         0x00000000   Number         0  __printf_flags_ss.o ABSOLUTE
    ../clib/printf.c                         0x00000000   Number         0  __printf_ss.o ABSOLUTE
    ../clib/printf.c                         0x00000000   Number         0  __printf_flags.o ABSOLUTE
    ../clib/printf.c                         0x00000000   Number         0  _printf_hex_int_ll_ptr.o ABSOLUTE
    ../clib/printf.c                         0x00000000   Number         0  _printf_hex_ll_ptr.o ABSOLUTE
    ../clib/printf.c                         0x00000000   Number         0  _printf_hex_int_ptr.o ABSOLUTE
    ../clib/printf.c                         0x00000000   Number         0  _printf_hex_ptr.o ABSOLUTE
    ../clib/printf.c                         0x00000000   Number         0  _printf_hex_int_ll.o ABSOLUTE
    ../clib/printf.c                         0x00000000   Number         0  _printf_hex_int.o ABSOLUTE
    ../clib/printf.c                         0x00000000   Number         0  _printf_hex_ll.o ABSOLUTE
    ../clib/printf_percent.s                 0x00000000   Number         0  _printf_percent.o ABSOLUTE
    ../clib/printf_percent.s                 0x00000000   Number         0  _printf_l.o ABSOLUTE
    ../clib/printf_percent.s                 0x00000000   Number         0  _printf_ll.o ABSOLUTE
    ../clib/printf_percent.s                 0x00000000   Number         0  _printf_percent_end.o ABSOLUTE
    ../clib/printf_percent.s                 0x00000000   Number         0  _printf_c.o ABSOLUTE
    ../clib/printf_percent.s                 0x00000000   Number         0  _printf_s.o ABSOLUTE
    ../clib/printf_percent.s                 0x00000000   Number         0  _printf_n.o ABSOLUTE
    ../clib/printf_percent.s                 0x00000000   Number         0  _printf_lc.o ABSOLUTE
    ../clib/printf_percent.s                 0x00000000   Number         0  _printf_lld.o ABSOLUTE
    ../clib/printf_percent.s                 0x00000000   Number         0  _printf_u.o ABSOLUTE
    ../clib/printf_percent.s                 0x00000000   Number         0  _printf_d.o ABSOLUTE
    ../clib/printf_percent.s                 0x00000000   Number         0  _printf_i.o ABSOLUTE
    ../clib/printf_percent.s                 0x00000000   Number         0  _printf_o.o ABSOLUTE
    ../clib/printf_percent.s                 0x00000000   Number         0  _printf_p.o ABSOLUTE
    ../clib/printf_percent.s                 0x00000000   Number         0  _printf_x.o ABSOLUTE
    ../clib/scanf.c                          0x00000000   Number         0  scanf_char.o ABSOLUTE
    ../clib/scanf.c                          0x00000000   Number         0  _sgetc.o ABSOLUTE
    ../clib/scanf.c                          0x00000000   Number         0  _scanf.o ABSOLUTE
    ../clib/scanf.c                          0x00000000   Number         0  _scanf_int.o ABSOLUTE
    ../clib/scanf.c                          0x00000000   Number         0  __0sscanf.o ABSOLUTE
    ../clib/scanf.c                          0x00000000   Number         0  _scanf_str.o ABSOLUTE
    ../clib/scanf.c                          0x00000000   Number         0  _chval.o ABSOLUTE
    ../clib/signal.c                         0x00000000   Number         0  defsig_abrt_inner.o ABSOLUTE
    ../clib/signal.c                         0x00000000   Number         0  defsig_rtmem_formal.o ABSOLUTE
    ../clib/signal.c                         0x00000000   Number         0  defsig_stak_inner.o ABSOLUTE
    ../clib/signal.c                         0x00000000   Number         0  defsig_pvfn_inner.o ABSOLUTE
    ../clib/signal.c                         0x00000000   Number         0  defsig_cppl_inner.o ABSOLUTE
    ../clib/signal.c                         0x00000000   Number         0  defsig_rtred_inner.o ABSOLUTE
    ../clib/signal.c                         0x00000000   Number         0  defsig_segv_inner.o ABSOLUTE
    ../clib/signal.c                         0x00000000   Number         0  defsig_other.o ABSOLUTE
    ../clib/signal.c                         0x00000000   Number         0  defsig_rtmem_inner.o ABSOLUTE
    ../clib/signal.c                         0x00000000   Number         0  defsig_fpe_outer.o ABSOLUTE
    ../clib/signal.c                         0x00000000   Number         0  defsig_fpe_formal.o ABSOLUTE
    ../clib/signal.c                         0x00000000   Number         0  defsig_exit.o ABSOLUTE
    ../clib/signal.c                         0x00000000   Number         0  defsig_fpe_inner.o ABSOLUTE
    ../clib/signal.c                         0x00000000   Number         0  __raise.o ABSOLUTE
    ../clib/signal.c                         0x00000000   Number         0  defsig_general.o ABSOLUTE
    ../clib/signal.c                         0x00000000   Number         0  defsig_rtmem_outer.o ABSOLUTE
    ../clib/signal.s                         0x00000000   Number         0  defsig.o ABSOLUTE
    ../clib/stdlib.c                         0x00000000   Number         0  exit.o ABSOLUTE
    ../clib/string.c                         0x00000000   Number         0  memcmp.o ABSOLUTE
    ../clib/string.c                         0x00000000   Number         0  strcpy.o ABSOLUTE
    ../clib/string.c                         0x00000000   Number         0  strncmp.o ABSOLUTE
    ../clib/string.c                         0x00000000   Number         0  strcat.o ABSOLUTE
    ../fplib/d2f.s                           0x00000000   Number         0  d2f.o ABSOLUTE
    ../fplib/ddiv.s                          0x00000000   Number         0  ddiv.o ABSOLUTE
    ../fplib/dflt.s                          0x00000000   Number         0  dflt_clz.o ABSOLUTE
    ../fplib/dmul.s                          0x00000000   Number         0  dmul.o ABSOLUTE
    ../fplib/dnaninf.s                       0x00000000   Number         0  dnaninf.o ABSOLUTE
    ../fplib/dretinf.s                       0x00000000   Number         0  dretinf.o ABSOLUTE
    ../fplib/fpinit.s                        0x00000000   Number         0  fpinit.o ABSOLUTE
    ../fplib/fretinf.s                       0x00000000   Number         0  fretinf.o ABSOLUTE
    ../fplib/usenofp.s                       0x00000000   Number         0  usenofp.o ABSOLUTE
    ..\..\..\..\software\common\bmp_draw.c   0x00000000   Number         0  bmp_draw.o ABSOLUTE
    ..\..\..\..\software\common\k9f1g08.c    0x00000000   Number         0  k9f1g08.o ABSOLUTE
    ..\..\..\..\software\common\lpc43xx_gpio.c 0x00000000   Number         0  lpc43xx_gpio.o ABSOLUTE
    ..\..\..\..\software\common\lpc43xx_lcd.c 0x00000000   Number         0  lpc43xx_lcd.o ABSOLUTE
    ..\..\..\..\software\common\lpc43xx_scu.c 0x00000000   Number         0  lpc43xx_scu.o ABSOLUTE
    ..\..\..\..\software\common\lpc43xx_sdram.c 0x00000000   Number         0  lpc43xx_sdram.o ABSOLUTE
    ..\..\..\..\software\common\yaffs_port_nand_drv.c 0x00000000   Number         0  yaffs_port_nand_drv.o ABSOLUTE
    ..\..\..\..\software\filesystems\fatfs_rawos\diskio.c 0x00000000   Number         0  diskio.o ABSOLUTE
    ..\..\..\..\software\filesystems\fatfs_rawos\ff.c 0x00000000   Number         0  ff.o ABSOLUTE
    ..\..\..\..\software\filesystems\fatfs_rawos\option\syscall.c 0x00000000   Number         0  syscall.o ABSOLUTE
    ..\..\..\..\software\filesystems\fatfs_rawos\option\unicode.c 0x00000000   Number         0  unicode.o ABSOLUTE
    ..\..\..\..\software\filesystems\yaffs2\direct\test-framework\yaffs_osglue.c 0x00000000   Number         0  yaffs_osglue.o ABSOLUTE
    ..\..\..\..\software\filesystems\yaffs2\direct\test-framework\yaffscfg2k.c 0x00000000   Number         0  yaffscfg2k.o ABSOLUTE
    ..\..\..\..\software\filesystems\yaffs2\direct\yaffs_attribs.c 0x00000000   Number         0  yaffs_attribs.o ABSOLUTE
    ..\..\..\..\software\filesystems\yaffs2\direct\yaffs_error.c 0x00000000   Number         0  yaffs_error.o ABSOLUTE
    ..\..\..\..\software\filesystems\yaffs2\direct\yaffs_hweight.c 0x00000000   Number         0  yaffs_hweight.o ABSOLUTE
    ..\..\..\..\software\filesystems\yaffs2\direct\yaffs_qsort.c 0x00000000   Number         0  yaffs_qsort.o ABSOLUTE
    ..\..\..\..\software\filesystems\yaffs2\direct\yaffs_startup.c 0x00000000   Number         0  yaffs_startup.o ABSOLUTE
    ..\..\..\..\software\filesystems\yaffs2\direct\yaffsfs.c 0x00000000   Number         0  yaffsfs.o ABSOLUTE
    ..\..\..\..\software\filesystems\yaffs2\yaffs_allocator.c 0x00000000   Number         0  yaffs_allocator.o ABSOLUTE
    ..\..\..\..\software\filesystems\yaffs2\yaffs_bitmap.c 0x00000000   Number         0  yaffs_bitmap.o ABSOLUTE
    ..\..\..\..\software\filesystems\yaffs2\yaffs_checkptrw.c 0x00000000   Number         0  yaffs_checkptrw.o ABSOLUTE
    ..\..\..\..\software\filesystems\yaffs2\yaffs_ecc.c 0x00000000   Number         0  yaffs_ecc.o ABSOLUTE
    ..\..\..\..\software\filesystems\yaffs2\yaffs_guts.c 0x00000000   Number         0  yaffs_guts.o ABSOLUTE
    ..\..\..\..\software\filesystems\yaffs2\yaffs_nameval.c 0x00000000   Number         0  yaffs_nameval.o ABSOLUTE
    ..\..\..\..\software\filesystems\yaffs2\yaffs_nand.c 0x00000000   Number         0  yaffs_nand.o ABSOLUTE
    ..\..\..\..\software\filesystems\yaffs2\yaffs_packedtags1.c 0x00000000   Number         0  yaffs_packedtags1.o ABSOLUTE
    ..\..\..\..\software\filesystems\yaffs2\yaffs_packedtags2.c 0x00000000   Number         0  yaffs_packedtags2.o ABSOLUTE
    ..\..\..\..\software\filesystems\yaffs2\yaffs_summary.c 0x00000000   Number         0  yaffs_summary.o ABSOLUTE
    ..\..\..\..\software\filesystems\yaffs2\yaffs_tagscompat.c 0x00000000   Number         0  yaffs_tagscompat.o ABSOLUTE
    ..\..\..\..\software\filesystems\yaffs2\yaffs_tagsmarshall.c 0x00000000   Number         0  yaffs_tagsmarshall.o ABSOLUTE
    ..\..\..\..\software\filesystems\yaffs2\yaffs_verify.c 0x00000000   Number         0  yaffs_verify.o ABSOLUTE
    ..\..\..\..\software\filesystems\yaffs2\yaffs_yaffs1.c 0x00000000   Number         0  yaffs_yaffs1.o ABSOLUTE
    ..\..\..\..\software\filesystems\yaffs2\yaffs_yaffs2.c 0x00000000   Number         0  yaffs_yaffs2.o ABSOLUTE
    ..\..\..\..\software\jpeg-9a\jaricom.c   0x00000000   Number         0  jaricom.o ABSOLUTE
    ..\..\..\..\software\jpeg-9a\jcapimin.c  0x00000000   Number         0  jcapimin.o ABSOLUTE
    ..\..\..\..\software\jpeg-9a\jcapistd.c  0x00000000   Number         0  jcapistd.o ABSOLUTE
    ..\..\..\..\software\jpeg-9a\jcarith.c   0x00000000   Number         0  jcarith.o ABSOLUTE
    ..\..\..\..\software\jpeg-9a\jccoefct.c  0x00000000   Number         0  jccoefct.o ABSOLUTE
    ..\..\..\..\software\jpeg-9a\jccolor.c   0x00000000   Number         0  jccolor.o ABSOLUTE
    ..\..\..\..\software\jpeg-9a\jcdctmgr.c  0x00000000   Number         0  jcdctmgr.o ABSOLUTE
    ..\..\..\..\software\jpeg-9a\jchuff.c    0x00000000   Number         0  jchuff.o ABSOLUTE
    ..\..\..\..\software\jpeg-9a\jcinit.c    0x00000000   Number         0  jcinit.o ABSOLUTE
    ..\..\..\..\software\jpeg-9a\jcmainct.c  0x00000000   Number         0  jcmainct.o ABSOLUTE
    ..\..\..\..\software\jpeg-9a\jcmarker.c  0x00000000   Number         0  jcmarker.o ABSOLUTE
    ..\..\..\..\software\jpeg-9a\jcmaster.c  0x00000000   Number         0  jcmaster.o ABSOLUTE
    ..\..\..\..\software\jpeg-9a\jcomapi.c   0x00000000   Number         0  jcomapi.o ABSOLUTE
    ..\..\..\..\software\jpeg-9a\jcparam.c   0x00000000   Number         0  jcparam.o ABSOLUTE
    ..\..\..\..\software\jpeg-9a\jcprepct.c  0x00000000   Number         0  jcprepct.o ABSOLUTE
    ..\..\..\..\software\jpeg-9a\jcsample.c  0x00000000   Number         0  jcsample.o ABSOLUTE
    ..\..\..\..\software\jpeg-9a\jctrans.c   0x00000000   Number         0  jctrans.o ABSOLUTE
    ..\..\..\..\software\jpeg-9a\jdapimin.c  0x00000000   Number         0  jdapimin.o ABSOLUTE
    ..\..\..\..\software\jpeg-9a\jdapistd.c  0x00000000   Number         0  jdapistd.o ABSOLUTE
    ..\..\..\..\software\jpeg-9a\jdarith.c   0x00000000   Number         0  jdarith.o ABSOLUTE
    ..\..\..\..\software\jpeg-9a\jdatasrc.c  0x00000000   Number         0  jdatasrc.o ABSOLUTE
    ..\..\..\..\software\jpeg-9a\jdcoefct.c  0x00000000   Number         0  jdcoefct.o ABSOLUTE
    ..\..\..\..\software\jpeg-9a\jdcolor.c   0x00000000   Number         0  jdcolor.o ABSOLUTE
    ..\..\..\..\software\jpeg-9a\jddctmgr.c  0x00000000   Number         0  jddctmgr.o ABSOLUTE
    ..\..\..\..\software\jpeg-9a\jdhuff.c    0x00000000   Number         0  jdhuff.o ABSOLUTE
    ..\..\..\..\software\jpeg-9a\jdinput.c   0x00000000   Number         0  jdinput.o ABSOLUTE
    ..\..\..\..\software\jpeg-9a\jdmainct.c  0x00000000   Number         0  jdmainct.o ABSOLUTE
    ..\..\..\..\software\jpeg-9a\jdmarker.c  0x00000000   Number         0  jdmarker.o ABSOLUTE
    ..\..\..\..\software\jpeg-9a\jdmaster.c  0x00000000   Number         0  jdmaster.o ABSOLUTE
    ..\..\..\..\software\jpeg-9a\jdmerge.c   0x00000000   Number         0  jdmerge.o ABSOLUTE
    ..\..\..\..\software\jpeg-9a\jdpostct.c  0x00000000   Number         0  jdpostct.o ABSOLUTE
    ..\..\..\..\software\jpeg-9a\jdsample.c  0x00000000   Number         0  jdsample.o ABSOLUTE
    ..\..\..\..\software\jpeg-9a\jdtrans.c   0x00000000   Number         0  jdtrans.o ABSOLUTE
    ..\..\..\..\software\jpeg-9a\jerror.c    0x00000000   Number         0  jerror.o ABSOLUTE
    ..\..\..\..\software\jpeg-9a\jfdctflt.c  0x00000000   Number         0  jfdctflt.o ABSOLUTE
    ..\..\..\..\software\jpeg-9a\jfdctfst.c  0x00000000   Number         0  jfdctfst.o ABSOLUTE
    ..\..\..\..\software\jpeg-9a\jfdctint.c  0x00000000   Number         0  jfdctint.o ABSOLUTE
    ..\..\..\..\software\jpeg-9a\jidctflt.c  0x00000000   Number         0  jidctflt.o ABSOLUTE
    ..\..\..\..\software\jpeg-9a\jidctfst.c  0x00000000   Number         0  jidctfst.o ABSOLUTE
    ..\..\..\..\software\jpeg-9a\jidctint.c  0x00000000   Number         0  jidctint.o ABSOLUTE
    ..\..\..\..\software\jpeg-9a\jmemmgr.c   0x00000000   Number         0  jmemmgr.o ABSOLUTE
    ..\..\..\..\software\jpeg-9a\jmemnobs.c  0x00000000   Number         0  jmemnobs.o ABSOLUTE
    ..\..\..\..\software\jpeg-9a\jpeg_port.c 0x00000000   Number         0  jpeg_port.o ABSOLUTE
    ..\..\..\..\software\jpeg-9a\jquant1.c   0x00000000   Number         0  jquant1.o ABSOLUTE
    ..\..\..\..\software\jpeg-9a\jquant2.c   0x00000000   Number         0  jquant2.o ABSOLUTE
    ..\..\..\..\software\jpeg-9a\jutils.c    0x00000000   Number         0  jutils.o ABSOLUTE
    ..\..\..\..\software\jpeg-9a\wrbmp.c     0x00000000   Number         0  wrbmp.o ABSOLUTE
    ..\..\..\..\software\kernel\port\cpu.asm 0x00000000   Number         0  cpu.o ABSOLUTE
    ..\..\..\..\software\kernel\port\port.c  0x00000000   Number         0  port.o ABSOLUTE
    ..\..\..\..\software\kernel\port\port_hook.c 0x00000000   Number         0  port_hook.o ABSOLUTE
    ..\..\..\..\software\kernel\port\raw_trace_port.c 0x00000000   Number         0  raw_trace_port.o ABSOLUTE
    ..\..\..\..\software\kernel\port\user_extension.c 0x00000000   Number         0  user_extension.o ABSOLUTE
    ..\..\..\..\software\kernel\raw-os\extension\lib\fifo.c 0x00000000   Number         0  fifo.o ABSOLUTE
    ..\..\..\..\software\kernel\raw-os\extension\lib\string.c 0x00000000   Number         0  string.o ABSOLUTE
    ..\..\..\..\software\kernel\raw-os\extension\mm\heap_4.c 0x00000000   Number         0  heap_4.o ABSOLUTE
    ..\..\..\..\software\kernel\raw-os\extension\mm\raw_malloc.c 0x00000000   Number         0  raw_malloc.o ABSOLUTE
    ..\..\..\..\software\kernel\raw-os\extension\mm\raw_page.c 0x00000000   Number         0  raw_page.o ABSOLUTE
    ..\..\..\..\software\kernel\raw-os\extension\shell\rsh.c 0x00000000   Number         0  rsh.o ABSOLUTE
    ..\..\..\..\software\kernel\raw-os\raw-os.c 0x00000000   Number         0  raw-os.o ABSOLUTE
    ..\..\board_common\uda1380.c             0x00000000   Number         0  uda1380.o ABSOLUTE
    ..\..\examples\libjpeg_display\libjpeg_test.c 0x00000000   Number         0  libjpeg_test.o ABSOLUTE
    ..\..\examples\libjpeg_display\main.c    0x00000000   Number         0  main.o ABSOLUTE
    ..\..\startup_code\keil_startup_lpc18xx43xx.s 0x00000000   Number         0  keil_startup_lpc18xx43xx.o ABSOLUTE
    ..\..\startup_code\sysinit.c             0x00000000   Number         0  sysinit.o ABSOLUTE
    ..\\..\\..\\..\\software\\common\\k9f1g08.c 0x00000000   Number         0  k9f1g08.o ABSOLUTE
    ..\\..\\..\\..\\software\\common\\lpc43xx_gpio.c 0x00000000   Number         0  lpc43xx_gpio.o ABSOLUTE
    ..\\..\\..\\..\\software\\common\\lpc43xx_lcd.c 0x00000000   Number         0  lpc43xx_lcd.o ABSOLUTE
    ..\\..\\..\\..\\software\\common\\lpc43xx_scu.c 0x00000000   Number         0  lpc43xx_scu.o ABSOLUTE
    ..\\..\\..\\..\\software\\common\\lpc43xx_sdram.c 0x00000000   Number         0  lpc43xx_sdram.o ABSOLUTE
    ..\\..\\..\\..\\software\\filesystems\\fatfs_rawos\\diskio.c 0x00000000   Number         0  diskio.o ABSOLUTE
    ..\\..\\board_common\\uda1380.c          0x00000000   Number         0  uda1380.o ABSOLUTE
    ..\\..\\examples\\libjpeg_display\\libjpeg_test.c 0x00000000   Number         0  libjpeg_test.o ABSOLUTE
    ..\\..\\examples\\libjpeg_display\\main.c 0x00000000   Number         0  main.o ABSOLUTE
    ..\\..\\startup_code\\sysinit.c          0x00000000   Number         0  sysinit.o ABSOLUTE
    ..\\chip_common\\fpu_init.c              0x00000000   Number         0  fpu_init.o ABSOLUTE
    ..\chip_common\fpu_init.c                0x00000000   Number         0  fpu_init.o ABSOLUTE
    ..\chip_common\ring_buffer.c             0x00000000   Number         0  ring_buffer.o ABSOLUTE
    board.c                                  0x00000000   Number         0  board.o ABSOLUTE
    board.c                                  0x00000000   Number         0  board.o ABSOLUTE
    board_sysinit.c                          0x00000000   Number         0  board_sysinit.o ABSOLUTE
    board_sysinit.c                          0x00000000   Number         0  board_sysinit.o ABSOLUTE
    chip_18xx_43xx.c                         0x00000000   Number         0  chip_18xx_43xx.o ABSOLUTE
    chip_18xx_43xx.c                         0x00000000   Number         0  chip_18xx_43xx.o ABSOLUTE
    clock_18xx_43xx.c                        0x00000000   Number         0  clock_18xx_43xx.o ABSOLUTE
    clock_18xx_43xx.c                        0x00000000   Number         0  clock_18xx_43xx.o ABSOLUTE
    dc.s                                     0x00000000   Number         0  dc.o ABSOLUTE
    emc_18xx_43xx.c                          0x00000000   Number         0  emc_18xx_43xx.o ABSOLUTE
    emc_18xx_43xx.c                          0x00000000   Number         0  emc_18xx_43xx.o ABSOLUTE
    gpio_18xx_43xx.c                         0x00000000   Number         0  gpio_18xx_43xx.o ABSOLUTE
    gpio_18xx_43xx.c                         0x00000000   Number         0  gpio_18xx_43xx.o ABSOLUTE
    i2c_18xx_43xx.c                          0x00000000   Number         0  i2c_18xx_43xx.o ABSOLUTE
    i2c_18xx_43xx.c                          0x00000000   Number         0  i2c_18xx_43xx.o ABSOLUTE
    i2s_18xx_43xx.c                          0x00000000   Number         0  i2s_18xx_43xx.o ABSOLUTE
    i2s_18xx_43xx.c                          0x00000000   Number         0  i2s_18xx_43xx.o ABSOLUTE
    rgu_18xx_43xx.c                          0x00000000   Number         0  rgu_18xx_43xx.o ABSOLUTE
    rgu_18xx_43xx.c                          0x00000000   Number         0  rgu_18xx_43xx.o ABSOLUTE
    sdif_18xx_43xx.c                         0x00000000   Number         0  sdif_18xx_43xx.o ABSOLUTE
    sdif_18xx_43xx.c                         0x00000000   Number         0  sdif_18xx_43xx.o ABSOLUTE
    sdmmc_18xx_43xx.c                        0x00000000   Number         0  sdmmc_18xx_43xx.o ABSOLUTE
    sdmmc_18xx_43xx.c                        0x00000000   Number         0  sdmmc_18xx_43xx.o ABSOLUTE
    ssp_18xx_43xx.c                          0x00000000   Number         0  ssp_18xx_43xx.o ABSOLUTE
    ssp_18xx_43xx.c                          0x00000000   Number         0  ssp_18xx_43xx.o ABSOLUTE
    sysinit_18xx_43xx.c                      0x00000000   Number         0  sysinit_18xx_43xx.o ABSOLUTE
    sysinit_18xx_43xx.c                      0x00000000   Number         0  sysinit_18xx_43xx.o ABSOLUTE
    uart_18xx_43xx.c                         0x00000000   Number         0  uart_18xx_43xx.o ABSOLUTE
    uart_18xx_43xx.c                         0x00000000   Number         0  uart_18xx_43xx.o ABSOLUTE
    .data                                    0x10000000   Section       88  raw-os.o(.data)
    .data                                    0x10000058   Section        4  raw_malloc.o(.data)
    .data                                    0x1000005c   Section       12  k9f1g08.o(.data)
    .data                                    0x10000068   Section        4  main.o(.data)
    .data                                    0x1000006c   Section        8  libjpeg_test.o(.data)
    .data                                    0x10000074   Section       12  lpc43xx_lcd.o(.data)
    g_lcdHSize                               0x10000074   Data           4  lpc43xx_lcd.o(.data)
    g_lcdVSize                               0x10000078   Data           4  lpc43xx_lcd.o(.data)
    lcd_frame_buffer                         0x1000007c   Data           4  lpc43xx_lcd.o(.data)
    .data                                    0x10000080   Section        4  yaffsfs.o(.data)
    .data                                    0x10000084   Section       24  yaffsfs.o(.data)
    yaffsfs_handlesInitialised               0x10000084   Data           4  yaffsfs.o(.data)
    dev_iterator                             0x10000088   Data           4  yaffsfs.o(.data)
    search_contexts                          0x10000094   Data           8  yaffsfs.o(.data)
    .data                                    0x1000009c   Section        8  yaffs_tagscompat.o(.data)
    init                                     0x1000009c   Data           4  yaffs_tagscompat.o(.data)
    init                                     0x100000a0   Data           4  yaffs_tagscompat.o(.data)
    .data                                    0x100000a4   Section        4  yaffs_verify.o(.data)
    yaffs_free_verification_failures         0x100000a4   Data           4  yaffs_verify.o(.data)
    .data                                    0x100000a8   Section        4  yaffs_osglue.o(.data)
    yaffsfs_lastError                        0x100000a8   Data           4  yaffs_osglue.o(.data)
    .data                                    0x100000ac   Section        4  yaffscfg2k.o(.data)
    start_up_called                          0x100000ac   Data           4  yaffscfg2k.o(.data)
    .data                                    0x100000b0   Section        4  yaffscfg2k.o(.data)
    .data                                    0x100000b4   Section       20  board.o(.data)
    .data                                    0x100000c8   Section        4  chip_18xx_43xx.o(.data)
    .data                                    0x100000cc   Section        8  clock_18xx_43xx.o(.data)
    audio_usb_pll_freq                       0x100000cc   Data           8  clock_18xx_43xx.o(.data)
    .bss                                     0x100000d4   Section     4840  raw-os.o(.bss)
    .bss                                     0x100013c0   Section       72  raw_malloc.o(.bss)
    malloc_macb                              0x100013c0   Data          72  raw_malloc.o(.bss)
    .bss                                     0x10001408   Section       44  raw_page.o(.bss)
    system_page_table                        0x10001408   Data          44  raw_page.o(.bss)
    .bss                                     0x10001434   Section     4364  main.o(.bss)
    fifo_buffer                              0x100024c0   Data         128  main.o(.bss)
    .bss                                     0x10002540   Section      564  libjpeg_test.o(.bss)
    .bss                                     0x10002774   Section     6120  yaffsfs.o(.bss)
    yaffsfs_dsc                              0x10002774   Data        5520  yaffsfs.o(.bss)
    yaffsfs_inode                            0x10003d04   Data         240  yaffsfs.o(.bss)
    yaffsfs_fd                               0x10003df4   Data         240  yaffsfs.o(.bss)
    yaffsfs_handle                           0x10003ee4   Data         120  yaffsfs.o(.bss)
    .bss                                     0x10003f5c   Section       32  yaffs_tagscompat.o(.bss)
    spare_ff                                 0x10003f5c   Data          16  yaffs_tagscompat.o(.bss)
    spare_ff                                 0x10003f6c   Data          16  yaffs_tagscompat.o(.bss)
    .bss                                     0x10003f7c   Section       28  yaffs_osglue.o(.bss)
    mutex_yaffs_obj                          0x10003f7c   Data          28  yaffs_osglue.o(.bss)
    .bss                                     0x10003f98   Section       96  libspace.o(.bss)
    HEAP                                     0x10003ff8   Section      256  keil_startup_lpc18xx43xx.o(HEAP)
    Heap_Mem                                 0x10003ff8   Data         256  keil_startup_lpc18xx43xx.o(HEAP)
    STACK                                    0x100040f8   Section     1536  keil_startup_lpc18xx43xx.o(STACK)
    Stack_Mem                                0x100040f8   Data        1536  keil_startup_lpc18xx43xx.o(STACK)
    __initial_sp                             0x100046f8   Data           0  keil_startup_lpc18xx43xx.o(STACK)
    RESET                                    0x1a000000   Section      276  keil_startup_lpc18xx43xx.o(RESET)
    !!!main                                  0x1a000114   Section        8  __main.o(!!!main)
    !!!scatter                               0x1a00011c   Section       52  __scatter.o(!!!scatter)
    !!handler_copy                           0x1a000150   Section       26  __scatter_copy.o(!!handler_copy)
    !!handler_zi                             0x1a00016c   Section       28  __scatter_zi.o(!!handler_zi)
    .ARM.Collect$$_printf_percent$$00000000  0x1a000188   Section        0  _printf_percent.o(.ARM.Collect$$_printf_percent$$00000000)
    .ARM.Collect$$_printf_percent$$00000001  0x1a000188   Section        6  _printf_n.o(.ARM.Collect$$_printf_percent$$00000001)
    .ARM.Collect$$_printf_percent$$00000002  0x1a00018e   Section        6  _printf_p.o(.ARM.Collect$$_printf_percent$$00000002)
    .ARM.Collect$$_printf_percent$$00000007  0x1a000194   Section       10  _printf_ll.o(.ARM.Collect$$_printf_percent$$00000007)
    .ARM.Collect$$_printf_percent$$00000008  0x1a00019e   Section        6  _printf_i.o(.ARM.Collect$$_printf_percent$$00000008)
    .ARM.Collect$$_printf_percent$$00000009  0x1a0001a4   Section        6  _printf_d.o(.ARM.Collect$$_printf_percent$$00000009)
    .ARM.Collect$$_printf_percent$$0000000A  0x1a0001aa   Section        6  _printf_u.o(.ARM.Collect$$_printf_percent$$0000000A)
    .ARM.Collect$$_printf_percent$$0000000B  0x1a0001b0   Section        6  _printf_o.o(.ARM.Collect$$_printf_percent$$0000000B)
    .ARM.Collect$$_printf_percent$$0000000C  0x1a0001b6   Section        6  _printf_x.o(.ARM.Collect$$_printf_percent$$0000000C)
    .ARM.Collect$$_printf_percent$$0000000E  0x1a0001bc   Section        6  _printf_lld.o(.ARM.Collect$$_printf_percent$$0000000E)
    .ARM.Collect$$_printf_percent$$00000012  0x1a0001c2   Section       10  _printf_l.o(.ARM.Collect$$_printf_percent$$00000012)
    .ARM.Collect$$_printf_percent$$00000013  0x1a0001cc   Section        6  _printf_c.o(.ARM.Collect$$_printf_percent$$00000013)
    .ARM.Collect$$_printf_percent$$00000014  0x1a0001d2   Section        6  _printf_s.o(.ARM.Collect$$_printf_percent$$00000014)
    .ARM.Collect$$_printf_percent$$00000015  0x1a0001d8   Section        6  _printf_lc.o(.ARM.Collect$$_printf_percent$$00000015)
    .ARM.Collect$$_printf_percent$$00000017  0x1a0001de   Section        4  _printf_percent_end.o(.ARM.Collect$$_printf_percent$$00000017)
    .ARM.Collect$$libinit$$00000000          0x1a0001e2   Section        2  libinit.o(.ARM.Collect$$libinit$$00000000)
    .ARM.Collect$$libinit$$00000001          0x1a0001e4   Section        4  libinit2.o(.ARM.Collect$$libinit$$00000001)
    .ARM.Collect$$libinit$$00000004          0x1a0001e8   Section        0  libinit2.o(.ARM.Collect$$libinit$$00000004)
    .ARM.Collect$$libinit$$0000000A          0x1a0001e8   Section        0  libinit2.o(.ARM.Collect$$libinit$$0000000A)
    .ARM.Collect$$libinit$$0000000C          0x1a0001e8   Section        0  libinit2.o(.ARM.Collect$$libinit$$0000000C)
    .ARM.Collect$$libinit$$0000000E          0x1a0001e8   Section        0  libinit2.o(.ARM.Collect$$libinit$$0000000E)
    .ARM.Collect$$libinit$$0000000F          0x1a0001e8   Section        6  libinit2.o(.ARM.Collect$$libinit$$0000000F)
    .ARM.Collect$$libinit$$00000011          0x1a0001ee   Section        0  libinit2.o(.ARM.Collect$$libinit$$00000011)
    .ARM.Collect$$libinit$$00000012          0x1a0001ee   Section       12  libinit2.o(.ARM.Collect$$libinit$$00000012)
    .ARM.Collect$$libinit$$00000013          0x1a0001fa   Section        0  libinit2.o(.ARM.Collect$$libinit$$00000013)
    .ARM.Collect$$libinit$$00000015          0x1a0001fa   Section        0  libinit2.o(.ARM.Collect$$libinit$$00000015)
    .ARM.Collect$$libinit$$00000017          0x1a0001fa   Section        0  libinit2.o(.ARM.Collect$$libinit$$00000017)
    .ARM.Collect$$libinit$$00000019          0x1a0001fa   Section        0  libinit2.o(.ARM.Collect$$libinit$$00000019)
    .ARM.Collect$$libinit$$0000001B          0x1a0001fa   Section        0  libinit2.o(.ARM.Collect$$libinit$$0000001B)
    .ARM.Collect$$libinit$$0000001D          0x1a0001fa   Section        0  libinit2.o(.ARM.Collect$$libinit$$0000001D)
    .ARM.Collect$$libinit$$0000001F          0x1a0001fa   Section        0  libinit2.o(.ARM.Collect$$libinit$$0000001F)
    .ARM.Collect$$libinit$$00000021          0x1a0001fa   Section        0  libinit2.o(.ARM.Collect$$libinit$$00000021)
    .ARM.Collect$$libinit$$00000023          0x1a0001fa   Section        0  libinit2.o(.ARM.Collect$$libinit$$00000023)
    .ARM.Collect$$libinit$$00000025          0x1a0001fa   Section        0  libinit2.o(.ARM.Collect$$libinit$$00000025)
    .ARM.Collect$$libinit$$0000002C          0x1a0001fa   Section        0  libinit2.o(.ARM.Collect$$libinit$$0000002C)
    .ARM.Collect$$libinit$$0000002E          0x1a0001fa   Section        0  libinit2.o(.ARM.Collect$$libinit$$0000002E)
    .ARM.Collect$$libinit$$00000030          0x1a0001fa   Section        0  libinit2.o(.ARM.Collect$$libinit$$00000030)
    .ARM.Collect$$libinit$$00000032          0x1a0001fa   Section        0  libinit2.o(.ARM.Collect$$libinit$$00000032)
    .ARM.Collect$$libinit$$00000033          0x1a0001fa   Section        2  libinit2.o(.ARM.Collect$$libinit$$00000033)
    .ARM.Collect$$libshutdown$$00000000      0x1a0001fc   Section        2  libshutdown.o(.ARM.Collect$$libshutdown$$00000000)
    .ARM.Collect$$libshutdown$$00000003      0x1a0001fe   Section        0  libshutdown2.o(.ARM.Collect$$libshutdown$$00000003)
    .ARM.Collect$$libshutdown$$00000006      0x1a0001fe   Section        0  libshutdown2.o(.ARM.Collect$$libshutdown$$00000006)
    .ARM.Collect$$libshutdown$$00000009      0x1a0001fe   Section        0  libshutdown2.o(.ARM.Collect$$libshutdown$$00000009)
    .ARM.Collect$$libshutdown$$0000000B      0x1a0001fe   Section        0  libshutdown2.o(.ARM.Collect$$libshutdown$$0000000B)
    .ARM.Collect$$libshutdown$$0000000E      0x1a0001fe   Section        0  libshutdown2.o(.ARM.Collect$$libshutdown$$0000000E)
    .ARM.Collect$$libshutdown$$0000000F      0x1a0001fe   Section        2  libshutdown2.o(.ARM.Collect$$libshutdown$$0000000F)
    .ARM.Collect$$rtentry$$00000000          0x1a000200   Section        0  __rtentry.o(.ARM.Collect$$rtentry$$00000000)
    .ARM.Collect$$rtentry$$00000002          0x1a000200   Section        0  __rtentry2.o(.ARM.Collect$$rtentry$$00000002)
    .ARM.Collect$$rtentry$$00000004          0x1a000200   Section        6  __rtentry4.o(.ARM.Collect$$rtentry$$00000004)
    .ARM.Collect$$rtentry$$00000009          0x1a000206   Section        0  __rtentry2.o(.ARM.Collect$$rtentry$$00000009)
    .ARM.Collect$$rtentry$$0000000A          0x1a000206   Section        4  __rtentry2.o(.ARM.Collect$$rtentry$$0000000A)
    .ARM.Collect$$rtentry$$0000000C          0x1a00020a   Section        0  __rtentry2.o(.ARM.Collect$$rtentry$$0000000C)
    .ARM.Collect$$rtentry$$0000000D          0x1a00020a   Section        8  __rtentry2.o(.ARM.Collect$$rtentry$$0000000D)
    .ARM.Collect$$rtexit$$00000000           0x1a000212   Section        2  rtexit.o(.ARM.Collect$$rtexit$$00000000)
    .ARM.Collect$$rtexit$$00000002           0x1a000214   Section        0  rtexit2.o(.ARM.Collect$$rtexit$$00000002)
    .ARM.Collect$$rtexit$$00000003           0x1a000214   Section        4  rtexit2.o(.ARM.Collect$$rtexit$$00000003)
    .ARM.Collect$$rtexit$$00000004           0x1a000218   Section        6  rtexit2.o(.ARM.Collect$$rtexit$$00000004)
    .text                                    0x1a000220   Section        0  raw-os.o(.text)
    release_mutex                            0x1a000521   Thumb Code    88  raw-os.o(.text)
    tick_task_process                        0x1a000859   Thumb Code    28  raw-os.o(.text)
    pend_task_wake_up                        0x1a000a5d   Thumb Code    90  raw-os.o(.text)
    int_msg_handler                          0x1a000e8b   Thumb Code   116  raw-os.o(.text)
    task_0_post                              0x1a000eff   Thumb Code   120  raw-os.o(.text)
    task_0_tick_handler                      0x1a0010b1   Thumb Code    28  raw-os.o(.text)
    task_0_process                           0x1a0010cd   Thumb Code   124  raw-os.o(.text)
    internal_raw_mq_send                     0x1a001fc9   Thumb Code   214  raw-os.o(.text)
    is_list_empty                            0x1a002c13   Thumb Code    14  raw-os.o(.text)
    list_insert                              0x1a002c21   Thumb Code    14  raw-os.o(.text)
    list_delete                              0x1a002c2f   Thumb Code    12  raw-os.o(.text)
    add_to_priority_list                     0x1a002c3b   Thumb Code    28  raw-os.o(.text)
    bit_set                                  0x1a002c57   Thumb Code    20  raw-os.o(.text)
    timer_list_remove                        0x1a002c6b   Thumb Code    22  raw-os.o(.text)
    timer_list_priority_insert               0x1a002c81   Thumb Code    32  raw-os.o(.text)
    raw_byte_pool_search                     0x1a002ca1   Thumb Code   190  raw-os.o(.text)
    .text                                    0x1a002d70   Section        0  fifo.o(.text)
    internal_fifo_out_peek                   0x1a002e0f   Thumb Code    62  fifo.o(.text)
    .text                                    0x1a002ee4   Section        0  raw_malloc.o(.text)
    chkalloc_test                            0x1a002ee5   Thumb Code   102  raw_malloc.o(.text)
    removeFreeQue                            0x1a002fcf   Thumb Code    68  raw_malloc.o(.text)
    allocate                                 0x1a003013   Thumb Code    58  raw_malloc.o(.text)
    _mem_malloc                              0x1a00304d   Thumb Code   172  raw_malloc.o(.text)
    _mem_free                                0x1a0030f9   Thumb Code   134  raw_malloc.o(.text)
    list_insert                              0x1a00328b   Thumb Code    14  raw_malloc.o(.text)
    insertAreaQue                            0x1a003299   Thumb Code    22  raw_malloc.o(.text)
    removeAreaQue                            0x1a0032af   Thumb Code    24  raw_malloc.o(.text)
    _mem_realloc                             0x1a0032c7   Thumb Code   206  raw_malloc.o(.text)
    .text                                    0x1a003394   Section        0  raw_page.o(.text)
    remove_free_page                         0x1a003395   Thumb Code    52  raw_page.o(.text)
    search_free_page                         0x1a0033c9   Thumb Code    50  raw_page.o(.text)
    add_page_to_pool                         0x1a0033fb   Thumb Code   168  raw_page.o(.text)
    set_page_attr                            0x1a00359b   Thumb Code    20  raw_page.o(.text)
    get_pages                                0x1a0035af   Thumb Code    90  raw_page.o(.text)
    free_pages                               0x1a003609   Thumb Code   178  raw_page.o(.text)
    set_page_used                            0x1a0036bb   Thumb Code   142  raw_page.o(.text)
    .text                                    0x1a003768   Section      164  cpu.o(.text)
    $v0                                      0x1a003768   Number         0  cpu.o(.text)
    .text                                    0x1a00380c   Section        0  port.o(.text)
    .text                                    0x1a003950   Section        0  port_hook.o(.text)
    .text                                    0x1a003962   Section        0  user_extension.o(.text)
    .text                                    0x1a0039ec   Section       68  keil_startup_lpc18xx43xx.o(.text)
    $v0                                      0x1a0039ec   Number         0  keil_startup_lpc18xx43xx.o(.text)
    .text                                    0x1a003a30   Section        0  sysinit.o(.text)
    .text                                    0x1a003a4c   Section        0  lpc43xx_scu.o(.text)
    .text                                    0x1a003a60   Section        0  lpc43xx_sdram.o(.text)
    .text                                    0x1a003ebc   Section        0  k9f1g08.o(.text)
    k9f_state_read                           0x1a003f3f   Thumb Code    36  k9f1g08.o(.text)
    k9f_busy_wait                            0x1a00421b   Thumb Code    22  k9f1g08.o(.text)
    .text                                    0x1a004238   Section        0  lpc43xx_gpio.o(.text)
    .text                                    0x1a004278   Section        0  yaffs_port_nand_drv.o(.text)
    yaffs_nand_drv_WriteChunk                0x1a004279   Thumb Code   104  yaffs_port_nand_drv.o(.text)
    yaffs_nand_drv_ReadChunk                 0x1a0042e1   Thumb Code   106  yaffs_port_nand_drv.o(.text)
    yaffs_nand_drv_EraseBlock                0x1a00434b   Thumb Code    16  yaffs_port_nand_drv.o(.text)
    yaffs_nand_drv_MarkBad                   0x1a00435b   Thumb Code    22  yaffs_port_nand_drv.o(.text)
    yaffs_nand_drv_CheckBad                  0x1a004371   Thumb Code    36  yaffs_port_nand_drv.o(.text)
    yaffs_nand_drv_Initialise                0x1a004395   Thumb Code     4  yaffs_port_nand_drv.o(.text)
    yaffs_nand_drv_Deinitialise              0x1a004399   Thumb Code     4  yaffs_port_nand_drv.o(.text)
    .text                                    0x1a0043dc   Section        0  main.o(.text)
    NVIC_EnableIRQ                           0x1a004591   Thumb Code    22  main.o(.text)
    NVIC_SetPriority                         0x1a0045a7   Thumb Code    32  main.o(.text)
    .text                                    0x1a0045ec   Section        0  libjpeg_test.o(.text)
    .text                                    0x1a004748   Section        0  lpc43xx_lcd.o(.text)
    .text                                    0x1a004a78   Section        0  bmp_draw.o(.text)
    read_16                                  0x1a004b5d   Thumb Code    20  bmp_draw.o(.text)
    read_32                                  0x1a004b71   Thumb Code    36  bmp_draw.o(.text)
    _DrawBitmap_24bpp                        0x1a004b95   Thumb Code   154  bmp_draw.o(.text)
    .text                                    0x1a004c2e   Section        0  yaffs_attribs.o(.text)
    .text                                    0x1a004d54   Section        0  yaffs_hweight.o(.text)
    .text                                    0x1a004d7c   Section        0  yaffs_qsort.o(.text)
    swapfunc                                 0x1a004d7d   Thumb Code    44  yaffs_qsort.o(.text)
    med3                                     0x1a004da9   Thumb Code    70  yaffs_qsort.o(.text)
    .text                                    0x1a00504c   Section        0  yaffsfs.o(.text)
    yaffsfs_HandleToObject                   0x1a005059   Thumb Code    48  yaffsfs.o(.text)
    yaffsfs_PutInode                         0x1a005089   Thumb Code    44  yaffsfs.o(.text)
    yaffsfs_NewHandle                        0x1a0050b5   Thumb Code    50  yaffsfs.o(.text)
    yaffsfs_closedir_no_lock                 0x1a0050e7   Thumb Code    56  yaffsfs.o(.text)
    yaffsfs_PutHandle                        0x1a00511f   Thumb Code   110  yaffsfs.o(.text)
    yaffsfs_BreakDeviceHandles               0x1a00518d   Thumb Code   102  yaffsfs.o(.text)
    yaffsfs_alt_dir_path                     0x1a0051f3   Thumb Code    86  yaffsfs.o(.text)
    yaffsfs_FindDevice                       0x1a005249   Thumb Code   184  yaffsfs.o(.text)
    yaffsfs_CheckPath                        0x1a005301   Thumb Code    46  yaffsfs.o(.text)
    yaffsfs_DoFindDirectory                  0x1a00532f   Thumb Code   220  yaffsfs.o(.text)
    yaffsfs_FindObject                       0x1a00540b   Thumb Code    78  yaffsfs.o(.text)
    yaffsfs_FollowLink                       0x1a005459   Thumb Code    92  yaffsfs.o(.text)
    yaffsfs_SetDirRewound                    0x1a005515   Thumb Code    60  yaffsfs.o(.text)
    yaffsfs_opendir_reldir_no_lock           0x1a005551   Thumb Code   260  yaffsfs.o(.text)
    yaffs_Dofsync                            0x1a005a7b   Thumb Code    64  yaffsfs.o(.text)
    yaffsfs_do_read                          0x1a005b1b   Thumb Code   316  yaffsfs.o(.text)
    yaffsfs_do_write                         0x1a005c6f   Thumb Code   342  yaffsfs.o(.text)
    yaffsfs_DoUnlink_reldir                  0x1a005fb9   Thumb Code   258  yaffsfs.o(.text)
    yaffsfs_DoStat                           0x1a0062bf   Thumb Code   138  yaffsfs.o(.text)
    yaffsfs_DoStatOrLStat_reldir             0x1a006349   Thumb Code   172  yaffsfs.o(.text)
    yaffsfs_DoUtime                          0x1a00647d   Thumb Code    84  yaffsfs.o(.text)
    yaffs_do_setxattr_reldir                 0x1a0065a1   Thumb Code   208  yaffsfs.o(.text)
    yaffs_do_getxattr_reldir                 0x1a006777   Thumb Code   204  yaffsfs.o(.text)
    yaffs_do_listxattr_reldir                0x1a00692d   Thumb Code   186  yaffsfs.o(.text)
    yaffs_do_removexattr_reldir              0x1a006a9b   Thumb Code   184  yaffsfs.o(.text)
    yaffsfs_DoChMod                          0x1a006be5   Thumb Code    46  yaffsfs.o(.text)
    yaffsfs_bg_gc_common                     0x1a007119   Thumb Code   112  yaffsfs.o(.text)
    yaffsfs_DirAdvance                       0x1a007533   Thumb Code    68  yaffsfs.o(.text)
    yaffsfs_RemoveObjectCallback             0x1a007577   Thumb Code    40  yaffsfs.o(.text)
    list_empty                               0x1a007b29   Thumb Code    14  yaffsfs.o(.text)
    yaffsfs_InitHandles                      0x1a007b37   Thumb Code    92  yaffsfs.o(.text)
    yaffsfs_HandleToPointer                  0x1a007b93   Thumb Code    16  yaffsfs.o(.text)
    yaffsfs_HandleToFileDes                  0x1a007ba3   Thumb Code    42  yaffsfs.o(.text)
    yaffsfs_FindInodeIdForObject             0x1a007bcd   Thumb Code    42  yaffsfs.o(.text)
    yaffsfs_GetHandle                        0x1a007bf7   Thumb Code    30  yaffsfs.o(.text)
    yaffsfs_IsPathDivider                    0x1a007c15   Thumb Code    24  yaffsfs.o(.text)
    yaffsfs_FindMountPoint                   0x1a007c2d   Thumb Code    32  yaffsfs.o(.text)
    yaffsfs_FindDirectory                    0x1a007c4d   Thumb Code    16  yaffsfs.o(.text)
    yaffsfs_TooManyObjects                   0x1a007c5d   Thumb Code    26  yaffsfs.o(.text)
    yaffsfs_IsDevBusy                        0x1a007c77   Thumb Code    34  yaffsfs.o(.text)
    yaffsfs_rewinddir_no_lock                0x1a007c99   Thumb Code    30  yaffsfs.o(.text)
    .text                                    0x1a007ccc   Section        0  yaffs_allocator.o(.text)
    yaffs_create_tnodes                      0x1a007ccd   Thumb Code   164  yaffs_allocator.o(.text)
    yaffs_create_free_objs                   0x1a007dcb   Thumb Code   142  yaffs_allocator.o(.text)
    list_empty                               0x1a007f69   Thumb Code    14  yaffs_allocator.o(.text)
    yaffs_deinit_raw_objs                    0x1a007f77   Thumb Code    58  yaffs_allocator.o(.text)
    .text                                    0x1a0080c8   Section        0  yaffs_bitmap.o(.text)
    yaffs_block_bits                         0x1a0080c9   Thumb Code    64  yaffs_bitmap.o(.text)
    .text                                    0x1a0082cc   Section        0  yaffs_checkptrw.o(.text)
    yaffs_get_block_info                     0x1a0082cd   Thumb Code    60  yaffs_checkptrw.o(.text)
    yaffs_checkpt_erase                      0x1a008309   Thumb Code   182  yaffs_checkptrw.o(.text)
    yaffs2_checkpt_find_block                0x1a0083bf   Thumb Code   212  yaffs_checkptrw.o(.text)
    yaffs2_checkpt_flush_buffer              0x1a00857b   Thumb Code   224  yaffs_checkptrw.o(.text)
    yaffs2_checkpt_init_chunk_hdr            0x1a008a8b   Thumb Code    36  yaffs_checkptrw.o(.text)
    yaffs2_checkpt_find_erased_block         0x1a008aaf   Thumb Code   134  yaffs_checkptrw.o(.text)
    .text                                    0x1a008bd0   Section        0  yaffs_ecc.o(.text)
    .text                                    0x1a008e4c   Section        0  yaffs_guts.o(.text)
    yaffs_get_block_info                     0x1a008e4d   Thumb Code    60  yaffs_guts.o(.text)
    yaffs_retire_block                       0x1a008fd3   Thumb Code   184  yaffs_guts.o(.text)
    yaffs_check_chunk_erased                 0x1a0090a1   Thumb Code    86  yaffs_guts.o(.text)
    yaffs_find_alloc_block                   0x1a00956d   Thumb Code   178  yaffs_guts.o(.text)
    yaffs_alloc_chunk                        0x1a00961f   Thumb Code   200  yaffs_guts.o(.text)
    yaffs_write_new_chunk                    0x1a0096e7   Thumb Code   758  yaffs_guts.o(.text)
    yaffs_fix_null_name                      0x1a0099dd   Thumb Code    88  yaffs_guts.o(.text)
    yaffs_load_tnode_0                       0x1a009aaf   Thumb Code    86  yaffs_guts.o(.text)
    yaffs_find_chunk_in_group                0x1a009c59   Thumb Code   102  yaffs_guts.o(.text)
    yaffs_soft_del_worker                    0x1a009eed   Thumb Code   192  yaffs_guts.o(.text)
    yaffs_remove_obj_from_dir                0x1a009fad   Thumb Code    50  yaffs_guts.o(.text)
    yaffs_check_obj_details_loaded           0x1a00a0c3   Thumb Code   100  yaffs_guts.o(.text)
    yaffs_free_obj                           0x1a00a127   Thumb Code   170  yaffs_guts.o(.text)
    yaffs_invalidate_whole_cache             0x1a00a1d1   Thumb Code    46  yaffs_guts.o(.text)
    yaffs_generic_obj_del                    0x1a00a1ff   Thumb Code    70  yaffs_guts.o(.text)
    yaffs_gc_process_chunk                   0x1a00a343   Thumb Code   392  yaffs_guts.o(.text)
    yaffs_gc_block                           0x1a00a4cb   Thumb Code   428  yaffs_guts.o(.text)
    yaffs_find_gc_block                      0x1a00a677   Thumb Code   940  yaffs_guts.o(.text)
    yaffs_check_gc                           0x1a00aa23   Thumb Code   328  yaffs_guts.o(.text)
    yaffs_change_obj_name                    0x1a00afcb   Thumb Code   182  yaffs_guts.o(.text)
    yaffs_wr_data_obj                        0x1a00b081   Thumb Code   186  yaffs_guts.o(.text)
    yaffs_flush_file_cache                   0x1a00b13b   Thumb Code   146  yaffs_guts.o(.text)
    yaffs_grab_chunk_worker                  0x1a00b20f   Thumb Code    50  yaffs_guts.o(.text)
    yaffs_grab_chunk_cache                   0x1a00b241   Thumb Code   360  yaffs_guts.o(.text)
    yaffs_find_chunk_cache                   0x1a00b3a9   Thumb Code    76  yaffs_guts.o(.text)
    yaffs_use_cache                          0x1a00b3f5   Thumb Code    74  yaffs_guts.o(.text)
    yaffs_soft_del_file                      0x1a00b44b   Thumb Code    88  yaffs_guts.o(.text)
    yaffs_prune_worker                       0x1a00b4a3   Thumb Code   112  yaffs_guts.o(.text)
    yaffs_new_obj                            0x1a00b513   Thumb Code   174  yaffs_guts.o(.text)
    yaffs_create_fake_dir                    0x1a00b5c1   Thumb Code    38  yaffs_guts.o(.text)
    yaffs_init_tnodes_and_objs               0x1a00b5e7   Thumb Code    48  yaffs_guts.o(.text)
    yaffs_update_parent                      0x1a00b637   Thumb Code    94  yaffs_guts.o(.text)
    yaffs_rd_data_obj                        0x1a00b70b   Thumb Code    60  yaffs_guts.o(.text)
    yaffs_prune_chunks                       0x1a00b747   Thumb Code   426  yaffs_guts.o(.text)
    yaffs_del_file                           0x1a00ba07   Thumb Code   118  yaffs_guts.o(.text)
    yaffs_create_obj                         0x1a00baed   Thumb Code   224  yaffs_guts.o(.text)
    yaffs_deinit_blocks                      0x1a00bd0d   Thumb Code    68  yaffs_guts.o(.text)
    yaffs_init_blocks                        0x1a00bd51   Thumb Code   182  yaffs_guts.o(.text)
    yaffs_do_xattrib_mod                     0x1a00be3f   Thumb Code    56  yaffs_guts.o(.text)
    yaffs_do_xattrib_fetch                   0x1a00be77   Thumb Code   174  yaffs_guts.o(.text)
    yaffs_unlink_worker                      0x1a00c38f   Thumb Code   232  yaffs_guts.o(.text)
    yaffs_fix_hanging_objs                   0x1a00c5d5   Thumb Code   154  yaffs_guts.o(.text)
    yaffs_del_dir_contents                   0x1a00c66f   Thumb Code    82  yaffs_guts.o(.text)
    yaffs_create_initial_dir                 0x1a00c76b   Thumb Code   122  yaffs_guts.o(.text)
    list_add                                 0x1a00cfc7   Thumb Code    12  yaffs_guts.o(.text)
    list_del_init                            0x1a00cfd3   Thumb Code    14  yaffs_guts.o(.text)
    list_empty                               0x1a00cfe1   Thumb Code    14  yaffs_guts.o(.text)
    yaffs_hash_fn                            0x1a00cfef   Thumb Code    20  yaffs_guts.o(.text)
    yaffs_get_erased_chunks                  0x1a00d003   Thumb Code    28  yaffs_guts.o(.text)
    yaffs_calc_name_sum                      0x1a00d01f   Thumb Code    38  yaffs_guts.o(.text)
    yaffs_free_tnode                         0x1a00d045   Thumb Code    26  yaffs_guts.o(.text)
    yaffs_deinit_tnodes_and_objs             0x1a00d05f   Thumb Code    20  yaffs_guts.o(.text)
    yaffs_alloc_empty_obj                    0x1a00d073   Thumb Code   118  yaffs_guts.o(.text)
    yaffs_new_obj_id                         0x1a00d0e9   Thumb Code   102  yaffs_guts.o(.text)
    yaffs_del_link                           0x1a00d14f   Thumb Code    20  yaffs_guts.o(.text)
    yaffs_del_symlink                        0x1a00d163   Thumb Code    24  yaffs_guts.o(.text)
    yaffs_del_dir                            0x1a00d17b   Thumb Code    24  yaffs_guts.o(.text)
    yaffs_unlink_file_if_needed              0x1a00d193   Thumb Code   110  yaffs_guts.o(.text)
    yaffs_unlink_obj                         0x1a00d201   Thumb Code    16  yaffs_guts.o(.text)
    yaffs_has_null_parent                    0x1a00d211   Thumb Code    32  yaffs_guts.o(.text)
    .text                                    0x1a00d2dc   Section        0  yaffs_nameval.o(.text)
    nval_find                                0x1a00d2dd   Thumb Code    96  yaffs_nameval.o(.text)
    nval_used                                0x1a00d50b   Thumb Code    38  yaffs_nameval.o(.text)
    .text                                    0x1a00d530   Section        0  yaffs_nand.o(.text)
    .text                                    0x1a00d784   Section        0  yaffs_packedtags2.o(.text)
    yaffs_dump_packed_tags2_tags_only        0x1a00d785   Thumb Code    26  yaffs_packedtags2.o(.text)
    yaffs_dump_tags2                         0x1a00d79f   Thumb Code    52  yaffs_packedtags2.o(.text)
    .text                                    0x1a00d97c   Section        0  yaffs_summary.o(.text)
    yaffs_get_block_info                     0x1a00d97d   Thumb Code    60  yaffs_summary.o(.text)
    yaffs_summary_write                      0x1a00da33   Thumb Code   252  yaffs_summary.o(.text)
    yaffs_summary_clear                      0x1a00dd35   Thumb Code   160  yaffs_summary.o(.text)
    yaffs_summary_sum                        0x1a00ddd5   Thumb Code    34  yaffs_summary.o(.text)
    .text                                    0x1a00ddf8   Section        0  yaffs_tagscompat.o(.text)
    yaffs_rd_chunk_nand                      0x1a00de73   Thumb Code   298  yaffs_tagscompat.o(.text)
    yaffs_tags_compat_wr                     0x1a00df9d   Thumb Code   214  yaffs_tagscompat.o(.text)
    yaffs_tags_compat_rd                     0x1a00e073   Thumb Code   280  yaffs_tagscompat.o(.text)
    yaffs_tags_compat_mark_bad               0x1a00e18b   Thumb Code    58  yaffs_tagscompat.o(.text)
    yaffs_tags_compat_query_block            0x1a00e1c5   Thumb Code   368  yaffs_tagscompat.o(.text)
    yaffs_wr_nand                            0x1a00e36f   Thumb Code    20  yaffs_tagscompat.o(.text)
    yaffs_handle_rd_data_error               0x1a00e383   Thumb Code   102  yaffs_tagscompat.o(.text)
    .text                                    0x1a00e4ac   Section        0  yaffs_tagsmarshall.o(.text)
    yaffs_tags_marshall_write                0x1a00e4ad   Thumb Code   124  yaffs_tagsmarshall.o(.text)
    yaffs_tags_marshall_read                 0x1a00e529   Thumb Code   220  yaffs_tagsmarshall.o(.text)
    yaffs_tags_marshall_query_block          0x1a00e605   Thumb Code   136  yaffs_tagsmarshall.o(.text)
    yaffs_tags_marshall_mark_bad             0x1a00e68d   Thumb Code     6  yaffs_tagsmarshall.o(.text)
    .text                                    0x1a00e80c   Section        0  yaffs_verify.o(.text)
    yaffs_skip_nand_verification             0x1a00f267   Thumb Code    12  yaffs_verify.o(.text)
    .text                                    0x1a00f480   Section        0  yaffs_yaffs1.o(.text)
    .text                                    0x1a00fabc   Section        0  yaffs_yaffs2.o(.text)
    yaffs2_wr_checkpt_validity_marker        0x1a00fc83   Thumb Code    46  yaffs_yaffs2.o(.text)
    yaffs2_rd_checkpt_validity_marker        0x1a00fcb1   Thumb Code    76  yaffs_yaffs2.o(.text)
    yaffs2_checkpt_obj_to_obj                0x1a00fcfd   Thumb Code   224  yaffs_yaffs2.o(.text)
    yaffs2_checkpt_tnode_worker              0x1a00fddd   Thumb Code   112  yaffs_yaffs2.o(.text)
    yaffs2_rd_checkpt_tnodes                 0x1a00fe4d   Thumb Code   138  yaffs_yaffs2.o(.text)
    yaffs2_wr_checkpt_objs                   0x1a00fed7   Thumb Code   318  yaffs_yaffs2.o(.text)
    yaffs2_rd_checkpt_objs                   0x1a010015   Thumb Code   190  yaffs_yaffs2.o(.text)
    yaffs2_wr_checkpt_data                   0x1a0100d3   Thumb Code   204  yaffs_yaffs2.o(.text)
    yaffs2_rd_checkpt_data                   0x1a01019f   Thumb Code   230  yaffs_yaffs2.o(.text)
    yaffs2_ybicmp                            0x1a010671   Thumb Code    20  yaffs_yaffs2.o(.text)
    yaffs2_scan_chunk                        0x1a010685   Thumb Code  1380  yaffs_yaffs2.o(.text)
    yaffs2_wr_checkpt_dev                    0x1a010ed9   Thumb Code   156  yaffs_yaffs2.o(.text)
    yaffs2_rd_checkpt_dev                    0x1a010f75   Thumb Code   644  yaffs_yaffs2.o(.text)
    yaffs2_obj_checkpt_obj                   0x1a0111f9   Thumb Code   114  yaffs_yaffs2.o(.text)
    .text                                    0x1a01126c   Section        0  yaffs_osglue.o(.text)
    .text                                    0x1a0112f0   Section        0  yaffscfg2k.o(.text)
    .text                                    0x1a01132c   Section        0  yaffs_startup.o(.text)
    .text                                    0x1a011394   Section        0  jdarith.o(.text)
    get_byte                                 0x1a011395   Thumb Code    48  jdarith.o(.text)
    arith_decode                             0x1a0113c5   Thumb Code   198  jdarith.o(.text)
    process_restart                          0x1a01148b   Thumb Code   154  jdarith.o(.text)
    decode_mcu_DC_first                      0x1a011525   Thumb Code   324  jdarith.o(.text)
    decode_mcu_AC_first                      0x1a011669   Thumb Code   302  jdarith.o(.text)
    decode_mcu_DC_refine                     0x1a011797   Thumb Code    84  jdarith.o(.text)
    decode_mcu_AC_refine                     0x1a0117eb   Thumb Code   268  jdarith.o(.text)
    decode_mcu                               0x1a0118f7   Thumb Code   532  jdarith.o(.text)
    start_pass                               0x1a011b0b   Thumb Code   584  jdarith.o(.text)
    finish_pass                              0x1a011d53   Thumb Code     2  jdarith.o(.text)
    .text                                    0x1a011ddc   Section        0  jdmaster.o(.text)
    use_merged_upsample                      0x1a011ddd   Thumb Code   152  jdmaster.o(.text)
    master_selection                         0x1a011fc7   Thumb Code   516  jdmaster.o(.text)
    prepare_for_output_pass                  0x1a0121cb   Thumb Code   278  jdmaster.o(.text)
    finish_output_pass                       0x1a0122e1   Thumb Code    28  jdmaster.o(.text)
    .text                                    0x1a012384   Section        0  jdinput.o(.text)
    initial_setup                            0x1a012615   Thumb Code   668  jdinput.o(.text)
    per_scan_setup                           0x1a0128b1   Thumb Code   276  jdinput.o(.text)
    start_input_pass                         0x1a0129c5   Thumb Code   138  jdinput.o(.text)
    consume_markers                          0x1a012a4f   Thumb Code   186  jdinput.o(.text)
    finish_input_pass                        0x1a012b09   Thumb Code    24  jdinput.o(.text)
    reset_input_controller                   0x1a012b21   Thumb Code    46  jdinput.o(.text)
    .text                                    0x1a012b90   Section        0  jdmarker.o(.text)
    get_sof                                  0x1a012b91   Thumb Code   592  jdmarker.o(.text)
    get_sos                                  0x1a012de1   Thumb Code   582  jdmarker.o(.text)
    get_dac                                  0x1a013027   Thumb Code   260  jdmarker.o(.text)
    get_dht                                  0x1a01312b   Thumb Code   530  jdmarker.o(.text)
    get_dqt                                  0x1a01333d   Thumb Code   528  jdmarker.o(.text)
    get_lse                                  0x1a01354d   Thumb Code   826  jdmarker.o(.text)
    examine_app0                             0x1a013887   Thumb Code   342  jdmarker.o(.text)
    examine_app14                            0x1a0139dd   Thumb Code   124  jdmarker.o(.text)
    get_interesting_appn                     0x1a013a59   Thumb Code   226  jdmarker.o(.text)
    save_marker                              0x1a013b3b   Thumb Code   416  jdmarker.o(.text)
    skip_variable                            0x1a013cdb   Thumb Code   114  jdmarker.o(.text)
    next_marker                              0x1a013d4d   Thumb Code   166  jdmarker.o(.text)
    read_markers                             0x1a013df3   Thumb Code   408  jdmarker.o(.text)
    read_restart_marker                      0x1a013f8b   Thumb Code   102  jdmarker.o(.text)
    get_soi                                  0x1a014193   Thumb Code   106  jdmarker.o(.text)
    get_dri                                  0x1a0141fd   Thumb Code   166  jdmarker.o(.text)
    first_marker                             0x1a0142a3   Thumb Code   102  jdmarker.o(.text)
    reset_marker_reader                      0x1a014309   Thumb Code    56  jdmarker.o(.text)
    .text                                    0x1a014340   Section        0  jdhuff.o(.text)
    jpeg_make_d_derived_tbl                  0x1a014341   Thumb Code   468  jdhuff.o(.text)
    jpeg_fill_bit_buffer                     0x1a014515   Thumb Code   174  jdhuff.o(.text)
    jpeg_huff_decode                         0x1a0145c3   Thumb Code   144  jdhuff.o(.text)
    process_restart                          0x1a014653   Thumb Code    70  jdhuff.o(.text)
    decode_mcu_DC_first                      0x1a014699   Thumb Code   338  jdhuff.o(.text)
    decode_mcu_AC_first                      0x1a0147eb   Thumb Code   372  jdhuff.o(.text)
    decode_mcu_DC_refine                     0x1a01495f   Thumb Code   140  jdhuff.o(.text)
    decode_mcu_AC_refine                     0x1a0149eb   Thumb Code   672  jdhuff.o(.text)
    decode_mcu_sub                           0x1a014c8b   Thumb Code   730  jdhuff.o(.text)
    decode_mcu                               0x1a014f65   Thumb Code   710  jdhuff.o(.text)
    start_pass_huff_decoder                  0x1a01522b   Thumb Code   970  jdhuff.o(.text)
    finish_pass_huff                         0x1a015665   Thumb Code    32  jdhuff.o(.text)
    .text                                    0x1a0156b0   Section        0  jdmainct.o(.text)
    process_data_crank_post                  0x1a0156b1   Thumb Code    22  jdmainct.o(.text)
    process_data_simple_main                 0x1a0156c7   Thumb Code    96  jdmainct.o(.text)
    process_data_context_main                0x1a015727   Thumb Code   462  jdmainct.o(.text)
    start_pass_main                          0x1a0158f5   Thumb Code    72  jdmainct.o(.text)
    alloc_funny_pointers                     0x1a0159d9   Thumb Code   116  jdmainct.o(.text)
    make_funny_pointers                      0x1a015a4d   Thumb Code   160  jdmainct.o(.text)
    .text                                    0x1a015afc   Section        0  jdcoefct.o(.text)
    start_iMCU_row                           0x1a015afd   Thumb Code    48  jdcoefct.o(.text)
    start_input_pass                         0x1a015b2d   Thumb Code     6  jdcoefct.o(.text)
    decompress_data                          0x1a015b33   Thumb Code   262  jdcoefct.o(.text)
    decompress_smooth_data                   0x1a015c39   Thumb Code  1032  jdcoefct.o(.text)
    start_output_pass                        0x1a016041   Thumb Code    40  jdcoefct.o(.text)
    decompress_onepass                       0x1a016069   Thumb Code   356  jdcoefct.o(.text)
    dummy_consume_data                       0x1a0161cd   Thumb Code     4  jdcoefct.o(.text)
    consume_data                             0x1a0161d1   Thumb Code   256  jdcoefct.o(.text)
    smoothing_ok                             0x1a016393   Thumb Code   146  jdcoefct.o(.text)
    .text                                    0x1a016440   Section        0  jdpostct.o(.text)
    post_process_2pass                       0x1a016441   Thumb Code   130  jdpostct.o(.text)
    post_process_prepass                     0x1a0164c3   Thumb Code   136  jdpostct.o(.text)
    post_process_1pass                       0x1a01654b   Thumb Code    88  jdpostct.o(.text)
    start_pass_dpost                         0x1a0165a3   Thumb Code   118  jdpostct.o(.text)
    .text                                    0x1a016694   Section        0  jddctmgr.o(.text)
    start_pass                               0x1a016695   Thumb Code   766  jddctmgr.o(.text)
    .text                                    0x1a016a80   Section        0  jidctflt.o(.text)
    .text                                    0x1a016dc0   Section        0  jidctint.o(.text)
    .text                                    0x1a01c058   Section        0  jdsample.o(.text)
    start_pass_upsample                      0x1a01c059   Thumb Code    16  jdsample.o(.text)
    sep_upsample                             0x1a01c069   Thumb Code   180  jdsample.o(.text)
    fullsize_upsample                        0x1a01c11d   Thumb Code     4  jdsample.o(.text)
    noop_upsample                            0x1a01c121   Thumb Code     6  jdsample.o(.text)
    int_upsample                             0x1a01c127   Thumb Code   114  jdsample.o(.text)
    h2v1_upsample                            0x1a01c199   Thumb Code    50  jdsample.o(.text)
    h2v2_upsample                            0x1a01c1cb   Thumb Code    82  jdsample.o(.text)
    .text                                    0x1a01c34c   Section        0  jdcolor.o(.text)
    build_ycc_rgb_table                      0x1a01c34d   Thumb Code   150  jdcolor.o(.text)
    ycc_rgb_convert                          0x1a01c3e3   Thumb Code   160  jdcolor.o(.text)
    rgb_gray_convert                         0x1a01c483   Thumb Code   108  jdcolor.o(.text)
    rgb1_rgb_convert                         0x1a01c4ef   Thumb Code    90  jdcolor.o(.text)
    rgb1_gray_convert                        0x1a01c549   Thumb Code   120  jdcolor.o(.text)
    rgb_convert                              0x1a01c5c1   Thumb Code    84  jdcolor.o(.text)
    null_convert                             0x1a01c615   Thumb Code    68  jdcolor.o(.text)
    grayscale_convert                        0x1a01c659   Thumb Code    28  jdcolor.o(.text)
    gray_rgb_convert                         0x1a01c675   Thumb Code    46  jdcolor.o(.text)
    ycck_cmyk_convert                        0x1a01c6a3   Thumb Code   180  jdcolor.o(.text)
    start_pass_dcolor                        0x1a01c757   Thumb Code     2  jdcolor.o(.text)
    build_bg_ycc_rgb_table                   0x1a01c951   Thumb Code   208  jdcolor.o(.text)
    .text                                    0x1a01ca50   Section        0  jquant1.o(.text)
    create_colorindex                        0x1a01ca51   Thumb Code   202  jquant1.o(.text)
    color_quantize                           0x1a01cb1b   Thumb Code    84  jquant1.o(.text)
    color_quantize3                          0x1a01cb6f   Thumb Code    86  jquant1.o(.text)
    quantize_ord_dither                      0x1a01cbc5   Thumb Code   140  jquant1.o(.text)
    quantize3_ord_dither                     0x1a01cc51   Thumb Code   156  jquant1.o(.text)
    quantize_fs_dither                       0x1a01cced   Thumb Code   290  jquant1.o(.text)
    alloc_fs_workspace                       0x1a01ce0f   Thumb Code    50  jquant1.o(.text)
    start_pass_1_quant                       0x1a01ce41   Thumb Code   162  jquant1.o(.text)
    finish_pass_1_quant                      0x1a01cee3   Thumb Code     2  jquant1.o(.text)
    new_color_map_1_quant                    0x1a01cee5   Thumb Code    12  jquant1.o(.text)
    largest_input_value                      0x1a01cf6b   Thumb Code    20  jquant1.o(.text)
    create_colormap                          0x1a01cf7f   Thumb Code   194  jquant1.o(.text)
    create_odither_tables                    0x1a01d041   Thumb Code   158  jquant1.o(.text)
    select_ncolors                           0x1a01d0df   Thumb Code   146  jquant1.o(.text)
    .text                                    0x1a01d198   Section        0  jquant2.o(.text)
    prescan_quantize                         0x1a01d199   Thumb Code    84  jquant2.o(.text)
    update_box                               0x1a01d1ed   Thumb Code   572  jquant2.o(.text)
    median_cut                               0x1a01d429   Thumb Code   264  jquant2.o(.text)
    find_nearby_colors                       0x1a01d531   Thumb Code   296  jquant2.o(.text)
    fill_inverse_cmap                        0x1a01d659   Thumb Code   146  jquant2.o(.text)
    pass2_no_dither                          0x1a01d6eb   Thumb Code   110  jquant2.o(.text)
    pass2_fs_dither                          0x1a01d759   Thumb Code   472  jquant2.o(.text)
    init_error_limit                         0x1a01d931   Thumb Code    98  jquant2.o(.text)
    finish_pass1                             0x1a01d993   Thumb Code    22  jquant2.o(.text)
    finish_pass2                             0x1a01d9a9   Thumb Code     2  jquant2.o(.text)
    start_pass_2_quant                       0x1a01d9ab   Thumb Code   208  jquant2.o(.text)
    new_color_map_2_quant                    0x1a01da7b   Thumb Code    10  jquant2.o(.text)
    select_colors                            0x1a01db6d   Thumb Code   112  jquant2.o(.text)
    find_best_colors                         0x1a01dbdd   Thumb Code   208  jquant2.o(.text)
    compute_color                            0x1a01dcad   Thumb Code   190  jquant2.o(.text)
    .text                                    0x1a01dd88   Section        0  jdmerge.o(.text)
    start_pass_merged_upsample               0x1a01dd89   Thumb Code    16  jdmerge.o(.text)
    merged_2v_upsample                       0x1a01dd99   Thumb Code   154  jdmerge.o(.text)
    merged_1v_upsample                       0x1a01de33   Thumb Code    38  jdmerge.o(.text)
    h2v1_merged_upsample                     0x1a01de59   Thumb Code   222  jdmerge.o(.text)
    h2v2_merged_upsample                     0x1a01df37   Thumb Code   362  jdmerge.o(.text)
    build_ycc_rgb_table                      0x1a01e0f9   Thumb Code   144  jdmerge.o(.text)
    .text                                    0x1a01e1a8   Section        0  jcomapi.o(.text)
    .text                                    0x1a01e21a   Section        0  jutils.o(.text)
    .text                                    0x1a01e268   Section        0  jerror.o(.text)
    error_exit                               0x1a01e269   Thumb Code    22  jerror.o(.text)
    output_message                           0x1a01e27f   Thumb Code    26  jerror.o(.text)
    emit_message                             0x1a01e299   Thumb Code    44  jerror.o(.text)
    format_message                           0x1a01e2c5   Thumb Code   142  jerror.o(.text)
    reset_error_mgr                          0x1a01e353   Thumb Code    12  jerror.o(.text)
    .text                                    0x1a01e3ac   Section        0  jmemmgr.o(.text)
    alloc_small                              0x1a01e3ad   Thumb Code   210  jmemmgr.o(.text)
    alloc_large                              0x1a01e47f   Thumb Code   118  jmemmgr.o(.text)
    alloc_sarray                             0x1a01e4f5   Thumb Code   112  jmemmgr.o(.text)
    alloc_barray                             0x1a01e565   Thumb Code   118  jmemmgr.o(.text)
    request_virt_sarray                      0x1a01e5db   Thumb Code    76  jmemmgr.o(.text)
    request_virt_barray                      0x1a01e627   Thumb Code    76  jmemmgr.o(.text)
    realize_virt_arrays                      0x1a01e673   Thumb Code   282  jmemmgr.o(.text)
    do_sarray_io                             0x1a01e78d   Thumb Code   126  jmemmgr.o(.text)
    do_barray_io                             0x1a01e80b   Thumb Code   118  jmemmgr.o(.text)
    access_virt_sarray                       0x1a01e881   Thumb Code   258  jmemmgr.o(.text)
    access_virt_barray                       0x1a01e983   Thumb Code   260  jmemmgr.o(.text)
    free_pool                                0x1a01ea87   Thumb Code   196  jmemmgr.o(.text)
    self_destruct                            0x1a01eb4b   Thumb Code    42  jmemmgr.o(.text)
    out_of_memory                            0x1a01ec39   Thumb Code    16  jmemmgr.o(.text)
    .text                                    0x1a01ec88   Section        0  jidctfst.o(.text)
    .text                                    0x1a01ef56   Section        0  jpeg_port.o(.text)
    .text                                    0x1a01ef6c   Section        0  wrbmp.o(.text)
    put_pixel_rows                           0x1a01ef6d   Thumb Code    80  wrbmp.o(.text)
    put_gray_rows                            0x1a01efbd   Thumb Code    68  wrbmp.o(.text)
    start_output_bmp                         0x1a01f001   Thumb Code     2  wrbmp.o(.text)
    write_colormap                           0x1a01f003   Thumb Code   294  wrbmp.o(.text)
    write_bmp_header                         0x1a01f129   Thumb Code   414  wrbmp.o(.text)
    write_os2_header                         0x1a01f2c7   Thumb Code   260  wrbmp.o(.text)
    finish_output_bmp                        0x1a01f3cb   Thumb Code   106  wrbmp.o(.text)
    .text                                    0x1a01f4f4   Section        0  jdapimin.o(.text)
    default_decompress_parms                 0x1a01f59d   Thumb Code   342  jdapimin.o(.text)
    .text                                    0x1a01f894   Section        0  jdapistd.o(.text)
    output_pass_setup                        0x1a01f895   Thumb Code   142  jdapistd.o(.text)
    .text                                    0x1a01fb5c   Section        0  jmemnobs.o(.text)
    .text                                    0x1a01fb8c   Section        0  jdatasrc.o(.text)
    init_source                              0x1a01fb8d   Thumb Code    10  jdatasrc.o(.text)
    init_mem_source                          0x1a01fb97   Thumb Code     2  jdatasrc.o(.text)
    fill_input_buffer                        0x1a01fb99   Thumb Code    88  jdatasrc.o(.text)
    fill_mem_input_buffer                    0x1a01fbf1   Thumb Code    38  jdatasrc.o(.text)
    skip_input_data                          0x1a01fc17   Thumb Code    38  jdatasrc.o(.text)
    term_source                              0x1a01fc3d   Thumb Code     2  jdatasrc.o(.text)
    .text                                    0x1a01fcf0   Section        0  noretval__2printf.o(.text)
    .text                                    0x1a01fd08   Section        0  noretval__2fprintf.o(.text)
    .text                                    0x1a01fd1c   Section        0  noretval__2sprintf.o(.text)
    .text                                    0x1a01fd44   Section        0  _printf_pad.o(.text)
    .text                                    0x1a01fd92   Section        0  _printf_truncate.o(.text)
    .text                                    0x1a01fdb6   Section        0  _printf_str.o(.text)
    .text                                    0x1a01fe08   Section        0  _printf_dec.o(.text)
    .text                                    0x1a01fe80   Section        0  _printf_charcount.o(.text)
    .text                                    0x1a01fea8   Section        0  _printf_wctomb.o(.text)
    .text                                    0x1a01ff64   Section        0  _printf_longlong_dec.o(.text)
    .text                                    0x1a01ffe0   Section        0  _printf_oct_int.o(.text)
    .text                                    0x1a020034   Section        0  _printf_hex_int_ptr.o(.text)
    _printf_hex_common                       0x1a020035   Thumb Code     0  _printf_hex_int_ptr.o(.text)
    .text                                    0x1a0200b0   Section        0  __printf_flags_ss_wp.o(.text)
    .text                                    0x1a020238   Section        0  __0sscanf.o(.text)
    .text                                    0x1a020274   Section        0  _scanf_int.o(.text)
    .text                                    0x1a0203c0   Section        0  _scanf_str.o(.text)
    .text                                    0x1a0204a0   Section        0  exit.o(.text)
    .text                                    0x1a0204ac   Section        0  memcmp.o(.text)
    .text                                    0x1a020504   Section        0  strcpy.o(.text)
    .text                                    0x1a02054c   Section        0  strncmp.o(.text)
    .text                                    0x1a0205e2   Section        0  strcat.o(.text)
    .text                                    0x1a0205fa   Section      138  rt_memcpy_v6.o(.text)
    .text                                    0x1a020684   Section      100  rt_memcpy_w.o(.text)
    .text                                    0x1a0206e8   Section       16  aeabi_memset.o(.text)
    .text                                    0x1a0206f8   Section       68  rt_memclr.o(.text)
    .text                                    0x1a02073c   Section       78  rt_memclr_w.o(.text)
    .text                                    0x1a02078a   Section       86  strncpy.o(.text)
    .text                                    0x1a0207e0   Section      128  strcmpv7m.o(.text)
    .text                                    0x1a020860   Section        0  heapauxi.o(.text)
    .text                                    0x1a020866   Section      138  lludiv10.o(.text)
    .text                                    0x1a0208f0   Section        0  _printf_intcommon.o(.text)
    .text                                    0x1a0209a4   Section        0  _printf_char_common.o(.text)
    _printf_input_char                       0x1a0209a5   Thumb Code    10  _printf_char_common.o(.text)
    .text                                    0x1a0209d4   Section        0  _sputc.o(.text)
    .text                                    0x1a0209de   Section        0  _printf_char.o(.text)
    .text                                    0x1a020a0c   Section        0  _printf_char_file.o(.text)
    .text                                    0x1a020a30   Section        0  _printf_wchar.o(.text)
    .text                                    0x1a020a5c   Section        0  _chval.o(.text)
    .text                                    0x1a020a78   Section        0  scanf_char.o(.text)
    _scanf_char_input                        0x1a020a79   Thumb Code    12  scanf_char.o(.text)
    .text                                    0x1a020aa4   Section        0  _sgetc.o(.text)
    .text                                    0x1a020ae4   Section        0  _wcrtomb.o(.text)
    .text                                    0x1a020b24   Section       16  rt_ctype_table.o(.text)
    .text                                    0x1a020b34   Section        0  isspace.o(.text)
    .text                                    0x1a020b48   Section        0  _scanf.o(.text)
    .text                                    0x1a020ebc   Section       74  sys_stackheap_outer.o(.text)
    .text                                    0x1a020f08   Section        8  rt_locale_intlibspace.o(.text)
    .text                                    0x1a020f10   Section        8  libspace.o(.text)
    i.Board_SetupClocking                    0x1a020f18   Section        0  board_sysinit.o(i.Board_SetupClocking)
    i.Board_SetupMuxing                      0x1a020fcc   Section        0  board_sysinit.o(i.Board_SetupMuxing)
    i.Board_SystemInit                       0x1a021018   Section        0  board_sysinit.o(i.Board_SystemInit)
    i.Board_UARTPutChar                      0x1a021024   Section        0  board.o(i.Board_UARTPutChar)
    i.Board_UART_Init                        0x1a021044   Section        0  board.o(i.Board_UART_Init)
    i.Chip_Clock_EnableOpts                  0x1a021088   Section        0  clock_18xx_43xx.o(i.Chip_Clock_EnableOpts)
    i.Chip_Clock_FindBaseClock               0x1a0210c4   Section        0  clock_18xx_43xx.o(i.Chip_Clock_FindBaseClock)
    Chip_Clock_FindBaseClock                 0x1a0210c5   Thumb Code    74  clock_18xx_43xx.o(i.Chip_Clock_FindBaseClock)
    i.Chip_Clock_GetBaseClock                0x1a021114   Section        0  clock_18xx_43xx.o(i.Chip_Clock_GetBaseClock)
    i.Chip_Clock_GetBaseClocktHz             0x1a021138   Section        0  clock_18xx_43xx.o(i.Chip_Clock_GetBaseClocktHz)
    i.Chip_Clock_GetClockInputHz             0x1a02114c   Section        0  clock_18xx_43xx.o(i.Chip_Clock_GetClockInputHz)
    i.Chip_Clock_GetDivRate                  0x1a021220   Section        0  clock_18xx_43xx.o(i.Chip_Clock_GetDivRate)
    Chip_Clock_GetDivRate                    0x1a021221   Thumb Code    40  clock_18xx_43xx.o(i.Chip_Clock_GetDivRate)
    i.Chip_Clock_GetDividerDivisor           0x1a021248   Section        0  clock_18xx_43xx.o(i.Chip_Clock_GetDividerDivisor)
    i.Chip_Clock_GetDividerSource            0x1a021268   Section        0  clock_18xx_43xx.o(i.Chip_Clock_GetDividerSource)
    i.Chip_Clock_GetMainPLLHz                0x1a021288   Section        0  clock_18xx_43xx.o(i.Chip_Clock_GetMainPLLHz)
    i.Chip_Clock_GetRate                     0x1a021300   Section        0  clock_18xx_43xx.o(i.Chip_Clock_GetRate)
    i.Chip_Clock_SetBaseClock                0x1a021358   Section        0  clock_18xx_43xx.o(i.Chip_Clock_SetBaseClock)
    i.Chip_Clock_SetDivider                  0x1a0213a0   Section        0  clock_18xx_43xx.o(i.Chip_Clock_SetDivider)
    i.Chip_SCU_PinMuxSet                     0x1a0213f0   Section        0  board.o(i.Chip_SCU_PinMuxSet)
    Chip_SCU_PinMuxSet                       0x1a0213f1   Thumb Code    12  board.o(i.Chip_SCU_PinMuxSet)
    i.Chip_SCU_SetPinMuxing                  0x1a021400   Section        0  board_sysinit.o(i.Chip_SCU_SetPinMuxing)
    Chip_SCU_SetPinMuxing                    0x1a021401   Thumb Code    44  board_sysinit.o(i.Chip_SCU_SetPinMuxing)
    i.Chip_SetupCoreClock                    0x1a021430   Section        0  sysinit_18xx_43xx.o(i.Chip_SetupCoreClock)
    i.Chip_UART_DisableDivisorAccess         0x1a02143e   Section        0  uart_18xx_43xx.o(i.Chip_UART_DisableDivisorAccess)
    Chip_UART_DisableDivisorAccess           0x1a02143f   Thumb Code    10  uart_18xx_43xx.o(i.Chip_UART_DisableDivisorAccess)
    i.Chip_UART_EnableDivisorAccess          0x1a021448   Section        0  uart_18xx_43xx.o(i.Chip_UART_EnableDivisorAccess)
    Chip_UART_EnableDivisorAccess            0x1a021449   Thumb Code    10  uart_18xx_43xx.o(i.Chip_UART_EnableDivisorAccess)
    i.Chip_UART_GetClockIndex                0x1a021454   Section        0  uart_18xx_43xx.o(i.Chip_UART_GetClockIndex)
    Chip_UART_GetClockIndex                  0x1a021455   Thumb Code    36  uart_18xx_43xx.o(i.Chip_UART_GetClockIndex)
    i.Chip_UART_Init                         0x1a021484   Section        0  uart_18xx_43xx.o(i.Chip_UART_Init)
    i.Chip_UART_SetBaud                      0x1a0214d0   Section        0  uart_18xx_43xx.o(i.Chip_UART_SetBaud)
    i.Chip_UART_SetDivisorLatches            0x1a021512   Section        0  uart_18xx_43xx.o(i.Chip_UART_SetDivisorLatches)
    Chip_UART_SetDivisorLatches              0x1a021513   Thumb Code     6  uart_18xx_43xx.o(i.Chip_UART_SetDivisorLatches)
    i.SystemCoreClockUpdate                  0x1a021518   Section        0  chip_18xx_43xx.o(i.SystemCoreClockUpdate)
    i._is_digit                              0x1a02152c   Section        0  __printf_wp.o(i._is_digit)
    i._sys_exit                              0x1a02153a   Section        0  board.o(i._sys_exit)
    i.clock_init_delay                       0x1a021540   Section        0  sysinit_18xx_43xx.o(i.clock_init_delay)
    clock_init_delay                         0x1a021541   Thumb Code    36  sysinit_18xx_43xx.o(i.clock_init_delay)
    i.clock_main_init                        0x1a021564   Section        0  sysinit_18xx_43xx.o(i.clock_main_init)
    clock_main_init                          0x1a021565   Thumb Code   168  sysinit_18xx_43xx.o(i.clock_main_init)
    i.ferror                                 0x1a021620   Section        0  board.o(i.ferror)
    i.fpuInit                                0x1a021628   Section        0  fpu_init.o(i.fpuInit)
    i.fputc                                  0x1a021678   Section        0  board.o(i.fputc)
    locale$$code                             0x1a02168c   Section       44  lc_ctype_c.o(locale$$code)
    x$fpl$d2f                                0x1a0216b8   Section       98  d2f.o(x$fpl$d2f)
    $v0                                      0x1a0216b8   Number         0  d2f.o(x$fpl$d2f)
    x$fpl$dfltu                              0x1a02171a   Section       38  dflt_clz.o(x$fpl$dfltu)
    $v0                                      0x1a02171a   Number         0  dflt_clz.o(x$fpl$dfltu)
    x$fpl$dmul                               0x1a021740   Section      340  dmul.o(x$fpl$dmul)
    $v0                                      0x1a021740   Number         0  dmul.o(x$fpl$dmul)
    x$fpl$dnaninf                            0x1a021894   Section      156  dnaninf.o(x$fpl$dnaninf)
    $v0                                      0x1a021894   Number         0  dnaninf.o(x$fpl$dnaninf)
    x$fpl$dretinf                            0x1a021930   Section       12  dretinf.o(x$fpl$dretinf)
    $v0                                      0x1a021930   Number         0  dretinf.o(x$fpl$dretinf)
    x$fpl$fpinit                             0x1a02193c   Section       10  fpinit.o(x$fpl$fpinit)
    $v0                                      0x1a02193c   Number         0  fpinit.o(x$fpl$fpinit)
    x$fpl$fretinf                            0x1a021946   Section       10  fretinf.o(x$fpl$fretinf)
    $v0                                      0x1a021946   Number         0  fretinf.o(x$fpl$fretinf)
    .constdata                               0x1a021950   Section      256  yaffs_hweight.o(.constdata)
    x$fpl$usenofp                            0x1a021950   Section        0  usenofp.o(x$fpl$usenofp)
    yaffs_count_bits_table                   0x1a021950   Data         256  yaffs_hweight.o(.constdata)
    .constdata                               0x1a021a50   Section      256  yaffs_ecc.o(.constdata)
    column_parity_table                      0x1a021a50   Data         256  yaffs_ecc.o(.constdata)
    .constdata                               0x1a021b50   Section       40  yaffs_verify.o(.constdata)
    block_state_name                         0x1a021b50   Data          40  yaffs_verify.o(.constdata)
    .constdata                               0x1a021b78   Section      876  jdhuff.o(.constdata)
    jpeg_zigzag_order                        0x1a021b78   Data         256  jdhuff.o(.constdata)
    jpeg_zigzag_order7                       0x1a021c78   Data         196  jdhuff.o(.constdata)
    jpeg_zigzag_order6                       0x1a021d3c   Data         144  jdhuff.o(.constdata)
    jpeg_zigzag_order5                       0x1a021dcc   Data         100  jdhuff.o(.constdata)
    jpeg_zigzag_order4                       0x1a021e30   Data          64  jdhuff.o(.constdata)
    jpeg_zigzag_order3                       0x1a021e70   Data          36  jdhuff.o(.constdata)
    jpeg_zigzag_order2                       0x1a021e94   Data          16  jdhuff.o(.constdata)
    bmask                                    0x1a021ea4   Data          64  jdhuff.o(.constdata)
    .constdata                               0x1a021ee8   Section      192  jddctmgr.o(.constdata)
    aanscales                                0x1a021ee8   Data         128  jddctmgr.o(.constdata)
    aanscalefactor                           0x1a021f68   Data          64  jddctmgr.o(.constdata)
    .constdata                               0x1a021fa8   Section      268  jquant1.o(.constdata)
    base_dither_matrix                       0x1a021fa8   Data         256  jquant1.o(.constdata)
    RGB_order                                0x1a0220a8   Data          12  jquant1.o(.constdata)
    .constdata                               0x1a0220b4   Section      456  jaricom.o(.constdata)
    .constdata                               0x1a02227c   Section      320  jutils.o(.constdata)
    .constdata                               0x1a0223bc   Section      260  jutils.o(.constdata)
    .constdata                               0x1a0224c0   Section      208  jutils.o(.constdata)
    .constdata                               0x1a022590   Section      164  jutils.o(.constdata)
    .constdata                               0x1a022634   Section      128  jutils.o(.constdata)
    .constdata                               0x1a0226b4   Section      100  jutils.o(.constdata)
    .constdata                               0x1a022718   Section       80  jutils.o(.constdata)
    .constdata                               0x1a022768   Section      512  jerror.o(.constdata)
    .constdata                               0x1a022968   Section       16  jmemmgr.o(.constdata)
    first_pool_slop                          0x1a022968   Data           8  jmemmgr.o(.constdata)
    extra_pool_slop                          0x1a022970   Data           8  jmemmgr.o(.constdata)
    .constdata                               0x1a022978   Section        4  jdatasrc.o(.constdata)
    mybuffer                                 0x1a022978   Data           4  jdatasrc.o(.constdata)
    .constdata                               0x1a02297c   Section       64  board.o(.constdata)
    ledports                                 0x1a02297c   Data           8  board.o(.constdata)
    ledbits                                  0x1a022984   Data           8  board.o(.constdata)
    .constdata                               0x1a0229bc   Section      700  board_sysinit.o(.constdata)
    InitClkStates                            0x1a0229bc   Data          16  board_sysinit.o(.constdata)
    spifipinmuxing                           0x1a0229cc   Data          24  board_sysinit.o(.constdata)
    pinmuxing                                0x1a0229e4   Data         496  board_sysinit.o(.constdata)
    pinclockmuxing                           0x1a022bd4   Data          16  board_sysinit.o(.constdata)
    MT48LC4M32_config                        0x1a022be4   Data         116  board_sysinit.o(.constdata)
    S29GL64N90_config                        0x1a022c58   Data          32  board_sysinit.o(.constdata)
    .constdata                               0x1a022c78   Section      108  clock_18xx_43xx.o(.constdata)
    periph_to_base                           0x1a022c78   Data         108  clock_18xx_43xx.o(.constdata)
    .constdata                               0x1a022ce4   Section       72  sysinit_18xx_43xx.o(.constdata)
    InitClkStates                            0x1a022ce4   Data          72  sysinit_18xx_43xx.o(.constdata)
    .constdata                               0x1a022d2c   Section        8  _printf_wctomb.o(.constdata)
    initial_mbstate                          0x1a022d2c   Data           8  _printf_wctomb.o(.constdata)
    .constdata                               0x1a022d34   Section       40  _printf_hex_int_ptr.o(.constdata)
    uc_hextab                                0x1a022d34   Data          20  _printf_hex_int_ptr.o(.constdata)
    lc_hextab                                0x1a022d48   Data          20  _printf_hex_int_ptr.o(.constdata)
    .constdata                               0x1a022d5c   Section       17  __printf_flags_ss_wp.o(.constdata)
    maptable                                 0x1a022d5c   Data          17  __printf_flags_ss_wp.o(.constdata)
    .conststring                             0x1a022d70   Section      157  yaffs_checkptrw.o(.conststring)
    .conststring                             0x1a022e10   Section      589  yaffs_guts.o(.conststring)
    .conststring                             0x1a023060   Section       91  yaffs_packedtags2.o(.conststring)
    .conststring                             0x1a0230bc   Section      390  yaffs_verify.o(.conststring)
    .conststring                             0x1a023244   Section       98  yaffs_yaffs1.o(.conststring)
    .conststring                             0x1a0232a8   Section      652  yaffs_yaffs2.o(.conststring)
    .conststring                             0x1a023534   Section     4877  jerror.o(.conststring)
    locale$$data                             0x1a024864   Section      272  lc_ctype_c.o(locale$$data)
    __lcctype_c_name                         0x1a024868   Data           2  lc_ctype_c.o(locale$$data)
    __lcctype_c_start                        0x1a024870   Data           0  lc_ctype_c.o(locale$$data)
    __lcctype_c_end                          0x1a024974   Data           0  lc_ctype_c.o(locale$$data)

    Global Symbols

    Symbol Name                              Value     Ov Type        Size  Object(Section)

    BuildAttributes$$THM_ISAv4$E$P$D$K$B$S$7EM$VFPi3$EXTD16$VFPS$VFMA$PE$A:L22UL41UL21$X:L11$S22US41US21$IEEE1$IW$USESV6$~STKCKD$USESV7$~SHL$OSPACE$ROPI$EBA8$UX$STANDARDLIB$REQ8$PRES8$EABIv2 0x00000000   Number         0  anon$$obj.o ABSOLUTE
    __ARM_use_no_argv                        0x00000000   Number         0  main.o ABSOLUTE
    _printf_flags                            0x00000000   Number         0  printf_stubs.o ABSOLUTE
    _printf_return_value                     0x00000000   Number         0  printf_stubs.o ABSOLUTE
    _printf_sizespec                         0x00000000   Number         0  printf_stubs.o ABSOLUTE
    _printf_widthprec                        0x00000000   Number         0  printf_stubs.o ABSOLUTE
    __ARM_exceptions_init                     - Undefined Weak Reference
    __alloca_initialize                       - Undefined Weak Reference
    __arm_preinit_                            - Undefined Weak Reference
    __cpp_initialize__aeabi_                  - Undefined Weak Reference
    __cxa_finalize                            - Undefined Weak Reference
    __sigvec_lookup                           - Undefined Weak Reference
    _atexit_init                              - Undefined Weak Reference
    _call_atexit_fns                          - Undefined Weak Reference
    _clock_init                               - Undefined Weak Reference
    _fp_trap_init                             - Undefined Weak Reference
    _fp_trap_shutdown                         - Undefined Weak Reference
    _get_lc_collate                           - Undefined Weak Reference
    _get_lc_monetary                          - Undefined Weak Reference
    _get_lc_numeric                           - Undefined Weak Reference
    _get_lc_time                              - Undefined Weak Reference
    _getenv_init                              - Undefined Weak Reference
    _handle_redirection                       - Undefined Weak Reference
    _init_alloc                               - Undefined Weak Reference
    _init_user_alloc                          - Undefined Weak Reference
    _initio                                   - Undefined Weak Reference
    _printf_mbtowc                            - Undefined Weak Reference
    _printf_wc                                - Undefined Weak Reference
    _rand_init                                - Undefined Weak Reference
    _scanf_longlong                           - Undefined Weak Reference
    _scanf_mbtowc                             - Undefined Weak Reference
    _scanf_real                               - Undefined Weak Reference
    _scanf_wctomb                             - Undefined Weak Reference
    _scanf_wstring                            - Undefined Weak Reference
    _signal_finish                            - Undefined Weak Reference
    _signal_init                              - Undefined Weak Reference
    _terminate_alloc                          - Undefined Weak Reference
    _terminate_user_alloc                     - Undefined Weak Reference
    _terminateio                              - Undefined Weak Reference
    raw_os_active                            0x10000000   Data           1  raw-os.o(.data)
    idle_task_exit                           0x10000001   Data           1  raw-os.o(.data)
    raw_sched_lock                           0x10000002   Data           1  raw-os.o(.data)
    raw_int_nesting                          0x10000003   Data           1  raw-os.o(.data)
    mutex_recursion_levels                   0x10000004   Data           1  raw-os.o(.data)
    mutex_recursion_max_levels               0x10000005   Data           1  raw-os.o(.data)
    task_0_exit                              0x10000006   Data           1  raw-os.o(.data)
    task_0_event_head                        0x10000008   Data           2  raw-os.o(.data)
    task_0_event_end                         0x1000000a   Data           2  raw-os.o(.data)
    task_0_events                            0x1000000c   Data           2  raw-os.o(.data)
    peak_events                              0x1000000e   Data           2  raw-os.o(.data)
    high_ready_obj                           0x10000010   Data           4  raw-os.o(.data)
    raw_task_active                          0x10000014   Data           4  raw-os.o(.data)
    raw_tick_count                           0x10000018   Data           4  raw-os.o(.data)
    raw_timer_count                          0x1000001c   Data           4  raw-os.o(.data)
    raw_timer_ctrl                           0x10000020   Data           4  raw-os.o(.data)
    task_0_event_handler                     0x10000024   Data           4  raw-os.o(.data)
    free_object_int_msg                      0x10000028   Data           4  raw-os.o(.data)
    int_msg_full                             0x1000002c   Data           4  raw-os.o(.data)
    msg_event_handler                        0x10000030   Data           4  raw-os.o(.data)
    raw_idle_count                           0x10000038   Data           8  raw-os.o(.data)
    tick_head                                0x10000040   Data           8  raw-os.o(.data)
    timer_head                               0x10000048   Data           8  raw-os.o(.data)
    raw_task_debug                           0x10000050   Data           8  raw-os.o(.data)
    _mem_minfragment                         0x10000058   Data           4  raw_malloc.o(.data)
    K9F_NF_CLE                               0x1000005c   Data           4  k9f1g08.o(.data)
    K9F_NF_ALE                               0x10000060   Data           4  k9f1g08.o(.data)
    K9F_NF_DATA                              0x10000064   Data           4  k9f1g08.o(.data)
    bmp_data                                 0x10000068   Data           4  main.o(.data)
    dest_mgr                                 0x1000006c   Data           4  libjpeg_test.o(.data)
    num_scanlines                            0x10000070   Data           4  libjpeg_test.o(.data)
    yaffs_wr_attempts                        0x10000080   Data           4  yaffsfs.o(.data)
    yaffsfs_deviceList                       0x1000008c   Data           8  yaffsfs.o(.data)
    yaffs_trace_mask                         0x100000b0   Data           4  yaffscfg2k.o(.data)
    __stdout                                 0x100000b4   Data           4  board.o(.data)
    __stdin                                  0x100000b8   Data           4  board.o(.data)
    __stderr                                 0x100000bc   Data           4  board.o(.data)
    g_isPenDn                                0x100000c0   Data           4  board.o(.data)
    g_isNewPenDn                             0x100000c4   Data           4  board.o(.data)
    SystemCoreClock                          0x100000c8   Data           4  chip_18xx_43xx.o(.data)
    raw_ready_queue                          0x100000d4   Data         508  raw-os.o(.bss)
    raw_idle_obj                             0x100002d0   Data          92  raw-os.o(.bss)
    idle_stack                               0x1000032c   Data         400  raw-os.o(.bss)
    raw_timer_obj                            0x100004bc   Data          92  raw-os.o(.bss)
    timer_task_stack                         0x10000518   Data         800  raw-os.o(.bss)
    timer_sem                                0x10000838   Data          24  raw-os.o(.bss)
    timer_mutex                              0x10000850   Data          28  raw-os.o(.bss)
    task_0_events_queue                      0x1000086c   Data         384  raw-os.o(.bss)
    raw_task_0_obj                           0x100009ec   Data          92  raw-os.o(.bss)
    task_0_stack                             0x10000a48   Data        1024  raw-os.o(.bss)
    object_int_msg                           0x10000e48   Data         480  raw-os.o(.bss)
    tick_task_obj                            0x10001028   Data          92  raw-os.o(.bss)
    tick_task_stack                          0x10001084   Data         800  raw-os.o(.bss)
    tick_semaphore_obj                       0x100013a4   Data          24  raw-os.o(.bss)
    shell_task_stack                         0x10001434   Data        4096  main.o(.bss)
    shell_task_obj                           0x10002434   Data          92  main.o(.bss)
    uart_sema                                0x10002490   Data          24  main.o(.bss)
    uart_fifo                                0x100024a8   Data          24  main.o(.bss)
    cinfo                                    0x10002540   Data         432  libjpeg_test.o(.bss)
    jerr                                     0x100026f0   Data         132  libjpeg_test.o(.bss)
    __libspace_start                         0x10003f98   Data          96  libspace.o(.bss)
    __temporary_stack_top$libspace           0x10003ff8   Data           0  libspace.o(.bss)
    __Vectors                                0x1a000000   Data           4  keil_startup_lpc18xx43xx.o(RESET)
    __main                                   0x1a000115   Thumb Code     8  __main.o(!!!main)
    __scatterload                            0x1a00011d   Thumb Code     0  __scatter.o(!!!scatter)
    __scatterload_rt2                        0x1a00011d   Thumb Code    44  __scatter.o(!!!scatter)
    __scatterload_rt2_thumb_only             0x1a00011d   Thumb Code     0  __scatter.o(!!!scatter)
    __scatterload_null                       0x1a00012b   Thumb Code     0  __scatter.o(!!!scatter)
    __scatterload_copy                       0x1a000151   Thumb Code    26  __scatter_copy.o(!!handler_copy)
    __scatterload_zeroinit                   0x1a00016d   Thumb Code    28  __scatter_zi.o(!!handler_zi)
    _printf_n                                0x1a000189   Thumb Code     0  _printf_n.o(.ARM.Collect$$_printf_percent$$00000001)
    _printf_percent                          0x1a000189   Thumb Code     0  _printf_percent.o(.ARM.Collect$$_printf_percent$$00000000)
    _printf_p                                0x1a00018f   Thumb Code     0  _printf_p.o(.ARM.Collect$$_printf_percent$$00000002)
    _printf_ll                               0x1a000195   Thumb Code     0  _printf_ll.o(.ARM.Collect$$_printf_percent$$00000007)
    _printf_i                                0x1a00019f   Thumb Code     0  _printf_i.o(.ARM.Collect$$_printf_percent$$00000008)
    _printf_d                                0x1a0001a5   Thumb Code     0  _printf_d.o(.ARM.Collect$$_printf_percent$$00000009)
    _printf_u                                0x1a0001ab   Thumb Code     0  _printf_u.o(.ARM.Collect$$_printf_percent$$0000000A)
    _printf_o                                0x1a0001b1   Thumb Code     0  _printf_o.o(.ARM.Collect$$_printf_percent$$0000000B)
    _printf_x                                0x1a0001b7   Thumb Code     0  _printf_x.o(.ARM.Collect$$_printf_percent$$0000000C)
    _printf_lld                              0x1a0001bd   Thumb Code     0  _printf_lld.o(.ARM.Collect$$_printf_percent$$0000000E)
    _printf_l                                0x1a0001c3   Thumb Code     0  _printf_l.o(.ARM.Collect$$_printf_percent$$00000012)
    _printf_c                                0x1a0001cd   Thumb Code     0  _printf_c.o(.ARM.Collect$$_printf_percent$$00000013)
    _printf_s                                0x1a0001d3   Thumb Code     0  _printf_s.o(.ARM.Collect$$_printf_percent$$00000014)
    _printf_lc                               0x1a0001d9   Thumb Code     0  _printf_lc.o(.ARM.Collect$$_printf_percent$$00000015)
    _printf_percent_end                      0x1a0001df   Thumb Code     0  _printf_percent_end.o(.ARM.Collect$$_printf_percent$$00000017)
    __rt_lib_init                            0x1a0001e3   Thumb Code     0  libinit.o(.ARM.Collect$$libinit$$00000000)
    __rt_lib_init_fp_1                       0x1a0001e5   Thumb Code     0  libinit2.o(.ARM.Collect$$libinit$$00000001)
    __rt_lib_init_heap_1                     0x1a0001e9   Thumb Code     0  libinit2.o(.ARM.Collect$$libinit$$0000000A)
    __rt_lib_init_lc_common                  0x1a0001e9   Thumb Code     0  libinit2.o(.ARM.Collect$$libinit$$0000000F)
    __rt_lib_init_preinit_1                  0x1a0001e9   Thumb Code     0  libinit2.o(.ARM.Collect$$libinit$$00000004)
    __rt_lib_init_rand_1                     0x1a0001e9   Thumb Code     0  libinit2.o(.ARM.Collect$$libinit$$0000000E)
    __rt_lib_init_user_alloc_1               0x1a0001e9   Thumb Code     0  libinit2.o(.ARM.Collect$$libinit$$0000000C)
    __rt_lib_init_lc_collate_1               0x1a0001ef   Thumb Code     0  libinit2.o(.ARM.Collect$$libinit$$00000011)
    __rt_lib_init_lc_ctype_2                 0x1a0001ef   Thumb Code     0  libinit2.o(.ARM.Collect$$libinit$$00000012)
    __rt_lib_init_alloca_1                   0x1a0001fb   Thumb Code     0  libinit2.o(.ARM.Collect$$libinit$$0000002E)
    __rt_lib_init_argv_1                     0x1a0001fb   Thumb Code     0  libinit2.o(.ARM.Collect$$libinit$$0000002C)
    __rt_lib_init_atexit_1                   0x1a0001fb   Thumb Code     0  libinit2.o(.ARM.Collect$$libinit$$0000001B)
    __rt_lib_init_clock_1                    0x1a0001fb   Thumb Code     0  libinit2.o(.ARM.Collect$$libinit$$00000021)
    __rt_lib_init_cpp_1                      0x1a0001fb   Thumb Code     0  libinit2.o(.ARM.Collect$$libinit$$00000032)
    __rt_lib_init_exceptions_1               0x1a0001fb   Thumb Code     0  libinit2.o(.ARM.Collect$$libinit$$00000030)
    __rt_lib_init_fp_trap_1                  0x1a0001fb   Thumb Code     0  libinit2.o(.ARM.Collect$$libinit$$0000001F)
    __rt_lib_init_getenv_1                   0x1a0001fb   Thumb Code     0  libinit2.o(.ARM.Collect$$libinit$$00000023)
    __rt_lib_init_lc_ctype_1                 0x1a0001fb   Thumb Code     0  libinit2.o(.ARM.Collect$$libinit$$00000013)
    __rt_lib_init_lc_monetary_1              0x1a0001fb   Thumb Code     0  libinit2.o(.ARM.Collect$$libinit$$00000015)
    __rt_lib_init_lc_numeric_1               0x1a0001fb   Thumb Code     0  libinit2.o(.ARM.Collect$$libinit$$00000017)
    __rt_lib_init_lc_time_1                  0x1a0001fb   Thumb Code     0  libinit2.o(.ARM.Collect$$libinit$$00000019)
    __rt_lib_init_return                     0x1a0001fb   Thumb Code     0  libinit2.o(.ARM.Collect$$libinit$$00000033)
    __rt_lib_init_signal_1                   0x1a0001fb   Thumb Code     0  libinit2.o(.ARM.Collect$$libinit$$0000001D)
    __rt_lib_init_stdio_1                    0x1a0001fb   Thumb Code     0  libinit2.o(.ARM.Collect$$libinit$$00000025)
    __rt_lib_shutdown                        0x1a0001fd   Thumb Code     0  libshutdown.o(.ARM.Collect$$libshutdown$$00000000)
    __rt_lib_shutdown_fp_trap_1              0x1a0001ff   Thumb Code     0  libshutdown2.o(.ARM.Collect$$libshutdown$$00000006)
    __rt_lib_shutdown_heap_1                 0x1a0001ff   Thumb Code     0  libshutdown2.o(.ARM.Collect$$libshutdown$$0000000E)
    __rt_lib_shutdown_return                 0x1a0001ff   Thumb Code     0  libshutdown2.o(.ARM.Collect$$libshutdown$$0000000F)
    __rt_lib_shutdown_signal_1               0x1a0001ff   Thumb Code     0  libshutdown2.o(.ARM.Collect$$libshutdown$$00000009)
    __rt_lib_shutdown_stdio_1                0x1a0001ff   Thumb Code     0  libshutdown2.o(.ARM.Collect$$libshutdown$$00000003)
    __rt_lib_shutdown_user_alloc_1           0x1a0001ff   Thumb Code     0  libshutdown2.o(.ARM.Collect$$libshutdown$$0000000B)
    __rt_entry                               0x1a000201   Thumb Code     0  __rtentry.o(.ARM.Collect$$rtentry$$00000000)
    __rt_entry_presh_1                       0x1a000201   Thumb Code     0  __rtentry2.o(.ARM.Collect$$rtentry$$00000002)
    __rt_entry_sh                            0x1a000201   Thumb Code     0  __rtentry4.o(.ARM.Collect$$rtentry$$00000004)
    __rt_entry_li                            0x1a000207   Thumb Code     0  __rtentry2.o(.ARM.Collect$$rtentry$$0000000A)
    __rt_entry_postsh_1                      0x1a000207   Thumb Code     0  __rtentry2.o(.ARM.Collect$$rtentry$$00000009)
    __rt_entry_main                          0x1a00020b   Thumb Code     0  __rtentry2.o(.ARM.Collect$$rtentry$$0000000D)
    __rt_entry_postli_1                      0x1a00020b   Thumb Code     0  __rtentry2.o(.ARM.Collect$$rtentry$$0000000C)
    __rt_exit                                0x1a000213   Thumb Code     0  rtexit.o(.ARM.Collect$$rtexit$$00000000)
    __rt_exit_ls                             0x1a000215   Thumb Code     0  rtexit2.o(.ARM.Collect$$rtexit$$00000003)
    __rt_exit_prels_1                        0x1a000215   Thumb Code     0  rtexit2.o(.ARM.Collect$$rtexit$$00000002)
    __rt_exit_exit                           0x1a000219   Thumb Code     0  rtexit2.o(.ARM.Collect$$rtexit$$00000004)
    get_ready_task                           0x1a000221   Thumb Code    24  raw-os.o(.text)
    raw_sched                                0x1a000239   Thumb Code    48  raw-os.o(.text)
    raw_semaphore_create                     0x1a000269   Thumb Code    36  raw-os.o(.text)
    raw_task_semaphore_create                0x1a00028d   Thumb Code    16  raw-os.o(.text)
    hybrid_int_process                       0x1a00029d   Thumb Code   134  raw-os.o(.text)
    tick_list_remove                         0x1a000323   Thumb Code    24  raw-os.o(.text)
    mtx_chg_pri                              0x1a00033b   Thumb Code    76  raw-os.o(.text)
    change_pend_list_priority                0x1a000387   Thumb Code    32  raw-os.o(.text)
    add_ready_list_end                       0x1a0003a7   Thumb Code    38  raw-os.o(.text)
    add_ready_list_head                      0x1a0003cd   Thumb Code    38  raw-os.o(.text)
    bit_search_first_one                     0x1a0003f3   Thumb Code   116  raw-os.o(.text)
    remove_ready_list                        0x1a000467   Thumb Code    96  raw-os.o(.text)
    change_internal_task_priority            0x1a0004c7   Thumb Code    90  raw-os.o(.text)
    mutex_state_change                       0x1a000579   Thumb Code    32  raw-os.o(.text)
    add_ready_list                           0x1a000599   Thumb Code    16  raw-os.o(.text)
    tick_list_update                         0x1a0005a9   Thumb Code   254  raw-os.o(.text)
    block_state_post_process                 0x1a0006a7   Thumb Code    64  raw-os.o(.text)
    tick_list_insert                         0x1a0006e7   Thumb Code    56  raw-os.o(.text)
    raw_pend_object                          0x1a00071f   Thumb Code    90  raw-os.o(.text)
    raw_semaphore_get                        0x1a000779   Thumb Code   214  raw-os.o(.text)
    raw_task_semaphore_get                   0x1a00084f   Thumb Code    10  raw-os.o(.text)
    raw_task_create                          0x1a000875   Thumb Code   434  raw-os.o(.text)
    tick_task_start                          0x1a000a27   Thumb Code    54  raw-os.o(.text)
    wake_send_msg                            0x1a000ab7   Thumb Code     4  raw-os.o(.text)
    msg_post                                 0x1a000abb   Thumb Code   278  raw-os.o(.text)
    raw_wake_object                          0x1a000bd1   Thumb Code     2  raw-os.o(.text)
    semaphore_put                            0x1a000bd3   Thumb Code   208  raw-os.o(.text)
    task_resume                              0x1a000ca3   Thumb Code   210  raw-os.o(.text)
    task_suspend                             0x1a000d75   Thumb Code   278  raw-os.o(.text)
    raw_task_0_post                          0x1a000f77   Thumb Code     4  raw-os.o(.text)
    int_msg_post                             0x1a000f7b   Thumb Code   100  raw-os.o(.text)
    raw_semaphore_put                        0x1a000fdf   Thumb Code    46  raw-os.o(.text)
    call_timer_task                          0x1a00100d   Thumb Code    22  raw-os.o(.text)
    move_to_ready_list_end                   0x1a001023   Thumb Code    30  raw-os.o(.text)
    calculate_time_slice                     0x1a001041   Thumb Code   108  raw-os.o(.text)
    raw_task_semaphore_put                   0x1a0010ad   Thumb Code     4  raw-os.o(.text)
    raw_task_0_init                          0x1a001149   Thumb Code    92  raw-os.o(.text)
    raw_mutex_create                         0x1a0011a5   Thumb Code    60  raw-os.o(.text)
    raw_mutex_put                            0x1a0011e1   Thumb Code   328  raw-os.o(.text)
    raw_mutex_get                            0x1a001329   Thumb Code   350  raw-os.o(.text)
    raw_semaphore_set                        0x1a001487   Thumb Code   146  raw-os.o(.text)
    timer_task                               0x1a001519   Thumb Code   166  raw-os.o(.text)
    raw_timer_init                           0x1a0015bf   Thumb Code    66  raw-os.o(.text)
    raw_idle_task                            0x1a001601   Thumb Code    30  raw-os.o(.text)
    tick_list_init                           0x1a00161f   Thumb Code    10  raw-os.o(.text)
    run_queue_init                           0x1a001629   Thumb Code    26  raw-os.o(.text)
    raw_os_init                              0x1a001643   Thumb Code   102  raw-os.o(.text)
    raw_os_start                             0x1a0016a9   Thumb Code    36  raw-os.o(.text)
    wake_send_msg_size                       0x1a0016cd   Thumb Code     8  raw-os.o(.text)
    delete_pend_obj                          0x1a0016d5   Thumb Code   166  raw-os.o(.text)
    raw_task_stack_check                     0x1a00177b   Thumb Code    32  raw-os.o(.text)
    raw_disable_sche                         0x1a00179b   Thumb Code    40  raw-os.o(.text)
    raw_enable_sche                          0x1a0017c3   Thumb Code    54  raw-os.o(.text)
    raw_sleep                                0x1a0017f9   Thumb Code   134  raw-os.o(.text)
    raw_time_sleep                           0x1a00187f   Thumb Code    86  raw-os.o(.text)
    raw_task_suspend                         0x1a0018d5   Thumb Code    54  raw-os.o(.text)
    raw_task_resume                          0x1a00190b   Thumb Code    46  raw-os.o(.text)
    chg_pri_mutex                            0x1a001939   Thumb Code   114  raw-os.o(.text)
    raw_task_priority_change                 0x1a0019ab   Thumb Code   162  raw-os.o(.text)
    raw_task_free_mutex                      0x1a001a4d   Thumb Code    66  raw-os.o(.text)
    raw_task_delete                          0x1a001a8f   Thumb Code   234  raw-os.o(.text)
    raw_set_task_user_point                  0x1a001b79   Thumb Code    26  raw-os.o(.text)
    raw_get_task_user_point                  0x1a001b93   Thumb Code     8  raw-os.o(.text)
    raw_task_time_slice_change               0x1a001b9b   Thumb Code    80  raw-os.o(.text)
    raw_set_sched_way                        0x1a001beb   Thumb Code    80  raw-os.o(.text)
    raw_get_sched_way                        0x1a001c3b   Thumb Code    72  raw-os.o(.text)
    raw_task_wait_abort                      0x1a001c83   Thumb Code   206  raw-os.o(.text)
    raw_task_identify                        0x1a001d51   Thumb Code     6  raw-os.o(.text)
    raw_iter_block_task                      0x1a001d57   Thumb Code   102  raw-os.o(.text)
    raw_get_system_global_space              0x1a001dbd   Thumb Code     6  raw-os.o(.text)
    task_0_tick_post                         0x1a001dc3   Thumb Code    16  raw-os.o(.text)
    raw_task_0_front_post                    0x1a001dd3   Thumb Code     6  raw-os.o(.text)
    raw_block_pool_create                    0x1a001dd9   Thumb Code    98  raw-os.o(.text)
    raw_block_allocate                       0x1a001e3b   Thumb Code    70  raw-os.o(.text)
    raw_block_release                        0x1a001e81   Thumb Code    48  raw-os.o(.text)
    raw_byte_pool_create                     0x1a001eb1   Thumb Code    78  raw-os.o(.text)
    raw_byte_allocate                        0x1a001eff   Thumb Code    90  raw-os.o(.text)
    raw_byte_release                         0x1a001f59   Thumb Code    76  raw-os.o(.text)
    raw_mq_init                              0x1a001fa5   Thumb Code    36  raw-os.o(.text)
    raw_mq_send                              0x1a00209f   Thumb Code     2  raw-os.o(.text)
    raw_mq_receive                           0x1a0020a1   Thumb Code   298  raw-os.o(.text)
    raw_mqueue_flush                         0x1a0021cb   Thumb Code    78  raw-os.o(.text)
    raw_mqueue_delete                        0x1a002219   Thumb Code   102  raw-os.o(.text)
    raw_mqueue_get_information               0x1a00227f   Thumb Code    52  raw-os.o(.text)
    raw_mutex_delete                         0x1a0022b3   Thumb Code   130  raw-os.o(.text)
    raw_queue_create                         0x1a002335   Thumb Code    58  raw-os.o(.text)
    raw_queue_front_post                     0x1a00236f   Thumb Code    58  raw-os.o(.text)
    raw_queue_end_post                       0x1a0023a9   Thumb Code    62  raw-os.o(.text)
    raw_queue_post_notify                    0x1a0023e7   Thumb Code    54  raw-os.o(.text)
    raw_queue_all_post                       0x1a00241d   Thumb Code    50  raw-os.o(.text)
    raw_queue_send_notify                    0x1a00244f   Thumb Code   104  raw-os.o(.text)
    raw_queue_receive                        0x1a0024b7   Thumb Code   270  raw-os.o(.text)
    raw_queue_full_check                     0x1a0025c5   Thumb Code   114  raw-os.o(.text)
    raw_queue_flush                          0x1a002637   Thumb Code   110  raw-os.o(.text)
    raw_queue_delete                         0x1a0026a5   Thumb Code   128  raw-os.o(.text)
    raw_queue_get_information                0x1a002725   Thumb Code   140  raw-os.o(.text)
    raw_semaphore_put_notify                 0x1a0027b1   Thumb Code    52  raw-os.o(.text)
    raw_semaphore_put_all                    0x1a0027e5   Thumb Code    44  raw-os.o(.text)
    raw_semphore_send_notify                 0x1a002811   Thumb Code   104  raw-os.o(.text)
    raw_semaphore_delete                     0x1a002879   Thumb Code   128  raw-os.o(.text)
    raw_stack_check                          0x1a0028f9   Thumb Code    56  raw-os.o(.text)
    raw_finish_int                           0x1a002931   Thumb Code    56  raw-os.o(.text)
    raw_time_tick                            0x1a002969   Thumb Code    54  raw-os.o(.text)
    raw_enter_interrupt                      0x1a00299f   Thumb Code    34  raw-os.o(.text)
    raw_system_time_get                      0x1a0029c1   Thumb Code     6  raw-os.o(.text)
    raw_system_time_set                      0x1a0029c7   Thumb Code    60  raw-os.o(.text)
    raw_task_semaphore_set                   0x1a002a03   Thumb Code     6  raw-os.o(.text)
    raw_task_semaphore_delete                0x1a002a09   Thumb Code     4  raw-os.o(.text)
    raw_timer_activate                       0x1a002a0d   Thumb Code   118  raw-os.o(.text)
    raw_timer_create                         0x1a002a83   Thumb Code    88  raw-os.o(.text)
    raw_timer_change                         0x1a002adb   Thumb Code    92  raw-os.o(.text)
    raw_timer_deactivate                     0x1a002b37   Thumb Code   100  raw-os.o(.text)
    raw_timer_delete                         0x1a002b9b   Thumb Code   120  raw-os.o(.text)
    fifo_init                                0x1a002d71   Thumb Code    66  fifo.o(.text)
    fifo_in                                  0x1a002db3   Thumb Code    92  fifo.o(.text)
    fifo_out_peek                            0x1a002e4d   Thumb Code    38  fifo.o(.text)
    fifo_out                                 0x1a002e73   Thumb Code    50  fifo.o(.text)
    fifo_out_all                             0x1a002ea5   Thumb Code    62  fifo.o(.text)
    check_malloc_test                        0x1a002f4b   Thumb Code     4  raw_malloc.o(.text)
    searchFreeArea                           0x1a002f4f   Thumb Code    68  raw_malloc.o(.text)
    appendFreeArea                           0x1a002f93   Thumb Code    60  raw_malloc.o(.text)
    raw_malloc                               0x1a00317f   Thumb Code    50  raw_malloc.o(.text)
    raw_free                                 0x1a0031b1   Thumb Code    46  raw_malloc.o(.text)
    raw_calloc                               0x1a0031df   Thumb Code    66  raw_malloc.o(.text)
    raw_realloc                              0x1a003221   Thumb Code    56  raw_malloc.o(.text)
    raw_malloc_init                          0x1a003259   Thumb Code    50  raw_malloc.o(.text)
    system_page_table_get                    0x1a0034a3   Thumb Code     4  raw_page.o(.text)
    raw_page_allocate                        0x1a0034a7   Thumb Code    50  raw_page.o(.text)
    raw_page_free                            0x1a0034d9   Thumb Code    88  raw_page.o(.text)
    raw_page_init                            0x1a003531   Thumb Code   106  raw_page.o(.text)
    OS_CPU_SR_Save                           0x1a003769   Thumb Code     0  cpu.o(.text)
    OS_CPU_SR_Restore                        0x1a003771   Thumb Code     0  cpu.o(.text)
    CPU_IntDis                               0x1a003777   Thumb Code     0  cpu.o(.text)
    CPU_IntEn                                0x1a00377b   Thumb Code     0  cpu.o(.text)
    raw_start_first_task                     0x1a00377f   Thumb Code     0  cpu.o(.text)
    port_task_switch                         0x1a0037a7   Thumb Code     0  cpu.o(.text)
    raw_int_switch                           0x1a0037b1   Thumb Code     0  cpu.o(.text)
    PendSV_Handler                           0x1a0037bb   Thumb Code     0  cpu.o(.text)
    port_stack_init                          0x1a00380d   Thumb Code   324  port.o(.text)
    raw_os_init_hook                         0x1a003951   Thumb Code     2  port_hook.o(.text)
    raw_task_delete_hook                     0x1a003953   Thumb Code     2  port_hook.o(.text)
    raw_task_abort_hook                      0x1a003955   Thumb Code     2  port_hook.o(.text)
    raw_idle_task_hook                       0x1a003957   Thumb Code     2  port_hook.o(.text)
    raw_task_switch_hook                     0x1a003959   Thumb Code     2  port_hook.o(.text)
    raw_tick_hook                            0x1a00395b   Thumb Code     2  port_hook.o(.text)
    task_create_hook                         0x1a00395d   Thumb Code     2  port_hook.o(.text)
    raw_idle_coroutine_hook                  0x1a00395f   Thumb Code     4  port_hook.o(.text)
    raw_memcpy                               0x1a003963   Thumb Code    74  user_extension.o(.text)
    raw_memset                               0x1a0039ad   Thumb Code    62  user_extension.o(.text)
    Reset_Handler                            0x1a0039ed   Thumb Code     8  keil_startup_lpc18xx43xx.o(.text)
    NMI_Handler                              0x1a0039f5   Thumb Code     2  keil_startup_lpc18xx43xx.o(.text)
    HardFault_Handler                        0x1a0039f7   Thumb Code     2  keil_startup_lpc18xx43xx.o(.text)
    MemManage_Handler                        0x1a0039f9   Thumb Code     2  keil_startup_lpc18xx43xx.o(.text)
    BusFault_Handler                         0x1a0039fb   Thumb Code     2  keil_startup_lpc18xx43xx.o(.text)
    UsageFault_Handler                       0x1a0039fd   Thumb Code     2  keil_startup_lpc18xx43xx.o(.text)
    SVC_Handler                              0x1a0039ff   Thumb Code     2  keil_startup_lpc18xx43xx.o(.text)
    DebugMon_Handler                         0x1a003a01   Thumb Code     2  keil_startup_lpc18xx43xx.o(.text)
    UnHandled_Vector                         0x1a003a07   Thumb Code     2  keil_startup_lpc18xx43xx.o(.text)
    ADC0_IRQHandler                          0x1a003a09   Thumb Code     0  keil_startup_lpc18xx43xx.o(.text)
    ADC1_IRQHandler                          0x1a003a09   Thumb Code     0  keil_startup_lpc18xx43xx.o(.text)
    ADCHS_IRQHandler                         0x1a003a09   Thumb Code     0  keil_startup_lpc18xx43xx.o(.text)
    ATIMER_IRQHandler                        0x1a003a09   Thumb Code     0  keil_startup_lpc18xx43xx.o(.text)
    CAN0_IRQHandler                          0x1a003a09   Thumb Code     0  keil_startup_lpc18xx43xx.o(.text)
    CAN1_IRQHandler                          0x1a003a09   Thumb Code     0  keil_startup_lpc18xx43xx.o(.text)
    DAC_IRQHandler                           0x1a003a09   Thumb Code     0  keil_startup_lpc18xx43xx.o(.text)
    DMA_IRQHandler                           0x1a003a09   Thumb Code     0  keil_startup_lpc18xx43xx.o(.text)
    ETH_IRQHandler                           0x1a003a09   Thumb Code     0  keil_startup_lpc18xx43xx.o(.text)
    EVRT_IRQHandler                          0x1a003a09   Thumb Code     0  keil_startup_lpc18xx43xx.o(.text)
    FLASHEEPROM_IRQHandler                   0x1a003a09   Thumb Code     0  keil_startup_lpc18xx43xx.o(.text)
    GINT0_IRQHandler                         0x1a003a09   Thumb Code     0  keil_startup_lpc18xx43xx.o(.text)
    GINT1_IRQHandler                         0x1a003a09   Thumb Code     0  keil_startup_lpc18xx43xx.o(.text)
    GPIO0_IRQHandler                         0x1a003a09   Thumb Code     0  keil_startup_lpc18xx43xx.o(.text)
    GPIO1_IRQHandler                         0x1a003a09   Thumb Code     0  keil_startup_lpc18xx43xx.o(.text)
    GPIO2_IRQHandler                         0x1a003a09   Thumb Code     0  keil_startup_lpc18xx43xx.o(.text)
    GPIO3_IRQHandler                         0x1a003a09   Thumb Code     0  keil_startup_lpc18xx43xx.o(.text)
    GPIO4_IRQHandler                         0x1a003a09   Thumb Code     0  keil_startup_lpc18xx43xx.o(.text)
    GPIO5_IRQHandler                         0x1a003a09   Thumb Code     0  keil_startup_lpc18xx43xx.o(.text)
    GPIO6_IRQHandler                         0x1a003a09   Thumb Code     0  keil_startup_lpc18xx43xx.o(.text)
    GPIO7_IRQHandler                         0x1a003a09   Thumb Code     0  keil_startup_lpc18xx43xx.o(.text)
    I2C0_IRQHandler                          0x1a003a09   Thumb Code     0  keil_startup_lpc18xx43xx.o(.text)
    I2C1_IRQHandler                          0x1a003a09   Thumb Code     0  keil_startup_lpc18xx43xx.o(.text)
    I2S0_IRQHandler                          0x1a003a09   Thumb Code     0  keil_startup_lpc18xx43xx.o(.text)
    I2S1_IRQHandler                          0x1a003a09   Thumb Code     0  keil_startup_lpc18xx43xx.o(.text)
    LCD_IRQHandler                           0x1a003a09   Thumb Code     0  keil_startup_lpc18xx43xx.o(.text)
    MCPWM_IRQHandler                         0x1a003a09   Thumb Code     0  keil_startup_lpc18xx43xx.o(.text)
    MX_CORE_IRQHandler                       0x1a003a09   Thumb Code     0  keil_startup_lpc18xx43xx.o(.text)
    QEI_IRQHandler                           0x1a003a09   Thumb Code     0  keil_startup_lpc18xx43xx.o(.text)
    RIT_IRQHandler                           0x1a003a09   Thumb Code     0  keil_startup_lpc18xx43xx.o(.text)
    RTC_IRQHandler                           0x1a003a09   Thumb Code     0  keil_startup_lpc18xx43xx.o(.text)
    SCT_IRQHandler                           0x1a003a09   Thumb Code     0  keil_startup_lpc18xx43xx.o(.text)
    SDIO_IRQHandler                          0x1a003a09   Thumb Code     0  keil_startup_lpc18xx43xx.o(.text)
    SGPIO_IRQHandler                         0x1a003a09   Thumb Code     0  keil_startup_lpc18xx43xx.o(.text)
    SPIFI_IRQHandler                         0x1a003a09   Thumb Code     0  keil_startup_lpc18xx43xx.o(.text)
    SPI_IRQHandler                           0x1a003a09   Thumb Code     0  keil_startup_lpc18xx43xx.o(.text)
    SSP0_IRQHandler                          0x1a003a09   Thumb Code     0  keil_startup_lpc18xx43xx.o(.text)
    SSP1_IRQHandler                          0x1a003a09   Thumb Code     0  keil_startup_lpc18xx43xx.o(.text)
    TIMER0_IRQHandler                        0x1a003a09   Thumb Code     0  keil_startup_lpc18xx43xx.o(.text)
    TIMER1_IRQHandler                        0x1a003a09   Thumb Code     0  keil_startup_lpc18xx43xx.o(.text)
    TIMER2_IRQHandler                        0x1a003a09   Thumb Code     0  keil_startup_lpc18xx43xx.o(.text)
    TIMER3_IRQHandler                        0x1a003a09   Thumb Code     0  keil_startup_lpc18xx43xx.o(.text)
    UART0_IRQHandler                         0x1a003a09   Thumb Code     0  keil_startup_lpc18xx43xx.o(.text)
    UART1_IRQHandler                         0x1a003a09   Thumb Code     0  keil_startup_lpc18xx43xx.o(.text)
    UART2_IRQHandler                         0x1a003a09   Thumb Code     0  keil_startup_lpc18xx43xx.o(.text)
    USB0_IRQHandler                          0x1a003a09   Thumb Code     0  keil_startup_lpc18xx43xx.o(.text)
    USB1_IRQHandler                          0x1a003a09   Thumb Code     0  keil_startup_lpc18xx43xx.o(.text)
    WDT_IRQHandler                           0x1a003a09   Thumb Code     0  keil_startup_lpc18xx43xx.o(.text)
    __user_initial_stackheap                 0x1a003a0d   Thumb Code     0  keil_startup_lpc18xx43xx.o(.text)
    SystemInit                               0x1a003a31   Thumb Code    20  sysinit.o(.text)
    scu_pinmux                               0x1a003a4d   Thumb Code    16  lpc43xx_scu.o(.text)
    emc_init                                 0x1a003a61   Thumb Code   944  lpc43xx_sdram.o(.text)
    sdram_init                               0x1a003e11   Thumb Code   144  lpc43xx_sdram.o(.text)
    k9f_init                                 0x1a003ebd   Thumb Code    88  k9f1g08.o(.text)
    k9f_id_read                              0x1a003f15   Thumb Code    42  k9f1g08.o(.text)
    k9f_bad_block_check_product              0x1a003f63   Thumb Code    96  k9f1g08.o(.text)
    k9f_block_erase                          0x1a003fc3   Thumb Code    40  k9f1g08.o(.text)
    k9f_page_read                            0x1a003feb   Thumb Code    60  k9f1g08.o(.text)
    k9f_block_read                           0x1a004027   Thumb Code    78  k9f1g08.o(.text)
    k9f_page_write                           0x1a004075   Thumb Code    64  k9f1g08.o(.text)
    k9f_block_write                          0x1a0040b5   Thumb Code   128  k9f1g08.o(.text)
    k9f_random_read                          0x1a004135   Thumb Code    40  k9f1g08.o(.text)
    k9f_random_continue_read                 0x1a00415d   Thumb Code    58  k9f1g08.o(.text)
    k9f_random_write                         0x1a004197   Thumb Code    60  k9f1g08.o(.text)
    k9f_random_continue_write                0x1a0041d3   Thumb Code    72  k9f1g08.o(.text)
    GPIO_SetDir                              0x1a004239   Thumb Code    22  lpc43xx_gpio.o(.text)
    GPIO_SetValue                            0x1a00424f   Thumb Code    12  lpc43xx_gpio.o(.text)
    GPIO_ClearValue                          0x1a00425b   Thumb Code    12  lpc43xx_gpio.o(.text)
    GPIO_ReadValue                           0x1a004267   Thumb Code    12  lpc43xx_gpio.o(.text)
    yaffs_nand_install_drv                   0x1a00439d   Thumb Code    34  yaffs_port_nand_drv.o(.text)
    SysTick_Handler                          0x1a0043dd   Thumb Code    18  main.o(.text)
    OS_CPU_SysTickInit                       0x1a0043ef   Thumb Code    48  main.o(.text)
    uart_3_recv                              0x1a00441f   Thumb Code    76  main.o(.text)
    UART3_IRQHandler                         0x1a00446b   Thumb Code    56  main.o(.text)
    shell_task                               0x1a0044a3   Thumb Code   184  main.o(.text)
    main                                     0x1a00455b   Thumb Code    54  main.o(.text)
    jpeg_demo_decompress                     0x1a0045ed   Thumb Code   258  libjpeg_test.o(.text)
    MCPMW_Init                               0x1a004749   Thumb Code    48  lpc43xx_lcd.o(.text)
    MCPWM_Set_Ratio                          0x1a004779   Thumb Code    12  lpc43xx_lcd.o(.text)
    LCD_init                                 0x1a004785   Thumb Code   638  lpc43xx_lcd.o(.text)
    LCD_enable                               0x1a004a03   Thumb Code    28  lpc43xx_lcd.o(.text)
    LCD_displayMemorySet                     0x1a004a1f   Thumb Code    10  lpc43xx_lcd.o(.text)
    LCD_backLightCtl                         0x1a004a29   Thumb Code    10  lpc43xx_lcd.o(.text)
    LCD_one_pixel_write                      0x1a004a33   Thumb Code    18  lpc43xx_lcd.o(.text)
    LCD_one_pixel_read                       0x1a004a45   Thumb Code    16  lpc43xx_lcd.o(.text)
    bmp_draw                                 0x1a004a79   Thumb Code   228  bmp_draw.o(.text)
    yaffs_load_attribs                       0x1a004c2f   Thumb Code    38  yaffs_attribs.o(.text)
    yaffs_load_attribs_oh                    0x1a004c55   Thumb Code    38  yaffs_attribs.o(.text)
    yaffs_load_current_time                  0x1a004c7b   Thumb Code    22  yaffs_attribs.o(.text)
    yaffs_attribs_init                       0x1a004c91   Thumb Code    30  yaffs_attribs.o(.text)
    yaffs_set_attribs                        0x1a004caf   Thumb Code    88  yaffs_attribs.o(.text)
    yaffs_get_attribs                        0x1a004d07   Thumb Code    76  yaffs_attribs.o(.text)
    yaffs_hweight8                           0x1a004d55   Thumb Code     6  yaffs_hweight.o(.text)
    yaffs_hweight32                          0x1a004d5b   Thumb Code    30  yaffs_hweight.o(.text)
    yaffs_qsort                              0x1a004def   Thumb Code   606  yaffs_qsort.o(.text)
    yaffs_set_trace                          0x1a00504d   Thumb Code     6  yaffsfs.o(.text)
    yaffs_get_trace                          0x1a005053   Thumb Code     6  yaffsfs.o(.text)
    yaffs_dup                                0x1a0054b5   Thumb Code    96  yaffsfs.o(.text)
    yaffs_open_sharing_reldir                0x1a005655   Thumb Code   966  yaffsfs.o(.text)
    yaffs_open_sharing_reldev                0x1a005a1b   Thumb Code    28  yaffsfs.o(.text)
    yaffs_open_sharing                       0x1a005a37   Thumb Code    18  yaffsfs.o(.text)
    yaffs_open_reldir                        0x1a005a49   Thumb Code    12  yaffsfs.o(.text)
    yaffs_open_reldev                        0x1a005a55   Thumb Code    28  yaffsfs.o(.text)
    yaffs_open                               0x1a005a71   Thumb Code    10  yaffsfs.o(.text)
    yaffs_fsync                              0x1a005abb   Thumb Code     4  yaffsfs.o(.text)
    yaffs_flush                              0x1a005abf   Thumb Code     2  yaffsfs.o(.text)
    yaffs_fdatasync                          0x1a005ac1   Thumb Code     4  yaffsfs.o(.text)
    yaffs_close                              0x1a005ac5   Thumb Code    86  yaffsfs.o(.text)
    yaffs_read                               0x1a005c57   Thumb Code    12  yaffsfs.o(.text)
    yaffs_pread                              0x1a005c63   Thumb Code    12  yaffsfs.o(.text)
    yaffs_write                              0x1a005dc5   Thumb Code    12  yaffsfs.o(.text)
    yaffs_pwrite                             0x1a005dd1   Thumb Code    12  yaffsfs.o(.text)
    yaffs_truncate_reldir                    0x1a005ddd   Thumb Code   208  yaffsfs.o(.text)
    yaffs_truncate_reldev                    0x1a005ead   Thumb Code    18  yaffsfs.o(.text)
    yaffs_truncate                           0x1a005ebf   Thumb Code     8  yaffsfs.o(.text)
    yaffs_ftruncate                          0x1a005ec7   Thumb Code   108  yaffsfs.o(.text)
    yaffs_lseek                              0x1a005f33   Thumb Code   134  yaffsfs.o(.text)
    yaffs_unlink_reldir                      0x1a0060bb   Thumb Code     4  yaffsfs.o(.text)
    yaffs_unlink_reldev                      0x1a0060bf   Thumb Code    20  yaffsfs.o(.text)
    yaffs_unlink                             0x1a0060d3   Thumb Code     6  yaffsfs.o(.text)
    yaffs_rename_reldir                      0x1a0060d9   Thumb Code   460  yaffsfs.o(.text)
    yaffs_rename_reldev                      0x1a0062a5   Thumb Code    18  yaffsfs.o(.text)
    yaffs_rename                             0x1a0062b7   Thumb Code     8  yaffsfs.o(.text)
    yaffs_stat_reldir                        0x1a0063f5   Thumb Code     4  yaffsfs.o(.text)
    yaffs_lstat_reldir                       0x1a0063f9   Thumb Code     4  yaffsfs.o(.text)
    yaffs_stat_reldev                        0x1a0063fd   Thumb Code    20  yaffsfs.o(.text)
    yaffs_lstat_reldev                       0x1a006411   Thumb Code    20  yaffsfs.o(.text)
    yaffs_stat                               0x1a006425   Thumb Code     8  yaffsfs.o(.text)
    yaffs_lstat                              0x1a00642d   Thumb Code     8  yaffsfs.o(.text)
    yaffs_fstat                              0x1a006435   Thumb Code    72  yaffsfs.o(.text)
    yaffs_utime_reldir                       0x1a0064d1   Thumb Code   134  yaffsfs.o(.text)
    yaffs_utime_reldev                       0x1a006557   Thumb Code    18  yaffsfs.o(.text)
    yaffs_utime                              0x1a006569   Thumb Code     8  yaffsfs.o(.text)
    yaffs_futime                             0x1a006571   Thumb Code    48  yaffsfs.o(.text)
    yaffs_setxattr_reldir                    0x1a006671   Thumb Code    18  yaffsfs.o(.text)
    yaffs_setxattr_reldev                    0x1a006683   Thumb Code    32  yaffsfs.o(.text)
    yaffs_setxattr                           0x1a0066a3   Thumb Code    24  yaffsfs.o(.text)
    yaffs_lsetxattr_reldir                   0x1a0066bb   Thumb Code    18  yaffsfs.o(.text)
    yaffs_lsetxattr_reldev                   0x1a0066cd   Thumb Code    32  yaffsfs.o(.text)
    yaffs_lsetxattr                          0x1a0066ed   Thumb Code    24  yaffsfs.o(.text)
    yaffs_fsetxattr                          0x1a006705   Thumb Code   114  yaffsfs.o(.text)
    yaffs_getxattr_reldir                    0x1a006843   Thumb Code    16  yaffsfs.o(.text)
    yaffs_getxattr_reldev                    0x1a006853   Thumb Code    28  yaffsfs.o(.text)
    yaffs_getxattr                           0x1a00686f   Thumb Code    18  yaffsfs.o(.text)
    yaffs_lgetxattr_reldir                   0x1a006881   Thumb Code    16  yaffsfs.o(.text)
    yaffs_lgetxattr_reldev                   0x1a006891   Thumb Code    28  yaffsfs.o(.text)
    yaffs_lgetxattr                          0x1a0068ad   Thumb Code    18  yaffsfs.o(.text)
    yaffs_fgetxattr                          0x1a0068bf   Thumb Code   110  yaffsfs.o(.text)
    yaffs_listxattr_reldir                   0x1a0069e7   Thumb Code    12  yaffsfs.o(.text)
    yaffs_listxattr_reldev                   0x1a0069f3   Thumb Code    22  yaffsfs.o(.text)
    yaffs_listxattr                          0x1a006a09   Thumb Code    10  yaffsfs.o(.text)
    yaffs_llistxattr_reldir                  0x1a006a13   Thumb Code    12  yaffsfs.o(.text)
    yaffs_llistxattr_reldev                  0x1a006a1f   Thumb Code    22  yaffsfs.o(.text)
    yaffs_llistxattr                         0x1a006a35   Thumb Code    10  yaffsfs.o(.text)
    yaffs_flistxattr                         0x1a006a3f   Thumb Code    92  yaffsfs.o(.text)
    yaffs_removexattr_reldir                 0x1a006b53   Thumb Code     4  yaffsfs.o(.text)
    yaffs_removexattr_reldev                 0x1a006b57   Thumb Code    18  yaffsfs.o(.text)
    yaffs_removexattr                        0x1a006b69   Thumb Code     8  yaffsfs.o(.text)
    yaffs_lremovexattr_reldir                0x1a006b71   Thumb Code     4  yaffsfs.o(.text)
    yaffs_lremovexattr_reldev                0x1a006b75   Thumb Code    18  yaffsfs.o(.text)
    yaffs_lremovexattr                       0x1a006b87   Thumb Code     8  yaffsfs.o(.text)
    yaffs_fremovexattr                       0x1a006b8f   Thumb Code    86  yaffsfs.o(.text)
    yaffs_access_reldir                      0x1a006c13   Thumb Code   218  yaffsfs.o(.text)
    yaffs_access_reldev                      0x1a006ced   Thumb Code    18  yaffsfs.o(.text)
    yaffs_access                             0x1a006cff   Thumb Code     8  yaffsfs.o(.text)
    yaffs_chmod_reldir                       0x1a006d07   Thumb Code   172  yaffsfs.o(.text)
    yaffs_chmod_reldev                       0x1a006db3   Thumb Code    18  yaffsfs.o(.text)
    yaffs_chmod                              0x1a006dc5   Thumb Code     8  yaffsfs.o(.text)
    yaffs_fchmod                             0x1a006dcd   Thumb Code    76  yaffsfs.o(.text)
    yaffs_mkdir_reldir                       0x1a006e19   Thumb Code   244  yaffsfs.o(.text)
    yaffs_mkdir_reldev                       0x1a006f0d   Thumb Code    18  yaffsfs.o(.text)
    yaffs_mkdir                              0x1a006f1f   Thumb Code     8  yaffsfs.o(.text)
    yaffs_rmdir_reldir                       0x1a006f27   Thumb Code    98  yaffsfs.o(.text)
    yaffs_rmdir_reldev                       0x1a006f89   Thumb Code    18  yaffsfs.o(.text)
    yaffs_rmdir                              0x1a006f9b   Thumb Code     6  yaffsfs.o(.text)
    yaffs_getdev                             0x1a006fa1   Thumb Code    10  yaffsfs.o(.text)
    yaffs_mount_common                       0x1a006fab   Thumb Code   176  yaffsfs.o(.text)
    yaffs_mount3_reldev                      0x1a00705b   Thumb Code     8  yaffsfs.o(.text)
    yaffs_mount3                             0x1a007063   Thumb Code    10  yaffsfs.o(.text)
    yaffs_mount2_reldev                      0x1a00706d   Thumb Code     8  yaffsfs.o(.text)
    yaffs_mount2                             0x1a007075   Thumb Code    10  yaffsfs.o(.text)
    yaffs_mount_reldev                       0x1a00707f   Thumb Code     8  yaffsfs.o(.text)
    yaffs_mount                              0x1a007087   Thumb Code    10  yaffsfs.o(.text)
    yaffs_sync_common                        0x1a007091   Thumb Code   126  yaffsfs.o(.text)
    yaffs_sync_reldev                        0x1a00710f   Thumb Code     4  yaffsfs.o(.text)
    yaffs_sync                               0x1a007113   Thumb Code     6  yaffsfs.o(.text)
    yaffs_do_background_gc                   0x1a007189   Thumb Code     8  yaffsfs.o(.text)
    yaffs_do_background_gc_reldev            0x1a007191   Thumb Code     6  yaffsfs.o(.text)
    yaffs_remount_common                     0x1a007197   Thumb Code   144  yaffsfs.o(.text)
    yaffs_remount_reldev                     0x1a007227   Thumb Code     8  yaffsfs.o(.text)
    yaffs_remount                            0x1a00722f   Thumb Code    10  yaffsfs.o(.text)
    yaffs_unmount2_common                    0x1a007239   Thumb Code   142  yaffsfs.o(.text)
    yaffs_unmount2_reldev                    0x1a0072c7   Thumb Code     6  yaffsfs.o(.text)
    yaffs_unmount2                           0x1a0072cd   Thumb Code     8  yaffsfs.o(.text)
    yaffs_unmount_reldev                     0x1a0072d5   Thumb Code     4  yaffsfs.o(.text)
    yaffs_unmount                            0x1a0072d9   Thumb Code     4  yaffsfs.o(.text)
    yaffs_format_common                      0x1a0072dd   Thumb Code   182  yaffsfs.o(.text)
    yaffs_format_reldev                      0x1a007393   Thumb Code    16  yaffsfs.o(.text)
    yaffs_format                             0x1a0073a3   Thumb Code    50  yaffsfs.o(.text)
    yaffs_freespace_common                   0x1a0073d5   Thumb Code   106  yaffsfs.o(.text)
    yaffs_freespace_reldev                   0x1a00743f   Thumb Code     4  yaffsfs.o(.text)
    yaffs_freespace                          0x1a007443   Thumb Code     6  yaffsfs.o(.text)
    yaffs_totalspace_common                  0x1a007449   Thumb Code   116  yaffsfs.o(.text)
    yaffs_totalspace_reldev                  0x1a0074bd   Thumb Code     4  yaffsfs.o(.text)
    yaffs_totalspace                         0x1a0074c1   Thumb Code     6  yaffsfs.o(.text)
    yaffs_inodecount_common                  0x1a0074c7   Thumb Code    98  yaffsfs.o(.text)
    yaffs_inodecount_reldev                  0x1a007529   Thumb Code     4  yaffsfs.o(.text)
    yaffs_inodecount                         0x1a00752d   Thumb Code     6  yaffsfs.o(.text)
    yaffs_add_device                         0x1a00759f   Thumb Code    70  yaffsfs.o(.text)
    yaffs_remove_device                      0x1a0075e5   Thumb Code    14  yaffsfs.o(.text)
    yaffs_dev_rewind                         0x1a0075f3   Thumb Code    14  yaffsfs.o(.text)
    yaffs_next_dev                           0x1a007601   Thumb Code    30  yaffsfs.o(.text)
    yaffs_opendir_reldir                     0x1a00761f   Thumb Code    28  yaffsfs.o(.text)
    yaffs_opendir                            0x1a00763b   Thumb Code     6  yaffsfs.o(.text)
    yaffsfs_readdir_no_lock                  0x1a007641   Thumb Code   140  yaffsfs.o(.text)
    yaffs_readdir                            0x1a0076cd   Thumb Code    24  yaffsfs.o(.text)
    yaffs_rewinddir                          0x1a0076e5   Thumb Code    22  yaffsfs.o(.text)
    yaffs_readdir_fd                         0x1a0076fb   Thumb Code    40  yaffsfs.o(.text)
    yaffs_rewinddir_fd                       0x1a007723   Thumb Code    36  yaffsfs.o(.text)
    yaffs_closedir                           0x1a007747   Thumb Code    24  yaffsfs.o(.text)
    yaffs_symlink_reldir                     0x1a00775f   Thumb Code   248  yaffsfs.o(.text)
    yaffs_symlink                            0x1a007857   Thumb Code     8  yaffsfs.o(.text)
    yaffs_readlink_reldir                    0x1a00785f   Thumb Code   172  yaffsfs.o(.text)
    yaffs_readlink                           0x1a00790b   Thumb Code    10  yaffsfs.o(.text)
    yaffs_link_reldir                        0x1a007915   Thumb Code   352  yaffsfs.o(.text)
    yaffs_link                               0x1a007a75   Thumb Code     8  yaffsfs.o(.text)
    yaffs_mknod_reldir                       0x1a007a7d   Thumb Code    16  yaffsfs.o(.text)
    yaffs_mknod_reldev                       0x1a007a8d   Thumb Code    16  yaffsfs.o(.text)
    yaffs_mknod                              0x1a007a9d   Thumb Code    16  yaffsfs.o(.text)
    yaffs_n_handles_reldir                   0x1a007aad   Thumb Code    96  yaffsfs.o(.text)
    yaffs_n_handles                          0x1a007b0d   Thumb Code     6  yaffsfs.o(.text)
    yaffs_get_error                          0x1a007b13   Thumb Code     4  yaffsfs.o(.text)
    yaffs_set_error                          0x1a007b17   Thumb Code    10  yaffsfs.o(.text)
    yaffs_dump_dev_reldir                    0x1a007b21   Thumb Code     4  yaffsfs.o(.text)
    yaffs_dump_dev                           0x1a007b25   Thumb Code     4  yaffsfs.o(.text)
    yaffs_alloc_raw_tnode                    0x1a007d71   Thumb Code    54  yaffs_allocator.o(.text)
    yaffs_free_raw_tnode                     0x1a007da7   Thumb Code    36  yaffs_allocator.o(.text)
    yaffs_alloc_raw_obj                      0x1a007e59   Thumb Code    84  yaffs_allocator.o(.text)
    yaffs_free_raw_obj                       0x1a007ead   Thumb Code    40  yaffs_allocator.o(.text)
    yaffs_deinit_raw_tnodes_and_objs         0x1a007ed5   Thumb Code    74  yaffs_allocator.o(.text)
    yaffs_init_raw_tnodes_and_objs           0x1a007f1f   Thumb Code    74  yaffs_allocator.o(.text)
    yaffs_verify_chunk_bit_id                0x1a008109   Thumb Code    56  yaffs_bitmap.o(.text)
    yaffs_clear_chunk_bits                   0x1a008141   Thumb Code    20  yaffs_bitmap.o(.text)
    yaffs_clear_chunk_bit                    0x1a008155   Thumb Code    54  yaffs_bitmap.o(.text)
    yaffs_set_chunk_bit                      0x1a00818b   Thumb Code    52  yaffs_bitmap.o(.text)
    yaffs_check_chunk_bit                    0x1a0081bf   Thumb Code    54  yaffs_bitmap.o(.text)
    yaffs_still_some_chunks                  0x1a0081f5   Thumb Code    36  yaffs_bitmap.o(.text)
    yaffs_count_chunk_bits                   0x1a008219   Thumb Code    42  yaffs_bitmap.o(.text)
    yaffs2_checkpt_open                      0x1a008493   Thumb Code   218  yaffs_checkptrw.o(.text)
    yaffs2_get_checkpt_sum                   0x1a00856d   Thumb Code    14  yaffs_checkptrw.o(.text)
    yaffs2_checkpt_wr                        0x1a00865b   Thumb Code   560  yaffs_checkptrw.o(.text)
    yaffs2_checkpt_rd                        0x1a00888b   Thumb Code   300  yaffs_checkptrw.o(.text)
    yaffs_checkpt_close                      0x1a0089b7   Thumb Code   182  yaffs_checkptrw.o(.text)
    yaffs2_checkpt_invalidate_stream         0x1a008a6d   Thumb Code    30  yaffs_checkptrw.o(.text)
    yaffs_ecc_calc                           0x1a008bd1   Thumb Code   186  yaffs_ecc.o(.text)
    yaffs_ecc_correct                        0x1a008c8b   Thumb Code   234  yaffs_ecc.o(.text)
    yaffs_ecc_calc_other                     0x1a008d75   Thumb Code    52  yaffs_ecc.o(.text)
    yaffs_ecc_correct_other                  0x1a008da9   Thumb Code   158  yaffs_ecc.o(.text)
    yaffs_addr_to_chunk                      0x1a008e89   Thumb Code    44  yaffs_guts.o(.text)
    yaffs_get_temp_buffer                    0x1a008eb5   Thumb Code    96  yaffs_guts.o(.text)
    yaffs_release_temp_buffer                0x1a008f15   Thumb Code    84  yaffs_guts.o(.text)
    yaffs_handle_chunk_error                 0x1a008f69   Thumb Code    62  yaffs_guts.o(.text)
    yaffs_skip_rest_of_block                 0x1a008fa7   Thumb Code    44  yaffs_guts.o(.text)
    yaffs_check_ff                           0x1a00908b   Thumb Code    22  yaffs_guts.o(.text)
    yaffs_block_became_dirty                 0x1a0090f7   Thumb Code   840  yaffs_guts.o(.text)
    yaffs_chunk_del                          0x1a00943f   Thumb Code   254  yaffs_guts.o(.text)
    yaffs_root                               0x1a00953d   Thumb Code     6  yaffs_guts.o(.text)
    yaffs_lost_n_found                       0x1a009543   Thumb Code     6  yaffs_guts.o(.text)
    yaffs_check_alloc_available              0x1a009549   Thumb Code    36  yaffs_guts.o(.text)
    yaffs_set_obj_name                       0x1a009a35   Thumb Code    72  yaffs_guts.o(.text)
    yaffs_set_obj_name_from_oh               0x1a009a7d   Thumb Code     4  yaffs_guts.o(.text)
    yaffs_max_file_size                      0x1a009a81   Thumb Code     6  yaffs_guts.o(.text)
    yaffs_get_tnode                          0x1a009a87   Thumb Code    40  yaffs_guts.o(.text)
    yaffs_get_group_base                     0x1a009b05   Thumb Code    60  yaffs_guts.o(.text)
    yaffs_find_tnode_0                       0x1a009b41   Thumb Code    68  yaffs_guts.o(.text)
    yaffs_add_find_tnode_0                   0x1a009b85   Thumb Code   212  yaffs_guts.o(.text)
    yaffs_find_chunk_in_file                 0x1a009cbf   Thumb Code    68  yaffs_guts.o(.text)
    yaffs_put_chunk_in_file                  0x1a009d03   Thumb Code   490  yaffs_guts.o(.text)
    yaffs_add_obj_to_dir                     0x1a009fdf   Thumb Code   172  yaffs_guts.o(.text)
    yaffs_oh_size_load                       0x1a00a08b   Thumb Code    12  yaffs_guts.o(.text)
    yaffs_clone_str                          0x1a00a097   Thumb Code    44  yaffs_guts.o(.text)
    yaffs_find_by_number                     0x1a00a245   Thumb Code   254  yaffs_guts.o(.text)
    yaffs_update_oh                          0x1a00ab6b   Thumb Code   790  yaffs_guts.o(.text)
    yaffs_get_obj_name                       0x1a00ae81   Thumb Code   144  yaffs_guts.o(.text)
    yaffs_find_by_name                       0x1a00af11   Thumb Code   186  yaffs_guts.o(.text)
    yaffs_flush_whole_cache                  0x1a00b1cd   Thumb Code    66  yaffs_guts.o(.text)
    yaffs_handle_defered_free                0x1a00b43f   Thumb Code    12  yaffs_guts.o(.text)
    yaffs_find_or_create_by_number           0x1a00b617   Thumb Code    32  yaffs_guts.o(.text)
    yaffs_update_dirty_dirs                  0x1a00b695   Thumb Code    90  yaffs_guts.o(.text)
    yaffs_is_non_empty_dir                   0x1a00b6ef   Thumb Code    28  yaffs_guts.o(.text)
    yaffs_resize_file_down                   0x1a00b8f1   Thumb Code   172  yaffs_guts.o(.text)
    yaffs_resize_file                        0x1a00b99d   Thumb Code   106  yaffs_guts.o(.text)
    yaffs_del_obj                            0x1a00ba7d   Thumb Code   112  yaffs_guts.o(.text)
    yaffs_create_file                        0x1a00bbcd   Thumb Code    36  yaffs_guts.o(.text)
    yaffs_create_dir                         0x1a00bbf1   Thumb Code    34  yaffs_guts.o(.text)
    yaffs_create_special                     0x1a00bc13   Thumb Code    42  yaffs_guts.o(.text)
    yaffs_create_symlink                     0x1a00bc3d   Thumb Code    40  yaffs_guts.o(.text)
    yaffs_get_equivalent_obj                 0x1a00bc65   Thumb Code    26  yaffs_guts.o(.text)
    yaffs_link_obj                           0x1a00bc7f   Thumb Code   142  yaffs_guts.o(.text)
    yaffs_bg_gc                              0x1a00be07   Thumb Code    56  yaffs_guts.o(.text)
    yaffs_set_xattrib                        0x1a00bf25   Thumb Code    22  yaffs_guts.o(.text)
    yaffs_remove_xattrib                     0x1a00bf3b   Thumb Code    18  yaffs_guts.o(.text)
    yaffs_get_xattrib                        0x1a00bf4d   Thumb Code     2  yaffs_guts.o(.text)
    yaffs_list_xattrib                       0x1a00bf4f   Thumb Code     8  yaffs_guts.o(.text)
    yaffs_file_rd                            0x1a00bf57   Thumb Code   234  yaffs_guts.o(.text)
    yaffs_do_file_wr                         0x1a00c041   Thumb Code   586  yaffs_guts.o(.text)
    yaffs_wr_file                            0x1a00c28b   Thumb Code    38  yaffs_guts.o(.text)
    yaffs_flush_file                         0x1a00c2b1   Thumb Code    60  yaffs_guts.o(.text)
    yaffs_retype_obj                         0x1a00c2ed   Thumb Code   162  yaffs_guts.o(.text)
    yaffs_unlinker                           0x1a00c477   Thumb Code    14  yaffs_guts.o(.text)
    yaffs_rename_obj                         0x1a00c485   Thumb Code   208  yaffs_guts.o(.text)
    yaffs_handle_shadowed_obj                0x1a00c555   Thumb Code    62  yaffs_guts.o(.text)
    yaffs_link_fixup                         0x1a00c593   Thumb Code    66  yaffs_guts.o(.text)
    yaffs_get_obj_length                     0x1a00c6c1   Thumb Code    46  yaffs_guts.o(.text)
    yaffs_get_obj_link_count                 0x1a00c6ef   Thumb Code    28  yaffs_guts.o(.text)
    yaffs_get_obj_inode                      0x1a00c70b   Thumb Code    10  yaffs_guts.o(.text)
    yaffs_get_obj_type                       0x1a00c715   Thumb Code    58  yaffs_guts.o(.text)
    yaffs_get_symlink_alias                  0x1a00c74f   Thumb Code    28  yaffs_guts.o(.text)
    yaffs_guts_ll_init                       0x1a00c7e5   Thumb Code   476  yaffs_guts.o(.text)
    yaffs_guts_format_dev                    0x1a00c9c1   Thumb Code    70  yaffs_guts.o(.text)
    yaffs_deinitialise                       0x1a00ca07   Thumb Code   142  yaffs_guts.o(.text)
    yaffs_guts_initialise                    0x1a00ca95   Thumb Code  1104  yaffs_guts.o(.text)
    yaffs_count_free_chunks                  0x1a00cee5   Thumb Code    64  yaffs_guts.o(.text)
    yaffs_get_n_free_chunks                  0x1a00cf25   Thumb Code    82  yaffs_guts.o(.text)
    yaffs_oh_to_size                         0x1a00cf77   Thumb Code     6  yaffs_guts.o(.text)
    yaffs_count_blocks_by_state              0x1a00cf7d   Thumb Code    74  yaffs_guts.o(.text)
    nval_del                                 0x1a00d33d   Thumb Code    56  yaffs_nameval.o(.text)
    nval_set                                 0x1a00d375   Thumb Code   160  yaffs_nameval.o(.text)
    nval_get                                 0x1a00d415   Thumb Code   100  yaffs_nameval.o(.text)
    nval_list                                0x1a00d479   Thumb Code   128  yaffs_nameval.o(.text)
    nval_hasvalues                           0x1a00d4f9   Thumb Code    18  yaffs_nameval.o(.text)
    yaffs_rd_chunk_tags_nand                 0x1a00d531   Thumb Code   128  yaffs_nand.o(.text)
    yaffs_wr_chunk_tags_nand                 0x1a00d5b1   Thumb Code   120  yaffs_nand.o(.text)
    yaffs_mark_bad                           0x1a00d629   Thumb Code    30  yaffs_nand.o(.text)
    yaffs_query_init_block_state             0x1a00d647   Thumb Code    18  yaffs_nand.o(.text)
    yaffs_erase_block                        0x1a00d659   Thumb Code    22  yaffs_nand.o(.text)
    yaffs_init_nand                          0x1a00d66f   Thumb Code    12  yaffs_nand.o(.text)
    yaffs_deinit_nand                        0x1a00d67b   Thumb Code    12  yaffs_nand.o(.text)
    yaffs_pack_tags2_tags_only               0x1a00d7d3   Thumb Code   124  yaffs_packedtags2.o(.text)
    yaffs_pack_tags2                         0x1a00d84f   Thumb Code    32  yaffs_packedtags2.o(.text)
    yaffs_unpack_tags2_tags_only             0x1a00d86f   Thumb Code   124  yaffs_packedtags2.o(.text)
    yaffs_unpack_tags2                       0x1a00d8eb   Thumb Code    86  yaffs_packedtags2.o(.text)
    yaffs_summary_deinit                     0x1a00d9b9   Thumb Code    36  yaffs_summary.o(.text)
    yaffs_summary_init                       0x1a00d9dd   Thumb Code    86  yaffs_summary.o(.text)
    yaffs_summary_read                       0x1a00db2f   Thumb Code   274  yaffs_summary.o(.text)
    yaffs_summary_add                        0x1a00dc41   Thumb Code   102  yaffs_summary.o(.text)
    yaffs_summary_fetch                      0x1a00dca7   Thumb Code    58  yaffs_summary.o(.text)
    yaffs_summary_gc                         0x1a00dce1   Thumb Code    84  yaffs_summary.o(.text)
    yaffs_calc_tags_ecc                      0x1a00ddf9   Thumb Code    52  yaffs_tagscompat.o(.text)
    yaffs_check_tags_ecc                     0x1a00de2d   Thumb Code    70  yaffs_tagscompat.o(.text)
    yaffs_tags_compat_install                0x1a00e335   Thumb Code    58  yaffs_tagscompat.o(.text)
    yaffs_tags_marshall_install              0x1a00e693   Thumb Code    58  yaffs_tagsmarshall.o(.text)
    yaffs_skip_verification                  0x1a00e80d   Thumb Code    18  yaffs_verify.o(.text)
    yaffs_verify_blk                         0x1a00e81f   Thumb Code   174  yaffs_verify.o(.text)
    yaffs_verify_collected_blk               0x1a00e8cd   Thumb Code    46  yaffs_verify.o(.text)
    yaffs_verify_blocks                      0x1a00e8fb   Thumb Code   292  yaffs_verify.o(.text)
    yaffs_verify_oh                          0x1a00ea1f   Thumb Code   224  yaffs_verify.o(.text)
    yaffs_verify_file                        0x1a00eaff   Thumb Code  1088  yaffs_verify.o(.text)
    yaffs_verify_link                        0x1a00ef3f   Thumb Code    10  yaffs_verify.o(.text)
    yaffs_verify_symlink                     0x1a00ef49   Thumb Code    10  yaffs_verify.o(.text)
    yaffs_verify_special                     0x1a00ef53   Thumb Code    10  yaffs_verify.o(.text)
    yaffs_verify_obj_in_dir                  0x1a00ef5d   Thumb Code   172  yaffs_verify.o(.text)
    yaffs_verify_dir                         0x1a00f009   Thumb Code   124  yaffs_verify.o(.text)
    yaffs_verify_obj                         0x1a00f085   Thumb Code   370  yaffs_verify.o(.text)
    yaffs_verify_objects                     0x1a00f1f7   Thumb Code    56  yaffs_verify.o(.text)
    yaffs_verify_free_chunks                 0x1a00f22f   Thumb Code    52  yaffs_verify.o(.text)
    yaffs_verify_file_sane                   0x1a00f263   Thumb Code     4  yaffs_verify.o(.text)
    yaffs1_scan                              0x1a00f481   Thumb Code  1560  yaffs_yaffs1.o(.text)
    yaffs_calc_oldest_dirty_seq              0x1a00fabd   Thumb Code    82  yaffs_yaffs2.o(.text)
    yaffs2_find_oldest_dirty_seq             0x1a00fb0f   Thumb Code    18  yaffs_yaffs2.o(.text)
    yaffs2_clear_oldest_dirty_seq            0x1a00fb21   Thumb Code    30  yaffs_yaffs2.o(.text)
    yaffs2_update_oldest_dirty_seq           0x1a00fb3f   Thumb Code    30  yaffs_yaffs2.o(.text)
    yaffs_block_ok_for_gc                    0x1a00fb5d   Thumb Code    40  yaffs_yaffs2.o(.text)
    yaffs2_find_refresh_block                0x1a00fb85   Thumb Code   114  yaffs_yaffs2.o(.text)
    yaffs2_checkpt_required                  0x1a00fbf7   Thumb Code    36  yaffs_yaffs2.o(.text)
    yaffs_calc_checkpt_blocks_required       0x1a00fc1b   Thumb Code   104  yaffs_yaffs2.o(.text)
    yaffs2_checkpt_invalidate                0x1a010285   Thumb Code    46  yaffs_yaffs2.o(.text)
    yaffs_checkpoint_save                    0x1a0102b3   Thumb Code    82  yaffs_yaffs2.o(.text)
    yaffs2_checkpt_restore                   0x1a010305   Thumb Code    74  yaffs_yaffs2.o(.text)
    yaffs2_handle_hole                       0x1a01034f   Thumb Code   802  yaffs_yaffs2.o(.text)
    yaffs2_scan_backwards                    0x1a010be9   Thumb Code   752  yaffs_yaffs2.o(.text)
    yaffsfs_SetError                         0x1a01126d   Thumb Code     6  yaffs_osglue.o(.text)
    yaffsfs_GetLastError                     0x1a011273   Thumb Code     6  yaffs_osglue.o(.text)
    yaffsfs_CheckMemRegion                   0x1a011279   Thumb Code    12  yaffs_osglue.o(.text)
    yaffsfs_Lock                             0x1a011285   Thumb Code    10  yaffs_osglue.o(.text)
    yaffsfs_Unlock                           0x1a01128f   Thumb Code     6  yaffs_osglue.o(.text)
    yaffsfs_LockInit                         0x1a011295   Thumb Code    12  yaffs_osglue.o(.text)
    yaffsfs_CurrentTime                      0x1a0112a1   Thumb Code     4  yaffs_osglue.o(.text)
    yaffsfs_malloc                           0x1a0112a5   Thumb Code     4  yaffs_osglue.o(.text)
    yaffsfs_free                             0x1a0112a9   Thumb Code     4  yaffs_osglue.o(.text)
    yaffsfs_OSInitialisation                 0x1a0112ad   Thumb Code     2  yaffs_osglue.o(.text)
    yaffs_bug_fn                             0x1a0112af   Thumb Code    22  yaffs_osglue.o(.text)
    strnlen                                  0x1a0112c5   Thumb Code    20  yaffs_osglue.o(.text)
    yaffs_start_up                           0x1a0112f1   Thumb Code    34  yaffscfg2k.o(.text)
    yaffs_nandsim_install_drv                0x1a01132d   Thumb Code   104  yaffs_startup.o(.text)
    jinit_arith_decoder                      0x1a011d55   Thumb Code   106  jdarith.o(.text)
    jpeg_calc_output_dimensions              0x1a011e75   Thumb Code   338  jdmaster.o(.text)
    jpeg_new_colormap                        0x1a0122fd   Thumb Code    86  jdmaster.o(.text)
    jinit_master_decompress                  0x1a012353   Thumb Code    40  jdmaster.o(.text)
    jpeg_core_output_dimensions              0x1a012385   Thumb Code   656  jdinput.o(.text)
    jinit_input_controller                   0x1a012b4f   Thumb Code    48  jdinput.o(.text)
    jpeg_resync_to_restart                   0x1a013ff1   Thumb Code   176  jdmarker.o(.text)
    jinit_marker_reader                      0x1a0140a1   Thumb Code    72  jdmarker.o(.text)
    jpeg_save_markers                        0x1a0140e9   Thumb Code   116  jdmarker.o(.text)
    jpeg_set_marker_processor                0x1a01415d   Thumb Code    54  jdmarker.o(.text)
    jinit_huff_decoder                       0x1a0155f5   Thumb Code   112  jdhuff.o(.text)
    jinit_d_main_controller                  0x1a01593d   Thumb Code   156  jdmainct.o(.text)
    jinit_d_coef_controller                  0x1a0162d1   Thumb Code   194  jdcoefct.o(.text)
    jinit_d_post_controller                  0x1a016619   Thumb Code   106  jdpostct.o(.text)
    jinit_inverse_dct                        0x1a016993   Thumb Code    86  jddctmgr.o(.text)
    jpeg_idct_float                          0x1a016a81   Thumb Code   812  jidctflt.o(.text)
    jpeg_idct_islow                          0x1a016dc1   Thumb Code   870  jidctint.o(.text)
    jpeg_idct_7x7                            0x1a017127   Thumb Code   672  jidctint.o(.text)
    jpeg_idct_6x6                            0x1a0173c7   Thumb Code   394  jidctint.o(.text)
    jpeg_idct_5x5                            0x1a017551   Thumb Code   366  jidctint.o(.text)
    jpeg_idct_4x4                            0x1a0176bf   Thumb Code   294  jidctint.o(.text)
    jpeg_idct_3x3                            0x1a0177e5   Thumb Code   212  jidctint.o(.text)
    jpeg_idct_2x2                            0x1a0178b9   Thumb Code   106  jidctint.o(.text)
    jpeg_idct_1x1                            0x1a017923   Thumb Code    32  jidctint.o(.text)
    jpeg_idct_9x9                            0x1a017943   Thumb Code   770  jidctint.o(.text)
    jpeg_idct_10x10                          0x1a017c45   Thumb Code   834  jidctint.o(.text)
    jpeg_idct_11x11                          0x1a017f87   Thumb Code  1218  jidctint.o(.text)
    jpeg_idct_12x12                          0x1a018449   Thumb Code   994  jidctint.o(.text)
    jpeg_idct_13x13                          0x1a01882b   Thumb Code  1388  jidctint.o(.text)
    jpeg_idct_14x14                          0x1a018d97   Thumb Code  1140  jidctint.o(.text)
    jpeg_idct_15x15                          0x1a01920b   Thumb Code  1250  jidctint.o(.text)
    jpeg_idct_16x16                          0x1a0196ed   Thumb Code  1512  jidctint.o(.text)
    jpeg_idct_16x8                           0x1a019cd5   Thumb Code  1274  jidctint.o(.text)
    jpeg_idct_14x7                           0x1a01a1cf   Thumb Code   906  jidctint.o(.text)
    jpeg_idct_12x6                           0x1a01a559   Thumb Code   712  jidctint.o(.text)
    jpeg_idct_10x5                           0x1a01a821   Thumb Code   578  jidctint.o(.text)
    jpeg_idct_8x4                            0x1a01aa63   Thumb Code   490  jidctint.o(.text)
    jpeg_idct_6x3                            0x1a01ac4d   Thumb Code   294  jidctint.o(.text)
    jpeg_idct_4x2                            0x1a01ad73   Thumb Code   188  jidctint.o(.text)
    jpeg_idct_2x1                            0x1a01ae2f   Thumb Code    52  jidctint.o(.text)
    jpeg_idct_8x16                           0x1a01ae63   Thumb Code  1158  jidctint.o(.text)
    jpeg_idct_7x14                           0x1a01b2e9   Thumb Code   940  jidctint.o(.text)
    jpeg_idct_6x12                           0x1a01b695   Thumb Code   722  jidctint.o(.text)
    jpeg_idct_5x10                           0x1a01b967   Thumb Code   608  jidctint.o(.text)
    jpeg_idct_4x8                            0x1a01bbc7   Thumb Code   604  jidctint.o(.text)
    jpeg_idct_3x6                            0x1a01be23   Thumb Code   298  jidctint.o(.text)
    jpeg_idct_2x4                            0x1a01bf4d   Thumb Code   216  jidctint.o(.text)
    jpeg_idct_1x2                            0x1a01c025   Thumb Code    52  jidctint.o(.text)
    jinit_upsampler                          0x1a01c21d   Thumb Code   276  jdsample.o(.text)
    jinit_color_deconverter                  0x1a01c759   Thumb Code   504  jdcolor.o(.text)
    jinit_1pass_quantizer                    0x1a01cef1   Thumb Code   122  jquant1.o(.text)
    jinit_2pass_quantizer                    0x1a01da85   Thumb Code   232  jquant2.o(.text)
    jinit_merged_upsampler                   0x1a01e0a1   Thumb Code    88  jdmerge.o(.text)
    jpeg_abort                               0x1a01e1a9   Thumb Code    50  jcomapi.o(.text)
    jpeg_destroy                             0x1a01e1db   Thumb Code    22  jcomapi.o(.text)
    jpeg_alloc_quant_table                   0x1a01e1f1   Thumb Code    20  jcomapi.o(.text)
    jpeg_alloc_huff_table                    0x1a01e205   Thumb Code    22  jcomapi.o(.text)
    jdiv_round_up                            0x1a01e21b   Thumb Code    10  jutils.o(.text)
    jround_up                                0x1a01e225   Thumb Code    16  jutils.o(.text)
    jcopy_sample_rows                        0x1a01e235   Thumb Code    38  jutils.o(.text)
    jcopy_block_row                          0x1a01e25b   Thumb Code    12  jutils.o(.text)
    jpeg_std_error                           0x1a01e35f   Thumb Code    46  jerror.o(.text)
    jinit_memory_mgr                         0x1a01eb75   Thumb Code   196  jmemmgr.o(.text)
    jpeg_idct_ifast                          0x1a01ec89   Thumb Code   718  jidctfst.o(.text)
    JFWRITE                                  0x1a01ef57   Thumb Code     4  jpeg_port.o(.text)
    JFREAD                                   0x1a01ef5b   Thumb Code    10  jpeg_port.o(.text)
    JFSEEK                                   0x1a01ef65   Thumb Code     4  jpeg_port.o(.text)
    JFCLOSE                                  0x1a01ef69   Thumb Code     4  jpeg_port.o(.text)
    jinit_write_bmp                          0x1a01f435   Thumb Code   174  wrbmp.o(.text)
    jpeg_CreateDecompress                    0x1a01f4f5   Thumb Code   160  jdapimin.o(.text)
    jpeg_destroy_decompress                  0x1a01f595   Thumb Code     4  jdapimin.o(.text)
    jpeg_abort_decompress                    0x1a01f599   Thumb Code     4  jdapimin.o(.text)
    jpeg_consume_input                       0x1a01f6f3   Thumb Code   122  jdapimin.o(.text)
    jpeg_read_header                         0x1a01f76d   Thumb Code    80  jdapimin.o(.text)
    jpeg_input_complete                      0x1a01f7bd   Thumb Code    40  jdapimin.o(.text)
    jpeg_has_multiple_scans                  0x1a01f7e5   Thumb Code    40  jdapimin.o(.text)
    jpeg_finish_decompress                   0x1a01f80d   Thumb Code   126  jdapimin.o(.text)
    jpeg_start_decompress                    0x1a01f923   Thumb Code   150  jdapistd.o(.text)
    jpeg_read_scanlines                      0x1a01f9b9   Thumb Code   114  jdapistd.o(.text)
    jpeg_read_raw_data                       0x1a01fa2b   Thumb Code   140  jdapistd.o(.text)
    jpeg_start_output                        0x1a01fab7   Thumb Code    68  jdapistd.o(.text)
    jpeg_finish_output                       0x1a01fafb   Thumb Code    98  jdapistd.o(.text)
    jpeg_get_small                           0x1a01fb5d   Thumb Code     6  jmemnobs.o(.text)
    jpeg_free_small                          0x1a01fb63   Thumb Code     6  jmemnobs.o(.text)
    jpeg_get_large                           0x1a01fb69   Thumb Code     6  jmemnobs.o(.text)
    jpeg_free_large                          0x1a01fb6f   Thumb Code     6  jmemnobs.o(.text)
    jpeg_mem_available                       0x1a01fb75   Thumb Code     4  jmemnobs.o(.text)
    jpeg_open_backing_store                  0x1a01fb79   Thumb Code    12  jmemnobs.o(.text)
    jpeg_mem_init                            0x1a01fb85   Thumb Code     4  jmemnobs.o(.text)
    jpeg_mem_term                            0x1a01fb89   Thumb Code     2  jmemnobs.o(.text)
    jpeg_stdio_src                           0x1a01fc3f   Thumb Code    74  jdatasrc.o(.text)
    jpeg_mem_src                             0x1a01fc89   Thumb Code    70  jdatasrc.o(.text)
    __2printf                                0x1a01fcf1   Thumb Code    20  noretval__2printf.o(.text)
    __2fprintf                               0x1a01fd09   Thumb Code    20  noretval__2fprintf.o(.text)
    __2sprintf                               0x1a01fd1d   Thumb Code    34  noretval__2sprintf.o(.text)
    _printf_pre_padding                      0x1a01fd45   Thumb Code    44  _printf_pad.o(.text)
    _printf_post_padding                     0x1a01fd71   Thumb Code    34  _printf_pad.o(.text)
    _printf_truncate_signed                  0x1a01fd93   Thumb Code    18  _printf_truncate.o(.text)
    _printf_truncate_unsigned                0x1a01fda5   Thumb Code    18  _printf_truncate.o(.text)
    _printf_str                              0x1a01fdb7   Thumb Code    82  _printf_str.o(.text)
    _printf_int_dec                          0x1a01fe09   Thumb Code   104  _printf_dec.o(.text)
    _printf_charcount                        0x1a01fe81   Thumb Code    40  _printf_charcount.o(.text)
    _printf_wctomb                           0x1a01fea9   Thumb Code   182  _printf_wctomb.o(.text)
    _printf_longlong_dec                     0x1a01ff65   Thumb Code   108  _printf_longlong_dec.o(.text)
    _printf_int_oct                          0x1a01ffe1   Thumb Code    74  _printf_oct_int.o(.text)
    _printf_longlong_oct                     0x1a01ffe1   Thumb Code     0  _printf_oct_int.o(.text)
    _printf_longlong_hex                     0x1a020035   Thumb Code    78  _printf_hex_int_ptr.o(.text)
    _printf_int_hex                          0x1a020083   Thumb Code    26  _printf_hex_int_ptr.o(.text)
    _printf_hex_ptr                          0x1a02009d   Thumb Code    16  _printf_hex_int_ptr.o(.text)
    __printf                                 0x1a0200b1   Thumb Code   388  __printf_flags_ss_wp.o(.text)
    __0sscanf                                0x1a020239   Thumb Code    52  __0sscanf.o(.text)
    _scanf_int                               0x1a020275   Thumb Code   332  _scanf_int.o(.text)
    _scanf_string                            0x1a0203c1   Thumb Code   224  _scanf_str.o(.text)
    exit                                     0x1a0204a1   Thumb Code    12  exit.o(.text)
    memcmp                                   0x1a0204ad   Thumb Code    88  memcmp.o(.text)
    strcpy                                   0x1a020505   Thumb Code    72  strcpy.o(.text)
    strncmp                                  0x1a02054d   Thumb Code   150  strncmp.o(.text)
    strcat                                   0x1a0205e3   Thumb Code    24  strcat.o(.text)
    __aeabi_memcpy                           0x1a0205fb   Thumb Code     0  rt_memcpy_v6.o(.text)
    __rt_memcpy                              0x1a0205fb   Thumb Code   138  rt_memcpy_v6.o(.text)
    _memcpy_lastbytes                        0x1a020661   Thumb Code     0  rt_memcpy_v6.o(.text)
    __aeabi_memcpy4                          0x1a020685   Thumb Code     0  rt_memcpy_w.o(.text)
    __aeabi_memcpy8                          0x1a020685   Thumb Code     0  rt_memcpy_w.o(.text)
    __rt_memcpy_w                            0x1a020685   Thumb Code   100  rt_memcpy_w.o(.text)
    _memcpy_lastbytes_aligned                0x1a0206cd   Thumb Code     0  rt_memcpy_w.o(.text)
    __aeabi_memset                           0x1a0206e9   Thumb Code    16  aeabi_memset.o(.text)
    __aeabi_memclr                           0x1a0206f9   Thumb Code     0  rt_memclr.o(.text)
    __rt_memclr                              0x1a0206f9   Thumb Code    68  rt_memclr.o(.text)
    _memset                                  0x1a0206fd   Thumb Code     0  rt_memclr.o(.text)
    __aeabi_memclr4                          0x1a02073d   Thumb Code     0  rt_memclr_w.o(.text)
    __aeabi_memclr8                          0x1a02073d   Thumb Code     0  rt_memclr_w.o(.text)
    __rt_memclr_w                            0x1a02073d   Thumb Code    78  rt_memclr_w.o(.text)
    _memset_w                                0x1a020741   Thumb Code     0  rt_memclr_w.o(.text)
    strncpy                                  0x1a02078b   Thumb Code    86  strncpy.o(.text)
    strcmp                                   0x1a0207e1   Thumb Code   128  strcmpv7m.o(.text)
    __use_two_region_memory                  0x1a020861   Thumb Code     2  heapauxi.o(.text)
    __rt_heap_escrow$2region                 0x1a020863   Thumb Code     2  heapauxi.o(.text)
    __rt_heap_expand$2region                 0x1a020865   Thumb Code     2  heapauxi.o(.text)
    _ll_udiv10                               0x1a020867   Thumb Code   138  lludiv10.o(.text)
    _printf_int_common                       0x1a0208f1   Thumb Code   178  _printf_intcommon.o(.text)
    _printf_char_common                      0x1a0209af   Thumb Code    32  _printf_char_common.o(.text)
    _sputc                                   0x1a0209d5   Thumb Code    10  _sputc.o(.text)
    _printf_cs_common                        0x1a0209df   Thumb Code    20  _printf_char.o(.text)
    _printf_char                             0x1a0209f3   Thumb Code    16  _printf_char.o(.text)
    _printf_string                           0x1a020a03   Thumb Code     8  _printf_char.o(.text)
    _printf_char_file                        0x1a020a0d   Thumb Code    32  _printf_char_file.o(.text)
    _printf_lcs_common                       0x1a020a31   Thumb Code    20  _printf_wchar.o(.text)
    _printf_wchar                            0x1a020a45   Thumb Code    16  _printf_wchar.o(.text)
    _printf_wstring                          0x1a020a55   Thumb Code     8  _printf_wchar.o(.text)
    _chval                                   0x1a020a5d   Thumb Code    28  _chval.o(.text)
    __vfscanf_char                           0x1a020a85   Thumb Code    24  scanf_char.o(.text)
    _sgetc                                   0x1a020aa5   Thumb Code    30  _sgetc.o(.text)
    _sbackspace                              0x1a020ac3   Thumb Code    34  _sgetc.o(.text)
    _wcrtomb                                 0x1a020ae5   Thumb Code    64  _wcrtomb.o(.text)
    __rt_ctype_table                         0x1a020b25   Thumb Code    16  rt_ctype_table.o(.text)
    isspace                                  0x1a020b35   Thumb Code    18  isspace.o(.text)
    __vfscanf                                0x1a020b49   Thumb Code   878  _scanf.o(.text)
    __user_setup_stackheap                   0x1a020ebd   Thumb Code    74  sys_stackheap_outer.o(.text)
    __rt_locale                              0x1a020f09   Thumb Code     8  rt_locale_intlibspace.o(.text)
    __user_libspace                          0x1a020f11   Thumb Code     8  libspace.o(.text)
    __user_perproc_libspace                  0x1a020f11   Thumb Code     0  libspace.o(.text)
    __user_perthread_libspace                0x1a020f11   Thumb Code     0  libspace.o(.text)
    Board_SetupClocking                      0x1a020f19   Thumb Code   158  board_sysinit.o(i.Board_SetupClocking)
    Board_SetupMuxing                        0x1a020fcd   Thumb Code    58  board_sysinit.o(i.Board_SetupMuxing)
    Board_SystemInit                         0x1a021019   Thumb Code    12  board_sysinit.o(i.Board_SystemInit)
    Board_UARTPutChar                        0x1a021025   Thumb Code    26  board.o(i.Board_UARTPutChar)
    Board_UART_Init                          0x1a021045   Thumb Code    60  board.o(i.Board_UART_Init)
    Chip_Clock_EnableOpts                    0x1a021089   Thumb Code    52  clock_18xx_43xx.o(i.Chip_Clock_EnableOpts)
    Chip_Clock_GetBaseClock                  0x1a021115   Thumb Code    32  clock_18xx_43xx.o(i.Chip_Clock_GetBaseClock)
    Chip_Clock_GetBaseClocktHz               0x1a021139   Thumb Code    18  clock_18xx_43xx.o(i.Chip_Clock_GetBaseClocktHz)
    Chip_Clock_GetClockInputHz               0x1a02114d   Thumb Code   182  clock_18xx_43xx.o(i.Chip_Clock_GetClockInputHz)
    Chip_Clock_GetDividerDivisor             0x1a021249   Thumb Code    18  clock_18xx_43xx.o(i.Chip_Clock_GetDividerDivisor)
    Chip_Clock_GetDividerSource              0x1a021269   Thumb Code    26  clock_18xx_43xx.o(i.Chip_Clock_GetDividerSource)
    Chip_Clock_GetMainPLLHz                  0x1a021289   Thumb Code   110  clock_18xx_43xx.o(i.Chip_Clock_GetMainPLLHz)
    Chip_Clock_GetRate                       0x1a021301   Thumb Code    78  clock_18xx_43xx.o(i.Chip_Clock_GetRate)
    Chip_Clock_SetBaseClock                  0x1a021359   Thumb Code    64  clock_18xx_43xx.o(i.Chip_Clock_SetBaseClock)
    Chip_Clock_SetDivider                    0x1a0213a1   Thumb Code    64  clock_18xx_43xx.o(i.Chip_Clock_SetDivider)
    Chip_SetupCoreClock                      0x1a021431   Thumb Code    14  sysinit_18xx_43xx.o(i.Chip_SetupCoreClock)
    Chip_UART_Init                           0x1a021485   Thumb Code    72  uart_18xx_43xx.o(i.Chip_UART_Init)
    Chip_UART_SetBaud                        0x1a0214d1   Thumb Code    66  uart_18xx_43xx.o(i.Chip_UART_SetBaud)
    SystemCoreClockUpdate                    0x1a021519   Thumb Code    14  chip_18xx_43xx.o(i.SystemCoreClockUpdate)
    _is_digit                                0x1a02152d   Thumb Code    14  __printf_wp.o(i._is_digit)
    _sys_exit                                0x1a02153b   Thumb Code     6  board.o(i._sys_exit)
    ferror                                   0x1a021621   Thumb Code     8  board.o(i.ferror)
    fpuInit                                  0x1a021629   Thumb Code    62  fpu_init.o(i.fpuInit)
    fputc                                    0x1a021679   Thumb Code    20  board.o(i.fputc)
    _get_lc_ctype                            0x1a02168d   Thumb Code    44  lc_ctype_c.o(locale$$code)
    __aeabi_d2f                              0x1a0216b9   Thumb Code     0  d2f.o(x$fpl$d2f)
    _d2f                                     0x1a0216b9   Thumb Code    98  d2f.o(x$fpl$d2f)
    __aeabi_ui2d                             0x1a02171b   Thumb Code     0  dflt_clz.o(x$fpl$dfltu)
    _dfltu                                   0x1a02171b   Thumb Code    38  dflt_clz.o(x$fpl$dfltu)
    __aeabi_dmul                             0x1a021741   Thumb Code     0  dmul.o(x$fpl$dmul)
    _dmul                                    0x1a021741   Thumb Code   332  dmul.o(x$fpl$dmul)
    __fpl_dnaninf                            0x1a021895   Thumb Code   156  dnaninf.o(x$fpl$dnaninf)
    __fpl_dretinf                            0x1a021931   Thumb Code    12  dretinf.o(x$fpl$dretinf)
    _fp_init                                 0x1a02193d   Thumb Code    10  fpinit.o(x$fpl$fpinit)
    __fplib_config_fpu_vfp                   0x1a021945   Thumb Code     0  fpinit.o(x$fpl$fpinit)
    __fplib_config_pureend_doubles           0x1a021945   Thumb Code     0  fpinit.o(x$fpl$fpinit)
    __fpl_fretinf                            0x1a021947   Thumb Code    10  fretinf.o(x$fpl$fretinf)
    __I$use$fp                               0x1a021950   Number         0  usenofp.o(x$fpl$usenofp)
    jpeg_aritab                              0x1a0220b4   Data         456  jaricom.o(.constdata)
    jpeg_natural_order                       0x1a02227c   Data         320  jutils.o(.constdata)
    jpeg_natural_order7                      0x1a0223bc   Data         260  jutils.o(.constdata)
    jpeg_natural_order6                      0x1a0224c0   Data         208  jutils.o(.constdata)
    jpeg_natural_order5                      0x1a022590   Data         164  jutils.o(.constdata)
    jpeg_natural_order4                      0x1a022634   Data         128  jutils.o(.constdata)
    jpeg_natural_order3                      0x1a0226b4   Data         100  jutils.o(.constdata)
    jpeg_natural_order2                      0x1a022718   Data          80  jutils.o(.constdata)
    jpeg_std_message_table                   0x1a022768   Data         512  jerror.o(.constdata)
    ad_left                                  0x1a02298c   Data           4  board.o(.constdata)
    ad_top                                   0x1a022990   Data           4  board.o(.constdata)
    ad_right                                 0x1a022994   Data           4  board.o(.constdata)
    ad_bottom                                0x1a022998   Data           4  board.o(.constdata)
    MCB4300_LCD                              0x1a02299c   Data          22  board.o(.constdata)
    ExtRateIn                                0x1a0229b4   Data           4  board.o(.constdata)
    OscRateIn                                0x1a0229b8   Data           4  board.o(.constdata)
    Region$$Table$$Base                      0x1a024844   Number         0  anon$$obj.o(Region$$Table)
    Region$$Table$$Limit                     0x1a024864   Number         0  anon$$obj.o(Region$$Table)
    __ctype                                  0x1a024871   Data           0  lc_ctype_c.o(locale$$data)



==============================================================================

Memory Map of the image

  Image Entry point : 0x1a000115

  Load Region LR_IROM1 (Base: 0x1a000000, Size: 0x00024a48, Max: 0x00080000, ABSOLUTE)

    Execution Region RW_IRAM1 (Base: 0x10000000, Size: 0x000046f8, Max: 0x00008000, ABSOLUTE)

    Base Addr    Size         Type   Attr      Idx    E Section Name        Object

    0x10000000   0x00000058   Data   RW            3    .data               raw-os.o
    0x10000058   0x00000004   Data   RW          279    .data               raw_malloc.o
    0x1000005c   0x0000000c   Data   RW          658    .data               k9f1g08.o
    0x10000068   0x00000004   Data   RW          779    .data               main.o
    0x1000006c   0x00000008   Data   RW          838    .data               libjpeg_test.o
    0x10000074   0x0000000c   Data   RW          914    .data               lpc43xx_lcd.o
    0x10000080   0x00000004   Data   RW         1006    .data               yaffsfs.o
    0x10000084   0x00000018   Data   RW         1007    .data               yaffsfs.o
    0x1000009c   0x00000008   Data   RW         1244    .data               yaffs_tagscompat.o
    0x100000a4   0x00000004   Data   RW         1271    .data               yaffs_verify.o
    0x100000a8   0x00000004   Data   RW         1326    .data               yaffs_osglue.o
    0x100000ac   0x00000004   Data   RW         1347    .data               yaffscfg2k.o
    0x100000b0   0x00000004   Data   RW         1348    .data               yaffscfg2k.o
    0x100000b4   0x00000014   Data   RW         2206    .data               lib_lpc_board_keil_mcb_4357.lib(board.o)
    0x100000c8   0x00000004   Data   RW         2722    .data               lib_lpc_chip_43xx.lib(chip_18xx_43xx.o)
    0x100000cc   0x00000008   Data   RW         3336    .data               lib_lpc_chip_43xx.lib(clock_18xx_43xx.o)
    0x100000d4   0x000012e8   Zero   RW            2    .bss                raw-os.o
    0x100013bc   0x00000004   PAD
    0x100013c0   0x00000048   Zero   RW          278    .bss                raw_malloc.o
    0x10001408   0x0000002c   Zero   RW          304    .bss                raw_page.o
    0x10001434   0x0000110c   Zero   RW          775    .bss                main.o
    0x10002540   0x00000234   Zero   RW          837    .bss                libjpeg_test.o
    0x10002774   0x000017e8   Zero   RW         1005    .bss                yaffsfs.o
    0x10003f5c   0x00000020   Zero   RW         1243    .bss                yaffs_tagscompat.o
    0x10003f7c   0x0000001c   Zero   RW         1325    .bss                yaffs_osglue.o
    0x10003f98   0x00000060   Zero   RW         4462    .bss                c_w.l(libspace.o)
    0x10003ff8   0x00000100   Zero   RW          367    HEAP                keil_startup_lpc18xx43xx.o
    0x100040f8   0x00000600   Zero   RW          366    STACK               keil_startup_lpc18xx43xx.o


    Execution Region ER_IROM1 (Base: 0x1a000000, Size: 0x00024974, Max: 0x00080000, ABSOLUTE)

    Base Addr    Size         Type   Attr      Idx    E Section Name        Object

    0x1a000000   0x00000114   Data   RO          368    RESET               keil_startup_lpc18xx43xx.o
    0x1a000114   0x00000008   Code   RO         4351  * !!!main             c_w.l(__main.o)
    0x1a00011c   0x00000034   Code   RO         4575    !!!scatter          c_w.l(__scatter.o)
    0x1a000150   0x0000001a   Code   RO         4577    !!handler_copy      c_w.l(__scatter_copy.o)
    0x1a00016a   0x00000002   PAD
    0x1a00016c   0x0000001c   Code   RO         4579    !!handler_zi        c_w.l(__scatter_zi.o)
    0x1a000188   0x00000000   Code   RO         4316    .ARM.Collect$$_printf_percent$$00000000  c_w.l(_printf_percent.o)
    0x1a000188   0x00000006   Code   RO         4309    .ARM.Collect$$_printf_percent$$00000001  c_w.l(_printf_n.o)
    0x1a00018e   0x00000006   Code   RO         4311    .ARM.Collect$$_printf_percent$$00000002  c_w.l(_printf_p.o)
    0x1a000194   0x0000000a   Code   RO         4389    .ARM.Collect$$_printf_percent$$00000007  c_w.l(_printf_ll.o)
    0x1a00019e   0x00000006   Code   RO         4313    .ARM.Collect$$_printf_percent$$00000008  c_w.l(_printf_i.o)
    0x1a0001a4   0x00000006   Code   RO         4314    .ARM.Collect$$_printf_percent$$00000009  c_w.l(_printf_d.o)
    0x1a0001aa   0x00000006   Code   RO         4315    .ARM.Collect$$_printf_percent$$0000000A  c_w.l(_printf_u.o)
    0x1a0001b0   0x00000006   Code   RO         4312    .ARM.Collect$$_printf_percent$$0000000B  c_w.l(_printf_o.o)
    0x1a0001b6   0x00000006   Code   RO         4310    .ARM.Collect$$_printf_percent$$0000000C  c_w.l(_printf_x.o)
    0x1a0001bc   0x00000006   Code   RO         4317    .ARM.Collect$$_printf_percent$$0000000E  c_w.l(_printf_lld.o)
    0x1a0001c2   0x0000000a   Code   RO         4390    .ARM.Collect$$_printf_percent$$00000012  c_w.l(_printf_l.o)
    0x1a0001cc   0x00000006   Code   RO         4307    .ARM.Collect$$_printf_percent$$00000013  c_w.l(_printf_c.o)
    0x1a0001d2   0x00000006   Code   RO         4308    .ARM.Collect$$_printf_percent$$00000014  c_w.l(_printf_s.o)
    0x1a0001d8   0x00000006   Code   RO         4318    .ARM.Collect$$_printf_percent$$00000015  c_w.l(_printf_lc.o)
    0x1a0001de   0x00000004   Code   RO         4388    .ARM.Collect$$_printf_percent$$00000017  c_w.l(_printf_percent_end.o)
    0x1a0001e2   0x00000002   Code   RO         4459    .ARM.Collect$$libinit$$00000000  c_w.l(libinit.o)
    0x1a0001e4   0x00000004   Code   RO         4470    .ARM.Collect$$libinit$$00000001  c_w.l(libinit2.o)
    0x1a0001e8   0x00000000   Code   RO         4473    .ARM.Collect$$libinit$$00000004  c_w.l(libinit2.o)
    0x1a0001e8   0x00000000   Code   RO         4476    .ARM.Collect$$libinit$$0000000A  c_w.l(libinit2.o)
    0x1a0001e8   0x00000000   Code   RO         4478    .ARM.Collect$$libinit$$0000000C  c_w.l(libinit2.o)
    0x1a0001e8   0x00000000   Code   RO         4480    .ARM.Collect$$libinit$$0000000E  c_w.l(libinit2.o)
    0x1a0001e8   0x00000006   Code   RO         4481    .ARM.Collect$$libinit$$0000000F  c_w.l(libinit2.o)
    0x1a0001ee   0x00000000   Code   RO         4483    .ARM.Collect$$libinit$$00000011  c_w.l(libinit2.o)
    0x1a0001ee   0x0000000c   Code   RO         4484    .ARM.Collect$$libinit$$00000012  c_w.l(libinit2.o)
    0x1a0001fa   0x00000000   Code   RO         4485    .ARM.Collect$$libinit$$00000013  c_w.l(libinit2.o)
    0x1a0001fa   0x00000000   Code   RO         4487    .ARM.Collect$$libinit$$00000015  c_w.l(libinit2.o)
