Component: ARM Compiler 5.05 update 1 (build 106) Tool: armlink [4d0efa]

==============================================================================

Section Cross References

    raw-os.o(.text) refers to cpu.o(.text) for OS_CPU_SR_Save
    raw-os.o(.text) refers to raw-os.o(.data) for .data
    raw-os.o(.text) refers to raw-os.o(.bss) for .bss
    raw-os.o(.text) refers to user_extension.o(.text) for raw_memset
    raw-os.o(.text) refers to port_hook.o(.text) for task_create_hook
    raw-os.o(.text) refers to port.o(.text) for port_stack_init
    fifo.o(.text) refers to cpu.o(.text) for OS_CPU_SR_Save
    fifo.o(.text) refers to user_extension.o(.text) for raw_memcpy
    rsh.o(.text) refers to cpu.o(.text) for OS_CPU_SR_Save
    rsh.o(.text) refers to string.o(.text) for raw_strncmp
    rsh.o(.text) refers to user_extension.o(.text) for raw_memset
    rsh.o(.text) refers to rsh.o(.data) for .data
    rsh.o(.text) refers to rsh.o(.conststring) for .conststring
    rsh.o(.constdata) refers to rsh.o(.conststring) for .conststring
    rsh.o(.constdata) refers to rsh.o(.text) for rsh_help_command
    rsh.o(.data) refers to rsh.o(.constdata) for xHelpCommand
    raw_malloc.o(.text) refers to _printf_pad.o(.text) for _printf_pre_padding
    raw_malloc.o(.text) refers to _printf_percent.o(.ARM.Collect$$_printf_percent$$00000000) for _printf_percent
==============================================================================

Removing Unused input sections from the image.

    Removing rsh.o(.text), (472 bytes).
    Removing rsh.o(.constdata), (16 bytes).
    Removing rsh.o(.conststring), (50 bytes).
    Removing rsh.o(.conststring), (173 bytes).
    Removing rsh.o(.data), (20 bytes).
    Removing string.o(.text), (592 bytes).
    Removing sysinit.o(.rev16_text), (4 bytes).
    Removing sysinit.o(.revsh_text), (4 bytes).
    Removing lpc43xx_scu.o(.rev16_text), (4 bytes).
    Removing lpc43xx_scu.o(.revsh_text), (4 bytes).
    Removing lpc43xx_sdram.o(.rev16_text), (4 bytes).
    Removing lpc43xx_sdram.o(.revsh_text), (4 bytes).
    Removing k9f1g08.o(.rev16_text), (4 bytes).
    Removing k9f1g08.o(.revsh_text), (4 bytes).
    Removing lpc43xx_gpio.o(.rev16_text), (4 bytes).
    Removing lpc43xx_gpio.o(.revsh_text), (4 bytes).
    Removing main.o(.rev16_text), (4 bytes).
    Removing main.o(.revsh_text), (4 bytes).
==============================================================================

Image Symbol Table

    Local Symbols

    Symbol Name                              Value     Ov Type        Size  Object(Section)

    ../clib/angel/boardlib.s                 0x00000000   Number         0  boardinit3.o ABSOLUTE
    ../clib/angel/boardlib.s                 0x00000000   Number         0  boardinit2.o ABSOLUTE
    ../clib/angel/boardlib.s                 0x00000000   Number         0  boardinit1.o ABSOLUTE
    ../clib/angel/boardlib.s                 0x00000000   Number         0  boardshut.o ABSOLUTE
    ../clib/angel/handlers.s                 0x00000000   Number         0  __scatter_zi.o ABSOLUTE
    ../clib/angel/handlers.s                 0x00000000   Number         0  __scatter_copy.o ABSOLUTE
    ../clib/angel/kernel.s                   0x00000000   Number         0  __rtentry4.o ABSOLUTE
    ../clib/angel/kernel.s                   0x00000000   Number         0  __rtentry.o ABSOLUTE
    ../clib/angel/kernel.s                   0x00000000   Number         0  rtexit.o ABSOLUTE
    ../clib/angel/kernel.s                   0x00000000   Number         0  rtexit2.o ABSOLUTE
    ../clib/angel/kernel.s                   0x00000000   Number         0  __rtentry2.o ABSOLUTE
    ../clib/angel/rt.s                       0x00000000   Number         0  rt_div0.o ABSOLUTE
    ../clib/angel/rt.s                       0x00000000   Number         0  aeabi_ldiv0.o ABSOLUTE
    ../clib/angel/rt.s                       0x00000000   Number         0  rt_raise.o ABSOLUTE
    ../clib/angel/rt.s                       0x00000000   Number         0  aeabi_ldiv0_sigfpe.o ABSOLUTE
    ../clib/angel/scatter.s                  0x00000000   Number         0  __scatter.o ABSOLUTE
    ../clib/angel/startup.s                  0x00000000   Number         0  __main.o ABSOLUTE
    ../clib/angel/sys.s                      0x00000000   Number         0  libspace.o ABSOLUTE
    ../clib/angel/sys.s                      0x00000000   Number         0  sys_stackheap_outer.o ABSOLUTE
    ../clib/angel/sys.s                      0x00000000   Number         0  use_no_semi.o ABSOLUTE
    ../clib/angel/sys.s                      0x00000000   Number         0  indicate_semi.o ABSOLUTE
    ../clib/angel/sysapp.c                   0x00000000   Number         0  sys_command.o ABSOLUTE
    ../clib/angel/sysapp.c                   0x00000000   Number         0  sys_wrch.o ABSOLUTE
    ../clib/armsys.c                         0x00000000   Number         0  no_argv.o ABSOLUTE
    ../clib/armsys.c                         0x00000000   Number         0  argv_veneer.o ABSOLUTE
    ../clib/armsys.c                         0x00000000   Number         0  argv_veneer.o ABSOLUTE
    ../clib/armsys.c                         0x00000000   Number         0  _get_argv_nomalloc.o ABSOLUTE
    ../clib/heapalloc.c                      0x00000000   Number         0  hrguard.o ABSOLUTE
    ../clib/heapaux.c                        0x00000000   Number         0  heapauxi.o ABSOLUTE
    ../clib/libinit.s                        0x00000000   Number         0  libshutdown2.o ABSOLUTE
    ../clib/libinit.s                        0x00000000   Number         0  libshutdown.o ABSOLUTE
    ../clib/libinit.s                        0x00000000   Number         0  libinit.o ABSOLUTE
    ../clib/libinit.s                        0x00000000   Number         0  libinit2.o ABSOLUTE
    ../clib/longlong.s                       0x00000000   Number         0  lludivv7m.o ABSOLUTE
    ../clib/longlong.s                       0x00000000   Number         0  lludiv10.o ABSOLUTE
    ../clib/memcpset.s                       0x00000000   Number         0  strncpy.o ABSOLUTE
    ../clib/memcpset.s                       0x00000000   Number         0  rt_memcpy_w.o ABSOLUTE
    ../clib/memcpset.s                       0x00000000   Number         0  strcmpv7m.o ABSOLUTE
    ../clib/memcpset.s                       0x00000000   Number         0  rt_memcpy_v6.o ABSOLUTE
    ../clib/memcpset.s                       0x00000000   Number         0  aeabi_memset.o ABSOLUTE
    ../clib/memcpset.s                       0x00000000   Number         0  rt_memclr_w.o ABSOLUTE
    ../clib/memcpset.s                       0x00000000   Number         0  rt_memclr.o ABSOLUTE
    ../clib/misc.s                           0x00000000   Number         0  printf_stubs.o ABSOLUTE
    ../clib/printf.c                         0x00000000   Number         0  _printf_hex_int.o ABSOLUTE
    ../clib/printf.c                         0x00000000   Number         0  _printf_hex_ll.o ABSOLUTE
    ../clib/printf.c                         0x00000000   Number         0  _printf_longlong_dec.o ABSOLUTE
    ../clib/printf.c                         0x00000000   Number         0  _printf_char_common.o ABSOLUTE
    ../clib/printf.c                         0x00000000   Number         0  _printf_str.o ABSOLUTE
    ../clib/printf.c                         0x00000000   Number         0  _printf_pad.o ABSOLUTE
    ../clib/printf.c                         0x00000000   Number         0  __printf.o ABSOLUTE
    ../clib/printf.c                         0x00000000   Number         0  noretval__2printf.o ABSOLUTE
    ../clib/printf.c                         0x00000000   Number         0  __2printf.o ABSOLUTE
    ../clib/printf.c                         0x00000000   Number         0  _printf_hex_ll_ptr.o ABSOLUTE
    ../clib/printf.c                         0x00000000   Number         0  _printf_intcommon.o ABSOLUTE
    ../clib/printf.c                         0x00000000   Number         0  _printf_char.o ABSOLUTE
    ../clib/printf.c                         0x00000000   Number         0  _printf_char_file.o ABSOLUTE
    ../clib/printf.c                         0x00000000   Number         0  __printf_nopercent.o ABSOLUTE
    ../clib/printf.c                         0x00000000   Number         0  _printf_dec.o ABSOLUTE
    ../clib/printf.c                         0x00000000   Number         0  __printf_flags_ss_wp.o ABSOLUTE
    ../clib/printf.c                         0x00000000   Number         0  __printf_ss_wp.o ABSOLUTE
    ../clib/printf.c                         0x00000000   Number         0  __printf_flags_wp.o ABSOLUTE
    ../clib/printf.c                         0x00000000   Number         0  __printf_wp.o ABSOLUTE
    ../clib/printf.c                         0x00000000   Number         0  __printf_flags_ss.o ABSOLUTE
    ../clib/printf.c                         0x00000000   Number         0  __printf_ss.o ABSOLUTE
    ../clib/printf.c                         0x00000000   Number         0  __printf_flags.o ABSOLUTE
    ../clib/printf.c                         0x00000000   Number         0  _printf_hex_int_ll_ptr.o ABSOLUTE
    ../clib/printf.c                         0x00000000   Number         0  _printf_hex_int_ptr.o ABSOLUTE
    ../clib/printf.c                         0x00000000   Number         0  _printf_hex_ptr.o ABSOLUTE
    ../clib/printf.c                         0x00000000   Number         0  _printf_hex_int_ll.o ABSOLUTE
    ../clib/printf_percent.s                 0x00000000   Number         0  _printf_percent_end.o ABSOLUTE
    ../clib/printf_percent.s                 0x00000000   Number         0  _printf_ll.o ABSOLUTE
    ../clib/printf_percent.s                 0x00000000   Number         0  _printf_s.o ABSOLUTE
    ../clib/printf_percent.s                 0x00000000   Number         0  _printf_u.o ABSOLUTE
    ../clib/printf_percent.s                 0x00000000   Number         0  _printf_lld.o ABSOLUTE
    ../clib/printf_percent.s                 0x00000000   Number         0  _printf_percent.o ABSOLUTE
    ../clib/printf_percent.s                 0x00000000   Number         0  _printf_x.o ABSOLUTE
    ../clib/printf_percent.s                 0x00000000   Number         0  _printf_p.o ABSOLUTE
    ../clib/printf_percent.s                 0x00000000   Number         0  _printf_d.o ABSOLUTE
    ../clib/signal.c                         0x00000000   Number         0  defsig_rtmem_outer.o ABSOLUTE
    ../clib/signal.c                         0x00000000   Number         0  defsig_rtmem_inner.o ABSOLUTE
    ../clib/signal.c                         0x00000000   Number         0  defsig_rtred_inner.o ABSOLUTE
    ../clib/signal.c                         0x00000000   Number         0  defsig_abrt_inner.o ABSOLUTE
    ../clib/signal.c                         0x00000000   Number         0  defsig_fpe_outer.o ABSOLUTE
    ../clib/signal.c                         0x00000000   Number         0  defsig_fpe_formal.o ABSOLUTE
    ../clib/signal.c                         0x00000000   Number         0  defsig_segv_inner.o ABSOLUTE
    ../clib/signal.c                         0x00000000   Number         0  defsig_exit.o ABSOLUTE
    ../clib/signal.c                         0x00000000   Number         0  defsig_fpe_inner.o ABSOLUTE
    ../clib/signal.c                         0x00000000   Number         0  defsig_cppl_inner.o ABSOLUTE
    ../clib/signal.c                         0x00000000   Number         0  defsig_pvfn_inner.o ABSOLUTE
    ../clib/signal.c                         0x00000000   Number         0  defsig_stak_inner.o ABSOLUTE
    ../clib/signal.c                         0x00000000   Number         0  __raise.o ABSOLUTE
    ../clib/signal.c                         0x00000000   Number         0  defsig_general.o ABSOLUTE
    ../clib/signal.c                         0x00000000   Number         0  defsig_rtmem_formal.o ABSOLUTE
    ../clib/signal.c                         0x00000000   Number         0  defsig_other.o ABSOLUTE
    ../clib/signal.s                         0x00000000   Number         0  defsig.o ABSOLUTE
    ../clib/stdlib.c                         0x00000000   Number         0  exit.o ABSOLUTE
    ../clib/string.c                         0x00000000   Number         0  memcmp.o ABSOLUTE
    ../clib/string.c                         0x00000000   Number         0  strcat.o ABSOLUTE
    ../clib/string.c                         0x00000000   Number         0  strncmp.o ABSOLUTE
    ../clib/string.c                         0x00000000   Number         0  strcpy.o ABSOLUTE
    ../fplib/fpinit.s                        0x00000000   Number         0  fpinit.o ABSOLUTE
    ..\..\..\..\software\common\k9f1g08.c    0x00000000   Number         0  k9f1g08.o ABSOLUTE
    ..\..\..\..\software\common\lpc43xx_gpio.c 0x00000000   Number         0  lpc43xx_gpio.o ABSOLUTE
    ..\..\..\..\software\common\lpc43xx_scu.c 0x00000000   Number         0  lpc43xx_scu.o ABSOLUTE
    ..\..\..\..\software\common\lpc43xx_sdram.c 0x00000000   Number         0  lpc43xx_sdram.o ABSOLUTE
    ..\..\..\..\software\common\yaffs_port_nand_drv.c 0x00000000   Number         0  yaffs_port_nand_drv.o ABSOLUTE
    ..\..\..\..\software\filesystems\fatfs_rawos\diskio.c 0x00000000   Number         0  diskio.o ABSOLUTE
    ..\..\..\..\software\filesystems\fatfs_rawos\ff.c 0x00000000   Number         0  ff.o ABSOLUTE
    ..\..\..\..\software\filesystems\fatfs_rawos\option\syscall.c 0x00000000   Number         0  syscall.o ABSOLUTE
    ..\..\..\..\software\filesystems\yaffs2\direct\test-framework\yaffs_osglue.c 0x00000000   Number         0  yaffs_osglue.o ABSOLUTE
    ..\..\..\..\software\filesystems\yaffs2\direct\test-framework\yaffscfg2k.c 0x00000000   Number         0  yaffscfg2k.o ABSOLUTE
    ..\..\..\..\software\filesystems\yaffs2\direct\yaffs_attribs.c 0x00000000   Number         0  yaffs_attribs.o ABSOLUTE
    ..\..\..\..\software\filesystems\yaffs2\direct\yaffs_error.c 0x00000000   Number         0  yaffs_error.o ABSOLUTE
    ..\..\..\..\software\filesystems\yaffs2\direct\yaffs_hweight.c 0x00000000   Number         0  yaffs_hweight.o ABSOLUTE
    ..\..\..\..\software\filesystems\yaffs2\direct\yaffs_qsort.c 0x00000000   Number         0  yaffs_qsort.o ABSOLUTE
    ..\..\..\..\software\filesystems\yaffs2\direct\yaffs_startup.c 0x00000000   Number         0  yaffs_startup.o ABSOLUTE
    ..\..\..\..\software\filesystems\yaffs2\direct\yaffsfs.c 0x00000000   Number         0  yaffsfs.o ABSOLUTE
    ..\..\..\..\software\filesystems\yaffs2\yaffs_allocator.c 0x00000000   Number         0  yaffs_allocator.o ABSOLUTE
    ..\..\..\..\software\filesystems\yaffs2\yaffs_bitmap.c 0x00000000   Number         0  yaffs_bitmap.o ABSOLUTE
    ..\..\..\..\software\filesystems\yaffs2\yaffs_checkptrw.c 0x00000000   Number         0  yaffs_checkptrw.o ABSOLUTE
    ..\..\..\..\software\filesystems\yaffs2\yaffs_ecc.c 0x00000000   Number         0  yaffs_ecc.o ABSOLUTE
    ..\..\..\..\software\filesystems\yaffs2\yaffs_guts.c 0x00000000   Number         0  yaffs_guts.o ABSOLUTE
    ..\..\..\..\software\filesystems\yaffs2\yaffs_nameval.c 0x00000000   Number         0  yaffs_nameval.o ABSOLUTE
    ..\..\..\..\software\filesystems\yaffs2\yaffs_nand.c 0x00000000   Number         0  yaffs_nand.o ABSOLUTE
    ..\..\..\..\software\filesystems\yaffs2\yaffs_packedtags1.c 0x00000000   Number         0  yaffs_packedtags1.o ABSOLUTE
    ..\..\..\..\software\filesystems\yaffs2\yaffs_packedtags2.c 0x00000000   Number         0  yaffs_packedtags2.o ABSOLUTE
    ..\..\..\..\software\filesystems\yaffs2\yaffs_summary.c 0x00000000   Number         0  yaffs_summary.o ABSOLUTE
    ..\..\..\..\software\filesystems\yaffs2\yaffs_tagscompat.c 0x00000000   Number         0  yaffs_tagscompat.o ABSOLUTE
    ..\..\..\..\software\filesystems\yaffs2\yaffs_tagsmarshall.c 0x00000000   Number         0  yaffs_tagsmarshall.o ABSOLUTE
    ..\..\..\..\software\filesystems\yaffs2\yaffs_verify.c 0x00000000   Number         0  yaffs_verify.o ABSOLUTE
    ..\..\..\..\software\filesystems\yaffs2\yaffs_yaffs1.c 0x00000000   Number         0  yaffs_yaffs1.o ABSOLUTE
    ..\..\..\..\software\filesystems\yaffs2\yaffs_yaffs2.c 0x00000000   Number         0  yaffs_yaffs2.o ABSOLUTE
    ..\..\..\..\software\kernel\port\cpu.asm 0x00000000   Number         0  cpu.o ABSOLUTE
    ..\..\..\..\software\kernel\port\port.c  0x00000000   Number         0  port.o ABSOLUTE
    ..\..\..\..\software\kernel\port\port_hook.c 0x00000000   Number         0  port_hook.o ABSOLUTE
    ..\..\..\..\software\kernel\port\raw_trace_port.c 0x00000000   Number         0  raw_trace_port.o ABSOLUTE
    ..\..\..\..\software\kernel\port\user_extension.c 0x00000000   Number         0  user_extension.o ABSOLUTE
    ..\..\..\..\software\kernel\raw-os\extension\lib\fifo.c 0x00000000   Number         0  fifo.o ABSOLUTE
    ..\..\..\..\software\kernel\raw-os\extension\lib\string.c 0x00000000   Number         0  string.o ABSOLUTE
    ..\..\..\..\software\kernel\raw-os\extension\mm\heap_4.c 0x00000000   Number         0  heap_4.o ABSOLUTE
    ..\..\..\..\software\kernel\raw-os\extension\mm\raw_malloc.c 0x00000000   Number         0  raw_malloc.o ABSOLUTE
    ..\..\..\..\software\kernel\raw-os\extension\mm\raw_page.c 0x00000000   Number         0  raw_page.o ABSOLUTE
    ..\..\..\..\software\kernel\raw-os\extension\shell\rsh.c 0x00000000   Number         0  rsh.o ABSOLUTE
    ..\..\..\..\software\kernel\raw-os\raw-os.c 0x00000000   Number         0  raw-os.o ABSOLUTE
    ..\..\board_common\uda1380.c             0x00000000   Number         0  uda1380.o ABSOLUTE
    ..\..\examples\freetype\main.c           0x00000000   Number         0  main.o ABSOLUTE
    ..\..\startup_code\keil_startup_lpc18xx43xx.s 0x00000000   Number         0  keil_startup_lpc18xx43xx.o ABSOLUTE
    ..\..\startup_code\sysinit.c             0x00000000   Number         0  sysinit.o ABSOLUTE
    ..\\..\\..\\..\\software\\common\\k9f1g08.c 0x00000000   Number         0  k9f1g08.o ABSOLUTE
    ..\\..\\..\\..\\software\\common\\lpc43xx_gpio.c 0x00000000   Number         0  lpc43xx_gpio.o ABSOLUTE
    ..\\..\\..\\..\\software\\common\\lpc43xx_scu.c 0x00000000   Number         0  lpc43xx_scu.o ABSOLUTE
    ..\\..\\..\\..\\software\\common\\lpc43xx_sdram.c 0x00000000   Number         0  lpc43xx_sdram.o ABSOLUTE
    ..\\..\\..\\..\\software\\filesystems\\fatfs_rawos\\diskio.c 0x00000000   Number         0  diskio.o ABSOLUTE
    ..\\..\\board_common\\uda1380.c          0x00000000   Number         0  uda1380.o ABSOLUTE
    ..\\..\\examples\\freetype\\main.c       0x00000000   Number         0  main.o ABSOLUTE
    ..\\..\\startup_code\\sysinit.c          0x00000000   Number         0  sysinit.o ABSOLUTE
    ..\\chip_common\\fpu_init.c              0x00000000   Number         0  fpu_init.o ABSOLUTE
    ..\chip_common\fpu_init.c                0x00000000   Number         0  fpu_init.o ABSOLUTE
    ..\chip_common\ring_buffer.c             0x00000000   Number         0  ring_buffer.o ABSOLUTE
    board.c                                  0x00000000   Number         0  board.o ABSOLUTE
    board.c                                  0x00000000   Number         0  board.o ABSOLUTE
    board_sysinit.c                          0x00000000   Number         0  board_sysinit.o ABSOLUTE
    board_sysinit.c                          0x00000000   Number         0  board_sysinit.o ABSOLUTE
    chip_18xx_43xx.c                         0x00000000   Number         0  chip_18xx_43xx.o ABSOLUTE
    chip_18xx_43xx.c                         0x00000000   Number         0  chip_18xx_43xx.o ABSOLUTE
    clock_18xx_43xx.c                        0x00000000   Number         0  clock_18xx_43xx.o ABSOLUTE
    clock_18xx_43xx.c                        0x00000000   Number         0  clock_18xx_43xx.o ABSOLUTE
    dc.s                                     0x00000000   Number         0  dc.o ABSOLUTE
    emc_18xx_43xx.c                          0x00000000   Number         0  emc_18xx_43xx.o ABSOLUTE
    emc_18xx_43xx.c                          0x00000000   Number         0  emc_18xx_43xx.o ABSOLUTE
    gpio_18xx_43xx.c                         0x00000000   Number         0  gpio_18xx_43xx.o ABSOLUTE
    gpio_18xx_43xx.c                         0x00000000   Number         0  gpio_18xx_43xx.o ABSOLUTE
    i2c_18xx_43xx.c                          0x00000000   Number         0  i2c_18xx_43xx.o ABSOLUTE
    i2c_18xx_43xx.c                          0x00000000   Number         0  i2c_18xx_43xx.o ABSOLUTE
    i2s_18xx_43xx.c                          0x00000000   Number         0  i2s_18xx_43xx.o ABSOLUTE
    i2s_18xx_43xx.c                          0x00000000   Number         0  i2s_18xx_43xx.o ABSOLUTE
    rgu_18xx_43xx.c                          0x00000000   Number         0  rgu_18xx_43xx.o ABSOLUTE
    rgu_18xx_43xx.c                          0x00000000   Number         0  rgu_18xx_43xx.o ABSOLUTE
    sdif_18xx_43xx.c                         0x00000000   Number         0  sdif_18xx_43xx.o ABSOLUTE
    sdif_18xx_43xx.c                         0x00000000   Number         0  sdif_18xx_43xx.o ABSOLUTE
    sdmmc_18xx_43xx.c                        0x00000000   Number         0  sdmmc_18xx_43xx.o ABSOLUTE
    sdmmc_18xx_43xx.c                        0x00000000   Number         0  sdmmc_18xx_43xx.o ABSOLUTE
    ssp_18xx_43xx.c                          0x00000000   Number         0  ssp_18xx_43xx.o ABSOLUTE
    ssp_18xx_43xx.c                          0x00000000   Number         0  ssp_18xx_43xx.o ABSOLUTE
    sysinit_18xx_43xx.c                      0x00000000   Number         0  sysinit_18xx_43xx.o ABSOLUTE
    sysinit_18xx_43xx.c                      0x00000000   Number         0  sysinit_18xx_43xx.o ABSOLUTE
    uart_18xx_43xx.c                         0x00000000   Number         0  uart_18xx_43xx.o ABSOLUTE
    uart_18xx_43xx.c                         0x00000000   Number         0  uart_18xx_43xx.o ABSOLUTE
    .data                                    0x10000000   Section       88  raw-os.o(.data)
    .data                                    0x10000058   Section        8  main.o(.data)
    sdio_wait_exit                           0x10000058   Data           4  main.o(.data)
    tot_secs                                 0x1000005c   Data           4  main.o(.data)
    .data                                    0x10000060   Section        4  yaffs_verify.o(.data)
    yaffs_free_verification_failures         0x10000060   Data           4  yaffs_verify.o(.data)
    .data                                    0x10000064   Section        4  yaffscfg2k.o(.data)
    start_up_called                          0x10000064   Data           4  yaffscfg2k.o(.data)
    .data                                    0x10000068   Section       20  board.o(.data)
    .data                                    0x1000007c   Section        4  chip_18xx_43xx.o(.data)
    .data                                    0x10000080   Section        8  clock_18xx_43xx.o(.data)
    audio_usb_pll_freq                       0x10000080   Data           8  clock_18xx_43xx.o(.data)
    .bss                                     0x10000088   Section       72  raw_malloc.o(.bss)
    malloc_macb                              0x10000088   Data          72  raw_malloc.o(.bss)
    .bss                                     0x100000d0   Section     3856  main.o(.bss)
    fifo_buffer                              0x10000b04   Data         128  main.o(.bss)
    .bss                                     0x10000fe0   Section       28  yaffs_osglue.o(.bss)
    mutex_yaffs_obj                          0x10000fe0   Data          28  yaffs_osglue.o(.bss)
    .bss                                     0x10000ffc   Section       12  ff.o(.bss)
    Files                                    0x10000ffc   Data          12  ff.o(.bss)
    .bss                                     0x10001008   Section       96  libspace.o(.bss)
    HEAP                                     0x10001068   Section      256  keil_startup_lpc18xx43xx.o(HEAP)
    Heap_Mem                                 0x10001068   Data         256  keil_startup_lpc18xx43xx.o(HEAP)
    .data                                    0x10080000   Section        4  raw_malloc.o(.data)
    .data                                    0x10080004   Section       12  k9f1g08.o(.data)
    .data                                    0x10080010   Section        4  yaffsfs.o(.data)
    .data                                    0x10080014   Section       24  yaffsfs.o(.data)
    yaffsfs_handlesInitialised               0x10080014   Data           4  yaffsfs.o(.data)
    dev_iterator                             0x10080018   Data           4  yaffsfs.o(.data)
    search_contexts                          0x10080024   Data           8  yaffsfs.o(.data)
    .data                                    0x1008002c   Section        8  yaffs_tagscompat.o(.data)
    init                                     0x1008002c   Data           4  yaffs_tagscompat.o(.data)
    init                                     0x10080030   Data           4  yaffs_tagscompat.o(.data)
    .data                                    0x10080034   Section        4  yaffs_osglue.o(.data)
    yaffsfs_lastError                        0x10080034   Data           4  yaffs_osglue.o(.data)
    .data                                    0x10080038   Section        4  yaffscfg2k.o(.data)
    .data                                    0x1008003c   Section       12  ff.o(.data)
    Fsid                                     0x1008003c   Data           2  ff.o(.data)
    FatFs                                    0x10080040   Data           8  ff.o(.data)
    .data                                    0x10080048   Section        4  sdmmc_18xx_43xx.o(.data)
    g_card_info                              0x10080048   Data           4  sdmmc_18xx_43xx.o(.data)
    .bss                                     0x1008004c   Section     4840  raw-os.o(.bss)
    .bss                                     0x10081334   Section       44  raw_page.o(.bss)
    system_page_table                        0x10081334   Data          44  raw_page.o(.bss)
    .bss                                     0x10081360   Section     6120  yaffsfs.o(.bss)
    yaffsfs_dsc                              0x10081360   Data        5520  yaffsfs.o(.bss)
    yaffsfs_inode                            0x100828f0   Data         240  yaffsfs.o(.bss)
    yaffsfs_fd                               0x100829e0   Data         240  yaffsfs.o(.bss)
    yaffsfs_handle                           0x10082ad0   Data         120  yaffsfs.o(.bss)
    .bss                                     0x10082b48   Section       32  yaffs_tagscompat.o(.bss)
    spare_ff                                 0x10082b48   Data          16  yaffs_tagscompat.o(.bss)
    spare_ff                                 0x10082b58   Data          16  yaffs_tagscompat.o(.bss)
    STACK                                    0x10082b68   Section     1536  keil_startup_lpc18xx43xx.o(STACK)
    Stack_Mem                                0x10082b68   Data        1536  keil_startup_lpc18xx43xx.o(STACK)
    __initial_sp                             0x10083168   Data           0  keil_startup_lpc18xx43xx.o(STACK)
    RESET                                    0x1a000000   Section      276  keil_startup_lpc18xx43xx.o(RESET)
    !!!main                                  0x1a000114   Section        8  __main.o(!!!main)
    !!!scatter                               0x1a00011c   Section       52  __scatter.o(!!!scatter)
    !!handler_copy                           0x1a000150   Section       26  __scatter_copy.o(!!handler_copy)
    !!handler_zi                             0x1a00016c   Section       28  __scatter_zi.o(!!handler_zi)
    .ARM.Collect$$_printf_percent$$00000000  0x1a000188   Section        0  _printf_percent.o(.ARM.Collect$$_printf_percent$$00000000)
    .ARM.Collect$$_printf_percent$$00000002  0x1a000188   Section        6  _printf_p.o(.ARM.Collect$$_printf_percent$$00000002)
    .ARM.Collect$$_printf_percent$$00000007  0x1a00018e   Section       10  _printf_ll.o(.ARM.Collect$$_printf_percent$$00000007)
    .ARM.Collect$$_printf_percent$$00000009  0x1a000198   Section        6  _printf_d.o(.ARM.Collect$$_printf_percent$$00000009)
    .ARM.Collect$$_printf_percent$$0000000A  0x1a00019e   Section        6  _printf_u.o(.ARM.Collect$$_printf_percent$$0000000A)
    .ARM.Collect$$_printf_percent$$0000000C  0x1a0001a4   Section        6  _printf_x.o(.ARM.Collect$$_printf_percent$$0000000C)
    .ARM.Collect$$_printf_percent$$0000000E  0x1a0001aa   Section        6  _printf_lld.o(.ARM.Collect$$_printf_percent$$0000000E)
    .ARM.Collect$$_printf_percent$$00000014  0x1a0001b0   Section        6  _printf_s.o(.ARM.Collect$$_printf_percent$$00000014)
    .ARM.Collect$$_printf_percent$$00000017  0x1a0001b6   Section        4  _printf_percent_end.o(.ARM.Collect$$_printf_percent$$00000017)
    .ARM.Collect$$libinit$$00000000          0x1a0001ba   Section        2  libinit.o(.ARM.Collect$$libinit$$00000000)
    .ARM.Collect$$libinit$$00000001          0x1a0001bc   Section        4  libinit2.o(.ARM.Collect$$libinit$$00000001)
    .ARM.Collect$$libinit$$00000004          0x1a0001c0   Section        0  libinit2.o(.ARM.Collect$$libinit$$00000004)
    .ARM.Collect$$libinit$$0000000A          0x1a0001c0   Section        0  libinit2.o(.ARM.Collect$$libinit$$0000000A)
    .ARM.Collect$$libinit$$0000000C          0x1a0001c0   Section        0  libinit2.o(.ARM.Collect$$libinit$$0000000C)
    .ARM.Collect$$libinit$$0000000E          0x1a0001c0   Section        0  libinit2.o(.ARM.Collect$$libinit$$0000000E)
    .ARM.Collect$$libinit$$00000011          0x1a0001c0   Section        0  libinit2.o(.ARM.Collect$$libinit$$00000011)
    .ARM.Collect$$libinit$$00000013          0x1a0001c0   Section        0  libinit2.o(.ARM.Collect$$libinit$$00000013)
    .ARM.Collect$$libinit$$00000015          0x1a0001c0   Section        0  libinit2.o(.ARM.Collect$$libinit$$00000015)
    .ARM.Collect$$libinit$$00000017          0x1a0001c0   Section        0  libinit2.o(.ARM.Collect$$libinit$$00000017)
    .ARM.Collect$$libinit$$00000019          0x1a0001c0   Section        0  libinit2.o(.ARM.Collect$$libinit$$00000019)
    .ARM.Collect$$libinit$$0000001B          0x1a0001c0   Section        0  libinit2.o(.ARM.Collect$$libinit$$0000001B)
    .ARM.Collect$$libinit$$0000001D          0x1a0001c0   Section        0  libinit2.o(.ARM.Collect$$libinit$$0000001D)
    .ARM.Collect$$libinit$$0000001F          0x1a0001c0   Section        0  libinit2.o(.ARM.Collect$$libinit$$0000001F)
    .ARM.Collect$$libinit$$00000021          0x1a0001c0   Section        0  libinit2.o(.ARM.Collect$$libinit$$00000021)
    .ARM.Collect$$libinit$$00000023          0x1a0001c0   Section        0  libinit2.o(.ARM.Collect$$libinit$$00000023)
    .ARM.Collect$$libinit$$00000025          0x1a0001c0   Section        0  libinit2.o(.ARM.Collect$$libinit$$00000025)
    .ARM.Collect$$libinit$$0000002C          0x1a0001c0   Section        0  libinit2.o(.ARM.Collect$$libinit$$0000002C)
    .ARM.Collect$$libinit$$0000002E          0x1a0001c0   Section        0  libinit2.o(.ARM.Collect$$libinit$$0000002E)
    .ARM.Collect$$libinit$$00000030          0x1a0001c0   Section        0  libinit2.o(.ARM.Collect$$libinit$$00000030)
    .ARM.Collect$$libinit$$00000032          0x1a0001c0   Section        0  libinit2.o(.ARM.Collect$$libinit$$00000032)
    .ARM.Collect$$libinit$$00000033          0x1a0001c0   Section        2  libinit2.o(.ARM.Collect$$libinit$$00000033)
    .ARM.Collect$$libshutdown$$00000000      0x1a0001c2   Section        2  libshutdown.o(.ARM.Collect$$libshutdown$$00000000)
    .ARM.Collect$$libshutdown$$00000003      0x1a0001c4   Section        0  libshutdown2.o(.ARM.Collect$$libshutdown$$00000003)
    .ARM.Collect$$libshutdown$$00000006      0x1a0001c4   Section        0  libshutdown2.o(.ARM.Collect$$libshutdown$$00000006)
    .ARM.Collect$$libshutdown$$00000009      0x1a0001c4   Section        0  libshutdown2.o(.ARM.Collect$$libshutdown$$00000009)
    .ARM.Collect$$libshutdown$$0000000B      0x1a0001c4   Section        0  libshutdown2.o(.ARM.Collect$$libshutdown$$0000000B)
    .ARM.Collect$$libshutdown$$0000000E      0x1a0001c4   Section        0  libshutdown2.o(.ARM.Collect$$libshutdown$$0000000E)
    .ARM.Collect$$libshutdown$$0000000F      0x1a0001c4   Section        2  libshutdown2.o(.ARM.Collect$$libshutdown$$0000000F)
    .ARM.Collect$$rtentry$$00000000          0x1a0001c6   Section        0  __rtentry.o(.ARM.Collect$$rtentry$$00000000)
    .ARM.Collect$$rtentry$$00000002          0x1a0001c6   Section        0  __rtentry2.o(.ARM.Collect$$rtentry$$00000002)
    .ARM.Collect$$rtentry$$00000004          0x1a0001c6   Section        6  __rtentry4.o(.ARM.Collect$$rtentry$$00000004)
    .ARM.Collect$$rtentry$$00000009          0x1a0001cc   Section        0  __rtentry2.o(.ARM.Collect$$rtentry$$00000009)
    .ARM.Collect$$rtentry$$0000000A          0x1a0001cc   Section        4  __rtentry2.o(.ARM.Collect$$rtentry$$0000000A)
    .ARM.Collect$$rtentry$$0000000C          0x1a0001d0   Section        0  __rtentry2.o(.ARM.Collect$$rtentry$$0000000C)
    .ARM.Collect$$rtentry$$0000000D          0x1a0001d0   Section        8  __rtentry2.o(.ARM.Collect$$rtentry$$0000000D)
    .ARM.Collect$$rtexit$$00000000           0x1a0001d8   Section        2  rtexit.o(.ARM.Collect$$rtexit$$00000000)
    .ARM.Collect$$rtexit$$00000002           0x1a0001da   Section        0  rtexit2.o(.ARM.Collect$$rtexit$$00000002)
    .ARM.Collect$$rtexit$$00000003           0x1a0001da   Section        4  rtexit2.o(.ARM.Collect$$rtexit$$00000003)
    .ARM.Collect$$rtexit$$00000004           0x1a0001de   Section        6  rtexit2.o(.ARM.Collect$$rtexit$$00000004)
    .text                                    0x1a0001e4   Section        0  raw-os.o(.text)
    release_mutex                            0x1a0004e5   Thumb Code    88  raw-os.o(.text)
    tick_task_process                        0x1a00081d   Thumb Code    28  raw-os.o(.text)
    pend_task_wake_up                        0x1a000a21   Thumb Code    90  raw-os.o(.text)
    int_msg_handler                          0x1a000e4f   Thumb Code   138  raw-os.o(.text)
    task_0_post                              0x1a000ed9   Thumb Code   120  raw-os.o(.text)
    task_0_tick_handler                      0x1a00108b   Thumb Code    28  raw-os.o(.text)
    task_0_process                           0x1a0010a7   Thumb Code   124  raw-os.o(.text)
    internal_raw_mq_send                     0x1a001fa1   Thumb Code   214  raw-os.o(.text)
    is_list_empty                            0x1a002beb   Thumb Code    14  raw-os.o(.text)
    list_insert                              0x1a002bf9   Thumb Code    14  raw-os.o(.text)
    list_delete                              0x1a002c07   Thumb Code    12  raw-os.o(.text)
    add_to_priority_list                     0x1a002c13   Thumb Code    28  raw-os.o(.text)
    bit_set                                  0x1a002c2f   Thumb Code    20  raw-os.o(.text)
    timer_list_remove                        0x1a002c43   Thumb Code    22  raw-os.o(.text)
    timer_list_priority_insert               0x1a002c59   Thumb Code    32  raw-os.o(.text)
    raw_byte_pool_search                     0x1a002c79   Thumb Code   190  raw-os.o(.text)
    .text                                    0x1a002d48   Section        0  fifo.o(.text)
    internal_fifo_out_peek                   0x1a002de7   Thumb Code    62  fifo.o(.text)
    .text                                    0x1a002ebc   Section        0  raw_malloc.o(.text)
    chkalloc_test                            0x1a002ebd   Thumb Code   210  raw_malloc.o(.text)
    removeFreeQue                            0x1a003013   Thumb Code    68  raw_malloc.o(.text)
    allocate                                 0x1a003057   Thumb Code    58  raw_malloc.o(.text)
    _mem_malloc                              0x1a003091   Thumb Code   172  raw_malloc.o(.text)
    _mem_free                                0x1a00313d   Thumb Code   134  raw_malloc.o(.text)
    list_insert                              0x1a0032cf   Thumb Code   194  raw_malloc.o(.text)
    insertAreaQue                            0x1a003391   Thumb Code    22  raw_malloc.o(.text)
    removeAreaQue                            0x1a0033a7   Thumb Code    24  raw_malloc.o(.text)
    _mem_realloc                             0x1a0033bf   Thumb Code   174  raw_malloc.o(.text)
    .text                                    0x1a003470   Section        0  raw_page.o(.text)
    remove_free_page                         0x1a003471   Thumb Code    52  raw_page.o(.text)
    search_free_page                         0x1a0034a5   Thumb Code    50  raw_page.o(.text)
    add_page_to_pool                         0x1a0034d7   Thumb Code   168  raw_page.o(.text)
    set_page_attr                            0x1a003677   Thumb Code    20  raw_page.o(.text)
    get_pages                                0x1a00368b   Thumb Code    90  raw_page.o(.text)
    free_pages                               0x1a0036e5   Thumb Code   178  raw_page.o(.text)
    set_page_used                            0x1a003797   Thumb Code   142  raw_page.o(.text)
    .text                                    0x1a003844   Section      164  cpu.o(.text)
    $v0                                      0x1a003844   Number         0  cpu.o(.text)
    .text                                    0x1a0038e8   Section        0  port.o(.text)
    .text                                    0x1a003a2c   Section        0  port_hook.o(.text)
    .text                                    0x1a003a3e   Section        0  user_extension.o(.text)
    .text                                    0x1a003ac8   Section       68  keil_startup_lpc18xx43xx.o(.text)
    $v0                                      0x1a003ac8   Number         0  keil_startup_lpc18xx43xx.o(.text)
    .text                                    0x1a003b0c   Section        0  sysinit.o(.text)
    .text                                    0x1a003b28   Section        0  lpc43xx_scu.o(.text)
    .text                                    0x1a003b3c   Section        0  lpc43xx_sdram.o(.text)
    .text                                    0x1a003f98   Section        0  k9f1g08.o(.text)
    k9f_state_read                           0x1a00401b   Thumb Code    36  k9f1g08.o(.text)
    k9f_busy_wait                            0x1a0042f7   Thumb Code    22  k9f1g08.o(.text)
    .text                                    0x1a004314   Section        0  lpc43xx_gpio.o(.text)
    .text                                    0x1a004354   Section        0  yaffs_port_nand_drv.o(.text)
    yaffs_nand_drv_WriteChunk                0x1a004355   Thumb Code   104  yaffs_port_nand_drv.o(.text)
    yaffs_nand_drv_ReadChunk                 0x1a0043bd   Thumb Code   106  yaffs_port_nand_drv.o(.text)
    yaffs_nand_drv_EraseBlock                0x1a004427   Thumb Code    16  yaffs_port_nand_drv.o(.text)
    yaffs_nand_drv_MarkBad                   0x1a004437   Thumb Code    22  yaffs_port_nand_drv.o(.text)
    yaffs_nand_drv_CheckBad                  0x1a00444d   Thumb Code    36  yaffs_port_nand_drv.o(.text)
    yaffs_nand_drv_Initialise                0x1a004471   Thumb Code     4  yaffs_port_nand_drv.o(.text)
    yaffs_nand_drv_Deinitialise              0x1a004475   Thumb Code     4  yaffs_port_nand_drv.o(.text)
    .text                                    0x1a0044b8   Section        0  main.o(.text)
    sdmmc_waitms                             0x1a0044b9   Thumb Code    50  main.o(.text)
    sdmmc_setup_wakeup                       0x1a0044eb   Thumb Code    30  main.o(.text)
    sdmmc_irq_driven_wait                    0x1a004509   Thumb Code    22  main.o(.text)
    NVIC_EnableIRQ                           0x1a004bef   Thumb Code    22  main.o(.text)
    NVIC_DisableIRQ                          0x1a004c05   Thumb Code    22  main.o(.text)
    NVIC_SetPriority                         0x1a004c1b   Thumb Code    32  main.o(.text)
    .text                                    0x1a004c88   Section        0  yaffs_attribs.o(.text)
    .text                                    0x1a004dac   Section        0  yaffs_hweight.o(.text)
    .text                                    0x1a004dd4   Section        0  yaffs_qsort.o(.text)
    swapfunc                                 0x1a004dd5   Thumb Code    44  yaffs_qsort.o(.text)
    med3                                     0x1a004e01   Thumb Code    70  yaffs_qsort.o(.text)
    .text                                    0x1a0050a4   Section        0  yaffsfs.o(.text)
    yaffsfs_HandleToObject                   0x1a0050b1   Thumb Code    48  yaffsfs.o(.text)
    yaffsfs_PutInode                         0x1a0050e1   Thumb Code    44  yaffsfs.o(.text)
    yaffsfs_NewHandle                        0x1a00510d   Thumb Code    50  yaffsfs.o(.text)
    yaffsfs_closedir_no_lock                 0x1a00513f   Thumb Code    56  yaffsfs.o(.text)
    yaffsfs_PutHandle                        0x1a005177   Thumb Code   110  yaffsfs.o(.text)
    yaffsfs_BreakDeviceHandles               0x1a0051e5   Thumb Code   102  yaffsfs.o(.text)
    yaffsfs_alt_dir_path                     0x1a00524b   Thumb Code    86  yaffsfs.o(.text)
    yaffsfs_FindDevice                       0x1a0052a1   Thumb Code   184  yaffsfs.o(.text)
    yaffsfs_CheckPath                        0x1a005359   Thumb Code    46  yaffsfs.o(.text)
    yaffsfs_DoFindDirectory                  0x1a005387   Thumb Code   220  yaffsfs.o(.text)
    yaffsfs_FindObject                       0x1a005463   Thumb Code    78  yaffsfs.o(.text)
    yaffsfs_FollowLink                       0x1a0054b1   Thumb Code    92  yaffsfs.o(.text)
    yaffsfs_SetDirRewound                    0x1a00556d   Thumb Code    60  yaffsfs.o(.text)
    yaffsfs_opendir_reldir_no_lock           0x1a0055a9   Thumb Code   260  yaffsfs.o(.text)
    yaffs_Dofsync                            0x1a005ad3   Thumb Code    64  yaffsfs.o(.text)
    yaffsfs_do_read                          0x1a005b73   Thumb Code   316  yaffsfs.o(.text)
    yaffsfs_do_write                         0x1a005cc7   Thumb Code   342  yaffsfs.o(.text)
    yaffsfs_DoUnlink_reldir                  0x1a006011   Thumb Code   258  yaffsfs.o(.text)
    yaffsfs_DoStat                           0x1a006317   Thumb Code   138  yaffsfs.o(.text)
    yaffsfs_DoStatOrLStat_reldir             0x1a0063a1   Thumb Code   172  yaffsfs.o(.text)
    yaffsfs_DoUtime                          0x1a0064d5   Thumb Code    84  yaffsfs.o(.text)
    yaffs_do_setxattr_reldir                 0x1a0065f9   Thumb Code   208  yaffsfs.o(.text)
    yaffs_do_getxattr_reldir                 0x1a0067cf   Thumb Code   204  yaffsfs.o(.text)
    yaffs_do_listxattr_reldir                0x1a006985   Thumb Code   186  yaffsfs.o(.text)
    yaffs_do_removexattr_reldir              0x1a006af3   Thumb Code   184  yaffsfs.o(.text)
    yaffsfs_DoChMod                          0x1a006c3d   Thumb Code    46  yaffsfs.o(.text)
    yaffsfs_bg_gc_common                     0x1a007171   Thumb Code   112  yaffsfs.o(.text)
    yaffsfs_DirAdvance                       0x1a00758b   Thumb Code    68  yaffsfs.o(.text)
    yaffsfs_RemoveObjectCallback             0x1a0075cf   Thumb Code    40  yaffsfs.o(.text)
    list_empty                               0x1a007b81   Thumb Code    14  yaffsfs.o(.text)
    yaffsfs_InitHandles                      0x1a007b8f   Thumb Code    92  yaffsfs.o(.text)
    yaffsfs_HandleToPointer                  0x1a007beb   Thumb Code    16  yaffsfs.o(.text)
    yaffsfs_HandleToFileDes                  0x1a007bfb   Thumb Code    42  yaffsfs.o(.text)
    yaffsfs_FindInodeIdForObject             0x1a007c25   Thumb Code    42  yaffsfs.o(.text)
    yaffsfs_GetHandle                        0x1a007c4f   Thumb Code    30  yaffsfs.o(.text)
    yaffsfs_IsPathDivider                    0x1a007c6d   Thumb Code    24  yaffsfs.o(.text)
    yaffsfs_FindMountPoint                   0x1a007c85   Thumb Code    32  yaffsfs.o(.text)
    yaffsfs_FindDirectory                    0x1a007ca5   Thumb Code    16  yaffsfs.o(.text)
    yaffsfs_TooManyObjects                   0x1a007cb5   Thumb Code    26  yaffsfs.o(.text)
    yaffsfs_IsDevBusy                        0x1a007ccf   Thumb Code    34  yaffsfs.o(.text)
    yaffsfs_rewinddir_no_lock                0x1a007cf1   Thumb Code    30  yaffsfs.o(.text)
    .text                                    0x1a007d24   Section        0  yaffs_allocator.o(.text)
    yaffs_create_tnodes                      0x1a007d25   Thumb Code   164  yaffs_allocator.o(.text)
    yaffs_create_free_objs                   0x1a007e23   Thumb Code   142  yaffs_allocator.o(.text)
    list_empty                               0x1a007fc1   Thumb Code    14  yaffs_allocator.o(.text)
    yaffs_deinit_raw_objs                    0x1a007fcf   Thumb Code    58  yaffs_allocator.o(.text)
    .text                                    0x1a008120   Section        0  yaffs_bitmap.o(.text)
    yaffs_block_bits                         0x1a008121   Thumb Code    64  yaffs_bitmap.o(.text)
    .text                                    0x1a008324   Section        0  yaffs_checkptrw.o(.text)
    yaffs_get_block_info                     0x1a008325   Thumb Code    60  yaffs_checkptrw.o(.text)
    yaffs_checkpt_erase                      0x1a008361   Thumb Code   182  yaffs_checkptrw.o(.text)
    yaffs2_checkpt_find_block                0x1a008417   Thumb Code   212  yaffs_checkptrw.o(.text)
    yaffs2_checkpt_flush_buffer              0x1a0085d3   Thumb Code   224  yaffs_checkptrw.o(.text)
    yaffs2_checkpt_init_chunk_hdr            0x1a008ae3   Thumb Code    36  yaffs_checkptrw.o(.text)
    yaffs2_checkpt_find_erased_block         0x1a008b07   Thumb Code   134  yaffs_checkptrw.o(.text)
    .text                                    0x1a008c28   Section        0  yaffs_ecc.o(.text)
    .text                                    0x1a008ea4   Section        0  yaffs_guts.o(.text)
    yaffs_get_block_info                     0x1a008ea5   Thumb Code    60  yaffs_guts.o(.text)
    yaffs_retire_block                       0x1a00902b   Thumb Code   184  yaffs_guts.o(.text)
    yaffs_check_chunk_erased                 0x1a0090f9   Thumb Code    86  yaffs_guts.o(.text)
    yaffs_find_alloc_block                   0x1a0095c5   Thumb Code   178  yaffs_guts.o(.text)
    yaffs_alloc_chunk                        0x1a009677   Thumb Code   200  yaffs_guts.o(.text)
    yaffs_write_new_chunk                    0x1a00973f   Thumb Code   758  yaffs_guts.o(.text)
    yaffs_fix_null_name                      0x1a009a35   Thumb Code    88  yaffs_guts.o(.text)
    yaffs_load_tnode_0                       0x1a009b07   Thumb Code    86  yaffs_guts.o(.text)
    yaffs_find_chunk_in_group                0x1a009cb1   Thumb Code   102  yaffs_guts.o(.text)
    yaffs_soft_del_worker                    0x1a009f45   Thumb Code   192  yaffs_guts.o(.text)
    yaffs_remove_obj_from_dir                0x1a00a005   Thumb Code    50  yaffs_guts.o(.text)
    yaffs_check_obj_details_loaded           0x1a00a11b   Thumb Code   100  yaffs_guts.o(.text)
    yaffs_free_obj                           0x1a00a17f   Thumb Code   170  yaffs_guts.o(.text)
    yaffs_invalidate_whole_cache             0x1a00a229   Thumb Code    46  yaffs_guts.o(.text)
    yaffs_generic_obj_del                    0x1a00a257   Thumb Code    70  yaffs_guts.o(.text)
    yaffs_gc_process_chunk                   0x1a00a39b   Thumb Code   392  yaffs_guts.o(.text)
    yaffs_gc_block                           0x1a00a523   Thumb Code   428  yaffs_guts.o(.text)
    yaffs_find_gc_block                      0x1a00a6cf   Thumb Code   940  yaffs_guts.o(.text)
    yaffs_check_gc                           0x1a00aa7b   Thumb Code   328  yaffs_guts.o(.text)
    yaffs_change_obj_name                    0x1a00b023   Thumb Code   182  yaffs_guts.o(.text)
    yaffs_wr_data_obj                        0x1a00b0d9   Thumb Code   186  yaffs_guts.o(.text)
    yaffs_flush_file_cache                   0x1a00b193   Thumb Code   146  yaffs_guts.o(.text)
    yaffs_grab_chunk_worker                  0x1a00b267   Thumb Code    50  yaffs_guts.o(.text)
    yaffs_grab_chunk_cache                   0x1a00b299   Thumb Code   360  yaffs_guts.o(.text)
    yaffs_find_chunk_cache                   0x1a00b401   Thumb Code    76  yaffs_guts.o(.text)
    yaffs_use_cache                          0x1a00b44d   Thumb Code    74  yaffs_guts.o(.text)
    yaffs_soft_del_file                      0x1a00b4a3   Thumb Code    88  yaffs_guts.o(.text)
    yaffs_prune_worker                       0x1a00b4fb   Thumb Code   112  yaffs_guts.o(.text)
    yaffs_new_obj                            0x1a00b56b   Thumb Code   174  yaffs_guts.o(.text)
    yaffs_create_fake_dir                    0x1a00b619   Thumb Code    38  yaffs_guts.o(.text)
    yaffs_init_tnodes_and_objs               0x1a00b63f   Thumb Code    48  yaffs_guts.o(.text)
    yaffs_update_parent                      0x1a00b68f   Thumb Code    94  yaffs_guts.o(.text)
    yaffs_rd_data_obj                        0x1a00b763   Thumb Code    60  yaffs_guts.o(.text)
    yaffs_prune_chunks                       0x1a00b79f   Thumb Code   426  yaffs_guts.o(.text)
    yaffs_del_file                           0x1a00ba5f   Thumb Code   118  yaffs_guts.o(.text)
    yaffs_create_obj                         0x1a00bb45   Thumb Code   224  yaffs_guts.o(.text)
    yaffs_deinit_blocks                      0x1a00bd65   Thumb Code    68  yaffs_guts.o(.text)
    yaffs_init_blocks                        0x1a00bda9   Thumb Code   182  yaffs_guts.o(.text)
    yaffs_do_xattrib_mod                     0x1a00be97   Thumb Code    56  yaffs_guts.o(.text)
    yaffs_do_xattrib_fetch                   0x1a00becf   Thumb Code   174  yaffs_guts.o(.text)
    yaffs_unlink_worker                      0x1a00c3e7   Thumb Code   232  yaffs_guts.o(.text)
    yaffs_fix_hanging_objs                   0x1a00c62d   Thumb Code   154  yaffs_guts.o(.text)
    yaffs_del_dir_contents                   0x1a00c6c7   Thumb Code    82  yaffs_guts.o(.text)
    yaffs_create_initial_dir                 0x1a00c7c3   Thumb Code   122  yaffs_guts.o(.text)
    list_add                                 0x1a00d01f   Thumb Code    12  yaffs_guts.o(.text)
    list_del_init                            0x1a00d02b   Thumb Code    14  yaffs_guts.o(.text)
    list_empty                               0x1a00d039   Thumb Code    14  yaffs_guts.o(.text)
    yaffs_hash_fn                            0x1a00d047   Thumb Code    20  yaffs_guts.o(.text)
    yaffs_get_erased_chunks                  0x1a00d05b   Thumb Code    28  yaffs_guts.o(.text)
    yaffs_calc_name_sum                      0x1a00d077   Thumb Code    38  yaffs_guts.o(.text)
    yaffs_free_tnode                         0x1a00d09d   Thumb Code    26  yaffs_guts.o(.text)
    yaffs_deinit_tnodes_and_objs             0x1a00d0b7   Thumb Code    20  yaffs_guts.o(.text)
    yaffs_alloc_empty_obj                    0x1a00d0cb   Thumb Code   118  yaffs_guts.o(.text)
    yaffs_new_obj_id                         0x1a00d141   Thumb Code   102  yaffs_guts.o(.text)
    yaffs_del_link                           0x1a00d1a7   Thumb Code    20  yaffs_guts.o(.text)
    yaffs_del_symlink                        0x1a00d1bb   Thumb Code    24  yaffs_guts.o(.text)
    yaffs_del_dir                            0x1a00d1d3   Thumb Code    24  yaffs_guts.o(.text)
    yaffs_unlink_file_if_needed              0x1a00d1eb   Thumb Code   110  yaffs_guts.o(.text)
    yaffs_unlink_obj                         0x1a00d259   Thumb Code    16  yaffs_guts.o(.text)
    yaffs_has_null_parent                    0x1a00d269   Thumb Code    32  yaffs_guts.o(.text)
    .text                                    0x1a00d334   Section        0  yaffs_nameval.o(.text)
    nval_find                                0x1a00d335   Thumb Code    96  yaffs_nameval.o(.text)
    nval_used                                0x1a00d563   Thumb Code    38  yaffs_nameval.o(.text)
    .text                                    0x1a00d588   Section        0  yaffs_nand.o(.text)
    .text                                    0x1a00d7dc   Section        0  yaffs_packedtags2.o(.text)
    yaffs_dump_packed_tags2_tags_only        0x1a00d7dd   Thumb Code    26  yaffs_packedtags2.o(.text)
    yaffs_dump_tags2                         0x1a00d7f7   Thumb Code    52  yaffs_packedtags2.o(.text)
    .text                                    0x1a00d9d4   Section        0  yaffs_summary.o(.text)
    yaffs_get_block_info                     0x1a00d9d5   Thumb Code    60  yaffs_summary.o(.text)
    yaffs_summary_write                      0x1a00da8b   Thumb Code   252  yaffs_summary.o(.text)
    yaffs_summary_clear                      0x1a00dd8d   Thumb Code   160  yaffs_summary.o(.text)
    yaffs_summary_sum                        0x1a00de2d   Thumb Code    34  yaffs_summary.o(.text)
    .text                                    0x1a00de50   Section        0  yaffs_tagscompat.o(.text)
    yaffs_rd_chunk_nand                      0x1a00decb   Thumb Code   298  yaffs_tagscompat.o(.text)
    yaffs_tags_compat_wr                     0x1a00dff5   Thumb Code   214  yaffs_tagscompat.o(.text)
    yaffs_tags_compat_rd                     0x1a00e0cb   Thumb Code   280  yaffs_tagscompat.o(.text)
    yaffs_tags_compat_mark_bad               0x1a00e1e3   Thumb Code    58  yaffs_tagscompat.o(.text)
    yaffs_tags_compat_query_block            0x1a00e21d   Thumb Code   368  yaffs_tagscompat.o(.text)
    yaffs_wr_nand                            0x1a00e3c7   Thumb Code    20  yaffs_tagscompat.o(.text)
    yaffs_handle_rd_data_error               0x1a00e3db   Thumb Code   102  yaffs_tagscompat.o(.text)
    .text                                    0x1a00e504   Section        0  yaffs_tagsmarshall.o(.text)
    yaffs_tags_marshall_write                0x1a00e505   Thumb Code   124  yaffs_tagsmarshall.o(.text)
    yaffs_tags_marshall_read                 0x1a00e581   Thumb Code   220  yaffs_tagsmarshall.o(.text)
    yaffs_tags_marshall_query_block          0x1a00e65d   Thumb Code   136  yaffs_tagsmarshall.o(.text)
    yaffs_tags_marshall_mark_bad             0x1a00e6e5   Thumb Code     6  yaffs_tagsmarshall.o(.text)
    .text                                    0x1a00e864   Section        0  yaffs_verify.o(.text)
    yaffs_skip_nand_verification             0x1a00f2bf   Thumb Code    12  yaffs_verify.o(.text)
    .text                                    0x1a00f4d8   Section        0  yaffs_yaffs1.o(.text)
    .text                                    0x1a00fb14   Section        0  yaffs_yaffs2.o(.text)
    yaffs2_wr_checkpt_validity_marker        0x1a00fcdb   Thumb Code    46  yaffs_yaffs2.o(.text)
    yaffs2_rd_checkpt_validity_marker        0x1a00fd09   Thumb Code    76  yaffs_yaffs2.o(.text)
    yaffs2_checkpt_obj_to_obj                0x1a00fd55   Thumb Code   224  yaffs_yaffs2.o(.text)
    yaffs2_checkpt_tnode_worker              0x1a00fe35   Thumb Code   112  yaffs_yaffs2.o(.text)
    yaffs2_rd_checkpt_tnodes                 0x1a00fea5   Thumb Code   138  yaffs_yaffs2.o(.text)
    yaffs2_wr_checkpt_objs                   0x1a00ff2f   Thumb Code   318  yaffs_yaffs2.o(.text)
    yaffs2_rd_checkpt_objs                   0x1a01006d   Thumb Code   190  yaffs_yaffs2.o(.text)
    yaffs2_wr_checkpt_data                   0x1a01012b   Thumb Code   204  yaffs_yaffs2.o(.text)
    yaffs2_rd_checkpt_data                   0x1a0101f7   Thumb Code   230  yaffs_yaffs2.o(.text)
    yaffs2_ybicmp                            0x1a0106c9   Thumb Code    20  yaffs_yaffs2.o(.text)
    yaffs2_scan_chunk                        0x1a0106dd   Thumb Code  1380  yaffs_yaffs2.o(.text)
    yaffs2_wr_checkpt_dev                    0x1a010f31   Thumb Code   156  yaffs_yaffs2.o(.text)
    yaffs2_rd_checkpt_dev                    0x1a010fcd   Thumb Code   644  yaffs_yaffs2.o(.text)
    yaffs2_obj_checkpt_obj                   0x1a011251   Thumb Code   114  yaffs_yaffs2.o(.text)
    .text                                    0x1a0112c4   Section        0  yaffs_osglue.o(.text)
    .text                                    0x1a011348   Section        0  yaffscfg2k.o(.text)
    .text                                    0x1a011384   Section        0  yaffs_startup.o(.text)
    .text                                    0x1a0113ec   Section        0  diskio.o(.text)
    .text                                    0x1a011438   Section        0  ff.o(.text)
    chk_lock                                 0x1a011439   Thumb Code    94  ff.o(.text)
    inc_lock                                 0x1a011497   Thumb Code   136  ff.o(.text)
    dec_lock                                 0x1a01151f   Thumb Code    42  ff.o(.text)
    sync_window                              0x1a011549   Thumb Code    82  ff.o(.text)
    move_window                              0x1a01159b   Thumb Code    50  ff.o(.text)
    sync_fs                                  0x1a0115cd   Thumb Code   176  ff.o(.text)
    remove_chain                             0x1a01184b   Thumb Code    96  ff.o(.text)
    create_chain                             0x1a0118ab   Thumb Code   156  ff.o(.text)
    clmt_clust                               0x1a011947   Thumb Code    36  ff.o(.text)
    dir_sdi                                  0x1a01196b   Thumb Code   124  ff.o(.text)
    dir_next                                 0x1a0119e7   Thumb Code   228  ff.o(.text)
    dir_alloc                                0x1a011acb   Thumb Code    66  ff.o(.text)
    dir_read                                 0x1a011b0d   Thumb Code    92  ff.o(.text)
    dir_register                             0x1a011b69   Thumb Code    56  ff.o(.text)
    dir_remove                               0x1a011ba1   Thumb Code    52  ff.o(.text)
    get_fileinfo                             0x1a011bd5   Thumb Code    76  ff.o(.text)
    create_name                              0x1a011c21   Thumb Code   286  ff.o(.text)
    follow_path                              0x1a011d3f   Thumb Code   170  ff.o(.text)
    get_ldnumber                             0x1a011de9   Thumb Code    60  ff.o(.text)
    check_fs                                 0x1a011e25   Thumb Code    86  ff.o(.text)
    find_volume                              0x1a011e7b   Thumb Code   594  ff.o(.text)
    validate                                 0x1a0120cd   Thumb Code    38  ff.o(.text)
    mem_cpy                                  0x1a0135a5   Thumb Code    16  ff.o(.text)
    mem_set                                  0x1a0135b5   Thumb Code    14  ff.o(.text)
    chk_chr                                  0x1a0135c3   Thumb Code    16  ff.o(.text)
    clear_lock                               0x1a0135d3   Thumb Code    30  ff.o(.text)
    ld_clust                                 0x1a0135f1   Thumb Code    18  ff.o(.text)
    st_clust                                 0x1a013603   Thumb Code    16  ff.o(.text)
    .text                                    0x1a013630   Section        0  noretval__2printf.o(.text)
    .text                                    0x1a013648   Section        0  _printf_pad.o(.text)
    .text                                    0x1a013696   Section        0  _printf_str.o(.text)
    .text                                    0x1a0136e8   Section        0  _printf_dec.o(.text)
    .text                                    0x1a013760   Section        0  _printf_longlong_dec.o(.text)
    .text                                    0x1a0137dc   Section        0  _printf_hex_int_ptr.o(.text)
    _printf_hex_common                       0x1a0137dd   Thumb Code     0  _printf_hex_int_ptr.o(.text)
    .text                                    0x1a013858   Section        0  __printf_flags_ss_wp.o(.text)
    .text                                    0x1a0139e0   Section        0  memcmp.o(.text)
    .text                                    0x1a013a38   Section        0  strcpy.o(.text)
    .text                                    0x1a013a80   Section        0  strncmp.o(.text)
    .text                                    0x1a013b16   Section        0  strcat.o(.text)
    .text                                    0x1a013b2e   Section      138  rt_memcpy_v6.o(.text)
    .text                                    0x1a013bb8   Section      100  rt_memcpy_w.o(.text)
    .text                                    0x1a013c1c   Section       16  aeabi_memset.o(.text)
    .text                                    0x1a013c2c   Section       68  rt_memclr.o(.text)
    .text                                    0x1a013c70   Section       78  rt_memclr_w.o(.text)
    .text                                    0x1a013cbe   Section       86  strncpy.o(.text)
    .text                                    0x1a013d14   Section      128  strcmpv7m.o(.text)
    .text                                    0x1a013d94   Section        0  heapauxi.o(.text)
    .text                                    0x1a013d9a   Section      138  lludiv10.o(.text)
    .text                                    0x1a013e24   Section        0  _printf_intcommon.o(.text)
    .text                                    0x1a013ed6   Section        0  _printf_char.o(.text)
    .text                                    0x1a013f04   Section        0  _printf_char_file.o(.text)
    .text                                    0x1a013f28   Section        0  _printf_char_common.o(.text)
    _printf_input_char                       0x1a013f29   Thumb Code    10  _printf_char_common.o(.text)
    .text                                    0x1a013f58   Section       74  sys_stackheap_outer.o(.text)
    .text                                    0x1a013fa2   Section        0  exit.o(.text)
    .text                                    0x1a013fb0   Section        8  libspace.o(.text)
    i.Board_SDMMC_Init                       0x1a013fb8   Section        0  board.o(i.Board_SDMMC_Init)
    i.Board_SetupClocking                    0x1a014004   Section        0  board_sysinit.o(i.Board_SetupClocking)
    i.Board_SetupMuxing                      0x1a0140b8   Section        0  board_sysinit.o(i.Board_SetupMuxing)
    i.Board_SystemInit                       0x1a014104   Section        0  board_sysinit.o(i.Board_SystemInit)
    i.Board_UARTPutChar                      0x1a014110   Section        0  board.o(i.Board_UARTPutChar)
    i.Board_UART_Init                        0x1a014130   Section        0  board.o(i.Board_UART_Init)
    i.Chip_Clock_EnableOpts                  0x1a014174   Section        0  clock_18xx_43xx.o(i.Chip_Clock_EnableOpts)
    i.Chip_Clock_FindBaseClock               0x1a0141b0   Section        0  clock_18xx_43xx.o(i.Chip_Clock_FindBaseClock)
    Chip_Clock_FindBaseClock                 0x1a0141b1   Thumb Code    74  clock_18xx_43xx.o(i.Chip_Clock_FindBaseClock)
    i.Chip_Clock_GetBaseClock                0x1a014200   Section        0  clock_18xx_43xx.o(i.Chip_Clock_GetBaseClock)
    i.Chip_Clock_GetBaseClocktHz             0x1a014224   Section        0  clock_18xx_43xx.o(i.Chip_Clock_GetBaseClocktHz)
    i.Chip_Clock_GetClockInputHz             0x1a014238   Section        0  clock_18xx_43xx.o(i.Chip_Clock_GetClockInputHz)
    i.Chip_Clock_GetDivRate                  0x1a01430c   Section        0  clock_18xx_43xx.o(i.Chip_Clock_GetDivRate)
    Chip_Clock_GetDivRate                    0x1a01430d   Thumb Code    40  clock_18xx_43xx.o(i.Chip_Clock_GetDivRate)
    i.Chip_Clock_GetDividerDivisor           0x1a014334   Section        0  clock_18xx_43xx.o(i.Chip_Clock_GetDividerDivisor)
    i.Chip_Clock_GetDividerSource            0x1a014354   Section        0  clock_18xx_43xx.o(i.Chip_Clock_GetDividerSource)
    i.Chip_Clock_GetMainPLLHz                0x1a014374   Section        0  clock_18xx_43xx.o(i.Chip_Clock_GetMainPLLHz)
    i.Chip_Clock_GetRate                     0x1a0143ec   Section        0  clock_18xx_43xx.o(i.Chip_Clock_GetRate)
    i.Chip_Clock_SetBaseClock                0x1a014444   Section        0  clock_18xx_43xx.o(i.Chip_Clock_SetBaseClock)
    i.Chip_Clock_SetDivider                  0x1a01448c   Section        0  clock_18xx_43xx.o(i.Chip_Clock_SetDivider)
    i.Chip_SCU_PinMuxSet                     0x1a0144dc   Section        0  board.o(i.Chip_SCU_PinMuxSet)
    Chip_SCU_PinMuxSet                       0x1a0144dd   Thumb Code    12  board.o(i.Chip_SCU_PinMuxSet)
    i.Chip_SCU_SetPinMuxing                  0x1a0144ec   Section        0  board_sysinit.o(i.Chip_SCU_SetPinMuxing)
    Chip_SCU_SetPinMuxing                    0x1a0144ed   Thumb Code    44  board_sysinit.o(i.Chip_SCU_SetPinMuxing)
    i.Chip_SDIF_DmaSetup                     0x1a01451c   Section        0  sdif_18xx_43xx.o(i.Chip_SDIF_DmaSetup)
    i.Chip_SDIF_GetResponse                  0x1a014594   Section        0  sdif_18xx_43xx.o(i.Chip_SDIF_GetResponse)
    i.Chip_SDIF_Init                         0x1a0145a8   Section        0  sdif_18xx_43xx.o(i.Chip_SDIF_Init)
    i.Chip_SDIF_SendCmd                      0x1a0145f8   Section        0  sdif_18xx_43xx.o(i.Chip_SDIF_SendCmd)
    i.Chip_SDIF_SetByteCnt                   0x1a01464a   Section        0  sdmmc_18xx_43xx.o(i.Chip_SDIF_SetByteCnt)
    Chip_SDIF_SetByteCnt                     0x1a01464b   Thumb Code     4  sdmmc_18xx_43xx.o(i.Chip_SDIF_SetByteCnt)
    i.Chip_SDIF_SetCardType                  0x1a01464e   Section        0  sdmmc_18xx_43xx.o(i.Chip_SDIF_SetCardType)
    Chip_SDIF_SetCardType                    0x1a01464f   Thumb Code     4  sdmmc_18xx_43xx.o(i.Chip_SDIF_SetCardType)
    i.Chip_SDIF_SetClearIntFifo              0x1a014652   Section        0  sdif_18xx_43xx.o(i.Chip_SDIF_SetClearIntFifo)
    i.Chip_SDIF_SetClock                     0x1a01466c   Section        0  sdif_18xx_43xx.o(i.Chip_SDIF_SetClock)
    i.Chip_SDMMC_Acquire                     0x1a0146bc   Section        0  sdmmc_18xx_43xx.o(i.Chip_SDMMC_Acquire)
    i.Chip_SDMMC_GetDeviceBlocks             0x1a0149b0   Section        0  sdmmc_18xx_43xx.o(i.Chip_SDMMC_GetDeviceBlocks)
    i.Chip_SDMMC_GetState                    0x1a0149c0   Section        0  sdmmc_18xx_43xx.o(i.Chip_SDMMC_GetState)
    i.Chip_SDMMC_ReadBlocks                  0x1a0149fc   Section        0  sdmmc_18xx_43xx.o(i.Chip_SDMMC_ReadBlocks)
    i.Chip_SDMMC_WriteBlocks                 0x1a014aa4   Section        0  sdmmc_18xx_43xx.o(i.Chip_SDMMC_WriteBlocks)
    i.Chip_SetupCoreClock                    0x1a014b50   Section        0  sysinit_18xx_43xx.o(i.Chip_SetupCoreClock)
    i.Chip_UART_DisableDivisorAccess         0x1a014b5e   Section        0  uart_18xx_43xx.o(i.Chip_UART_DisableDivisorAccess)
    Chip_UART_DisableDivisorAccess           0x1a014b5f   Thumb Code    10  uart_18xx_43xx.o(i.Chip_UART_DisableDivisorAccess)
    i.Chip_UART_EnableDivisorAccess          0x1a014b68   Section        0  uart_18xx_43xx.o(i.Chip_UART_EnableDivisorAccess)
    Chip_UART_EnableDivisorAccess            0x1a014b69   Thumb Code    10  uart_18xx_43xx.o(i.Chip_UART_EnableDivisorAccess)
    i.Chip_UART_GetClockIndex                0x1a014b74   Section        0  uart_18xx_43xx.o(i.Chip_UART_GetClockIndex)
    Chip_UART_GetClockIndex                  0x1a014b75   Thumb Code    36  uart_18xx_43xx.o(i.Chip_UART_GetClockIndex)
    i.Chip_UART_Init                         0x1a014ba4   Section        0  uart_18xx_43xx.o(i.Chip_UART_Init)
    i.Chip_UART_SetBaud                      0x1a014bf0   Section        0  uart_18xx_43xx.o(i.Chip_UART_SetBaud)
    i.Chip_UART_SetDivisorLatches            0x1a014c32   Section        0  uart_18xx_43xx.o(i.Chip_UART_SetDivisorLatches)
    Chip_UART_SetDivisorLatches              0x1a014c33   Thumb Code     6  uart_18xx_43xx.o(i.Chip_UART_SetDivisorLatches)
    i.SystemCoreClockUpdate                  0x1a014c38   Section        0  chip_18xx_43xx.o(i.SystemCoreClockUpdate)
    i._is_digit                              0x1a014c4c   Section        0  __printf_wp.o(i._is_digit)
    i._sys_exit                              0x1a014c5a   Section        0  board.o(i._sys_exit)
    i.clock_init_delay                       0x1a014c60   Section        0  sysinit_18xx_43xx.o(i.clock_init_delay)
    clock_init_delay                         0x1a014c61   Thumb Code    36  sysinit_18xx_43xx.o(i.clock_init_delay)
    i.clock_main_init                        0x1a014c84   Section        0  sysinit_18xx_43xx.o(i.clock_main_init)
    clock_main_init                          0x1a014c85   Thumb Code   168  sysinit_18xx_43xx.o(i.clock_main_init)
    i.ferror                                 0x1a014d40   Section        0  board.o(i.ferror)
    i.fpuInit                                0x1a014d48   Section        0  fpu_init.o(i.fpuInit)
    i.fputc                                  0x1a014d98   Section        0  board.o(i.fputc)
    i.prv_card_acquired                      0x1a014dac   Section        0  sdmmc_18xx_43xx.o(i.prv_card_acquired)
    prv_card_acquired                        0x1a014dad   Thumb Code    18  sdmmc_18xx_43xx.o(i.prv_card_acquired)
    i.prv_get_bits                           0x1a014dc4   Section        0  sdmmc_18xx_43xx.o(i.prv_get_bits)
    prv_get_bits                             0x1a014dc5   Thumb Code    64  sdmmc_18xx_43xx.o(i.prv_get_bits)
    i.prv_process_csd                        0x1a014e04   Section        0  sdmmc_18xx_43xx.o(i.prv_process_csd)
    prv_process_csd                          0x1a014e05   Thumb Code   392  sdmmc_18xx_43xx.o(i.prv_process_csd)
    i.prv_set_card_params                    0x1a014fa0   Section        0  sdmmc_18xx_43xx.o(i.prv_set_card_params)
    prv_set_card_params                      0x1a014fa1   Thumb Code    82  sdmmc_18xx_43xx.o(i.prv_set_card_params)
    i.prv_set_trans_state                    0x1a015000   Section        0  sdmmc_18xx_43xx.o(i.prv_set_trans_state)
    prv_set_trans_state                      0x1a015001   Thumb Code   108  sdmmc_18xx_43xx.o(i.prv_set_trans_state)
    i.sdmmc_execute_command                  0x1a015074   Section        0  sdmmc_18xx_43xx.o(i.sdmmc_execute_command)
    sdmmc_execute_command                    0x1a015075   Thumb Code   452  sdmmc_18xx_43xx.o(i.sdmmc_execute_command)
    x$fpl$fpinit                             0x1a01523c   Section       10  fpinit.o(x$fpl$fpinit)
    $v0                                      0x1a01523c   Number         0  fpinit.o(x$fpl$fpinit)
    .constdata                               0x1a015246   Section      256  yaffs_hweight.o(.constdata)
    yaffs_count_bits_table                   0x1a015246   Data         256  yaffs_hweight.o(.constdata)
    .constdata                               0x1a015346   Section      256  yaffs_ecc.o(.constdata)
    column_parity_table                      0x1a015346   Data         256  yaffs_ecc.o(.constdata)
    .constdata                               0x1a015448   Section       40  yaffs_verify.o(.constdata)
    block_state_name                         0x1a015448   Data          40  yaffs_verify.o(.constdata)
    .constdata                               0x1a015470   Section       44  ff.o(.constdata)
    vst                                      0x1a015470   Data          22  ff.o(.constdata)
    cst                                      0x1a015486   Data          22  ff.o(.constdata)
    .constdata                               0x1a01549c   Section       64  board.o(.constdata)
    ledports                                 0x1a01549c   Data           8  board.o(.constdata)
    ledbits                                  0x1a0154a4   Data           8  board.o(.constdata)
    .constdata                               0x1a0154dc   Section      700  board_sysinit.o(.constdata)
    InitClkStates                            0x1a0154dc   Data          16  board_sysinit.o(.constdata)
    spifipinmuxing                           0x1a0154ec   Data          24  board_sysinit.o(.constdata)
    pinmuxing                                0x1a015504   Data         496  board_sysinit.o(.constdata)
    pinclockmuxing                           0x1a0156f4   Data          16  board_sysinit.o(.constdata)
    MT48LC4M32_config                        0x1a015704   Data         116  board_sysinit.o(.constdata)
    S29GL64N90_config                        0x1a015778   Data          32  board_sysinit.o(.constdata)
    .constdata                               0x1a015798   Section      108  clock_18xx_43xx.o(.constdata)
    periph_to_base                           0x1a015798   Data         108  clock_18xx_43xx.o(.constdata)
    .constdata                               0x1a015804   Section       72  sysinit_18xx_43xx.o(.constdata)
    InitClkStates                            0x1a015804   Data          72  sysinit_18xx_43xx.o(.constdata)
    .constdata                               0x1a01584c   Section       40  _printf_hex_int_ptr.o(.constdata)
    uc_hextab                                0x1a01584c   Data          20  _printf_hex_int_ptr.o(.constdata)
    lc_hextab                                0x1a015860   Data          20  _printf_hex_int_ptr.o(.constdata)
    .constdata                               0x1a015874   Section       17  __printf_flags_ss_wp.o(.constdata)
    maptable                                 0x1a015874   Data          17  __printf_flags_ss_wp.o(.constdata)
    .conststring                             0x1a015888   Section       79  main.o(.conststring)
    .conststring                             0x1a0158d8   Section      157  yaffs_checkptrw.o(.conststring)
    .conststring                             0x1a015978   Section      589  yaffs_guts.o(.conststring)
    .conststring                             0x1a015bc8   Section       91  yaffs_packedtags2.o(.conststring)
    .conststring                             0x1a015c24   Section      390  yaffs_verify.o(.conststring)
    .conststring                             0x1a015dac   Section       98  yaffs_yaffs1.o(.conststring)
    .conststring                             0x1a015e10   Section      652  yaffs_yaffs2.o(.conststring)

    Global Symbols

    Symbol Name                              Value     Ov Type        Size  Object(Section)

    BuildAttributes$$THM_ISAv4$E$P$D$K$B$S$7EM$VFPi3$EXTD16$VFPS$VFMA$PE$A:L22UL41UL21$X:L11$S22US41US21$IEEE1$IW$USESV6$~STKCKD$USESV7$~SHL$OSPACE$ROPI$EBA8$UX$STANDARDLIB$REQ8$PRES8$EABIv2 0x00000000   Number         0  anon$$obj.o ABSOLUTE
    __ARM_use_no_argv                        0x00000000   Number         0  main.o ABSOLUTE
    _printf_flags                            0x00000000   Number         0  printf_stubs.o ABSOLUTE
    _printf_return_value                     0x00000000   Number         0  printf_stubs.o ABSOLUTE
    _printf_sizespec                         0x00000000   Number         0  printf_stubs.o ABSOLUTE
    _printf_widthprec                        0x00000000   Number         0  printf_stubs.o ABSOLUTE
    __ARM_exceptions_init                     - Undefined Weak Reference
    __alloca_initialize                       - Undefined Weak Reference
    __arm_preinit_                            - Undefined Weak Reference
    __cpp_initialize__aeabi_                  - Undefined Weak Reference
    __cxa_finalize                            - Undefined Weak Reference
    __rt_locale                               - Undefined Weak Reference
    __sigvec_lookup                           - Undefined Weak Reference
    _atexit_init                              - Undefined Weak Reference
    _call_atexit_fns                          - Undefined Weak Reference
    _clock_init                               - Undefined Weak Reference
    _fp_trap_init                             - Undefined Weak Reference
    _fp_trap_shutdown                         - Undefined Weak Reference
    _get_lc_collate                           - Undefined Weak Reference
    _get_lc_ctype                             - Undefined Weak Reference
    _get_lc_monetary                          - Undefined Weak Reference
    _get_lc_numeric                           - Undefined Weak Reference
    _get_lc_time                              - Undefined Weak Reference
    _getenv_init                              - Undefined Weak Reference
    _handle_redirection                       - Undefined Weak Reference
    _init_alloc                               - Undefined Weak Reference
    _init_user_alloc                          - Undefined Weak Reference
    _initio                                   - Undefined Weak Reference
    _printf_mbtowc                            - Undefined Weak Reference
    _printf_truncate_signed                   - Undefined Weak Reference
    _printf_truncate_unsigned                 - Undefined Weak Reference
    _rand_init                                - Undefined Weak Reference
    _signal_finish                            - Undefined Weak Reference
    _signal_init                              - Undefined Weak Reference
    _terminate_alloc                          - Undefined Weak Reference
    _terminate_user_alloc                     - Undefined Weak Reference
    _terminateio                              - Undefined Weak Reference
    raw_os_active                            0x10000000   Data           1  raw-os.o(.data)
    idle_task_exit                           0x10000001   Data           1  raw-os.o(.data)
    raw_sched_lock                           0x10000002   Data           1  raw-os.o(.data)
    raw_int_nesting                          0x10000003   Data           1  raw-os.o(.data)
    mutex_recursion_levels                   0x10000004   Data           1  raw-os.o(.data)
    mutex_recursion_max_levels               0x10000005   Data           1  raw-os.o(.data)
    task_0_exit                              0x10000006   Data           1  raw-os.o(.data)
    task_0_event_head                        0x10000008   Data           2  raw-os.o(.data)
    task_0_event_end                         0x1000000a   Data           2  raw-os.o(.data)
    task_0_events                            0x1000000c   Data           2  raw-os.o(.data)
    peak_events                              0x1000000e   Data           2  raw-os.o(.data)
    high_ready_obj                           0x10000010   Data           4  raw-os.o(.data)
    raw_task_active                          0x10000014   Data           4  raw-os.o(.data)
    raw_tick_count                           0x10000018   Data           4  raw-os.o(.data)
    raw_timer_count                          0x1000001c   Data           4  raw-os.o(.data)
    raw_timer_ctrl                           0x10000020   Data           4  raw-os.o(.data)
    task_0_event_handler                     0x10000024   Data           4  raw-os.o(.data)
    free_object_int_msg                      0x10000028   Data           4  raw-os.o(.data)
    int_msg_full                             0x1000002c   Data           4  raw-os.o(.data)
    msg_event_handler                        0x10000030   Data           4  raw-os.o(.data)
    raw_idle_count                           0x10000038   Data           8  raw-os.o(.data)
    tick_head                                0x10000040   Data           8  raw-os.o(.data)
    timer_head                               0x10000048   Data           8  raw-os.o(.data)
    raw_task_debug                           0x10000050   Data           8  raw-os.o(.data)
    __stdout                                 0x10000068   Data           4  board.o(.data)
    __stdin                                  0x1000006c   Data           4  board.o(.data)
    __stderr                                 0x10000070   Data           4  board.o(.data)
    g_isPenDn                                0x10000074   Data           4  board.o(.data)
    g_isNewPenDn                             0x10000078   Data           4  board.o(.data)
    SystemCoreClock                          0x1000007c   Data           4  chip_18xx_43xx.o(.data)
    shell_task_stack                         0x100000d0   Data        1600  main.o(.bss)
    shell_task_obj                           0x10000710   Data          92  main.o(.bss)
    uart_sema                                0x1000076c   Data          24  main.o(.bss)
    uart_fifo                                0x10000784   Data          24  main.o(.bss)
    sdcardinfo                               0x1000079c   Data         872  main.o(.bss)
    fs                                       0x10000b84   Data         560  main.o(.bss)
    file                                     0x10000db4   Data         556  main.o(.bss)
    __libspace_start                         0x10001008   Data          96  libspace.o(.bss)
    __temporary_stack_top$libspace           0x10001068   Data           0  libspace.o(.bss)
    _mem_minfragment                         0x10080000   Data           4  raw_malloc.o(.data)
    K9F_NF_CLE                               0x10080004   Data           4  k9f1g08.o(.data)
    K9F_NF_ALE                               0x10080008   Data           4  k9f1g08.o(.data)
    K9F_NF_DATA                              0x1008000c   Data           4  k9f1g08.o(.data)
    yaffs_wr_attempts                        0x10080010   Data           4  yaffsfs.o(.data)
    yaffsfs_deviceList                       0x1008001c   Data           8  yaffsfs.o(.data)
    yaffs_trace_mask                         0x10080038   Data           4  yaffscfg2k.o(.data)
    raw_ready_queue                          0x1008004c   Data         508  raw-os.o(.bss)
    raw_idle_obj                             0x10080248   Data          92  raw-os.o(.bss)
    idle_stack                               0x100802a4   Data         400  raw-os.o(.bss)
    raw_timer_obj                            0x10080434   Data          92  raw-os.o(.bss)
    timer_task_stack                         0x10080490   Data         800  raw-os.o(.bss)
    timer_sem                                0x100807b0   Data          24  raw-os.o(.bss)
    timer_mutex                              0x100807c8   Data          28  raw-os.o(.bss)
    task_0_events_queue                      0x100807e4   Data         384  raw-os.o(.bss)
    raw_task_0_obj                           0x10080964   Data          92  raw-os.o(.bss)
    task_0_stack                             0x100809c0   Data        1024  raw-os.o(.bss)
    object_int_msg                           0x10080dc0   Data         480  raw-os.o(.bss)
    tick_task_obj                            0x10080fa0   Data          92  raw-os.o(.bss)
    tick_task_stack                          0x10080ffc   Data         800  raw-os.o(.bss)
    tick_semaphore_obj                       0x1008131c   Data          24  raw-os.o(.bss)
    __Vectors                                0x1a000000   Data           4  keil_startup_lpc18xx43xx.o(RESET)
    __main                                   0x1a000115   Thumb Code     8  __main.o(!!!main)
    __scatterload                            0x1a00011d   Thumb Code     0  __scatter.o(!!!scatter)
    __scatterload_rt2                        0x1a00011d   Thumb Code    44  __scatter.o(!!!scatter)
    __scatterload_rt2_thumb_only             0x1a00011d   Thumb Code     0  __scatter.o(!!!scatter)
    __scatterload_null                       0x1a00012b   Thumb Code     0  __scatter.o(!!!scatter)
    __scatterload_copy                       0x1a000151   Thumb Code    26  __scatter_copy.o(!!handler_copy)
    __scatterload_zeroinit                   0x1a00016d   Thumb Code    28  __scatter_zi.o(!!handler_zi)
    _printf_p                                0x1a000189   Thumb Code     0  _printf_p.o(.ARM.Collect$$_printf_percent$$00000002)
    _printf_percent                          0x1a000189   Thumb Code     0  _printf_percent.o(.ARM.Collect$$_printf_percent$$00000000)
    _printf_ll                               0x1a00018f   Thumb Code     0  _printf_ll.o(.ARM.Collect$$_printf_percent$$00000007)
    _printf_d                                0x1a000199   Thumb Code     0  _printf_d.o(.ARM.Collect$$_printf_percent$$00000009)
    _printf_u                                0x1a00019f   Thumb Code     0  _printf_u.o(.ARM.Collect$$_printf_percent$$0000000A)
    _printf_x                                0x1a0001a5   Thumb Code     0  _printf_x.o(.ARM.Collect$$_printf_percent$$0000000C)
    _printf_lld                              0x1a0001ab   Thumb Code     0  _printf_lld.o(.ARM.Collect$$_printf_percent$$0000000E)
    _printf_s                                0x1a0001b1   Thumb Code     0  _printf_s.o(.ARM.Collect$$_printf_percent$$00000014)
    _printf_percent_end                      0x1a0001b7   Thumb Code     0  _printf_percent_end.o(.ARM.Collect$$_printf_percent$$00000017)
    __rt_lib_init                            0x1a0001bb   Thumb Code     0  libinit.o(.ARM.Collect$$libinit$$00000000)
    __rt_lib_init_fp_1                       0x1a0001bd   Thumb Code     0  libinit2.o(.ARM.Collect$$libinit$$00000001)
    __rt_lib_init_alloca_1                   0x1a0001c1   Thumb Code     0  libinit2.o(.ARM.Collect$$libinit$$0000002E)
    __rt_lib_init_argv_1                     0x1a0001c1   Thumb Code     0  libinit2.o(.ARM.Collect$$libinit$$0000002C)
    __rt_lib_init_atexit_1                   0x1a0001c1   Thumb Code     0  libinit2.o(.ARM.Collect$$libinit$$0000001B)
    __rt_lib_init_clock_1                    0x1a0001c1   Thumb Code     0  libinit2.o(.ARM.Collect$$libinit$$00000021)
    __rt_lib_init_cpp_1                      0x1a0001c1   Thumb Code     0  libinit2.o(.ARM.Collect$$libinit$$00000032)
    __rt_lib_init_exceptions_1               0x1a0001c1   Thumb Code     0  libinit2.o(.ARM.Collect$$libinit$$00000030)
    __rt_lib_init_fp_trap_1                  0x1a0001c1   Thumb Code     0  libinit2.o(.ARM.Collect$$libinit$$0000001F)
    __rt_lib_init_getenv_1                   0x1a0001c1   Thumb Code     0  libinit2.o(.ARM.Collect$$libinit$$00000023)
    __rt_lib_init_heap_1                     0x1a0001c1   Thumb Code     0  libinit2.o(.ARM.Collect$$libinit$$0000000A)
    __rt_lib_init_lc_collate_1               0x1a0001c1   Thumb Code     0  libinit2.o(.ARM.Collect$$libinit$$00000011)
    __rt_lib_init_lc_ctype_1                 0x1a0001c1   Thumb Code     0  libinit2.o(.ARM.Collect$$libinit$$00000013)
    __rt_lib_init_lc_monetary_1              0x1a0001c1   Thumb Code     0  libinit2.o(.ARM.Collect$$libinit$$00000015)
    __rt_lib_init_lc_numeric_1               0x1a0001c1   Thumb Code     0  libinit2.o(.ARM.Collect$$libinit$$00000017)
    __rt_lib_init_lc_time_1                  0x1a0001c1   Thumb Code     0  libinit2.o(.ARM.Collect$$libinit$$00000019)
    __rt_lib_init_preinit_1                  0x1a0001c1   Thumb Code     0  libinit2.o(.ARM.Collect$$libinit$$00000004)
    __rt_lib_init_rand_1                     0x1a0001c1   Thumb Code     0  libinit2.o(.ARM.Collect$$libinit$$0000000E)
    __rt_lib_init_return                     0x1a0001c1   Thumb Code     0  libinit2.o(.ARM.Collect$$libinit$$00000033)
    __rt_lib_init_signal_1                   0x1a0001c1   Thumb Code     0  libinit2.o(.ARM.Collect$$libinit$$0000001D)
    __rt_lib_init_stdio_1                    0x1a0001c1   Thumb Code     0  libinit2.o(.ARM.Collect$$libinit$$00000025)
    __rt_lib_init_user_alloc_1               0x1a0001c1   Thumb Code     0  libinit2.o(.ARM.Collect$$libinit$$0000000C)
    __rt_lib_shutdown                        0x1a0001c3   Thumb Code     0  libshutdown.o(.ARM.Collect$$libshutdown$$00000000)
    __rt_lib_shutdown_fp_trap_1              0x1a0001c5   Thumb Code     0  libshutdown2.o(.ARM.Collect$$libshutdown$$00000006)
    __rt_lib_shutdown_heap_1                 0x1a0001c5   Thumb Code     0  libshutdown2.o(.ARM.Collect$$libshutdown$$0000000E)
    __rt_lib_shutdown_return                 0x1a0001c5   Thumb Code     0  libshutdown2.o(.ARM.Collect$$libshutdown$$0000000F)
    __rt_lib_shutdown_signal_1               0x1a0001c5   Thumb Code     0  libshutdown2.o(.ARM.Collect$$libshutdown$$00000009)
    __rt_lib_shutdown_stdio_1                0x1a0001c5   Thumb Code     0  libshutdown2.o(.ARM.Collect$$libshutdown$$00000003)
    __rt_lib_shutdown_user_alloc_1           0x1a0001c5   Thumb Code     0  libshutdown2.o(.ARM.Collect$$libshutdown$$0000000B)
    __rt_entry                               0x1a0001c7   Thumb Code     0  __rtentry.o(.ARM.Collect$$rtentry$$00000000)
    __rt_entry_presh_1                       0x1a0001c7   Thumb Code     0  __rtentry2.o(.ARM.Collect$$rtentry$$00000002)
    __rt_entry_sh                            0x1a0001c7   Thumb Code     0  __rtentry4.o(.ARM.Collect$$rtentry$$00000004)
    __rt_entry_li                            0x1a0001cd   Thumb Code     0  __rtentry2.o(.ARM.Collect$$rtentry$$0000000A)
    __rt_entry_postsh_1                      0x1a0001cd   Thumb Code     0  __rtentry2.o(.ARM.Collect$$rtentry$$00000009)
    __rt_entry_main                          0x1a0001d1   Thumb Code     0  __rtentry2.o(.ARM.Collect$$rtentry$$0000000D)
    __rt_entry_postli_1                      0x1a0001d1   Thumb Code     0  __rtentry2.o(.ARM.Collect$$rtentry$$0000000C)
    __rt_exit                                0x1a0001d9   Thumb Code     0  rtexit.o(.ARM.Collect$$rtexit$$00000000)
    __rt_exit_ls                             0x1a0001db   Thumb Code     0  rtexit2.o(.ARM.Collect$$rtexit$$00000003)
    __rt_exit_prels_1                        0x1a0001db   Thumb Code     0  rtexit2.o(.ARM.Collect$$rtexit$$00000002)
    __rt_exit_exit                           0x1a0001df   Thumb Code     0  rtexit2.o(.ARM.Collect$$rtexit$$00000004)
    get_ready_task                           0x1a0001e5   Thumb Code    24  raw-os.o(.text)
    raw_sched                                0x1a0001fd   Thumb Code    48  raw-os.o(.text)
    raw_semaphore_create                     0x1a00022d   Thumb Code    36  raw-os.o(.text)
    raw_task_semaphore_create                0x1a000251   Thumb Code    16  raw-os.o(.text)
    hybrid_int_process                       0x1a000261   Thumb Code   134  raw-os.o(.text)
    tick_list_remove                         0x1a0002e7   Thumb Code    24  raw-os.o(.text)
    mtx_chg_pri                              0x1a0002ff   Thumb Code    76  raw-os.o(.text)
    change_pend_list_priority                0x1a00034b   Thumb Code    32  raw-os.o(.text)
    add_ready_list_end                       0x1a00036b   Thumb Code    38  raw-os.o(.text)
    add_ready_list_head                      0x1a000391   Thumb Code    38  raw-os.o(.text)
    bit_search_first_one                     0x1a0003b7   Thumb Code   116  raw-os.o(.text)
    remove_ready_list                        0x1a00042b   Thumb Code    96  raw-os.o(.text)
    change_internal_task_priority            0x1a00048b   Thumb Code    90  raw-os.o(.text)
    mutex_state_change                       0x1a00053d   Thumb Code    32  raw-os.o(.text)
    add_ready_list                           0x1a00055d   Thumb Code    16  raw-os.o(.text)
    tick_list_update                         0x1a00056d   Thumb Code   254  raw-os.o(.text)
    block_state_post_process                 0x1a00066b   Thumb Code    64  raw-os.o(.text)
    tick_list_insert                         0x1a0006ab   Thumb Code    56  raw-os.o(.text)
    raw_pend_object                          0x1a0006e3   Thumb Code    90  raw-os.o(.text)
    raw_semaphore_get                        0x1a00073d   Thumb Code   214  raw-os.o(.text)
    raw_task_semaphore_get                   0x1a000813   Thumb Code    10  raw-os.o(.text)
    raw_task_create                          0x1a000839   Thumb Code   434  raw-os.o(.text)
    tick_task_start                          0x1a0009eb   Thumb Code    54  raw-os.o(.text)
    wake_send_msg                            0x1a000a7b   Thumb Code     4  raw-os.o(.text)
    msg_post                                 0x1a000a7f   Thumb Code   278  raw-os.o(.text)
    raw_wake_object                          0x1a000b95   Thumb Code     2  raw-os.o(.text)
    semaphore_put                            0x1a000b97   Thumb Code   208  raw-os.o(.text)
    task_resume                              0x1a000c67   Thumb Code   210  raw-os.o(.text)
    task_suspend                             0x1a000d39   Thumb Code   278  raw-os.o(.text)
    raw_task_0_post                          0x1a000f51   Thumb Code     4  raw-os.o(.text)
    int_msg_post                             0x1a000f55   Thumb Code   100  raw-os.o(.text)
    raw_semaphore_put                        0x1a000fb9   Thumb Code    46  raw-os.o(.text)
    call_timer_task                          0x1a000fe7   Thumb Code    22  raw-os.o(.text)
    move_to_ready_list_end                   0x1a000ffd   Thumb Code    30  raw-os.o(.text)
    calculate_time_slice                     0x1a00101b   Thumb Code   108  raw-os.o(.text)
    raw_task_semaphore_put                   0x1a001087   Thumb Code     4  raw-os.o(.text)
    raw_task_0_init                          0x1a001123   Thumb Code    92  raw-os.o(.text)
    raw_mutex_create                         0x1a00117f   Thumb Code    60  raw-os.o(.text)
    raw_mutex_put                            0x1a0011bb   Thumb Code   324  raw-os.o(.text)
    raw_mutex_get                            0x1a0012ff   Thumb Code   350  raw-os.o(.text)
    raw_semaphore_set                        0x1a00145d   Thumb Code   146  raw-os.o(.text)
    timer_task                               0x1a0014ef   Thumb Code   166  raw-os.o(.text)
    raw_timer_init                           0x1a001595   Thumb Code    66  raw-os.o(.text)
    raw_idle_task                            0x1a0015d7   Thumb Code    30  raw-os.o(.text)
    tick_list_init                           0x1a0015f5   Thumb Code    10  raw-os.o(.text)
    run_queue_init                           0x1a0015ff   Thumb Code    26  raw-os.o(.text)
    raw_os_init                              0x1a001619   Thumb Code   102  raw-os.o(.text)
    raw_os_start                             0x1a00167f   Thumb Code    36  raw-os.o(.text)
    wake_send_msg_size                       0x1a0016a3   Thumb Code     8  raw-os.o(.text)
    delete_pend_obj                          0x1a0016ab   Thumb Code   164  raw-os.o(.text)
    raw_task_stack_check                     0x1a00174f   Thumb Code    32  raw-os.o(.text)
    raw_disable_sche                         0x1a00176f   Thumb Code    40  raw-os.o(.text)
    raw_enable_sche                          0x1a001797   Thumb Code    54  raw-os.o(.text)
    raw_sleep                                0x1a0017cd   Thumb Code   134  raw-os.o(.text)
    raw_time_sleep                           0x1a001853   Thumb Code    86  raw-os.o(.text)
    raw_task_suspend                         0x1a0018a9   Thumb Code    54  raw-os.o(.text)
    raw_task_resume                          0x1a0018df   Thumb Code    46  raw-os.o(.text)
    chg_pri_mutex                            0x1a00190d   Thumb Code   114  raw-os.o(.text)
    raw_task_priority_change                 0x1a00197f   Thumb Code   162  raw-os.o(.text)
    raw_task_free_mutex                      0x1a001a21   Thumb Code    66  raw-os.o(.text)
    raw_task_delete                          0x1a001a63   Thumb Code   226  raw-os.o(.text)
    raw_set_task_user_point                  0x1a001b45   Thumb Code    36  raw-os.o(.text)
    raw_get_task_user_point                  0x1a001b69   Thumb Code     8  raw-os.o(.text)
    raw_task_time_slice_change               0x1a001b71   Thumb Code    80  raw-os.o(.text)
    raw_set_sched_way                        0x1a001bc1   Thumb Code    80  raw-os.o(.text)
    raw_get_sched_way                        0x1a001c11   Thumb Code    72  raw-os.o(.text)
    raw_task_wait_abort                      0x1a001c59   Thumb Code   206  raw-os.o(.text)
    raw_task_identify                        0x1a001d27   Thumb Code     6  raw-os.o(.text)
    raw_iter_block_task                      0x1a001d2d   Thumb Code   102  raw-os.o(.text)
    raw_get_system_global_space              0x1a001d93   Thumb Code     6  raw-os.o(.text)
    task_0_tick_post                         0x1a001d99   Thumb Code    16  raw-os.o(.text)
    raw_task_0_front_post                    0x1a001da9   Thumb Code     6  raw-os.o(.text)
    raw_block_pool_create                    0x1a001daf   Thumb Code    98  raw-os.o(.text)
    raw_block_allocate                       0x1a001e11   Thumb Code    70  raw-os.o(.text)
    raw_block_release                        0x1a001e57   Thumb Code    48  raw-os.o(.text)
    raw_byte_pool_create                     0x1a001e87   Thumb Code    78  raw-os.o(.text)
    raw_byte_allocate                        0x1a001ed5   Thumb Code    90  raw-os.o(.text)
    raw_byte_release                         0x1a001f2f   Thumb Code    78  raw-os.o(.text)
    raw_mq_init                              0x1a001f7d   Thumb Code    36  raw-os.o(.text)
    raw_mq_send                              0x1a002077   Thumb Code     2  raw-os.o(.text)
    raw_mq_receive                           0x1a002079   Thumb Code   298  raw-os.o(.text)
    raw_mqueue_flush                         0x1a0021a3   Thumb Code    78  raw-os.o(.text)
    raw_mqueue_delete                        0x1a0021f1   Thumb Code   102  raw-os.o(.text)
    raw_mqueue_get_information               0x1a002257   Thumb Code    52  raw-os.o(.text)
    raw_mutex_delete                         0x1a00228b   Thumb Code   130  raw-os.o(.text)
    raw_queue_create                         0x1a00230d   Thumb Code    58  raw-os.o(.text)
    raw_queue_front_post                     0x1a002347   Thumb Code    58  raw-os.o(.text)
    raw_queue_end_post                       0x1a002381   Thumb Code    62  raw-os.o(.text)
    raw_queue_post_notify                    0x1a0023bf   Thumb Code    54  raw-os.o(.text)
    raw_queue_all_post                       0x1a0023f5   Thumb Code    50  raw-os.o(.text)
    raw_queue_send_notify                    0x1a002427   Thumb Code   104  raw-os.o(.text)
    raw_queue_receive                        0x1a00248f   Thumb Code   270  raw-os.o(.text)
    raw_queue_full_check                     0x1a00259d   Thumb Code   114  raw-os.o(.text)
    raw_queue_flush                          0x1a00260f   Thumb Code   110  raw-os.o(.text)
    raw_queue_delete                         0x1a00267d   Thumb Code   128  raw-os.o(.text)
    raw_queue_get_information                0x1a0026fd   Thumb Code   140  raw-os.o(.text)
    raw_semaphore_put_notify                 0x1a002789   Thumb Code    52  raw-os.o(.text)
    raw_semaphore_put_all                    0x1a0027bd   Thumb Code    44  raw-os.o(.text)
    raw_semphore_send_notify                 0x1a0027e9   Thumb Code   104  raw-os.o(.text)
    raw_semaphore_delete                     0x1a002851   Thumb Code   128  raw-os.o(.text)
    raw_stack_check                          0x1a0028d1   Thumb Code    56  raw-os.o(.text)
    raw_finish_int                           0x1a002909   Thumb Code    56  raw-os.o(.text)
    raw_time_tick                            0x1a002941   Thumb Code    54  raw-os.o(.text)
    raw_enter_interrupt                      0x1a002977   Thumb Code    34  raw-os.o(.text)
    raw_system_time_get                      0x1a002999   Thumb Code     6  raw-os.o(.text)
    raw_system_time_set                      0x1a00299f   Thumb Code    60  raw-os.o(.text)
    raw_task_semaphore_set                   0x1a0029db   Thumb Code     6  raw-os.o(.text)
    raw_task_semaphore_delete                0x1a0029e1   Thumb Code     4  raw-os.o(.text)
    raw_timer_activate                       0x1a0029e5   Thumb Code   118  raw-os.o(.text)
    raw_timer_create                         0x1a002a5b   Thumb Code    88  raw-os.o(.text)
    raw_timer_change                         0x1a002ab3   Thumb Code    92  raw-os.o(.text)
    raw_timer_deactivate                     0x1a002b0f   Thumb Code   100  raw-os.o(.text)
    raw_timer_delete                         0x1a002b73   Thumb Code   120  raw-os.o(.text)
    fifo_init                                0x1a002d49   Thumb Code    66  fifo.o(.text)
    fifo_in                                  0x1a002d8b   Thumb Code    92  fifo.o(.text)
    fifo_out_peek                            0x1a002e25   Thumb Code    38  fifo.o(.text)
    fifo_out                                 0x1a002e4b   Thumb Code    50  fifo.o(.text)
    fifo_out_all                             0x1a002e7d   Thumb Code    62  fifo.o(.text)
    check_malloc_test                        0x1a002f8f   Thumb Code     4  raw_malloc.o(.text)
    searchFreeArea                           0x1a002f93   Thumb Code    68  raw_malloc.o(.text)
    appendFreeArea                           0x1a002fd7   Thumb Code    60  raw_malloc.o(.text)
    raw_malloc                               0x1a0031c3   Thumb Code    50  raw_malloc.o(.text)
    raw_free                                 0x1a0031f5   Thumb Code    46  raw_malloc.o(.text)
    raw_calloc                               0x1a003223   Thumb Code    66  raw_malloc.o(.text)
    raw_realloc                              0x1a003265   Thumb Code    56  raw_malloc.o(.text)
    raw_malloc_init                          0x1a00329d   Thumb Code    50  raw_malloc.o(.text)
    system_page_table_get                    0x1a00357f   Thumb Code     4  raw_page.o(.text)
    raw_page_allocate                        0x1a003583   Thumb Code    50  raw_page.o(.text)
    raw_page_free                            0x1a0035b5   Thumb Code    88  raw_page.o(.text)
    raw_page_init                            0x1a00360d   Thumb Code   106  raw_page.o(.text)
    OS_CPU_SR_Save                           0x1a003845   Thumb Code     0  cpu.o(.text)
    OS_CPU_SR_Restore                        0x1a00384d   Thumb Code     0  cpu.o(.text)
    CPU_IntDis                               0x1a003853   Thumb Code     0  cpu.o(.text)
    CPU_IntEn                                0x1a003857   Thumb Code     0  cpu.o(.text)
    raw_start_first_task                     0x1a00385b   Thumb Code     0  cpu.o(.text)
    port_task_switch                         0x1a003883   Thumb Code     0  cpu.o(.text)
    raw_int_switch                           0x1a00388d   Thumb Code     0  cpu.o(.text)
    PendSV_Handler                           0x1a003897   Thumb Code     0  cpu.o(.text)
    port_stack_init                          0x1a0038e9   Thumb Code   324  port.o(.text)
    raw_os_init_hook                         0x1a003a2d   Thumb Code     2  port_hook.o(.text)
    raw_task_delete_hook                     0x1a003a2f   Thumb Code     2  port_hook.o(.text)
    raw_task_abort_hook                      0x1a003a31   Thumb Code     2  port_hook.o(.text)
    raw_idle_task_hook                       0x1a003a33   Thumb Code     2  port_hook.o(.text)
    raw_task_switch_hook                     0x1a003a35   Thumb Code     2  port_hook.o(.text)
    raw_tick_hook                            0x1a003a37   Thumb Code     2  port_hook.o(.text)
    task_create_hook                         0x1a003a39   Thumb Code     2  port_hook.o(.text)
    raw_idle_coroutine_hook                  0x1a003a3b   Thumb Code     4  port_hook.o(.text)
    raw_memcpy                               0x1a003a3f   Thumb Code    74  user_extension.o(.text)
    raw_memset                               0x1a003a89   Thumb Code    62  user_extension.o(.text)
    Reset_Handler                            0x1a003ac9   Thumb Code     8  keil_startup_lpc18xx43xx.o(.text)
    NMI_Handler                              0x1a003ad1   Thumb Code     2  keil_startup_lpc18xx43xx.o(.text)
    HardFault_Handler                        0x1a003ad3   Thumb Code     2  keil_startup_lpc18xx43xx.o(.text)
    MemManage_Handler                        0x1a003ad5   Thumb Code     2  keil_startup_lpc18xx43xx.o(.text)
    BusFault_Handler                         0x1a003ad7   Thumb Code     2  keil_startup_lpc18xx43xx.o(.text)
    UsageFault_Handler                       0x1a003ad9   Thumb Code     2  keil_startup_lpc18xx43xx.o(.text)
    SVC_Handler                              0x1a003adb   Thumb Code     2  keil_startup_lpc18xx43xx.o(.text)
    DebugMon_Handler                         0x1a003add   Thumb Code     2  keil_startup_lpc18xx43xx.o(.text)
    UnHandled_Vector                         0x1a003ae3   Thumb Code     2  keil_startup_lpc18xx43xx.o(.text)
    ADC0_IRQHandler                          0x1a003ae5   Thumb Code     0  keil_startup_lpc18xx43xx.o(.text)
    ADC1_IRQHandler                          0x1a003ae5   Thumb Code     0  keil_startup_lpc18xx43xx.o(.text)
    ADCHS_IRQHandler                         0x1a003ae5   Thumb Code     0  keil_startup_lpc18xx43xx.o(.text)
    ATIMER_IRQHandler                        0x1a003ae5   Thumb Code     0  keil_startup_lpc18xx43xx.o(.text)
    CAN0_IRQHandler                          0x1a003ae5   Thumb Code     0  keil_startup_lpc18xx43xx.o(.text)
    CAN1_IRQHandler                          0x1a003ae5   Thumb Code     0  keil_startup_lpc18xx43xx.o(.text)
    DAC_IRQHandler                           0x1a003ae5   Thumb Code     0  keil_startup_lpc18xx43xx.o(.text)
    DMA_IRQHandler                           0x1a003ae5   Thumb Code     0  keil_startup_lpc18xx43xx.o(.text)
    ETH_IRQHandler                           0x1a003ae5   Thumb Code     0  keil_startup_lpc18xx43xx.o(.text)
    EVRT_IRQHandler                          0x1a003ae5   Thumb Code     0  keil_startup_lpc18xx43xx.o(.text)
    FLASHEEPROM_IRQHandler                   0x1a003ae5   Thumb Code     0  keil_startup_lpc18xx43xx.o(.text)
    GINT0_IRQHandler                         0x1a003ae5   Thumb Code     0  keil_startup_lpc18xx43xx.o(.text)
    GINT1_IRQHandler                         0x1a003ae5   Thumb Code     0  keil_startup_lpc18xx43xx.o(.text)
    GPIO0_IRQHandler                         0x1a003ae5   Thumb Code     0  keil_startup_lpc18xx43xx.o(.text)
    GPIO1_IRQHandler                         0x1a003ae5   Thumb Code     0  keil_startup_lpc18xx43xx.o(.text)
    GPIO2_IRQHandler                         0x1a003ae5   Thumb Code     0  keil_startup_lpc18xx43xx.o(.text)
    GPIO3_IRQHandler                         0x1a003ae5   Thumb Code     0  keil_startup_lpc18xx43xx.o(.text)
    GPIO4_IRQHandler                         0x1a003ae5   Thumb Code     0  keil_startup_lpc18xx43xx.o(.text)
    GPIO5_IRQHandler                         0x1a003ae5   Thumb Code     0  keil_startup_lpc18xx43xx.o(.text)
    GPIO6_IRQHandler                         0x1a003ae5   Thumb Code     0  keil_startup_lpc18xx43xx.o(.text)
    GPIO7_IRQHandler                         0x1a003ae5   Thumb Code     0  keil_startup_lpc18xx43xx.o(.text)
    I2C0_IRQHandler                          0x1a003ae5   Thumb Code     0  keil_startup_lpc18xx43xx.o(.text)
    I2C1_IRQHandler                          0x1a003ae5   Thumb Code     0  keil_startup_lpc18xx43xx.o(.text)
    I2S0_IRQHandler                          0x1a003ae5   Thumb Code     0  keil_startup_lpc18xx43xx.o(.text)
    I2S1_IRQHandler                          0x1a003ae5   Thumb Code     0  keil_startup_lpc18xx43xx.o(.text)
    LCD_IRQHandler                           0x1a003ae5   Thumb Code     0  keil_startup_lpc18xx43xx.o(.text)
    MCPWM_IRQHandler                         0x1a003ae5   Thumb Code     0  keil_startup_lpc18xx43xx.o(.text)
    MX_CORE_IRQHandler                       0x1a003ae5   Thumb Code     0  keil_startup_lpc18xx43xx.o(.text)
    QEI_IRQHandler                           0x1a003ae5   Thumb Code     0  keil_startup_lpc18xx43xx.o(.text)
    RIT_IRQHandler                           0x1a003ae5   Thumb Code     0  keil_startup_lpc18xx43xx.o(.text)
    RTC_IRQHandler                           0x1a003ae5   Thumb Code     0  keil_startup_lpc18xx43xx.o(.text)
    SCT_IRQHandler                           0x1a003ae5   Thumb Code     0  keil_startup_lpc18xx43xx.o(.text)
    SGPIO_IRQHandler                         0x1a003ae5   Thumb Code     0  keil_startup_lpc18xx43xx.o(.text)
    SPIFI_IRQHandler                         0x1a003ae5   Thumb Code     0  keil_startup_lpc18xx43xx.o(.text)
    SPI_IRQHandler                           0x1a003ae5   Thumb Code     0  keil_startup_lpc18xx43xx.o(.text)
    SSP0_IRQHandler                          0x1a003ae5   Thumb Code     0  keil_startup_lpc18xx43xx.o(.text)
    SSP1_IRQHandler                          0x1a003ae5   Thumb Code     0  keil_startup_lpc18xx43xx.o(.text)
    TIMER0_IRQHandler                        0x1a003ae5   Thumb Code     0  keil_startup_lpc18xx43xx.o(.text)
    TIMER1_IRQHandler                        0x1a003ae5   Thumb Code     0  keil_startup_lpc18xx43xx.o(.text)
    TIMER2_IRQHandler                        0x1a003ae5   Thumb Code     0  keil_startup_lpc18xx43xx.o(.text)
    TIMER3_IRQHandler                        0x1a003ae5   Thumb Code     0  keil_startup_lpc18xx43xx.o(.text)
    UART0_IRQHandler                         0x1a003ae5   Thumb Code     0  keil_startup_lpc18xx43xx.o(.text)
    UART1_IRQHandler                         0x1a003ae5   Thumb Code     0  keil_startup_lpc18xx43xx.o(.text)
    UART2_IRQHandler                         0x1a003ae5   Thumb Code     0  keil_startup_lpc18xx43xx.o(.text)
    USB0_IRQHandler                          0x1a003ae5   Thumb Code     0  keil_startup_lpc18xx43xx.o(.text)
    USB1_IRQHandler                          0x1a003ae5   Thumb Code     0  keil_startup_lpc18xx43xx.o(.text)
    WDT_IRQHandler                           0x1a003ae5   Thumb Code     0  keil_startup_lpc18xx43xx.o(.text)
    __user_initial_stackheap                 0x1a003ae9   Thumb Code     0  keil_startup_lpc18xx43xx.o(.text)
    SystemInit                               0x1a003b0d   Thumb Code    20  sysinit.o(.text)
    scu_pinmux                               0x1a003b29   Thumb Code    16  lpc43xx_scu.o(.text)
    emc_init                                 0x1a003b3d   Thumb Code   944  lpc43xx_sdram.o(.text)
    sdram_init                               0x1a003eed   Thumb Code   144  lpc43xx_sdram.o(.text)
    k9f_init                                 0x1a003f99   Thumb Code    88  k9f1g08.o(.text)
    k9f_id_read                              0x1a003ff1   Thumb Code    42  k9f1g08.o(.text)
    k9f_bad_block_check_product              0x1a00403f   Thumb Code    96  k9f1g08.o(.text)
    k9f_block_erase                          0x1a00409f   Thumb Code    40  k9f1g08.o(.text)
    k9f_page_read                            0x1a0040c7   Thumb Code    60  k9f1g08.o(.text)
    k9f_block_read                           0x1a004103   Thumb Code    78  k9f1g08.o(.text)
    k9f_page_write                           0x1a004151   Thumb Code    64  k9f1g08.o(.text)
    k9f_block_write                          0x1a004191   Thumb Code   128  k9f1g08.o(.text)
    k9f_random_read                          0x1a004211   Thumb Code    40  k9f1g08.o(.text)
    k9f_random_continue_read                 0x1a004239   Thumb Code    58  k9f1g08.o(.text)
    k9f_random_write                         0x1a004273   Thumb Code    60  k9f1g08.o(.text)
    k9f_random_continue_write                0x1a0042af   Thumb Code    72  k9f1g08.o(.text)
    GPIO_SetDir                              0x1a004315   Thumb Code    22  lpc43xx_gpio.o(.text)
    GPIO_SetValue                            0x1a00432b   Thumb Code    12  lpc43xx_gpio.o(.text)
    GPIO_ClearValue                          0x1a004337   Thumb Code    12  lpc43xx_gpio.o(.text)
    GPIO_ReadValue                           0x1a004343   Thumb Code    12  lpc43xx_gpio.o(.text)
    yaffs_nand_install_drv                   0x1a004479   Thumb Code    34  yaffs_port_nand_drv.o(.text)
    SysTick_Handler                          0x1a00451f   Thumb Code    18  main.o(.text)
    OS_CPU_SysTickInit                       0x1a004531   Thumb Code    48  main.o(.text)
    uart_3_recv                              0x1a004561   Thumb Code    76  main.o(.text)
    UART3_IRQHandler                         0x1a0045ad   Thumb Code    56  main.o(.text)
    shell_task                               0x1a0045e5   Thumb Code  1476  main.o(.text)
    SDIO_IRQHandler                          0x1a004ba9   Thumb Code    16  main.o(.text)
    main                                     0x1a004bb9   Thumb Code    54  main.o(.text)
    yaffs_load_attribs                       0x1a004c89   Thumb Code    38  yaffs_attribs.o(.text)
    yaffs_load_attribs_oh                    0x1a004caf   Thumb Code    38  yaffs_attribs.o(.text)
    yaffs_load_current_time                  0x1a004cd5   Thumb Code    22  yaffs_attribs.o(.text)
    yaffs_attribs_init                       0x1a004ceb   Thumb Code    30  yaffs_attribs.o(.text)
    yaffs_set_attribs                        0x1a004d09   Thumb Code    88  yaffs_attribs.o(.text)
    yaffs_get_attribs                        0x1a004d61   Thumb Code    76  yaffs_attribs.o(.text)
    yaffs_hweight8                           0x1a004dad   Thumb Code     6  yaffs_hweight.o(.text)
    yaffs_hweight32                          0x1a004db3   Thumb Code    30  yaffs_hweight.o(.text)
    yaffs_qsort                              0x1a004e47   Thumb Code   606  yaffs_qsort.o(.text)
    yaffs_set_trace                          0x1a0050a5   Thumb Code     6  yaffsfs.o(.text)
    yaffs_get_trace                          0x1a0050ab   Thumb Code     6  yaffsfs.o(.text)
    yaffs_dup                                0x1a00550d   Thumb Code    96  yaffsfs.o(.text)
    yaffs_open_sharing_reldir                0x1a0056ad   Thumb Code   966  yaffsfs.o(.text)
    yaffs_open_sharing_reldev                0x1a005a73   Thumb Code    28  yaffsfs.o(.text)
    yaffs_open_sharing                       0x1a005a8f   Thumb Code    18  yaffsfs.o(.text)
    yaffs_open_reldir                        0x1a005aa1   Thumb Code    12  yaffsfs.o(.text)
    yaffs_open_reldev                        0x1a005aad   Thumb Code    28  yaffsfs.o(.text)
    yaffs_open                               0x1a005ac9   Thumb Code    10  yaffsfs.o(.text)
    yaffs_fsync                              0x1a005b13   Thumb Code     4  yaffsfs.o(.text)
    yaffs_flush                              0x1a005b17   Thumb Code     2  yaffsfs.o(.text)
    yaffs_fdatasync                          0x1a005b19   Thumb Code     4  yaffsfs.o(.text)
    yaffs_close                              0x1a005b1d   Thumb Code    86  yaffsfs.o(.text)
    yaffs_read                               0x1a005caf   Thumb Code    12  yaffsfs.o(.text)
    yaffs_pread                              0x1a005cbb   Thumb Code    12  yaffsfs.o(.text)
    yaffs_write                              0x1a005e1d   Thumb Code    12  yaffsfs.o(.text)
    yaffs_pwrite                             0x1a005e29   Thumb Code    12  yaffsfs.o(.text)
    yaffs_truncate_reldir                    0x1a005e35   Thumb Code   208  yaffsfs.o(.text)
    yaffs_truncate_reldev                    0x1a005f05   Thumb Code    18  yaffsfs.o(.text)
    yaffs_truncate                           0x1a005f17   Thumb Code     8  yaffsfs.o(.text)
    yaffs_ftruncate                          0x1a005f1f   Thumb Code   108  yaffsfs.o(.text)
    yaffs_lseek                              0x1a005f8b   Thumb Code   134  yaffsfs.o(.text)
    yaffs_unlink_reldir                      0x1a006113   Thumb Code     4  yaffsfs.o(.text)
    yaffs_unlink_reldev                      0x1a006117   Thumb Code    20  yaffsfs.o(.text)
    yaffs_unlink                             0x1a00612b   Thumb Code     6  yaffsfs.o(.text)
    yaffs_rename_reldir                      0x1a006131   Thumb Code   460  yaffsfs.o(.text)
    yaffs_rename_reldev                      0x1a0062fd   Thumb Code    18  yaffsfs.o(.text)
    yaffs_rename                             0x1a00630f   Thumb Code     8  yaffsfs.o(.text)
    yaffs_stat_reldir                        0x1a00644d   Thumb Code     4  yaffsfs.o(.text)
    yaffs_lstat_reldir                       0x1a006451   Thumb Code     4  yaffsfs.o(.text)
    yaffs_stat_reldev                        0x1a006455   Thumb Code    20  yaffsfs.o(.text)
    yaffs_lstat_reldev                       0x1a006469   Thumb Code    20  yaffsfs.o(.text)
    yaffs_stat                               0x1a00647d   Thumb Code     8  yaffsfs.o(.text)
    yaffs_lstat                              0x1a006485   Thumb Code     8  yaffsfs.o(.text)
    yaffs_fstat                              0x1a00648d   Thumb Code    72  yaffsfs.o(.text)
    yaffs_utime_reldir                       0x1a006529   Thumb Code   134  yaffsfs.o(.text)
    yaffs_utime_reldev                       0x1a0065af   Thumb Code    18  yaffsfs.o(.text)
    yaffs_utime                              0x1a0065c1   Thumb Code     8  yaffsfs.o(.text)
    yaffs_futime                             0x1a0065c9   Thumb Code    48  yaffsfs.o(.text)
    yaffs_setxattr_reldir                    0x1a0066c9   Thumb Code    18  yaffsfs.o(.text)
    yaffs_setxattr_reldev                    0x1a0066db   Thumb Code    32  yaffsfs.o(.text)
    yaffs_setxattr                           0x1a0066fb   Thumb Code    24  yaffsfs.o(.text)
    yaffs_lsetxattr_reldir                   0x1a006713   Thumb Code    18  yaffsfs.o(.text)
    yaffs_lsetxattr_reldev                   0x1a006725   Thumb Code    32  yaffsfs.o(.text)
    yaffs_lsetxattr                          0x1a006745   Thumb Code    24  yaffsfs.o(.text)
    yaffs_fsetxattr                          0x1a00675d   Thumb Code   114  yaffsfs.o(.text)
    yaffs_getxattr_reldir                    0x1a00689b   Thumb Code    16  yaffsfs.o(.text)
    yaffs_getxattr_reldev                    0x1a0068ab   Thumb Code    28  yaffsfs.o(.text)
    yaffs_getxattr                           0x1a0068c7   Thumb Code    18  yaffsfs.o(.text)
    yaffs_lgetxattr_reldir                   0x1a0068d9   Thumb Code    16  yaffsfs.o(.text)
    yaffs_lgetxattr_reldev                   0x1a0068e9   Thumb Code    28  yaffsfs.o(.text)
    yaffs_lgetxattr                          0x1a006905   Thumb Code    18  yaffsfs.o(.text)
    yaffs_fgetxattr                          0x1a006917   Thumb Code   110  yaffsfs.o(.text)
    yaffs_listxattr_reldir                   0x1a006a3f   Thumb Code    12  yaffsfs.o(.text)
    yaffs_listxattr_reldev                   0x1a006a4b   Thumb Code    22  yaffsfs.o(.text)
    yaffs_listxattr                          0x1a006a61   Thumb Code    10  yaffsfs.o(.text)
    yaffs_llistxattr_reldir                  0x1a006a6b   Thumb Code    12  yaffsfs.o(.text)
    yaffs_llistxattr_reldev                  0x1a006a77   Thumb Code    22  yaffsfs.o(.text)
    yaffs_llistxattr                         0x1a006a8d   Thumb Code    10  yaffsfs.o(.text)
    yaffs_flistxattr                         0x1a006a97   Thumb Code    92  yaffsfs.o(.text)
    yaffs_removexattr_reldir                 0x1a006bab   Thumb Code     4  yaffsfs.o(.text)
    yaffs_removexattr_reldev                 0x1a006baf   Thumb Code    18  yaffsfs.o(.text)
    yaffs_removexattr                        0x1a006bc1   Thumb Code     8  yaffsfs.o(.text)
    yaffs_lremovexattr_reldir                0x1a006bc9   Thumb Code     4  yaffsfs.o(.text)
    yaffs_lremovexattr_reldev                0x1a006bcd   Thumb Code    18  yaffsfs.o(.text)
    yaffs_lremovexattr                       0x1a006bdf   Thumb Code     8  yaffsfs.o(.text)
    yaffs_fremovexattr                       0x1a006be7   Thumb Code    86  yaffsfs.o(.text)
    yaffs_access_reldir                      0x1a006c6b   Thumb Code   218  yaffsfs.o(.text)
    yaffs_access_reldev                      0x1a006d45   Thumb Code    18  yaffsfs.o(.text)
    yaffs_access                             0x1a006d57   Thumb Code     8  yaffsfs.o(.text)
    yaffs_chmod_reldir                       0x1a006d5f   Thumb Code   172  yaffsfs.o(.text)
    yaffs_chmod_reldev                       0x1a006e0b   Thumb Code    18  yaffsfs.o(.text)
    yaffs_chmod                              0x1a006e1d   Thumb Code     8  yaffsfs.o(.text)
    yaffs_fchmod                             0x1a006e25   Thumb Code    76  yaffsfs.o(.text)
    yaffs_mkdir_reldir                       0x1a006e71   Thumb Code   244  yaffsfs.o(.text)
    yaffs_mkdir_reldev                       0x1a006f65   Thumb Code    18  yaffsfs.o(.text)
    yaffs_mkdir                              0x1a006f77   Thumb Code     8  yaffsfs.o(.text)
    yaffs_rmdir_reldir                       0x1a006f7f   Thumb Code    98  yaffsfs.o(.text)
    yaffs_rmdir_reldev                       0x1a006fe1   Thumb Code    18  yaffsfs.o(.text)
    yaffs_rmdir                              0x1a006ff3   Thumb Code     6  yaffsfs.o(.text)
    yaffs_getdev                             0x1a006ff9   Thumb Code    10  yaffsfs.o(.text)
    yaffs_mount_common                       0x1a007003   Thumb Code   176  yaffsfs.o(.text)
    yaffs_mount3_reldev                      0x1a0070b3   Thumb Code     8  yaffsfs.o(.text)
    yaffs_mount3                             0x1a0070bb   Thumb Code    10  yaffsfs.o(.text)
    yaffs_mount2_reldev                      0x1a0070c5   Thumb Code     8  yaffsfs.o(.text)
    yaffs_mount2                             0x1a0070cd   Thumb Code    10  yaffsfs.o(.text)
    yaffs_mount_reldev                       0x1a0070d7   Thumb Code     8  yaffsfs.o(.text)
    yaffs_mount                              0x1a0070df   Thumb Code    10  yaffsfs.o(.text)
    yaffs_sync_common                        0x1a0070e9   Thumb Code   126  yaffsfs.o(.text)
    yaffs_sync_reldev                        0x1a007167   Thumb Code     4  yaffsfs.o(.text)
    yaffs_sync                               0x1a00716b   Thumb Code     6  yaffsfs.o(.text)
    yaffs_do_background_gc                   0x1a0071e1   Thumb Code     8  yaffsfs.o(.text)
    yaffs_do_background_gc_reldev            0x1a0071e9   Thumb Code     6  yaffsfs.o(.text)
    yaffs_remount_common                     0x1a0071ef   Thumb Code   144  yaffsfs.o(.text)
    yaffs_remount_reldev                     0x1a00727f   Thumb Code     8  yaffsfs.o(.text)
    yaffs_remount                            0x1a007287   Thumb Code    10  yaffsfs.o(.text)
    yaffs_unmount2_common                    0x1a007291   Thumb Code   142  yaffsfs.o(.text)
    yaffs_unmount2_reldev                    0x1a00731f   Thumb Code     6  yaffsfs.o(.text)
    yaffs_unmount2                           0x1a007325   Thumb Code     8  yaffsfs.o(.text)
    yaffs_unmount_reldev                     0x1a00732d   Thumb Code     4  yaffsfs.o(.text)
    yaffs_unmount                            0x1a007331   Thumb Code     4  yaffsfs.o(.text)
    yaffs_format_common                      0x1a007335   Thumb Code   182  yaffsfs.o(.text)
    yaffs_format_reldev                      0x1a0073eb   Thumb Code    16  yaffsfs.o(.text)
    yaffs_format                             0x1a0073fb   Thumb Code    50  yaffsfs.o(.text)
    yaffs_freespace_common                   0x1a00742d   Thumb Code   106  yaffsfs.o(.text)
    yaffs_freespace_reldev                   0x1a007497   Thumb Code     4  yaffsfs.o(.text)
    yaffs_freespace                          0x1a00749b   Thumb Code     6  yaffsfs.o(.text)
    yaffs_totalspace_common                  0x1a0074a1   Thumb Code   116  yaffsfs.o(.text)
    yaffs_totalspace_reldev                  0x1a007515   Thumb Code     4  yaffsfs.o(.text)
    yaffs_totalspace                         0x1a007519   Thumb Code     6  yaffsfs.o(.text)
    yaffs_inodecount_common                  0x1a00751f   Thumb Code    98  yaffsfs.o(.text)
    yaffs_inodecount_reldev                  0x1a007581   Thumb Code     4  yaffsfs.o(.text)
    yaffs_inodecount                         0x1a007585   Thumb Code     6  yaffsfs.o(.text)
    yaffs_add_device                         0x1a0075f7   Thumb Code    70  yaffsfs.o(.text)
    yaffs_remove_device                      0x1a00763d   Thumb Code    14  yaffsfs.o(.text)
    yaffs_dev_rewind                         0x1a00764b   Thumb Code    14  yaffsfs.o(.text)
    yaffs_next_dev                           0x1a007659   Thumb Code    30  yaffsfs.o(.text)
    yaffs_opendir_reldir                     0x1a007677   Thumb Code    28  yaffsfs.o(.text)
    yaffs_opendir                            0x1a007693   Thumb Code     6  yaffsfs.o(.text)
    yaffsfs_readdir_no_lock                  0x1a007699   Thumb Code   140  yaffsfs.o(.text)
    yaffs_readdir                            0x1a007725   Thumb Code    24  yaffsfs.o(.text)
    yaffs_rewinddir                          0x1a00773d   Thumb Code    22  yaffsfs.o(.text)
    yaffs_readdir_fd                         0x1a007753   Thumb Code    40  yaffsfs.o(.text)
    yaffs_rewinddir_fd                       0x1a00777b   Thumb Code    36  yaffsfs.o(.text)
    yaffs_closedir                           0x1a00779f   Thumb Code    24  yaffsfs.o(.text)
    yaffs_symlink_reldir                     0x1a0077b7   Thumb Code   248  yaffsfs.o(.text)
    yaffs_symlink                            0x1a0078af   Thumb Code     8  yaffsfs.o(.text)
    yaffs_readlink_reldir                    0x1a0078b7   Thumb Code   172  yaffsfs.o(.text)
    yaffs_readlink                           0x1a007963   Thumb Code    10  yaffsfs.o(.text)
    yaffs_link_reldir                        0x1a00796d   Thumb Code   352  yaffsfs.o(.text)
    yaffs_link                               0x1a007acd   Thumb Code     8  yaffsfs.o(.text)
    yaffs_mknod_reldir                       0x1a007ad5   Thumb Code    16  yaffsfs.o(.text)
    yaffs_mknod_reldev                       0x1a007ae5   Thumb Code    16  yaffsfs.o(.text)
    yaffs_mknod                              0x1a007af5   Thumb Code    16  yaffsfs.o(.text)
    yaffs_n_handles_reldir                   0x1a007b05   Thumb Code    96  yaffsfs.o(.text)
    yaffs_n_handles                          0x1a007b65   Thumb Code     6  yaffsfs.o(.text)
    yaffs_get_error                          0x1a007b6b   Thumb Code     4  yaffsfs.o(.text)
    yaffs_set_error                          0x1a007b6f   Thumb Code    10  yaffsfs.o(.text)
    yaffs_dump_dev_reldir                    0x1a007b79   Thumb Code     4  yaffsfs.o(.text)
    yaffs_dump_dev                           0x1a007b7d   Thumb Code     4  yaffsfs.o(.text)
    yaffs_alloc_raw_tnode                    0x1a007dc9   Thumb Code    54  yaffs_allocator.o(.text)
    yaffs_free_raw_tnode                     0x1a007dff   Thumb Code    36  yaffs_allocator.o(.text)
    yaffs_alloc_raw_obj                      0x1a007eb1   Thumb Code    84  yaffs_allocator.o(.text)
    yaffs_free_raw_obj                       0x1a007f05   Thumb Code    40  yaffs_allocator.o(.text)
    yaffs_deinit_raw_tnodes_and_objs         0x1a007f2d   Thumb Code    74  yaffs_allocator.o(.text)
    yaffs_init_raw_tnodes_and_objs           0x1a007f77   Thumb Code    74  yaffs_allocator.o(.text)
    yaffs_verify_chunk_bit_id                0x1a008161   Thumb Code    56  yaffs_bitmap.o(.text)
    yaffs_clear_chunk_bits                   0x1a008199   Thumb Code    20  yaffs_bitmap.o(.text)
    yaffs_clear_chunk_bit                    0x1a0081ad   Thumb Code    54  yaffs_bitmap.o(.text)
    yaffs_set_chunk_bit                      0x1a0081e3   Thumb Code    52  yaffs_bitmap.o(.text)
    yaffs_check_chunk_bit                    0x1a008217   Thumb Code    54  yaffs_bitmap.o(.text)
    yaffs_still_some_chunks                  0x1a00824d   Thumb Code    36  yaffs_bitmap.o(.text)
    yaffs_count_chunk_bits                   0x1a008271   Thumb Code    42  yaffs_bitmap.o(.text)
    yaffs2_checkpt_open                      0x1a0084eb   Thumb Code   218  yaffs_checkptrw.o(.text)
    yaffs2_get_checkpt_sum                   0x1a0085c5   Thumb Code    14  yaffs_checkptrw.o(.text)
    yaffs2_checkpt_wr                        0x1a0086b3   Thumb Code   560  yaffs_checkptrw.o(.text)
    yaffs2_checkpt_rd                        0x1a0088e3   Thumb Code   300  yaffs_checkptrw.o(.text)
    yaffs_checkpt_close                      0x1a008a0f   Thumb Code   182  yaffs_checkptrw.o(.text)
    yaffs2_checkpt_invalidate_stream         0x1a008ac5   Thumb Code    30  yaffs_checkptrw.o(.text)
    yaffs_ecc_calc                           0x1a008c29   Thumb Code   186  yaffs_ecc.o(.text)
    yaffs_ecc_correct                        0x1a008ce3   Thumb Code   234  yaffs_ecc.o(.text)
    yaffs_ecc_calc_other                     0x1a008dcd   Thumb Code    52  yaffs_ecc.o(.text)
    yaffs_ecc_correct_other                  0x1a008e01   Thumb Code   158  yaffs_ecc.o(.text)
    yaffs_addr_to_chunk                      0x1a008ee1   Thumb Code    44  yaffs_guts.o(.text)
    yaffs_get_temp_buffer                    0x1a008f0d   Thumb Code    96  yaffs_guts.o(.text)
    yaffs_release_temp_buffer                0x1a008f6d   Thumb Code    84  yaffs_guts.o(.text)
    yaffs_handle_chunk_error                 0x1a008fc1   Thumb Code    62  yaffs_guts.o(.text)
    yaffs_skip_rest_of_block                 0x1a008fff   Thumb Code    44  yaffs_guts.o(.text)
    yaffs_check_ff                           0x1a0090e3   Thumb Code    22  yaffs_guts.o(.text)
    yaffs_block_became_dirty                 0x1a00914f   Thumb Code   840  yaffs_guts.o(.text)
    yaffs_chunk_del                          0x1a009497   Thumb Code   254  yaffs_guts.o(.text)
    yaffs_root                               0x1a009595   Thumb Code     6  yaffs_guts.o(.text)
    yaffs_lost_n_found                       0x1a00959b   Thumb Code     6  yaffs_guts.o(.text)
    yaffs_check_alloc_available              0x1a0095a1   Thumb Code    36  yaffs_guts.o(.text)
    yaffs_set_obj_name                       0x1a009a8d   Thumb Code    72  yaffs_guts.o(.text)
    yaffs_set_obj_name_from_oh               0x1a009ad5   Thumb Code     4  yaffs_guts.o(.text)
    yaffs_max_file_size                      0x1a009ad9   Thumb Code     6  yaffs_guts.o(.text)
    yaffs_get_tnode                          0x1a009adf   Thumb Code    40  yaffs_guts.o(.text)
    yaffs_get_group_base                     0x1a009b5d   Thumb Code    60  yaffs_guts.o(.text)
    yaffs_find_tnode_0                       0x1a009b99   Thumb Code    68  yaffs_guts.o(.text)
    yaffs_add_find_tnode_0                   0x1a009bdd   Thumb Code   212  yaffs_guts.o(.text)
    yaffs_find_chunk_in_file                 0x1a009d17   Thumb Code    68  yaffs_guts.o(.text)
    yaffs_put_chunk_in_file                  0x1a009d5b   Thumb Code   490  yaffs_guts.o(.text)
    yaffs_add_obj_to_dir                     0x1a00a037   Thumb Code   172  yaffs_guts.o(.text)
    yaffs_oh_size_load                       0x1a00a0e3   Thumb Code    12  yaffs_guts.o(.text)
    yaffs_clone_str                          0x1a00a0ef   Thumb Code    44  yaffs_guts.o(.text)
    yaffs_find_by_number                     0x1a00a29d   Thumb Code   254  yaffs_guts.o(.text)
    yaffs_update_oh                          0x1a00abc3   Thumb Code   790  yaffs_guts.o(.text)
    yaffs_get_obj_name                       0x1a00aed9   Thumb Code   144  yaffs_guts.o(.text)
    yaffs_find_by_name                       0x1a00af69   Thumb Code   186  yaffs_guts.o(.text)
    yaffs_flush_whole_cache                  0x1a00b225   Thumb Code    66  yaffs_guts.o(.text)
    yaffs_handle_defered_free                0x1a00b497   Thumb Code    12  yaffs_guts.o(.text)
    yaffs_find_or_create_by_number           0x1a00b66f   Thumb Code    32  yaffs_guts.o(.text)
    yaffs_update_dirty_dirs                  0x1a00b6ed   Thumb Code    90  yaffs_guts.o(.text)
    yaffs_is_non_empty_dir                   0x1a00b747   Thumb Code    28  yaffs_guts.o(.text)
    yaffs_resize_file_down                   0x1a00b949   Thumb Code   172  yaffs_guts.o(.text)
    yaffs_resize_file                        0x1a00b9f5   Thumb Code   106  yaffs_guts.o(.text)
    yaffs_del_obj                            0x1a00bad5   Thumb Code   112  yaffs_guts.o(.text)
    yaffs_create_file                        0x1a00bc25   Thumb Code    36  yaffs_guts.o(.text)
    yaffs_create_dir                         0x1a00bc49   Thumb Code    34  yaffs_guts.o(.text)
    yaffs_create_special                     0x1a00bc6b   Thumb Code    42  yaffs_guts.o(.text)
    yaffs_create_symlink                     0x1a00bc95   Thumb Code    40  yaffs_guts.o(.text)
    yaffs_get_equivalent_obj                 0x1a00bcbd   Thumb Code    26  yaffs_guts.o(.text)
    yaffs_link_obj                           0x1a00bcd7   Thumb Code   142  yaffs_guts.o(.text)
    yaffs_bg_gc                              0x1a00be5f   Thumb Code    56  yaffs_guts.o(.text)
    yaffs_set_xattrib                        0x1a00bf7d   Thumb Code    22  yaffs_guts.o(.text)
    yaffs_remove_xattrib                     0x1a00bf93   Thumb Code    18  yaffs_guts.o(.text)
    yaffs_get_xattrib                        0x1a00bfa5   Thumb Code     2  yaffs_guts.o(.text)
    yaffs_list_xattrib                       0x1a00bfa7   Thumb Code     8  yaffs_guts.o(.text)
    yaffs_file_rd                            0x1a00bfaf   Thumb Code   234  yaffs_guts.o(.text)
    yaffs_do_file_wr                         0x1a00c099   Thumb Code   586  yaffs_guts.o(.text)
    yaffs_wr_file                            0x1a00c2e3   Thumb Code    38  yaffs_guts.o(.text)
    yaffs_flush_file                         0x1a00c309   Thumb Code    60  yaffs_guts.o(.text)
    yaffs_retype_obj                         0x1a00c345   Thumb Code   162  yaffs_guts.o(.text)
    yaffs_unlinker                           0x1a00c4cf   Thumb Code    14  yaffs_guts.o(.text)
    yaffs_rename_obj                         0x1a00c4dd   Thumb Code   208  yaffs_guts.o(.text)
    yaffs_handle_shadowed_obj                0x1a00c5ad   Thumb Code    62  yaffs_guts.o(.text)
    yaffs_link_fixup                         0x1a00c5eb   Thumb Code    66  yaffs_guts.o(.text)
    yaffs_get_obj_length                     0x1a00c719   Thumb Code    46  yaffs_guts.o(.text)
    yaffs_get_obj_link_count                 0x1a00c747   Thumb Code    28  yaffs_guts.o(.text)
    yaffs_get_obj_inode                      0x1a00c763   Thumb Code    10  yaffs_guts.o(.text)
    yaffs_get_obj_type                       0x1a00c76d   Thumb Code    58  yaffs_guts.o(.text)
    yaffs_get_symlink_alias                  0x1a00c7a7   Thumb Code    28  yaffs_guts.o(.text)
    yaffs_guts_ll_init                       0x1a00c83d   Thumb Code   476  yaffs_guts.o(.text)
    yaffs_guts_format_dev                    0x1a00ca19   Thumb Code    70  yaffs_guts.o(.text)
    yaffs_deinitialise                       0x1a00ca5f   Thumb Code   142  yaffs_guts.o(.text)
    yaffs_guts_initialise                    0x1a00caed   Thumb Code  1104  yaffs_guts.o(.text)
    yaffs_count_free_chunks                  0x1a00cf3d   Thumb Code    64  yaffs_guts.o(.text)
    yaffs_get_n_free_chunks                  0x1a00cf7d   Thumb Code    82  yaffs_guts.o(.text)
    yaffs_oh_to_size                         0x1a00cfcf   Thumb Code     6  yaffs_guts.o(.text)
    yaffs_count_blocks_by_state              0x1a00cfd5   Thumb Code    74  yaffs_guts.o(.text)
    nval_del                                 0x1a00d395   Thumb Code    56  yaffs_nameval.o(.text)
    nval_set                                 0x1a00d3cd   Thumb Code   160  yaffs_nameval.o(.text)
    nval_get                                 0x1a00d46d   Thumb Code   100  yaffs_nameval.o(.text)
    nval_list                                0x1a00d4d1   Thumb Code   128  yaffs_nameval.o(.text)
    nval_hasvalues                           0x1a00d551   Thumb Code    18  yaffs_nameval.o(.text)
    yaffs_rd_chunk_tags_nand                 0x1a00d589   Thumb Code   128  yaffs_nand.o(.text)
    yaffs_wr_chunk_tags_nand                 0x1a00d609   Thumb Code   120  yaffs_nand.o(.text)
    yaffs_mark_bad                           0x1a00d681   Thumb Code    30  yaffs_nand.o(.text)
    yaffs_query_init_block_state             0x1a00d69f   Thumb Code    18  yaffs_nand.o(.text)
    yaffs_erase_block                        0x1a00d6b1   Thumb Code    22  yaffs_nand.o(.text)
    yaffs_init_nand                          0x1a00d6c7   Thumb Code    12  yaffs_nand.o(.text)
    yaffs_deinit_nand                        0x1a00d6d3   Thumb Code    12  yaffs_nand.o(.text)
    yaffs_pack_tags2_tags_only               0x1a00d82b   Thumb Code   124  yaffs_packedtags2.o(.text)
    yaffs_pack_tags2                         0x1a00d8a7   Thumb Code    32  yaffs_packedtags2.o(.text)
    yaffs_unpack_tags2_tags_only             0x1a00d8c7   Thumb Code   124  yaffs_packedtags2.o(.text)
    yaffs_unpack_tags2                       0x1a00d943   Thumb Code    86  yaffs_packedtags2.o(.text)
    yaffs_summary_deinit                     0x1a00da11   Thumb Code    36  yaffs_summary.o(.text)
    yaffs_summary_init                       0x1a00da35   Thumb Code    86  yaffs_summary.o(.text)
    yaffs_summary_read                       0x1a00db87   Thumb Code   274  yaffs_summary.o(.text)
    yaffs_summary_add                        0x1a00dc99   Thumb Code   102  yaffs_summary.o(.text)
    yaffs_summary_fetch                      0x1a00dcff   Thumb Code    58  yaffs_summary.o(.text)
    yaffs_summary_gc                         0x1a00dd39   Thumb Code    84  yaffs_summary.o(.text)
    yaffs_calc_tags_ecc                      0x1a00de51   Thumb Code    52  yaffs_tagscompat.o(.text)
    yaffs_check_tags_ecc                     0x1a00de85   Thumb Code    70  yaffs_tagscompat.o(.text)
    yaffs_tags_compat_install                0x1a00e38d   Thumb Code    58  yaffs_tagscompat.o(.text)
    yaffs_tags_marshall_install              0x1a00e6eb   Thumb Code    58  yaffs_tagsmarshall.o(.text)
    yaffs_skip_verification                  0x1a00e865   Thumb Code    18  yaffs_verify.o(.text)
    yaffs_verify_blk                         0x1a00e877   Thumb Code   174  yaffs_verify.o(.text)
    yaffs_verify_collected_blk               0x1a00e925   Thumb Code    46  yaffs_verify.o(.text)
    yaffs_verify_blocks                      0x1a00e953   Thumb Code   292  yaffs_verify.o(.text)
    yaffs_verify_oh                          0x1a00ea77   Thumb Code   224  yaffs_verify.o(.text)
    yaffs_verify_file                        0x1a00eb57   Thumb Code  1088  yaffs_verify.o(.text)
    yaffs_verify_link                        0x1a00ef97   Thumb Code    10  yaffs_verify.o(.text)
    yaffs_verify_symlink                     0x1a00efa1   Thumb Code    10  yaffs_verify.o(.text)
    yaffs_verify_special                     0x1a00efab   Thumb Code    10  yaffs_verify.o(.text)
    yaffs_verify_obj_in_dir                  0x1a00efb5   Thumb Code   172  yaffs_verify.o(.text)
    yaffs_verify_dir                         0x1a00f061   Thumb Code   124  yaffs_verify.o(.text)
    yaffs_verify_obj                         0x1a00f0dd   Thumb Code   370  yaffs_verify.o(.text)
    yaffs_verify_objects                     0x1a00f24f   Thumb Code    56  yaffs_verify.o(.text)
    yaffs_verify_free_chunks                 0x1a00f287   Thumb Code    52  yaffs_verify.o(.text)
    yaffs_verify_file_sane                   0x1a00f2bb   Thumb Code     4  yaffs_verify.o(.text)
    yaffs1_scan                              0x1a00f4d9   Thumb Code  1560  yaffs_yaffs1.o(.text)
    yaffs_calc_oldest_dirty_seq              0x1a00fb15   Thumb Code    82  yaffs_yaffs2.o(.text)
    yaffs2_find_oldest_dirty_seq             0x1a00fb67   Thumb Code    18  yaffs_yaffs2.o(.text)
    yaffs2_clear_oldest_dirty_seq            0x1a00fb79   Thumb Code    30  yaffs_yaffs2.o(.text)
    yaffs2_update_oldest_dirty_seq           0x1a00fb97   Thumb Code    30  yaffs_yaffs2.o(.text)
    yaffs_block_ok_for_gc                    0x1a00fbb5   Thumb Code    40  yaffs_yaffs2.o(.text)
    yaffs2_find_refresh_block                0x1a00fbdd   Thumb Code   114  yaffs_yaffs2.o(.text)
    yaffs2_checkpt_required                  0x1a00fc4f   Thumb Code    36  yaffs_yaffs2.o(.text)
    yaffs_calc_checkpt_blocks_required       0x1a00fc73   Thumb Code   104  yaffs_yaffs2.o(.text)
    yaffs2_checkpt_invalidate                0x1a0102dd   Thumb Code    46  yaffs_yaffs2.o(.text)
    yaffs_checkpoint_save                    0x1a01030b   Thumb Code    82  yaffs_yaffs2.o(.text)
    yaffs2_checkpt_restore                   0x1a01035d   Thumb Code    74  yaffs_yaffs2.o(.text)
    yaffs2_handle_hole                       0x1a0103a7   Thumb Code   802  yaffs_yaffs2.o(.text)
    yaffs2_scan_backwards                    0x1a010c41   Thumb Code   752  yaffs_yaffs2.o(.text)
    yaffsfs_SetError                         0x1a0112c5   Thumb Code     6  yaffs_osglue.o(.text)
    yaffsfs_GetLastError                     0x1a0112cb   Thumb Code     6  yaffs_osglue.o(.text)
    yaffsfs_CheckMemRegion                   0x1a0112d1   Thumb Code    12  yaffs_osglue.o(.text)
    yaffsfs_Lock                             0x1a0112dd   Thumb Code    10  yaffs_osglue.o(.text)
    yaffsfs_Unlock                           0x1a0112e7   Thumb Code     6  yaffs_osglue.o(.text)
    yaffsfs_LockInit                         0x1a0112ed   Thumb Code    12  yaffs_osglue.o(.text)
    yaffsfs_CurrentTime                      0x1a0112f9   Thumb Code     4  yaffs_osglue.o(.text)
    yaffsfs_malloc                           0x1a0112fd   Thumb Code     4  yaffs_osglue.o(.text)
    yaffsfs_free                             0x1a011301   Thumb Code     4  yaffs_osglue.o(.text)
    yaffsfs_OSInitialisation                 0x1a011305   Thumb Code     2  yaffs_osglue.o(.text)
    yaffs_bug_fn                             0x1a011307   Thumb Code    22  yaffs_osglue.o(.text)
    strnlen                                  0x1a01131d   Thumb Code    20  yaffs_osglue.o(.text)
    yaffs_start_up                           0x1a011349   Thumb Code    34  yaffscfg2k.o(.text)
    yaffs_nandsim_install_drv                0x1a011385   Thumb Code   104  yaffs_startup.o(.text)
    disk_initialize                          0x1a0113ed   Thumb Code     4  diskio.o(.text)
    disk_status                              0x1a0113f1   Thumb Code     4  diskio.o(.text)
    disk_read                                0x1a0113f5   Thumb Code    14  diskio.o(.text)
    disk_write                               0x1a011403   Thumb Code    14  diskio.o(.text)
    disk_ioctl                               0x1a011411   Thumb Code    36  diskio.o(.text)
    get_fattime                              0x1a011435   Thumb Code     4  diskio.o(.text)
    clust2sect                               0x1a01167d   Thumb Code    24  ff.o(.text)
    get_fat                                  0x1a011695   Thumb Code   188  ff.o(.text)
    put_fat                                  0x1a011751   Thumb Code   250  ff.o(.text)
    f_mount                                  0x1a0120f3   Thumb Code    82  ff.o(.text)
    f_open                                   0x1a012145   Thumb Code   384  ff.o(.text)
    f_read                                   0x1a0122c5   Thumb Code   328  ff.o(.text)
    f_write                                  0x1a01240d   Thumb Code   390  ff.o(.text)
    f_sync                                   0x1a012593   Thumb Code   152  ff.o(.text)
    f_close                                  0x1a01262b   Thumb Code    38  ff.o(.text)
    f_lseek                                  0x1a012651   Thumb Code   510  ff.o(.text)
    f_opendir                                0x1a01284f   Thumb Code   132  ff.o(.text)
    f_closedir                               0x1a0128d3   Thumb Code    32  ff.o(.text)
    f_readdir                                0x1a0128f3   Thumb Code    78  ff.o(.text)
    f_stat                                   0x1a012941   Thumb Code    60  ff.o(.text)
    f_getfree                                0x1a01297d   Thumb Code   192  ff.o(.text)
    f_truncate                               0x1a012a3d   Thumb Code   176  ff.o(.text)
    f_unlink                                 0x1a012aed   Thumb Code   160  ff.o(.text)
    f_mkdir                                  0x1a012b8d   Thumb Code   356  ff.o(.text)
    f_chmod                                  0x1a012cf1   Thumb Code    76  ff.o(.text)
    f_rename                                 0x1a012d3d   Thumb Code   252  ff.o(.text)
    f_utime                                  0x1a012e39   Thumb Code    80  ff.o(.text)
    f_getlabel                               0x1a012e89   Thumb Code   142  ff.o(.text)
    f_setlabel                               0x1a012f17   Thumb Code   358  ff.o(.text)
    f_mkfs                                   0x1a01307d   Thumb Code  1320  ff.o(.text)
    __2printf                                0x1a013631   Thumb Code    20  noretval__2printf.o(.text)
    _printf_pre_padding                      0x1a013649   Thumb Code    44  _printf_pad.o(.text)
    _printf_post_padding                     0x1a013675   Thumb Code    34  _printf_pad.o(.text)
    _printf_str                              0x1a013697   Thumb Code    82  _printf_str.o(.text)
    _printf_int_dec                          0x1a0136e9   Thumb Code   104  _printf_dec.o(.text)
    _printf_longlong_dec                     0x1a013761   Thumb Code   108  _printf_longlong_dec.o(.text)
    _printf_longlong_hex                     0x1a0137dd   Thumb Code    78  _printf_hex_int_ptr.o(.text)
    _printf_int_hex                          0x1a01382b   Thumb Code    26  _printf_hex_int_ptr.o(.text)
    _printf_hex_ptr                          0x1a013845   Thumb Code    16  _printf_hex_int_ptr.o(.text)
    __printf                                 0x1a013859   Thumb Code   388  __printf_flags_ss_wp.o(.text)
    memcmp                                   0x1a0139e1   Thumb Code    88  memcmp.o(.text)
    strcpy                                   0x1a013a39   Thumb Code    72  strcpy.o(.text)
    strncmp                                  0x1a013a81   Thumb Code   150  strncmp.o(.text)
    strcat                                   0x1a013b17   Thumb Code    24  strcat.o(.text)
    __aeabi_memcpy                           0x1a013b2f   Thumb Code     0  rt_memcpy_v6.o(.text)
    __rt_memcpy                              0x1a013b2f   Thumb Code   138  rt_memcpy_v6.o(.text)
    _memcpy_lastbytes                        0x1a013b95   Thumb Code     0  rt_memcpy_v6.o(.text)
    __aeabi_memcpy4                          0x1a013bb9   Thumb Code     0  rt_memcpy_w.o(.text)
    __aeabi_memcpy8                          0x1a013bb9   Thumb Code     0  rt_memcpy_w.o(.text)
    __rt_memcpy_w                            0x1a013bb9   Thumb Code   100  rt_memcpy_w.o(.text)
    _memcpy_lastbytes_aligned                0x1a013c01   Thumb Code     0  rt_memcpy_w.o(.text)
    __aeabi_memset                           0x1a013c1d   Thumb Code    16  aeabi_memset.o(.text)
    __aeabi_memclr                           0x1a013c2d   Thumb Code     0  rt_memclr.o(.text)
    __rt_memclr                              0x1a013c2d   Thumb Code    68  rt_memclr.o(.text)
    _memset                                  0x1a013c31   Thumb Code     0  rt_memclr.o(.text)
    __aeabi_memclr4                          0x1a013c71   Thumb Code     0  rt_memclr_w.o(.text)
    __aeabi_memclr8                          0x1a013c71   Thumb Code     0  rt_memclr_w.o(.text)
    __rt_memclr_w                            0x1a013c71   Thumb Code    78  rt_memclr_w.o(.text)
    _memset_w                                0x1a013c75   Thumb Code     0  rt_memclr_w.o(.text)
    strncpy                                  0x1a013cbf   Thumb Code    86  strncpy.o(.text)
    strcmp                                   0x1a013d15   Thumb Code   128  strcmpv7m.o(.text)
    __use_two_region_memory                  0x1a013d95   Thumb Code     2  heapauxi.o(.text)
    __rt_heap_escrow$2region                 0x1a013d97   Thumb Code     2  heapauxi.o(.text)
    __rt_heap_expand$2region                 0x1a013d99   Thumb Code     2  heapauxi.o(.text)
    _ll_udiv10                               0x1a013d9b   Thumb Code   138  lludiv10.o(.text)
    _printf_int_common                       0x1a013e25   Thumb Code   178  _printf_intcommon.o(.text)
    _printf_cs_common                        0x1a013ed7   Thumb Code    20  _printf_char.o(.text)
    _printf_char                             0x1a013eeb   Thumb Code    16  _printf_char.o(.text)
    _printf_string                           0x1a013efb   Thumb Code     8  _printf_char.o(.text)
    _printf_char_file                        0x1a013f05   Thumb Code    32  _printf_char_file.o(.text)
    _printf_char_common                      0x1a013f33   Thumb Code    32  _printf_char_common.o(.text)
    __user_setup_stackheap                   0x1a013f59   Thumb Code    74  sys_stackheap_outer.o(.text)
    exit                                     0x1a013fa3   Thumb Code    12  exit.o(.text)
    __user_libspace                          0x1a013fb1   Thumb Code     8  libspace.o(.text)
    __user_perproc_libspace                  0x1a013fb1   Thumb Code     0  libspace.o(.text)
    __user_perthread_libspace                0x1a013fb1   Thumb Code     0  libspace.o(.text)
    Board_SDMMC_Init                         0x1a013fb9   Thumb Code    74  board.o(i.Board_SDMMC_Init)
    Board_SetupClocking                      0x1a014005   Thumb Code   158  board_sysinit.o(i.Board_SetupClocking)
    Board_SetupMuxing                        0x1a0140b9   Thumb Code    58  board_sysinit.o(i.Board_SetupMuxing)
    Board_SystemInit                         0x1a014105   Thumb Code    12  board_sysinit.o(i.Board_SystemInit)
    Board_UARTPutChar                        0x1a014111   Thumb Code    26  board.o(i.Board_UARTPutChar)
    Board_UART_Init                          0x1a014131   Thumb Code    60  board.o(i.Board_UART_Init)
    Chip_Clock_EnableOpts                    0x1a014175   Thumb Code    52  clock_18xx_43xx.o(i.Chip_Clock_EnableOpts)
    Chip_Clock_GetBaseClock                  0x1a014201   Thumb Code    32  clock_18xx_43xx.o(i.Chip_Clock_GetBaseClock)
    Chip_Clock_GetBaseClocktHz               0x1a014225   Thumb Code    18  clock_18xx_43xx.o(i.Chip_Clock_GetBaseClocktHz)
    Chip_Clock_GetClockInputHz               0x1a014239   Thumb Code   182  clock_18xx_43xx.o(i.Chip_Clock_GetClockInputHz)
    Chip_Clock_GetDividerDivisor             0x1a014335   Thumb Code    18  clock_18xx_43xx.o(i.Chip_Clock_GetDividerDivisor)
    Chip_Clock_GetDividerSource              0x1a014355   Thumb Code    26  clock_18xx_43xx.o(i.Chip_Clock_GetDividerSource)
    Chip_Clock_GetMainPLLHz                  0x1a014375   Thumb Code   110  clock_18xx_43xx.o(i.Chip_Clock_GetMainPLLHz)
    Chip_Clock_GetRate                       0x1a0143ed   Thumb Code    78  clock_18xx_43xx.o(i.Chip_Clock_GetRate)
    Chip_Clock_SetBaseClock                  0x1a014445   Thumb Code    64  clock_18xx_43xx.o(i.Chip_Clock_SetBaseClock)
    Chip_Clock_SetDivider                    0x1a01448d   Thumb Code    64  clock_18xx_43xx.o(i.Chip_Clock_SetDivider)
    Chip_SDIF_DmaSetup                       0x1a01451d   Thumb Code   114  sdif_18xx_43xx.o(i.Chip_SDIF_DmaSetup)
    Chip_SDIF_GetResponse                    0x1a014595   Thumb Code    18  sdif_18xx_43xx.o(i.Chip_SDIF_GetResponse)
    Chip_SDIF_Init                           0x1a0145a9   Thumb Code    72  sdif_18xx_43xx.o(i.Chip_SDIF_Init)
    Chip_SDIF_SendCmd                        0x1a0145f9   Thumb Code    82  sdif_18xx_43xx.o(i.Chip_SDIF_SendCmd)
    Chip_SDIF_SetClearIntFifo                0x1a014653   Thumb Code    26  sdif_18xx_43xx.o(i.Chip_SDIF_SetClearIntFifo)
    Chip_SDIF_SetClock                       0x1a01466d   Thumb Code    74  sdif_18xx_43xx.o(i.Chip_SDIF_SetClock)
    Chip_SDMMC_Acquire                       0x1a0146bd   Thumb Code   720  sdmmc_18xx_43xx.o(i.Chip_SDMMC_Acquire)
    Chip_SDMMC_GetDeviceBlocks               0x1a0149b1   Thumb Code    12  sdmmc_18xx_43xx.o(i.Chip_SDMMC_GetDeviceBlocks)
    Chip_SDMMC_GetState                      0x1a0149c1   Thumb Code    52  sdmmc_18xx_43xx.o(i.Chip_SDMMC_GetState)
    Chip_SDMMC_ReadBlocks                    0x1a0149fd   Thumb Code   154  sdmmc_18xx_43xx.o(i.Chip_SDMMC_ReadBlocks)
    Chip_SDMMC_WriteBlocks                   0x1a014aa5   Thumb Code   160  sdmmc_18xx_43xx.o(i.Chip_SDMMC_WriteBlocks)
    Chip_SetupCoreClock                      0x1a014b51   Thumb Code    14  sysinit_18xx_43xx.o(i.Chip_SetupCoreClock)
    Chip_UART_Init                           0x1a014ba5   Thumb Code    72  uart_18xx_43xx.o(i.Chip_UART_Init)
    Chip_UART_SetBaud                        0x1a014bf1   Thumb Code    66  uart_18xx_43xx.o(i.Chip_UART_SetBaud)
    SystemCoreClockUpdate                    0x1a014c39   Thumb Code    14  chip_18xx_43xx.o(i.SystemCoreClockUpdate)
    _is_digit                                0x1a014c4d   Thumb Code    14  __printf_wp.o(i._is_digit)
    _sys_exit                                0x1a014c5b   Thumb Code     6  board.o(i._sys_exit)
    ferror                                   0x1a014d41   Thumb Code     8  board.o(i.ferror)
    fpuInit                                  0x1a014d49   Thumb Code    62  fpu_init.o(i.fpuInit)
    fputc                                    0x1a014d99   Thumb Code    20  board.o(i.fputc)
    _fp_init                                 0x1a01523d   Thumb Code    10  fpinit.o(x$fpl$fpinit)
    __fplib_config_fpu_vfp                   0x1a015245   Thumb Code     0  fpinit.o(x$fpl$fpinit)
    __fplib_config_pureend_doubles           0x1a015245   Thumb Code     0  fpinit.o(x$fpl$fpinit)
    ad_left                                  0x1a0154ac   Data           4  board.o(.constdata)
    ad_top                                   0x1a0154b0   Data           4  board.o(.constdata)
    ad_right                                 0x1a0154b4   Data           4  board.o(.constdata)
    ad_bottom                                0x1a0154b8   Data           4  board.o(.constdata)
    MCB4300_LCD                              0x1a0154bc   Data          22  board.o(.constdata)
    ExtRateIn                                0x1a0154d4   Data           4  board.o(.constdata)
    OscRateIn                                0x1a0154d8   Data           4  board.o(.constdata)
    Region$$Table$$Base                      0x1a01609c   Number         0  anon$$obj.o(Region$$Table)
    Region$$Table$$Limit                     0x1a0160dc   Number         0  anon$$obj.o(Region$$Table)



==============================================================================

Memory Map of the image

  Image Entry point : 0x1a000115

  Load Region LR_IROM1 (Base: 0x1a000000, Size: 0x000161b0, Max: 0x00080000, ABSOLUTE)

    Execution Region RW_IRAM1 (Base: 0x10000000, Size: 0x00001168, Max: 0x00008000, ABSOLUTE)

    Base Addr    Size         Type   Attr      Idx    E Section Name        Object

    0x10000000   0x00000058   Data   RW            3    .data               raw-os.o
    0x10000058   0x00000008   Data   RW          777    .data               main.o
    0x10000060   0x00000004   Data   RW         1188    .data               yaffs_verify.o
    0x10000064   0x00000004   Data   RW         1264    .data               yaffscfg2k.o
    0x10000068   0x00000014   Data   RW         1446    .data               lib_lpc_board_keil_mcb_4357.lib(board.o)
    0x1000007c   0x00000004   Data   RW         1965    .data               lib_lpc_chip_43xx.lib(chip_18xx_43xx.o)
    0x10000080   0x00000008   Data   RW         2635    .data               lib_lpc_chip_43xx.lib(clock_18xx_43xx.o)
    0x10000088   0x00000048   Zero   RW          278    .bss                raw_malloc.o
    0x100000d0   0x00000f10   Zero   RW          775    .bss                main.o
    0x10000fe0   0x0000001c   Zero   RW         1242    .bss                yaffs_osglue.o
    0x10000ffc   0x0000000c   Zero   RW         1365    .bss                ff.o
    0x10001008   0x00000060   Zero   RW         3611    .bss                c_w.l(libspace.o)
    0x10001068   0x00000100   Zero   RW          367    HEAP                keil_startup_lpc18xx43xx.o


    Execution Region RW_IRAM2 (Base: 0x10080000, Size: 0x00003168, Max: 0x0000a000, ABSOLUTE)

    Base Addr    Size         Type   Attr      Idx    E Section Name        Object

    0x10080000   0x00000004   Data   RW          279    .data               raw_malloc.o
    0x10080004   0x0000000c   Data   RW          658    .data               k9f1g08.o
    0x10080010   0x00000004   Data   RW          923    .data               yaffsfs.o
    0x10080014   0x00000018   Data   RW          924    .data               yaffsfs.o
    0x1008002c   0x00000008   Data   RW         1161    .data               yaffs_tagscompat.o
    0x10080034   0x00000004   Data   RW         1243    .data               yaffs_osglue.o
    0x10080038   0x00000004   Data   RW         1265    .data               yaffscfg2k.o
    0x1008003c   0x0000000c   Data   RW         1367    .data               ff.o
    0x10080048   0x00000004   Data   RW         2260    .data               lib_lpc_chip_43xx.lib(sdmmc_18xx_43xx.o)
    0x1008004c   0x000012e8   Zero   RW            2    .bss                raw-os.o
    0x10081334   0x0000002c   Zero   RW          304    .bss                raw_page.o
    0x10081360   0x000017e8   Zero   RW          922    .bss                yaffsfs.o
    0x10082b48   0x00000020   Zero   RW         1160    .bss                yaffs_tagscompat.o
    0x10082b68   0x00000600   Zero   RW          366    STACK               keil_startup_lpc18xx43xx.o


    Execution Region ER_IROM1 (Base: 0x1a000000, Size: 0x000160dc, Max: 0x00080000, ABSOLUTE)

    Base Addr    Size         Type   Attr      Idx    E Section Name        Object

    0x1a000000   0x00000114   Data   RO          368    RESET               keil_startup_lpc18xx43xx.o
    0x1a000114   0x00000008   Code   RO         3558  * !!!main             c_w.l(__main.o)
    0x1a00011c   0x00000034   Code   RO         3736    !!!scatter          c_w.l(__scatter.o)
    0x1a000150   0x0000001a   Code   RO         3738    !!handler_copy      c_w.l(__scatter_copy.o)
    0x1a00016a   0x00000002   PAD
    0x1a00016c   0x0000001c   Code   RO         3740    !!handler_zi        c_w.l(__scatter_zi.o)
    0x1a000188   0x00000000   Code   RO         3532    .ARM.Collect$$_printf_percent$$00000000  c_w.l(_printf_percent.o)
    0x1a000188   0x00000006   Code   RO         3529    .ARM.Collect$$_printf_percent$$00000002  c_w.l(_printf_p.o)
    0x1a00018e   0x0000000a   Code   RO         3574    .ARM.Collect$$_printf_percent$$00000007  c_w.l(_printf_ll.o)
    0x1a000198   0x00000006   Code   RO         3530    .ARM.Collect$$_printf_percent$$00000009  c_w.l(_printf_d.o)
    0x1a00019e   0x00000006   Code   RO         3531    .ARM.Collect$$_printf_percent$$0000000A  c_w.l(_printf_u.o)
    0x1a0001a4   0x00000006   Code   RO         3528    .ARM.Collect$$_printf_percent$$0000000C  c_w.l(_printf_x.o)
    0x1a0001aa   0x00000006   Code   RO         3533    .ARM.Collect$$_printf_percent$$0000000E  c_w.l(_printf_lld.o)
    0x1a0001b0   0x00000006   Code   RO         3527    .ARM.Collect$$_printf_percent$$00000014  c_w.l(_printf_s.o)
    0x1a0001b6   0x00000004   Code   RO         3573    .ARM.Collect$$_printf_percent$$00000017  c_w.l(_printf_percent_end.o)
    0x1a0001ba   0x00000002   Code   RO         3609    .ARM.Collect$$libinit$$00000000  c_w.l(libinit.o)
    0x1a0001bc   0x00000004   Code   RO         3621    .ARM.Collect$$libinit$$00000001  c_w.l(libinit2.o)
    0x1a0001c0   0x00000000   Code   RO         3624    .ARM.Collect$$libinit$$00000004  c_w.l(libinit2.o)
    0x1a0001c0   0x00000000   Code   RO         3627    .ARM.Collect$$libinit$$0000000A  c_w.l(libinit2.o)
    0x1a0001c0   0x00000000   Code   RO         3629    .ARM.Collect$$libinit$$0000000C  c_w.l(libinit2.o)
    0x1a0001c0   0x00000000   Code   RO         3631    .ARM.Collect$$libinit$$0000000E  c_w.l(libinit2.o)
    0x1a0001c0   0x00000000   Code   RO         3634    .ARM.Collect$$libinit$$00000011  c_w.l(libinit2.o)
    0x1a0001c0   0x00000000   Code   RO         3636    .ARM.Collect$$libinit$$00000013  c_w.l(libinit2.o)
    0x1a0001c0   0x00000000   Code   RO         3638    .ARM.Collect$$libinit$$00000015  c_w.l(libinit2.o)
    0x1a0001c0   0x00000000   Code   RO         3640    .ARM.Collect$$libinit$$00000017  c_w.l(libinit2.o)
    0x1a0001c0   0x00000000   Code   RO         3642    .ARM.Collect$$libinit$$00000019  c_w.l(libinit2.o)
    0x1a0001c0   0x00000000   Code   RO         3644    .ARM.Collect$$libinit$$0000001B  c_w.l(libinit2.o)
    0x1a0001c0   0x00000000   Code   RO         3646    .ARM.Collect$$libinit$$0000001D  c_w.l(libinit2.o)
    0x1a0001c0   0x00000000   Code   RO         3648    .ARM.Collect$$libinit$$0000001F  c_w.l(libinit2.o)
    0x1a0001c0   0x00000000   Code   RO         3650    .ARM.Collect$$libinit$$00000021  c_w.l(libinit2.o)
    0x1a0001c0   0x00000000   Code   RO         3652    .ARM.Collect$$libinit$$00000023  c_w.l(libinit2.o)
    0x1a0001c0   0x00000000   Code   RO         3654    .ARM.Collect$$libinit$$00000025  c_w.l(libinit2.o)
    0x1a0001c0   0x00000000   Code   RO         3658    .ARM.Collect$$libinit$$0000002C  c_w.l(libinit2.o)
    0x1a0001c0   0x00000000   Code   RO         3660    .ARM.Collect$$libinit$$0000002E  c_w.l(libinit2.o)
    0x1a0001c0   0x00000000   Code   RO         3662    .ARM.Collect$$libinit$$00000030  c_w.l(libinit2.o)
    0x1a0001c0   0x00000000   Code   RO         3664    .ARM.Collect$$libinit$$00000032  c_w.l(libinit2.o)
    0x1a0001c0   0x00000002   Code   RO         3665    .ARM.Collect$$libinit$$00000033  c_w.l(libinit2.o)
    0x1a0001c2   0x00000002   Code   RO         3691    .ARM.Collect$$libshutdown$$00000000  c_w.l(libshutdown.o)
    0x1a0001c4   0x00000000   Code   RO         3721    .ARM.Collect$$libshutdown$$00000003  c_w.l(libshutdown2.o)
    0x1a0001c4   0x00000000   Code   RO         3724    .ARM.Collect$$libshutdown$$00000006  c_w.l(libshutdown2.o)
    0x1a0001c4   0x00000000   Code   RO         3727    .ARM.Collect$$libshutdown$$00000009  c_w.l(libshutdown2.o)
    0x1a0001c4   0x00000000   Code   RO         3729    .ARM.Collect$$libshutdown$$0000000B  c_w.l(libshutdown2.o)
    0x1a0001c4   0x00000000   Code   RO         3732    .ARM.Collect$$libshutdown$$0000000E  c_w.l(libshutdown2.o)
    0x1a0001c4   0x00000002   Code   RO         3733    .ARM.Collect$$libshutdown$$0000000F  c_w.l(libshutdown2.o)
    0x1a0001c6   0x00000000   Code   RO         3560    .ARM.Collect$$rtentry$$00000000  c_w.l(__rtentry.o)
    0x1a0001c6   0x00000000   Code   RO         3576    .ARM.Collect$$rtentry$$00000002  c_w.l(__rtentry2.o)
    0x1a0001c6   0x00000006   Code   RO         3588    .ARM.Collect$$rtentry$$00000004  c_w.l(__rtentry4.o)
    0x1a0001cc   0x00000000   Code   RO         3578    .ARM.Collect$$rtentry$$00000009  c_w.l(__rtentry2.o)
    0x1a0001cc   0x00000004   Code   RO         3579    .ARM.Collect$$rtentry$$0000000A  c_w.l(__rtentry2.o)
    0x1a0001d0   0x00000000   Code   RO         3581    .ARM.Collect$$rtentry$$0000000C  c_w.l(__rtentry2.o)
    0x1a0001d0   0x00000008   Code   RO         3582    .ARM.Collect$$rtentry$$0000000D  c_w.l(__rtentry2.o)
    0x1a0001d8   0x00000002   Code   RO         3613    .ARM.Collect$$rtexit$$00000000  c_w.l(rtexit.o)
    0x1a0001da   0x00000000   Code   RO         3667    .ARM.Collect$$rtexit$$00000002  c_w.l(rtexit2.o)
    0x1a0001da   0x00000004   Code   RO         3668    .ARM.Collect$$rtexit$$00000003  c_w.l(rtexit2.o)
    0x1a0001de   0x00000006   Code   RO         3669    .ARM.Collect$$rtexit$$00000004  c_w.l(rtexit2.o)
    0x1a0001e4   0x00002b64   Code   RO            1    .text               raw-os.o
    0x1a002d48   0x00000172   Code   RO          183    .text               fifo.o
    0x1a002eba   0x00000002   PAD
    0x1a002ebc   0x000005b4   Code   RO          277    .text               raw_malloc.o
    0x1a003470   0x000003d4   Code   RO          303    .text               raw_page.o
    0x1a003844   0x000000a4   Code   RO          320    .text               cpu.o
    0x1a0038e8   0x00000144   Code   RO          324    .text               port.o
    0x1a003a2c   0x00000012   Code   RO          336    .text               port_hook.o
    0x1a003a3e   0x00000088   Code   RO          354    .text               user_extension.o
    0x1a003ac6   0x00000002   PAD
    0x1a003ac8   0x00000044   Code   RO          369    .text               keil_startup_lpc18xx43xx.o
    0x1a003b0c   0x0000001c   Code   RO          375    .text               sysinit.o
    0x1a003b28   0x00000014   Code   RO          601    .text               lpc43xx_scu.o
    0x1a003b3c   0x0000045c   Code   RO          634    .text               lpc43xx_sdram.o
    0x1a003f98   0x0000037c   Code   RO          657    .text               k9f1g08.o
    0x1a004314   0x00000040   Code   RO          683    .text               lpc43xx_gpio.o
    0x1a004354   0x00000164   Code   RO          701    .text               yaffs_port_nand_drv.o
    0x1a0044b8   0x000007d0   Code   RO          774    .text               main.o
    0x1a004c88   0x00000124   Code   RO          863    .text               yaffs_attribs.o
    0x1a004dac   0x00000028   Code   RO          894    .text               yaffs_hweight.o
    0x1a004dd4   0x000002d0   Code   RO          909    .text               yaffs_qsort.o
    0x1a0050a4   0x00002c80   Code   RO          921    .text               yaffsfs.o
    0x1a007d24   0x000003fc   Code   RO          958    .text               yaffs_allocator.o
    0x1a008120   0x00000204   Code   RO          982    .text               yaffs_bitmap.o
    0x1a008324   0x00000904   Code   RO          997    .text               yaffs_checkptrw.o
    0x1a008c28   0x0000027c   Code   RO         1016    .text               yaffs_ecc.o
    0x1a008ea4   0x00004490   Code   RO         1036    .text               yaffs_guts.o
    0x1a00d334   0x00000254   Code   RO         1080    .text               yaffs_nameval.o
    0x1a00d588   0x00000254   Code   RO         1092    .text               yaffs_nand.o
    0x1a00d7dc   0x000001f8   Code   RO         1124    .text               yaffs_packedtags2.o
    0x1a00d9d4   0x0000047a   Code   RO         1137    .text               yaffs_summary.o
    0x1a00de4e   0x00000002   PAD
    0x1a00de50   0x000006b4   Code   RO         1159    .text               yaffs_tagscompat.o
    0x1a00e504   0x00000360   Code   RO         1173    .text               yaffs_tagsmarshall.o
    0x1a00e864   0x00000c74   Code   RO         1185    .text               yaffs_verify.o
    0x1a00f4d8   0x0000063c   Code   RO         1202    .text               yaffs_yaffs1.o
    0x1a00fb14   0x000017ae   Code   RO         1227    .text               yaffs_yaffs2.o
    0x1a0112c2   0x00000002   PAD
    0x1a0112c4   0x00000084   Code   RO         1241    .text               yaffs_osglue.o
    0x1a011348   0x0000003c   Code   RO         1263    .text               yaffscfg2k.o
    0x1a011384   0x00000068   Code   RO         1289    .text               yaffs_startup.o
    0x1a0113ec   0x0000004c   Code   RO         1315    .text               diskio.o
    0x1a011438   0x000021f8   Code   RO         1364    .text               ff.o
    0x1a013630   0x00000018   Code   RO         3474    .text               c_w.l(noretval__2printf.o)
    0x1a013648   0x0000004e   Code   RO         3478    .text               c_w.l(_printf_pad.o)
    0x1a013696   0x00000052   Code   RO         3480    .text               c_w.l(_printf_str.o)
    0x1a0136e8   0x00000078   Code   RO         3482    .text               c_w.l(_printf_dec.o)
    0x1a013760   0x0000007c   Code   RO         3484    .text               c_w.l(_printf_longlong_dec.o)
    0x1a0137dc   0x0000007c   Code   RO         3498    .text               c_w.l(_printf_hex_int_ptr.o)
    0x1a013858   0x00000188   Code   RO         3524    .text               c_w.l(__printf_flags_ss_wp.o)
    0x1a0139e0   0x00000058   Code   RO         3534    .text               c_w.l(memcmp.o)
    0x1a013a38   0x00000048   Code   RO         3536    .text               c_w.l(strcpy.o)
    0x1a013a80   0x00000096   Code   RO         3538    .text               c_w.l(strncmp.o)
    0x1a013b16   0x00000018   Code   RO         3540    .text               c_w.l(strcat.o)
    0x1a013b2e   0x0000008a   Code   RO         3542    .text               c_w.l(rt_memcpy_v6.o)
    0x1a013bb8   0x00000064   Code   RO         3544    .text               c_w.l(rt_memcpy_w.o)
    0x1a013c1c   0x00000010   Code   RO         3546    .text               c_w.l(aeabi_memset.o)
    0x1a013c2c   0x00000044   Code   RO         3548    .text               c_w.l(rt_memclr.o)
    0x1a013c70   0x0000004e   Code   RO         3550    .text               c_w.l(rt_memclr_w.o)
    0x1a013cbe   0x00000056   Code   RO         3552    .text               c_w.l(strncpy.o)
    0x1a013d14   0x00000080   Code   RO         3554    .text               c_w.l(strcmpv7m.o)
    0x1a013d94   0x00000006   Code   RO         3556    .text               c_w.l(heapauxi.o)
    0x1a013d9a   0x0000008a   Code   RO         3565    .text               c_w.l(lludiv10.o)
    0x1a013e24   0x000000b2   Code   RO         3567    .text               c_w.l(_printf_intcommon.o)
    0x1a013ed6   0x0000002c   Code   RO         3569    .text               c_w.l(_printf_char.o)
    0x1a013f02   0x00000002   PAD
    0x1a013f04   0x00000024   Code   RO         3571    .text               c_w.l(_printf_char_file.o)
    0x1a013f28   0x00000030   Code   RO         3592    .text               c_w.l(_printf_char_common.o)
    0x1a013f58   0x0000004a   Code   RO         3594    .text               c_w.l(sys_stackheap_outer.o)
    0x1a013fa2   0x0000000c   Code   RO         3598    .text               c_w.l(exit.o)
    0x1a013fae   0x00000002   PAD
    0x1a013fb0   0x00000008   Code   RO         3610    .text               c_w.l(libspace.o)
    0x1a013fb8   0x0000004a   Code   RO         1417    i.Board_SDMMC_Init  lib_lpc_board_keil_mcb_4357.lib(board.o)
    0x1a014002   0x00000002   PAD
    0x1a014004   0x000000b4   Code   RO         1889    i.Board_SetupClocking  lib_lpc_board_keil_mcb_4357.lib(board_sysinit.o)
    0x1a0140b8   0x0000004c   Code   RO         1891    i.Board_SetupMuxing  lib_lpc_board_keil_mcb_4357.lib(board_sysinit.o)
    0x1a014104   0x0000000c   Code   RO         1892    i.Board_SystemInit  lib_lpc_board_keil_mcb_4357.lib(board_sysinit.o)
    0x1a014110   0x00000020   Code   RO         1421    i.Board_UARTPutChar  lib_lpc_board_keil_mcb_4357.lib(board.o)
    0x1a014130   0x00000044   Code   RO         1423    i.Board_UART_Init   lib_lpc_board_keil_mcb_4357.lib(board.o)
    0x1a014174   0x0000003c   Code   RO         2609    i.Chip_Clock_EnableOpts  lib_lpc_chip_43xx.lib(clock_18xx_43xx.o)
    0x1a0141b0   0x00000050   Code   RO         2611    i.Chip_Clock_FindBaseClock  lib_lpc_chip_43xx.lib(clock_18xx_43xx.o)
    0x1a014200   0x00000024   Code   RO         2612    i.Chip_Clock_GetBaseClock  lib_lpc_chip_43xx.lib(clock_18xx_43xx.o)
    0x1a014224   0x00000012   Code   RO         2614    i.Chip_Clock_GetBaseClocktHz  lib_lpc_chip_43xx.lib(clock_18xx_43xx.o)
    0x1a014236   0x00000002   PAD
    0x1a014238   0x000000d4   Code   RO         2615    i.Chip_Clock_GetClockInputHz  lib_lpc_chip_43xx.lib(clock_18xx_43xx.o)
    0x1a01430c   0x00000028   Code   RO         2616    i.Chip_Clock_GetDivRate  lib_lpc_chip_43xx.lib(clock_18xx_43xx.o)
    0x1a014334   0x00000020   Code   RO         2617    i.Chip_Clock_GetDividerDivisor  lib_lpc_chip_43xx.lib(clock_18xx_43xx.o)
    0x1a014354   0x00000020   Code   RO         2618    i.Chip_Clock_GetDividerSource  lib_lpc_chip_43xx.lib(clock_18xx_43xx.o)
    0x1a014374   0x00000078   Code   RO         2620    i.Chip_Clock_GetMainPLLHz  lib_lpc_chip_43xx.lib(clock_18xx_43xx.o)
    0x1a0143ec   0x00000058   Code   RO         2622    i.Chip_Clock_GetRate  lib_lpc_chip_43xx.lib(clock_18xx_43xx.o)
    0x1a014444   0x00000048   Code   RO         2626    i.Chip_Clock_SetBaseClock  lib_lpc_chip_43xx.lib(clock_18xx_43xx.o)
    0x1a01448c   0x00000050   Code   RO         2627    i.Chip_Clock_SetDivider  lib_lpc_chip_43xx.lib(clock_18xx_43xx.o)
    0x1a0144dc   0x00000010   Code   RO         1429    i.Chip_SCU_PinMuxSet  lib_lpc_board_keil_mcb_4357.lib(board.o)
    0x1a0144ec   0x00000030   Code   RO         1893    i.Chip_SCU_SetPinMuxing  lib_lpc_board_keil_mcb_4357.lib(board_sysinit.o)
    0x1a01451c   0x00000078   Code   RO         2184    i.Chip_SDIF_DmaSetup  lib_lpc_chip_43xx.lib(sdif_18xx_43xx.o)
    0x1a014594   0x00000012   Code   RO         2185    i.Chip_SDIF_GetResponse  lib_lpc_chip_43xx.lib(sdif_18xx_43xx.o)
    0x1a0145a6   0x00000002   PAD
    0x1a0145a8   0x00000050   Code   RO         2186    i.Chip_SDIF_Init    lib_lpc_chip_43xx.lib(sdif_18xx_43xx.o)
    0x1a0145f8   0x00000052   Code   RO         2187    i.Chip_SDIF_SendCmd  lib_lpc_chip_43xx.lib(sdif_18xx_43xx.o)
    0x1a01464a   0x00000004   Code   RO         2246    i.Chip_SDIF_SetByteCnt  lib_lpc_chip_43xx.lib(sdmmc_18xx_43xx.o)
    0x1a01464e   0x00000004   Code   RO         2247    i.Chip_SDIF_SetCardType  lib_lpc_chip_43xx.lib(sdmmc_18xx_43xx.o)
    0x1a014652   0x0000001a   Code   RO         2188    i.Chip_SDIF_SetClearIntFifo  lib_lpc_chip_43xx.lib(sdif_18xx_43xx.o)
    0x1a01466c   0x00000050   Code   RO         2189    i.Chip_SDIF_SetClock  lib_lpc_chip_43xx.lib(sdif_18xx_43xx.o)
    0x1a0146bc   0x000002f4   Code   RO         2248    i.Chip_SDMMC_Acquire  lib_lpc_chip_43xx.lib(sdmmc_18xx_43xx.o)
    0x1a0149b0   0x00000010   Code   RO         2249    i.Chip_SDMMC_GetDeviceBlocks  lib_lpc_chip_43xx.lib(sdmmc_18xx_43xx.o)
    0x1a0149c0   0x0000003c   Code   RO         2251    i.Chip_SDMMC_GetState  lib_lpc_chip_43xx.lib(sdmmc_18xx_43xx.o)
    0x1a0149fc   0x000000a8   Code   RO         2252    i.Chip_SDMMC_ReadBlocks  lib_lpc_chip_43xx.lib(sdmmc_18xx_43xx.o)
    0x1a014aa4   0x000000ac   Code   RO         2253    i.Chip_SDMMC_WriteBlocks  lib_lpc_chip_43xx.lib(sdmmc_18xx_43xx.o)
    0x1a014b50   0x0000000e   Code   RO         3363    i.Chip_SetupCoreClock  lib_lpc_chip_43xx.lib(sysinit_18xx_43xx.o)
    0x1a014b5e   0x0000000a   Code   RO         2348    i.Chip_UART_DisableDivisorAccess  lib_lpc_chip_43xx.lib(uart_18xx_43xx.o)
    0x1a014b68   0x0000000a   Code   RO         2349    i.Chip_UART_EnableDivisorAccess  lib_lpc_chip_43xx.lib(uart_18xx_43xx.o)
    0x1a014b72   0x00000002   PAD
    0x1a014b74   0x00000030   Code   RO         2351    i.Chip_UART_GetClockIndex  lib_lpc_chip_43xx.lib(uart_18xx_43xx.o)
    0x1a014ba4   0x0000004c   Code   RO         2353    i.Chip_UART_Init    lib_lpc_chip_43xx.lib(uart_18xx_43xx.o)
    0x1a014bf0   0x00000042   Code   RO         2365    i.Chip_UART_SetBaud  lib_lpc_chip_43xx.lib(uart_18xx_43xx.o)
    0x1a014c32   0x00000006   Code   RO         2367    i.Chip_UART_SetDivisorLatches  lib_lpc_chip_43xx.lib(uart_18xx_43xx.o)
    0x1a014c38   0x00000014   Code   RO         1963    i.SystemCoreClockUpdate  lib_lpc_chip_43xx.lib(chip_18xx_43xx.o)
    0x1a014c4c   0x0000000e   Code   RO         3517    i._is_digit         c_w.l(__printf_wp.o)
    0x1a014c5a   0x00000006   Code   RO         1431    i._sys_exit         lib_lpc_board_keil_mcb_4357.lib(board.o)
    0x1a014c60   0x00000024   Code   RO         3367    i.clock_init_delay  lib_lpc_chip_43xx.lib(sysinit_18xx_43xx.o)
    0x1a014c84   0x000000bc   Code   RO         3368    i.clock_main_init   lib_lpc_chip_43xx.lib(sysinit_18xx_43xx.o)
    0x1a014d40   0x00000008   Code   RO         1435    i.ferror            lib_lpc_board_keil_mcb_4357.lib(board.o)
    0x1a014d48   0x00000050   Code   RO         2512    i.fpuInit           lib_lpc_chip_43xx.lib(fpu_init.o)
    0x1a014d98   0x00000014   Code   RO         1437    i.fputc             lib_lpc_board_keil_mcb_4357.lib(board.o)
    0x1a014dac   0x00000018   Code   RO         2254    i.prv_card_acquired  lib_lpc_chip_43xx.lib(sdmmc_18xx_43xx.o)
    0x1a014dc4   0x00000040   Code   RO         2255    i.prv_get_bits      lib_lpc_chip_43xx.lib(sdmmc_18xx_43xx.o)
    0x1a014e04   0x0000019c   Code   RO         2256    i.prv_process_csd   lib_lpc_chip_43xx.lib(sdmmc_18xx_43xx.o)
    0x1a014fa0   0x00000060   Code   RO         2257    i.prv_set_card_params  lib_lpc_chip_43xx.lib(sdmmc_18xx_43xx.o)
    0x1a015000   0x00000074   Code   RO         2258    i.prv_set_trans_state  lib_lpc_chip_43xx.lib(sdmmc_18xx_43xx.o)
    0x1a015074   0x000001c8   Code   RO         2259    i.sdmmc_execute_command  lib_lpc_chip_43xx.lib(sdmmc_18xx_43xx.o)
    0x1a01523c   0x0000000a   Code   RO         3679    x$fpl$fpinit        fz_wm.l(fpinit.o)
    0x1a015246   0x00000100   Data   RO          895    .constdata          yaffs_hweight.o
    0x1a015346   0x00000100   Data   RO         1017    .constdata          yaffs_ecc.o
    0x1a015446   0x00000002   PAD
    0x1a015448   0x00000028   Data   RO         1186    .constdata          yaffs_verify.o
    0x1a015470   0x0000002c   Data   RO         1366    .constdata          ff.o
    0x1a01549c   0x00000040   Data   RO         1445    .constdata          lib_lpc_board_keil_mcb_4357.lib(board.o)
    0x1a0154dc   0x000002bc   Data   RO         1894    .constdata          lib_lpc_board_keil_mcb_4357.lib(board_sysinit.o)
    0x1a015798   0x0000006c   Data   RO         2634    .constdata          lib_lpc_chip_43xx.lib(clock_18xx_43xx.o)
    0x1a015804   0x00000048   Data   RO         3369    .constdata          lib_lpc_chip_43xx.lib(sysinit_18xx_43xx.o)
    0x1a01584c   0x00000028   Data   RO         3499    .constdata          c_w.l(_printf_hex_int_ptr.o)
    0x1a015874   0x00000011   Data   RO         3525    .constdata          c_w.l(__printf_flags_ss_wp.o)
    0x1a015885   0x00000003   PAD
    0x1a015888   0x0000004f   Data   RO          776    .conststring        main.o
    0x1a0158d7   0x00000001   PAD
    0x1a0158d8   0x0000009d   Data   RO          998    .conststring        yaffs_checkptrw.o
    0x1a015975   0x00000003   PAD
    0x1a015978   0x0000024d   Data   RO         1037    .conststring        yaffs_guts.o
    0x1a015bc5   0x00000003   PAD
    0x1a015bc8   0x0000005b   Data   RO         1125    .conststring        yaffs_packedtags2.o
    0x1a015c23   0x00000001   PAD
    0x1a015c24   0x00000186   Data   RO         1187    .conststring        yaffs_verify.o
    0x1a015daa   0x00000002   PAD
    0x1a015dac   0x00000062   Data   RO         1203    .conststring        yaffs_yaffs1.o
    0x1a015e0e   0x00000002   PAD
    0x1a015e10   0x0000028c   Data   RO         1228    .conststring        yaffs_yaffs2.o
    0x1a01609c   0x00000040   Data   RO         3734    Region$$Table       anon$$obj.o


==============================================================================

Image component sizes


      Code (inc. data)   RO Data    RW Data    ZI Data      Debug   Object Name

       164         16          0          0          0        408   cpu.o
        76          0          0          0          0       5894   diskio.o
      8696        134         44         12         12      23326   ff.o
       370          0          0          0          0       6908   fifo.o
       892          8          0         12          0       6351   k9f1g08.o
        68         28        276          0       1792        960   keil_startup_lpc18xx43xx.o
        64          6          0          0          0       1199   lpc43xx_gpio.o
        20          4          0          0          0       1009   lpc43xx_scu.o
      1116         28          0          0          0       2186   lpc43xx_sdram.o
      2000        860         79          8       3856      58829   main.o
       324          0          0          0          0       1422   port.o
        18          0          0          0          0       1791   port_hook.o
     11108        332          0         88       4840      65871   raw-os.o
      1460        184          0          4         72       7976   raw_malloc.o
       980         32          0          0         44       5558   raw_page.o
        28          8          0          0          0      18521   sysinit.o
       136          0          0          0          0       1516   user_extension.o
      1020        280          0          0          0      16732   yaffs_allocator.o
       292          0          0          0          0       2504   yaffs_attribs.o
       516        138          0          0          0       2702   yaffs_bitmap.o
      2308        592        157          0          0       6170   yaffs_checkptrw.o
       636          6        256          0          0       3308   yaffs_ecc.o
     17552       2982        589          0          0      46295   yaffs_guts.o
        40          4        256          0          0       1823   yaffs_hweight.o
       596          0          0          0          0       3270   yaffs_nameval.o
       596        254          0          0          0       3400   yaffs_nand.o
       132         24          0          4         28       3652   yaffs_osglue.o
       504         60         91          0          0       2922   yaffs_packedtags2.o
       356         30          0          0          0      20593   yaffs_port_nand_drv.o
       720          0          0          0          0       1958   yaffs_qsort.o
       104          0          0          0          0       2568   yaffs_startup.o
      1146        134          0          0          0      15866   yaffs_summary.o
      1716        428          0          8         32       5213   yaffs_tagscompat.o
       864        320          0          0          0       2962   yaffs_tagsmarshall.o
      3188       1450        430          4          0       6477   yaffs_verify.o
      1596        408         98          0          0      15554   yaffs_yaffs1.o
      6062       1336        652          0          0      12773   yaffs_yaffs2.o
        60         26          0          8          0       1060   yaffscfg2k.o
     11392        108          0         28       6120      65156   yaffsfs.o

    ----------------------------------------------------------------------
     78924      10220       3006        176      16796     452683   Object Totals
         0          0         64          0          0          0   (incl. Generated)
         8          0         14          0          0          0   (incl. Padding)

    ----------------------------------------------------------------------

      Code (inc. data)   RO Data    RW Data    ZI Data      Debug   Library Member Name

         8          0          0          0          0         68   __main.o
       392          4         17          0          0         92   __printf_flags_ss_wp.o
        14          0          0          0          0         68   __printf_wp.o
         0          0          0          0          0          0   __rtentry.o
        12          0          0          0          0          0   __rtentry2.o
         6          0          0          0          0          0   __rtentry4.o
        52          8          0          0          0          0   __scatter.o
        26          0          0          0          0          0   __scatter_copy.o
        28          0          0          0          0          0   __scatter_zi.o
        44          0          0          0          0        108   _printf_char.o
        48          6          0          0          0         96   _printf_char_common.o
        36          4          0          0          0         80   _printf_char_file.o
         6          0          0          0          0          0   _printf_d.o
       120         16          0          0          0         92   _printf_dec.o
       124          4         40          0          0        144   _printf_hex_int_ptr.o
       178          0          0          0          0         88   _printf_intcommon.o
        10          0          0          0          0          0   _printf_ll.o
         6          0          0          0          0          0   _printf_lld.o
       124         16          0          0          0         92   _printf_longlong_dec.o
         6          0          0          0          0          0   _printf_p.o
        78          0          0          0          0        108   _printf_pad.o
         0          0          0          0          0          0   _printf_percent.o
         4          0          0          0          0          0   _printf_percent_end.o
         6          0          0          0          0          0   _printf_s.o
        82          0          0          0          0         80   _printf_str.o
         6          0          0          0          0          0   _printf_u.o
         6          0          0          0          0          0   _printf_x.o
        16          0          0          0          0         68   aeabi_memset.o
        12          0          0          0          0         72   exit.o
         6          0          0          0          0        152   heapauxi.o
         2          0          0          0          0          0   libinit.o
         6          0          0          0          0          0   libinit2.o
         2          0          0          0          0          0   libshutdown.o
         2          0          0          0          0          0   libshutdown2.o
         8          4          0          0         96         68   libspace.o
       138          0          0          0          0         80   lludiv10.o
        88          0          0          0          0         76   memcmp.o
        24          4          0          0          0         84   noretval__2printf.o
        68          0          0          0          0         68   rt_memclr.o
        78          0          0          0          0         80   rt_memclr_w.o
       138          0          0          0          0         68   rt_memcpy_v6.o
       100          0          0          0          0         80   rt_memcpy_w.o
         2          0          0          0          0          0   rtexit.o
        10          0          0          0          0          0   rtexit2.o
        24          0          0          0          0         68   strcat.o
       128          0          0          0          0         68   strcmpv7m.o
        72          0          0          0          0         80   strcpy.o
       150          0          0          0          0         80   strncmp.o
        86          0          0          0          0         76   strncpy.o
        74          0          0          0          0         80   sys_stackheap_outer.o
        10          0          0          0          0        116   fpinit.o
       224         18         64         20          0      32261   board.o
       316         44        700          0          0      11181   board_sysinit.o
        20          6          0          4          0      14334   chip_18xx_43xx.o
       870        130        108          8          0       8770   clock_18xx_43xx.o
        80         18          0          0          0       1234   fpu_init.o
       406         20          0          0          0       4187   sdif_18xx_43xx.o
      2348        144          0          4          0      17225   sdmmc_18xx_43xx.o
       238         20         72          0          0       2286   sysinit_18xx_43xx.o
       216         16          0          0          0       9189   uart_18xx_43xx.o

    ----------------------------------------------------------------------
      7398        482       1004         36         96     103247   Library Totals
        14          0          3          0          0          0   (incl. Padding)

    ----------------------------------------------------------------------

      Code (inc. data)   RO Data    RW Data    ZI Data      Debug   Library Name

      2656         66         57          0         96       2464   c_w.l
        10          0          0          0          0        116   fz_wm.l
       540         62        764         20          0      43442   lib_lpc_board_keil_mcb_4357.lib
      4178        354        180         16          0      57225   lib_lpc_chip_43xx.lib

    ----------------------------------------------------------------------
      7398        482       1004         36         96     103247   Library Totals

    ----------------------------------------------------------------------

==============================================================================


      Code (inc. data)   RO Data    RW Data    ZI Data      Debug   

     86322      10702       4010        212      16892     542930   Grand Totals
     86322      10702       4010        212      16892     542930   ELF Image Totals
     86322      10702       4010        212          0          0   ROM Totals

==============================================================================

    Total RO  Size (Code + RO Data)                90332 (  88.21kB)
    Total RW  Size (RW Data + ZI Data)             17104 (  16.70kB)
    Total ROM Size (Code + RO Data + RW Data)      90544 (  88.42kB)

==============================================================================

