Component: ARM Compiler 5.06 (build 20) Tool: armlink [4d35a3]

==============================================================================

Section Cross References

    raw-os.o(.text) refers to cpu.o(.text) for OS_CPU_SR_Save
    raw-os.o(.text) refers to port_error_process.o(.text) for port_system_error_process
    raw-os.o(.text) refers to raw-os.o(.data) for .data
    raw-os.o(.text) refers to raw-os.o(.bss) for .bss
    raw-os.o(.text) refers to user_extension.o(.text) for raw_memset
    raw-os.o(.text) refers to port.o(.text) for port_stack_init
    raw-os.o(.text) refers to port_hook.o(.text) for task_create_hook
    raw-os.o(.text) refers to lludivv7m.o(.text) for __aeabi_uldivmod
    fifo.o(.text) refers to cpu.o(.text) for OS_CPU_SR_Save
    fifo.o(.text) refers to user_extension.o(.text) for raw_memcpy
    rsh.o(.text) refers to cpu.o(.text) for OS_CPU_SR_Save
    rsh.o(.text) refers to string.o(.text) for raw_strncmp
    rsh.o(.text) refers to user_extension.o(.text) for raw_memset
    rsh.o(.text) refers to rsh.o(.data) for .data
    rsh.o(.text) refers to rsh.o(.conststring) for .conststring
    rsh.o(.constdata) refers to rsh.o(.conststring) for .conststring
    rsh.o(.constdata) refers to rsh.o(.text) for rsh_help_command
    rsh.o(.data) refers to rsh.o(.constdata) for xHelpCommand
==============================================================================

Removing Unused input sections from the image.

    Removing rsh.o(.text), (472 bytes).
    Removing rsh.o(.constdata), (16 bytes).
    Removing rsh.o(.conststring), (50 bytes).
    Removing rsh.o(.conststring), (173 bytes).
    Removing rsh.o(.data), (20 bytes).
    Removing string.o(.text), (592 bytes).
    Removing sysinit.o(.rev16_text), (4 bytes).
    Removing sysinit.o(.revsh_text), (4 bytes).
    Removing lpc43xx_scu.o(.rev16_text), (4 bytes).
    Removing lpc43xx_scu.o(.revsh_text), (4 bytes).
    Removing lpc43xx_sdram.o(.rev16_text), (4 bytes).
    Removing lpc43xx_sdram.o(.revsh_text), (4 bytes).
    Removing main.o(.rev16_text), (4 bytes).
    Removing main.o(.revsh_text), (4 bytes).
    Removing main.o(.data), (4 bytes).
    Removing diskio.o(.rev16_text), (4 bytes).
    Removing diskio.o(.revsh_text), (4 bytes).
    Removing board.o(.rev16_text), (4 bytes).
==============================================================================

Image Symbol Table

    Local Symbols

    Symbol Name                              Value     Ov Type        Size  Object(Section)

    ../clib/angel/boardlib.s                 0x00000000   Number         0  boardshut.o ABSOLUTE
    ../clib/angel/boardlib.s                 0x00000000   Number         0  boardinit3.o ABSOLUTE
    ../clib/angel/boardlib.s                 0x00000000   Number         0  boardinit2.o ABSOLUTE
    ../clib/angel/boardlib.s                 0x00000000   Number         0  boardinit1.o ABSOLUTE
    ../clib/angel/handlers.s                 0x00000000   Number         0  __scatter_zi.o ABSOLUTE
    ../clib/angel/handlers.s                 0x00000000   Number         0  __scatter_copy.o ABSOLUTE
    ../clib/angel/kernel.s                   0x00000000   Number         0  rtexit.o ABSOLUTE
    ../clib/angel/kernel.s                   0x00000000   Number         0  rtexit2.o ABSOLUTE
    ../clib/angel/kernel.s                   0x00000000   Number         0  __rtentry2.o ABSOLUTE
    ../clib/angel/kernel.s                   0x00000000   Number         0  __rtentry4.o ABSOLUTE
    ../clib/angel/kernel.s                   0x00000000   Number         0  __rtentry.o ABSOLUTE
    ../clib/angel/rt.s                       0x00000000   Number         0  rt_div0.o ABSOLUTE
    ../clib/angel/rt.s                       0x00000000   Number         0  aeabi_ldiv0.o ABSOLUTE
    ../clib/angel/rt.s                       0x00000000   Number         0  rt_raise.o ABSOLUTE
    ../clib/angel/rt.s                       0x00000000   Number         0  aeabi_ldiv0_sigfpe.o ABSOLUTE
    ../clib/angel/scatter.s                  0x00000000   Number         0  __scatter.o ABSOLUTE
    ../clib/angel/startup.s                  0x00000000   Number         0  __main.o ABSOLUTE
    ../clib/angel/sys.s                      0x00000000   Number         0  libspace.o ABSOLUTE
    ../clib/angel/sys.s                      0x00000000   Number         0  sys_stackheap_outer.o ABSOLUTE
    ../clib/angel/sys.s                      0x00000000   Number         0  indicate_semi.o ABSOLUTE
    ../clib/angel/sys.s                      0x00000000   Number         0  use_no_semi.o ABSOLUTE
    ../clib/angel/sysapp.c                   0x00000000   Number         0  sys_command.o ABSOLUTE
    ../clib/angel/sysapp.c                   0x00000000   Number         0  sys_wrch.o ABSOLUTE
    ../clib/armsys.c                         0x00000000   Number         0  argv_veneer.o ABSOLUTE
    ../clib/armsys.c                         0x00000000   Number         0  argv_veneer.o ABSOLUTE
    ../clib/armsys.c                         0x00000000   Number         0  no_argv.o ABSOLUTE
    ../clib/armsys.c                         0x00000000   Number         0  _get_argv_nomalloc.o ABSOLUTE
    ../clib/heapalloc.c                      0x00000000   Number         0  hrguard.o ABSOLUTE
    ../clib/heapaux.c                        0x00000000   Number         0  heapauxi.o ABSOLUTE
    ../clib/libinit.s                        0x00000000   Number         0  libinit2.o ABSOLUTE
    ../clib/libinit.s                        0x00000000   Number         0  libshutdown2.o ABSOLUTE
    ../clib/libinit.s                        0x00000000   Number         0  libshutdown.o ABSOLUTE
    ../clib/libinit.s                        0x00000000   Number         0  libinit.o ABSOLUTE
    ../clib/longlong.s                       0x00000000   Number         0  lludivv7m.o ABSOLUTE
    ../clib/memcpset.s                       0x00000000   Number         0  rt_memclr_w.o ABSOLUTE
    ../clib/memcpset.s                       0x00000000   Number         0  rt_memcpy_v6.o ABSOLUTE
    ../clib/memcpset.s                       0x00000000   Number         0  rt_memcpy_w.o ABSOLUTE
    ../clib/misc.s                           0x00000000   Number         0  printf_stubs.o ABSOLUTE
    ../clib/printf.c                         0x00000000   Number         0  __printf_wp.o ABSOLUTE
    ../clib/printf.c                         0x00000000   Number         0  __printf_flags_ss.o ABSOLUTE
    ../clib/printf.c                         0x00000000   Number         0  __printf_ss.o ABSOLUTE
    ../clib/printf.c                         0x00000000   Number         0  __printf_flags.o ABSOLUTE
    ../clib/printf.c                         0x00000000   Number         0  _printf_hex_int_ll_ptr.o ABSOLUTE
    ../clib/printf.c                         0x00000000   Number         0  _printf_hex_ll_ptr.o ABSOLUTE
    ../clib/printf.c                         0x00000000   Number         0  _printf_hex_int_ptr.o ABSOLUTE
    ../clib/printf.c                         0x00000000   Number         0  _printf_hex_ptr.o ABSOLUTE
    ../clib/printf.c                         0x00000000   Number         0  _printf_pad.o ABSOLUTE
    ../clib/printf.c                         0x00000000   Number         0  _printf_hex_int_ll.o ABSOLUTE
    ../clib/printf.c                         0x00000000   Number         0  _printf_hex_int.o ABSOLUTE
    ../clib/printf.c                         0x00000000   Number         0  _printf_hex_ll.o ABSOLUTE
    ../clib/printf.c                         0x00000000   Number         0  _printf_dec.o ABSOLUTE
    ../clib/printf.c                         0x00000000   Number         0  __2printf.o ABSOLUTE
    ../clib/printf.c                         0x00000000   Number         0  noretval__2printf.o ABSOLUTE
    ../clib/printf.c                         0x00000000   Number         0  __printf.o ABSOLUTE
    ../clib/printf.c                         0x00000000   Number         0  __printf_flags_wp.o ABSOLUTE
    ../clib/printf.c                         0x00000000   Number         0  __printf_ss_wp.o ABSOLUTE
    ../clib/printf.c                         0x00000000   Number         0  __printf_flags_ss_wp.o ABSOLUTE
    ../clib/printf.c                         0x00000000   Number         0  __printf_nopercent.o ABSOLUTE
    ../clib/printf.c                         0x00000000   Number         0  _printf_char_common.o ABSOLUTE
    ../clib/printf.c                         0x00000000   Number         0  _printf_char_file.o ABSOLUTE
    ../clib/printf.c                         0x00000000   Number         0  _printf_intcommon.o ABSOLUTE
    ../clib/printf_percent.s                 0x00000000   Number         0  _printf_percent_end.o ABSOLUTE
    ../clib/printf_percent.s                 0x00000000   Number         0  _printf_d.o ABSOLUTE
    ../clib/printf_percent.s                 0x00000000   Number         0  _printf_percent.o ABSOLUTE
    ../clib/printf_percent.s                 0x00000000   Number         0  _printf_x.o ABSOLUTE
    ../clib/signal.c                         0x00000000   Number         0  defsig_segv_inner.o ABSOLUTE
    ../clib/signal.c                         0x00000000   Number         0  defsig_rtmem_outer.o ABSOLUTE
    ../clib/signal.c                         0x00000000   Number         0  defsig_rtmem_formal.o ABSOLUTE
    ../clib/signal.c                         0x00000000   Number         0  defsig_fpe_inner.o ABSOLUTE
    ../clib/signal.c                         0x00000000   Number         0  defsig_stak_inner.o ABSOLUTE
    ../clib/signal.c                         0x00000000   Number         0  defsig_exit.o ABSOLUTE
    ../clib/signal.c                         0x00000000   Number         0  defsig_pvfn_inner.o ABSOLUTE
    ../clib/signal.c                         0x00000000   Number         0  __raise.o ABSOLUTE
    ../clib/signal.c                         0x00000000   Number         0  defsig_general.o ABSOLUTE
    ../clib/signal.c                         0x00000000   Number         0  defsig_cppl_inner.o ABSOLUTE
    ../clib/signal.c                         0x00000000   Number         0  defsig_other.o ABSOLUTE
    ../clib/signal.c                         0x00000000   Number         0  defsig_abrt_inner.o ABSOLUTE
    ../clib/signal.c                         0x00000000   Number         0  defsig_rtred_inner.o ABSOLUTE
    ../clib/signal.c                         0x00000000   Number         0  defsig_fpe_formal.o ABSOLUTE
    ../clib/signal.c                         0x00000000   Number         0  defsig_fpe_outer.o ABSOLUTE
    ../clib/signal.c                         0x00000000   Number         0  defsig_rtmem_inner.o ABSOLUTE
    ../clib/signal.s                         0x00000000   Number         0  defsig.o ABSOLUTE
    ../clib/stdlib.c                         0x00000000   Number         0  exit.o ABSOLUTE
    ../fplib/fpinit.s                        0x00000000   Number         0  fpinit.o ABSOLUTE
    ..\..\..\..\software\common\lpc43xx_scu.c 0x00000000   Number         0  lpc43xx_scu.o ABSOLUTE
    ..\..\..\..\software\common\lpc43xx_sdram.c 0x00000000   Number         0  lpc43xx_sdram.o ABSOLUTE
    ..\..\..\..\software\filesystems\fatfs_rawos\diskio.c 0x00000000   Number         0  diskio.o ABSOLUTE
    ..\..\..\..\software\filesystems\fatfs_rawos\ff.c 0x00000000   Number         0  ff.o ABSOLUTE
    ..\..\..\..\software\filesystems\fatfs_rawos\option\syscall.c 0x00000000   Number         0  syscall.o ABSOLUTE
    ..\..\..\..\software\kernel\port\cpu.asm 0x00000000   Number         0  cpu.o ABSOLUTE
    ..\..\..\..\software\kernel\port\port.c  0x00000000   Number         0  port.o ABSOLUTE
    ..\..\..\..\software\kernel\port\port_error_process.c 0x00000000   Number         0  port_error_process.o ABSOLUTE
    ..\..\..\..\software\kernel\port\port_hook.c 0x00000000   Number         0  port_hook.o ABSOLUTE
    ..\..\..\..\software\kernel\port\raw_trace_port.c 0x00000000   Number         0  raw_trace_port.o ABSOLUTE
    ..\..\..\..\software\kernel\port\user_extension.c 0x00000000   Number         0  user_extension.o ABSOLUTE
    ..\..\..\..\software\kernel\raw-os\extension\lib\fifo.c 0x00000000   Number         0  fifo.o ABSOLUTE
    ..\..\..\..\software\kernel\raw-os\extension\lib\string.c 0x00000000   Number         0  string.o ABSOLUTE
    ..\..\..\..\software\kernel\raw-os\extension\mm\raw_malloc.c 0x00000000   Number         0  raw_malloc.o ABSOLUTE
    ..\..\..\..\software\kernel\raw-os\extension\mm\raw_page.c 0x00000000   Number         0  raw_page.o ABSOLUTE
    ..\..\..\..\software\kernel\raw-os\extension\shell\rsh.c 0x00000000   Number         0  rsh.o ABSOLUTE
    ..\..\..\..\software\kernel\raw-os\raw-os.c 0x00000000   Number         0  raw-os.o ABSOLUTE
    ..\..\board_common\uda1380.c             0x00000000   Number         0  uda1380.o ABSOLUTE
    ..\..\examples\fatfs\main.c              0x00000000   Number         0  main.o ABSOLUTE
    ..\..\startup_code\keil_startup_lpc18xx43xx.s 0x00000000   Number         0  keil_startup_lpc18xx43xx.o ABSOLUTE
    ..\..\startup_code\sysinit.c             0x00000000   Number         0  sysinit.o ABSOLUTE
    ..\\..\\..\\..\\software\\common\\lpc43xx_scu.c 0x00000000   Number         0  lpc43xx_scu.o ABSOLUTE
    ..\\..\\..\\..\\software\\common\\lpc43xx_sdram.c 0x00000000   Number         0  lpc43xx_sdram.o ABSOLUTE
    ..\\..\\..\\..\\software\\filesystems\\fatfs_rawos\\diskio.c 0x00000000   Number         0  diskio.o ABSOLUTE
    ..\\..\\board_common\\uda1380.c          0x00000000   Number         0  uda1380.o ABSOLUTE
    ..\\..\\examples\\fatfs\\main.c          0x00000000   Number         0  main.o ABSOLUTE
    ..\\..\\startup_code\\sysinit.c          0x00000000   Number         0  sysinit.o ABSOLUTE
    ..\\chip_common\\fpu_init.c              0x00000000   Number         0  fpu_init.o ABSOLUTE
    ..\chip_common\fpu_init.c                0x00000000   Number         0  fpu_init.o ABSOLUTE
    ..\chip_common\ring_buffer.c             0x00000000   Number         0  ring_buffer.o ABSOLUTE
    board.c                                  0x00000000   Number         0  board.o ABSOLUTE
    board.c                                  0x00000000   Number         0  board.o ABSOLUTE
    board_sysinit.c                          0x00000000   Number         0  board_sysinit.o ABSOLUTE
    board_sysinit.c                          0x00000000   Number         0  board_sysinit.o ABSOLUTE
    chip_18xx_43xx.c                         0x00000000   Number         0  chip_18xx_43xx.o ABSOLUTE
    chip_18xx_43xx.c                         0x00000000   Number         0  chip_18xx_43xx.o ABSOLUTE
    clock_18xx_43xx.c                        0x00000000   Number         0  clock_18xx_43xx.o ABSOLUTE
    clock_18xx_43xx.c                        0x00000000   Number         0  clock_18xx_43xx.o ABSOLUTE
    dc.s                                     0x00000000   Number         0  dc.o ABSOLUTE
    emc_18xx_43xx.c                          0x00000000   Number         0  emc_18xx_43xx.o ABSOLUTE
    emc_18xx_43xx.c                          0x00000000   Number         0  emc_18xx_43xx.o ABSOLUTE
    gpio_18xx_43xx.c                         0x00000000   Number         0  gpio_18xx_43xx.o ABSOLUTE
    gpio_18xx_43xx.c                         0x00000000   Number         0  gpio_18xx_43xx.o ABSOLUTE
    i2c_18xx_43xx.c                          0x00000000   Number         0  i2c_18xx_43xx.o ABSOLUTE
    i2c_18xx_43xx.c                          0x00000000   Number         0  i2c_18xx_43xx.o ABSOLUTE
    i2s_18xx_43xx.c                          0x00000000   Number         0  i2s_18xx_43xx.o ABSOLUTE
    i2s_18xx_43xx.c                          0x00000000   Number         0  i2s_18xx_43xx.o ABSOLUTE
    rgu_18xx_43xx.c                          0x00000000   Number         0  rgu_18xx_43xx.o ABSOLUTE
    rgu_18xx_43xx.c                          0x00000000   Number         0  rgu_18xx_43xx.o ABSOLUTE
    sdif_18xx_43xx.c                         0x00000000   Number         0  sdif_18xx_43xx.o ABSOLUTE
    sdif_18xx_43xx.c                         0x00000000   Number         0  sdif_18xx_43xx.o ABSOLUTE
    sdmmc_18xx_43xx.c                        0x00000000   Number         0  sdmmc_18xx_43xx.o ABSOLUTE
    sdmmc_18xx_43xx.c                        0x00000000   Number         0  sdmmc_18xx_43xx.o ABSOLUTE
    ssp_18xx_43xx.c                          0x00000000   Number         0  ssp_18xx_43xx.o ABSOLUTE
    ssp_18xx_43xx.c                          0x00000000   Number         0  ssp_18xx_43xx.o ABSOLUTE
    sysinit_18xx_43xx.c                      0x00000000   Number         0  sysinit_18xx_43xx.o ABSOLUTE
    sysinit_18xx_43xx.c                      0x00000000   Number         0  sysinit_18xx_43xx.o ABSOLUTE
    uart_18xx_43xx.c                         0x00000000   Number         0  uart_18xx_43xx.o ABSOLUTE
    uart_18xx_43xx.c                         0x00000000   Number         0  uart_18xx_43xx.o ABSOLUTE
    .data                                    0x10000000   Section       64  raw-os.o(.data)
    .data                                    0x10000040   Section        4  raw_malloc.o(.data)
    .data                                    0x10000044   Section        8  main.o(.data)
    sdio_wait_exit                           0x10000044   Data           4  main.o(.data)
    tot_secs                                 0x10000048   Data           4  main.o(.data)
    .data                                    0x1000004c   Section       12  ff.o(.data)
    Fsid                                     0x1000004c   Data           2  ff.o(.data)
    FatFs                                    0x10000050   Data           8  ff.o(.data)
    .data                                    0x10000058   Section       20  board.o(.data)
    .data                                    0x1000006c   Section        4  chip_18xx_43xx.o(.data)
    .data                                    0x10000070   Section        4  sdmmc_18xx_43xx.o(.data)
    g_card_info                              0x10000070   Data           4  sdmmc_18xx_43xx.o(.data)
    .data                                    0x10000074   Section        8  clock_18xx_43xx.o(.data)
    audio_usb_pll_freq                       0x10000074   Data           8  clock_18xx_43xx.o(.data)
    .bss                                     0x1000007c   Section     4004  raw-os.o(.bss)
    .bss                                     0x10001020   Section       72  raw_malloc.o(.bss)
    malloc_macb                              0x10001020   Data          72  raw_malloc.o(.bss)
    .bss                                     0x10001068   Section       48  raw_page.o(.bss)
    system_page_table                        0x10001068   Data          48  raw_page.o(.bss)
    .bss                                     0x10001098   Section     3772  main.o(.bss)
    fifo_buffer                              0x10001ca4   Data         128  main.o(.bss)
    .bss                                     0x10001f54   Section       12  ff.o(.bss)
    Files                                    0x10001f54   Data          12  ff.o(.bss)
    .bss                                     0x10001f60   Section       96  libspace.o(.bss)
    HEAP                                     0x10001fc0   Section      256  keil_startup_lpc18xx43xx.o(HEAP)
    Heap_Mem                                 0x10001fc0   Data         256  keil_startup_lpc18xx43xx.o(HEAP)
    STACK                                    0x100020c0   Section     1536  keil_startup_lpc18xx43xx.o(STACK)
    Stack_Mem                                0x100020c0   Data        1536  keil_startup_lpc18xx43xx.o(STACK)
    __initial_sp                             0x100026c0   Data           0  keil_startup_lpc18xx43xx.o(STACK)
    RESET                                    0x1a000000   Section      276  keil_startup_lpc18xx43xx.o(RESET)
    !!!main                                  0x1a000114   Section        8  __main.o(!!!main)
    !!!scatter                               0x1a00011c   Section       52  __scatter.o(!!!scatter)
    !!handler_copy                           0x1a000150   Section       26  __scatter_copy.o(!!handler_copy)
    !!handler_zi                             0x1a00016c   Section       28  __scatter_zi.o(!!handler_zi)
    .ARM.Collect$$_printf_percent$$00000000  0x1a000188   Section        0  _printf_percent.o(.ARM.Collect$$_printf_percent$$00000000)
    .ARM.Collect$$_printf_percent$$00000009  0x1a000188   Section        6  _printf_d.o(.ARM.Collect$$_printf_percent$$00000009)
    .ARM.Collect$$_printf_percent$$0000000C  0x1a00018e   Section        6  _printf_x.o(.ARM.Collect$$_printf_percent$$0000000C)
    .ARM.Collect$$_printf_percent$$00000017  0x1a000194   Section        4  _printf_percent_end.o(.ARM.Collect$$_printf_percent$$00000017)
    .ARM.Collect$$libinit$$00000000          0x1a000198   Section        2  libinit.o(.ARM.Collect$$libinit$$00000000)
    .ARM.Collect$$libinit$$00000001          0x1a00019a   Section        4  libinit2.o(.ARM.Collect$$libinit$$00000001)
    .ARM.Collect$$libinit$$00000004          0x1a00019e   Section        0  libinit2.o(.ARM.Collect$$libinit$$00000004)
    .ARM.Collect$$libinit$$0000000A          0x1a00019e   Section        0  libinit2.o(.ARM.Collect$$libinit$$0000000A)
    .ARM.Collect$$libinit$$0000000C          0x1a00019e   Section        0  libinit2.o(.ARM.Collect$$libinit$$0000000C)
    .ARM.Collect$$libinit$$0000000E          0x1a00019e   Section        0  libinit2.o(.ARM.Collect$$libinit$$0000000E)
    .ARM.Collect$$libinit$$00000011          0x1a00019e   Section        0  libinit2.o(.ARM.Collect$$libinit$$00000011)
    .ARM.Collect$$libinit$$00000013          0x1a00019e   Section        0  libinit2.o(.ARM.Collect$$libinit$$00000013)
    .ARM.Collect$$libinit$$00000015          0x1a00019e   Section        0  libinit2.o(.ARM.Collect$$libinit$$00000015)
    .ARM.Collect$$libinit$$00000017          0x1a00019e   Section        0  libinit2.o(.ARM.Collect$$libinit$$00000017)
    .ARM.Collect$$libinit$$00000019          0x1a00019e   Section        0  libinit2.o(.ARM.Collect$$libinit$$00000019)
    .ARM.Collect$$libinit$$0000001B          0x1a00019e   Section        0  libinit2.o(.ARM.Collect$$libinit$$0000001B)
    .ARM.Collect$$libinit$$0000001D          0x1a00019e   Section        0  libinit2.o(.ARM.Collect$$libinit$$0000001D)
    .ARM.Collect$$libinit$$0000001F          0x1a00019e   Section        0  libinit2.o(.ARM.Collect$$libinit$$0000001F)
    .ARM.Collect$$libinit$$00000021          0x1a00019e   Section        0  libinit2.o(.ARM.Collect$$libinit$$00000021)
    .ARM.Collect$$libinit$$00000023          0x1a00019e   Section        0  libinit2.o(.ARM.Collect$$libinit$$00000023)
    .ARM.Collect$$libinit$$00000025          0x1a00019e   Section        0  libinit2.o(.ARM.Collect$$libinit$$00000025)
    .ARM.Collect$$libinit$$0000002C          0x1a00019e   Section        0  libinit2.o(.ARM.Collect$$libinit$$0000002C)
    .ARM.Collect$$libinit$$0000002E          0x1a00019e   Section        0  libinit2.o(.ARM.Collect$$libinit$$0000002E)
    .ARM.Collect$$libinit$$00000030          0x1a00019e   Section        0  libinit2.o(.ARM.Collect$$libinit$$00000030)
    .ARM.Collect$$libinit$$00000032          0x1a00019e   Section        0  libinit2.o(.ARM.Collect$$libinit$$00000032)
    .ARM.Collect$$libinit$$00000033          0x1a00019e   Section        2  libinit2.o(.ARM.Collect$$libinit$$00000033)
    .ARM.Collect$$libshutdown$$00000000      0x1a0001a0   Section        2  libshutdown.o(.ARM.Collect$$libshutdown$$00000000)
    .ARM.Collect$$libshutdown$$00000002      0x1a0001a2   Section        0  libshutdown2.o(.ARM.Collect$$libshutdown$$00000002)
    .ARM.Collect$$libshutdown$$00000004      0x1a0001a2   Section        0  libshutdown2.o(.ARM.Collect$$libshutdown$$00000004)
    .ARM.Collect$$libshutdown$$00000007      0x1a0001a2   Section        0  libshutdown2.o(.ARM.Collect$$libshutdown$$00000007)
    .ARM.Collect$$libshutdown$$0000000A      0x1a0001a2   Section        0  libshutdown2.o(.ARM.Collect$$libshutdown$$0000000A)
    .ARM.Collect$$libshutdown$$0000000C      0x1a0001a2   Section        0  libshutdown2.o(.ARM.Collect$$libshutdown$$0000000C)
    .ARM.Collect$$libshutdown$$0000000F      0x1a0001a2   Section        0  libshutdown2.o(.ARM.Collect$$libshutdown$$0000000F)
    .ARM.Collect$$libshutdown$$00000010      0x1a0001a2   Section        2  libshutdown2.o(.ARM.Collect$$libshutdown$$00000010)
    .ARM.Collect$$rtentry$$00000000          0x1a0001a4   Section        0  __rtentry.o(.ARM.Collect$$rtentry$$00000000)
    .ARM.Collect$$rtentry$$00000002          0x1a0001a4   Section        0  __rtentry2.o(.ARM.Collect$$rtentry$$00000002)
    .ARM.Collect$$rtentry$$00000004          0x1a0001a4   Section        6  __rtentry4.o(.ARM.Collect$$rtentry$$00000004)
    .ARM.Collect$$rtentry$$00000009          0x1a0001aa   Section        0  __rtentry2.o(.ARM.Collect$$rtentry$$00000009)
    .ARM.Collect$$rtentry$$0000000A          0x1a0001aa   Section        4  __rtentry2.o(.ARM.Collect$$rtentry$$0000000A)
    .ARM.Collect$$rtentry$$0000000C          0x1a0001ae   Section        0  __rtentry2.o(.ARM.Collect$$rtentry$$0000000C)
    .ARM.Collect$$rtentry$$0000000D          0x1a0001ae   Section        8  __rtentry2.o(.ARM.Collect$$rtentry$$0000000D)
    .ARM.Collect$$rtexit$$00000000           0x1a0001b6   Section        2  rtexit.o(.ARM.Collect$$rtexit$$00000000)
    .ARM.Collect$$rtexit$$00000002           0x1a0001b8   Section        0  rtexit2.o(.ARM.Collect$$rtexit$$00000002)
    .ARM.Collect$$rtexit$$00000003           0x1a0001b8   Section        4  rtexit2.o(.ARM.Collect$$rtexit$$00000003)
    .ARM.Collect$$rtexit$$00000004           0x1a0001bc   Section        6  rtexit2.o(.ARM.Collect$$rtexit$$00000004)
    .text                                    0x1a0001c4   Section        0  raw-os.o(.text)
    tick_task_process                        0x1a0006bf   Thumb Code    28  raw-os.o(.text)
    pend_task_wake_up                        0x1a000843   Thumb Code    92  raw-os.o(.text)
    is_list_empty                            0x1a002589   Thumb Code    14  raw-os.o(.text)
    list_insert                              0x1a002597   Thumb Code    14  raw-os.o(.text)
    list_delete                              0x1a0025a5   Thumb Code    12  raw-os.o(.text)
    add_to_priority_list                     0x1a0025b1   Thumb Code    28  raw-os.o(.text)
    bit_set                                  0x1a0025cd   Thumb Code    20  raw-os.o(.text)
    release_mutex                            0x1a0025e1   Thumb Code    28  raw-os.o(.text)
    timer_list_remove                        0x1a0025fd   Thumb Code    22  raw-os.o(.text)
    timer_list_priority_insert               0x1a002613   Thumb Code    32  raw-os.o(.text)
    raw_byte_pool_search                     0x1a002633   Thumb Code   188  raw-os.o(.text)
    .text                                    0x1a002700   Section        0  fifo.o(.text)
    internal_fifo_out_peek                   0x1a0027a1   Thumb Code    62  fifo.o(.text)
    .text                                    0x1a002874   Section        0  raw_malloc.o(.text)
    chkalloc_test                            0x1a002875   Thumb Code   210  raw_malloc.o(.text)
    removeFreeQue                            0x1a0029cb   Thumb Code    68  raw_malloc.o(.text)
    allocate                                 0x1a002a0f   Thumb Code    58  raw_malloc.o(.text)
    _mem_malloc                              0x1a002a49   Thumb Code   172  raw_malloc.o(.text)
    _mem_free                                0x1a002af5   Thumb Code   134  raw_malloc.o(.text)
    list_insert                              0x1a002c87   Thumb Code   194  raw_malloc.o(.text)
    insertAreaQue                            0x1a002d49   Thumb Code    22  raw_malloc.o(.text)
    removeAreaQue                            0x1a002d5f   Thumb Code    24  raw_malloc.o(.text)
    _mem_realloc                             0x1a002d77   Thumb Code   174  raw_malloc.o(.text)
    .text                                    0x1a002e28   Section        0  raw_page.o(.text)
    remove_free_page                         0x1a002e29   Thumb Code    52  raw_page.o(.text)
    search_free_page                         0x1a002e5d   Thumb Code    50  raw_page.o(.text)
    add_page_to_pool                         0x1a002e8f   Thumb Code   168  raw_page.o(.text)
    set_page_attr                            0x1a00302f   Thumb Code    20  raw_page.o(.text)
    get_pages                                0x1a003043   Thumb Code    90  raw_page.o(.text)
    free_pages                               0x1a00309d   Thumb Code   178  raw_page.o(.text)
    set_page_used                            0x1a00314f   Thumb Code   142  raw_page.o(.text)
    .text                                    0x1a0031fc   Section      164  cpu.o(.text)
    $v0                                      0x1a0031fc   Number         0  cpu.o(.text)
    .text                                    0x1a0032a0   Section        0  port.o(.text)
    .text                                    0x1a0033e6   Section        0  port_hook.o(.text)
    .text                                    0x1a0033f8   Section        0  user_extension.o(.text)
    .text                                    0x1a003480   Section        0  port_error_process.o(.text)
    .text                                    0x1a0034d4   Section       68  keil_startup_lpc18xx43xx.o(.text)
    $v0                                      0x1a0034d4   Number         0  keil_startup_lpc18xx43xx.o(.text)
    .text                                    0x1a003518   Section        0  sysinit.o(.text)
    .text                                    0x1a003534   Section        0  lpc43xx_scu.o(.text)
    .text                                    0x1a003548   Section        0  lpc43xx_sdram.o(.text)
    .text                                    0x1a0039a4   Section        0  main.o(.text)
    sdmmc_waitms                             0x1a0039a5   Thumb Code    50  main.o(.text)
    sdmmc_setup_wakeup                       0x1a0039d7   Thumb Code    30  main.o(.text)
    sdmmc_irq_driven_wait                    0x1a0039f5   Thumb Code    22  main.o(.text)
    NVIC_EnableIRQ                           0x1a003d11   Thumb Code    22  main.o(.text)
    NVIC_DisableIRQ                          0x1a003d27   Thumb Code    22  main.o(.text)
    NVIC_SetPriority                         0x1a003d3d   Thumb Code    32  main.o(.text)
    .text                                    0x1a003fa4   Section        0  diskio.o(.text)
    .text                                    0x1a003ff0   Section        0  ff.o(.text)
    chk_lock                                 0x1a003ff1   Thumb Code    94  ff.o(.text)
    inc_lock                                 0x1a00404f   Thumb Code   136  ff.o(.text)
    dec_lock                                 0x1a0040d7   Thumb Code    42  ff.o(.text)
    sync_window                              0x1a004101   Thumb Code    82  ff.o(.text)
    move_window                              0x1a004153   Thumb Code    50  ff.o(.text)
    sync_fs                                  0x1a004185   Thumb Code   176  ff.o(.text)
    remove_chain                             0x1a004403   Thumb Code    96  ff.o(.text)
    create_chain                             0x1a004463   Thumb Code   156  ff.o(.text)
    clmt_clust                               0x1a0044ff   Thumb Code    36  ff.o(.text)
    dir_sdi                                  0x1a004523   Thumb Code   124  ff.o(.text)
    dir_next                                 0x1a00459f   Thumb Code   228  ff.o(.text)
    dir_alloc                                0x1a004683   Thumb Code    66  ff.o(.text)
    dir_read                                 0x1a0046c5   Thumb Code    92  ff.o(.text)
    dir_register                             0x1a004721   Thumb Code    56  ff.o(.text)
    dir_remove                               0x1a004759   Thumb Code    52  ff.o(.text)
    get_fileinfo                             0x1a00478d   Thumb Code    76  ff.o(.text)
    create_name                              0x1a0047d9   Thumb Code   286  ff.o(.text)
    follow_path                              0x1a0048f7   Thumb Code   170  ff.o(.text)
    get_ldnumber                             0x1a0049a1   Thumb Code    60  ff.o(.text)
    check_fs                                 0x1a0049dd   Thumb Code    86  ff.o(.text)
    find_volume                              0x1a004a33   Thumb Code   594  ff.o(.text)
    validate                                 0x1a004c85   Thumb Code    38  ff.o(.text)
    mem_cpy                                  0x1a00615d   Thumb Code    16  ff.o(.text)
    mem_set                                  0x1a00616d   Thumb Code    14  ff.o(.text)
    chk_chr                                  0x1a00617b   Thumb Code    16  ff.o(.text)
    clear_lock                               0x1a00618b   Thumb Code    30  ff.o(.text)
    ld_clust                                 0x1a0061a9   Thumb Code    18  ff.o(.text)
    st_clust                                 0x1a0061bb   Thumb Code    16  ff.o(.text)
    .text                                    0x1a0061e8   Section      238  lludivv7m.o(.text)
    .text                                    0x1a0062d8   Section        0  noretval__2printf.o(.text)
    .text                                    0x1a0062f0   Section        0  _printf_pad.o(.text)
    .text                                    0x1a006340   Section        0  _printf_dec.o(.text)
    .text                                    0x1a0063b8   Section        0  _printf_hex_int.o(.text)
    .text                                    0x1a006410   Section        0  __printf_flags_wp.o(.text)
    .text                                    0x1a006548   Section        0  heapauxi.o(.text)
    .text                                    0x1a00654e   Section        0  _printf_intcommon.o(.text)
    .text                                    0x1a006600   Section        0  _printf_char_file.o(.text)
    .text                                    0x1a006624   Section        0  _printf_char_common.o(.text)
    _printf_input_char                       0x1a006625   Thumb Code    10  _printf_char_common.o(.text)
    .text                                    0x1a006654   Section       74  sys_stackheap_outer.o(.text)
    .text                                    0x1a00669e   Section        0  exit.o(.text)
    .text                                    0x1a0066b0   Section        8  libspace.o(.text)
    i.Board_SDMMC_Init                       0x1a0066b8   Section        0  board.o(i.Board_SDMMC_Init)
    i.Board_SetupClocking                    0x1a006704   Section        0  board_sysinit.o(i.Board_SetupClocking)
    i.Board_SetupMuxing                      0x1a0067b8   Section        0  board_sysinit.o(i.Board_SetupMuxing)
    i.Board_SystemInit                       0x1a006804   Section        0  board_sysinit.o(i.Board_SystemInit)
    i.Board_UARTPutChar                      0x1a006810   Section        0  board.o(i.Board_UARTPutChar)
    i.Board_UART_Init                        0x1a006830   Section        0  board.o(i.Board_UART_Init)
    i.Chip_Clock_EnableOpts                  0x1a006874   Section        0  clock_18xx_43xx.o(i.Chip_Clock_EnableOpts)
    i.Chip_Clock_FindBaseClock               0x1a0068b0   Section        0  clock_18xx_43xx.o(i.Chip_Clock_FindBaseClock)
    Chip_Clock_FindBaseClock                 0x1a0068b1   Thumb Code    74  clock_18xx_43xx.o(i.Chip_Clock_FindBaseClock)
    i.Chip_Clock_GetBaseClock                0x1a006900   Section        0  clock_18xx_43xx.o(i.Chip_Clock_GetBaseClock)
    i.Chip_Clock_GetBaseClocktHz             0x1a006924   Section        0  clock_18xx_43xx.o(i.Chip_Clock_GetBaseClocktHz)
    i.Chip_Clock_GetClockInputHz             0x1a006938   Section        0  clock_18xx_43xx.o(i.Chip_Clock_GetClockInputHz)
    i.Chip_Clock_GetDivRate                  0x1a006a0c   Section        0  clock_18xx_43xx.o(i.Chip_Clock_GetDivRate)
    Chip_Clock_GetDivRate                    0x1a006a0d   Thumb Code    40  clock_18xx_43xx.o(i.Chip_Clock_GetDivRate)
    i.Chip_Clock_GetDividerDivisor           0x1a006a34   Section        0  clock_18xx_43xx.o(i.Chip_Clock_GetDividerDivisor)
    i.Chip_Clock_GetDividerSource            0x1a006a54   Section        0  clock_18xx_43xx.o(i.Chip_Clock_GetDividerSource)
    i.Chip_Clock_GetMainPLLHz                0x1a006a74   Section        0  clock_18xx_43xx.o(i.Chip_Clock_GetMainPLLHz)
    i.Chip_Clock_GetRate                     0x1a006aec   Section        0  clock_18xx_43xx.o(i.Chip_Clock_GetRate)
    i.Chip_Clock_SetBaseClock                0x1a006b44   Section        0  clock_18xx_43xx.o(i.Chip_Clock_SetBaseClock)
    i.Chip_Clock_SetDivider                  0x1a006b8c   Section        0  clock_18xx_43xx.o(i.Chip_Clock_SetDivider)
    i.Chip_SCU_PinMuxSet                     0x1a006bdc   Section        0  board.o(i.Chip_SCU_PinMuxSet)
    Chip_SCU_PinMuxSet                       0x1a006bdd   Thumb Code    12  board.o(i.Chip_SCU_PinMuxSet)
    i.Chip_SCU_SetPinMuxing                  0x1a006bec   Section        0  board_sysinit.o(i.Chip_SCU_SetPinMuxing)
    Chip_SCU_SetPinMuxing                    0x1a006bed   Thumb Code    44  board_sysinit.o(i.Chip_SCU_SetPinMuxing)
    i.Chip_SDIF_DmaSetup                     0x1a006c1c   Section        0  sdif_18xx_43xx.o(i.Chip_SDIF_DmaSetup)
    i.Chip_SDIF_GetResponse                  0x1a006c94   Section        0  sdif_18xx_43xx.o(i.Chip_SDIF_GetResponse)
    i.Chip_SDIF_Init                         0x1a006ca8   Section        0  sdif_18xx_43xx.o(i.Chip_SDIF_Init)
    i.Chip_SDIF_SendCmd                      0x1a006cf8   Section        0  sdif_18xx_43xx.o(i.Chip_SDIF_SendCmd)
    i.Chip_SDIF_SetByteCnt                   0x1a006d4a   Section        0  sdmmc_18xx_43xx.o(i.Chip_SDIF_SetByteCnt)
    Chip_SDIF_SetByteCnt                     0x1a006d4b   Thumb Code     4  sdmmc_18xx_43xx.o(i.Chip_SDIF_SetByteCnt)
    i.Chip_SDIF_SetCardType                  0x1a006d4e   Section        0  sdmmc_18xx_43xx.o(i.Chip_SDIF_SetCardType)
    Chip_SDIF_SetCardType                    0x1a006d4f   Thumb Code     4  sdmmc_18xx_43xx.o(i.Chip_SDIF_SetCardType)
    i.Chip_SDIF_SetClearIntFifo              0x1a006d52   Section        0  sdif_18xx_43xx.o(i.Chip_SDIF_SetClearIntFifo)
    i.Chip_SDIF_SetClock                     0x1a006d6c   Section        0  sdif_18xx_43xx.o(i.Chip_SDIF_SetClock)
    i.Chip_SDMMC_Acquire                     0x1a006dbc   Section        0  sdmmc_18xx_43xx.o(i.Chip_SDMMC_Acquire)
    i.Chip_SDMMC_GetDeviceBlocks             0x1a0070b0   Section        0  sdmmc_18xx_43xx.o(i.Chip_SDMMC_GetDeviceBlocks)
    i.Chip_SDMMC_GetState                    0x1a0070c0   Section        0  sdmmc_18xx_43xx.o(i.Chip_SDMMC_GetState)
    i.Chip_SDMMC_ReadBlocks                  0x1a0070fc   Section        0  sdmmc_18xx_43xx.o(i.Chip_SDMMC_ReadBlocks)
    i.Chip_SDMMC_WriteBlocks                 0x1a0071a4   Section        0  sdmmc_18xx_43xx.o(i.Chip_SDMMC_WriteBlocks)
    i.Chip_SetupCoreClock                    0x1a007250   Section        0  sysinit_18xx_43xx.o(i.Chip_SetupCoreClock)
    i.Chip_UART_DisableDivisorAccess         0x1a00725e   Section        0  uart_18xx_43xx.o(i.Chip_UART_DisableDivisorAccess)
    Chip_UART_DisableDivisorAccess           0x1a00725f   Thumb Code    10  uart_18xx_43xx.o(i.Chip_UART_DisableDivisorAccess)
    i.Chip_UART_EnableDivisorAccess          0x1a007268   Section        0  uart_18xx_43xx.o(i.Chip_UART_EnableDivisorAccess)
    Chip_UART_EnableDivisorAccess            0x1a007269   Thumb Code    10  uart_18xx_43xx.o(i.Chip_UART_EnableDivisorAccess)
    i.Chip_UART_GetClockIndex                0x1a007274   Section        0  uart_18xx_43xx.o(i.Chip_UART_GetClockIndex)
    Chip_UART_GetClockIndex                  0x1a007275   Thumb Code    36  uart_18xx_43xx.o(i.Chip_UART_GetClockIndex)
    i.Chip_UART_Init                         0x1a0072a4   Section        0  uart_18xx_43xx.o(i.Chip_UART_Init)
    i.Chip_UART_SetBaud                      0x1a0072f0   Section        0  uart_18xx_43xx.o(i.Chip_UART_SetBaud)
    i.Chip_UART_SetDivisorLatches            0x1a007332   Section        0  uart_18xx_43xx.o(i.Chip_UART_SetDivisorLatches)
    Chip_UART_SetDivisorLatches              0x1a007333   Thumb Code     6  uart_18xx_43xx.o(i.Chip_UART_SetDivisorLatches)
    i.SystemCoreClockUpdate                  0x1a007338   Section        0  chip_18xx_43xx.o(i.SystemCoreClockUpdate)
    i._is_digit                              0x1a00734c   Section        0  __printf_wp.o(i._is_digit)
    i._sys_exit                              0x1a00735a   Section        0  board.o(i._sys_exit)
    i.clock_init_delay                       0x1a007360   Section        0  sysinit_18xx_43xx.o(i.clock_init_delay)
    clock_init_delay                         0x1a007361   Thumb Code    36  sysinit_18xx_43xx.o(i.clock_init_delay)
    i.clock_main_init                        0x1a007384   Section        0  sysinit_18xx_43xx.o(i.clock_main_init)
    clock_main_init                          0x1a007385   Thumb Code   168  sysinit_18xx_43xx.o(i.clock_main_init)
    i.ferror                                 0x1a007440   Section        0  board.o(i.ferror)
    i.fpuInit                                0x1a007448   Section        0  fpu_init.o(i.fpuInit)
    i.fputc                                  0x1a007498   Section        0  board.o(i.fputc)
    i.prv_card_acquired                      0x1a0074ac   Section        0  sdmmc_18xx_43xx.o(i.prv_card_acquired)
    prv_card_acquired                        0x1a0074ad   Thumb Code    18  sdmmc_18xx_43xx.o(i.prv_card_acquired)
    i.prv_get_bits                           0x1a0074c4   Section        0  sdmmc_18xx_43xx.o(i.prv_get_bits)
    prv_get_bits                             0x1a0074c5   Thumb Code    64  sdmmc_18xx_43xx.o(i.prv_get_bits)
    i.prv_process_csd                        0x1a007504   Section        0  sdmmc_18xx_43xx.o(i.prv_process_csd)
    prv_process_csd                          0x1a007505   Thumb Code   392  sdmmc_18xx_43xx.o(i.prv_process_csd)
    i.prv_set_card_params                    0x1a0076a0   Section        0  sdmmc_18xx_43xx.o(i.prv_set_card_params)
    prv_set_card_params                      0x1a0076a1   Thumb Code    82  sdmmc_18xx_43xx.o(i.prv_set_card_params)
    i.prv_set_trans_state                    0x1a007700   Section        0  sdmmc_18xx_43xx.o(i.prv_set_trans_state)
    prv_set_trans_state                      0x1a007701   Thumb Code   108  sdmmc_18xx_43xx.o(i.prv_set_trans_state)
    i.sdmmc_execute_command                  0x1a007774   Section        0  sdmmc_18xx_43xx.o(i.sdmmc_execute_command)
    sdmmc_execute_command                    0x1a007775   Thumb Code   452  sdmmc_18xx_43xx.o(i.sdmmc_execute_command)
    x$fpl$fpinit                             0x1a00793c   Section       10  fpinit.o(x$fpl$fpinit)
    $v0                                      0x1a00793c   Number         0  fpinit.o(x$fpl$fpinit)
    .constdata                               0x1a007946   Section       44  ff.o(.constdata)
    vst                                      0x1a007946   Data          22  ff.o(.constdata)
    cst                                      0x1a00795c   Data          22  ff.o(.constdata)
    .constdata                               0x1a007974   Section       64  board.o(.constdata)
    ledports                                 0x1a007974   Data           8  board.o(.constdata)
    ledbits                                  0x1a00797c   Data           8  board.o(.constdata)
    .constdata                               0x1a0079b4   Section      700  board_sysinit.o(.constdata)
    InitClkStates                            0x1a0079b4   Data          16  board_sysinit.o(.constdata)
    spifipinmuxing                           0x1a0079c4   Data          24  board_sysinit.o(.constdata)
    pinmuxing                                0x1a0079dc   Data         496  board_sysinit.o(.constdata)
    pinclockmuxing                           0x1a007bcc   Data          16  board_sysinit.o(.constdata)
    MT48LC4M32_config                        0x1a007bdc   Data         116  board_sysinit.o(.constdata)
    S29GL64N90_config                        0x1a007c50   Data          32  board_sysinit.o(.constdata)
    .constdata                               0x1a007c70   Section      108  clock_18xx_43xx.o(.constdata)
    periph_to_base                           0x1a007c70   Data         108  clock_18xx_43xx.o(.constdata)
    .constdata                               0x1a007cdc   Section       72  sysinit_18xx_43xx.o(.constdata)
    InitClkStates                            0x1a007cdc   Data          72  sysinit_18xx_43xx.o(.constdata)
    .constdata                               0x1a007d24   Section       40  _printf_hex_int.o(.constdata)
    uc_hextab                                0x1a007d24   Data          20  _printf_hex_int.o(.constdata)
    lc_hextab                                0x1a007d38   Data          20  _printf_hex_int.o(.constdata)
    .constdata                               0x1a007d4c   Section       17  __printf_flags_wp.o(.constdata)
    maptable                                 0x1a007d4c   Data          17  __printf_flags_wp.o(.constdata)

    Global Symbols

    Symbol Name                              Value     Ov Type        Size  Object(Section)

    BuildAttributes$$THM_ISAv4$E$P$D$K$B$S$7EM$VFPi3$EXTD16$VFPS$VFMA$PE$A:L22UL41UL21$X:L11$S22US41US21$IEEE1$IW$USESV6$~STKCKD$USESV7$~SHL$OSPACE$ROPI$EBA8$UX$STANDARDLIB$REQ8$PRES8$EABIv2 0x00000000   Number         0  anon$$obj.o ABSOLUTE
    __ARM_use_no_argv                        0x00000000   Number         0  main.o ABSOLUTE
    _printf_flags                            0x00000000   Number         0  printf_stubs.o ABSOLUTE
    _printf_return_value                     0x00000000   Number         0  printf_stubs.o ABSOLUTE
    _printf_sizespec                         0x00000000   Number         0  printf_stubs.o ABSOLUTE
    _printf_widthprec                        0x00000000   Number         0  printf_stubs.o ABSOLUTE
    __ARM_exceptions_init                     - Undefined Weak Reference
    __alloca_initialize                       - Undefined Weak Reference
    __arm_preinit_                            - Undefined Weak Reference
    __cpp_initialize__aeabi_                  - Undefined Weak Reference
    __cxa_finalize                            - Undefined Weak Reference
    __rt_locale                               - Undefined Weak Reference
    __sigvec_lookup                           - Undefined Weak Reference
    _atexit_init                              - Undefined Weak Reference
    _call_atexit_fns                          - Undefined Weak Reference
    _clock_init                               - Undefined Weak Reference
    _fp_trap_init                             - Undefined Weak Reference
    _fp_trap_shutdown                         - Undefined Weak Reference
    _get_lc_collate                           - Undefined Weak Reference
    _get_lc_ctype                             - Undefined Weak Reference
    _get_lc_monetary                          - Undefined Weak Reference
    _get_lc_numeric                           - Undefined Weak Reference
    _get_lc_time                              - Undefined Weak Reference
    _getenv_init                              - Undefined Weak Reference
    _handle_redirection                       - Undefined Weak Reference
    _init_alloc                               - Undefined Weak Reference
    _init_user_alloc                          - Undefined Weak Reference
    _initio                                   - Undefined Weak Reference
    _printf_truncate_signed                   - Undefined Weak Reference
    _printf_truncate_unsigned                 - Undefined Weak Reference
    _rand_init                                - Undefined Weak Reference
    _signal_finish                            - Undefined Weak Reference
    _signal_init                              - Undefined Weak Reference
    _terminate_alloc                          - Undefined Weak Reference
    _terminate_user_alloc                     - Undefined Weak Reference
    _terminateio                              - Undefined Weak Reference
    raw_os_active                            0x10000000   Data           1  raw-os.o(.data)
    idle_task_exit                           0x10000001   Data           1  raw-os.o(.data)
    raw_sched_lock                           0x10000002   Data           1  raw-os.o(.data)
    raw_int_nesting                          0x10000003   Data           1  raw-os.o(.data)
    high_ready_obj                           0x10000004   Data           4  raw-os.o(.data)
    raw_task_active                          0x10000008   Data           4  raw-os.o(.data)
    raw_tick_count                           0x1000000c   Data           4  raw-os.o(.data)
    raw_timer_count                          0x10000010   Data           4  raw-os.o(.data)
    raw_timer_ctrl                           0x10000014   Data           4  raw-os.o(.data)
    raw_idle_count                           0x10000018   Data           8  raw-os.o(.data)
    tick_head                                0x10000020   Data           8  raw-os.o(.data)
    timer_head                               0x10000028   Data           8  raw-os.o(.data)
    raw_task_debug                           0x10000030   Data           8  raw-os.o(.data)
    sys_time_tick                            0x10000038   Data           8  raw-os.o(.data)
    _mem_minfragment                         0x10000040   Data           4  raw_malloc.o(.data)
    __stdout                                 0x10000058   Data           4  board.o(.data)
    __stdin                                  0x1000005c   Data           4  board.o(.data)
    __stderr                                 0x10000060   Data           4  board.o(.data)
    g_isPenDn                                0x10000064   Data           4  board.o(.data)
    g_isNewPenDn                             0x10000068   Data           4  board.o(.data)
    SystemCoreClock                          0x1000006c   Data           4  chip_18xx_43xx.o(.data)
    raw_ready_queue                          0x1000007c   Data         508  raw-os.o(.bss)
    raw_idle_obj                             0x10000278   Data         112  raw-os.o(.bss)
    idle_stack                               0x100002e8   Data        1024  raw-os.o(.bss)
    raw_timer_obj                            0x100006e8   Data         112  raw-os.o(.bss)
    timer_task_stack                         0x10000758   Data        1024  raw-os.o(.bss)
    timer_sem                                0x10000b58   Data          28  raw-os.o(.bss)
    timer_mutex                              0x10000b74   Data          32  raw-os.o(.bss)
    tick_task_obj                            0x10000b94   Data         112  raw-os.o(.bss)
    tick_task_stack                          0x10000c04   Data        1024  raw-os.o(.bss)
    tick_semaphore_obj                       0x10001004   Data          28  raw-os.o(.bss)
    shell_task_stack                         0x10001098   Data        2048  main.o(.bss)
    shell_task_obj                           0x10001898   Data         112  main.o(.bss)
    uart_sema                                0x10001908   Data          28  main.o(.bss)
    uart_fifo                                0x10001924   Data          24  main.o(.bss)
    sdcardinfo                               0x1000193c   Data         872  main.o(.bss)
    fs                                       0x10001d24   Data         560  main.o(.bss)
    __libspace_start                         0x10001f60   Data          96  libspace.o(.bss)
    __temporary_stack_top$libspace           0x10001fc0   Data           0  libspace.o(.bss)
    __Vectors                                0x1a000000   Data           4  keil_startup_lpc18xx43xx.o(RESET)
    __main                                   0x1a000115   Thumb Code     8  __main.o(!!!main)
    __scatterload                            0x1a00011d   Thumb Code     0  __scatter.o(!!!scatter)
    __scatterload_rt2                        0x1a00011d   Thumb Code    44  __scatter.o(!!!scatter)
    __scatterload_rt2_thumb_only             0x1a00011d   Thumb Code     0  __scatter.o(!!!scatter)
    __scatterload_null                       0x1a00012b   Thumb Code     0  __scatter.o(!!!scatter)
    __scatterload_copy                       0x1a000151   Thumb Code    26  __scatter_copy.o(!!handler_copy)
    __scatterload_zeroinit                   0x1a00016d   Thumb Code    28  __scatter_zi.o(!!handler_zi)
    _printf_d                                0x1a000189   Thumb Code     0  _printf_d.o(.ARM.Collect$$_printf_percent$$00000009)
    _printf_percent                          0x1a000189   Thumb Code     0  _printf_percent.o(.ARM.Collect$$_printf_percent$$00000000)
    _printf_x                                0x1a00018f   Thumb Code     0  _printf_x.o(.ARM.Collect$$_printf_percent$$0000000C)
    _printf_percent_end                      0x1a000195   Thumb Code     0  _printf_percent_end.o(.ARM.Collect$$_printf_percent$$00000017)
    __rt_lib_init                            0x1a000199   Thumb Code     0  libinit.o(.ARM.Collect$$libinit$$00000000)
    __rt_lib_init_fp_1                       0x1a00019b   Thumb Code     0  libinit2.o(.ARM.Collect$$libinit$$00000001)
    __rt_lib_init_alloca_1                   0x1a00019f   Thumb Code     0  libinit2.o(.ARM.Collect$$libinit$$0000002E)
    __rt_lib_init_argv_1                     0x1a00019f   Thumb Code     0  libinit2.o(.ARM.Collect$$libinit$$0000002C)
    __rt_lib_init_atexit_1                   0x1a00019f   Thumb Code     0  libinit2.o(.ARM.Collect$$libinit$$0000001B)
    __rt_lib_init_clock_1                    0x1a00019f   Thumb Code     0  libinit2.o(.ARM.Collect$$libinit$$00000021)
    __rt_lib_init_cpp_1                      0x1a00019f   Thumb Code     0  libinit2.o(.ARM.Collect$$libinit$$00000032)
    __rt_lib_init_exceptions_1               0x1a00019f   Thumb Code     0  libinit2.o(.ARM.Collect$$libinit$$00000030)
    __rt_lib_init_fp_trap_1                  0x1a00019f   Thumb Code     0  libinit2.o(.ARM.Collect$$libinit$$0000001F)
    __rt_lib_init_getenv_1                   0x1a00019f   Thumb Code     0  libinit2.o(.ARM.Collect$$libinit$$00000023)
    __rt_lib_init_heap_1                     0x1a00019f   Thumb Code     0  libinit2.o(.ARM.Collect$$libinit$$0000000A)
    __rt_lib_init_lc_collate_1               0x1a00019f   Thumb Code     0  libinit2.o(.ARM.Collect$$libinit$$00000011)
    __rt_lib_init_lc_ctype_1                 0x1a00019f   Thumb Code     0  libinit2.o(.ARM.Collect$$libinit$$00000013)
    __rt_lib_init_lc_monetary_1              0x1a00019f   Thumb Code     0  libinit2.o(.ARM.Collect$$libinit$$00000015)
    __rt_lib_init_lc_numeric_1               0x1a00019f   Thumb Code     0  libinit2.o(.ARM.Collect$$libinit$$00000017)
    __rt_lib_init_lc_time_1                  0x1a00019f   Thumb Code     0  libinit2.o(.ARM.Collect$$libinit$$00000019)
    __rt_lib_init_preinit_1                  0x1a00019f   Thumb Code     0  libinit2.o(.ARM.Collect$$libinit$$00000004)
    __rt_lib_init_rand_1                     0x1a00019f   Thumb Code     0  libinit2.o(.ARM.Collect$$libinit$$0000000E)
    __rt_lib_init_return                     0x1a00019f   Thumb Code     0  libinit2.o(.ARM.Collect$$libinit$$00000033)
    __rt_lib_init_signal_1                   0x1a00019f   Thumb Code     0  libinit2.o(.ARM.Collect$$libinit$$0000001D)
    __rt_lib_init_stdio_1                    0x1a00019f   Thumb Code     0  libinit2.o(.ARM.Collect$$libinit$$00000025)
    __rt_lib_init_user_alloc_1               0x1a00019f   Thumb Code     0  libinit2.o(.ARM.Collect$$libinit$$0000000C)
    __rt_lib_shutdown                        0x1a0001a1   Thumb Code     0  libshutdown.o(.ARM.Collect$$libshutdown$$00000000)
    __rt_lib_shutdown_cpp_1                  0x1a0001a3   Thumb Code     0  libshutdown2.o(.ARM.Collect$$libshutdown$$00000002)
    __rt_lib_shutdown_fp_trap_1              0x1a0001a3   Thumb Code     0  libshutdown2.o(.ARM.Collect$$libshutdown$$00000007)
    __rt_lib_shutdown_heap_1                 0x1a0001a3   Thumb Code     0  libshutdown2.o(.ARM.Collect$$libshutdown$$0000000F)
    __rt_lib_shutdown_return                 0x1a0001a3   Thumb Code     0  libshutdown2.o(.ARM.Collect$$libshutdown$$00000010)
    __rt_lib_shutdown_signal_1               0x1a0001a3   Thumb Code     0  libshutdown2.o(.ARM.Collect$$libshutdown$$0000000A)
    __rt_lib_shutdown_stdio_1                0x1a0001a3   Thumb Code     0  libshutdown2.o(.ARM.Collect$$libshutdown$$00000004)
    __rt_lib_shutdown_user_alloc_1           0x1a0001a3   Thumb Code     0  libshutdown2.o(.ARM.Collect$$libshutdown$$0000000C)
    __rt_entry                               0x1a0001a5   Thumb Code     0  __rtentry.o(.ARM.Collect$$rtentry$$00000000)
    __rt_entry_presh_1                       0x1a0001a5   Thumb Code     0  __rtentry2.o(.ARM.Collect$$rtentry$$00000002)
    __rt_entry_sh                            0x1a0001a5   Thumb Code     0  __rtentry4.o(.ARM.Collect$$rtentry$$00000004)
    __rt_entry_li                            0x1a0001ab   Thumb Code     0  __rtentry2.o(.ARM.Collect$$rtentry$$0000000A)
    __rt_entry_postsh_1                      0x1a0001ab   Thumb Code     0  __rtentry2.o(.ARM.Collect$$rtentry$$00000009)
    __rt_entry_main                          0x1a0001af   Thumb Code     0  __rtentry2.o(.ARM.Collect$$rtentry$$0000000D)
    __rt_entry_postli_1                      0x1a0001af   Thumb Code     0  __rtentry2.o(.ARM.Collect$$rtentry$$0000000C)
    __rt_exit                                0x1a0001b7   Thumb Code     0  rtexit.o(.ARM.Collect$$rtexit$$00000000)
    __rt_exit_ls                             0x1a0001b9   Thumb Code     0  rtexit2.o(.ARM.Collect$$rtexit$$00000003)
    __rt_exit_prels_1                        0x1a0001b9   Thumb Code     0  rtexit2.o(.ARM.Collect$$rtexit$$00000002)
    __rt_exit_exit                           0x1a0001bd   Thumb Code     0  rtexit2.o(.ARM.Collect$$rtexit$$00000004)
    get_ready_task                           0x1a0001c5   Thumb Code    16  raw-os.o(.text)
    raw_sched                                0x1a0001d5   Thumb Code    48  raw-os.o(.text)
    raw_semaphore_create                     0x1a000205   Thumb Code    38  raw-os.o(.text)
    raw_task_semaphore_create                0x1a00022b   Thumb Code    16  raw-os.o(.text)
    tick_list_remove                         0x1a00023b   Thumb Code    24  raw-os.o(.text)
    mutex_priority_look                      0x1a000253   Thumb Code    72  raw-os.o(.text)
    change_pend_list_priority                0x1a00029b   Thumb Code    32  raw-os.o(.text)
    add_ready_list_end                       0x1a0002bb   Thumb Code    38  raw-os.o(.text)
    add_ready_list_head                      0x1a0002e1   Thumb Code    38  raw-os.o(.text)
    bit_search_first_one                     0x1a000307   Thumb Code   116  raw-os.o(.text)
    remove_ready_list                        0x1a00037b   Thumb Code    98  raw-os.o(.text)
    change_internal_task_priority            0x1a0003dd   Thumb Code   150  raw-os.o(.text)
    mutex_state_change                       0x1a000473   Thumb Code    34  raw-os.o(.text)
    add_ready_list                           0x1a000495   Thumb Code    16  raw-os.o(.text)
    tick_list_update                         0x1a0004a5   Thumb Code   212  raw-os.o(.text)
    block_state_post_process                 0x1a000579   Thumb Code    72  raw-os.o(.text)
    tick_list_insert                         0x1a0005c1   Thumb Code    56  raw-os.o(.text)
    raw_pend_object                          0x1a0005f9   Thumb Code    68  raw-os.o(.text)
    raw_semaphore_get                        0x1a00063d   Thumb Code   120  raw-os.o(.text)
    raw_task_semaphore_get                   0x1a0006b5   Thumb Code    10  raw-os.o(.text)
    raw_task_create                          0x1a0006db   Thumb Code   256  raw-os.o(.text)
    tick_task_start                          0x1a0007db   Thumb Code    54  raw-os.o(.text)
    raw_mutex_create                         0x1a000811   Thumb Code    50  raw-os.o(.text)
    raw_wake_object                          0x1a00089f   Thumb Code     2  raw-os.o(.text)
    raw_mutex_put                            0x1a0008a1   Thumb Code   162  raw-os.o(.text)
    raw_mutex_get                            0x1a000943   Thumb Code   304  raw-os.o(.text)
    raw_semaphore_set                        0x1a000a73   Thumb Code    78  raw-os.o(.text)
    timer_task                               0x1a000ac1   Thumb Code   166  raw-os.o(.text)
    raw_timer_init                           0x1a000b67   Thumb Code    66  raw-os.o(.text)
    raw_idle_task                            0x1a000ba9   Thumb Code    30  raw-os.o(.text)
    tick_list_init                           0x1a000bc7   Thumb Code    10  raw-os.o(.text)
    run_queue_init                           0x1a000bd1   Thumb Code    26  raw-os.o(.text)
    raw_os_init                              0x1a000beb   Thumb Code    98  raw-os.o(.text)
    raw_os_start                             0x1a000c4d   Thumb Code    36  raw-os.o(.text)
    move_to_ready_list_end                   0x1a000c71   Thumb Code    30  raw-os.o(.text)
    calculate_time_slice                     0x1a000c8f   Thumb Code    76  raw-os.o(.text)
    wake_send_msg                            0x1a000cdb   Thumb Code     4  raw-os.o(.text)
    wake_send_msg_size                       0x1a000cdf   Thumb Code     6  raw-os.o(.text)
    delete_pend_obj                          0x1a000ce5   Thumb Code    94  raw-os.o(.text)
    raw_task_stack_check                     0x1a000d43   Thumb Code    46  raw-os.o(.text)
    raw_disable_sche                         0x1a000d71   Thumb Code    40  raw-os.o(.text)
    raw_enable_sche                          0x1a000d99   Thumb Code    56  raw-os.o(.text)
    raw_sleep                                0x1a000dd1   Thumb Code    96  raw-os.o(.text)
    raw_time_sleep                           0x1a000e31   Thumb Code   160  raw-os.o(.text)
    task_suspend                             0x1a000ed1   Thumb Code   140  raw-os.o(.text)
    raw_task_suspend                         0x1a000f5d   Thumb Code    18  raw-os.o(.text)
    task_resume                              0x1a000f6f   Thumb Code   140  raw-os.o(.text)
    raw_task_resume                          0x1a000ffb   Thumb Code     8  raw-os.o(.text)
    chg_pri_mutex                            0x1a001003   Thumb Code   114  raw-os.o(.text)
    raw_task_priority_change                 0x1a001075   Thumb Code   122  raw-os.o(.text)
    raw_task_free_mutex                      0x1a0010ef   Thumb Code    66  raw-os.o(.text)
    raw_task_delete                          0x1a001131   Thumb Code   166  raw-os.o(.text)
    raw_set_task_user_point                  0x1a0011d7   Thumb Code    26  raw-os.o(.text)
    raw_get_task_user_point                  0x1a0011f1   Thumb Code     8  raw-os.o(.text)
    raw_task_time_slice_change               0x1a0011f9   Thumb Code    48  raw-os.o(.text)
    raw_set_sched_way                        0x1a001229   Thumb Code    48  raw-os.o(.text)
    raw_get_sched_way                        0x1a001259   Thumb Code    40  raw-os.o(.text)
    raw_task_wait_abort                      0x1a001281   Thumb Code   166  raw-os.o(.text)
    raw_task_identify                        0x1a001327   Thumb Code     6  raw-os.o(.text)
    raw_iter_block_task                      0x1a00132d   Thumb Code    68  raw-os.o(.text)
    raw_get_system_global_space              0x1a001371   Thumb Code     6  raw-os.o(.text)
    raw_block_pool_create                    0x1a001377   Thumb Code    98  raw-os.o(.text)
    raw_block_allocate                       0x1a0013d9   Thumb Code    70  raw-os.o(.text)
    raw_block_release                        0x1a00141f   Thumb Code    48  raw-os.o(.text)
    raw_byte_pool_create                     0x1a00144f   Thumb Code    78  raw-os.o(.text)
    raw_byte_allocate                        0x1a00149d   Thumb Code    90  raw-os.o(.text)
    raw_byte_release                         0x1a0014f7   Thumb Code    60  raw-os.o(.text)
    raw_event_create                         0x1a001533   Thumb Code    26  raw-os.o(.text)
    raw_event_get                            0x1a00154d   Thumb Code   196  raw-os.o(.text)
    event_set                                0x1a001611   Thumb Code   128  raw-os.o(.text)
    raw_event_set                            0x1a001691   Thumb Code    18  raw-os.o(.text)
    raw_event_delete                         0x1a0016a3   Thumb Code   100  raw-os.o(.text)
    raw_mutex_delete                         0x1a001707   Thumb Code    80  raw-os.o(.text)
    raw_queue_create                         0x1a001757   Thumb Code    60  raw-os.o(.text)
    raw_queue_full_register                  0x1a001793   Thumb Code    30  raw-os.o(.text)
    msg_post                                 0x1a0017b1   Thumb Code   196  raw-os.o(.text)
    raw_queue_front_post                     0x1a001875   Thumb Code    18  raw-os.o(.text)
    raw_queue_end_post                       0x1a001887   Thumb Code    18  raw-os.o(.text)
    raw_queue_post_notify                    0x1a001899   Thumb Code    18  raw-os.o(.text)
    raw_queue_all_post                       0x1a0018ab   Thumb Code    16  raw-os.o(.text)
    raw_queue_send_notify                    0x1a0018bb   Thumb Code    50  raw-os.o(.text)
    raw_queue_receive                        0x1a0018ed   Thumb Code   182  raw-os.o(.text)
    raw_queue_full_check                     0x1a0019a3   Thumb Code    50  raw-os.o(.text)
    raw_queue_flush                          0x1a0019d5   Thumb Code    56  raw-os.o(.text)
    raw_queue_delete                         0x1a001a0d   Thumb Code    80  raw-os.o(.text)
    raw_queue_get_information                0x1a001a5d   Thumb Code    76  raw-os.o(.text)
    raw_queue_buffer_create                  0x1a001aa9   Thumb Code    76  raw-os.o(.text)
    queue_buffer_post                        0x1a001af5   Thumb Code   194  raw-os.o(.text)
    raw_queue_buffer_end_post                0x1a001bb7   Thumb Code    24  raw-os.o(.text)
    raw_queue_buffer_receive                 0x1a001bcf   Thumb Code   238  raw-os.o(.text)
    raw_queue_buffer_flush                   0x1a001cbd   Thumb Code    56  raw-os.o(.text)
    raw_queue_buffer_delete                  0x1a001cf5   Thumb Code    80  raw-os.o(.text)
    raw_queue_buffer_info_get                0x1a001d45   Thumb Code    52  raw-os.o(.text)
    raw_queue_size_create                    0x1a001d79   Thumb Code    72  raw-os.o(.text)
    raw_queue_size_full_register             0x1a001dc1   Thumb Code    30  raw-os.o(.text)
    msg_size_post                            0x1a001ddf   Thumb Code   196  raw-os.o(.text)
    raw_queue_size_receive                   0x1a001ea3   Thumb Code   234  raw-os.o(.text)
    raw_queue_size_front_post                0x1a001f8d   Thumb Code    26  raw-os.o(.text)
    raw_queue_size_end_post                  0x1a001fa7   Thumb Code    30  raw-os.o(.text)
    raw_queue_size_all_post                  0x1a001fc5   Thumb Code    24  raw-os.o(.text)
    raw_queue_size_full_check                0x1a001fdd   Thumb Code    50  raw-os.o(.text)
    raw_queue_size_flush                     0x1a00200f   Thumb Code    68  raw-os.o(.text)
    raw_queue_size_delete                    0x1a002053   Thumb Code    80  raw-os.o(.text)
    raw_queue_size_get_information           0x1a0020a3   Thumb Code    70  raw-os.o(.text)
    semaphore_put                            0x1a0020e9   Thumb Code   126  raw-os.o(.text)
    raw_semaphore_put                        0x1a002167   Thumb Code    10  raw-os.o(.text)
    raw_semaphore_put_notify                 0x1a002171   Thumb Code    10  raw-os.o(.text)
    raw_semaphore_put_all                    0x1a00217b   Thumb Code    10  raw-os.o(.text)
    raw_semphore_send_notify                 0x1a002185   Thumb Code    50  raw-os.o(.text)
    raw_semaphore_delete                     0x1a0021b7   Thumb Code    80  raw-os.o(.text)
    raw_stack_check                          0x1a002207   Thumb Code    64  raw-os.o(.text)
    raw_finish_int                           0x1a002247   Thumb Code    80  raw-os.o(.text)
    call_timer_task                          0x1a002297   Thumb Code    20  raw-os.o(.text)
    raw_task_semaphore_put                   0x1a0022ab   Thumb Code     4  raw-os.o(.text)
    raw_time_tick                            0x1a0022af   Thumb Code    46  raw-os.o(.text)
    raw_enter_interrupt                      0x1a0022dd   Thumb Code    54  raw-os.o(.text)
    raw_system_time_get                      0x1a002313   Thumb Code    36  raw-os.o(.text)
    raw_os_version_get                       0x1a002337   Thumb Code     6  raw-os.o(.text)
    raw_task_qsize_create                    0x1a00233d   Thumb Code    20  raw-os.o(.text)
    raw_task_qsize_receive                   0x1a002351   Thumb Code    20  raw-os.o(.text)
    raw_task_qsize_front_post                0x1a002365   Thumb Code     4  raw-os.o(.text)
    raw_task_qsize_end_post                  0x1a002369   Thumb Code     4  raw-os.o(.text)
    raw_task_qsize_flush                     0x1a00236d   Thumb Code     4  raw-os.o(.text)
    raw_task_qsize_delete                    0x1a002371   Thumb Code     4  raw-os.o(.text)
    raw_task_qsize_get_information           0x1a002375   Thumb Code     4  raw-os.o(.text)
    raw_task_semaphore_set                   0x1a002379   Thumb Code     6  raw-os.o(.text)
    raw_task_semaphore_delete                0x1a00237f   Thumb Code     4  raw-os.o(.text)
    raw_timer_activate                       0x1a002383   Thumb Code   138  raw-os.o(.text)
    raw_timer_create                         0x1a00240d   Thumb Code    88  raw-os.o(.text)
    raw_timer_change                         0x1a002465   Thumb Code    92  raw-os.o(.text)
    raw_timer_deactivate                     0x1a0024c1   Thumb Code   100  raw-os.o(.text)
    raw_timer_delete                         0x1a002525   Thumb Code   100  raw-os.o(.text)
    fifo_init                                0x1a002701   Thumb Code    68  fifo.o(.text)
    fifo_in                                  0x1a002745   Thumb Code    92  fifo.o(.text)
    fifo_out_peek                            0x1a0027df   Thumb Code    38  fifo.o(.text)
    fifo_out                                 0x1a002805   Thumb Code    50  fifo.o(.text)
    fifo_out_all                             0x1a002837   Thumb Code    62  fifo.o(.text)
    check_malloc_test                        0x1a002947   Thumb Code     4  raw_malloc.o(.text)
    searchFreeArea                           0x1a00294b   Thumb Code    68  raw_malloc.o(.text)
    appendFreeArea                           0x1a00298f   Thumb Code    60  raw_malloc.o(.text)
    raw_malloc                               0x1a002b7b   Thumb Code    50  raw_malloc.o(.text)
    raw_free                                 0x1a002bad   Thumb Code    46  raw_malloc.o(.text)
    raw_calloc                               0x1a002bdb   Thumb Code    66  raw_malloc.o(.text)
    raw_realloc                              0x1a002c1d   Thumb Code    56  raw_malloc.o(.text)
    raw_malloc_init                          0x1a002c55   Thumb Code    50  raw_malloc.o(.text)
    system_page_table_get                    0x1a002f37   Thumb Code     4  raw_page.o(.text)
    raw_page_allocate                        0x1a002f3b   Thumb Code    50  raw_page.o(.text)
    raw_page_free                            0x1a002f6d   Thumb Code    88  raw_page.o(.text)
    raw_page_init                            0x1a002fc5   Thumb Code   106  raw_page.o(.text)
    OS_CPU_SR_Save                           0x1a0031fd   Thumb Code     0  cpu.o(.text)
    OS_CPU_SR_Restore                        0x1a003205   Thumb Code     0  cpu.o(.text)
    CPU_IntDis                               0x1a00320b   Thumb Code     0  cpu.o(.text)
    CPU_IntEn                                0x1a00320f   Thumb Code     0  cpu.o(.text)
    raw_start_first_task                     0x1a003213   Thumb Code     0  cpu.o(.text)
    port_task_switch                         0x1a00323b   Thumb Code     0  cpu.o(.text)
    raw_int_switch                           0x1a003245   Thumb Code     0  cpu.o(.text)
    PendSV_Handler                           0x1a00324f   Thumb Code     0  cpu.o(.text)
    port_stack_init                          0x1a0032a1   Thumb Code   324  port.o(.text)
    port_isr_stack_check                     0x1a0033e5   Thumb Code     2  port.o(.text)
    raw_os_init_hook                         0x1a0033e7   Thumb Code     2  port_hook.o(.text)
    raw_task_delete_hook                     0x1a0033e9   Thumb Code     2  port_hook.o(.text)
    raw_task_abort_hook                      0x1a0033eb   Thumb Code     2  port_hook.o(.text)
    raw_idle_task_hook                       0x1a0033ed   Thumb Code     2  port_hook.o(.text)
    raw_task_switch_hook                     0x1a0033ef   Thumb Code     2  port_hook.o(.text)
    raw_tick_hook                            0x1a0033f1   Thumb Code     2  port_hook.o(.text)
    task_create_hook                         0x1a0033f3   Thumb Code     2  port_hook.o(.text)
    raw_idle_coroutine_hook                  0x1a0033f5   Thumb Code     4  port_hook.o(.text)
    raw_memcpy                               0x1a0033f9   Thumb Code    74  user_extension.o(.text)
    raw_memset                               0x1a003443   Thumb Code    62  user_extension.o(.text)
    port_system_error_process                0x1a003481   Thumb Code    84  port_error_process.o(.text)
    Reset_Handler                            0x1a0034d5   Thumb Code     8  keil_startup_lpc18xx43xx.o(.text)
    NMI_Handler                              0x1a0034dd   Thumb Code     2  keil_startup_lpc18xx43xx.o(.text)
    HardFault_Handler                        0x1a0034df   Thumb Code     2  keil_startup_lpc18xx43xx.o(.text)
    MemManage_Handler                        0x1a0034e1   Thumb Code     2  keil_startup_lpc18xx43xx.o(.text)
    BusFault_Handler                         0x1a0034e3   Thumb Code     2  keil_startup_lpc18xx43xx.o(.text)
    UsageFault_Handler                       0x1a0034e5   Thumb Code     2  keil_startup_lpc18xx43xx.o(.text)
    SVC_Handler                              0x1a0034e7   Thumb Code     2  keil_startup_lpc18xx43xx.o(.text)
    DebugMon_Handler                         0x1a0034e9   Thumb Code     2  keil_startup_lpc18xx43xx.o(.text)
    UnHandled_Vector                         0x1a0034ef   Thumb Code     2  keil_startup_lpc18xx43xx.o(.text)
    ADC0_IRQHandler                          0x1a0034f1   Thumb Code     0  keil_startup_lpc18xx43xx.o(.text)
    ADC1_IRQHandler                          0x1a0034f1   Thumb Code     0  keil_startup_lpc18xx43xx.o(.text)
    ADCHS_IRQHandler                         0x1a0034f1   Thumb Code     0  keil_startup_lpc18xx43xx.o(.text)
    ATIMER_IRQHandler                        0x1a0034f1   Thumb Code     0  keil_startup_lpc18xx43xx.o(.text)
    CAN0_IRQHandler                          0x1a0034f1   Thumb Code     0  keil_startup_lpc18xx43xx.o(.text)
    CAN1_IRQHandler                          0x1a0034f1   Thumb Code     0  keil_startup_lpc18xx43xx.o(.text)
    DAC_IRQHandler                           0x1a0034f1   Thumb Code     0  keil_startup_lpc18xx43xx.o(.text)
    DMA_IRQHandler                           0x1a0034f1   Thumb Code     0  keil_startup_lpc18xx43xx.o(.text)
    ETH_IRQHandler                           0x1a0034f1   Thumb Code     0  keil_startup_lpc18xx43xx.o(.text)
    EVRT_IRQHandler                          0x1a0034f1   Thumb Code     0  keil_startup_lpc18xx43xx.o(.text)
    FLASHEEPROM_IRQHandler                   0x1a0034f1   Thumb Code     0  keil_startup_lpc18xx43xx.o(.text)
    GINT0_IRQHandler                         0x1a0034f1   Thumb Code     0  keil_startup_lpc18xx43xx.o(.text)
    GINT1_IRQHandler                         0x1a0034f1   Thumb Code     0  keil_startup_lpc18xx43xx.o(.text)
    GPIO0_IRQHandler                         0x1a0034f1   Thumb Code     0  keil_startup_lpc18xx43xx.o(.text)
    GPIO1_IRQHandler                         0x1a0034f1   Thumb Code     0  keil_startup_lpc18xx43xx.o(.text)
    GPIO2_IRQHandler                         0x1a0034f1   Thumb Code     0  keil_startup_lpc18xx43xx.o(.text)
    GPIO3_IRQHandler                         0x1a0034f1   Thumb Code     0  keil_startup_lpc18xx43xx.o(.text)
    GPIO4_IRQHandler                         0x1a0034f1   Thumb Code     0  keil_startup_lpc18xx43xx.o(.text)
    GPIO5_IRQHandler                         0x1a0034f1   Thumb Code     0  keil_startup_lpc18xx43xx.o(.text)
    GPIO6_IRQHandler                         0x1a0034f1   Thumb Code     0  keil_startup_lpc18xx43xx.o(.text)
    GPIO7_IRQHandler                         0x1a0034f1   Thumb Code     0  keil_startup_lpc18xx43xx.o(.text)
    I2C0_IRQHandler                          0x1a0034f1   Thumb Code     0  keil_startup_lpc18xx43xx.o(.text)
    I2C1_IRQHandler                          0x1a0034f1   Thumb Code     0  keil_startup_lpc18xx43xx.o(.text)
    I2S0_IRQHandler                          0x1a0034f1   Thumb Code     0  keil_startup_lpc18xx43xx.o(.text)
    I2S1_IRQHandler                          0x1a0034f1   Thumb Code     0  keil_startup_lpc18xx43xx.o(.text)
    LCD_IRQHandler                           0x1a0034f1   Thumb Code     0  keil_startup_lpc18xx43xx.o(.text)
    MCPWM_IRQHandler                         0x1a0034f1   Thumb Code     0  keil_startup_lpc18xx43xx.o(.text)
    MX_CORE_IRQHandler                       0x1a0034f1   Thumb Code     0  keil_startup_lpc18xx43xx.o(.text)
    QEI_IRQHandler                           0x1a0034f1   Thumb Code     0  keil_startup_lpc18xx43xx.o(.text)
    RIT_IRQHandler                           0x1a0034f1   Thumb Code     0  keil_startup_lpc18xx43xx.o(.text)
    RTC_IRQHandler                           0x1a0034f1   Thumb Code     0  keil_startup_lpc18xx43xx.o(.text)
    SCT_IRQHandler                           0x1a0034f1   Thumb Code     0  keil_startup_lpc18xx43xx.o(.text)
    SGPIO_IRQHandler                         0x1a0034f1   Thumb Code     0  keil_startup_lpc18xx43xx.o(.text)
    SPIFI_IRQHandler                         0x1a0034f1   Thumb Code     0  keil_startup_lpc18xx43xx.o(.text)
    SPI_IRQHandler                           0x1a0034f1   Thumb Code     0  keil_startup_lpc18xx43xx.o(.text)
    SSP0_IRQHandler                          0x1a0034f1   Thumb Code     0  keil_startup_lpc18xx43xx.o(.text)
    SSP1_IRQHandler                          0x1a0034f1   Thumb Code     0  keil_startup_lpc18xx43xx.o(.text)
    TIMER0_IRQHandler                        0x1a0034f1   Thumb Code     0  keil_startup_lpc18xx43xx.o(.text)
    TIMER1_IRQHandler                        0x1a0034f1   Thumb Code     0  keil_startup_lpc18xx43xx.o(.text)
    TIMER2_IRQHandler                        0x1a0034f1   Thumb Code     0  keil_startup_lpc18xx43xx.o(.text)
    TIMER3_IRQHandler                        0x1a0034f1   Thumb Code     0  keil_startup_lpc18xx43xx.o(.text)
    UART0_IRQHandler                         0x1a0034f1   Thumb Code     0  keil_startup_lpc18xx43xx.o(.text)
    UART1_IRQHandler                         0x1a0034f1   Thumb Code     0  keil_startup_lpc18xx43xx.o(.text)
    UART2_IRQHandler                         0x1a0034f1   Thumb Code     0  keil_startup_lpc18xx43xx.o(.text)
    USB0_IRQHandler                          0x1a0034f1   Thumb Code     0  keil_startup_lpc18xx43xx.o(.text)
    USB1_IRQHandler                          0x1a0034f1   Thumb Code     0  keil_startup_lpc18xx43xx.o(.text)
    WDT_IRQHandler                           0x1a0034f1   Thumb Code     0  keil_startup_lpc18xx43xx.o(.text)
    __user_initial_stackheap                 0x1a0034f5   Thumb Code     0  keil_startup_lpc18xx43xx.o(.text)
    SystemInit                               0x1a003519   Thumb Code    20  sysinit.o(.text)
    scu_pinmux                               0x1a003535   Thumb Code    16  lpc43xx_scu.o(.text)
    emc_init                                 0x1a003549   Thumb Code   944  lpc43xx_sdram.o(.text)
    sdram_init                               0x1a0038f9   Thumb Code   144  lpc43xx_sdram.o(.text)
    SysTick_Handler                          0x1a003a0b   Thumb Code    18  main.o(.text)
    OS_CPU_SysTickInit                       0x1a003a1d   Thumb Code    48  main.o(.text)
    uart_3_recv                              0x1a003a4d   Thumb Code    76  main.o(.text)
    UART3_IRQHandler                         0x1a003a99   Thumb Code    56  main.o(.text)
    shell_task                               0x1a003ad1   Thumb Code   506  main.o(.text)
    SDIO_IRQHandler                          0x1a003ccb   Thumb Code    16  main.o(.text)
    main                                     0x1a003cdb   Thumb Code    54  main.o(.text)
    disk_initialize                          0x1a003fa5   Thumb Code     4  diskio.o(.text)
    disk_status                              0x1a003fa9   Thumb Code     4  diskio.o(.text)
    disk_read                                0x1a003fad   Thumb Code    14  diskio.o(.text)
    disk_write                               0x1a003fbb   Thumb Code    14  diskio.o(.text)
    disk_ioctl                               0x1a003fc9   Thumb Code    36  diskio.o(.text)
    get_fattime                              0x1a003fed   Thumb Code     4  diskio.o(.text)
    clust2sect                               0x1a004235   Thumb Code    24  ff.o(.text)
    get_fat                                  0x1a00424d   Thumb Code   188  ff.o(.text)
    put_fat                                  0x1a004309   Thumb Code   250  ff.o(.text)
    f_mount                                  0x1a004cab   Thumb Code    82  ff.o(.text)
    f_open                                   0x1a004cfd   Thumb Code   384  ff.o(.text)
    f_read                                   0x1a004e7d   Thumb Code   328  ff.o(.text)
    f_write                                  0x1a004fc5   Thumb Code   390  ff.o(.text)
    f_sync                                   0x1a00514b   Thumb Code   152  ff.o(.text)
    f_close                                  0x1a0051e3   Thumb Code    38  ff.o(.text)
    f_lseek                                  0x1a005209   Thumb Code   510  ff.o(.text)
    f_opendir                                0x1a005407   Thumb Code   132  ff.o(.text)
    f_closedir                               0x1a00548b   Thumb Code    32  ff.o(.text)
    f_readdir                                0x1a0054ab   Thumb Code    78  ff.o(.text)
    f_stat                                   0x1a0054f9   Thumb Code    60  ff.o(.text)
    f_getfree                                0x1a005535   Thumb Code   192  ff.o(.text)
    f_truncate                               0x1a0055f5   Thumb Code   176  ff.o(.text)
    f_unlink                                 0x1a0056a5   Thumb Code   160  ff.o(.text)
    f_mkdir                                  0x1a005745   Thumb Code   356  ff.o(.text)
    f_chmod                                  0x1a0058a9   Thumb Code    76  ff.o(.text)
    f_rename                                 0x1a0058f5   Thumb Code   252  ff.o(.text)
    f_utime                                  0x1a0059f1   Thumb Code    80  ff.o(.text)
    f_getlabel                               0x1a005a41   Thumb Code   142  ff.o(.text)
    f_setlabel                               0x1a005acf   Thumb Code   358  ff.o(.text)
    f_mkfs                                   0x1a005c35   Thumb Code  1320  ff.o(.text)
    __aeabi_uldivmod                         0x1a0061e9   Thumb Code     0  lludivv7m.o(.text)
    _ll_udiv                                 0x1a0061e9   Thumb Code   238  lludivv7m.o(.text)
    __2printf                                0x1a0062d9   Thumb Code    20  noretval__2printf.o(.text)
    _printf_pre_padding                      0x1a0062f1   Thumb Code    44  _printf_pad.o(.text)
    _printf_post_padding                     0x1a00631d   Thumb Code    34  _printf_pad.o(.text)
    _printf_int_dec                          0x1a006341   Thumb Code   104  _printf_dec.o(.text)
    _printf_int_hex                          0x1a0063b9   Thumb Code    84  _printf_hex_int.o(.text)
    _printf_longlong_hex                     0x1a0063b9   Thumb Code     0  _printf_hex_int.o(.text)
    __printf                                 0x1a006411   Thumb Code   308  __printf_flags_wp.o(.text)
    __use_two_region_memory                  0x1a006549   Thumb Code     2  heapauxi.o(.text)
    __rt_heap_escrow$2region                 0x1a00654b   Thumb Code     2  heapauxi.o(.text)
    __rt_heap_expand$2region                 0x1a00654d   Thumb Code     2  heapauxi.o(.text)
    _printf_int_common                       0x1a00654f   Thumb Code   178  _printf_intcommon.o(.text)
    _printf_char_file                        0x1a006601   Thumb Code    32  _printf_char_file.o(.text)
    _printf_char_common                      0x1a00662f   Thumb Code    32  _printf_char_common.o(.text)
    __user_setup_stackheap                   0x1a006655   Thumb Code    74  sys_stackheap_outer.o(.text)
    exit                                     0x1a00669f   Thumb Code    18  exit.o(.text)
    __user_libspace                          0x1a0066b1   Thumb Code     8  libspace.o(.text)
    __user_perproc_libspace                  0x1a0066b1   Thumb Code     0  libspace.o(.text)
    __user_perthread_libspace                0x1a0066b1   Thumb Code     0  libspace.o(.text)
    Board_SDMMC_Init                         0x1a0066b9   Thumb Code    74  board.o(i.Board_SDMMC_Init)
    Board_SetupClocking                      0x1a006705   Thumb Code   158  board_sysinit.o(i.Board_SetupClocking)
    Board_SetupMuxing                        0x1a0067b9   Thumb Code    58  board_sysinit.o(i.Board_SetupMuxing)
    Board_SystemInit                         0x1a006805   Thumb Code    12  board_sysinit.o(i.Board_SystemInit)
    Board_UARTPutChar                        0x1a006811   Thumb Code    26  board.o(i.Board_UARTPutChar)
    Board_UART_Init                          0x1a006831   Thumb Code    60  board.o(i.Board_UART_Init)
    Chip_Clock_EnableOpts                    0x1a006875   Thumb Code    52  clock_18xx_43xx.o(i.Chip_Clock_EnableOpts)
    Chip_Clock_GetBaseClock                  0x1a006901   Thumb Code    32  clock_18xx_43xx.o(i.Chip_Clock_GetBaseClock)
    Chip_Clock_GetBaseClocktHz               0x1a006925   Thumb Code    18  clock_18xx_43xx.o(i.Chip_Clock_GetBaseClocktHz)
    Chip_Clock_GetClockInputHz               0x1a006939   Thumb Code   182  clock_18xx_43xx.o(i.Chip_Clock_GetClockInputHz)
    Chip_Clock_GetDividerDivisor             0x1a006a35   Thumb Code    18  clock_18xx_43xx.o(i.Chip_Clock_GetDividerDivisor)
    Chip_Clock_GetDividerSource              0x1a006a55   Thumb Code    26  clock_18xx_43xx.o(i.Chip_Clock_GetDividerSource)
    Chip_Clock_GetMainPLLHz                  0x1a006a75   Thumb Code   110  clock_18xx_43xx.o(i.Chip_Clock_GetMainPLLHz)
    Chip_Clock_GetRate                       0x1a006aed   Thumb Code    78  clock_18xx_43xx.o(i.Chip_Clock_GetRate)
    Chip_Clock_SetBaseClock                  0x1a006b45   Thumb Code    64  clock_18xx_43xx.o(i.Chip_Clock_SetBaseClock)
    Chip_Clock_SetDivider                    0x1a006b8d   Thumb Code    64  clock_18xx_43xx.o(i.Chip_Clock_SetDivider)
    Chip_SDIF_DmaSetup                       0x1a006c1d   Thumb Code   114  sdif_18xx_43xx.o(i.Chip_SDIF_DmaSetup)
    Chip_SDIF_GetResponse                    0x1a006c95   Thumb Code    18  sdif_18xx_43xx.o(i.Chip_SDIF_GetResponse)
    Chip_SDIF_Init                           0x1a006ca9   Thumb Code    72  sdif_18xx_43xx.o(i.Chip_SDIF_Init)
    Chip_SDIF_SendCmd                        0x1a006cf9   Thumb Code    82  sdif_18xx_43xx.o(i.Chip_SDIF_SendCmd)
    Chip_SDIF_SetClearIntFifo                0x1a006d53   Thumb Code    26  sdif_18xx_43xx.o(i.Chip_SDIF_SetClearIntFifo)
    Chip_SDIF_SetClock                       0x1a006d6d   Thumb Code    74  sdif_18xx_43xx.o(i.Chip_SDIF_SetClock)
    Chip_SDMMC_Acquire                       0x1a006dbd   Thumb Code   720  sdmmc_18xx_43xx.o(i.Chip_SDMMC_Acquire)
    Chip_SDMMC_GetDeviceBlocks               0x1a0070b1   Thumb Code    12  sdmmc_18xx_43xx.o(i.Chip_SDMMC_GetDeviceBlocks)
    Chip_SDMMC_GetState                      0x1a0070c1   Thumb Code    52  sdmmc_18xx_43xx.o(i.Chip_SDMMC_GetState)
    Chip_SDMMC_ReadBlocks                    0x1a0070fd   Thumb Code   154  sdmmc_18xx_43xx.o(i.Chip_SDMMC_ReadBlocks)
    Chip_SDMMC_WriteBlocks                   0x1a0071a5   Thumb Code   160  sdmmc_18xx_43xx.o(i.Chip_SDMMC_WriteBlocks)
    Chip_SetupCoreClock                      0x1a007251   Thumb Code    14  sysinit_18xx_43xx.o(i.Chip_SetupCoreClock)
    Chip_UART_Init                           0x1a0072a5   Thumb Code    72  uart_18xx_43xx.o(i.Chip_UART_Init)
    Chip_UART_SetBaud                        0x1a0072f1   Thumb Code    66  uart_18xx_43xx.o(i.Chip_UART_SetBaud)
    SystemCoreClockUpdate                    0x1a007339   Thumb Code    14  chip_18xx_43xx.o(i.SystemCoreClockUpdate)
    _is_digit                                0x1a00734d   Thumb Code    14  __printf_wp.o(i._is_digit)
    _sys_exit                                0x1a00735b   Thumb Code     6  board.o(i._sys_exit)
    ferror                                   0x1a007441   Thumb Code     8  board.o(i.ferror)
    fpuInit                                  0x1a007449   Thumb Code    62  fpu_init.o(i.fpuInit)
    fputc                                    0x1a007499   Thumb Code    20  board.o(i.fputc)
    _fp_init                                 0x1a00793d   Thumb Code    10  fpinit.o(x$fpl$fpinit)
    __fplib_config_fpu_vfp                   0x1a007945   Thumb Code     0  fpinit.o(x$fpl$fpinit)
    __fplib_config_pureend_doubles           0x1a007945   Thumb Code     0  fpinit.o(x$fpl$fpinit)
    ad_left                                  0x1a007984   Data           4  board.o(.constdata)
    ad_top                                   0x1a007988   Data           4  board.o(.constdata)
    ad_right                                 0x1a00798c   Data           4  board.o(.constdata)
    ad_bottom                                0x1a007990   Data           4  board.o(.constdata)
    MCB4300_LCD                              0x1a007994   Data          22  board.o(.constdata)
    ExtRateIn                                0x1a0079ac   Data           4  board.o(.constdata)
    OscRateIn                                0x1a0079b0   Data           4  board.o(.constdata)
    Region$$Table$$Base                      0x1a007d60   Number         0  anon$$obj.o(Region$$Table)
    Region$$Table$$Limit                     0x1a007d80   Number         0  anon$$obj.o(Region$$Table)



==============================================================================

Memory Map of the image

  Image Entry point : 0x1a000115

  Load Region LR_IROM1 (Base: 0x1a000000, Size: 0x00007dfc, Max: 0x00080000, ABSOLUTE)

    Execution Region RW_IRAM1 (Base: 0x10000000, Size: 0x000026c0, Max: 0x00008000, ABSOLUTE)

    Base Addr    Size         Type   Attr      Idx    E Section Name        Object

    0x10000000   0x00000040   Data   RW            3    .data               raw-os.o
    0x10000040   0x00000004   Data   RW          268    .data               raw_malloc.o
    0x10000044   0x00000008   Data   RW          660    .data               main.o
    0x1000004c   0x0000000c   Data   RW          770    .data               ff.o
    0x10000058   0x00000014   Data   RW          852    .data               lib_lpc_board_keil_mcb_4357.lib(board.o)
    0x1000006c   0x00000004   Data   RW         1384    .data               lib_lpc_chip_43xx.lib(chip_18xx_43xx.o)
    0x10000070   0x00000004   Data   RW         1682    .data               lib_lpc_chip_43xx.lib(sdmmc_18xx_43xx.o)
    0x10000074   0x00000008   Data   RW         2057    .data               lib_lpc_chip_43xx.lib(clock_18xx_43xx.o)
    0x1000007c   0x00000fa4   Zero   RW            2    .bss                raw-os.o
    0x10001020   0x00000048   Zero   RW          267    .bss                raw_malloc.o
    0x10001068   0x00000030   Zero   RW          293    .bss                raw_page.o
    0x10001098   0x00000ebc   Zero   RW          659    .bss                main.o
    0x10001f54   0x0000000c   Zero   RW          768    .bss                ff.o
    0x10001f60   0x00000060   Zero   RW         3004    .bss                c_w.l(libspace.o)
    0x10001fc0   0x00000100   Zero   RW          368    HEAP                keil_startup_lpc18xx43xx.o
    0x100020c0   0x00000600   Zero   RW          367    STACK               keil_startup_lpc18xx43xx.o


    Execution Region ER_IROM1 (Base: 0x1a000000, Size: 0x00007d80, Max: 0x00080000, ABSOLUTE)

    Base Addr    Size         Type   Attr      Idx    E Section Name        Object

    0x1a000000   0x00000114   Data   RO          369    RESET               keil_startup_lpc18xx43xx.o
    0x1a000114   0x00000008   Code   RO         2954  * !!!main             c_w.l(__main.o)
    0x1a00011c   0x00000034   Code   RO         3130    !!!scatter          c_w.l(__scatter.o)
    0x1a000150   0x0000001a   Code   RO         3132    !!handler_copy      c_w.l(__scatter_copy.o)
    0x1a00016a   0x00000002   PAD
    0x1a00016c   0x0000001c   Code   RO         3134    !!handler_zi        c_w.l(__scatter_zi.o)
    0x1a000188   0x00000000   Code   RO         2947    .ARM.Collect$$_printf_percent$$00000000  c_w.l(_printf_percent.o)
    0x1a000188   0x00000006   Code   RO         2946    .ARM.Collect$$_printf_percent$$00000009  c_w.l(_printf_d.o)
    0x1a00018e   0x00000006   Code   RO         2945    .ARM.Collect$$_printf_percent$$0000000C  c_w.l(_printf_x.o)
    0x1a000194   0x00000004   Code   RO         2965    .ARM.Collect$$_printf_percent$$00000017  c_w.l(_printf_percent_end.o)
    0x1a000198   0x00000002   Code   RO         3002    .ARM.Collect$$libinit$$00000000  c_w.l(libinit.o)
    0x1a00019a   0x00000004   Code   RO         3014    .ARM.Collect$$libinit$$00000001  c_w.l(libinit2.o)
    0x1a00019e   0x00000000   Code   RO         3017    .ARM.Collect$$libinit$$00000004  c_w.l(libinit2.o)
    0x1a00019e   0x00000000   Code   RO         3020    .ARM.Collect$$libinit$$0000000A  c_w.l(libinit2.o)
    0x1a00019e   0x00000000   Code   RO         3022    .ARM.Collect$$libinit$$0000000C  c_w.l(libinit2.o)
    0x1a00019e   0x00000000   Code   RO         3024    .ARM.Collect$$libinit$$0000000E  c_w.l(libinit2.o)
    0x1a00019e   0x00000000   Code   RO         3027    .ARM.Collect$$libinit$$00000011  c_w.l(libinit2.o)
    0x1a00019e   0x00000000   Code   RO         3029    .ARM.Collect$$libinit$$00000013  c_w.l(libinit2.o)
    0x1a00019e   0x00000000   Code   RO         3031    .ARM.Collect$$libinit$$00000015  c_w.l(libinit2.o)
    0x1a00019e   0x00000000   Code   RO         3033    .ARM.Collect$$libinit$$00000017  c_w.l(libinit2.o)
    0x1a00019e   0x00000000   Code   RO         3035    .ARM.Collect$$libinit$$00000019  c_w.l(libinit2.o)
    0x1a00019e   0x00000000   Code   RO         3037    .ARM.Collect$$libinit$$0000001B  c_w.l(libinit2.o)
    0x1a00019e   0x00000000   Code   RO         3039    .ARM.Collect$$libinit$$0000001D  c_w.l(libinit2.o)
    0x1a00019e   0x00000000   Code   RO         3041    .ARM.Collect$$libinit$$0000001F  c_w.l(libinit2.o)
    0x1a00019e   0x00000000   Code   RO         3043    .ARM.Collect$$libinit$$00000021  c_w.l(libinit2.o)
    0x1a00019e   0x00000000   Code   RO         3045    .ARM.Collect$$libinit$$00000023  c_w.l(libinit2.o)
    0x1a00019e   0x00000000   Code   RO         3047    .ARM.Collect$$libinit$$00000025  c_w.l(libinit2.o)
    0x1a00019e   0x00000000   Code   RO         3051    .ARM.Collect$$libinit$$0000002C  c_w.l(libinit2.o)
    0x1a00019e   0x00000000   Code   RO         3053    .ARM.Collect$$libinit$$0000002E  c_w.l(libinit2.o)
    0x1a00019e   0x00000000   Code   RO         3055    .ARM.Collect$$libinit$$00000030  c_w.l(libinit2.o)
    0x1a00019e   0x00000000   Code   RO         3057    .ARM.Collect$$libinit$$00000032  c_w.l(libinit2.o)
    0x1a00019e   0x00000002   Code   RO         3058    .ARM.Collect$$libinit$$00000033  c_w.l(libinit2.o)
    0x1a0001a0   0x00000002   Code   RO         3084    .ARM.Collect$$libshutdown$$00000000  c_w.l(libshutdown.o)
    0x1a0001a2   0x00000000   Code   RO         3113    .ARM.Collect$$libshutdown$$00000002  c_w.l(libshutdown2.o)
    0x1a0001a2   0x00000000   Code   RO         3115    .ARM.Collect$$libshutdown$$00000004  c_w.l(libshutdown2.o)
    0x1a0001a2   0x00000000   Code   RO         3118    .ARM.Collect$$libshutdown$$00000007  c_w.l(libshutdown2.o)
    0x1a0001a2   0x00000000   Code   RO         3121    .ARM.Collect$$libshutdown$$0000000A  c_w.l(libshutdown2.o)
    0x1a0001a2   0x00000000   Code   RO         3123    .ARM.Collect$$libshutdown$$0000000C  c_w.l(libshutdown2.o)
    0x1a0001a2   0x00000000   Code   RO         3126    .ARM.Collect$$libshutdown$$0000000F  c_w.l(libshutdown2.o)
    0x1a0001a2   0x00000002   Code   RO         3127    .ARM.Collect$$libshutdown$$00000010  c_w.l(libshutdown2.o)
    0x1a0001a4   0x00000000   Code   RO         2956    .ARM.Collect$$rtentry$$00000000  c_w.l(__rtentry.o)
    0x1a0001a4   0x00000000   Code   RO         2969    .ARM.Collect$$rtentry$$00000002  c_w.l(__rtentry2.o)
    0x1a0001a4   0x00000006   Code   RO         2981    .ARM.Collect$$rtentry$$00000004  c_w.l(__rtentry4.o)
    0x1a0001aa   0x00000000   Code   RO         2971    .ARM.Collect$$rtentry$$00000009  c_w.l(__rtentry2.o)
    0x1a0001aa   0x00000004   Code   RO         2972    .ARM.Collect$$rtentry$$0000000A  c_w.l(__rtentry2.o)
    0x1a0001ae   0x00000000   Code   RO         2974    .ARM.Collect$$rtentry$$0000000C  c_w.l(__rtentry2.o)
    0x1a0001ae   0x00000008   Code   RO         2975    .ARM.Collect$$rtentry$$0000000D  c_w.l(__rtentry2.o)
    0x1a0001b6   0x00000002   Code   RO         3006    .ARM.Collect$$rtexit$$00000000  c_w.l(rtexit.o)
    0x1a0001b8   0x00000000   Code   RO         3060    .ARM.Collect$$rtexit$$00000002  c_w.l(rtexit2.o)
    0x1a0001b8   0x00000004   Code   RO         3061    .ARM.Collect$$rtexit$$00000003  c_w.l(rtexit2.o)
    0x1a0001bc   0x00000006   Code   RO         3062    .ARM.Collect$$rtexit$$00000004  c_w.l(rtexit2.o)
    0x1a0001c2   0x00000002   PAD
    0x1a0001c4   0x0000253c   Code   RO            1    .text               raw-os.o
    0x1a002700   0x00000174   Code   RO          175    .text               fifo.o
    0x1a002874   0x000005b4   Code   RO          266    .text               raw_malloc.o
    0x1a002e28   0x000003d4   Code   RO          292    .text               raw_page.o
    0x1a0031fc   0x000000a4   Code   RO          309    .text               cpu.o
    0x1a0032a0   0x00000146   Code   RO          313    .text               port.o
    0x1a0033e6   0x00000012   Code   RO          325    .text               port_hook.o
    0x1a0033f8   0x00000088   Code   RO          343    .text               user_extension.o
    0x1a003480   0x00000054   Code   RO          355    .text               port_error_process.o
    0x1a0034d4   0x00000044   Code   RO          370    .text               keil_startup_lpc18xx43xx.o
    0x1a003518   0x0000001c   Code   RO          376    .text               sysinit.o
    0x1a003534   0x00000014   Code   RO          602    .text               lpc43xx_scu.o
    0x1a003548   0x0000045c   Code   RO          635    .text               lpc43xx_sdram.o
    0x1a0039a4   0x00000600   Code   RO          658    .text               main.o
    0x1a003fa4   0x0000004c   Code   RO          718    .text               diskio.o
    0x1a003ff0   0x000021f8   Code   RO          767    .text               ff.o
    0x1a0061e8   0x000000ee   Code   RO         2892    .text               c_w.l(lludivv7m.o)
    0x1a0062d6   0x00000002   PAD
    0x1a0062d8   0x00000018   Code   RO         2896    .text               c_w.l(noretval__2printf.o)
    0x1a0062f0   0x0000004e   Code   RO         2900    .text               c_w.l(_printf_pad.o)
    0x1a00633e   0x00000002   PAD
    0x1a006340   0x00000078   Code   RO         2902    .text               c_w.l(_printf_dec.o)
    0x1a0063b8   0x00000058   Code   RO         2907    .text               c_w.l(_printf_hex_int.o)
    0x1a006410   0x00000138   Code   RO         2937    .text               c_w.l(__printf_flags_wp.o)
    0x1a006548   0x00000006   Code   RO         2952    .text               c_w.l(heapauxi.o)
    0x1a00654e   0x000000b2   Code   RO         2961    .text               c_w.l(_printf_intcommon.o)
    0x1a006600   0x00000024   Code   RO         2963    .text               c_w.l(_printf_char_file.o)
    0x1a006624   0x00000030   Code   RO         2985    .text               c_w.l(_printf_char_common.o)
    0x1a006654   0x0000004a   Code   RO         2987    .text               c_w.l(sys_stackheap_outer.o)
    0x1a00669e   0x00000012   Code   RO         2991    .text               c_w.l(exit.o)
    0x1a0066b0   0x00000008   Code   RO         3003    .text               c_w.l(libspace.o)
    0x1a0066b8   0x0000004a   Code   RO          823    i.Board_SDMMC_Init  lib_lpc_board_keil_mcb_4357.lib(board.o)
    0x1a006702   0x00000002   PAD
    0x1a006704   0x000000b4   Code   RO         1304    i.Board_SetupClocking  lib_lpc_board_keil_mcb_4357.lib(board_sysinit.o)
    0x1a0067b8   0x0000004c   Code   RO         1306    i.Board_SetupMuxing  lib_lpc_board_keil_mcb_4357.lib(board_sysinit.o)
    0x1a006804   0x0000000c   Code   RO         1307    i.Board_SystemInit  lib_lpc_board_keil_mcb_4357.lib(board_sysinit.o)
    0x1a006810   0x00000020   Code   RO          827    i.Board_UARTPutChar  lib_lpc_board_keil_mcb_4357.lib(board.o)
    0x1a006830   0x00000044   Code   RO          829    i.Board_UART_Init   lib_lpc_board_keil_mcb_4357.lib(board.o)
    0x1a006874   0x0000003c   Code   RO         2031    i.Chip_Clock_EnableOpts  lib_lpc_chip_43xx.lib(clock_18xx_43xx.o)
    0x1a0068b0   0x00000050   Code   RO         2033    i.Chip_Clock_FindBaseClock  lib_lpc_chip_43xx.lib(clock_18xx_43xx.o)
    0x1a006900   0x00000024   Code   RO         2034    i.Chip_Clock_GetBaseClock  lib_lpc_chip_43xx.lib(clock_18xx_43xx.o)
    0x1a006924   0x00000012   Code   RO         2036    i.Chip_Clock_GetBaseClocktHz  lib_lpc_chip_43xx.lib(clock_18xx_43xx.o)
    0x1a006936   0x00000002   PAD
    0x1a006938   0x000000d4   Code   RO         2037    i.Chip_Clock_GetClockInputHz  lib_lpc_chip_43xx.lib(clock_18xx_43xx.o)
    0x1a006a0c   0x00000028   Code   RO         2038    i.Chip_Clock_GetDivRate  lib_lpc_chip_43xx.lib(clock_18xx_43xx.o)
    0x1a006a34   0x00000020   Code   RO         2039    i.Chip_Clock_GetDividerDivisor  lib_lpc_chip_43xx.lib(clock_18xx_43xx.o)
    0x1a006a54   0x00000020   Code   RO         2040    i.Chip_Clock_GetDividerSource  lib_lpc_chip_43xx.lib(clock_18xx_43xx.o)
    0x1a006a74   0x00000078   Code   RO         2042    i.Chip_Clock_GetMainPLLHz  lib_lpc_chip_43xx.lib(clock_18xx_43xx.o)
    0x1a006aec   0x00000058   Code   RO         2044    i.Chip_Clock_GetRate  lib_lpc_chip_43xx.lib(clock_18xx_43xx.o)
    0x1a006b44   0x00000048   Code   RO         2048    i.Chip_Clock_SetBaseClock  lib_lpc_chip_43xx.lib(clock_18xx_43xx.o)
    0x1a006b8c   0x00000050   Code   RO         2049    i.Chip_Clock_SetDivider  lib_lpc_chip_43xx.lib(clock_18xx_43xx.o)
    0x1a006bdc   0x00000010   Code   RO          835    i.Chip_SCU_PinMuxSet  lib_lpc_board_keil_mcb_4357.lib(board.o)
    0x1a006bec   0x00000030   Code   RO         1308    i.Chip_SCU_SetPinMuxing  lib_lpc_board_keil_mcb_4357.lib(board_sysinit.o)
    0x1a006c1c   0x00000078   Code   RO         1603    i.Chip_SDIF_DmaSetup  lib_lpc_chip_43xx.lib(sdif_18xx_43xx.o)
    0x1a006c94   0x00000012   Code   RO         1604    i.Chip_SDIF_GetResponse  lib_lpc_chip_43xx.lib(sdif_18xx_43xx.o)
    0x1a006ca6   0x00000002   PAD
    0x1a006ca8   0x00000050   Code   RO         1605    i.Chip_SDIF_Init    lib_lpc_chip_43xx.lib(sdif_18xx_43xx.o)
    0x1a006cf8   0x00000052   Code   RO         1606    i.Chip_SDIF_SendCmd  lib_lpc_chip_43xx.lib(sdif_18xx_43xx.o)
    0x1a006d4a   0x00000004   Code   RO         1668    i.Chip_SDIF_SetByteCnt  lib_lpc_chip_43xx.lib(sdmmc_18xx_43xx.o)
    0x1a006d4e   0x00000004   Code   RO         1669    i.Chip_SDIF_SetCardType  lib_lpc_chip_43xx.lib(sdmmc_18xx_43xx.o)
    0x1a006d52   0x0000001a   Code   RO         1607    i.Chip_SDIF_SetClearIntFifo  lib_lpc_chip_43xx.lib(sdif_18xx_43xx.o)
    0x1a006d6c   0x00000050   Code   RO         1608    i.Chip_SDIF_SetClock  lib_lpc_chip_43xx.lib(sdif_18xx_43xx.o)
    0x1a006dbc   0x000002f4   Code   RO         1670    i.Chip_SDMMC_Acquire  lib_lpc_chip_43xx.lib(sdmmc_18xx_43xx.o)
    0x1a0070b0   0x00000010   Code   RO         1671    i.Chip_SDMMC_GetDeviceBlocks  lib_lpc_chip_43xx.lib(sdmmc_18xx_43xx.o)
    0x1a0070c0   0x0000003c   Code   RO         1673    i.Chip_SDMMC_GetState  lib_lpc_chip_43xx.lib(sdmmc_18xx_43xx.o)
    0x1a0070fc   0x000000a8   Code   RO         1674    i.Chip_SDMMC_ReadBlocks  lib_lpc_chip_43xx.lib(sdmmc_18xx_43xx.o)
    0x1a0071a4   0x000000ac   Code   RO         1675    i.Chip_SDMMC_WriteBlocks  lib_lpc_chip_43xx.lib(sdmmc_18xx_43xx.o)
    0x1a007250   0x0000000e   Code   RO         2785    i.Chip_SetupCoreClock  lib_lpc_chip_43xx.lib(sysinit_18xx_43xx.o)
    0x1a00725e   0x0000000a   Code   RO         1770    i.Chip_UART_DisableDivisorAccess  lib_lpc_chip_43xx.lib(uart_18xx_43xx.o)
    0x1a007268   0x0000000a   Code   RO         1771    i.Chip_UART_EnableDivisorAccess  lib_lpc_chip_43xx.lib(uart_18xx_43xx.o)
    0x1a007272   0x00000002   PAD
    0x1a007274   0x00000030   Code   RO         1773    i.Chip_UART_GetClockIndex  lib_lpc_chip_43xx.lib(uart_18xx_43xx.o)
    0x1a0072a4   0x0000004c   Code   RO         1775    i.Chip_UART_Init    lib_lpc_chip_43xx.lib(uart_18xx_43xx.o)
    0x1a0072f0   0x00000042   Code   RO         1787    i.Chip_UART_SetBaud  lib_lpc_chip_43xx.lib(uart_18xx_43xx.o)
    0x1a007332   0x00000006   Code   RO         1789    i.Chip_UART_SetDivisorLatches  lib_lpc_chip_43xx.lib(uart_18xx_43xx.o)
    0x1a007338   0x00000014   Code   RO         1382    i.SystemCoreClockUpdate  lib_lpc_chip_43xx.lib(chip_18xx_43xx.o)
    0x1a00734c   0x0000000e   Code   RO         2935    i._is_digit         c_w.l(__printf_wp.o)
    0x1a00735a   0x00000006   Code   RO          837    i._sys_exit         lib_lpc_board_keil_mcb_4357.lib(board.o)
    0x1a007360   0x00000024   Code   RO         2789    i.clock_init_delay  lib_lpc_chip_43xx.lib(sysinit_18xx_43xx.o)
    0x1a007384   0x000000bc   Code   RO         2790    i.clock_main_init   lib_lpc_chip_43xx.lib(sysinit_18xx_43xx.o)
    0x1a007440   0x00000008   Code   RO          841    i.ferror            lib_lpc_board_keil_mcb_4357.lib(board.o)
    0x1a007448   0x00000050   Code   RO         1934    i.fpuInit           lib_lpc_chip_43xx.lib(fpu_init.o)
    0x1a007498   0x00000014   Code   RO          843    i.fputc             lib_lpc_board_keil_mcb_4357.lib(board.o)
    0x1a0074ac   0x00000018   Code   RO         1676    i.prv_card_acquired  lib_lpc_chip_43xx.lib(sdmmc_18xx_43xx.o)
    0x1a0074c4   0x00000040   Code   RO         1677    i.prv_get_bits      lib_lpc_chip_43xx.lib(sdmmc_18xx_43xx.o)
    0x1a007504   0x0000019c   Code   RO         1678    i.prv_process_csd   lib_lpc_chip_43xx.lib(sdmmc_18xx_43xx.o)
    0x1a0076a0   0x00000060   Code   RO         1679    i.prv_set_card_params  lib_lpc_chip_43xx.lib(sdmmc_18xx_43xx.o)
    0x1a007700   0x00000074   Code   RO         1680    i.prv_set_trans_state  lib_lpc_chip_43xx.lib(sdmmc_18xx_43xx.o)
    0x1a007774   0x000001c8   Code   RO         1681    i.sdmmc_execute_command  lib_lpc_chip_43xx.lib(sdmmc_18xx_43xx.o)
    0x1a00793c   0x0000000a   Code   RO         3072    x$fpl$fpinit        fz_wm.l(fpinit.o)
    0x1a007946   0x0000002c   Data   RO          769    .constdata          ff.o
    0x1a007972   0x00000002   PAD
    0x1a007974   0x00000040   Data   RO          851    .constdata          lib_lpc_board_keil_mcb_4357.lib(board.o)
    0x1a0079b4   0x000002bc   Data   RO         1309    .constdata          lib_lpc_board_keil_mcb_4357.lib(board_sysinit.o)
    0x1a007c70   0x0000006c   Data   RO         2056    .constdata          lib_lpc_chip_43xx.lib(clock_18xx_43xx.o)
    0x1a007cdc   0x00000048   Data   RO         2791    .constdata          lib_lpc_chip_43xx.lib(sysinit_18xx_43xx.o)
    0x1a007d24   0x00000028   Data   RO         2908    .constdata          c_w.l(_printf_hex_int.o)
    0x1a007d4c   0x00000011   Data   RO         2938    .constdata          c_w.l(__printf_flags_wp.o)
    0x1a007d5d   0x00000003   PAD
    0x1a007d60   0x00000020   Data   RO         3128    Region$$Table       anon$$obj.o


==============================================================================

Image component sizes


      Code (inc. data)   RO Data    RW Data    ZI Data      Debug   Object Name

       164         16          0          0          0        384   cpu.o
        76          0          0          0          0       6122   diskio.o
      8696        134         44         12         12      32182   ff.o
       372          0          0          0          0       8456   fifo.o
        68         28        276          0       1792        936   keil_startup_lpc18xx43xx.o
        20          4          0          0          0       1049   lpc43xx_scu.o
      1116         28          0          0          0       2138   lpc43xx_sdram.o
      1536        584          0          8       3772      58680   main.o
       326          0          0          0          0       1667   port.o
        84          0          0          0          0       1348   port_error_process.o
        18          0          0          0          0       1815   port_hook.o
      9532        258          0         64       4004      80975   raw-os.o
      1460        184          0          4         72       9688   raw_malloc.o
       980         32          0          0         48       6418   raw_page.o
        28          8          0          0          0      10521   sysinit.o
       136          0          0          0          0       1856   user_extension.o

    ----------------------------------------------------------------------
     24612       1276        354         88       9700     224235   Object Totals
         0          0         32          0          0          0   (incl. Generated)
         0          0          2          0          0          0   (incl. Padding)

    ----------------------------------------------------------------------

      Code (inc. data)   RO Data    RW Data    ZI Data      Debug   Library Member Name

         8          0          0          0          0         68   __main.o
       312          4         17          0          0         92   __printf_flags_wp.o
        14          0          0          0          0         68   __printf_wp.o
         0          0          0          0          0          0   __rtentry.o
        12          0          0          0          0          0   __rtentry2.o
         6          0          0          0          0          0   __rtentry4.o
        52          8          0          0          0          0   __scatter.o
        26          0          0          0          0          0   __scatter_copy.o
        28          0          0          0          0          0   __scatter_zi.o
        48          6          0          0          0         96   _printf_char_common.o
        36          4          0          0          0         80   _printf_char_file.o
         6          0          0          0          0          0   _printf_d.o
       120         16          0          0          0         92   _printf_dec.o
        88          4         40          0          0         88   _printf_hex_int.o
       178          0          0          0          0         88   _printf_intcommon.o
        78          0          0          0          0        108   _printf_pad.o
         0          0          0          0          0          0   _printf_percent.o
         4          0          0          0          0          0   _printf_percent_end.o
         6          0          0          0          0          0   _printf_x.o
        18          0          0          0          0         80   exit.o
         6          0          0          0          0        152   heapauxi.o
         2          0          0          0          0          0   libinit.o
         6          0          0          0          0          0   libinit2.o
         2          0          0          0          0          0   libshutdown.o
         2          0          0          0          0          0   libshutdown2.o
         8          4          0          0         96         68   libspace.o
       238          0          0          0          0        100   lludivv7m.o
        24          4          0          0          0         84   noretval__2printf.o
         2          0          0          0          0          0   rtexit.o
        10          0          0          0          0          0   rtexit2.o
        74          0          0          0          0         80   sys_stackheap_outer.o
        10          0          0          0          0        116   fpinit.o
       224         18         64         20          0      35321   board.o
       316         44        700          0          0      11181   board_sysinit.o
        20          6          0          4          0      14334   chip_18xx_43xx.o
       870        130        108          8          0       8770   clock_18xx_43xx.o
        80         18          0          0          0       1234   fpu_init.o
       406         20          0          0          0       4187   sdif_18xx_43xx.o
      2348        144          0          4          0      17225   sdmmc_18xx_43xx.o
       238         20         72          0          0       2286   sysinit_18xx_43xx.o
       216         16          0          0          0       9189   uart_18xx_43xx.o

    ----------------------------------------------------------------------
      6158        466       1004         36         96     105187   Library Totals
        16          0          3          0          0          0   (incl. Padding)

    ----------------------------------------------------------------------

      Code (inc. data)   RO Data    RW Data    ZI Data      Debug   Library Name

      1414         50         57          0         96       1344   c_w.l
        10          0          0          0          0        116   fz_wm.l
       540         62        764         20          0      46502   lib_lpc_board_keil_mcb_4357.lib
      4178        354        180         16          0      57225   lib_lpc_chip_43xx.lib

    ----------------------------------------------------------------------
      6158        466       1004         36         96     105187   Library Totals

    ----------------------------------------------------------------------

==============================================================================


      Code (inc. data)   RO Data    RW Data    ZI Data      Debug   

     30770       1742       1358        124       9796     322050   Grand Totals
     30770       1742       1358        124       9796     322050   ELF Image Totals
     30770       1742       1358        124          0          0   ROM Totals

==============================================================================

    Total RO  Size (Code + RO Data)                32128 (  31.38kB)
    Total RW  Size (RW Data + ZI Data)              9920 (   9.69kB)
    Total ROM Size (Code + RO Data + RW Data)      32252 (  31.50kB)

==============================================================================

