Component: ARM Compiler 5.06 (build 20) Tool: armlink [4d35a3]

==============================================================================

Section Cross References

    raw-os.o(.text) refers to cpu.o(.text) for OS_CPU_SR_Save
    raw-os.o(.text) refers to port_error_process.o(.text) for port_system_error_process
    raw-os.o(.text) refers to raw-os.o(.data) for .data
    raw-os.o(.text) refers to raw-os.o(.bss) for .bss
    raw-os.o(.text) refers to user_extension.o(.text) for raw_memset
    raw-os.o(.text) refers to port.o(.text) for port_stack_init
    raw-os.o(.text) refers to port_hook.o(.text) for task_create_hook
    raw-os.o(.text) refers to port_extension.o(.text) for user_sys_time_get
    raw-os.o(.text) refers to lludivv7m.o(.text) for __aeabi_uldivmod
    fifo.o(.text) refers to cpu.o(.text) for OS_CPU_SR_Save
    fifo.o(.text) refers to user_extension.o(.text) for raw_memcpy
    rsh.o(.text) refers to cpu.o(.text) for OS_CPU_SR_Save
    rsh.o(.text) refers to string.o(.text) for raw_strncmp
    rsh.o(.text) refers to user_extension.o(.text) for raw_memset
    rsh.o(.text) refers to rsh.o(.data) for .data
    rsh.o(.text) refers to rsh.o(.conststring) for .conststring
    rsh.o(.constdata) refers to rsh.o(.conststring) for .conststring
    rsh.o(.constdata) refers to rsh.o(.text) for rsh_help_command
==============================================================================

Removing Unused input sections from the image.

    Removing rsh.o(.text), (472 bytes).
    Removing rsh.o(.constdata), (16 bytes).
    Removing rsh.o(.conststring), (50 bytes).
    Removing rsh.o(.conststring), (173 bytes).
    Removing rsh.o(.data), (20 bytes).
    Removing string.o(.text), (592 bytes).
    Removing sysinit.o(.rev16_text), (4 bytes).
    Removing sysinit.o(.revsh_text), (4 bytes).
    Removing lpc43xx_scu.o(.rev16_text), (4 bytes).
    Removing lpc43xx_scu.o(.revsh_text), (4 bytes).
    Removing lpc43xx_sdram.o(.rev16_text), (4 bytes).
    Removing lpc43xx_sdram.o(.revsh_text), (4 bytes).
    Removing main.o(.rev16_text), (4 bytes).
    Removing main.o(.revsh_text), (4 bytes).
    Removing main.o(.data), (4 bytes).
    Removing lpc43xx_gpio.o(.rev16_text), (4 bytes).
    Removing lpc43xx_gpio.o(.revsh_text), (4 bytes).
    Removing client.o(.data), (8 bytes).
==============================================================================

Image Symbol Table

    Local Symbols

    Symbol Name                              Value     Ov Type        Size  Object(Section)

    ../clib/angel/boardlib.s                 0x00000000   Number         0  boardinit1.o ABSOLUTE
    ../clib/angel/boardlib.s                 0x00000000   Number         0  boardshut.o ABSOLUTE
    ../clib/angel/boardlib.s                 0x00000000   Number         0  boardinit2.o ABSOLUTE
    ../clib/angel/boardlib.s                 0x00000000   Number         0  boardinit3.o ABSOLUTE
    ../clib/angel/dczerorl2.s                0x00000000   Number         0  __dczerorl2.o ABSOLUTE
    ../clib/angel/handlers.s                 0x00000000   Number         0  __scatter_zi.o ABSOLUTE
    ../clib/angel/handlers.s                 0x00000000   Number         0  __scatter_copy.o ABSOLUTE
    ../clib/angel/kernel.s                   0x00000000   Number         0  __rtentry4.o ABSOLUTE
    ../clib/angel/kernel.s                   0x00000000   Number         0  rtexit.o ABSOLUTE
    ../clib/angel/kernel.s                   0x00000000   Number         0  __rtentry2.o ABSOLUTE
    ../clib/angel/kernel.s                   0x00000000   Number         0  __rtentry.o ABSOLUTE
    ../clib/angel/kernel.s                   0x00000000   Number         0  rtexit2.o ABSOLUTE
    ../clib/angel/rt.s                       0x00000000   Number         0  rt_raise.o ABSOLUTE
    ../clib/angel/rt.s                       0x00000000   Number         0  aeabi_ldiv0_sigfpe.o ABSOLUTE
    ../clib/angel/rt.s                       0x00000000   Number         0  aeabi_ldiv0.o ABSOLUTE
    ../clib/angel/rt.s                       0x00000000   Number         0  rt_div0.o ABSOLUTE
    ../clib/angel/scatter.s                  0x00000000   Number         0  __scatter.o ABSOLUTE
    ../clib/angel/startup.s                  0x00000000   Number         0  __main.o ABSOLUTE
    ../clib/angel/sys.s                      0x00000000   Number         0  indicate_semi.o ABSOLUTE
    ../clib/angel/sys.s                      0x00000000   Number         0  use_no_semi.o ABSOLUTE
    ../clib/angel/sys.s                      0x00000000   Number         0  sys_stackheap_outer.o ABSOLUTE
    ../clib/angel/sys.s                      0x00000000   Number         0  libspace.o ABSOLUTE
    ../clib/angel/sysapp.c                   0x00000000   Number         0  sys_wrch.o ABSOLUTE
    ../clib/angel/sysapp.c                   0x00000000   Number         0  sys_command.o ABSOLUTE
    ../clib/armsys.c                         0x00000000   Number         0  _get_argv_nomalloc.o ABSOLUTE
    ../clib/armsys.c                         0x00000000   Number         0  no_argv.o ABSOLUTE
    ../clib/armsys.c                         0x00000000   Number         0  argv_veneer.o ABSOLUTE
    ../clib/armsys.c                         0x00000000   Number         0  argv_veneer.o ABSOLUTE
    ../clib/heapalloc.c                      0x00000000   Number         0  hrguard.o ABSOLUTE
    ../clib/heapaux.c                        0x00000000   Number         0  heapauxi.o ABSOLUTE
    ../clib/libinit.s                        0x00000000   Number         0  libinit2.o ABSOLUTE
    ../clib/libinit.s                        0x00000000   Number         0  libshutdown.o ABSOLUTE
    ../clib/libinit.s                        0x00000000   Number         0  libinit.o ABSOLUTE
    ../clib/libinit.s                        0x00000000   Number         0  libshutdown2.o ABSOLUTE
    ../clib/longlong.s                       0x00000000   Number         0  lludivv7m.o ABSOLUTE
    ../clib/memcpset.s                       0x00000000   Number         0  rt_memcpy_w.o ABSOLUTE
    ../clib/memcpset.s                       0x00000000   Number         0  rt_memcpy_v6.o ABSOLUTE
    ../clib/memcpset.s                       0x00000000   Number         0  rt_memclr_w.o ABSOLUTE
    ../clib/printf.c                         0x00000000   Number         0  noretval__2printf.o ABSOLUTE
    ../clib/printf.c                         0x00000000   Number         0  _printf_dec.o ABSOLUTE
    ../clib/printf.c                         0x00000000   Number         0  _printf_hex_ll.o ABSOLUTE
    ../clib/printf.c                         0x00000000   Number         0  _printf_hex_int.o ABSOLUTE
    ../clib/printf.c                         0x00000000   Number         0  _printf_hex_int_ll.o ABSOLUTE
    ../clib/printf.c                         0x00000000   Number         0  _printf_hex_ptr.o ABSOLUTE
    ../clib/printf.c                         0x00000000   Number         0  _printf_hex_int_ptr.o ABSOLUTE
    ../clib/printf.c                         0x00000000   Number         0  _printf_hex_ll_ptr.o ABSOLUTE
    ../clib/printf.c                         0x00000000   Number         0  _printf_hex_int_ll_ptr.o ABSOLUTE
    ../clib/printf.c                         0x00000000   Number         0  __printf.o ABSOLUTE
    ../clib/printf.c                         0x00000000   Number         0  __printf_flags.o ABSOLUTE
    ../clib/printf.c                         0x00000000   Number         0  __printf_ss.o ABSOLUTE
    ../clib/printf.c                         0x00000000   Number         0  __printf_flags_ss.o ABSOLUTE
    ../clib/printf.c                         0x00000000   Number         0  __printf_wp.o ABSOLUTE
    ../clib/printf.c                         0x00000000   Number         0  __printf_nopercent.o ABSOLUTE
    ../clib/printf.c                         0x00000000   Number         0  _printf_intcommon.o ABSOLUTE
    ../clib/printf.c                         0x00000000   Number         0  _printf_char_file.o ABSOLUTE
    ../clib/printf.c                         0x00000000   Number         0  __printf_flags_wp.o ABSOLUTE
    ../clib/printf.c                         0x00000000   Number         0  __printf_ss_wp.o ABSOLUTE
    ../clib/printf.c                         0x00000000   Number         0  _printf_char_common.o ABSOLUTE
    ../clib/printf.c                         0x00000000   Number         0  __printf_flags_ss_wp.o ABSOLUTE
    ../clib/printf.c                         0x00000000   Number         0  __2printf.o ABSOLUTE
    ../clib/printf_percent.s                 0x00000000   Number         0  _printf_x.o ABSOLUTE
    ../clib/printf_percent.s                 0x00000000   Number         0  _printf_d.o ABSOLUTE
    ../clib/printf_percent.s                 0x00000000   Number         0  _printf_percent_end.o ABSOLUTE
    ../clib/printf_percent.s                 0x00000000   Number         0  _printf_percent.o ABSOLUTE
    ../clib/signal.c                         0x00000000   Number         0  defsig_fpe_outer.o ABSOLUTE
    ../clib/signal.c                         0x00000000   Number         0  __raise.o ABSOLUTE
    ../clib/signal.c                         0x00000000   Number         0  defsig_segv_inner.o ABSOLUTE
    ../clib/signal.c                         0x00000000   Number         0  defsig_cppl_inner.o ABSOLUTE
    ../clib/signal.c                         0x00000000   Number         0  defsig_abrt_inner.o ABSOLUTE
    ../clib/signal.c                         0x00000000   Number         0  defsig_fpe_formal.o ABSOLUTE
    ../clib/signal.c                         0x00000000   Number         0  defsig_rtred_inner.o ABSOLUTE
    ../clib/signal.c                         0x00000000   Number         0  defsig_rtmem_inner.o ABSOLUTE
    ../clib/signal.c                         0x00000000   Number         0  defsig_rtmem_outer.o ABSOLUTE
    ../clib/signal.c                         0x00000000   Number         0  defsig_rtmem_formal.o ABSOLUTE
    ../clib/signal.c                         0x00000000   Number         0  defsig_stak_inner.o ABSOLUTE
    ../clib/signal.c                         0x00000000   Number         0  defsig_fpe_inner.o ABSOLUTE
    ../clib/signal.c                         0x00000000   Number         0  defsig_pvfn_inner.o ABSOLUTE
    ../clib/signal.c                         0x00000000   Number         0  defsig_other.o ABSOLUTE
    ../clib/signal.c                         0x00000000   Number         0  defsig_general.o ABSOLUTE
    ../clib/signal.c                         0x00000000   Number         0  defsig_exit.o ABSOLUTE
    ../clib/signal.s                         0x00000000   Number         0  defsig.o ABSOLUTE
    ../clib/stdlib.c                         0x00000000   Number         0  exit.o ABSOLUTE
    ../clib/string.c                         0x00000000   Number         0  strlen.o ABSOLUTE
    ../clib/string.c                         0x00000000   Number         0  memcmp.o ABSOLUTE
    ../fplib/fpinit.s                        0x00000000   Number         0  fpinit.o ABSOLUTE
    ..\..\..\..\software\common\lpc43xx_gpio.c 0x00000000   Number         0  lpc43xx_gpio.o ABSOLUTE
    ..\..\..\..\software\common\lpc43xx_scu.c 0x00000000   Number         0  lpc43xx_scu.o ABSOLUTE
    ..\..\..\..\software\common\lpc43xx_sdram.c 0x00000000   Number         0  lpc43xx_sdram.o ABSOLUTE
    ..\..\..\..\software\kernel\port\cpu.asm 0x00000000   Number         0  cpu.o ABSOLUTE
    ..\..\..\..\software\kernel\port\port.c  0x00000000   Number         0  port.o ABSOLUTE
    ..\..\..\..\software\kernel\port\port_error_process.c 0x00000000   Number         0  port_error_process.o ABSOLUTE
    ..\..\..\..\software\kernel\port\port_extension.c 0x00000000   Number         0  port_extension.o ABSOLUTE
    ..\..\..\..\software\kernel\port\port_hook.c 0x00000000   Number         0  port_hook.o ABSOLUTE
    ..\..\..\..\software\kernel\port\raw_trace_port.c 0x00000000   Number         0  raw_trace_port.o ABSOLUTE
    ..\..\..\..\software\kernel\port\user_extension.c 0x00000000   Number         0  user_extension.o ABSOLUTE
    ..\..\..\..\software\kernel\raw-os\extension\lib\fifo.c 0x00000000   Number         0  fifo.o ABSOLUTE
    ..\..\..\..\software\kernel\raw-os\extension\lib\string.c 0x00000000   Number         0  string.o ABSOLUTE
    ..\..\..\..\software\kernel\raw-os\extension\shell\rsh.c 0x00000000   Number         0  rsh.o ABSOLUTE
    ..\..\..\..\software\kernel\raw-os\raw-os.c 0x00000000   Number         0  raw-os.o ABSOLUTE
    ..\..\..\..\software\lwip\lwip\src\api\api_lib.c 0x00000000   Number         0  api_lib.o ABSOLUTE
    ..\..\..\..\software\lwip\lwip\src\api\api_msg.c 0x00000000   Number         0  api_msg.o ABSOLUTE
    ..\..\..\..\software\lwip\lwip\src\api\err.c 0x00000000   Number         0  err.o ABSOLUTE
    ..\..\..\..\software\lwip\lwip\src\api\netbuf.c 0x00000000   Number         0  netbuf.o ABSOLUTE
    ..\..\..\..\software\lwip\lwip\src\api\netdb.c 0x00000000   Number         0  netdb.o ABSOLUTE
    ..\..\..\..\software\lwip\lwip\src\api\netifapi.c 0x00000000   Number         0  netifapi.o ABSOLUTE
    ..\..\..\..\software\lwip\lwip\src\api\sockets.c 0x00000000   Number         0  sockets.o ABSOLUTE
    ..\..\..\..\software\lwip\lwip\src\api\tcpip.c 0x00000000   Number         0  tcpip.o ABSOLUTE
    ..\..\..\..\software\lwip\lwip\src\core\def.c 0x00000000   Number         0  def.o ABSOLUTE
    ..\..\..\..\software\lwip\lwip\src\core\dhcp.c 0x00000000   Number         0  dhcp.o ABSOLUTE
    ..\..\..\..\software\lwip\lwip\src\core\dns.c 0x00000000   Number         0  dns.o ABSOLUTE
    ..\..\..\..\software\lwip\lwip\src\core\init.c 0x00000000   Number         0  init.o ABSOLUTE
    ..\..\..\..\software\lwip\lwip\src\core\ipv4\autoip.c 0x00000000   Number         0  autoip.o ABSOLUTE
    ..\..\..\..\software\lwip\lwip\src\core\ipv4\icmp.c 0x00000000   Number         0  icmp.o ABSOLUTE
    ..\..\..\..\software\lwip\lwip\src\core\ipv4\igmp.c 0x00000000   Number         0  igmp.o ABSOLUTE
    ..\..\..\..\software\lwip\lwip\src\core\ipv4\inet.c 0x00000000   Number         0  inet.o ABSOLUTE
    ..\..\..\..\software\lwip\lwip\src\core\ipv4\inet_chksum.c 0x00000000   Number         0  inet_chksum.o ABSOLUTE
    ..\..\..\..\software\lwip\lwip\src\core\ipv4\ip.c 0x00000000   Number         0  ip.o ABSOLUTE
    ..\..\..\..\software\lwip\lwip\src\core\ipv4\ip_addr.c 0x00000000   Number         0  ip_addr.o ABSOLUTE
    ..\..\..\..\software\lwip\lwip\src\core\ipv4\ip_frag.c 0x00000000   Number         0  ip_frag.o ABSOLUTE
    ..\..\..\..\software\lwip\lwip\src\core\mem.c 0x00000000   Number         0  mem.o ABSOLUTE
    ..\..\..\..\software\lwip\lwip\src\core\memp.c 0x00000000   Number         0  memp.o ABSOLUTE
    ..\..\..\..\software\lwip\lwip\src\core\netif.c 0x00000000   Number         0  netif.o ABSOLUTE
    ..\..\..\..\software\lwip\lwip\src\core\pbuf.c 0x00000000   Number         0  pbuf.o ABSOLUTE
    ..\..\..\..\software\lwip\lwip\src\core\raw.c 0x00000000   Number         0  raw.o ABSOLUTE
    ..\..\..\..\software\lwip\lwip\src\core\snmp\asn1_dec.c 0x00000000   Number         0  asn1_dec.o ABSOLUTE
    ..\..\..\..\software\lwip\lwip\src\core\snmp\asn1_enc.c 0x00000000   Number         0  asn1_enc.o ABSOLUTE
    ..\..\..\..\software\lwip\lwip\src\core\snmp\mib2.c 0x00000000   Number         0  mib2.o ABSOLUTE
    ..\..\..\..\software\lwip\lwip\src\core\snmp\mib_structs.c 0x00000000   Number         0  mib_structs.o ABSOLUTE
    ..\..\..\..\software\lwip\lwip\src\core\snmp\msg_in.c 0x00000000   Number         0  msg_in.o ABSOLUTE
    ..\..\..\..\software\lwip\lwip\src\core\snmp\msg_out.c 0x00000000   Number         0  msg_out.o ABSOLUTE
    ..\..\..\..\software\lwip\lwip\src\core\stats.c 0x00000000   Number         0  stats.o ABSOLUTE
    ..\..\..\..\software\lwip\lwip\src\core\sys.c 0x00000000   Number         0  sys.o ABSOLUTE
    ..\..\..\..\software\lwip\lwip\src\core\tcp.c 0x00000000   Number         0  tcp.o ABSOLUTE
    ..\..\..\..\software\lwip\lwip\src\core\tcp_in.c 0x00000000   Number         0  tcp_in.o ABSOLUTE
    ..\..\..\..\software\lwip\lwip\src\core\tcp_out.c 0x00000000   Number         0  tcp_out.o ABSOLUTE
    ..\..\..\..\software\lwip\lwip\src\core\timers.c 0x00000000   Number         0  timers.o ABSOLUTE
    ..\..\..\..\software\lwip\lwip\src\core\udp.c 0x00000000   Number         0  udp.o ABSOLUTE
    ..\..\..\..\software\lwip\lwip\src\netif\etharp.c 0x00000000   Number         0  etharp.o ABSOLUTE
    ..\..\..\..\software\lwip\lwip\src\netif\ethernetif.c 0x00000000   Number         0  ethernetif.o ABSOLUTE
    ..\..\..\..\software\lwip\lwip\src\netif\slipif.c 0x00000000   Number         0  slipif.o ABSOLUTE
    ..\..\..\..\software\lwip\lwip_port\arch\lpc18xx_43xx_emac.c 0x00000000   Number         0  lpc18xx_43xx_emac.o ABSOLUTE
    ..\..\..\..\software\lwip\lwip_port\arch\lwip_emac.c 0x00000000   Number         0  lwip_emac.o ABSOLUTE
    ..\..\..\..\software\lwip\lwip_port\arch\sys_arch.c 0x00000000   Number         0  sys_arch.o ABSOLUTE
    ..\..\board_common\lpc_phy_dp83848.c     0x00000000   Number         0  lpc_phy_dp83848.o ABSOLUTE
    ..\..\board_common\uda1380.c             0x00000000   Number         0  uda1380.o ABSOLUTE
    ..\..\examples\lwip_tftp\client.c        0x00000000   Number         0  client.o ABSOLUTE
    ..\..\examples\lwip_tftp\main.c          0x00000000   Number         0  main.o ABSOLUTE
    ..\..\startup_code\keil_startup_lpc18xx43xx.s 0x00000000   Number         0  keil_startup_lpc18xx43xx.o ABSOLUTE
    ..\..\startup_code\sysinit.c             0x00000000   Number         0  sysinit.o ABSOLUTE
    ..\\..\\..\\..\\software\\common\\lpc43xx_gpio.c 0x00000000   Number         0  lpc43xx_gpio.o ABSOLUTE
    ..\\..\\..\\..\\software\\common\\lpc43xx_scu.c 0x00000000   Number         0  lpc43xx_scu.o ABSOLUTE
    ..\\..\\..\\..\\software\\common\\lpc43xx_sdram.c 0x00000000   Number         0  lpc43xx_sdram.o ABSOLUTE
    ..\\..\\..\\..\\software\\lwip\\lwip_port\\arch\\lpc18xx_43xx_emac.c 0x00000000   Number         0  lpc18xx_43xx_emac.o ABSOLUTE
    ..\\..\\..\\..\\software\\lwip\\lwip_port\\arch\\lwip_emac.c 0x00000000   Number         0  lwip_emac.o ABSOLUTE
    ..\\..\\board_common\\lpc_phy_dp83848.c  0x00000000   Number         0  lpc_phy_dp83848.o ABSOLUTE
    ..\\..\\board_common\\uda1380.c          0x00000000   Number         0  uda1380.o ABSOLUTE
    ..\\..\\examples\\lwip_tftp\\main.c      0x00000000   Number         0  main.o ABSOLUTE
    ..\\..\\startup_code\\sysinit.c          0x00000000   Number         0  sysinit.o ABSOLUTE
    ..\\chip_common\\fpu_init.c              0x00000000   Number         0  fpu_init.o ABSOLUTE
    ..\chip_common\fpu_init.c                0x00000000   Number         0  fpu_init.o ABSOLUTE
    ..\chip_common\ring_buffer.c             0x00000000   Number         0  ring_buffer.o ABSOLUTE
    board.c                                  0x00000000   Number         0  board.o ABSOLUTE
    board.c                                  0x00000000   Number         0  board.o ABSOLUTE
    board_sysinit.c                          0x00000000   Number         0  board_sysinit.o ABSOLUTE
    board_sysinit.c                          0x00000000   Number         0  board_sysinit.o ABSOLUTE
    chip_18xx_43xx.c                         0x00000000   Number         0  chip_18xx_43xx.o ABSOLUTE
    chip_18xx_43xx.c                         0x00000000   Number         0  chip_18xx_43xx.o ABSOLUTE
    clock_18xx_43xx.c                        0x00000000   Number         0  clock_18xx_43xx.o ABSOLUTE
    clock_18xx_43xx.c                        0x00000000   Number         0  clock_18xx_43xx.o ABSOLUTE
    dc.s                                     0x00000000   Number         0  dc.o ABSOLUTE
    emc_18xx_43xx.c                          0x00000000   Number         0  emc_18xx_43xx.o ABSOLUTE
    emc_18xx_43xx.c                          0x00000000   Number         0  emc_18xx_43xx.o ABSOLUTE
    enet_18xx_43xx.c                         0x00000000   Number         0  enet_18xx_43xx.o ABSOLUTE
    enet_18xx_43xx.c                         0x00000000   Number         0  enet_18xx_43xx.o ABSOLUTE
    gpio_18xx_43xx.c                         0x00000000   Number         0  gpio_18xx_43xx.o ABSOLUTE
    gpio_18xx_43xx.c                         0x00000000   Number         0  gpio_18xx_43xx.o ABSOLUTE
    i2c_18xx_43xx.c                          0x00000000   Number         0  i2c_18xx_43xx.o ABSOLUTE
    i2c_18xx_43xx.c                          0x00000000   Number         0  i2c_18xx_43xx.o ABSOLUTE
    i2s_18xx_43xx.c                          0x00000000   Number         0  i2s_18xx_43xx.o ABSOLUTE
    i2s_18xx_43xx.c                          0x00000000   Number         0  i2s_18xx_43xx.o ABSOLUTE
    rgu_18xx_43xx.c                          0x00000000   Number         0  rgu_18xx_43xx.o ABSOLUTE
    rgu_18xx_43xx.c                          0x00000000   Number         0  rgu_18xx_43xx.o ABSOLUTE
    ssp_18xx_43xx.c                          0x00000000   Number         0  ssp_18xx_43xx.o ABSOLUTE
    ssp_18xx_43xx.c                          0x00000000   Number         0  ssp_18xx_43xx.o ABSOLUTE
    sysinit_18xx_43xx.c                      0x00000000   Number         0  sysinit_18xx_43xx.o ABSOLUTE
    sysinit_18xx_43xx.c                      0x00000000   Number         0  sysinit_18xx_43xx.o ABSOLUTE
    uart_18xx_43xx.c                         0x00000000   Number         0  uart_18xx_43xx.o ABSOLUTE
    uart_18xx_43xx.c                         0x00000000   Number         0  uart_18xx_43xx.o ABSOLUTE
    .data                                    0x10000000   Section       56  raw-os.o(.data)
    .data                                    0x10000038   Section       12  main.o(.data)
    .data                                    0x10000044   Section        4  dhcp.o(.data)
    xid                                      0x10000044   Data           4  dhcp.o(.data)
    .data                                    0x10000048   Section       12  netif.o(.data)
    netif_num                                0x10000048   Data           1  netif.o(.data)
    .data                                    0x10000054   Section        1  pbuf.o(.data)
    .data                                    0x10000058   Section        8  timers.o(.data)
    next_timeout                             0x10000058   Data           4  timers.o(.data)
    tcpip_tcp_timer_active                   0x1000005c   Data           4  timers.o(.data)
    .data                                    0x10000060   Section       20  ip.o(.data)
    ip_id                                    0x10000060   Data           2  ip.o(.data)
    .data                                    0x10000074   Section        8  ip_frag.o(.data)
    ip_reass_pbufcount                       0x10000074   Data           2  ip_frag.o(.data)
    reassdatagrams                           0x10000078   Data           4  ip_frag.o(.data)
    .data                                    0x1000007c   Section        1  etharp.o(.data)
    etharp_cached_entry                      0x1000007c   Data           1  etharp.o(.data)
    .data                                    0x10000080   Section        4  lpc18xx_43xx_emac.o(.data)
    intMask                                  0x10000080   Data           4  lpc18xx_43xx_emac.o(.data)
    .data                                    0x10000084   Section        4  chip_18xx_43xx.o(.data)
    .bss                                     0x10000088   Section     4112  client.o(.bss)
    dest_addr                                0x10000088   Data          16  client.o(.bss)
    send_buffer                              0x10000098   Data        2048  client.o(.bss)
    recv_buffer                              0x10000898   Data        2048  client.o(.bss)
    .bss                                     0x10001098   Section       96  sockets.o(.bss)
    sockets                                  0x10001098   Data          96  sockets.o(.bss)
    .bss                                     0x100010f8   Section       50  dhcp.o(.bss)
    .bss                                     0x1000112c   Section       20  tcp_in.o(.bss)
    inseg                                    0x1000112c   Data          20  tcp_in.o(.bss)
    .bss                                     0x10001140   Section       16  ip_addr.o(.bss)
    str                                      0x10001140   Data          16  ip_addr.o(.bss)
    .bss                                     0x10001150   Section      200  etharp.o(.bss)
    arp_table                                0x10001150   Data         200  etharp.o(.bss)
    .bss                                     0x10001218   Section       72  sys_arch.o(.bss)
    system_mutex                             0x10001218   Data          40  sys_arch.o(.bss)
    HEAP                                     0x10001260   Section      256  keil_startup_lpc18xx43xx.o(HEAP)
    Heap_Mem                                 0x10001260   Data         256  keil_startup_lpc18xx43xx.o(HEAP)
    STACK                                    0x10001360   Section     1536  keil_startup_lpc18xx43xx.o(STACK)
    __initial_sp                             0x10001960   Data           0  keil_startup_lpc18xx43xx.o(STACK)
    RESET                                    0x1a000000   Section      276  keil_startup_lpc18xx43xx.o(RESET)
    !!!main                                  0x1a000114   Section        8  __main.o(!!!main)
    !!!scatter                               0x1a00011c   Section       52  __scatter.o(!!!scatter)
    !!dczerorl2                              0x1a000150   Section       90  __dczerorl2.o(!!dczerorl2)
    !!handler_copy                           0x1a0001ac   Section       26  __scatter_copy.o(!!handler_copy)
    !!handler_zi                             0x1a0001c8   Section       28  __scatter_zi.o(!!handler_zi)
    .ARM.Collect$$_printf_percent$$00000000  0x1a0001e4   Section        0  _printf_percent.o(.ARM.Collect$$_printf_percent$$00000000)
    .ARM.Collect$$_printf_percent$$00000009  0x1a0001e4   Section        6  _printf_d.o(.ARM.Collect$$_printf_percent$$00000009)
    .ARM.Collect$$_printf_percent$$0000000C  0x1a0001ea   Section        6  _printf_x.o(.ARM.Collect$$_printf_percent$$0000000C)
    .ARM.Collect$$_printf_percent$$00000017  0x1a0001f0   Section        4  _printf_percent_end.o(.ARM.Collect$$_printf_percent$$00000017)
    .ARM.Collect$$libinit$$00000000          0x1a0001f4   Section        2  libinit.o(.ARM.Collect$$libinit$$00000000)
    .ARM.Collect$$libinit$$00000001          0x1a0001f6   Section        4  libinit2.o(.ARM.Collect$$libinit$$00000001)
    .ARM.Collect$$libinit$$00000004          0x1a0001fa   Section        0  libinit2.o(.ARM.Collect$$libinit$$00000004)
    .ARM.Collect$$libinit$$0000000A          0x1a0001fa   Section        0  libinit2.o(.ARM.Collect$$libinit$$0000000A)
    .ARM.Collect$$libinit$$0000000C          0x1a0001fa   Section        0  libinit2.o(.ARM.Collect$$libinit$$0000000C)
    .ARM.Collect$$libinit$$0000000E          0x1a0001fa   Section        0  libinit2.o(.ARM.Collect$$libinit$$0000000E)
    .ARM.Collect$$libinit$$00000011          0x1a0001fa   Section        0  libinit2.o(.ARM.Collect$$libinit$$00000011)
    .ARM.Collect$$libinit$$00000013          0x1a0001fa   Section        0  libinit2.o(.ARM.Collect$$libinit$$00000013)
    .ARM.Collect$$libinit$$00000015          0x1a0001fa   Section        0  libinit2.o(.ARM.Collect$$libinit$$00000015)
    .ARM.Collect$$libinit$$00000017          0x1a0001fa   Section        0  libinit2.o(.ARM.Collect$$libinit$$00000017)
    .ARM.Collect$$libinit$$00000019          0x1a0001fa   Section        0  libinit2.o(.ARM.Collect$$libinit$$00000019)
    .ARM.Collect$$libinit$$0000001B          0x1a0001fa   Section        0  libinit2.o(.ARM.Collect$$libinit$$0000001B)
    .ARM.Collect$$libinit$$0000001D          0x1a0001fa   Section        0  libinit2.o(.ARM.Collect$$libinit$$0000001D)
    .ARM.Collect$$libinit$$0000001F          0x1a0001fa   Section        0  libinit2.o(.ARM.Collect$$libinit$$0000001F)
    .ARM.Collect$$libinit$$00000021          0x1a0001fa   Section        0  libinit2.o(.ARM.Collect$$libinit$$00000021)
    .ARM.Collect$$libinit$$00000023          0x1a0001fa   Section        0  libinit2.o(.ARM.Collect$$libinit$$00000023)
    .ARM.Collect$$libinit$$00000025          0x1a0001fa   Section        0  libinit2.o(.ARM.Collect$$libinit$$00000025)
    .ARM.Collect$$libinit$$0000002C          0x1a0001fa   Section        0  libinit2.o(.ARM.Collect$$libinit$$0000002C)
    .ARM.Collect$$libinit$$0000002E          0x1a0001fa   Section        0  libinit2.o(.ARM.Collect$$libinit$$0000002E)
    .ARM.Collect$$libinit$$00000030          0x1a0001fa   Section        0  libinit2.o(.ARM.Collect$$libinit$$00000030)
    .ARM.Collect$$libinit$$00000032          0x1a0001fa   Section        0  libinit2.o(.ARM.Collect$$libinit$$00000032)
    .ARM.Collect$$libinit$$00000033          0x1a0001fa   Section        2  libinit2.o(.ARM.Collect$$libinit$$00000033)
    .ARM.Collect$$libshutdown$$00000000      0x1a0001fc   Section        2  libshutdown.o(.ARM.Collect$$libshutdown$$00000000)
    .ARM.Collect$$libshutdown$$00000002      0x1a0001fe   Section        0  libshutdown2.o(.ARM.Collect$$libshutdown$$00000002)
    .ARM.Collect$$libshutdown$$00000004      0x1a0001fe   Section        0  libshutdown2.o(.ARM.Collect$$libshutdown$$00000004)
    .ARM.Collect$$libshutdown$$00000007      0x1a0001fe   Section        0  libshutdown2.o(.ARM.Collect$$libshutdown$$00000007)
    .ARM.Collect$$libshutdown$$0000000A      0x1a0001fe   Section        0  libshutdown2.o(.ARM.Collect$$libshutdown$$0000000A)
    .ARM.Collect$$libshutdown$$0000000C      0x1a0001fe   Section        0  libshutdown2.o(.ARM.Collect$$libshutdown$$0000000C)
    .ARM.Collect$$libshutdown$$0000000F      0x1a0001fe   Section        0  libshutdown2.o(.ARM.Collect$$libshutdown$$0000000F)
    .ARM.Collect$$libshutdown$$00000010      0x1a0001fe   Section        2  libshutdown2.o(.ARM.Collect$$libshutdown$$00000010)
    .ARM.Collect$$rtentry$$00000000          0x1a000200   Section        0  __rtentry.o(.ARM.Collect$$rtentry$$00000000)
    .ARM.Collect$$rtentry$$00000002          0x1a000200   Section        0  __rtentry2.o(.ARM.Collect$$rtentry$$00000002)
    .ARM.Collect$$rtentry$$00000004          0x1a000200   Section        6  __rtentry4.o(.ARM.Collect$$rtentry$$00000004)
    .ARM.Collect$$rtentry$$00000009          0x1a000206   Section        0  __rtentry2.o(.ARM.Collect$$rtentry$$00000009)
    .ARM.Collect$$rtentry$$0000000A          0x1a000206   Section        4  __rtentry2.o(.ARM.Collect$$rtentry$$0000000A)
    .ARM.Collect$$rtentry$$0000000C          0x1a00020a   Section        0  __rtentry2.o(.ARM.Collect$$rtentry$$0000000C)
    .ARM.Collect$$rtentry$$0000000D          0x1a00020a   Section        8  __rtentry2.o(.ARM.Collect$$rtentry$$0000000D)
    .ARM.Collect$$rtexit$$00000000           0x1a000212   Section        2  rtexit.o(.ARM.Collect$$rtexit$$00000000)
    .ARM.Collect$$rtexit$$00000002           0x1a000214   Section        0  rtexit2.o(.ARM.Collect$$rtexit$$00000002)
    .ARM.Collect$$rtexit$$00000003           0x1a000214   Section        4  rtexit2.o(.ARM.Collect$$rtexit$$00000003)
    .ARM.Collect$$rtexit$$00000004           0x1a000218   Section        6  rtexit2.o(.ARM.Collect$$rtexit$$00000004)
    .text                                    0x1a000220   Section        0  raw-os.o(.text)
    tick_task_process                        0x1a000785   Thumb Code    28  raw-os.o(.text)
    pend_task_wake_up                        0x1a000925   Thumb Code    96  raw-os.o(.text)
    is_list_empty                            0x1a002a0d   Thumb Code    14  raw-os.o(.text)
    list_insert                              0x1a002a1b   Thumb Code    14  raw-os.o(.text)
    list_delete                              0x1a002a29   Thumb Code    12  raw-os.o(.text)
    add_to_priority_list                     0x1a002a35   Thumb Code    30  raw-os.o(.text)
    bit_set                                  0x1a002a53   Thumb Code    20  raw-os.o(.text)
    release_mutex                            0x1a002a67   Thumb Code    30  raw-os.o(.text)
    timer_list_remove                        0x1a002a85   Thumb Code    22  raw-os.o(.text)
    timer_list_priority_insert               0x1a002a9b   Thumb Code    32  raw-os.o(.text)
    raw_byte_pool_search                     0x1a002abb   Thumb Code   188  raw-os.o(.text)
    .text                                    0x1a002b88   Section        0  fifo.o(.text)
    internal_fifo_out_peek                   0x1a002c29   Thumb Code    62  fifo.o(.text)
    .text                                    0x1a002cfc   Section      172  cpu.o(.text)
    $v0                                      0x1a002cfc   Number         0  cpu.o(.text)
    .text                                    0x1a002da8   Section        0  port.o(.text)
    .text                                    0x1a002f5c   Section        0  port_hook.o(.text)
    .text                                    0x1a002f7a   Section        0  user_extension.o(.text)
    .text                                    0x1a003002   Section        0  port_error_process.o(.text)
    .text                                    0x1a00305c   Section        0  port_extension.o(.text)
    .text                                    0x1a00308c   Section       68  keil_startup_lpc18xx43xx.o(.text)
    $v0                                      0x1a00308c   Number         0  keil_startup_lpc18xx43xx.o(.text)
    .text                                    0x1a0030d0   Section        0  sysinit.o(.text)
    .text                                    0x1a0030ec   Section        0  lpc43xx_scu.o(.text)
    .text                                    0x1a003100   Section        0  lpc43xx_sdram.o(.text)
    .text                                    0x1a00355c   Section        0  main.o(.text)
    NVIC_EnableIRQ                           0x1a00376b   Thumb Code    22  main.o(.text)
    NVIC_SetPriority                         0x1a003781   Thumb Code    32  main.o(.text)
    .text                                    0x1a003838   Section        0  lpc43xx_gpio.o(.text)
    .text                                    0x1a003878   Section        0  client.o(.text)
    tftp_get_file                            0x1a003879   Thumb Code   484  client.o(.text)
    tftp_client_thread                       0x1a003a5d   Thumb Code    92  client.o(.text)
    .text                                    0x1a003ca4   Section        0  api_lib.o(.text)
    netconn_recv_data                        0x1a003fbb   Thumb Code   306  api_lib.o(.text)
    netconn_close_shutdown                   0x1a004323   Thumb Code    74  api_lib.o(.text)
    .text                                    0x1a004390   Section        0  api_msg.o(.text)
    recv_raw                                 0x1a004391   Thumb Code   118  api_msg.o(.text)
    recv_udp                                 0x1a004407   Thumb Code   202  api_msg.o(.text)
    recv_tcp                                 0x1a0044d1   Thumb Code   174  api_msg.o(.text)
    err_tcp                                  0x1a00457f   Thumb Code   214  api_msg.o(.text)
    do_writemore                             0x1a004655   Thumb Code   460  api_msg.o(.text)
    sent_tcp                                 0x1a004821   Thumb Code   104  api_msg.o(.text)
    do_close_internal                        0x1a004889   Thumb Code   364  api_msg.o(.text)
    poll_tcp                                 0x1a0049f5   Thumb Code   104  api_msg.o(.text)
    setup_tcp                                0x1a004a5d   Thumb Code    50  api_msg.o(.text)
    accept_function                          0x1a004b7b   Thumb Code   150  api_msg.o(.text)
    netconn_drain                            0x1a004c31   Thumb Code   172  api_msg.o(.text)
    do_connected                             0x1a004e21   Thumb Code   158  api_msg.o(.text)
    pcb_new                                  0x1a005299   Thumb Code   166  api_msg.o(.text)
    .text                                    0x1a005340   Section        0  netbuf.o(.text)
    .text                                    0x1a005550   Section        0  sockets.o(.text)
    alloc_socket                             0x1a005553   Thumb Code    94  sockets.o(.text)
    event_callback                           0x1a0055b1   Thumb Code   304  sockets.o(.text)
    lwip_selscan                             0x1a005dab   Thumb Code   272  sockets.o(.text)
    lwip_getaddrname                         0x1a0061eb   Thumb Code   106  sockets.o(.text)
    lwip_getsockopt_internal                 0x1a00625d   Thumb Code   348  sockets.o(.text)
    lwip_setsockopt_internal                 0x1a0064ab   Thumb Code   308  sockets.o(.text)
    get_socket                               0x1a006747   Thumb Code    24  sockets.o(.text)
    tryget_socket                            0x1a00675f   Thumb Code    26  sockets.o(.text)
    .text                                    0x1a006784   Section        0  tcpip.o(.text)
    tcpip_thread                             0x1a006785   Thumb Code   138  tcpip.o(.text)
    pbuf_free_int                            0x1a0069d9   Thumb Code     4  tcpip.o(.text)
    .text                                    0x1a006a10   Section        0  def.o(.text)
    .text                                    0x1a006a20   Section        0  dhcp.o(.text)
    dhcp_delete_msg                          0x1a006a21   Thumb Code    84  dhcp.o(.text)
    dhcp_option_trailer                      0x1a006a75   Thumb Code   110  dhcp.o(.text)
    dhcp_option                              0x1a006ae3   Thumb Code    66  dhcp.o(.text)
    dhcp_option_short                        0x1a006b25   Thumb Code    64  dhcp.o(.text)
    dhcp_create_msg                          0x1a006b65   Thumb Code   380  dhcp.o(.text)
    dhcp_discover                            0x1a006ce1   Thumb Code   184  dhcp.o(.text)
    dhcp_check                               0x1a006d99   Thumb Code    48  dhcp.o(.text)
    dhcp_option_hostname                     0x1a006dc9   Thumb Code    88  dhcp.o(.text)
    dhcp_option_long                         0x1a006e21   Thumb Code    96  dhcp.o(.text)
    dhcp_select                              0x1a006e81   Thumb Code   236  dhcp.o(.text)
    dhcp_rebind                              0x1a007009   Thumb Code   138  dhcp.o(.text)
    dhcp_reboot                              0x1a0070ed   Thumb Code   156  dhcp.o(.text)
    dhcp_bind                                0x1a007229   Thumb Code   230  dhcp.o(.text)
    dhcp_parse_reply                         0x1a007405   Thumb Code   794  dhcp.o(.text)
    dhcp_recv                                0x1a00771f   Thumb Code   282  dhcp.o(.text)
    dhcp_option_byte                         0x1a007a37   Thumb Code    46  dhcp.o(.text)
    dhcp_set_state                           0x1a007a65   Thumb Code    16  dhcp.o(.text)
    dhcp_timeout                             0x1a007a75   Thumb Code   136  dhcp.o(.text)
    dhcp_handle_ack                          0x1a007afd   Thumb Code    88  dhcp.o(.text)
    dhcp_decline                             0x1a007b55   Thumb Code   114  dhcp.o(.text)
    .text                                    0x1a007bd4   Section        0  init.o(.text)
    .text                                    0x1a007bf4   Section        0  netif.o(.text)
    .text                                    0x1a007e00   Section        0  pbuf.o(.text)
    pbuf_free_ooseq_callback                 0x1a007e01   Thumb Code    42  pbuf.o(.text)
    pbuf_pool_is_empty                       0x1a007e2b   Thumb Code    54  pbuf.o(.text)
    .text                                    0x1a008774   Section        0  raw.o(.text)
    .text                                    0x1a008934   Section        0  tcp.o(.text)
    tcp_close_shutdown                       0x1a008d71   Thumb Code   318  tcp.o(.text)
    tcp_new_port                             0x1a009171   Thumb Code    84  tcp.o(.text)
    tcp_accept_null                          0x1a009255   Thumb Code     6  tcp.o(.text)
    .text                                    0x1a0095f0   Section        0  tcp_in.o(.text)
    tcp_oos_insert_segment                   0x1a0095f1   Thumb Code   114  tcp_in.o(.text)
    tcp_receive                              0x1a009663   Thumb Code  2198  tcp_in.o(.text)
    tcp_parseopt                             0x1a009ef9   Thumb Code   124  tcp_in.o(.text)
    tcp_process                              0x1a009f75   Thumb Code   908  tcp_in.o(.text)
    tcp_listen_input                         0x1a00a301   Thumb Code   208  tcp_in.o(.text)
    tcp_timewait_input                       0x1a00a7a1   Thumb Code    92  tcp_in.o(.text)
    .text                                    0x1a00a818   Section        0  tcp_out.o(.text)
    tcp_output_alloc_header                  0x1a00a819   Thumb Code   138  tcp_out.o(.text)
    tcp_create_segment                       0x1a00a8a3   Thumb Code   182  tcp_out.o(.text)
    tcp_pbuf_prealloc                        0x1a00aac7   Thumb Code    98  tcp_out.o(.text)
    tcp_output_segment                       0x1a00affd   Thumb Code   272  tcp_out.o(.text)
    tcp_seg_add_chksum                       0x1a00b533   Thumb Code    32  tcp_out.o(.text)
    tcp_write_checks                         0x1a00b553   Thumb Code   118  tcp_out.o(.text)
    .text                                    0x1a00b5c8   Section        0  timers.o(.text)
    tcpip_tcp_timer                          0x1a00b633   Thumb Code    38  timers.o(.text)
    ip_reass_timer                           0x1a00b67b   Thumb Code    20  timers.o(.text)
    arp_timer                                0x1a00b68f   Thumb Code    20  timers.o(.text)
    dhcp_timer_coarse                        0x1a00b6a3   Thumb Code    20  timers.o(.text)
    dhcp_timer_fine                          0x1a00b6b7   Thumb Code    20  timers.o(.text)
    .text                                    0x1a00b7c4   Section        0  udp.o(.text)
    .text                                    0x1a00bc84   Section        0  icmp.o(.text)
    icmp_send_response                       0x1a00bde9   Thumb Code   124  icmp.o(.text)
    .text                                    0x1a00be78   Section        0  inet_chksum.o(.text)
    lwip_standard_chksum                     0x1a00be79   Thumb Code    60  inet_chksum.o(.text)
    .text                                    0x1a00c05c   Section        0  ip.o(.text)
    .text                                    0x1a00c37c   Section        0  ip_addr.o(.text)
    .text                                    0x1a00c570   Section        0  ip_frag.o(.text)
    ip_reass_dequeue_datagram                0x1a00c571   Thumb Code    54  ip_frag.o(.text)
    ip_reass_free_complete_datagram          0x1a00c5a7   Thumb Code   222  ip_frag.o(.text)
    ip_reass_remove_oldest_datagram          0x1a00c6ad   Thumb Code   110  ip_frag.o(.text)
    ip_reass_chain_frag_into_datagram_and_validate 0x1a00c71b   Thumb Code   354  ip_frag.o(.text)
    ipfrag_free_pbuf_custom                  0x1a00ca23   Thumb Code    64  ip_frag.o(.text)
    ip_frag_free_pbuf_custom_ref             0x1a00cbdf   Thumb Code    34  ip_frag.o(.text)
    .text                                    0x1a00cc08   Section        0  etharp.o(.text)
    etharp_free_entry                        0x1a00cc09   Thumb Code    32  etharp.o(.text)
    etharp_find_entry                        0x1a00cc6b   Thumb Code   350  etharp.o(.text)
    etharp_send_ip                           0x1a00cdc9   Thumb Code    76  etharp.o(.text)
    etharp_update_arp_entry                  0x1a00ce15   Thumb Code   144  etharp.o(.text)
    etharp_arp_input                         0x1a00cf1b   Thumb Code   264  etharp.o(.text)
    etharp_output_to_arp_index               0x1a00d043   Thumb Code    86  etharp.o(.text)
    etharp_raw                               0x1a00d383   Thumb Code   238  etharp.o(.text)
    .text                                    0x1a00d470   Section        0  lpc18xx_43xx_emac.o(.text)
    lpc_rxqueue_pbuf                         0x1a00d471   Thumb Code    86  lpc18xx_43xx_emac.o(.text)
    lpc_low_level_output                     0x1a00d51d   Thumb Code   210  lpc18xx_43xx_emac.o(.text)
    lpc_etharp_output                        0x1a00d5ef   Thumb Code    18  lpc18xx_43xx_emac.o(.text)
    vPacketReceiveTask                       0x1a00d63b   Thumb Code    40  lpc18xx_43xx_emac.o(.text)
    vTransmitCleanupTask                     0x1a00d6d7   Thumb Code    22  lpc18xx_43xx_emac.o(.text)
    low_level_init                           0x1a00d6ed   Thumb Code   410  lpc18xx_43xx_emac.o(.text)
    lpc_low_level_input                      0x1a00da43   Thumb Code   168  lpc18xx_43xx_emac.o(.text)
    .text                                    0x1a00db0c   Section        0  sys_arch.o(.text)
    .text                                    0x1a00e004   Section        0  lwip_emac.o(.text)
    read_PHY                                 0x1a00e02f   Thumb Code    50  lwip_emac.o(.text)
    .text                                    0x1a00e15c   Section        0  board.o(.text)
    delay                                    0x1a00e1c5   Thumb Code    12  board.o(.text)
    Board_Audio_CodecInit                    0x1a00e1d1   Thumb Code    32  board.o(.text)
    writeLCD00_16                            0x1a00e1f1   Thumb Code    58  board.o(.text)
    writeLCD01_16                            0x1a00e22b   Thumb Code    72  board.o(.text)
    writeLCDReg                              0x1a00e273   Thumb Code    20  board.o(.text)
    pinConfig                                0x1a00e287   Thumb Code    14  board.o(.text)
    writeTSCReg                              0x1a00e295   Thumb Code    28  board.o(.text)
    readTSCReg                               0x1a00e2b1   Thumb Code    24  board.o(.text)
    detectTSCTouch                           0x1a00e2c9   Thumb Code    36  board.o(.text)
    getTSCCoord                              0x1a00e2ed   Thumb Code   114  board.o(.text)
    Board_LED_Init                           0x1a00e3f7   Thumb Code    28  board.o(.text)
    Chip_SCU_PinMuxSet                       0x1a00eb79   Thumb Code    12  board.o(.text)
    Chip_GPIO_SetPinState                    0x1a00eb85   Thumb Code    10  board.o(.text)
    Chip_GPIO_GetPinState                    0x1a00eb8f   Thumb Code    18  board.o(.text)
    Chip_GPIO_SetPinDIROutput                0x1a00eba1   Thumb Code    72  board.o(.text)
    Chip_GPIO_SetPinDIRInput                 0x1a00ebe9   Thumb Code    28  board.o(.text)
    .text                                    0x1a00ec04   Section        0  board_sysinit.o(.text)
    Chip_SCU_SetPinMuxing                    0x1a00ec05   Thumb Code    44  board_sysinit.o(.text)
    .text                                    0x1a00eda0   Section        0  lpc_phy_dp83848.o(.text)
    lpc_mii_write                            0x1a00eda1   Thumb Code    62  lpc_phy_dp83848.o(.text)
    lpc_mii_read                             0x1a00eddf   Thumb Code    70  lpc_phy_dp83848.o(.text)
    lpc_update_phy_sts                       0x1a00ee25   Thumb Code   138  lpc_phy_dp83848.o(.text)
    .text                                    0x1a00efac   Section        0  uda1380.o(.text)
    Audio_Codec_SetDefaultValues             0x1a00f013   Thumb Code    36  uda1380.o(.text)
    .text                                    0x1a00f130   Section      238  lludivv7m.o(.text)
    .text                                    0x1a00f220   Section        0  noretval__2printf.o(.text)
    .text                                    0x1a00f238   Section        0  __printf.o(.text)
    .text                                    0x1a00f2a0   Section        0  _printf_dec.o(.text)
    .text                                    0x1a00f318   Section        0  _printf_hex_int.o(.text)
    .text                                    0x1a00f370   Section        0  memcmp.o(.text)
    .text                                    0x1a00f3c8   Section        0  strlen.o(.text)
    .text                                    0x1a00f406   Section      138  rt_memcpy_v6.o(.text)
    .text                                    0x1a00f490   Section      100  rt_memcpy_w.o(.text)
    .text                                    0x1a00f4f4   Section       78  rt_memclr_w.o(.text)
    .text                                    0x1a00f542   Section        0  heapauxi.o(.text)
    .text                                    0x1a00f548   Section        0  _printf_intcommon.o(.text)
    .text                                    0x1a00f5fc   Section        0  _printf_char_file.o(.text)
    .text                                    0x1a00f620   Section        0  _printf_char_common.o(.text)
    _printf_input_char                       0x1a00f621   Thumb Code    10  _printf_char_common.o(.text)
    .text                                    0x1a00f650   Section       74  sys_stackheap_outer.o(.text)
    .text                                    0x1a00f69a   Section        0  exit.o(.text)
    .text                                    0x1a00f6ac   Section        8  libspace.o(.text)
    i.Chip_Clock_Enable                      0x1a00f6b4   Section        0  clock_18xx_43xx.o(i.Chip_Clock_Enable)
    i.Chip_Clock_EnableOpts                  0x1a00f6ec   Section        0  clock_18xx_43xx.o(i.Chip_Clock_EnableOpts)
    i.Chip_Clock_FindBaseClock               0x1a00f728   Section        0  clock_18xx_43xx.o(i.Chip_Clock_FindBaseClock)
    Chip_Clock_FindBaseClock                 0x1a00f729   Thumb Code    74  clock_18xx_43xx.o(i.Chip_Clock_FindBaseClock)
    i.Chip_Clock_GetBaseClock                0x1a00f778   Section        0  clock_18xx_43xx.o(i.Chip_Clock_GetBaseClock)
    i.Chip_Clock_GetBaseClocktHz             0x1a00f79c   Section        0  clock_18xx_43xx.o(i.Chip_Clock_GetBaseClocktHz)
    i.Chip_Clock_GetClockInputHz             0x1a00f7b0   Section        0  clock_18xx_43xx.o(i.Chip_Clock_GetClockInputHz)
    i.Chip_Clock_GetDivRate                  0x1a00f884   Section        0  clock_18xx_43xx.o(i.Chip_Clock_GetDivRate)
    Chip_Clock_GetDivRate                    0x1a00f885   Thumb Code    40  clock_18xx_43xx.o(i.Chip_Clock_GetDivRate)
    i.Chip_Clock_GetDividerDivisor           0x1a00f8ac   Section        0  clock_18xx_43xx.o(i.Chip_Clock_GetDividerDivisor)
    i.Chip_Clock_GetDividerSource            0x1a00f8cc   Section        0  clock_18xx_43xx.o(i.Chip_Clock_GetDividerSource)
    i.Chip_Clock_GetEMCRate                  0x1a00f8ec   Section        0  clock_18xx_43xx.o(i.Chip_Clock_GetEMCRate)
    i.Chip_Clock_GetMainPLLHz                0x1a00f91c   Section        0  clock_18xx_43xx.o(i.Chip_Clock_GetMainPLLHz)
    i.Chip_Clock_GetRate                     0x1a00f994   Section        0  clock_18xx_43xx.o(i.Chip_Clock_GetRate)
    i.Chip_Clock_SetBaseClock                0x1a00f9ec   Section        0  clock_18xx_43xx.o(i.Chip_Clock_SetBaseClock)
    i.Chip_Clock_SetDivider                  0x1a00fa34   Section        0  clock_18xx_43xx.o(i.Chip_Clock_SetDivider)
    i.Chip_EMC_Dynamic_Init                  0x1a00fa84   Section        0  emc_18xx_43xx.o(i.Chip_EMC_Dynamic_Init)
    i.Chip_EMC_Init                          0x1a00faa0   Section        0  emc_18xx_43xx.o(i.Chip_EMC_Init)
    i.Chip_EMC_Static_Init                   0x1a00facc   Section        0  emc_18xx_43xx.o(i.Chip_EMC_Static_Init)
    i.Chip_ENET_StartMIIRead                 0x1a00fae8   Section        0  enet_18xx_43xx.o(i.Chip_ENET_StartMIIRead)
    i.Chip_ENET_StartMIIWrite                0x1a00fb00   Section        0  enet_18xx_43xx.o(i.Chip_ENET_StartMIIWrite)
    i.Chip_GPIO_Init                         0x1a00fb20   Section        0  gpio_18xx_43xx.o(i.Chip_GPIO_Init)
    i.Chip_I2C_EventHandler                  0x1a00fb24   Section        0  i2c_18xx_43xx.o(i.Chip_I2C_EventHandler)
    i.Chip_I2C_EventHandlerPolling           0x1a00fb4c   Section        0  i2c_18xx_43xx.o(i.Chip_I2C_EventHandlerPolling)
    i.Chip_I2C_GetMasterEventHandler         0x1a00fb8c   Section        0  i2c_18xx_43xx.o(i.Chip_I2C_GetMasterEventHandler)
    i.Chip_I2C_Init                          0x1a00fba0   Section        0  i2c_18xx_43xx.o(i.Chip_I2C_Init)
    i.Chip_I2C_IsStateChanged                0x1a00fbcc   Section        0  i2c_18xx_43xx.o(i.Chip_I2C_IsStateChanged)
    i.Chip_I2C_MasterCmdRead                 0x1a00fbe4   Section        0  i2c_18xx_43xx.o(i.Chip_I2C_MasterCmdRead)
    i.Chip_I2C_MasterSend                    0x1a00fc1e   Section        0  i2c_18xx_43xx.o(i.Chip_I2C_MasterSend)
    i.Chip_I2C_MasterStateHandler            0x1a00fc50   Section        0  i2c_18xx_43xx.o(i.Chip_I2C_MasterStateHandler)
    i.Chip_I2C_MasterTransfer                0x1a00fc88   Section        0  i2c_18xx_43xx.o(i.Chip_I2C_MasterTransfer)
    i.Chip_I2C_SetClockRate                  0x1a00fcf4   Section        0  i2c_18xx_43xx.o(i.Chip_I2C_SetClockRate)
    i.Chip_I2C_SetMasterEventHandler         0x1a00fd30   Section        0  i2c_18xx_43xx.o(i.Chip_I2C_SetMasterEventHandler)
    i.Chip_I2S_Init                          0x1a00fd58   Section        0  i2s_18xx_43xx.o(i.Chip_I2S_Init)
    i.Chip_I2S_TxConfig                      0x1a00fd64   Section        0  i2s_18xx_43xx.o(i.Chip_I2S_TxConfig)
    i.Chip_RGU_InReset                       0x1a00fde0   Section        0  rgu_18xx_43xx.o(i.Chip_RGU_InReset)
    i.Chip_RGU_TriggerReset                  0x1a00fe18   Section        0  rgu_18xx_43xx.o(i.Chip_RGU_TriggerReset)
    i.Chip_SSP_ClearIntPending               0x1a00fe44   Section        0  ssp_18xx_43xx.o(i.Chip_SSP_ClearIntPending)
    Chip_SSP_ClearIntPending                 0x1a00fe45   Thumb Code     4  ssp_18xx_43xx.o(i.Chip_SSP_ClearIntPending)
    i.Chip_SSP_GetClockIndex                 0x1a00fe48   Section        0  ssp_18xx_43xx.o(i.Chip_SSP_GetClockIndex)
    Chip_SSP_GetClockIndex                   0x1a00fe49   Thumb Code    16  ssp_18xx_43xx.o(i.Chip_SSP_GetClockIndex)
    i.Chip_SSP_GetRawIntStatus               0x1a00fe5c   Section        0  ssp_18xx_43xx.o(i.Chip_SSP_GetRawIntStatus)
    Chip_SSP_GetRawIntStatus                 0x1a00fe5d   Thumb Code    16  ssp_18xx_43xx.o(i.Chip_SSP_GetRawIntStatus)
    i.Chip_SSP_GetStatus                     0x1a00fe6c   Section        0  ssp_18xx_43xx.o(i.Chip_SSP_GetStatus)
    Chip_SSP_GetStatus                       0x1a00fe6d   Thumb Code    16  ssp_18xx_43xx.o(i.Chip_SSP_GetStatus)
    i.Chip_SSP_Init                          0x1a00fe7c   Section        0  ssp_18xx_43xx.o(i.Chip_SSP_Init)
    i.Chip_SSP_ReceiveFrame                  0x1a00feb8   Section        0  ssp_18xx_43xx.o(i.Chip_SSP_ReceiveFrame)
    Chip_SSP_ReceiveFrame                    0x1a00feb9   Thumb Code     8  ssp_18xx_43xx.o(i.Chip_SSP_ReceiveFrame)
    i.Chip_SSP_SendFrame                     0x1a00fec0   Section        0  ssp_18xx_43xx.o(i.Chip_SSP_SendFrame)
    Chip_SSP_SendFrame                       0x1a00fec1   Thumb Code     6  ssp_18xx_43xx.o(i.Chip_SSP_SendFrame)
    i.Chip_SSP_SetBitRate                    0x1a00fec6   Section        0  ssp_18xx_43xx.o(i.Chip_SSP_SetBitRate)
    i.Chip_SSP_SetClockRate                  0x1a00ff0c   Section        0  ssp_18xx_43xx.o(i.Chip_SSP_SetClockRate)
    i.Chip_SSP_SetMaster                     0x1a00ff20   Section        0  ssp_18xx_43xx.o(i.Chip_SSP_SetMaster)
    i.Chip_SSP_Set_Mode                      0x1a00ff3c   Section        0  ssp_18xx_43xx.o(i.Chip_SSP_Set_Mode)
    Chip_SSP_Set_Mode                        0x1a00ff3d   Thumb Code    12  ssp_18xx_43xx.o(i.Chip_SSP_Set_Mode)
    i.Chip_SSP_WriteFrames_Blocking          0x1a00ff48   Section        0  ssp_18xx_43xx.o(i.Chip_SSP_WriteFrames_Blocking)
    i.Chip_SetupCoreClock                    0x1a010032   Section        0  sysinit_18xx_43xx.o(i.Chip_SetupCoreClock)
    i.Chip_UART_DisableDivisorAccess         0x1a010040   Section        0  uart_18xx_43xx.o(i.Chip_UART_DisableDivisorAccess)
    Chip_UART_DisableDivisorAccess           0x1a010041   Thumb Code    10  uart_18xx_43xx.o(i.Chip_UART_DisableDivisorAccess)
    i.Chip_UART_EnableDivisorAccess          0x1a01004a   Section        0  uart_18xx_43xx.o(i.Chip_UART_EnableDivisorAccess)
    Chip_UART_EnableDivisorAccess            0x1a01004b   Thumb Code    10  uart_18xx_43xx.o(i.Chip_UART_EnableDivisorAccess)
    i.Chip_UART_GetClockIndex                0x1a010054   Section        0  uart_18xx_43xx.o(i.Chip_UART_GetClockIndex)
    Chip_UART_GetClockIndex                  0x1a010055   Thumb Code    36  uart_18xx_43xx.o(i.Chip_UART_GetClockIndex)
    i.Chip_UART_Init                         0x1a010084   Section        0  uart_18xx_43xx.o(i.Chip_UART_Init)
    i.Chip_UART_SetBaud                      0x1a0100d0   Section        0  uart_18xx_43xx.o(i.Chip_UART_SetBaud)
    i.Chip_UART_SetDivisorLatches            0x1a010112   Section        0  uart_18xx_43xx.o(i.Chip_UART_SetDivisorLatches)
    Chip_UART_SetDivisorLatches              0x1a010113   Thumb Code     6  uart_18xx_43xx.o(i.Chip_UART_SetDivisorLatches)
    i.SystemCoreClockUpdate                  0x1a010118   Section        0  chip_18xx_43xx.o(i.SystemCoreClockUpdate)
    i.clock_init_delay                       0x1a01012c   Section        0  sysinit_18xx_43xx.o(i.clock_init_delay)
    clock_init_delay                         0x1a01012d   Thumb Code    36  sysinit_18xx_43xx.o(i.clock_init_delay)
    i.clock_main_init                        0x1a010150   Section        0  sysinit_18xx_43xx.o(i.clock_main_init)
    clock_main_init                          0x1a010151   Thumb Code   168  sysinit_18xx_43xx.o(i.clock_main_init)
    i.convertTimmingParam                    0x1a01020c   Section        0  emc_18xx_43xx.o(i.convertTimmingParam)
    convertTimmingParam                      0x1a01020d   Thumb Code    50  emc_18xx_43xx.o(i.convertTimmingParam)
    i.fpuInit                                0x1a010244   Section        0  fpu_init.o(i.fpuInit)
    i.getClkDiv                              0x1a010294   Section        0  i2s_18xx_43xx.o(i.getClkDiv)
    getClkDiv                                0x1a010295   Thumb Code   354  i2s_18xx_43xx.o(i.getClkDiv)
    i.getClkRate                             0x1a0103f8   Section        0  i2c_18xx_43xx.o(i.getClkRate)
    getClkRate                               0x1a0103f9   Thumb Code    22  i2c_18xx_43xx.o(i.getClkRate)
    i.getColsLen                             0x1a010414   Section        0  emc_18xx_43xx.o(i.getColsLen)
    getColsLen                               0x1a010415   Thumb Code    40  emc_18xx_43xx.o(i.getColsLen)
    i.getCurState                            0x1a01043c   Section        0  i2c_18xx_43xx.o(i.getCurState)
    getCurState                              0x1a01043d   Thumb Code    10  i2c_18xx_43xx.o(i.getCurState)
    i.handleMasterXferState                  0x1a010446   Section        0  i2c_18xx_43xx.o(i.handleMasterXferState)
    i.initDynMem                             0x1a010526   Section        0  emc_18xx_43xx.o(i.initDynMem)
    i.initStaticMem                          0x1a01070e   Section        0  emc_18xx_43xx.o(i.initStaticMem)
    i.startSlaverXfer                        0x1a010776   Section        0  i2c_18xx_43xx.o(i.startSlaverXfer)
    startSlaverXfer                          0x1a010777   Thumb Code    10  i2c_18xx_43xx.o(i.startSlaverXfer)
    x$fpl$fpinit                             0x1a010780   Section       10  fpinit.o(x$fpl$fpinit)
    $v0                                      0x1a010780   Number         0  fpinit.o(x$fpl$fpinit)
    .constdata                               0x1a01078c   Section      512  client.o(.constdata)
    .constdata                               0x1a01098c   Section       64  sockets.o(.constdata)
    err_to_errno_table                       0x1a01098c   Data          64  sockets.o(.constdata)
    .constdata                               0x1a0109cc   Section       28  memp.o(.constdata)
    .constdata                               0x1a0109e8   Section       84  tcp.o(.constdata)
    .constdata                               0x1a010a3c   Section        4  ip_addr.o(.constdata)
    .constdata                               0x1a010a40   Section        4  ip_addr.o(.constdata)
    .constdata                               0x1a010a44   Section       12  etharp.o(.constdata)
    .constdata                               0x1a010a50   Section       64  board.o(.constdata)
    ledports                                 0x1a010a50   Data           8  board.o(.constdata)
    ledbits                                  0x1a010a58   Data           8  board.o(.constdata)
    .constdata                               0x1a010a90   Section      700  board_sysinit.o(.constdata)
    InitClkStates                            0x1a010a90   Data          16  board_sysinit.o(.constdata)
    spifipinmuxing                           0x1a010aa0   Data          24  board_sysinit.o(.constdata)
    pinmuxing                                0x1a010ab8   Data         496  board_sysinit.o(.constdata)
    pinclockmuxing                           0x1a010ca8   Data          16  board_sysinit.o(.constdata)
    MT48LC4M32_config                        0x1a010cb8   Data         116  board_sysinit.o(.constdata)
    S29GL64N90_config                        0x1a010d2c   Data          32  board_sysinit.o(.constdata)
    .constdata                               0x1a010d4c   Section      108  clock_18xx_43xx.o(.constdata)
    periph_to_base                           0x1a010d4c   Data         108  clock_18xx_43xx.o(.constdata)
    .constdata                               0x1a010db8   Section       31  uda1380.o(.constdata)
    UDA_sys_regs_dat                         0x1a010db8   Data          11  uda1380.o(.constdata)
    UDA_interfil_regs_dat                    0x1a010dc3   Data          11  uda1380.o(.constdata)
    UDA_decimator_regs_dat                   0x1a010dce   Data           9  uda1380.o(.constdata)
    .constdata                               0x1a010dd7   Section       72  sysinit_18xx_43xx.o(.constdata)
    InitClkStates                            0x1a010dd7   Data          72  sysinit_18xx_43xx.o(.constdata)
    .constdata                               0x1a010e1f   Section       40  _printf_hex_int.o(.constdata)
    uc_hextab                                0x1a010e1f   Data          20  _printf_hex_int.o(.constdata)
    lc_hextab                                0x1a010e33   Data          20  _printf_hex_int.o(.constdata)
    .conststring                             0x1a010e48   Section      117  tcp.o(.conststring)
    .data                                    0x20000000   Section        8  sockets.o(.data)
    select_cb_list                           0x20000000   Data           4  sockets.o(.data)
    select_cb_ctr                            0x20000004   Data           4  sockets.o(.data)
    .data                                    0x20000008   Section       12  tcpip.o(.data)
    tcpip_init_done                          0x20000008   Data           4  tcpip.o(.data)
    tcpip_init_done_arg                      0x2000000c   Data           4  tcpip.o(.data)
    mbox                                     0x20000010   Data           4  tcpip.o(.data)
    .data                                    0x20000014   Section        4  raw.o(.data)
    raw_pcbs                                 0x20000014   Data           4  raw.o(.data)
    .data                                    0x20000018   Section       36  tcp.o(.data)
    tcp_timer                                0x20000019   Data           1  tcp.o(.data)
    tcp_timer_ctr                            0x2000001a   Data           1  tcp.o(.data)
    tcp_port                                 0x2000001c   Data           2  tcp.o(.data)
    iss                                      0x20000020   Data           4  tcp.o(.data)
    .data                                    0x2000003c   Section       28  tcp_in.o(.data)
    flags                                    0x2000003c   Data           1  tcp_in.o(.data)
    recv_flags                               0x2000003d   Data           1  tcp_in.o(.data)
    tcplen                                   0x2000003e   Data           2  tcp_in.o(.data)
    tcphdr                                   0x20000040   Data           4  tcp_in.o(.data)
    iphdr                                    0x20000044   Data           4  tcp_in.o(.data)
    seqno                                    0x20000048   Data           4  tcp_in.o(.data)
    ackno                                    0x2000004c   Data           4  tcp_in.o(.data)
    recv_data                                0x20000050   Data           4  tcp_in.o(.data)
    .data                                    0x20000058   Section        8  udp.o(.data)
    udp_port                                 0x20000058   Data           2  udp.o(.data)
    .data                                    0x20000060   Section        4  sys_arch.o(.data)
    .data                                    0x20000064   Section       20  board.o(.data)
    .data                                    0x20000078   Section       16  lpc_phy_dp83848.o(.data)
    physts                                   0x20000078   Data           4  lpc_phy_dp83848.o(.data)
    olddphysts                               0x2000007c   Data           4  lpc_phy_dp83848.o(.data)
    phyustate                                0x20000080   Data           4  lpc_phy_dp83848.o(.data)
    pDelayMs                                 0x20000084   Data           4  lpc_phy_dp83848.o(.data)
    .data                                    0x20000088   Section        8  clock_18xx_43xx.o(.data)
    audio_usb_pll_freq                       0x20000088   Data           8  clock_18xx_43xx.o(.data)
    .data                                    0x20000090   Section        4  enet_18xx_43xx.o(.data)
    phyCfg                                   0x20000090   Data           4  enet_18xx_43xx.o(.data)
    .data                                    0x20000094   Section       56  i2c_18xx_43xx.o(.data)
    i2c                                      0x20000094   Data          56  i2c_18xx_43xx.o(.data)
    .bss                                     0x200000d0   Section     3548  raw-os.o(.bss)
    .bss                                     0x20000eb0   Section     1988  main.o(.bss)
    fifo_buffer                              0x200015bc   Data         128  main.o(.bss)
    .bss                                     0x20001674   Section      652  lpc18xx_43xx_emac.o(.bss)
    lpc_enetdata                             0x20001674   Data         652  lpc18xx_43xx_emac.o(.bss)
    .bss                                     0x20001900   Section       96  libspace.o(.bss)

    Global Symbols

    Symbol Name                              Value     Ov Type        Size  Object(Section)

    BuildAttributes$$THM_ISAv4$E$P$D$K$B$S$7EM$VFPi3$EXTD16$VFPS$VFMA$PE$A:L22UL41UL21$X:L11$S22US41US21$IEEE1$IW$USESV6$~STKCKD$USESV7$~SHL$OSPACE$ROPI$EBA8$UX$STANDARDLIB$REQ8$PRES8$EABIv2 0x00000000   Number         0  anon$$obj.o ABSOLUTE
    __ARM_use_no_argv                        0x00000000   Number         0  main.o ABSOLUTE
    __ARM_exceptions_init                     - Undefined Weak Reference
    __alloca_initialize                       - Undefined Weak Reference
    __arm_preinit_                            - Undefined Weak Reference
    __cpp_initialize__aeabi_                  - Undefined Weak Reference
    __cxa_finalize                            - Undefined Weak Reference
    __rt_locale                               - Undefined Weak Reference
    __sigvec_lookup                           - Undefined Weak Reference
    _atexit_init                              - Undefined Weak Reference
    _call_atexit_fns                          - Undefined Weak Reference
    _clock_init                               - Undefined Weak Reference
    _fp_trap_init                             - Undefined Weak Reference
    _fp_trap_shutdown                         - Undefined Weak Reference
    _get_lc_collate                           - Undefined Weak Reference
    _get_lc_ctype                             - Undefined Weak Reference
    _get_lc_monetary                          - Undefined Weak Reference
    _get_lc_numeric                           - Undefined Weak Reference
    _get_lc_time                              - Undefined Weak Reference
    _getenv_init                              - Undefined Weak Reference
    _handle_redirection                       - Undefined Weak Reference
    _init_alloc                               - Undefined Weak Reference
    _init_user_alloc                          - Undefined Weak Reference
    _initio                                   - Undefined Weak Reference
    _printf_post_padding                      - Undefined Weak Reference
    _printf_pre_padding                       - Undefined Weak Reference
    _printf_truncate_signed                   - Undefined Weak Reference
    _printf_truncate_unsigned                 - Undefined Weak Reference
    _rand_init                                - Undefined Weak Reference
    _signal_finish                            - Undefined Weak Reference
    _signal_init                              - Undefined Weak Reference
    _terminate_alloc                          - Undefined Weak Reference
    _terminate_user_alloc                     - Undefined Weak Reference
    _terminateio                              - Undefined Weak Reference
    idle_task_exit                           0x10000000   Data           1  raw-os.o(.data)
    raw_sched_lock                           0x10000001   Data           1  raw-os.o(.data)
    raw_int_nesting                          0x10000002   Data           1  raw-os.o(.data)
    raw_os_active                            0x10000004   Data           2  raw-os.o(.data)
    high_ready_obj                           0x10000008   Data           4  raw-os.o(.data)
    raw_task_active                          0x1000000c   Data           4  raw-os.o(.data)
    raw_tick_count                           0x10000010   Data           4  raw-os.o(.data)
    raw_timer_count                          0x10000014   Data           4  raw-os.o(.data)
    raw_timer_ctrl                           0x10000018   Data           4  raw-os.o(.data)
    raw_idle_count                           0x10000020   Data           8  raw-os.o(.data)
    timer_head                               0x10000028   Data           8  raw-os.o(.data)
    sys_time_tick                            0x10000030   Data           8  raw-os.o(.data)
    tftp_client_ipaddr                       0x10000038   Data           4  main.o(.data)
    tftp_client_netmask                      0x1000003c   Data           4  main.o(.data)
    tftp_client_gw                           0x10000040   Data           4  main.o(.data)
    netif_list                               0x1000004c   Data           4  netif.o(.data)
    netif_default                            0x10000050   Data           4  netif.o(.data)
    pbuf_free_ooseq_pending                  0x10000054   Data           1  pbuf.o(.data)
    current_netif                            0x10000064   Data           4  ip.o(.data)
    current_header                           0x10000068   Data           4  ip.o(.data)
    current_iphdr_src                        0x1000006c   Data           4  ip.o(.data)
    current_iphdr_dest                       0x10000070   Data           4  ip.o(.data)
    SystemCoreClock                          0x10000084   Data           4  chip_18xx_43xx.o(.data)
    dhcp_rx_options_val                      0x100010f8   Data          40  dhcp.o(.bss)
    dhcp_rx_options_given                    0x10001120   Data          10  dhcp.o(.bss)
    lwip_mem_pool1                           0x10001240   Data          32  sys_arch.o(.bss)
    Stack_Mem                                0x10001360   Data        1536  keil_startup_lpc18xx43xx.o(STACK)
    __Vectors                                0x1a000000   Data           4  keil_startup_lpc18xx43xx.o(RESET)
    __main                                   0x1a000115   Thumb Code     8  __main.o(!!!main)
    __scatterload                            0x1a00011d   Thumb Code     0  __scatter.o(!!!scatter)
    __scatterload_rt2                        0x1a00011d   Thumb Code    44  __scatter.o(!!!scatter)
    __scatterload_rt2_thumb_only             0x1a00011d   Thumb Code     0  __scatter.o(!!!scatter)
    __scatterload_null                       0x1a00012b   Thumb Code     0  __scatter.o(!!!scatter)
    __decompress                             0x1a000151   Thumb Code    90  __dczerorl2.o(!!dczerorl2)
    __decompress1                            0x1a000151   Thumb Code     0  __dczerorl2.o(!!dczerorl2)
    __scatterload_copy                       0x1a0001ad   Thumb Code    26  __scatter_copy.o(!!handler_copy)
    __scatterload_zeroinit                   0x1a0001c9   Thumb Code    28  __scatter_zi.o(!!handler_zi)
    _printf_d                                0x1a0001e5   Thumb Code     0  _printf_d.o(.ARM.Collect$$_printf_percent$$00000009)
    _printf_percent                          0x1a0001e5   Thumb Code     0  _printf_percent.o(.ARM.Collect$$_printf_percent$$00000000)
    _printf_x                                0x1a0001eb   Thumb Code     0  _printf_x.o(.ARM.Collect$$_printf_percent$$0000000C)
    _printf_percent_end                      0x1a0001f1   Thumb Code     0  _printf_percent_end.o(.ARM.Collect$$_printf_percent$$00000017)
    __rt_lib_init                            0x1a0001f5   Thumb Code     0  libinit.o(.ARM.Collect$$libinit$$00000000)
    __rt_lib_init_fp_1                       0x1a0001f7   Thumb Code     0  libinit2.o(.ARM.Collect$$libinit$$00000001)
    __rt_lib_init_alloca_1                   0x1a0001fb   Thumb Code     0  libinit2.o(.ARM.Collect$$libinit$$0000002E)
    __rt_lib_init_argv_1                     0x1a0001fb   Thumb Code     0  libinit2.o(.ARM.Collect$$libinit$$0000002C)
    __rt_lib_init_atexit_1                   0x1a0001fb   Thumb Code     0  libinit2.o(.ARM.Collect$$libinit$$0000001B)
    __rt_lib_init_clock_1                    0x1a0001fb   Thumb Code     0  libinit2.o(.ARM.Collect$$libinit$$00000021)
    __rt_lib_init_cpp_1                      0x1a0001fb   Thumb Code     0  libinit2.o(.ARM.Collect$$libinit$$00000032)
    __rt_lib_init_exceptions_1               0x1a0001fb   Thumb Code     0  libinit2.o(.ARM.Collect$$libinit$$00000030)
    __rt_lib_init_fp_trap_1                  0x1a0001fb   Thumb Code     0  libinit2.o(.ARM.Collect$$libinit$$0000001F)
    __rt_lib_init_getenv_1                   0x1a0001fb   Thumb Code     0  libinit2.o(.ARM.Collect$$libinit$$00000023)
    __rt_lib_init_heap_1                     0x1a0001fb   Thumb Code     0  libinit2.o(.ARM.Collect$$libinit$$0000000A)
    __rt_lib_init_lc_collate_1               0x1a0001fb   Thumb Code     0  libinit2.o(.ARM.Collect$$libinit$$00000011)
    __rt_lib_init_lc_ctype_1                 0x1a0001fb   Thumb Code     0  libinit2.o(.ARM.Collect$$libinit$$00000013)
    __rt_lib_init_lc_monetary_1              0x1a0001fb   Thumb Code     0  libinit2.o(.ARM.Collect$$libinit$$00000015)
    __rt_lib_init_lc_numeric_1               0x1a0001fb   Thumb Code     0  libinit2.o(.ARM.Collect$$libinit$$00000017)
    __rt_lib_init_lc_time_1                  0x1a0001fb   Thumb Code     0  libinit2.o(.ARM.Collect$$libinit$$00000019)
    __rt_lib_init_preinit_1                  0x1a0001fb   Thumb Code     0  libinit2.o(.ARM.Collect$$libinit$$00000004)
    __rt_lib_init_rand_1                     0x1a0001fb   Thumb Code     0  libinit2.o(.ARM.Collect$$libinit$$0000000E)
    __rt_lib_init_return                     0x1a0001fb   Thumb Code     0  libinit2.o(.ARM.Collect$$libinit$$00000033)
    __rt_lib_init_signal_1                   0x1a0001fb   Thumb Code     0  libinit2.o(.ARM.Collect$$libinit$$0000001D)
    __rt_lib_init_stdio_1                    0x1a0001fb   Thumb Code     0  libinit2.o(.ARM.Collect$$libinit$$00000025)
    __rt_lib_init_user_alloc_1               0x1a0001fb   Thumb Code     0  libinit2.o(.ARM.Collect$$libinit$$0000000C)
    __rt_lib_shutdown                        0x1a0001fd   Thumb Code     0  libshutdown.o(.ARM.Collect$$libshutdown$$00000000)
    __rt_lib_shutdown_cpp_1                  0x1a0001ff   Thumb Code     0  libshutdown2.o(.ARM.Collect$$libshutdown$$00000002)
    __rt_lib_shutdown_fp_trap_1              0x1a0001ff   Thumb Code     0  libshutdown2.o(.ARM.Collect$$libshutdown$$00000007)
    __rt_lib_shutdown_heap_1                 0x1a0001ff   Thumb Code     0  libshutdown2.o(.ARM.Collect$$libshutdown$$0000000F)
    __rt_lib_shutdown_return                 0x1a0001ff   Thumb Code     0  libshutdown2.o(.ARM.Collect$$libshutdown$$00000010)
    __rt_lib_shutdown_signal_1               0x1a0001ff   Thumb Code     0  libshutdown2.o(.ARM.Collect$$libshutdown$$0000000A)
    __rt_lib_shutdown_stdio_1                0x1a0001ff   Thumb Code     0  libshutdown2.o(.ARM.Collect$$libshutdown$$00000004)
    __rt_lib_shutdown_user_alloc_1           0x1a0001ff   Thumb Code     0  libshutdown2.o(.ARM.Collect$$libshutdown$$0000000C)
    __rt_entry                               0x1a000201   Thumb Code     0  __rtentry.o(.ARM.Collect$$rtentry$$00000000)
    __rt_entry_presh_1                       0x1a000201   Thumb Code     0  __rtentry2.o(.ARM.Collect$$rtentry$$00000002)
    __rt_entry_sh                            0x1a000201   Thumb Code     0  __rtentry4.o(.ARM.Collect$$rtentry$$00000004)
    __rt_entry_li                            0x1a000207   Thumb Code     0  __rtentry2.o(.ARM.Collect$$rtentry$$0000000A)
    __rt_entry_postsh_1                      0x1a000207   Thumb Code     0  __rtentry2.o(.ARM.Collect$$rtentry$$00000009)
    __rt_entry_main                          0x1a00020b   Thumb Code     0  __rtentry2.o(.ARM.Collect$$rtentry$$0000000D)
    __rt_entry_postli_1                      0x1a00020b   Thumb Code     0  __rtentry2.o(.ARM.Collect$$rtentry$$0000000C)
    __rt_exit                                0x1a000213   Thumb Code     0  rtexit.o(.ARM.Collect$$rtexit$$00000000)
    __rt_exit_ls                             0x1a000215   Thumb Code     0  rtexit2.o(.ARM.Collect$$rtexit$$00000003)
    __rt_exit_prels_1                        0x1a000215   Thumb Code     0  rtexit2.o(.ARM.Collect$$rtexit$$00000002)
    __rt_exit_exit                           0x1a000219   Thumb Code     0  rtexit2.o(.ARM.Collect$$rtexit$$00000004)
    get_ready_task                           0x1a000221   Thumb Code    16  raw-os.o(.text)
    raw_sched                                0x1a000231   Thumb Code    46  raw-os.o(.text)
    raw_semaphore_create                     0x1a00025f   Thumb Code    54  raw-os.o(.text)
    raw_task_semaphore_create                0x1a000295   Thumb Code    16  raw-os.o(.text)
    tick_list_remove                         0x1a0002a5   Thumb Code    24  raw-os.o(.text)
    mutex_priority_look                      0x1a0002bd   Thumb Code    74  raw-os.o(.text)
    change_pend_list_priority                0x1a000307   Thumb Code    34  raw-os.o(.text)
    add_ready_list_end                       0x1a000329   Thumb Code    40  raw-os.o(.text)
    add_ready_list_head                      0x1a000351   Thumb Code    40  raw-os.o(.text)
    bit_search_first_one                     0x1a000379   Thumb Code   116  raw-os.o(.text)
    remove_ready_list                        0x1a0003ed   Thumb Code   104  raw-os.o(.text)
    change_internal_task_priority            0x1a000455   Thumb Code   168  raw-os.o(.text)
    mutex_state_change                       0x1a0004fd   Thumb Code    38  raw-os.o(.text)
    add_ready_list                           0x1a000523   Thumb Code    20  raw-os.o(.text)
    tick_list_update                         0x1a000537   Thumb Code   246  raw-os.o(.text)
    block_state_post_process                 0x1a00062d   Thumb Code    62  raw-os.o(.text)
    tick_list_insert                         0x1a00066b   Thumb Code    62  raw-os.o(.text)
    raw_pend_object                          0x1a0006a9   Thumb Code    70  raw-os.o(.text)
    raw_semaphore_get                        0x1a0006ef   Thumb Code   140  raw-os.o(.text)
    raw_task_semaphore_get                   0x1a00077b   Thumb Code    10  raw-os.o(.text)
    raw_task_create                          0x1a0007a1   Thumb Code   266  raw-os.o(.text)
    tick_task_start                          0x1a0008ab   Thumb Code    56  raw-os.o(.text)
    raw_mutex_create                         0x1a0008e3   Thumb Code    66  raw-os.o(.text)
    raw_wake_object                          0x1a000985   Thumb Code     2  raw-os.o(.text)
    raw_mutex_put                            0x1a000987   Thumb Code   170  raw-os.o(.text)
    raw_mutex_get                            0x1a000a31   Thumb Code   346  raw-os.o(.text)
    raw_semaphore_set                        0x1a000b8b   Thumb Code    84  raw-os.o(.text)
    timer_task                               0x1a000bdf   Thumb Code   166  raw-os.o(.text)
    raw_timer_init                           0x1a000c85   Thumb Code    66  raw-os.o(.text)
    raw_idle_task                            0x1a000cc7   Thumb Code    30  raw-os.o(.text)
    tick_list_init                           0x1a000ce5   Thumb Code    24  raw-os.o(.text)
    run_queue_init                           0x1a000cfd   Thumb Code    26  raw-os.o(.text)
    raw_os_init                              0x1a000d17   Thumb Code   132  raw-os.o(.text)
    raw_os_start                             0x1a000d9b   Thumb Code    36  raw-os.o(.text)
    move_to_ready_list_end                   0x1a000dbf   Thumb Code    34  raw-os.o(.text)
    calculate_time_slice                     0x1a000de1   Thumb Code    76  raw-os.o(.text)
    wake_send_msg                            0x1a000e2d   Thumb Code     4  raw-os.o(.text)
    wake_send_msg_size                       0x1a000e31   Thumb Code     6  raw-os.o(.text)
    delete_pend_obj                          0x1a000e37   Thumb Code    98  raw-os.o(.text)
    raw_task_stack_check                     0x1a000e99   Thumb Code    52  raw-os.o(.text)
    raw_isr_stack_check                      0x1a000ecd   Thumb Code    14  raw-os.o(.text)
    raw_disable_sche                         0x1a000edb   Thumb Code    42  raw-os.o(.text)
    raw_enable_sche                          0x1a000f05   Thumb Code    58  raw-os.o(.text)
    raw_sleep                                0x1a000f3f   Thumb Code   174  raw-os.o(.text)
    raw_task_yield                           0x1a000fed   Thumb Code    36  raw-os.o(.text)
    raw_time_sleep                           0x1a001011   Thumb Code    94  raw-os.o(.text)
    task_suspend                             0x1a00106f   Thumb Code   154  raw-os.o(.text)
    raw_task_suspend                         0x1a001109   Thumb Code    24  raw-os.o(.text)
    task_resume                              0x1a001121   Thumb Code   162  raw-os.o(.text)
    raw_task_resume                          0x1a0011c3   Thumb Code    10  raw-os.o(.text)
    chg_pri_mutex                            0x1a0011cd   Thumb Code   114  raw-os.o(.text)
    raw_task_priority_change                 0x1a00123f   Thumb Code   140  raw-os.o(.text)
    raw_task_free_mutex                      0x1a0012cb   Thumb Code    68  raw-os.o(.text)
    raw_task_delete                          0x1a00130f   Thumb Code   180  raw-os.o(.text)
    raw_set_task_user_point                  0x1a0013c3   Thumb Code    34  raw-os.o(.text)
    raw_get_task_user_point                  0x1a0013e5   Thumb Code     8  raw-os.o(.text)
    raw_task_time_slice_change               0x1a0013ed   Thumb Code    52  raw-os.o(.text)
    raw_set_sched_way                        0x1a001421   Thumb Code    56  raw-os.o(.text)
    raw_get_sched_way                        0x1a001459   Thumb Code    46  raw-os.o(.text)
    raw_task_wait_abort                      0x1a001487   Thumb Code   164  raw-os.o(.text)
    raw_task_identify                        0x1a00152b   Thumb Code     6  raw-os.o(.text)
    raw_iter_block_task                      0x1a001531   Thumb Code    72  raw-os.o(.text)
    raw_get_system_global_space              0x1a001579   Thumb Code     6  raw-os.o(.text)
    raw_block_pool_create                    0x1a00157f   Thumb Code   108  raw-os.o(.text)
    raw_block_allocate                       0x1a0015eb   Thumb Code    76  raw-os.o(.text)
    raw_block_release                        0x1a001637   Thumb Code    52  raw-os.o(.text)
    raw_byte_pool_create                     0x1a00166b   Thumb Code    88  raw-os.o(.text)
    raw_byte_allocate                        0x1a0016c3   Thumb Code    94  raw-os.o(.text)
    raw_byte_release                         0x1a001721   Thumb Code    64  raw-os.o(.text)
    raw_event_create                         0x1a001761   Thumb Code    42  raw-os.o(.text)
    raw_event_get                            0x1a00178b   Thumb Code   238  raw-os.o(.text)
    event_set                                0x1a001879   Thumb Code   132  raw-os.o(.text)
    raw_event_set                            0x1a0018fd   Thumb Code    22  raw-os.o(.text)
    raw_event_delete                         0x1a001913   Thumb Code    96  raw-os.o(.text)
    raw_mutex_delete                         0x1a001973   Thumb Code   104  raw-os.o(.text)
    raw_queue_create                         0x1a0019db   Thumb Code    78  raw-os.o(.text)
    raw_queue_block_way_set                  0x1a001a29   Thumb Code    14  raw-os.o(.text)
    raw_queue_full_register                  0x1a001a37   Thumb Code    32  raw-os.o(.text)
    msg_post                                 0x1a001a57   Thumb Code   198  raw-os.o(.text)
    raw_queue_front_post                     0x1a001b1d   Thumb Code    22  raw-os.o(.text)
    raw_queue_end_post                       0x1a001b33   Thumb Code    22  raw-os.o(.text)
    raw_queue_post_notify                    0x1a001b49   Thumb Code    22  raw-os.o(.text)
    raw_queue_all_post                       0x1a001b5f   Thumb Code    20  raw-os.o(.text)
    raw_queue_send_notify                    0x1a001b73   Thumb Code    56  raw-os.o(.text)
    raw_queue_receive                        0x1a001bab   Thumb Code   214  raw-os.o(.text)
    raw_queue_full_check                     0x1a001c81   Thumb Code    58  raw-os.o(.text)
    raw_queue_flush                          0x1a001cbb   Thumb Code    70  raw-os.o(.text)
    raw_queue_delete                         0x1a001d01   Thumb Code    94  raw-os.o(.text)
    raw_queue_get_information                0x1a001d5f   Thumb Code    82  raw-os.o(.text)
    raw_queue_buffer_create                  0x1a001db1   Thumb Code    98  raw-os.o(.text)
    queue_buffer_post                        0x1a001e13   Thumb Code   194  raw-os.o(.text)
    raw_queue_buffer_end_post                0x1a001ed5   Thumb Code    30  raw-os.o(.text)
    raw_queue_buffer_receive                 0x1a001ef3   Thumb Code   288  raw-os.o(.text)
    raw_queue_buffer_flush                   0x1a002013   Thumb Code    62  raw-os.o(.text)
    raw_queue_buffer_delete                  0x1a002051   Thumb Code    94  raw-os.o(.text)
    raw_queue_buffer_info_get                0x1a0020af   Thumb Code    66  raw-os.o(.text)
    raw_queue_size_create                    0x1a0020f1   Thumb Code    90  raw-os.o(.text)
    raw_queue_size_full_register             0x1a00214b   Thumb Code    32  raw-os.o(.text)
    msg_size_post                            0x1a00216b   Thumb Code   198  raw-os.o(.text)
    raw_queue_size_receive                   0x1a002231   Thumb Code   258  raw-os.o(.text)
    raw_queue_size_front_post                0x1a002333   Thumb Code    30  raw-os.o(.text)
    raw_queue_size_end_post                  0x1a002351   Thumb Code    30  raw-os.o(.text)
    raw_queue_size_all_post                  0x1a00236f   Thumb Code    28  raw-os.o(.text)
    raw_queue_size_full_check                0x1a00238b   Thumb Code    58  raw-os.o(.text)
    raw_queue_size_flush                     0x1a0023c5   Thumb Code    74  raw-os.o(.text)
    raw_queue_size_delete                    0x1a00240f   Thumb Code    94  raw-os.o(.text)
    raw_queue_size_get_information           0x1a00246d   Thumb Code    78  raw-os.o(.text)
    raw_semaphore_block_way_set              0x1a0024bb   Thumb Code    26  raw-os.o(.text)
    semaphore_put                            0x1a0024d5   Thumb Code   138  raw-os.o(.text)
    raw_semaphore_put                        0x1a00255f   Thumb Code    12  raw-os.o(.text)
    raw_semaphore_put_notify                 0x1a00256b   Thumb Code    12  raw-os.o(.text)
    raw_semaphore_put_all                    0x1a002577   Thumb Code    12  raw-os.o(.text)
    raw_semphore_send_notify                 0x1a002583   Thumb Code    56  raw-os.o(.text)
    raw_semaphore_delete                     0x1a0025bb   Thumb Code    94  raw-os.o(.text)
    raw_stack_check                          0x1a002619   Thumb Code    68  raw-os.o(.text)
    raw_statistics_check                     0x1a00265d   Thumb Code    46  raw-os.o(.text)
    raw_finish_int                           0x1a00268b   Thumb Code    80  raw-os.o(.text)
    call_timer_task                          0x1a0026db   Thumb Code    20  raw-os.o(.text)
    raw_task_semaphore_put                   0x1a0026ef   Thumb Code     4  raw-os.o(.text)
    raw_time_tick                            0x1a0026f3   Thumb Code    48  raw-os.o(.text)
    raw_enter_interrupt                      0x1a002723   Thumb Code    62  raw-os.o(.text)
    raw_system_time_get                      0x1a002761   Thumb Code    36  raw-os.o(.text)
    raw_os_version_get                       0x1a002785   Thumb Code     6  raw-os.o(.text)
    raw_task_qsize_create                    0x1a00278b   Thumb Code    20  raw-os.o(.text)
    raw_task_qsize_receive                   0x1a00279f   Thumb Code    20  raw-os.o(.text)
    raw_task_qsize_front_post                0x1a0027b3   Thumb Code     4  raw-os.o(.text)
    raw_task_qsize_end_post                  0x1a0027b7   Thumb Code     4  raw-os.o(.text)
    raw_task_qsize_flush                     0x1a0027bb   Thumb Code     4  raw-os.o(.text)
    raw_task_qsize_delete                    0x1a0027bf   Thumb Code     4  raw-os.o(.text)
    raw_task_qsize_get_information           0x1a0027c3   Thumb Code     4  raw-os.o(.text)
    raw_task_semaphore_set                   0x1a0027c7   Thumb Code     6  raw-os.o(.text)
    raw_task_semaphore_delete                0x1a0027cd   Thumb Code     4  raw-os.o(.text)
    raw_timer_activate                       0x1a0027d1   Thumb Code   132  raw-os.o(.text)
    raw_timer_create                         0x1a002855   Thumb Code    96  raw-os.o(.text)
    raw_timer_change                         0x1a0028b5   Thumb Code   104  raw-os.o(.text)
    raw_timer_deactivate                     0x1a00291d   Thumb Code   132  raw-os.o(.text)
    raw_timer_delete                         0x1a0029a1   Thumb Code   108  raw-os.o(.text)
    fifo_init                                0x1a002b89   Thumb Code    68  fifo.o(.text)
    fifo_in                                  0x1a002bcd   Thumb Code    92  fifo.o(.text)
    fifo_out_peek                            0x1a002c67   Thumb Code    38  fifo.o(.text)
    fifo_out                                 0x1a002c8d   Thumb Code    50  fifo.o(.text)
    fifo_out_all                             0x1a002cbf   Thumb Code    62  fifo.o(.text)
    OS_CPU_SR_Save                           0x1a002cfd   Thumb Code     0  cpu.o(.text)
    OS_CPU_SR_Restore                        0x1a002d05   Thumb Code     0  cpu.o(.text)
    CPU_IntDis                               0x1a002d0b   Thumb Code     0  cpu.o(.text)
    CPU_IntEn                                0x1a002d0f   Thumb Code     0  cpu.o(.text)
    raw_start_first_task                     0x1a002d13   Thumb Code     0  cpu.o(.text)
    port_task_switch                         0x1a002d3b   Thumb Code     0  cpu.o(.text)
    raw_int_switch                           0x1a002d45   Thumb Code     0  cpu.o(.text)
    PendSV_Handler                           0x1a002d4f   Thumb Code     0  cpu.o(.text)
    port_stack_init                          0x1a002da9   Thumb Code   324  port.o(.text)
    port_isr_stack_check                     0x1a002eed   Thumb Code     2  port.o(.text)
    port_isr_stack_free_check                0x1a002eef   Thumb Code    20  port.o(.text)
    system_mpu_enable                        0x1a002f03   Thumb Code    46  port.o(.text)
    task_stack_mpu_set                       0x1a002f31   Thumb Code    28  port.o(.text)
    raw_os_init_hook                         0x1a002f5d   Thumb Code    14  port_hook.o(.text)
    raw_task_delete_hook                     0x1a002f6b   Thumb Code     2  port_hook.o(.text)
    raw_task_abort_hook                      0x1a002f6d   Thumb Code     2  port_hook.o(.text)
    raw_idle_task_hook                       0x1a002f6f   Thumb Code     2  port_hook.o(.text)
    raw_task_switch_hook                     0x1a002f71   Thumb Code     2  port_hook.o(.text)
    raw_tick_hook                            0x1a002f73   Thumb Code     2  port_hook.o(.text)
    task_create_hook                         0x1a002f75   Thumb Code     2  port_hook.o(.text)
    raw_idle_coroutine_hook                  0x1a002f77   Thumb Code     4  port_hook.o(.text)
    raw_memcpy                               0x1a002f7b   Thumb Code    74  user_extension.o(.text)
    raw_memset                               0x1a002fc5   Thumb Code    62  user_extension.o(.text)
    port_system_error_process                0x1a003003   Thumb Code    88  port_error_process.o(.text)
    cpu_timer_init                           0x1a00305d   Thumb Code    26  port_extension.o(.text)
    user_cpu_time_get                        0x1a003077   Thumb Code     6  port_extension.o(.text)
    user_sys_time_get                        0x1a00307d   Thumb Code     6  port_extension.o(.text)
    Reset_Handler                            0x1a00308d   Thumb Code     8  keil_startup_lpc18xx43xx.o(.text)
    NMI_Handler                              0x1a003095   Thumb Code     2  keil_startup_lpc18xx43xx.o(.text)
    HardFault_Handler                        0x1a003097   Thumb Code     2  keil_startup_lpc18xx43xx.o(.text)
    MemManage_Handler                        0x1a003099   Thumb Code     2  keil_startup_lpc18xx43xx.o(.text)
    BusFault_Handler                         0x1a00309b   Thumb Code     2  keil_startup_lpc18xx43xx.o(.text)
    UsageFault_Handler                       0x1a00309d   Thumb Code     2  keil_startup_lpc18xx43xx.o(.text)
    SVC_Handler                              0x1a00309f   Thumb Code     2  keil_startup_lpc18xx43xx.o(.text)
    DebugMon_Handler                         0x1a0030a1   Thumb Code     2  keil_startup_lpc18xx43xx.o(.text)
    UnHandled_Vector                         0x1a0030a7   Thumb Code     2  keil_startup_lpc18xx43xx.o(.text)
    ADC0_IRQHandler                          0x1a0030a9   Thumb Code     0  keil_startup_lpc18xx43xx.o(.text)
    ADC1_IRQHandler                          0x1a0030a9   Thumb Code     0  keil_startup_lpc18xx43xx.o(.text)
    ADCHS_IRQHandler                         0x1a0030a9   Thumb Code     0  keil_startup_lpc18xx43xx.o(.text)
    ATIMER_IRQHandler                        0x1a0030a9   Thumb Code     0  keil_startup_lpc18xx43xx.o(.text)
    CAN0_IRQHandler                          0x1a0030a9   Thumb Code     0  keil_startup_lpc18xx43xx.o(.text)
    CAN1_IRQHandler                          0x1a0030a9   Thumb Code     0  keil_startup_lpc18xx43xx.o(.text)
    DAC_IRQHandler                           0x1a0030a9   Thumb Code     0  keil_startup_lpc18xx43xx.o(.text)
    DMA_IRQHandler                           0x1a0030a9   Thumb Code     0  keil_startup_lpc18xx43xx.o(.text)
    EVRT_IRQHandler                          0x1a0030a9   Thumb Code     0  keil_startup_lpc18xx43xx.o(.text)
    FLASHEEPROM_IRQHandler                   0x1a0030a9   Thumb Code     0  keil_startup_lpc18xx43xx.o(.text)
    GINT0_IRQHandler                         0x1a0030a9   Thumb Code     0  keil_startup_lpc18xx43xx.o(.text)
    GINT1_IRQHandler                         0x1a0030a9   Thumb Code     0  keil_startup_lpc18xx43xx.o(.text)
    GPIO0_IRQHandler                         0x1a0030a9   Thumb Code     0  keil_startup_lpc18xx43xx.o(.text)
    GPIO1_IRQHandler                         0x1a0030a9   Thumb Code     0  keil_startup_lpc18xx43xx.o(.text)
    GPIO2_IRQHandler                         0x1a0030a9   Thumb Code     0  keil_startup_lpc18xx43xx.o(.text)
    GPIO3_IRQHandler                         0x1a0030a9   Thumb Code     0  keil_startup_lpc18xx43xx.o(.text)
    GPIO4_IRQHandler                         0x1a0030a9   Thumb Code     0  keil_startup_lpc18xx43xx.o(.text)
    GPIO5_IRQHandler                         0x1a0030a9   Thumb Code     0  keil_startup_lpc18xx43xx.o(.text)
    GPIO6_IRQHandler                         0x1a0030a9   Thumb Code     0  keil_startup_lpc18xx43xx.o(.text)
    GPIO7_IRQHandler                         0x1a0030a9   Thumb Code     0  keil_startup_lpc18xx43xx.o(.text)
    I2C0_IRQHandler                          0x1a0030a9   Thumb Code     0  keil_startup_lpc18xx43xx.o(.text)
    I2C1_IRQHandler                          0x1a0030a9   Thumb Code     0  keil_startup_lpc18xx43xx.o(.text)
    I2S0_IRQHandler                          0x1a0030a9   Thumb Code     0  keil_startup_lpc18xx43xx.o(.text)
    I2S1_IRQHandler                          0x1a0030a9   Thumb Code     0  keil_startup_lpc18xx43xx.o(.text)
    LCD_IRQHandler                           0x1a0030a9   Thumb Code     0  keil_startup_lpc18xx43xx.o(.text)
    MCPWM_IRQHandler                         0x1a0030a9   Thumb Code     0  keil_startup_lpc18xx43xx.o(.text)
    MX_CORE_IRQHandler                       0x1a0030a9   Thumb Code     0  keil_startup_lpc18xx43xx.o(.text)
    QEI_IRQHandler                           0x1a0030a9   Thumb Code     0  keil_startup_lpc18xx43xx.o(.text)
    RIT_IRQHandler                           0x1a0030a9   Thumb Code     0  keil_startup_lpc18xx43xx.o(.text)
    RTC_IRQHandler                           0x1a0030a9   Thumb Code     0  keil_startup_lpc18xx43xx.o(.text)
    SCT_IRQHandler                           0x1a0030a9   Thumb Code     0  keil_startup_lpc18xx43xx.o(.text)
    SDIO_IRQHandler                          0x1a0030a9   Thumb Code     0  keil_startup_lpc18xx43xx.o(.text)
    SGPIO_IRQHandler                         0x1a0030a9   Thumb Code     0  keil_startup_lpc18xx43xx.o(.text)
    SPIFI_IRQHandler                         0x1a0030a9   Thumb Code     0  keil_startup_lpc18xx43xx.o(.text)
    SPI_IRQHandler                           0x1a0030a9   Thumb Code     0  keil_startup_lpc18xx43xx.o(.text)
    SSP0_IRQHandler                          0x1a0030a9   Thumb Code     0  keil_startup_lpc18xx43xx.o(.text)
    SSP1_IRQHandler                          0x1a0030a9   Thumb Code     0  keil_startup_lpc18xx43xx.o(.text)
    TIMER0_IRQHandler                        0x1a0030a9   Thumb Code     0  keil_startup_lpc18xx43xx.o(.text)
    TIMER1_IRQHandler                        0x1a0030a9   Thumb Code     0  keil_startup_lpc18xx43xx.o(.text)
    TIMER2_IRQHandler                        0x1a0030a9   Thumb Code     0  keil_startup_lpc18xx43xx.o(.text)
    TIMER3_IRQHandler                        0x1a0030a9   Thumb Code     0  keil_startup_lpc18xx43xx.o(.text)
    UART0_IRQHandler                         0x1a0030a9   Thumb Code     0  keil_startup_lpc18xx43xx.o(.text)
    UART1_IRQHandler                         0x1a0030a9   Thumb Code     0  keil_startup_lpc18xx43xx.o(.text)
    UART2_IRQHandler                         0x1a0030a9   Thumb Code     0  keil_startup_lpc18xx43xx.o(.text)
    USB0_IRQHandler                          0x1a0030a9   Thumb Code     0  keil_startup_lpc18xx43xx.o(.text)
    USB1_IRQHandler                          0x1a0030a9   Thumb Code     0  keil_startup_lpc18xx43xx.o(.text)
    WDT_IRQHandler                           0x1a0030a9   Thumb Code     0  keil_startup_lpc18xx43xx.o(.text)
    __user_initial_stackheap                 0x1a0030ad   Thumb Code     0  keil_startup_lpc18xx43xx.o(.text)
    SystemInit                               0x1a0030d1   Thumb Code    20  sysinit.o(.text)
    scu_pinmux                               0x1a0030ed   Thumb Code    16  lpc43xx_scu.o(.text)
    emc_init                                 0x1a003101   Thumb Code   944  lpc43xx_sdram.o(.text)
    sdram_init                               0x1a0034b1   Thumb Code   144  lpc43xx_sdram.o(.text)
    SysTick_Handler                          0x1a00355d   Thumb Code    18  main.o(.text)
    OS_CPU_SysTickInit                       0x1a00356f   Thumb Code    48  main.o(.text)
    uart_3_recv                              0x1a00359f   Thumb Code    76  main.o(.text)
    UART3_IRQHandler                         0x1a0035eb   Thumb Code    56  main.o(.text)
    shell_task                               0x1a003623   Thumb Code   272  main.o(.text)
    main                                     0x1a003733   Thumb Code    56  main.o(.text)
    GPIO_SetDir                              0x1a003839   Thumb Code    22  lpc43xx_gpio.o(.text)
    GPIO_SetValue                            0x1a00384f   Thumb Code    12  lpc43xx_gpio.o(.text)
    GPIO_ClearValue                          0x1a00385b   Thumb Code    12  lpc43xx_gpio.o(.text)
    GPIO_ReadValue                           0x1a003867   Thumb Code    12  lpc43xx_gpio.o(.text)
    tftp_client_init                         0x1a003ab9   Thumb Code    22  client.o(.text)
    netconn_new_with_proto_and_callback      0x1a003ca5   Thumb Code   170  api_lib.o(.text)
    netconn_delete                           0x1a003d4f   Thumb Code    32  api_lib.o(.text)
    netconn_getaddr                          0x1a003d6f   Thumb Code   120  api_lib.o(.text)
    netconn_bind                             0x1a003de7   Thumb Code    76  api_lib.o(.text)
    netconn_connect                          0x1a003e33   Thumb Code    76  api_lib.o(.text)
    netconn_disconnect                       0x1a003e7f   Thumb Code    70  api_lib.o(.text)
    netconn_listen_with_backlog              0x1a003ec5   Thumb Code    70  api_lib.o(.text)
    netconn_accept                           0x1a003f0b   Thumb Code   176  api_lib.o(.text)
    netconn_recv_tcp_pbuf                    0x1a0040ed   Thumb Code    40  api_lib.o(.text)
    netconn_recv                             0x1a004115   Thumb Code   208  api_lib.o(.text)
    netconn_recved                           0x1a0041e5   Thumb Code    40  api_lib.o(.text)
    netconn_send                             0x1a00420d   Thumb Code    72  api_lib.o(.text)
    netconn_sendto                           0x1a004255   Thumb Code    18  api_lib.o(.text)
    netconn_write_partly                     0x1a004267   Thumb Code   188  api_lib.o(.text)
    netconn_close                            0x1a00436d   Thumb Code     4  api_lib.o(.text)
    netconn_shutdown                         0x1a004371   Thumb Code    12  api_lib.o(.text)
    netconn_free                             0x1a004a8f   Thumb Code    98  api_msg.o(.text)
    netconn_alloc                            0x1a004af1   Thumb Code   138  api_msg.o(.text)
    do_newconn                               0x1a004c11   Thumb Code    32  api_msg.o(.text)
    do_delconn                               0x1a004cdd   Thumb Code   242  api_msg.o(.text)
    do_bind                                  0x1a004dcf   Thumb Code    82  api_msg.o(.text)
    do_connect                               0x1a004ebf   Thumb Code   166  api_msg.o(.text)
    do_disconnect                            0x1a004f65   Thumb Code    42  api_msg.o(.text)
    do_listen                                0x1a004f8f   Thumb Code   168  api_msg.o(.text)
    do_send                                  0x1a005037   Thumb Code   148  api_msg.o(.text)
    do_recv                                  0x1a0050cb   Thumb Code    68  api_msg.o(.text)
    do_write                                 0x1a00510f   Thumb Code   122  api_msg.o(.text)
    do_getaddr                               0x1a005189   Thumb Code   134  api_msg.o(.text)
    do_close                                 0x1a00520f   Thumb Code   138  api_msg.o(.text)
    netbuf_new                               0x1a005341   Thumb Code    32  netbuf.o(.text)
    netbuf_delete                            0x1a005361   Thumb Code    32  netbuf.o(.text)
    netbuf_alloc                             0x1a005381   Thumb Code    86  netbuf.o(.text)
    netbuf_free                              0x1a0053d7   Thumb Code    42  netbuf.o(.text)
    netbuf_ref                               0x1a005401   Thumb Code    84  netbuf.o(.text)
    netbuf_chain                             0x1a005455   Thumb Code    72  netbuf.o(.text)
    netbuf_data                              0x1a00549d   Thumb Code    94  netbuf.o(.text)
    netbuf_next                              0x1a0054fb   Thumb Code    50  netbuf.o(.text)
    netbuf_first                             0x1a00552d   Thumb Code    30  netbuf.o(.text)
    lwip_socket_init                         0x1a005551   Thumb Code     2  sockets.o(.text)
    lwip_accept                              0x1a0056e1   Thumb Code   358  sockets.o(.text)
    lwip_bind                                0x1a005847   Thumb Code   112  sockets.o(.text)
    lwip_close                               0x1a0058b7   Thumb Code   100  sockets.o(.text)
    lwip_connect                             0x1a00591b   Thumb Code   126  sockets.o(.text)
    lwip_listen                              0x1a005999   Thumb Code    86  sockets.o(.text)
    lwip_recvfrom                            0x1a0059ef   Thumb Code   478  sockets.o(.text)
    lwip_read                                0x1a005bcd   Thumb Code    14  sockets.o(.text)
    lwip_recv                                0x1a005bdb   Thumb Code    14  sockets.o(.text)
    lwip_sendto                              0x1a005be9   Thumb Code   218  sockets.o(.text)
    lwip_send                                0x1a005cc3   Thumb Code   116  sockets.o(.text)
    lwip_socket                              0x1a005d37   Thumb Code   112  sockets.o(.text)
    lwip_write                               0x1a005da7   Thumb Code     4  sockets.o(.text)
    lwip_select                              0x1a005ebb   Thumb Code   708  sockets.o(.text)
    lwip_shutdown                            0x1a00617f   Thumb Code   108  sockets.o(.text)
    lwip_getpeername                         0x1a006255   Thumb Code     4  sockets.o(.text)
    lwip_getsockname                         0x1a006259   Thumb Code     4  sockets.o(.text)
    lwip_getsockopt                          0x1a0063b9   Thumb Code   242  sockets.o(.text)
    lwip_setsockopt                          0x1a0065df   Thumb Code   222  sockets.o(.text)
    lwip_ioctl                               0x1a0066bd   Thumb Code    68  sockets.o(.text)
    lwip_fcntl                               0x1a006701   Thumb Code    70  sockets.o(.text)
    tcpip_input                              0x1a00680f   Thumb Code    72  tcpip.o(.text)
    tcpip_callback_with_block                0x1a006857   Thumb Code    90  tcpip.o(.text)
    tcpip_timeout                            0x1a0068b1   Thumb Code    62  tcpip.o(.text)
    tcpip_untimeout                          0x1a0068ef   Thumb Code    58  tcpip.o(.text)
    tcpip_apimsg                             0x1a006929   Thumb Code    56  tcpip.o(.text)
    tcpip_callbackmsg_new                    0x1a006961   Thumb Code    28  tcpip.o(.text)
    tcpip_callbackmsg_delete                 0x1a00697d   Thumb Code     4  tcpip.o(.text)
    tcpip_trycallback                        0x1a006981   Thumb Code    24  tcpip.o(.text)
    tcpip_init                               0x1a006999   Thumb Code    64  tcpip.o(.text)
    pbuf_free_callback                       0x1a0069dd   Thumb Code     8  tcpip.o(.text)
    mem_free_callback                        0x1a0069e5   Thumb Code     8  tcpip.o(.text)
    lwip_htons                               0x1a006a11   Thumb Code     4  def.o(.text)
    lwip_ntohs                               0x1a006a15   Thumb Code     4  def.o(.text)
    lwip_htonl                               0x1a006a19   Thumb Code     4  def.o(.text)
    lwip_ntohl                               0x1a006a1d   Thumb Code     4  def.o(.text)
    dhcp_renew                               0x1a006f6d   Thumb Code   156  dhcp.o(.text)
    dhcp_coarse_tmr                          0x1a007093   Thumb Code    90  dhcp.o(.text)
    dhcp_release                             0x1a007189   Thumb Code   160  dhcp.o(.text)
    dhcp_fine_tmr                            0x1a00730f   Thumb Code    46  dhcp.o(.text)
    dhcp_set_struct                          0x1a00733d   Thumb Code    78  dhcp.o(.text)
    dhcp_cleanup                             0x1a00738b   Thumb Code    40  dhcp.o(.text)
    dhcp_stop                                0x1a0073b3   Thumb Code    82  dhcp.o(.text)
    dhcp_start                               0x1a007839   Thumb Code   226  dhcp.o(.text)
    dhcp_inform                              0x1a00791b   Thumb Code   166  dhcp.o(.text)
    dhcp_network_changed                     0x1a0079c1   Thumb Code    66  dhcp.o(.text)
    dhcp_arp_reply                           0x1a007a03   Thumb Code    52  dhcp.o(.text)
    lwip_init                                0x1a007bd5   Thumb Code    30  init.o(.text)
    netif_init                               0x1a007bf5   Thumb Code     2  netif.o(.text)
    netif_set_gw                             0x1a007bf7   Thumb Code     8  netif.o(.text)
    netif_set_netmask                        0x1a007bff   Thumb Code     8  netif.o(.text)
    netif_set_ipaddr                         0x1a007c07   Thumb Code    96  netif.o(.text)
    netif_set_addr                           0x1a007c67   Thumb Code    30  netif.o(.text)
    netif_add                                0x1a007c85   Thumb Code   104  netif.o(.text)
    netif_set_default                        0x1a007ced   Thumb Code     6  netif.o(.text)
    netif_set_down                           0x1a007cf3   Thumb Code    26  netif.o(.text)
    netif_remove                             0x1a007d0d   Thumb Code    68  netif.o(.text)
    netif_find                               0x1a007d51   Thumb Code    58  netif.o(.text)
    netif_set_up                             0x1a007d8b   Thumb Code    32  netif.o(.text)
    netif_set_link_up                        0x1a007dab   Thumb Code    56  netif.o(.text)
    netif_set_link_down                      0x1a007de3   Thumb Code    18  netif.o(.text)
    pbuf_free                                0x1a007e61   Thumb Code   168  pbuf.o(.text)
    pbuf_alloc                               0x1a007f09   Thumb Code   486  pbuf.o(.text)
    pbuf_alloced_custom                      0x1a0080ef   Thumb Code   100  pbuf.o(.text)
    pbuf_realloc                             0x1a008153   Thumb Code   194  pbuf.o(.text)
    pbuf_header                              0x1a008215   Thumb Code   152  pbuf.o(.text)
    pbuf_clen                                0x1a0082ad   Thumb Code    18  pbuf.o(.text)
    pbuf_ref                                 0x1a0082bf   Thumb Code    26  pbuf.o(.text)
    pbuf_cat                                 0x1a0082d9   Thumb Code   100  pbuf.o(.text)
    pbuf_chain                               0x1a00833d   Thumb Code    16  pbuf.o(.text)
    pbuf_dechain                             0x1a00834d   Thumb Code    96  pbuf.o(.text)
    pbuf_copy                                0x1a0083ad   Thumb Code   262  pbuf.o(.text)
    pbuf_copy_partial                        0x1a0084b3   Thumb Code   136  pbuf.o(.text)
    pbuf_take                                0x1a00853b   Thumb Code   154  pbuf.o(.text)
    pbuf_coalesce                            0x1a0085d5   Thumb Code    64  pbuf.o(.text)
    pbuf_fill_chksum                         0x1a008615   Thumb Code   152  pbuf.o(.text)
    pbuf_get_at                              0x1a0086ad   Thumb Code    24  pbuf.o(.text)
    pbuf_memcmp                              0x1a0086c5   Thumb Code    68  pbuf.o(.text)
    pbuf_memfind                             0x1a008709   Thumb Code    56  pbuf.o(.text)
    pbuf_strstr                              0x1a008741   Thumb Code    50  pbuf.o(.text)
    raw_input                                0x1a008775   Thumb Code   128  raw.o(.text)
    raw_bind                                 0x1a0087f5   Thumb Code    10  raw.o(.text)
    raw_connect                              0x1a0087ff   Thumb Code    10  raw.o(.text)
    raw_recv                                 0x1a008809   Thumb Code     6  raw.o(.text)
    raw_sendto                               0x1a00880f   Thumb Code   198  raw.o(.text)
    raw_send                                 0x1a0088d5   Thumb Code     4  raw.o(.text)
    raw_remove                               0x1a0088d9   Thumb Code    36  raw.o(.text)
    raw_new                                  0x1a0088fd   Thumb Code    40  raw.o(.text)
    tcp_init                                 0x1a008935   Thumb Code     2  tcp.o(.text)
    tcp_seg_free                             0x1a008937   Thumb Code    26  tcp.o(.text)
    tcp_segs_free                            0x1a008951   Thumb Code    18  tcp.o(.text)
    tcp_pcb_purge                            0x1a008963   Thumb Code    66  tcp.o(.text)
    tcp_slowtmr                              0x1a0089a5   Thumb Code   822  tcp.o(.text)
    tcp_pcb_remove                           0x1a008cdb   Thumb Code   150  tcp.o(.text)
    tcp_close                                0x1a008eaf   Thumb Code    18  tcp.o(.text)
    tcp_update_rcv_ann_wnd                   0x1a008ec1   Thumb Code    78  tcp.o(.text)
    tcp_recved                               0x1a008f0f   Thumb Code   110  tcp.o(.text)
    tcp_recv_null                            0x1a008f7d   Thumb Code    34  tcp.o(.text)
    tcp_process_refused_data                 0x1a008f9f   Thumb Code   104  tcp.o(.text)
    tcp_fasttmr                              0x1a009007   Thumb Code    88  tcp.o(.text)
    tcp_tmr                                  0x1a00905f   Thumb Code    28  tcp.o(.text)
    tcp_shutdown                             0x1a00907b   Thumb Code    76  tcp.o(.text)
    tcp_abandon                              0x1a0090c7   Thumb Code   166  tcp.o(.text)
    tcp_abort                                0x1a00916d   Thumb Code     4  tcp.o(.text)
    tcp_bind                                 0x1a0091c5   Thumb Code   144  tcp.o(.text)
    tcp_listen_with_backlog                  0x1a00925b   Thumb Code   142  tcp.o(.text)
    tcp_eff_send_mss                         0x1a0092e9   Thumb Code    32  tcp.o(.text)
    tcp_next_iss                             0x1a009309   Thumb Code    12  tcp.o(.text)
    tcp_connect                              0x1a009315   Thumb Code   260  tcp.o(.text)
    tcp_setprio                              0x1a009419   Thumb Code     4  tcp.o(.text)
    tcp_seg_copy                             0x1a00941d   Thumb Code    38  tcp.o(.text)
    tcp_alloc                                0x1a009443   Thumb Code   242  tcp.o(.text)
    tcp_new                                  0x1a009535   Thumb Code     4  tcp.o(.text)
    tcp_arg                                  0x1a009539   Thumb Code     4  tcp.o(.text)
    tcp_recv                                 0x1a00953d   Thumb Code    36  tcp.o(.text)
    tcp_sent                                 0x1a009561   Thumb Code    34  tcp.o(.text)
    tcp_err                                  0x1a009583   Thumb Code    36  tcp.o(.text)
    tcp_accept                               0x1a0095a7   Thumb Code     4  tcp.o(.text)
    tcp_poll                                 0x1a0095ab   Thumb Code    42  tcp.o(.text)
    tcp_debug_state_str                      0x1a0095d5   Thumb Code     8  tcp.o(.text)
    tcp_input                                0x1a00a3d1   Thumb Code   976  tcp_in.o(.text)
    tcp_enqueue_flags                        0x1a00a959   Thumb Code   298  tcp_out.o(.text)
    tcp_send_fin                             0x1a00aa83   Thumb Code    68  tcp_out.o(.text)
    tcp_write                                0x1a00ab29   Thumb Code  1144  tcp_out.o(.text)
    tcp_send_empty_ack                       0x1a00afa1   Thumb Code    92  tcp_out.o(.text)
    tcp_output                               0x1a00b10d   Thumb Code   434  tcp_out.o(.text)
    tcp_rst                                  0x1a00b2bf   Thumb Code   160  tcp_out.o(.text)
    tcp_rexmit_rto                           0x1a00b35f   Thumb Code    44  tcp_out.o(.text)
    tcp_rexmit                               0x1a00b38b   Thumb Code    82  tcp_out.o(.text)
    tcp_rexmit_fast                          0x1a00b3dd   Thumb Code    88  tcp_out.o(.text)
    tcp_keepalive                            0x1a00b435   Thumb Code    90  tcp_out.o(.text)
    tcp_zero_window_probe                    0x1a00b48f   Thumb Code   164  tcp_out.o(.text)
    sys_timeout                              0x1a00b5c9   Thumb Code   106  timers.o(.text)
    tcp_timer_needed                         0x1a00b659   Thumb Code    34  timers.o(.text)
    sys_timeouts_init                        0x1a00b6cb   Thumb Code    52  timers.o(.text)
    sys_untimeout                            0x1a00b6ff   Thumb Code    66  timers.o(.text)
    sys_timeouts_mbox_fetch                  0x1a00b741   Thumb Code    96  timers.o(.text)
    udp_init                                 0x1a00b7c5   Thumb Code     2  udp.o(.text)
    udp_input                                0x1a00b7c7   Thumb Code   432  udp.o(.text)
    udp_bind                                 0x1a00b977   Thumb Code   190  udp.o(.text)
    udp_sendto_if_chksum                     0x1a00ba35   Thumb Code   310  udp.o(.text)
    udp_sendto_chksum                        0x1a00bb6b   Thumb Code    52  udp.o(.text)
    udp_sendto                               0x1a00bb9f   Thumb Code    14  udp.o(.text)
    udp_send                                 0x1a00bbad   Thumb Code     6  udp.o(.text)
    udp_send_chksum                          0x1a00bbb3   Thumb Code    16  udp.o(.text)
    udp_sendto_if                            0x1a00bbc3   Thumb Code    30  udp.o(.text)
    udp_connect                              0x1a00bbe1   Thumb Code    70  udp.o(.text)
    udp_disconnect                           0x1a00bc27   Thumb Code    16  udp.o(.text)
    udp_recv                                 0x1a00bc37   Thumb Code     6  udp.o(.text)
    udp_remove                               0x1a00bc3d   Thumb Code    36  udp.o(.text)
    udp_new                                  0x1a00bc61   Thumb Code    28  udp.o(.text)
    icmp_input                               0x1a00bc85   Thumb Code   356  icmp.o(.text)
    icmp_dest_unreach                        0x1a00be65   Thumb Code     6  icmp.o(.text)
    icmp_time_exceeded                       0x1a00be6b   Thumb Code     6  icmp.o(.text)
    inet_chksum_pseudo                       0x1a00beb5   Thumb Code   136  inet_chksum.o(.text)
    inet_chksum_pseudo_partial               0x1a00bf3d   Thumb Code   182  inet_chksum.o(.text)
    inet_chksum                              0x1a00bff3   Thumb Code    12  inet_chksum.o(.text)
    inet_chksum_pbuf                         0x1a00bfff   Thumb Code    72  inet_chksum.o(.text)
    lwip_chksum_copy                         0x1a00c047   Thumb Code    20  inet_chksum.o(.text)
    ip_route                                 0x1a00c05d   Thumb Code    54  ip.o(.text)
    ip_input                                 0x1a00c093   Thumb Code   378  ip.o(.text)
    ip_output_if                             0x1a00c20d   Thumb Code   280  ip.o(.text)
    ip_output                                0x1a00c325   Thumb Code    76  ip.o(.text)
    ip4_addr_isbroadcast                     0x1a00c37d   Thumb Code    46  ip_addr.o(.text)
    ip4_addr_netmask_valid                   0x1a00c3ab   Thumb Code    38  ip_addr.o(.text)
    ipaddr_aton                              0x1a00c3d1   Thumb Code   266  ip_addr.o(.text)
    ipaddr_addr                              0x1a00c4db   Thumb Code    20  ip_addr.o(.text)
    ipaddr_ntoa_r                            0x1a00c4ef   Thumb Code   118  ip_addr.o(.text)
    ipaddr_ntoa                              0x1a00c565   Thumb Code     6  ip_addr.o(.text)
    ip_reass_tmr                             0x1a00c685   Thumb Code    40  ip_frag.o(.text)
    ip_reass                                 0x1a00c87d   Thumb Code   422  ip_frag.o(.text)
    ip_frag                                  0x1a00ca63   Thumb Code   380  ip_frag.o(.text)
    etharp_tmr                               0x1a00cc29   Thumb Code    66  etharp.o(.text)
    etharp_cleanup_netif                     0x1a00cea5   Thumb Code    42  etharp.o(.text)
    etharp_find_addr                         0x1a00cecf   Thumb Code    76  etharp.o(.text)
    etharp_request                           0x1a00d023   Thumb Code    32  etharp.o(.text)
    etharp_query                             0x1a00d099   Thumb Code   290  etharp.o(.text)
    etharp_output                            0x1a00d1bb   Thumb Code   296  etharp.o(.text)
    ethernet_input                           0x1a00d2e3   Thumb Code   160  etharp.o(.text)
    lpc_rx_queue                             0x1a00d4c7   Thumb Code    78  lpc18xx_43xx_emac.o(.text)
    lpc_tx_ready                             0x1a00d515   Thumb Code     8  lpc18xx_43xx_emac.o(.text)
    lpc_enetif_input                         0x1a00d601   Thumb Code    58  lpc18xx_43xx_emac.o(.text)
    lpc_tx_reclaim                           0x1a00d663   Thumb Code   116  lpc18xx_43xx_emac.o(.text)
    ETH_IRQHandler                           0x1a00d887   Thumb Code    50  lpc18xx_43xx_emac.o(.text)
    lpc_emac_set_duplex                      0x1a00d8b9   Thumb Code    22  lpc18xx_43xx_emac.o(.text)
    lpc_emac_set_speed                       0x1a00d8cf   Thumb Code    22  lpc18xx_43xx_emac.o(.text)
    lpc_enetif_init                          0x1a00d8e5   Thumb Code   350  lpc18xx_43xx_emac.o(.text)
    sys_now                                  0x1a00db0d   Thumb Code     6  sys_arch.o(.text)
    sys_arch_protect                         0x1a00db13   Thumb Code    16  sys_arch.o(.text)
    sys_arch_unprotect                       0x1a00db23   Thumb Code     6  sys_arch.o(.text)
    sys_init                                 0x1a00db29   Thumb Code    34  sys_arch.o(.text)
    port_malloc                              0x1a00db4b   Thumb Code    38  sys_arch.o(.text)
    port_free                                0x1a00db71   Thumb Code    10  sys_arch.o(.text)
    port_calloc                              0x1a00db7b   Thumb Code    32  sys_arch.o(.text)
    sys_sem_new                              0x1a00db9b   Thumb Code    70  sys_arch.o(.text)
    sys_sem_free                             0x1a00dbe1   Thumb Code    48  sys_arch.o(.text)
    sys_arch_sem_wait                        0x1a00dc11   Thumb Code   144  sys_arch.o(.text)
    sys_sem_signal                           0x1a00dca1   Thumb Code    58  sys_arch.o(.text)
    sys_thread_new                           0x1a00dcdb   Thumb Code   144  sys_arch.o(.text)
    sys_mbox_new                             0x1a00dd6b   Thumb Code   156  sys_arch.o(.text)
    sys_mbox_free                            0x1a00de07   Thumb Code    56  sys_arch.o(.text)
    sys_mbox_post                            0x1a00de3f   Thumb Code    66  sys_arch.o(.text)
    sys_mbox_trypost                         0x1a00de81   Thumb Code    76  sys_arch.o(.text)
    sys_arch_mbox_fetch                      0x1a00decd   Thumb Code   222  sys_arch.o(.text)
    sys_arch_mbox_tryfetch                   0x1a00dfab   Thumb Code    86  sys_arch.o(.text)
    mac_reset                                0x1a00e005   Thumb Code    42  lwip_emac.o(.text)
    phy_reset                                0x1a00e061   Thumb Code   180  lwip_emac.o(.text)
    ethIsLink                                0x1a00e115   Thumb Code    20  lwip_emac.o(.text)
    Board_UARTPutChar                        0x1a00e15d   Thumb Code    26  board.o(.text)
    _sys_open                                0x1a00e177   Thumb Code     6  board.o(.text)
    fputc                                    0x1a00e17d   Thumb Code    20  board.o(.text)
    Board_UARTGetChar                        0x1a00e191   Thumb Code    28  board.o(.text)
    fgetc                                    0x1a00e1ad   Thumb Code    10  board.o(.text)
    ferror                                   0x1a00e1b7   Thumb Code     8  board.o(.text)
    _sys_exit                                0x1a00e1bf   Thumb Code     6  board.o(.text)
    Board_UART_Init                          0x1a00e35f   Thumb Code    88  board.o(.text)
    Board_Debug_Init                         0x1a00e3b7   Thumb Code    42  board.o(.text)
    Board_UARTPutSTR                         0x1a00e3e1   Thumb Code    22  board.o(.text)
    Board_LED_Set                            0x1a00e413   Thumb Code    28  board.o(.text)
    Board_LED_Test                           0x1a00e42f   Thumb Code    28  board.o(.text)
    Board_LED_Toggle                         0x1a00e44b   Thumb Code    24  board.o(.text)
    Board_ENET_GetMacADDR                    0x1a00e463   Thumb Code    22  board.o(.text)
    Board_Init                               0x1a00e479   Thumb Code    66  board.o(.text)
    Board_ADC_Init                           0x1a00e4bb   Thumb Code     2  board.o(.text)
    Board_I2C_Init                           0x1a00e4bd   Thumb Code    44  board.o(.text)
    Board_Audio_Init                         0x1a00e4e9   Thumb Code    52  board.o(.text)
    Board_InitLCDController                  0x1a00e51d   Thumb Code   660  board.o(.text)
    Board_LCD_Init                           0x1a00e7b1   Thumb Code    36  board.o(.text)
    Board_InitTouchController                0x1a00e7d5   Thumb Code   202  board.o(.text)
    Board_I2C_GetTouchPos                    0x1a00e89f   Thumb Code   196  board.o(.text)
    Board_GetTouchPos                        0x1a00e963   Thumb Code    60  board.o(.text)
    Board_SetLCDBacklight                    0x1a00e99f   Thumb Code    28  board.o(.text)
    Board_SDMMC_Init                         0x1a00e9bb   Thumb Code    74  board.o(.text)
    Board_SSP_Init                           0x1a00ea05   Thumb Code   106  board.o(.text)
    Board_Buttons_Init                       0x1a00ea6f   Thumb Code    24  board.o(.text)
    Board_Joystick_Init                      0x1a00ea87   Thumb Code   104  board.o(.text)
    Joystick_GetStatus                       0x1a00eaef   Thumb Code    96  board.o(.text)
    Buttons_GetStatus                        0x1a00eb4f   Thumb Code    24  board.o(.text)
    Board_DAC_Init                           0x1a00eb67   Thumb Code    18  board.o(.text)
    Board_SetupMuxing                        0x1a00ec31   Thumb Code    58  board_sysinit.o(.text)
    Board_SetupExtMemory                     0x1a00ec6b   Thumb Code    82  board_sysinit.o(.text)
    Board_SetupClocking                      0x1a00ecbd   Thumb Code   160  board_sysinit.o(.text)
    Board_SystemInit                         0x1a00ed5d   Thumb Code    12  board_sysinit.o(.text)
    lpc_phy_init                             0x1a00eeaf   Thumb Code   128  lpc_phy_dp83848.o(.text)
    lpcPHYStsPoll                            0x1a00ef2f   Thumb Code   106  lpc_phy_dp83848.o(.text)
    UDA1380_REG_VerifyMult                   0x1a00efad   Thumb Code    72  uda1380.o(.text)
    UDA1380_REG_WriteMult                    0x1a00eff5   Thumb Code    30  uda1380.o(.text)
    UDA1380_REG_Write                        0x1a00f037   Thumb Code    36  uda1380.o(.text)
    UDA1380_REG_Read                         0x1a00f05b   Thumb Code    42  uda1380.o(.text)
    UDA1380_REG_WriteVerify                  0x1a00f085   Thumb Code    34  uda1380.o(.text)
    UDA1380_Init                             0x1a00f0a7   Thumb Code   118  uda1380.o(.text)
    __aeabi_uldivmod                         0x1a00f131   Thumb Code     0  lludivv7m.o(.text)
    _ll_udiv                                 0x1a00f131   Thumb Code   238  lludivv7m.o(.text)
    __2printf                                0x1a00f221   Thumb Code    20  noretval__2printf.o(.text)
    __printf                                 0x1a00f239   Thumb Code   104  __printf.o(.text)
    _printf_int_dec                          0x1a00f2a1   Thumb Code   104  _printf_dec.o(.text)
    _printf_int_hex                          0x1a00f319   Thumb Code    84  _printf_hex_int.o(.text)
    _printf_longlong_hex                     0x1a00f319   Thumb Code     0  _printf_hex_int.o(.text)
    memcmp                                   0x1a00f371   Thumb Code    88  memcmp.o(.text)
    strlen                                   0x1a00f3c9   Thumb Code    62  strlen.o(.text)
    __aeabi_memcpy                           0x1a00f407   Thumb Code     0  rt_memcpy_v6.o(.text)
    __rt_memcpy                              0x1a00f407   Thumb Code   138  rt_memcpy_v6.o(.text)
    _memcpy_lastbytes                        0x1a00f46d   Thumb Code     0  rt_memcpy_v6.o(.text)
    __aeabi_memcpy4                          0x1a00f491   Thumb Code     0  rt_memcpy_w.o(.text)
    __aeabi_memcpy8                          0x1a00f491   Thumb Code     0  rt_memcpy_w.o(.text)
    __rt_memcpy_w                            0x1a00f491   Thumb Code   100  rt_memcpy_w.o(.text)
    _memcpy_lastbytes_aligned                0x1a00f4d9   Thumb Code     0  rt_memcpy_w.o(.text)
    __aeabi_memclr4                          0x1a00f4f5   Thumb Code     0  rt_memclr_w.o(.text)
    __aeabi_memclr8                          0x1a00f4f5   Thumb Code     0  rt_memclr_w.o(.text)
    __rt_memclr_w                            0x1a00f4f5   Thumb Code    78  rt_memclr_w.o(.text)
    _memset_w                                0x1a00f4f9   Thumb Code     0  rt_memclr_w.o(.text)
    __use_two_region_memory                  0x1a00f543   Thumb Code     2  heapauxi.o(.text)
    __rt_heap_escrow$2region                 0x1a00f545   Thumb Code     2  heapauxi.o(.text)
    __rt_heap_expand$2region                 0x1a00f547   Thumb Code     2  heapauxi.o(.text)
    _printf_int_common                       0x1a00f549   Thumb Code   178  _printf_intcommon.o(.text)
    _printf_char_file                        0x1a00f5fd   Thumb Code    32  _printf_char_file.o(.text)
    _printf_char_common                      0x1a00f62b   Thumb Code    32  _printf_char_common.o(.text)
    __user_setup_stackheap                   0x1a00f651   Thumb Code    74  sys_stackheap_outer.o(.text)
    exit                                     0x1a00f69b   Thumb Code    18  exit.o(.text)
    __user_libspace                          0x1a00f6ad   Thumb Code     8  libspace.o(.text)
    __user_perproc_libspace                  0x1a00f6ad   Thumb Code     0  libspace.o(.text)
    __user_perthread_libspace                0x1a00f6ad   Thumb Code     0  libspace.o(.text)
    Chip_Clock_Enable                        0x1a00f6b5   Thumb Code    46  clock_18xx_43xx.o(i.Chip_Clock_Enable)
    Chip_Clock_EnableOpts                    0x1a00f6ed   Thumb Code    52  clock_18xx_43xx.o(i.Chip_Clock_EnableOpts)
    Chip_Clock_GetBaseClock                  0x1a00f779   Thumb Code    32  clock_18xx_43xx.o(i.Chip_Clock_GetBaseClock)
    Chip_Clock_GetBaseClocktHz               0x1a00f79d   Thumb Code    18  clock_18xx_43xx.o(i.Chip_Clock_GetBaseClocktHz)
    Chip_Clock_GetClockInputHz               0x1a00f7b1   Thumb Code   182  clock_18xx_43xx.o(i.Chip_Clock_GetClockInputHz)
    Chip_Clock_GetDividerDivisor             0x1a00f8ad   Thumb Code    18  clock_18xx_43xx.o(i.Chip_Clock_GetDividerDivisor)
    Chip_Clock_GetDividerSource              0x1a00f8cd   Thumb Code    26  clock_18xx_43xx.o(i.Chip_Clock_GetDividerSource)
    Chip_Clock_GetEMCRate                    0x1a00f8ed   Thumb Code    38  clock_18xx_43xx.o(i.Chip_Clock_GetEMCRate)
    Chip_Clock_GetMainPLLHz                  0x1a00f91d   Thumb Code   110  clock_18xx_43xx.o(i.Chip_Clock_GetMainPLLHz)
    Chip_Clock_GetRate                       0x1a00f995   Thumb Code    78  clock_18xx_43xx.o(i.Chip_Clock_GetRate)
    Chip_Clock_SetBaseClock                  0x1a00f9ed   Thumb Code    64  clock_18xx_43xx.o(i.Chip_Clock_SetBaseClock)
    Chip_Clock_SetDivider                    0x1a00fa35   Thumb Code    64  clock_18xx_43xx.o(i.Chip_Clock_SetDivider)
    Chip_EMC_Dynamic_Init                    0x1a00fa85   Thumb Code    22  emc_18xx_43xx.o(i.Chip_EMC_Dynamic_Init)
    Chip_EMC_Init                            0x1a00faa1   Thumb Code    40  emc_18xx_43xx.o(i.Chip_EMC_Init)
    Chip_EMC_Static_Init                     0x1a00facd   Thumb Code    22  emc_18xx_43xx.o(i.Chip_EMC_Static_Init)
    Chip_ENET_StartMIIRead                   0x1a00fae9   Thumb Code    20  enet_18xx_43xx.o(i.Chip_ENET_StartMIIRead)
    Chip_ENET_StartMIIWrite                  0x1a00fb01   Thumb Code    26  enet_18xx_43xx.o(i.Chip_ENET_StartMIIWrite)
    Chip_GPIO_Init                           0x1a00fb21   Thumb Code     2  gpio_18xx_43xx.o(i.Chip_GPIO_Init)
    Chip_I2C_EventHandler                    0x1a00fb25   Thumb Code    36  i2c_18xx_43xx.o(i.Chip_I2C_EventHandler)
    Chip_I2C_EventHandlerPolling             0x1a00fb4d   Thumb Code    58  i2c_18xx_43xx.o(i.Chip_I2C_EventHandlerPolling)
    Chip_I2C_GetMasterEventHandler           0x1a00fb8d   Thumb Code    16  i2c_18xx_43xx.o(i.Chip_I2C_GetMasterEventHandler)
    Chip_I2C_Init                            0x1a00fba1   Thumb Code    40  i2c_18xx_43xx.o(i.Chip_I2C_Init)
    Chip_I2C_IsStateChanged                  0x1a00fbcd   Thumb Code    20  i2c_18xx_43xx.o(i.Chip_I2C_IsStateChanged)
    Chip_I2C_MasterCmdRead                   0x1a00fbe5   Thumb Code    58  i2c_18xx_43xx.o(i.Chip_I2C_MasterCmdRead)
    Chip_I2C_MasterSend                      0x1a00fc1f   Thumb Code    50  i2c_18xx_43xx.o(i.Chip_I2C_MasterSend)
    Chip_I2C_MasterStateHandler              0x1a00fc51   Thumb Code    50  i2c_18xx_43xx.o(i.Chip_I2C_MasterStateHandler)
    Chip_I2C_MasterTransfer                  0x1a00fc89   Thumb Code   102  i2c_18xx_43xx.o(i.Chip_I2C_MasterTransfer)
    Chip_I2C_SetClockRate                    0x1a00fcf5   Thumb Code    56  i2c_18xx_43xx.o(i.Chip_I2C_SetClockRate)
    Chip_I2C_SetMasterEventHandler           0x1a00fd31   Thumb Code    34  i2c_18xx_43xx.o(i.Chip_I2C_SetMasterEventHandler)
    Chip_I2S_Init                            0x1a00fd59   Thumb Code    12  i2s_18xx_43xx.o(i.Chip_I2S_Init)
    Chip_I2S_TxConfig                        0x1a00fd65   Thumb Code   122  i2s_18xx_43xx.o(i.Chip_I2S_TxConfig)
    Chip_RGU_InReset                         0x1a00fde1   Thumb Code    52  rgu_18xx_43xx.o(i.Chip_RGU_InReset)
    Chip_RGU_TriggerReset                    0x1a00fe19   Thumb Code    38  rgu_18xx_43xx.o(i.Chip_RGU_TriggerReset)
    Chip_SSP_Init                            0x1a00fe7d   Thumb Code    56  ssp_18xx_43xx.o(i.Chip_SSP_Init)
    Chip_SSP_SetBitRate                      0x1a00fec7   Thumb Code    70  ssp_18xx_43xx.o(i.Chip_SSP_SetBitRate)
    Chip_SSP_SetClockRate                    0x1a00ff0d   Thumb Code    20  ssp_18xx_43xx.o(i.Chip_SSP_SetClockRate)
    Chip_SSP_SetMaster                       0x1a00ff21   Thumb Code    28  ssp_18xx_43xx.o(i.Chip_SSP_SetMaster)
    Chip_SSP_WriteFrames_Blocking            0x1a00ff49   Thumb Code   234  ssp_18xx_43xx.o(i.Chip_SSP_WriteFrames_Blocking)
    Chip_SetupCoreClock                      0x1a010033   Thumb Code    14  sysinit_18xx_43xx.o(i.Chip_SetupCoreClock)
    Chip_UART_Init                           0x1a010085   Thumb Code    72  uart_18xx_43xx.o(i.Chip_UART_Init)
    Chip_UART_SetBaud                        0x1a0100d1   Thumb Code    66  uart_18xx_43xx.o(i.Chip_UART_SetBaud)
    SystemCoreClockUpdate                    0x1a010119   Thumb Code    14  chip_18xx_43xx.o(i.SystemCoreClockUpdate)
    fpuInit                                  0x1a010245   Thumb Code    62  fpu_init.o(i.fpuInit)
    handleMasterXferState                    0x1a010447   Thumb Code   224  i2c_18xx_43xx.o(i.handleMasterXferState)
    initDynMem                               0x1a010527   Thumb Code   488  emc_18xx_43xx.o(i.initDynMem)
    initStaticMem                            0x1a01070f   Thumb Code   104  emc_18xx_43xx.o(i.initStaticMem)
    _fp_init                                 0x1a010781   Thumb Code    10  fpinit.o(x$fpl$fpinit)
    __fplib_config_fpu_vfp                   0x1a010789   Thumb Code     0  fpinit.o(x$fpl$fpinit)
    __fplib_config_pureend_doubles           0x1a010789   Thumb Code     0  fpinit.o(x$fpl$fpinit)
    memp_sizes                               0x1a0109cc   Data          28  memp.o(.constdata)
    tcp_persist_backoff                      0x1a0109e8   Data           7  tcp.o(.constdata)
    tcp_state_str                            0x1a0109f0   Data          44  tcp.o(.constdata)
    tcp_backoff                              0x1a010a1c   Data          13  tcp.o(.constdata)
    tcp_pcb_lists                            0x1a010a2c   Data          16  tcp.o(.constdata)
    ip_addr_any                              0x1a010a3c   Data           4  ip_addr.o(.constdata)
    ip_addr_broadcast                        0x1a010a40   Data           4  ip_addr.o(.constdata)
    ethbroadcast                             0x1a010a44   Data           6  etharp.o(.constdata)
    ethzero                                  0x1a010a4a   Data           6  etharp.o(.constdata)
    ad_left                                  0x1a010a60   Data           4  board.o(.constdata)
    ad_top                                   0x1a010a64   Data           4  board.o(.constdata)
    ad_right                                 0x1a010a68   Data           4  board.o(.constdata)
    ad_bottom                                0x1a010a6c   Data           4  board.o(.constdata)
    MCB4300_LCD                              0x1a010a70   Data          22  board.o(.constdata)
    ExtRateIn                                0x1a010a88   Data           4  board.o(.constdata)
    OscRateIn                                0x1a010a8c   Data           4  board.o(.constdata)
    Region$$Table$$Base                      0x1a010ec0   Number         0  anon$$obj.o(Region$$Table)
    Region$$Table$$Limit                     0x1a010f00   Number         0  anon$$obj.o(Region$$Table)
    tcp_active_pcbs_changed                  0x20000018   Data           1  tcp.o(.data)
    tcp_ticks                                0x20000024   Data           4  tcp.o(.data)
    tcp_bound_pcbs                           0x20000028   Data           4  tcp.o(.data)
    tcp_listen_pcbs                          0x2000002c   Data           4  tcp.o(.data)
    tcp_active_pcbs                          0x20000030   Data           4  tcp.o(.data)
    tcp_tw_pcbs                              0x20000034   Data           4  tcp.o(.data)
    tcp_tmp_pcb                              0x20000038   Data           4  tcp.o(.data)
    tcp_input_pcb                            0x20000054   Data           4  tcp_in.o(.data)
    udp_pcbs                                 0x2000005c   Data           4  udp.o(.data)
    msg_fake_null                            0x20000060   Data           4  sys_arch.o(.data)
    __stdout                                 0x20000064   Data           4  board.o(.data)
    __stdin                                  0x20000068   Data           4  board.o(.data)
    __stderr                                 0x2000006c   Data           4  board.o(.data)
    g_isPenDn                                0x20000070   Data           4  board.o(.data)
    g_isNewPenDn                             0x20000074   Data           4  board.o(.data)
    raw_ready_queue                          0x200000d0   Data         508  raw-os.o(.bss)
    raw_idle_obj                             0x200002d0   Data         144  raw-os.o(.bss)
    idle_stack                               0x20000360   Data         320  raw-os.o(.bss)
    tick_head                                0x200004a0   Data          64  raw-os.o(.bss)
    raw_timer_obj                            0x200004e0   Data         144  raw-os.o(.bss)
    timer_task_stack                         0x20000570   Data        1024  raw-os.o(.bss)
    timer_sem                                0x20000970   Data          36  raw-os.o(.bss)
    timer_mutex                              0x20000994   Data          40  raw-os.o(.bss)
    raw_task_debug                           0x200009bc   Data          56  raw-os.o(.bss)
    tick_task_obj                            0x200009f8   Data         144  raw-os.o(.bss)
    tick_task_stack                          0x20000a88   Data        1024  raw-os.o(.bss)
    tick_semaphore_obj                       0x20000e88   Data          36  raw-os.o(.bss)
    shell_task_stack                         0x20000eb0   Data        1600  main.o(.bss)
    shell_task_obj                           0x200014f0   Data         144  main.o(.bss)
    uart_sema                                0x20001580   Data          36  main.o(.bss)
    uart_fifo                                0x200015a4   Data          24  main.o(.bss)
    tftp_client_netif                        0x2000163c   Data          56  main.o(.bss)
    __libspace_start                         0x20001900   Data          96  libspace.o(.bss)
    __temporary_stack_top$libspace           0x20001960   Data           0  libspace.o(.bss)



==============================================================================

Memory Map of the image

  Image Entry point : 0x1a000115

  Load Region LR_IROM1 (Base: 0x1a000000, Size: 0x00011054, Max: 0x00080000, ABSOLUTE)

    Execution Region RW_IRAM1 (Base: 0x10000000, Size: 0x00001960, Max: 0x00008000, ABSOLUTE)

    Base Addr    Size         Type   Attr      Idx    E Section Name        Object

    0x10000000   0x00000038   Data   RW            3    .data               raw-os.o
    0x10000038   0x0000000c   Data   RW          631    .data               main.o
    0x10000044   0x00000004   Data   RW         1069    .data               dhcp.o
    0x10000048   0x0000000c   Data   RW         1201    .data               netif.o
    0x10000054   0x00000001   Data   RW         1241    .data               pbuf.o
    0x10000055   0x00000003   PAD
    0x10000058   0x00000008   Data   RW         1364    .data               timers.o
    0x10000060   0x00000014   Data   RW         1516    .data               ip.o
    0x10000074   0x00000008   Data   RW         1575    .data               ip_frag.o
    0x1000007c   0x00000001   Data   RW         1597    .data               etharp.o
    0x1000007d   0x00000003   PAD
    0x10000080   0x00000004   Data   RW         1643    .data               lpc18xx_43xx_emac.o
    0x10000084   0x00000004   Data   RW         2041    .data               lib_lpc_chip_43xx.lib(chip_18xx_43xx.o)
    0x10000088   0x00001010   Zero   RW          798    .bss                client.o
    0x10001098   0x00000060   Zero   RW          970    .bss                sockets.o
    0x100010f8   0x00000032   Zero   RW         1068    .bss                dhcp.o
    0x1000112a   0x00000002   PAD
    0x1000112c   0x00000014   Zero   RW         1329    .bss                tcp_in.o
    0x10001140   0x00000010   Zero   RW         1551    .bss                ip_addr.o
    0x10001150   0x000000c8   Zero   RW         1595    .bss                etharp.o
    0x10001218   0x00000048   Zero   RW         1681    .bss                sys_arch.o
    0x10001260   0x00000100   Zero   RW          338    HEAP                keil_startup_lpc18xx43xx.o
    0x10001360   0x00000600   Zero   RW          337    STACK               keil_startup_lpc18xx43xx.o


    Execution Region ER_IROM1 (Base: 0x1a000000, Size: 0x00010f00, Max: 0x00080000, ABSOLUTE)

    Base Addr    Size         Type   Attr      Idx    E Section Name        Object

    0x1a000000   0x00000114   Data   RO          339    RESET               keil_startup_lpc18xx43xx.o
    0x1a000114   0x00000008   Code   RO         3486  * !!!main             c_w.l(__main.o)
    0x1a00011c   0x00000034   Code   RO         3662    !!!scatter          c_w.l(__scatter.o)
    0x1a000150   0x0000005a   Code   RO         3660    !!dczerorl2         c_w.l(__dczerorl2.o)
    0x1a0001aa   0x00000002   PAD
    0x1a0001ac   0x0000001a   Code   RO         3664    !!handler_copy      c_w.l(__scatter_copy.o)
    0x1a0001c6   0x00000002   PAD
    0x1a0001c8   0x0000001c   Code   RO         3666    !!handler_zi        c_w.l(__scatter_zi.o)
    0x1a0001e4   0x00000000   Code   RO         3473    .ARM.Collect$$_printf_percent$$00000000  c_w.l(_printf_percent.o)
    0x1a0001e4   0x00000006   Code   RO         3472    .ARM.Collect$$_printf_percent$$00000009  c_w.l(_printf_d.o)
    0x1a0001ea   0x00000006   Code   RO         3471    .ARM.Collect$$_printf_percent$$0000000C  c_w.l(_printf_x.o)
    0x1a0001f0   0x00000004   Code   RO         3497    .ARM.Collect$$_printf_percent$$00000017  c_w.l(_printf_percent_end.o)
    0x1a0001f4   0x00000002   Code   RO         3532    .ARM.Collect$$libinit$$00000000  c_w.l(libinit.o)
    0x1a0001f6   0x00000004   Code   RO         3544    .ARM.Collect$$libinit$$00000001  c_w.l(libinit2.o)
    0x1a0001fa   0x00000000   Code   RO         3547    .ARM.Collect$$libinit$$00000004  c_w.l(libinit2.o)
    0x1a0001fa   0x00000000   Code   RO         3550    .ARM.Collect$$libinit$$0000000A  c_w.l(libinit2.o)
    0x1a0001fa   0x00000000   Code   RO         3552    .ARM.Collect$$libinit$$0000000C  c_w.l(libinit2.o)
    0x1a0001fa   0x00000000   Code   RO         3554    .ARM.Collect$$libinit$$0000000E  c_w.l(libinit2.o)
    0x1a0001fa   0x00000000   Code   RO         3557    .ARM.Collect$$libinit$$00000011  c_w.l(libinit2.o)
    0x1a0001fa   0x00000000   Code   RO         3559    .ARM.Collect$$libinit$$00000013  c_w.l(libinit2.o)
    0x1a0001fa   0x00000000   Code   RO         3561    .ARM.Collect$$libinit$$00000015  c_w.l(libinit2.o)
    0x1a0001fa   0x00000000   Code   RO         3563    .ARM.Collect$$libinit$$00000017  c_w.l(libinit2.o)
    0x1a0001fa   0x00000000   Code   RO         3565    .ARM.Collect$$libinit$$00000019  c_w.l(libinit2.o)
    0x1a0001fa   0x00000000   Code   RO         3567    .ARM.Collect$$libinit$$0000001B  c_w.l(libinit2.o)
    0x1a0001fa   0x00000000   Code   RO         3569    .ARM.Collect$$libinit$$0000001D  c_w.l(libinit2.o)
    0x1a0001fa   0x00000000   Code   RO         3571    .ARM.Collect$$libinit$$0000001F  c_w.l(libinit2.o)
    0x1a0001fa   0x00000000   Code   RO         3573    .ARM.Collect$$libinit$$00000021  c_w.l(libinit2.o)
    0x1a0001fa   0x00000000   Code   RO         3575    .ARM.Collect$$libinit$$00000023  c_w.l(libinit2.o)
    0x1a0001fa   0x00000000   Code   RO         3577    .ARM.Collect$$libinit$$00000025  c_w.l(libinit2.o)
    0x1a0001fa   0x00000000   Code   RO         3581    .ARM.Collect$$libinit$$0000002C  c_w.l(libinit2.o)
    0x1a0001fa   0x00000000   Code   RO         3583    .ARM.Collect$$libinit$$0000002E  c_w.l(libinit2.o)
    0x1a0001fa   0x00000000   Code   RO         3585    .ARM.Collect$$libinit$$00000030  c_w.l(libinit2.o)
    0x1a0001fa   0x00000000   Code   RO         3587    .ARM.Collect$$libinit$$00000032  c_w.l(libinit2.o)
    0x1a0001fa   0x00000002   Code   RO         3588    .ARM.Collect$$libinit$$00000033  c_w.l(libinit2.o)
    0x1a0001fc   0x00000002   Code   RO         3614    .ARM.Collect$$libshutdown$$00000000  c_w.l(libshutdown.o)
    0x1a0001fe   0x00000000   Code   RO         3643    .ARM.Collect$$libshutdown$$00000002  c_w.l(libshutdown2.o)
    0x1a0001fe   0x00000000   Code   RO         3645    .ARM.Collect$$libshutdown$$00000004  c_w.l(libshutdown2.o)
    0x1a0001fe   0x00000000   Code   RO         3648    .ARM.Collect$$libshutdown$$00000007  c_w.l(libshutdown2.o)
    0x1a0001fe   0x00000000   Code   RO         3651    .ARM.Collect$$libshutdown$$0000000A  c_w.l(libshutdown2.o)
    0x1a0001fe   0x00000000   Code   RO         3653    .ARM.Collect$$libshutdown$$0000000C  c_w.l(libshutdown2.o)
    0x1a0001fe   0x00000000   Code   RO         3656    .ARM.Collect$$libshutdown$$0000000F  c_w.l(libshutdown2.o)
    0x1a0001fe   0x00000002   Code   RO         3657    .ARM.Collect$$libshutdown$$00000010  c_w.l(libshutdown2.o)
    0x1a000200   0x00000000   Code   RO         3488    .ARM.Collect$$rtentry$$00000000  c_w.l(__rtentry.o)
    0x1a000200   0x00000000   Code   RO         3499    .ARM.Collect$$rtentry$$00000002  c_w.l(__rtentry2.o)
    0x1a000200   0x00000006   Code   RO         3511    .ARM.Collect$$rtentry$$00000004  c_w.l(__rtentry4.o)
    0x1a000206   0x00000000   Code   RO         3501    .ARM.Collect$$rtentry$$00000009  c_w.l(__rtentry2.o)
    0x1a000206   0x00000004   Code   RO         3502    .ARM.Collect$$rtentry$$0000000A  c_w.l(__rtentry2.o)
    0x1a00020a   0x00000000   Code   RO         3504    .ARM.Collect$$rtentry$$0000000C  c_w.l(__rtentry2.o)
    0x1a00020a   0x00000008   Code   RO         3505    .ARM.Collect$$rtentry$$0000000D  c_w.l(__rtentry2.o)
    0x1a000212   0x00000002   Code   RO         3536    .ARM.Collect$$rtexit$$00000000  c_w.l(rtexit.o)
    0x1a000214   0x00000000   Code   RO         3590    .ARM.Collect$$rtexit$$00000002  c_w.l(rtexit2.o)
    0x1a000214   0x00000004   Code   RO         3591    .ARM.Collect$$rtexit$$00000003  c_w.l(rtexit2.o)
    0x1a000218   0x00000006   Code   RO         3592    .ARM.Collect$$rtexit$$00000004  c_w.l(rtexit2.o)
    0x1a00021e   0x00000002   PAD
    0x1a000220   0x00002968   Code   RO            1    .text               raw-os.o
    0x1a002b88   0x00000174   Code   RO          175    .text               fifo.o
    0x1a002cfc   0x000000ac   Code   RO          266    .text               cpu.o
    0x1a002da8   0x000001b4   Code   RO          270    .text               port.o
    0x1a002f5c   0x0000001e   Code   RO          283    .text               port_hook.o
    0x1a002f7a   0x00000088   Code   RO          301    .text               user_extension.o
    0x1a003002   0x00000058   Code   RO          313    .text               port_error_process.o
    0x1a00305a   0x00000002   PAD
    0x1a00305c   0x00000030   Code   RO          325    .text               port_extension.o
    0x1a00308c   0x00000044   Code   RO          340    .text               keil_startup_lpc18xx43xx.o
    0x1a0030d0   0x0000001c   Code   RO          346    .text               sysinit.o
    0x1a0030ec   0x00000014   Code   RO          572    .text               lpc43xx_scu.o
    0x1a003100   0x0000045c   Code   RO          605    .text               lpc43xx_sdram.o
    0x1a00355c   0x000002dc   Code   RO          628    .text               main.o
    0x1a003838   0x00000040   Code   RO          776    .text               lpc43xx_gpio.o
    0x1a003878   0x0000042c   Code   RO          797    .text               client.o
    0x1a003ca4   0x000006ec   Code   RO          822    .text               api_lib.o
    0x1a004390   0x00000fae   Code   RO          886    .text               api_msg.o
    0x1a00533e   0x00000002   PAD
    0x1a005340   0x00000210   Code   RO          935    .text               netbuf.o
    0x1a005550   0x00001234   Code   RO          969    .text               sockets.o
    0x1a006784   0x0000028c   Code   RO         1004    .text               tcpip.o
    0x1a006a10   0x00000010   Code   RO         1054    .text               def.o
    0x1a006a20   0x000011b4   Code   RO         1067    .text               dhcp.o
    0x1a007bd4   0x0000001e   Code   RO         1113    .text               init.o
    0x1a007bf2   0x00000002   PAD
    0x1a007bf4   0x0000020c   Code   RO         1200    .text               netif.o
    0x1a007e00   0x00000972   Code   RO         1240    .text               pbuf.o
    0x1a008772   0x00000002   PAD
    0x1a008774   0x000001c0   Code   RO         1268    .text               raw.o
    0x1a008934   0x00000cbc   Code   RO         1300    .text               tcp.o
    0x1a0095f0   0x00001228   Code   RO         1328    .text               tcp_in.o
    0x1a00a818   0x00000db0   Code   RO         1351    .text               tcp_out.o
    0x1a00b5c8   0x000001fc   Code   RO         1363    .text               timers.o
    0x1a00b7c4   0x000004c0   Code   RO         1407    .text               udp.o
    0x1a00bc84   0x000001f4   Code   RO         1479    .text               icmp.o
    0x1a00be78   0x000001e2   Code   RO         1503    .text               inet_chksum.o
    0x1a00c05a   0x00000002   PAD
    0x1a00c05c   0x00000320   Code   RO         1515    .text               ip.o
    0x1a00c37c   0x000001f4   Code   RO         1550    .text               ip_addr.o
    0x1a00c570   0x00000698   Code   RO         1574    .text               ip_frag.o
    0x1a00cc08   0x00000868   Code   RO         1594    .text               etharp.o
    0x1a00d470   0x0000069c   Code   RO         1640    .text               lpc18xx_43xx_emac.o
    0x1a00db0c   0x000004f8   Code   RO         1680    .text               sys_arch.o
    0x1a00e004   0x00000158   Code   RO         1699    .text               lwip_emac.o
    0x1a00e15c   0x00000aa8   Code   RO         1722    .text               lib_lpc_board_keil_mcb_4357.lib(board.o)
    0x1a00ec04   0x0000019c   Code   RO         1956    .text               lib_lpc_board_keil_mcb_4357.lib(board_sysinit.o)
    0x1a00eda0   0x0000020c   Code   RO         2004    .text               lib_lpc_board_keil_mcb_4357.lib(lpc_phy_dp83848.o)
    0x1a00efac   0x00000184   Code   RO         2718    .text               lib_lpc_board_keil_mcb_4357.lib(uda1380.o)
    0x1a00f130   0x000000ee   Code   RO         3420    .text               c_w.l(lludivv7m.o)
    0x1a00f21e   0x00000002   PAD
    0x1a00f220   0x00000018   Code   RO         3424    .text               c_w.l(noretval__2printf.o)
    0x1a00f238   0x00000068   Code   RO         3426    .text               c_w.l(__printf.o)
    0x1a00f2a0   0x00000078   Code   RO         3428    .text               c_w.l(_printf_dec.o)
    0x1a00f318   0x00000058   Code   RO         3433    .text               c_w.l(_printf_hex_int.o)
    0x1a00f370   0x00000058   Code   RO         3474    .text               c_w.l(memcmp.o)
    0x1a00f3c8   0x0000003e   Code   RO         3476    .text               c_w.l(strlen.o)
    0x1a00f406   0x0000008a   Code   RO         3478    .text               c_w.l(rt_memcpy_v6.o)
    0x1a00f490   0x00000064   Code   RO         3480    .text               c_w.l(rt_memcpy_w.o)
    0x1a00f4f4   0x0000004e   Code   RO         3482    .text               c_w.l(rt_memclr_w.o)
    0x1a00f542   0x00000006   Code   RO         3484    .text               c_w.l(heapauxi.o)
    0x1a00f548   0x000000b2   Code   RO         3493    .text               c_w.l(_printf_intcommon.o)
    0x1a00f5fa   0x00000002   PAD
    0x1a00f5fc   0x00000024   Code   RO         3495    .text               c_w.l(_printf_char_file.o)
    0x1a00f620   0x00000030   Code   RO         3515    .text               c_w.l(_printf_char_common.o)
    0x1a00f650   0x0000004a   Code   RO         3517    .text               c_w.l(sys_stackheap_outer.o)
    0x1a00f69a   0x00000012   Code   RO         3521    .text               c_w.l(exit.o)
    0x1a00f6ac   0x00000008   Code   RO         3533    .text               c_w.l(libspace.o)
    0x1a00f6b4   0x00000038   Code   RO         2271    i.Chip_Clock_Enable  lib_lpc_chip_43xx.lib(clock_18xx_43xx.o)
    0x1a00f6ec   0x0000003c   Code   RO         2275    i.Chip_Clock_EnableOpts  lib_lpc_chip_43xx.lib(clock_18xx_43xx.o)
    0x1a00f728   0x00000050   Code   RO         2277    i.Chip_Clock_FindBaseClock  lib_lpc_chip_43xx.lib(clock_18xx_43xx.o)
    0x1a00f778   0x00000024   Code   RO         2278    i.Chip_Clock_GetBaseClock  lib_lpc_chip_43xx.lib(clock_18xx_43xx.o)
    0x1a00f79c   0x00000012   Code   RO         2280    i.Chip_Clock_GetBaseClocktHz  lib_lpc_chip_43xx.lib(clock_18xx_43xx.o)
    0x1a00f7ae   0x00000002   PAD
    0x1a00f7b0   0x000000d4   Code   RO         2281    i.Chip_Clock_GetClockInputHz  lib_lpc_chip_43xx.lib(clock_18xx_43xx.o)
    0x1a00f884   0x00000028   Code   RO         2282    i.Chip_Clock_GetDivRate  lib_lpc_chip_43xx.lib(clock_18xx_43xx.o)
    0x1a00f8ac   0x00000020   Code   RO         2283    i.Chip_Clock_GetDividerDivisor  lib_lpc_chip_43xx.lib(clock_18xx_43xx.o)
    0x1a00f8cc   0x00000020   Code   RO         2284    i.Chip_Clock_GetDividerSource  lib_lpc_chip_43xx.lib(clock_18xx_43xx.o)
    0x1a00f8ec   0x00000030   Code   RO         2285    i.Chip_Clock_GetEMCRate  lib_lpc_chip_43xx.lib(clock_18xx_43xx.o)
    0x1a00f91c   0x00000078   Code   RO         2286    i.Chip_Clock_GetMainPLLHz  lib_lpc_chip_43xx.lib(clock_18xx_43xx.o)
    0x1a00f994   0x00000058   Code   RO         2288    i.Chip_Clock_GetRate  lib_lpc_chip_43xx.lib(clock_18xx_43xx.o)
    0x1a00f9ec   0x00000048   Code   RO         2292    i.Chip_Clock_SetBaseClock  lib_lpc_chip_43xx.lib(clock_18xx_43xx.o)
    0x1a00fa34   0x00000050   Code   RO         2293    i.Chip_Clock_SetDivider  lib_lpc_chip_43xx.lib(clock_18xx_43xx.o)
    0x1a00fa84   0x0000001c   Code   RO         2741    i.Chip_EMC_Dynamic_Init  lib_lpc_chip_43xx.lib(emc_18xx_43xx.o)
    0x1a00faa0   0x0000002c   Code   RO         2743    i.Chip_EMC_Init     lib_lpc_chip_43xx.lib(emc_18xx_43xx.o)
    0x1a00facc   0x0000001c   Code   RO         2746    i.Chip_EMC_Static_Init  lib_lpc_chip_43xx.lib(emc_18xx_43xx.o)
    0x1a00fae8   0x00000018   Code   RO         2823    i.Chip_ENET_StartMIIRead  lib_lpc_chip_43xx.lib(enet_18xx_43xx.o)
    0x1a00fb00   0x00000020   Code   RO         2824    i.Chip_ENET_StartMIIWrite  lib_lpc_chip_43xx.lib(enet_18xx_43xx.o)
    0x1a00fb20   0x00000002   Code   RO         2880    i.Chip_GPIO_Init    lib_lpc_chip_43xx.lib(gpio_18xx_43xx.o)
    0x1a00fb22   0x00000002   PAD
    0x1a00fb24   0x00000028   Code   RO         2934    i.Chip_I2C_EventHandler  lib_lpc_chip_43xx.lib(i2c_18xx_43xx.o)
    0x1a00fb4c   0x00000040   Code   RO         2935    i.Chip_I2C_EventHandlerPolling  lib_lpc_chip_43xx.lib(i2c_18xx_43xx.o)
    0x1a00fb8c   0x00000014   Code   RO         2937    i.Chip_I2C_GetMasterEventHandler  lib_lpc_chip_43xx.lib(i2c_18xx_43xx.o)
    0x1a00fba0   0x0000002c   Code   RO         2938    i.Chip_I2C_Init     lib_lpc_chip_43xx.lib(i2c_18xx_43xx.o)
    0x1a00fbcc   0x00000018   Code   RO         2940    i.Chip_I2C_IsStateChanged  lib_lpc_chip_43xx.lib(i2c_18xx_43xx.o)
    0x1a00fbe4   0x0000003a   Code   RO         2941    i.Chip_I2C_MasterCmdRead  lib_lpc_chip_43xx.lib(i2c_18xx_43xx.o)
    0x1a00fc1e   0x00000032   Code   RO         2943    i.Chip_I2C_MasterSend  lib_lpc_chip_43xx.lib(i2c_18xx_43xx.o)
    0x1a00fc50   0x00000038   Code   RO         2944    i.Chip_I2C_MasterStateHandler  lib_lpc_chip_43xx.lib(i2c_18xx_43xx.o)
    0x1a00fc88   0x0000006c   Code   RO         2945    i.Chip_I2C_MasterTransfer  lib_lpc_chip_43xx.lib(i2c_18xx_43xx.o)
    0x1a00fcf4   0x0000003c   Code   RO         2946    i.Chip_I2C_SetClockRate  lib_lpc_chip_43xx.lib(i2c_18xx_43xx.o)
    0x1a00fd30   0x00000028   Code   RO         2947    i.Chip_I2C_SetMasterEventHandler  lib_lpc_chip_43xx.lib(i2c_18xx_43xx.o)
    0x1a00fd58   0x0000000c   Code   RO         3108    i.Chip_I2S_Init     lib_lpc_chip_43xx.lib(i2s_18xx_43xx.o)
    0x1a00fd64   0x0000007a   Code   RO         3112    i.Chip_I2S_TxConfig  lib_lpc_chip_43xx.lib(i2s_18xx_43xx.o)
    0x1a00fdde   0x00000002   PAD
    0x1a00fde0   0x00000038   Code   RO         2496    i.Chip_RGU_InReset  lib_lpc_chip_43xx.lib(rgu_18xx_43xx.o)
    0x1a00fe18   0x0000002c   Code   RO         2497    i.Chip_RGU_TriggerReset  lib_lpc_chip_43xx.lib(rgu_18xx_43xx.o)
    0x1a00fe44   0x00000004   Code   RO         3172    i.Chip_SSP_ClearIntPending  lib_lpc_chip_43xx.lib(ssp_18xx_43xx.o)
    0x1a00fe48   0x00000014   Code   RO         3174    i.Chip_SSP_GetClockIndex  lib_lpc_chip_43xx.lib(ssp_18xx_43xx.o)
    0x1a00fe5c   0x00000010   Code   RO         3175    i.Chip_SSP_GetRawIntStatus  lib_lpc_chip_43xx.lib(ssp_18xx_43xx.o)
    0x1a00fe6c   0x00000010   Code   RO         3176    i.Chip_SSP_GetStatus  lib_lpc_chip_43xx.lib(ssp_18xx_43xx.o)
    0x1a00fe7c   0x0000003c   Code   RO         3177    i.Chip_SSP_Init     lib_lpc_chip_43xx.lib(ssp_18xx_43xx.o)
    0x1a00feb8   0x00000008   Code   RO         3183    i.Chip_SSP_ReceiveFrame  lib_lpc_chip_43xx.lib(ssp_18xx_43xx.o)
    0x1a00fec0   0x00000006   Code   RO         3184    i.Chip_SSP_SendFrame  lib_lpc_chip_43xx.lib(ssp_18xx_43xx.o)
    0x1a00fec6   0x00000046   Code   RO         3185    i.Chip_SSP_SetBitRate  lib_lpc_chip_43xx.lib(ssp_18xx_43xx.o)
    0x1a00ff0c   0x00000014   Code   RO         3186    i.Chip_SSP_SetClockRate  lib_lpc_chip_43xx.lib(ssp_18xx_43xx.o)
    0x1a00ff20   0x0000001c   Code   RO         3187    i.Chip_SSP_SetMaster  lib_lpc_chip_43xx.lib(ssp_18xx_43xx.o)
    0x1a00ff3c   0x0000000c   Code   RO         3188    i.Chip_SSP_Set_Mode  lib_lpc_chip_43xx.lib(ssp_18xx_43xx.o)
    0x1a00ff48   0x000000ea   Code   RO         3189    i.Chip_SSP_WriteFrames_Blocking  lib_lpc_chip_43xx.lib(ssp_18xx_43xx.o)
    0x1a010032   0x0000000e   Code   RO         3310    i.Chip_SetupCoreClock  lib_lpc_chip_43xx.lib(sysinit_18xx_43xx.o)
    0x1a010040   0x0000000a   Code   RO         2531    i.Chip_UART_DisableDivisorAccess  lib_lpc_chip_43xx.lib(uart_18xx_43xx.o)
    0x1a01004a   0x0000000a   Code   RO         2532    i.Chip_UART_EnableDivisorAccess  lib_lpc_chip_43xx.lib(uart_18xx_43xx.o)
    0x1a010054   0x00000030   Code   RO         2534    i.Chip_UART_GetClockIndex  lib_lpc_chip_43xx.lib(uart_18xx_43xx.o)
    0x1a010084   0x0000004c   Code   RO         2536    i.Chip_UART_Init    lib_lpc_chip_43xx.lib(uart_18xx_43xx.o)
    0x1a0100d0   0x00000042   Code   RO         2548    i.Chip_UART_SetBaud  lib_lpc_chip_43xx.lib(uart_18xx_43xx.o)
    0x1a010112   0x00000006   Code   RO         2550    i.Chip_UART_SetDivisorLatches  lib_lpc_chip_43xx.lib(uart_18xx_43xx.o)
    0x1a010118   0x00000014   Code   RO         2039    i.SystemCoreClockUpdate  lib_lpc_chip_43xx.lib(chip_18xx_43xx.o)
    0x1a01012c   0x00000024   Code   RO         3314    i.clock_init_delay  lib_lpc_chip_43xx.lib(sysinit_18xx_43xx.o)
    0x1a010150   0x000000bc   Code   RO         3315    i.clock_main_init   lib_lpc_chip_43xx.lib(sysinit_18xx_43xx.o)
    0x1a01020c   0x00000038   Code   RO         2747    i.convertTimmingParam  lib_lpc_chip_43xx.lib(emc_18xx_43xx.o)
    0x1a010244   0x00000050   Code   RO         2695    i.fpuInit           lib_lpc_chip_43xx.lib(fpu_init.o)
    0x1a010294   0x00000162   Code   RO         3113    i.getClkDiv         lib_lpc_chip_43xx.lib(i2s_18xx_43xx.o)
    0x1a0103f6   0x00000002   PAD
    0x1a0103f8   0x0000001c   Code   RO         2950    i.getClkRate        lib_lpc_chip_43xx.lib(i2c_18xx_43xx.o)
    0x1a010414   0x00000028   Code   RO         2748    i.getColsLen        lib_lpc_chip_43xx.lib(emc_18xx_43xx.o)
    0x1a01043c   0x0000000a   Code   RO         2951    i.getCurState       lib_lpc_chip_43xx.lib(i2c_18xx_43xx.o)
    0x1a010446   0x000000e0   Code   RO         2953    i.handleMasterXferState  lib_lpc_chip_43xx.lib(i2c_18xx_43xx.o)
    0x1a010526   0x000001e8   Code   RO         2749    i.initDynMem        lib_lpc_chip_43xx.lib(emc_18xx_43xx.o)
    0x1a01070e   0x00000068   Code   RO         2750    i.initStaticMem     lib_lpc_chip_43xx.lib(emc_18xx_43xx.o)
    0x1a010776   0x0000000a   Code   RO         2958    i.startSlaverXfer   lib_lpc_chip_43xx.lib(i2c_18xx_43xx.o)
    0x1a010780   0x0000000a   Code   RO         3602    x$fpl$fpinit        fz_wm.l(fpinit.o)
    0x1a01078a   0x00000002   PAD
    0x1a01078c   0x00000200   Data   RO          799    .constdata          client.o
    0x1a01098c   0x00000040   Data   RO          971    .constdata          sockets.o
    0x1a0109cc   0x0000001c   Data   RO         1170    .constdata          memp.o
    0x1a0109e8   0x00000054   Data   RO         1301    .constdata          tcp.o
    0x1a010a3c   0x00000004   Data   RO         1552    .constdata          ip_addr.o
    0x1a010a40   0x00000004   Data   RO         1553    .constdata          ip_addr.o
    0x1a010a44   0x0000000c   Data   RO         1596    .constdata          etharp.o
    0x1a010a50   0x00000040   Data   RO         1723    .constdata          lib_lpc_board_keil_mcb_4357.lib(board.o)
    0x1a010a90   0x000002bc   Data   RO         1957    .constdata          lib_lpc_board_keil_mcb_4357.lib(board_sysinit.o)
    0x1a010d4c   0x0000006c   Data   RO         2300    .constdata          lib_lpc_chip_43xx.lib(clock_18xx_43xx.o)
    0x1a010db8   0x0000001f   Data   RO         2719    .constdata          lib_lpc_board_keil_mcb_4357.lib(uda1380.o)
    0x1a010dd7   0x00000048   Data   RO         3316    .constdata          lib_lpc_chip_43xx.lib(sysinit_18xx_43xx.o)
    0x1a010e1f   0x00000028   Data   RO         3434    .constdata          c_w.l(_printf_hex_int.o)
    0x1a010e47   0x00000001   PAD
    0x1a010e48   0x00000075   Data   RO         1302    .conststring        tcp.o
    0x1a010ebd   0x00000003   PAD
    0x1a010ec0   0x00000040   Data   RO         3658    Region$$Table       anon$$obj.o


    Execution Region RW_IRAM2 (Base: 0x20000000, Size: 0x00001960, Max: 0x00008000, ABSOLUTE)

    Base Addr    Size         Type   Attr      Idx    E Section Name        Object

    0x20000000   0x00000008   Data   RW          972    .data               sockets.o
    0x20000008   0x0000000c   Data   RW         1005    .data               tcpip.o
    0x20000014   0x00000004   Data   RW         1269    .data               raw.o
    0x20000018   0x00000024   Data   RW         1303    .data               tcp.o
    0x2000003c   0x0000001c   Data   RW         1330    .data               tcp_in.o
    0x20000058   0x00000008   Data   RW         1408    .data               udp.o
    0x20000060   0x00000004   Data   RW         1682    .data               sys_arch.o
    0x20000064   0x00000014   Data   RW         1724    .data               lib_lpc_board_keil_mcb_4357.lib(board.o)
    0x20000078   0x00000010   Data   RW         2005    .data               lib_lpc_board_keil_mcb_4357.lib(lpc_phy_dp83848.o)
    0x20000088   0x00000008   Data   RW         2301    .data               lib_lpc_chip_43xx.lib(clock_18xx_43xx.o)
    0x20000090   0x00000004   Data   RW         2825    .data               lib_lpc_chip_43xx.lib(enet_18xx_43xx.o)
    0x20000094   0x00000038   Data   RW         2960    .data               lib_lpc_chip_43xx.lib(i2c_18xx_43xx.o)
    0x200000cc   0x00000004   PAD
    0x200000d0   0x00000ddc   Zero   RW            2    .bss                raw-os.o
    0x20000eac   0x00000004   PAD
    0x20000eb0   0x000007c4   Zero   RW          629    .bss                main.o
    0x20001674   0x0000028c   Zero   RW         1641    .bss                lpc18xx_43xx_emac.o
    0x20001900   0x00000060   Zero   RW         3534    .bss                c_w.l(libspace.o)


==============================================================================

Image component sizes


      Code (inc. data)   RO Data    RW Data    ZI Data      Debug   Object Name

      1772         52          0          0          0      28228   api_lib.o
      4014         54          0          0          0      23810   api_msg.o
      1068        482        512          0       4112       3615   client.o
       172         16          0          0          0        388   cpu.o
        16          0          0          0          0       1508   def.o
      4532         56          0          4         50      24580   dhcp.o
      2152         16         12          1        200      13764   etharp.o
       372          0          0          0          0      10436   fifo.o
       500          8          0          0          0       2854   icmp.o
       482          0          0          0          0       3782   inet_chksum.o
        30          0          0          0          0      16640   init.o
       800         12          0         20          0      13281   ip.o
       500         12          8          0         16       9971   ip_addr.o
      1688         16          0          8          0       8720   ip_frag.o
        68         28        276          0       1792        940   keil_startup_lpc18xx43xx.o
      1692        126          0          4        652       9523   lpc18xx_43xx_emac.o
        64          6          0          0          0       1355   lpc43xx_gpio.o
        20          4          0          0          0       1057   lpc43xx_scu.o
      1116         28          0          0          0       2146   lpc43xx_sdram.o
       344         52          0          0          0      11596   lwip_emac.o
       732        152          0         12       1988      67897   main.o
         0          0         28          0          0       1245   memp.o
       528          6          0          0          0       9105   netbuf.o
       524         12          0         12          0      20483   netif.o
      2418         18          0          1          0      13842   pbuf.o
       436         16          0          0          0       3610   port.o
        88          0          0          0          0       1348   port_error_process.o
        48         10          0          0          0        945   port_extension.o
        30          0          0          0          0       1971   port_hook.o
     10600        300          0         56       3548      84247   raw-os.o
       448         16          0          4          0       3973   raw.o
      4660         62         64          8         96      29025   sockets.o
      1272         60          0          4         72       7996   sys_arch.o
        28          8          0          0          0      12789   sysinit.o
      3260         54        201         36          0      24266   tcp.o
      4648        108          0         28         20      17655   tcp_in.o
      3504         12          0          0          0      13103   tcp_out.o
       652         42          0         12          0      19126   tcpip.o
       508         36          0          8          0       3999   timers.o
      1216         20          0          8          0      16934   udp.o
       136          0          0          0          0       1864   user_extension.o

    ----------------------------------------------------------------------
     57148       1900       1168        232      12552     543617   Object Totals
         0          0         64          0          0          0   (incl. Generated)
        10          0          3          6          6          0   (incl. Padding)

    ----------------------------------------------------------------------

      Code (inc. data)   RO Data    RW Data    ZI Data      Debug   Library Member Name

        90          0          0          0          0          0   __dczerorl2.o
         8          0          0          0          0         68   __main.o
       104          0          0          0          0         84   __printf.o
         0          0          0          0          0          0   __rtentry.o
        12          0          0          0          0          0   __rtentry2.o
         6          0          0          0          0          0   __rtentry4.o
        52          8          0          0          0          0   __scatter.o
        26          0          0          0          0          0   __scatter_copy.o
        28          0          0          0          0          0   __scatter_zi.o
        48          6          0          0          0         96   _printf_char_common.o
        36          4          0          0          0         80   _printf_char_file.o
         6          0          0          0          0          0   _printf_d.o
       120         16          0          0          0         92   _printf_dec.o
        88          4         40          0          0         88   _printf_hex_int.o
       178          0          0          0          0         88   _printf_intcommon.o
         0          0          0          0          0          0   _printf_percent.o
         4          0          0          0          0          0   _printf_percent_end.o
         6          0          0          0          0          0   _printf_x.o
        18          0          0          0          0         80   exit.o
         6          0          0          0          0        152   heapauxi.o
         2          0          0          0          0          0   libinit.o
         6          0          0          0          0          0   libinit2.o
         2          0          0          0          0          0   libshutdown.o
         2          0          0          0          0          0   libshutdown2.o
         8          4          0          0         96         68   libspace.o
       238          0          0          0          0        100   lludivv7m.o
        88          0          0          0          0         76   memcmp.o
        24          4          0          0          0         84   noretval__2printf.o
        78          0          0          0          0         80   rt_memclr_w.o
       138          0          0          0          0         68   rt_memcpy_v6.o
       100          0          0          0          0         80   rt_memcpy_w.o
         2          0          0          0          0          0   rtexit.o
        10          0          0          0          0          0   rtexit2.o
        62          0          0          0          0         76   strlen.o
        74          0          0          0          0         80   sys_stackheap_outer.o
        10          0          0          0          0        116   fpinit.o
      2728        102         64         20          0      63066   board.o
       412         56        700          0          0      10122   board_sysinit.o
       524         20          0         16          0      11265   lpc_phy_dp83848.o
       388         20         31          0          0       3135   uda1380.o
        20          6          0          4          0      26534   chip_18xx_43xx.o
       974        150        108          8          0       9866   clock_18xx_43xx.o
       788         22          0          0          0       5204   emc_18xx_43xx.o
        56         10          0          4          0       8843   enet_18xx_43xx.o
        80         18          0          0          0       1234   fpu_init.o
         2          0          0          0          0       3265   gpio_18xx_43xx.o
       836         62          0         56          0      10510   i2c_18xx_43xx.o
       488          0          0          0          0       2828   i2s_18xx_43xx.o
       100         10          0          0          0       1447   rgu_18xx_43xx.o
       494          8          0          0          0      11299   ssp_18xx_43xx.o
       238         20         72          0          0       2286   sysinit_18xx_43xx.o
       216         16          0          0          0       9189   uart_18xx_43xx.o

    ----------------------------------------------------------------------
     10044        566       1016        108        100     181749   Library Totals
        20          0          1          0          4          0   (incl. Padding)

    ----------------------------------------------------------------------

      Code (inc. data)   RO Data    RW Data    ZI Data      Debug   Library Name

      1670         46         40          0         96       1540   c_w.l
        10          0          0          0          0        116   fz_wm.l
      4052        198        795         36          0      87588   lib_lpc_board_keil_mcb_4357.lib
      4292        322        180         72          0      92505   lib_lpc_chip_43xx.lib

    ----------------------------------------------------------------------
     10044        566       1016        108        100     181749   Library Totals

    ----------------------------------------------------------------------

==============================================================================


      Code (inc. data)   RO Data    RW Data    ZI Data      Debug   

     67192       2466       2184        340      12652     710806   Grand Totals
     67192       2466       2184        340      12652     710806   ELF Image Totals
     67192       2466       2184        340          0          0   ROM Totals

==============================================================================

    Total RO  Size (Code + RO Data)                69376 (  67.75kB)
    Total RW  Size (RW Data + ZI Data)             12992 (  12.69kB)
    Total ROM Size (Code + RO Data + RW Data)      69716 (  68.08kB)

==============================================================================

