Component: ARM Compiler 5.06 (build 20) Tool: armlink [4d35a3]

==============================================================================

Section Cross References

    raw-os.o(.text) refers to cpu.o(.text) for OS_CPU_SR_Save
    raw-os.o(.text) refers to port_error_process.o(.text) for port_system_error_process
    raw-os.o(.text) refers to raw-os.o(.data) for .data
    raw-os.o(.text) refers to raw-os.o(.bss) for .bss
    raw-os.o(.text) refers to user_extension.o(.text) for raw_memset
    raw-os.o(.text) refers to port.o(.text) for port_stack_init
    raw-os.o(.text) refers to port_hook.o(.text) for task_create_hook
    raw-os.o(.text) refers to port_extension.o(.text) for user_sys_time_get
    raw-os.o(.text) refers to lludivv7m.o(.text) for __aeabi_uldivmod
    cpu.o(.text) refers to raw-os.o(.text) for raw_stack_check
    cpu.o(.text) refers to port.o(.text) for task_stack_mpu_set
    cpu.o(.text) refers to raw-os.o(.data) for raw_task_active
    port.o(.text) refers to keil_startup_lpc18xx43xx.o(STACK) for Stack_Mem
    port.o(.text) refers to raw-os.o(.data) for high_ready_obj
    port_hook.o(.text) refers to port.o(.text) for system_mpu_enable
    port_hook.o(.text) refers to port_extension.o(.text) for cpu_timer_init
    port_error_process.o(.text) refers to cpu.o(.text) for OS_CPU_SR_Save
    keil_startup_lpc18xx43xx.o(STACK) refers (Special) to heapauxi.o(.text) for __use_two_region_memory
    keil_startup_lpc18xx43xx.o(HEAP) refers (Special) to heapauxi.o(.text) for __use_two_region_memory
    keil_startup_lpc18xx43xx.o(RESET) refers (Special) to heapauxi.o(.text) for __use_two_region_memory
    keil_startup_lpc18xx43xx.o(RESET) refers to keil_startup_lpc18xx43xx.o(STACK) for __initial_sp
    keil_startup_lpc18xx43xx.o(RESET) refers to keil_startup_lpc18xx43xx.o(.text) for Reset_Handler
    keil_startup_lpc18xx43xx.o(RESET) refers to cpu.o(.text) for PendSV_Handler
    keil_startup_lpc18xx43xx.o(RESET) refers to main.o(.text) for SysTick_Handler
    keil_startup_lpc18xx43xx.o(.text) refers (Special) to heapauxi.o(.text) for __use_two_region_memory
    keil_startup_lpc18xx43xx.o(.text) refers to sysinit.o(.text) for SystemInit
    keil_startup_lpc18xx43xx.o(.text) refers to __main.o(!!!main) for __main
    keil_startup_lpc18xx43xx.o(.text) refers to keil_startup_lpc18xx43xx.o(HEAP) for Heap_Mem
    keil_startup_lpc18xx43xx.o(.text) refers to keil_startup_lpc18xx43xx.o(STACK) for Stack_Mem
    sysinit.o(.text) refers to fpu_init.o(i.fpuInit) for fpuInit
    sysinit.o(.text) refers to board_sysinit.o(i.Board_SystemInit) for Board_SystemInit
    sysinit.o(.text) refers to keil_startup_lpc18xx43xx.o(RESET) for __Vectors
    main.o(.text) refers to raw-os.o(.text) for raw_enter_interrupt
    main.o(.text) refers to chip_18xx_43xx.o(i.SystemCoreClockUpdate) for SystemCoreClockUpdate
    main.o(.text) refers to chip_18xx_43xx.o(.data) for SystemCoreClock
    main.o(.text) refers to raw-os.o(.data) for raw_task_active
    main.o(.text) refers to main.o(.data) for .data
    main.o(.text) refers to main.o(.bss) for .bss
    test.o(.text) refers to ios.o(i._ZNSt8ios_base4InitC1Ev) for std::ios_base::Init::Init()
    test.o(.text) refers to aeabi_atexit.o(.text) for __aeabi_atexit
    test.o(.text) refers to test.o(.data) for .data
    test.o(.text) refers to ios.o(i._ZNSt8ios_base4InitD1Ev) for std::ios_base::Init::~Init()
    test.o(.ARM.exidx) refers to test.o(.text) for .text
    test.o(.init_array) refers to test.o(.text) for __sti___8_test_cpp
    test.o(.init_array) refers to init_aeabi.o(.text) for __cpp_initialize__aeabi_
    board_sysinit.o(i.Board_SetupClocking) refers to sysinit_18xx_43xx.o(i.Chip_SetupCoreClock) for Chip_SetupCoreClock
    board_sysinit.o(i.Board_SetupClocking) refers to clock_18xx_43xx.o(i.Chip_Clock_SetBaseClock) for Chip_Clock_SetBaseClock
    board_sysinit.o(i.Board_SetupClocking) refers to clock_18xx_43xx.o(i.Chip_Clock_SetDivider) for Chip_Clock_SetDivider
    board_sysinit.o(i.Board_SetupClocking) refers to board_sysinit.o(.constdata) for InitClkStates
    board_sysinit.o(i.Board_SetupExtMemory) refers to clock_18xx_43xx.o(i.Chip_Clock_EnableOpts) for Chip_Clock_EnableOpts
    board_sysinit.o(i.Board_SetupExtMemory) refers to clock_18xx_43xx.o(i.Chip_Clock_Enable) for Chip_Clock_Enable
    board_sysinit.o(i.Board_SetupExtMemory) refers to emc_18xx_43xx.o(i.Chip_EMC_Init) for Chip_EMC_Init
    board_sysinit.o(i.Board_SetupExtMemory) refers to emc_18xx_43xx.o(i.Chip_EMC_Dynamic_Init) for Chip_EMC_Dynamic_Init
    board_sysinit.o(i.Board_SetupExtMemory) refers to emc_18xx_43xx.o(i.Chip_EMC_Static_Init) for Chip_EMC_Static_Init
    board_sysinit.o(i.Board_SetupExtMemory) refers to board_sysinit.o(.constdata) for MT48LC4M32_config
    board_sysinit.o(i.Board_SetupMuxing) refers to board_sysinit.o(i.Chip_SCU_SetPinMuxing) for Chip_SCU_SetPinMuxing
    board_sysinit.o(i.Board_SetupMuxing) refers to board_sysinit.o(.constdata) for pinmuxing
    board_sysinit.o(i.Board_SystemInit) refers to board_sysinit.o(i.Board_SetupMuxing) for Board_SetupMuxing
    board_sysinit.o(i.Board_SystemInit) refers to board_sysinit.o(i.Board_SetupClocking) for Board_SetupClocking
    chip_18xx_43xx.o(i.Chip_USB0_Init) refers to chip_18xx_43xx.o(i.Chip_USB_PllSetup) for Chip_USB_PllSetup
    chip_18xx_43xx.o(i.Chip_USB0_Init) refers to clock_18xx_43xx.o(i.Chip_Clock_SetBaseClock) for Chip_Clock_SetBaseClock
    chip_18xx_43xx.o(i.Chip_USB0_Init) refers to clock_18xx_43xx.o(i.Chip_Clock_EnableBaseClock) for Chip_Clock_EnableBaseClock
    chip_18xx_43xx.o(i.Chip_USB0_Init) refers to clock_18xx_43xx.o(i.Chip_Clock_EnableOpts) for Chip_Clock_EnableOpts
    chip_18xx_43xx.o(i.Chip_USB1_Init) refers to chip_18xx_43xx.o(i.Chip_USB_PllSetup) for Chip_USB_PllSetup
    chip_18xx_43xx.o(i.Chip_USB1_Init) refers to clock_18xx_43xx.o(i.Chip_Clock_SetDivider) for Chip_Clock_SetDivider
    chip_18xx_43xx.o(i.Chip_USB1_Init) refers to clock_18xx_43xx.o(i.Chip_Clock_SetBaseClock) for Chip_Clock_SetBaseClock
    chip_18xx_43xx.o(i.Chip_USB1_Init) refers to clock_18xx_43xx.o(i.Chip_Clock_EnableBaseClock) for Chip_Clock_EnableBaseClock
    chip_18xx_43xx.o(i.Chip_USB1_Init) refers to clock_18xx_43xx.o(i.Chip_Clock_EnableOpts) for Chip_Clock_EnableOpts
    chip_18xx_43xx.o(i.Chip_USB_PllSetup) refers to clock_18xx_43xx.o(i.Chip_Clock_GetClockInputHz) for Chip_Clock_GetClockInputHz
    chip_18xx_43xx.o(i.Chip_USB_PllSetup) refers to clock_18xx_43xx.o(i.Chip_Clock_SetupPLL) for Chip_Clock_SetupPLL
    chip_18xx_43xx.o(i.Chip_USB_PllSetup) refers to clock_18xx_43xx.o(i.Chip_Clock_EnablePLL) for Chip_Clock_EnablePLL
    chip_18xx_43xx.o(i.Chip_USB_PllSetup) refers to clock_18xx_43xx.o(i.Chip_Clock_GetPLLStatus) for Chip_Clock_GetPLLStatus
    chip_18xx_43xx.o(i.Chip_USB_PllSetup) refers to chip_18xx_43xx.o(.constdata) for usbPLLSetup
    chip_18xx_43xx.o(i.SystemCoreClockUpdate) refers to clock_18xx_43xx.o(i.Chip_Clock_GetRate) for Chip_Clock_GetRate
    chip_18xx_43xx.o(i.SystemCoreClockUpdate) refers to chip_18xx_43xx.o(.data) for SystemCoreClock
    clock_18xx_43xx.o(i.Chip_Clock_EnableCrystal) refers to clock_18xx_43xx.o(i.clock_init_delay) for clock_init_delay
    clock_18xx_43xx.o(i.Chip_Clock_EnableCrystal) refers to board.o(.constdata) for OscRateIn
    clock_18xx_43xx.o(i.Chip_Clock_FindBaseClock) refers to clock_18xx_43xx.o(.constdata) for periph_to_base
    clock_18xx_43xx.o(i.Chip_Clock_GetBaseClocktHz) refers to clock_18xx_43xx.o(i.Chip_Clock_GetBaseClock) for Chip_Clock_GetBaseClock
    clock_18xx_43xx.o(i.Chip_Clock_GetBaseClocktHz) refers to clock_18xx_43xx.o(i.Chip_Clock_GetClockInputHz) for Chip_Clock_GetClockInputHz
    clock_18xx_43xx.o(i.Chip_Clock_GetClockInputHz) refers to clock_18xx_43xx.o(i.Chip_Clock_GetMainPLLHz) for Chip_Clock_GetMainPLLHz
    clock_18xx_43xx.o(i.Chip_Clock_GetClockInputHz) refers to clock_18xx_43xx.o(i.Chip_Clock_GetDivRate) for Chip_Clock_GetDivRate
    clock_18xx_43xx.o(i.Chip_Clock_GetClockInputHz) refers to board.o(.constdata) for ExtRateIn
    clock_18xx_43xx.o(i.Chip_Clock_GetClockInputHz) refers to clock_18xx_43xx.o(.data) for audio_usb_pll_freq
    clock_18xx_43xx.o(i.Chip_Clock_GetDivRate) refers to clock_18xx_43xx.o(i.Chip_Clock_GetDividerSource) for Chip_Clock_GetDividerSource
    clock_18xx_43xx.o(i.Chip_Clock_GetDivRate) refers to clock_18xx_43xx.o(i.Chip_Clock_GetDividerDivisor) for Chip_Clock_GetDividerDivisor
    clock_18xx_43xx.o(i.Chip_Clock_GetDivRate) refers to clock_18xx_43xx.o(i.Chip_Clock_GetClockInputHz) for Chip_Clock_GetClockInputHz
    clock_18xx_43xx.o(i.Chip_Clock_GetEMCRate) refers to clock_18xx_43xx.o(i.Chip_Clock_GetRate) for Chip_Clock_GetRate
    clock_18xx_43xx.o(i.Chip_Clock_GetMainPLLHz) refers to clock_18xx_43xx.o(i.Chip_Clock_GetClockInputHz) for Chip_Clock_GetClockInputHz
    clock_18xx_43xx.o(i.Chip_Clock_GetRate) refers to clock_18xx_43xx.o(i.Chip_Clock_FindBaseClock) for Chip_Clock_FindBaseClock
    clock_18xx_43xx.o(i.Chip_Clock_GetRate) refers to clock_18xx_43xx.o(i.Chip_Clock_GetBaseClocktHz) for Chip_Clock_GetBaseClocktHz
    clock_18xx_43xx.o(i.Chip_Clock_SetupMainPLLHz) refers to clock_18xx_43xx.o(i.Chip_Clock_GetClockInputHz) for Chip_Clock_GetClockInputHz
    clock_18xx_43xx.o(i.Chip_Clock_SetupMainPLLHz) refers to clock_18xx_43xx.o(i.Chip_Clock_TestMainPLLMultiplier) for Chip_Clock_TestMainPLLMultiplier
    clock_18xx_43xx.o(i.Chip_Clock_SetupMainPLLHz) refers to clock_18xx_43xx.o(i.Chip_Clock_SetupMainPLLMult) for Chip_Clock_SetupMainPLLMult
    clock_18xx_43xx.o(i.Chip_Clock_SetupMainPLLMult) refers to clock_18xx_43xx.o(i.Chip_Clock_GetClockInputHz) for Chip_Clock_GetClockInputHz
    clock_18xx_43xx.o(i.Chip_Clock_SetupMainPLLMult) refers to clock_18xx_43xx.o(i.Chip_Clock_DisableMainPLL) for Chip_Clock_DisableMainPLL
    clock_18xx_43xx.o(i.Chip_Clock_SetupMainPLLMult) refers to clock_18xx_43xx.o(i.clock_init_delay) for clock_init_delay
    clock_18xx_43xx.o(i.Chip_Clock_SetupPLL) refers to clock_18xx_43xx.o(.data) for audio_usb_pll_freq
    emc_18xx_43xx.o(i.Chip_EMC_Dynamic_Init) refers to clock_18xx_43xx.o(i.Chip_Clock_GetEMCRate) for Chip_Clock_GetEMCRate
    emc_18xx_43xx.o(i.Chip_EMC_Dynamic_Init) refers to emc_18xx_43xx.o(i.initDynMem) for initDynMem
    emc_18xx_43xx.o(i.Chip_EMC_Static_Init) refers to clock_18xx_43xx.o(i.Chip_Clock_GetEMCRate) for Chip_Clock_GetEMCRate
    emc_18xx_43xx.o(i.Chip_EMC_Static_Init) refers to emc_18xx_43xx.o(i.initStaticMem) for initStaticMem
    emc_18xx_43xx.o(i.initDynMem) refers to emc_18xx_43xx.o(i.convertTimmingParam) for convertTimmingParam
    emc_18xx_43xx.o(i.initDynMem) refers to emc_18xx_43xx.o(i.getColsLen) for getColsLen
    emc_18xx_43xx.o(i.initStaticMem) refers to emc_18xx_43xx.o(i.convertTimmingParam) for convertTimmingParam
    sysinit_18xx_43xx.o(i.Chip_SetupCoreClock) refers to sysinit_18xx_43xx.o(i.clock_main_init) for clock_main_init
    sysinit_18xx_43xx.o(i.Chip_SetupIrcClocking) refers to sysinit_18xx_43xx.o(i.Chip_SetupCoreClock) for Chip_SetupCoreClock
    sysinit_18xx_43xx.o(i.Chip_SetupXtalClocking) refers to sysinit_18xx_43xx.o(i.Chip_SetupCoreClock) for Chip_SetupCoreClock
    sysinit_18xx_43xx.o(i.Chip_SystemInit) refers to sysinit_18xx_43xx.o(i.Chip_SetupIrcClocking) for Chip_SetupIrcClocking
    sysinit_18xx_43xx.o(i.clock_main_init) refers to sysinit_18xx_43xx.o(i.clock_init_delay) for clock_init_delay
    sysinit_18xx_43xx.o(i.clock_main_init) refers to clock_18xx_43xx.o(i.Chip_Clock_SetBaseClock) for Chip_Clock_SetBaseClock
    sysinit_18xx_43xx.o(i.clock_main_init) refers to sysinit_18xx_43xx.o(.constdata) for InitClkStates
    board.o(i.Board_Audio_CodecInit) refers to uda1380.o(i.UDA1380_Init) for UDA1380_Init
    board.o(i.Board_Audio_Init) refers to i2s_18xx_43xx.o(i.Chip_I2S_Init) for Chip_I2S_Init
    board.o(i.Board_Audio_Init) refers to i2s_18xx_43xx.o(i.Chip_I2S_TxConfig) for Chip_I2S_TxConfig
    board.o(i.Board_Audio_Init) refers to board.o(i.Board_Audio_CodecInit) for Board_Audio_CodecInit
    board.o(i.Board_Buttons_Init) refers to board.o(i.Chip_SCU_PinMuxSet) for Chip_SCU_PinMuxSet
    board.o(i.Board_Buttons_Init) refers to board.o(i.Chip_GPIO_SetPinDIRInput) for Chip_GPIO_SetPinDIRInput
    board.o(i.Board_Debug_Init) refers to board.o(i.Board_UART_Init) for Board_UART_Init
    board.o(i.Board_Debug_Init) refers to uart_18xx_43xx.o(i.Chip_UART_Init) for Chip_UART_Init
    board.o(i.Board_Debug_Init) refers to uart_18xx_43xx.o(i.Chip_UART_SetBaud) for Chip_UART_SetBaud
    board.o(i.Board_GetTouchPos) refers to i2c_18xx_43xx.o(i.Chip_I2C_GetMasterEventHandler) for Chip_I2C_GetMasterEventHandler
    board.o(i.Board_GetTouchPos) refers to i2c_18xx_43xx.o(i.Chip_I2C_SetMasterEventHandler) for Chip_I2C_SetMasterEventHandler
    board.o(i.Board_GetTouchPos) refers to board.o(i.Board_I2C_GetTouchPos) for Board_I2C_GetTouchPos
    board.o(i.Board_GetTouchPos) refers to i2c_18xx_43xx.o(i.Chip_I2C_EventHandlerPolling) for Chip_I2C_EventHandlerPolling
    board.o(i.Board_I2C_GetTouchPos) refers to board.o(i.detectTSCTouch) for detectTSCTouch
    board.o(i.Board_I2C_GetTouchPos) refers to board.o(i.getTSCCoord) for getTSCCoord
    board.o(i.Board_I2C_GetTouchPos) refers to board.o(.data) for g_isPenDn
    board.o(i.Board_I2C_Init) refers to board.o(i.Chip_SCU_PinMuxSet) for Chip_SCU_PinMuxSet
    board.o(i.Board_Init) refers to board.o(i.Board_Debug_Init) for Board_Debug_Init
    board.o(i.Board_Init) refers to gpio_18xx_43xx.o(i.Chip_GPIO_Init) for Chip_GPIO_Init
    board.o(i.Board_Init) refers to board.o(i.Chip_SCU_PinMuxSet) for Chip_SCU_PinMuxSet
    board.o(i.Board_Init) refers to board.o(i.Board_LED_Init) for Board_LED_Init
    board.o(i.Board_InitLCDController) refers to board.o(i.delay) for delay
    board.o(i.Board_InitLCDController) refers to board.o(i.pinConfig) for pinConfig
    board.o(i.Board_InitLCDController) refers to ssp_18xx_43xx.o(i.Chip_SSP_Init) for Chip_SSP_Init
    board.o(i.Board_InitLCDController) refers to ssp_18xx_43xx.o(i.Chip_SSP_SetMaster) for Chip_SSP_SetMaster
    board.o(i.Board_InitLCDController) refers to ssp_18xx_43xx.o(i.Chip_SSP_SetBitRate) for Chip_SSP_SetBitRate
    board.o(i.Board_InitLCDController) refers to board.o(i.writeLCDReg) for writeLCDReg
    board.o(i.Board_InitTouchController) refers to i2c_18xx_43xx.o(i.Chip_I2C_GetMasterEventHandler) for Chip_I2C_GetMasterEventHandler
    board.o(i.Board_InitTouchController) refers to board.o(i.Board_I2C_Init) for Board_I2C_Init
    board.o(i.Board_InitTouchController) refers to i2c_18xx_43xx.o(i.Chip_I2C_Init) for Chip_I2C_Init
    board.o(i.Board_InitTouchController) refers to i2c_18xx_43xx.o(i.Chip_I2C_SetClockRate) for Chip_I2C_SetClockRate
    board.o(i.Board_InitTouchController) refers to i2c_18xx_43xx.o(i.Chip_I2C_SetMasterEventHandler) for Chip_I2C_SetMasterEventHandler
    board.o(i.Board_InitTouchController) refers to board.o(i.writeTSCReg) for writeTSCReg
    board.o(i.Board_InitTouchController) refers to i2c_18xx_43xx.o(i.Chip_I2C_EventHandlerPolling) for Chip_I2C_EventHandlerPolling
    board.o(i.Board_Joystick_Init) refers to board.o(i.Chip_SCU_PinMuxSet) for Chip_SCU_PinMuxSet
    board.o(i.Board_Joystick_Init) refers to board.o(i.Chip_GPIO_SetPinDIRInput) for Chip_GPIO_SetPinDIRInput
    board.o(i.Board_LCD_Init) refers to rgu_18xx_43xx.o(i.Chip_RGU_TriggerReset) for Chip_RGU_TriggerReset
    board.o(i.Board_LCD_Init) refers to rgu_18xx_43xx.o(i.Chip_RGU_InReset) for Chip_RGU_InReset
    board.o(i.Board_LCD_Init) refers to board.o(i.Chip_GPIO_SetPinDIROutput) for Chip_GPIO_SetPinDIROutput
    board.o(i.Board_LCD_Init) refers to board.o(i.Board_InitLCDController) for Board_InitLCDController
    board.o(i.Board_LED_Init) refers to board.o(i.Chip_GPIO_SetPinDIROutput) for Chip_GPIO_SetPinDIROutput
    board.o(i.Board_LED_Init) refers to board.o(.constdata) for ledbits
    board.o(i.Board_LED_Set) refers to board.o(i.Chip_GPIO_SetPinState) for Chip_GPIO_SetPinState
    board.o(i.Board_LED_Set) refers to board.o(.constdata) for ledbits
    board.o(i.Board_LED_Test) refers to board.o(i.Chip_GPIO_GetPinState) for Chip_GPIO_GetPinState
    board.o(i.Board_LED_Test) refers to board.o(.constdata) for ledbits
    board.o(i.Board_LED_Toggle) refers to board.o(i.Board_LED_Test) for Board_LED_Test
    board.o(i.Board_LED_Toggle) refers to board.o(i.Board_LED_Set) for Board_LED_Set
    board.o(i.Board_SDMMC_Init) refers to board.o(i.Chip_SCU_PinMuxSet) for Chip_SCU_PinMuxSet
    board.o(i.Board_SSP_Init) refers to board.o(i.Chip_SCU_PinMuxSet) for Chip_SCU_PinMuxSet
    board.o(i.Board_SetLCDBacklight) refers to board.o(i.Chip_GPIO_SetPinState) for Chip_GPIO_SetPinState
    board.o(i.Board_UARTPutSTR) refers to board.o(i.Board_UARTPutChar) for Board_UARTPutChar
    board.o(i.Board_UART_Init) refers to board.o(i.Chip_SCU_PinMuxSet) for Chip_SCU_PinMuxSet
    board.o(i.Buttons_GetStatus) refers to board.o(i.Chip_GPIO_GetPinState) for Chip_GPIO_GetPinState
    board.o(i.Joystick_GetStatus) refers to board.o(i.Chip_GPIO_GetPinState) for Chip_GPIO_GetPinState
    board.o(i.detectTSCTouch) refers to board.o(i.readTSCReg) for readTSCReg
    board.o(i.fgetc) refers to board.o(i.Board_UARTGetChar) for Board_UARTGetChar
    board.o(i.fputc) refers to board.o(i.Board_UARTPutChar) for Board_UARTPutChar
    board.o(i.getTSCCoord) refers to board.o(i.readTSCReg) for readTSCReg
    board.o(i.getTSCCoord) refers to i2c_18xx_43xx.o(i.Chip_I2C_MasterCmdRead) for Chip_I2C_MasterCmdRead
    board.o(i.getTSCCoord) refers to board.o(i.writeTSCReg) for writeTSCReg
    board.o(i.pinConfig) refers to board.o(i.Chip_GPIO_SetPinDIROutput) for Chip_GPIO_SetPinDIROutput
    board.o(i.readTSCReg) refers to i2c_18xx_43xx.o(i.Chip_I2C_MasterCmdRead) for Chip_I2C_MasterCmdRead
    board.o(i.writeLCD00_16) refers to board.o(i.Chip_GPIO_SetPinState) for Chip_GPIO_SetPinState
    board.o(i.writeLCD00_16) refers to ssp_18xx_43xx.o(i.Chip_SSP_WriteFrames_Blocking) for Chip_SSP_WriteFrames_Blocking
    board.o(i.writeLCD01_16) refers to board.o(i.Chip_GPIO_SetPinState) for Chip_GPIO_SetPinState
    board.o(i.writeLCD01_16) refers to ssp_18xx_43xx.o(i.Chip_SSP_WriteFrames_Blocking) for Chip_SSP_WriteFrames_Blocking
    board.o(i.writeLCDReg) refers to board.o(i.writeLCD00_16) for writeLCD00_16
    board.o(i.writeLCDReg) refers to board.o(i.writeLCD01_16) for writeLCD01_16
    board.o(i.writeTSCReg) refers to i2c_18xx_43xx.o(i.Chip_I2C_MasterSend) for Chip_I2C_MasterSend
    uda1380.o(i.Audio_Codec_SetDefaultValues) refers to uda1380.o(i.UDA1380_REG_WriteMult) for UDA1380_REG_WriteMult
    uda1380.o(i.Audio_Codec_SetDefaultValues) refers to uda1380.o(i.UDA1380_REG_VerifyMult) for UDA1380_REG_VerifyMult
    uda1380.o(i.UDA1380_Init) refers to i2c_18xx_43xx.o(i.Chip_I2C_GetMasterEventHandler) for Chip_I2C_GetMasterEventHandler
    uda1380.o(i.UDA1380_Init) refers to board.o(i.Board_I2C_Init) for Board_I2C_Init
    uda1380.o(i.UDA1380_Init) refers to i2c_18xx_43xx.o(i.Chip_I2C_Init) for Chip_I2C_Init
    uda1380.o(i.UDA1380_Init) refers to i2c_18xx_43xx.o(i.Chip_I2C_SetClockRate) for Chip_I2C_SetClockRate
    uda1380.o(i.UDA1380_Init) refers to i2c_18xx_43xx.o(i.Chip_I2C_SetMasterEventHandler) for Chip_I2C_SetMasterEventHandler
    uda1380.o(i.UDA1380_Init) refers to uda1380.o(i.Audio_Codec_SetDefaultValues) for Audio_Codec_SetDefaultValues
    uda1380.o(i.UDA1380_Init) refers to uda1380.o(i.UDA1380_REG_WriteVerify) for UDA1380_REG_WriteVerify
    uda1380.o(i.UDA1380_Init) refers to i2c_18xx_43xx.o(i.Chip_I2C_EventHandlerPolling) for Chip_I2C_EventHandlerPolling
    uda1380.o(i.UDA1380_Init) refers to uda1380.o(.constdata) for UDA_sys_regs_dat
    uda1380.o(i.UDA1380_REG_Read) refers to i2c_18xx_43xx.o(i.Chip_I2C_MasterCmdRead) for Chip_I2C_MasterCmdRead
    uda1380.o(i.UDA1380_REG_VerifyMult) refers to i2c_18xx_43xx.o(i.Chip_I2C_MasterCmdRead) for Chip_I2C_MasterCmdRead
    uda1380.o(i.UDA1380_REG_Write) refers to i2c_18xx_43xx.o(i.Chip_I2C_MasterSend) for Chip_I2C_MasterSend
    uda1380.o(i.UDA1380_REG_WriteMult) refers to i2c_18xx_43xx.o(i.Chip_I2C_MasterSend) for Chip_I2C_MasterSend
    uda1380.o(i.UDA1380_REG_WriteVerify) refers to uda1380.o(i.UDA1380_REG_Write) for UDA1380_REG_Write
    uda1380.o(i.UDA1380_REG_WriteVerify) refers to uda1380.o(i.UDA1380_REG_Read) for UDA1380_REG_Read
    i2c_18xx_43xx.o(i.Chip_I2C_DeInit) refers to clock_18xx_43xx.o(i.Chip_Clock_Disable) for Chip_Clock_Disable
    i2c_18xx_43xx.o(i.Chip_I2C_DeInit) refers to i2c_18xx_43xx.o(.data) for i2c
    i2c_18xx_43xx.o(i.Chip_I2C_Disable) refers to i2c_18xx_43xx.o(.data) for i2c
    i2c_18xx_43xx.o(i.Chip_I2C_EventHandler) refers to i2c_18xx_43xx.o(.data) for i2c
    i2c_18xx_43xx.o(i.Chip_I2C_EventHandlerPolling) refers to i2c_18xx_43xx.o(i.Chip_I2C_IsStateChanged) for Chip_I2C_IsStateChanged
    i2c_18xx_43xx.o(i.Chip_I2C_EventHandlerPolling) refers to i2c_18xx_43xx.o(i.Chip_I2C_MasterStateHandler) for Chip_I2C_MasterStateHandler
    i2c_18xx_43xx.o(i.Chip_I2C_EventHandlerPolling) refers to i2c_18xx_43xx.o(.data) for i2c
    i2c_18xx_43xx.o(i.Chip_I2C_GetClockRate) refers to i2c_18xx_43xx.o(i.getClkRate) for getClkRate
    i2c_18xx_43xx.o(i.Chip_I2C_GetClockRate) refers to i2c_18xx_43xx.o(.data) for i2c
    i2c_18xx_43xx.o(i.Chip_I2C_GetMasterEventHandler) refers to i2c_18xx_43xx.o(.data) for i2c
    i2c_18xx_43xx.o(i.Chip_I2C_Init) refers to clock_18xx_43xx.o(i.Chip_Clock_Enable) for Chip_Clock_Enable
    i2c_18xx_43xx.o(i.Chip_I2C_Init) refers to i2c_18xx_43xx.o(.data) for i2c
    i2c_18xx_43xx.o(i.Chip_I2C_IsMasterActive) refers to i2c_18xx_43xx.o(i.getCurState) for getCurState
    i2c_18xx_43xx.o(i.Chip_I2C_IsMasterActive) refers to i2c_18xx_43xx.o(.data) for i2c
    i2c_18xx_43xx.o(i.Chip_I2C_IsStateChanged) refers to i2c_18xx_43xx.o(.data) for i2c
    i2c_18xx_43xx.o(i.Chip_I2C_MasterCmdRead) refers to rt_memclr_w.o(.text) for __aeabi_memclr4
    i2c_18xx_43xx.o(i.Chip_I2C_MasterCmdRead) refers to i2c_18xx_43xx.o(i.Chip_I2C_MasterTransfer) for Chip_I2C_MasterTransfer
    i2c_18xx_43xx.o(i.Chip_I2C_MasterRead) refers to rt_memclr_w.o(.text) for __aeabi_memclr4
    i2c_18xx_43xx.o(i.Chip_I2C_MasterRead) refers to i2c_18xx_43xx.o(i.Chip_I2C_MasterTransfer) for Chip_I2C_MasterTransfer
    i2c_18xx_43xx.o(i.Chip_I2C_MasterSend) refers to rt_memclr_w.o(.text) for __aeabi_memclr4
    i2c_18xx_43xx.o(i.Chip_I2C_MasterSend) refers to i2c_18xx_43xx.o(i.Chip_I2C_MasterTransfer) for Chip_I2C_MasterTransfer
    i2c_18xx_43xx.o(i.Chip_I2C_MasterStateHandler) refers to i2c_18xx_43xx.o(i.handleMasterXferState) for handleMasterXferState
    i2c_18xx_43xx.o(i.Chip_I2C_MasterStateHandler) refers to i2c_18xx_43xx.o(.data) for i2c
    i2c_18xx_43xx.o(i.Chip_I2C_MasterTransfer) refers to i2c_18xx_43xx.o(i.startSlaverXfer) for startSlaverXfer
    i2c_18xx_43xx.o(i.Chip_I2C_MasterTransfer) refers to i2c_18xx_43xx.o(.data) for i2c
    i2c_18xx_43xx.o(i.Chip_I2C_SetClockRate) refers to i2c_18xx_43xx.o(i.getClkRate) for getClkRate
    i2c_18xx_43xx.o(i.Chip_I2C_SetClockRate) refers to i2c_18xx_43xx.o(.data) for i2c
    i2c_18xx_43xx.o(i.Chip_I2C_SetMasterEventHandler) refers to i2c_18xx_43xx.o(.data) for i2c
    i2c_18xx_43xx.o(i.Chip_I2C_SlaveSetup) refers to i2c_18xx_43xx.o(i.setSlaveAddr) for setSlaveAddr
    i2c_18xx_43xx.o(i.Chip_I2C_SlaveSetup) refers to i2c_18xx_43xx.o(i.startSlaverXfer) for startSlaverXfer
    i2c_18xx_43xx.o(i.Chip_I2C_SlaveSetup) refers to i2c_18xx_43xx.o(.data) for i2c
    i2c_18xx_43xx.o(i.Chip_I2C_SlaveSetup) refers to i2c_18xx_43xx.o(.bss) for i2c_slave
    i2c_18xx_43xx.o(i.Chip_I2C_SlaveStateHandler) refers to i2c_18xx_43xx.o(i.getSlaveIndex) for getSlaveIndex
    i2c_18xx_43xx.o(i.Chip_I2C_SlaveStateHandler) refers to i2c_18xx_43xx.o(i.handleSlaveXferState) for handleSlaveXferState
    i2c_18xx_43xx.o(i.Chip_I2C_SlaveStateHandler) refers to i2c_18xx_43xx.o(.data) for i2c
    i2c_18xx_43xx.o(i.Chip_I2C_SlaveStateHandler) refers to i2c_18xx_43xx.o(.bss) for i2c_slave
    i2c_18xx_43xx.o(i.getClkRate) refers to clock_18xx_43xx.o(i.Chip_Clock_GetRate) for Chip_Clock_GetRate
    i2c_18xx_43xx.o(i.getClkRate) refers to i2c_18xx_43xx.o(.data) for i2c
    i2c_18xx_43xx.o(i.getSlaveIndex) refers to i2c_18xx_43xx.o(i.getCurState) for getCurState
    i2c_18xx_43xx.o(i.getSlaveIndex) refers to i2c_18xx_43xx.o(i.lookupSlaveIndex) for lookupSlaveIndex
    i2c_18xx_43xx.o(i.handleMasterXferState) refers to i2c_18xx_43xx.o(i.getCurState) for getCurState
    i2c_18xx_43xx.o(i.handleSlaveXferState) refers to i2c_18xx_43xx.o(i.getCurState) for getCurState
    i2c_18xx_43xx.o(i.lookupSlaveIndex) refers to i2c_18xx_43xx.o(i.isSlaveAddrMatching) for isSlaveAddrMatching
    i2c_18xx_43xx.o(.data) refers to i2c_18xx_43xx.o(i.Chip_I2C_EventHandler) for Chip_I2C_EventHandler
    i2s_18xx_43xx.o(i.Chip_I2S_DeInit) refers to clock_18xx_43xx.o(i.Chip_Clock_Disable) for Chip_Clock_Disable
    i2s_18xx_43xx.o(i.Chip_I2S_Init) refers to clock_18xx_43xx.o(i.Chip_Clock_Enable) for Chip_Clock_Enable
    i2s_18xx_43xx.o(i.Chip_I2S_RxConfig) refers to i2s_18xx_43xx.o(i.getClkDiv) for getClkDiv
    i2s_18xx_43xx.o(i.Chip_I2S_TxConfig) refers to i2s_18xx_43xx.o(i.getClkDiv) for getClkDiv
    i2s_18xx_43xx.o(i.getClkDiv) refers to clock_18xx_43xx.o(i.Chip_Clock_GetRate) for Chip_Clock_GetRate
    i2s_18xx_43xx.o(i.getClkDiv) refers to lludivv7m.o(.text) for __aeabi_uldivmod
    ssp_18xx_43xx.o(i.Chip_SSP_DeInit) refers to ssp_18xx_43xx.o(i.Chip_SSP_GetClockIndex) for Chip_SSP_GetClockIndex
    ssp_18xx_43xx.o(i.Chip_SSP_DeInit) refers to clock_18xx_43xx.o(i.Chip_Clock_Disable) for Chip_Clock_Disable
    ssp_18xx_43xx.o(i.Chip_SSP_Init) refers to ssp_18xx_43xx.o(i.Chip_SSP_GetClockIndex) for Chip_SSP_GetClockIndex
    ssp_18xx_43xx.o(i.Chip_SSP_Init) refers to clock_18xx_43xx.o(i.Chip_Clock_Enable) for Chip_Clock_Enable
    ssp_18xx_43xx.o(i.Chip_SSP_Init) refers to ssp_18xx_43xx.o(i.Chip_SSP_Set_Mode) for Chip_SSP_Set_Mode
    ssp_18xx_43xx.o(i.Chip_SSP_Init) refers to ssp_18xx_43xx.o(i.Chip_SSP_SetBitRate) for Chip_SSP_SetBitRate
    ssp_18xx_43xx.o(i.Chip_SSP_Int_FlushData) refers to ssp_18xx_43xx.o(i.Chip_SSP_GetStatus) for Chip_SSP_GetStatus
    ssp_18xx_43xx.o(i.Chip_SSP_Int_FlushData) refers to ssp_18xx_43xx.o(i.Chip_SSP_ReceiveFrame) for Chip_SSP_ReceiveFrame
    ssp_18xx_43xx.o(i.Chip_SSP_Int_FlushData) refers to ssp_18xx_43xx.o(i.Chip_SSP_ClearIntPending) for Chip_SSP_ClearIntPending
    ssp_18xx_43xx.o(i.Chip_SSP_Int_RWFrames16Bits) refers to ssp_18xx_43xx.o(i.Chip_SSP_GetRawIntStatus) for Chip_SSP_GetRawIntStatus
    ssp_18xx_43xx.o(i.Chip_SSP_Int_RWFrames16Bits) refers to ssp_18xx_43xx.o(i.SSP_Read2BFifo) for SSP_Read2BFifo
    ssp_18xx_43xx.o(i.Chip_SSP_Int_RWFrames16Bits) refers to ssp_18xx_43xx.o(i.SSP_Write2BFifo) for SSP_Write2BFifo
    ssp_18xx_43xx.o(i.Chip_SSP_Int_RWFrames16Bits) refers to ssp_18xx_43xx.o(i.Chip_SSP_GetStatus) for Chip_SSP_GetStatus
    ssp_18xx_43xx.o(i.Chip_SSP_Int_RWFrames8Bits) refers to ssp_18xx_43xx.o(i.Chip_SSP_GetRawIntStatus) for Chip_SSP_GetRawIntStatus
    ssp_18xx_43xx.o(i.Chip_SSP_Int_RWFrames8Bits) refers to ssp_18xx_43xx.o(i.SSP_Read1BFifo) for SSP_Read1BFifo
    ssp_18xx_43xx.o(i.Chip_SSP_Int_RWFrames8Bits) refers to ssp_18xx_43xx.o(i.SSP_Write1BFifo) for SSP_Write1BFifo
    ssp_18xx_43xx.o(i.Chip_SSP_Int_RWFrames8Bits) refers to ssp_18xx_43xx.o(i.Chip_SSP_GetStatus) for Chip_SSP_GetStatus
    ssp_18xx_43xx.o(i.Chip_SSP_RWFrames_Blocking) refers to ssp_18xx_43xx.o(i.Chip_SSP_ReceiveFrame) for Chip_SSP_ReceiveFrame
    ssp_18xx_43xx.o(i.Chip_SSP_RWFrames_Blocking) refers to ssp_18xx_43xx.o(i.Chip_SSP_GetStatus) for Chip_SSP_GetStatus
    ssp_18xx_43xx.o(i.Chip_SSP_RWFrames_Blocking) refers to ssp_18xx_43xx.o(i.Chip_SSP_ClearIntPending) for Chip_SSP_ClearIntPending
    ssp_18xx_43xx.o(i.Chip_SSP_RWFrames_Blocking) refers to ssp_18xx_43xx.o(i.SSP_Write2BFifo) for SSP_Write2BFifo
    ssp_18xx_43xx.o(i.Chip_SSP_RWFrames_Blocking) refers to ssp_18xx_43xx.o(i.Chip_SSP_GetRawIntStatus) for Chip_SSP_GetRawIntStatus
    ssp_18xx_43xx.o(i.Chip_SSP_RWFrames_Blocking) refers to ssp_18xx_43xx.o(i.SSP_Read2BFifo) for SSP_Read2BFifo
    ssp_18xx_43xx.o(i.Chip_SSP_RWFrames_Blocking) refers to ssp_18xx_43xx.o(i.SSP_Write1BFifo) for SSP_Write1BFifo
    ssp_18xx_43xx.o(i.Chip_SSP_RWFrames_Blocking) refers to ssp_18xx_43xx.o(i.SSP_Read1BFifo) for SSP_Read1BFifo
    ssp_18xx_43xx.o(i.Chip_SSP_ReadFrames_Blocking) refers to ssp_18xx_43xx.o(i.Chip_SSP_ReceiveFrame) for Chip_SSP_ReceiveFrame
    ssp_18xx_43xx.o(i.Chip_SSP_ReadFrames_Blocking) refers to ssp_18xx_43xx.o(i.Chip_SSP_GetStatus) for Chip_SSP_GetStatus
    ssp_18xx_43xx.o(i.Chip_SSP_ReadFrames_Blocking) refers to ssp_18xx_43xx.o(i.Chip_SSP_ClearIntPending) for Chip_SSP_ClearIntPending
    ssp_18xx_43xx.o(i.Chip_SSP_ReadFrames_Blocking) refers to ssp_18xx_43xx.o(i.Chip_SSP_SendFrame) for Chip_SSP_SendFrame
    ssp_18xx_43xx.o(i.Chip_SSP_ReadFrames_Blocking) refers to ssp_18xx_43xx.o(i.Chip_SSP_GetRawIntStatus) for Chip_SSP_GetRawIntStatus
    ssp_18xx_43xx.o(i.Chip_SSP_SetBitRate) refers to ssp_18xx_43xx.o(i.Chip_SSP_GetClockIndex) for Chip_SSP_GetClockIndex
    ssp_18xx_43xx.o(i.Chip_SSP_SetBitRate) refers to clock_18xx_43xx.o(i.Chip_Clock_GetRate) for Chip_Clock_GetRate
    ssp_18xx_43xx.o(i.Chip_SSP_SetBitRate) refers to ssp_18xx_43xx.o(i.Chip_SSP_SetClockRate) for Chip_SSP_SetClockRate
    ssp_18xx_43xx.o(i.Chip_SSP_SetMaster) refers to ssp_18xx_43xx.o(i.Chip_SSP_Set_Mode) for Chip_SSP_Set_Mode
    ssp_18xx_43xx.o(i.Chip_SSP_WriteFrames_Blocking) refers to ssp_18xx_43xx.o(i.Chip_SSP_ReceiveFrame) for Chip_SSP_ReceiveFrame
    ssp_18xx_43xx.o(i.Chip_SSP_WriteFrames_Blocking) refers to ssp_18xx_43xx.o(i.Chip_SSP_GetStatus) for Chip_SSP_GetStatus
    ssp_18xx_43xx.o(i.Chip_SSP_WriteFrames_Blocking) refers to ssp_18xx_43xx.o(i.Chip_SSP_ClearIntPending) for Chip_SSP_ClearIntPending
    ssp_18xx_43xx.o(i.Chip_SSP_WriteFrames_Blocking) refers to ssp_18xx_43xx.o(i.Chip_SSP_SendFrame) for Chip_SSP_SendFrame
    ssp_18xx_43xx.o(i.Chip_SSP_WriteFrames_Blocking) refers to ssp_18xx_43xx.o(i.Chip_SSP_GetRawIntStatus) for Chip_SSP_GetRawIntStatus
    ssp_18xx_43xx.o(i.SSP_Read1BFifo) refers to ssp_18xx_43xx.o(i.Chip_SSP_ReceiveFrame) for Chip_SSP_ReceiveFrame
    ssp_18xx_43xx.o(i.SSP_Read1BFifo) refers to ssp_18xx_43xx.o(i.Chip_SSP_GetStatus) for Chip_SSP_GetStatus
    ssp_18xx_43xx.o(i.SSP_Read2BFifo) refers to ssp_18xx_43xx.o(i.Chip_SSP_ReceiveFrame) for Chip_SSP_ReceiveFrame
    ssp_18xx_43xx.o(i.SSP_Read2BFifo) refers to ssp_18xx_43xx.o(i.Chip_SSP_GetStatus) for Chip_SSP_GetStatus
    ssp_18xx_43xx.o(i.SSP_Write1BFifo) refers to ssp_18xx_43xx.o(i.Chip_SSP_SendFrame) for Chip_SSP_SendFrame
    ssp_18xx_43xx.o(i.SSP_Write2BFifo) refers to ssp_18xx_43xx.o(i.Chip_SSP_SendFrame) for Chip_SSP_SendFrame
    uart_18xx_43xx.o(i.Chip_UART_ABIntHandler) refers to uart_18xx_43xx.o(i.Chip_UART_SetAutoBaudReg) for Chip_UART_SetAutoBaudReg
    uart_18xx_43xx.o(i.Chip_UART_ABIntHandler) refers to uart_18xx_43xx.o(i.Chip_UART_IntDisable) for Chip_UART_IntDisable
    uart_18xx_43xx.o(i.Chip_UART_ABIntHandler) refers to uart_18xx_43xx.o(.data) for ABsyncSts
    uart_18xx_43xx.o(i.Chip_UART_DeInit) refers to uart_18xx_43xx.o(i.Chip_UART_GetClockIndex) for Chip_UART_GetClockIndex
    uart_18xx_43xx.o(i.Chip_UART_DeInit) refers to clock_18xx_43xx.o(i.Chip_Clock_Disable) for Chip_Clock_Disable
    uart_18xx_43xx.o(i.Chip_UART_GetABEOStatus) refers to uart_18xx_43xx.o(.data) for ABsyncSts
    uart_18xx_43xx.o(i.Chip_UART_IRQRBHandler) refers to uart_18xx_43xx.o(i.Chip_UART_TXIntHandlerRB) for Chip_UART_TXIntHandlerRB
    uart_18xx_43xx.o(i.Chip_UART_IRQRBHandler) refers to uart_18xx_43xx.o(i.RingBuffer_IsEmpty) for RingBuffer_IsEmpty
    uart_18xx_43xx.o(i.Chip_UART_IRQRBHandler) refers to uart_18xx_43xx.o(i.Chip_UART_IntDisable) for Chip_UART_IntDisable
    uart_18xx_43xx.o(i.Chip_UART_IRQRBHandler) refers to uart_18xx_43xx.o(i.Chip_UART_RXIntHandlerRB) for Chip_UART_RXIntHandlerRB
    uart_18xx_43xx.o(i.Chip_UART_IRQRBHandler) refers to uart_18xx_43xx.o(i.Chip_UART_ABIntHandler) for Chip_UART_ABIntHandler
    uart_18xx_43xx.o(i.Chip_UART_Init) refers to uart_18xx_43xx.o(i.Chip_UART_GetClockIndex) for Chip_UART_GetClockIndex
    uart_18xx_43xx.o(i.Chip_UART_Init) refers to clock_18xx_43xx.o(i.Chip_Clock_EnableOpts) for Chip_Clock_EnableOpts
    uart_18xx_43xx.o(i.Chip_UART_RXIntHandlerRB) refers to ring_buffer.o(i.RingBuffer_Insert) for RingBuffer_Insert
    uart_18xx_43xx.o(i.Chip_UART_RXIntHandlerRB) refers to uart_18xx_43xx.o(i.Chip_UART_ReadLineStatus) for Chip_UART_ReadLineStatus
    uart_18xx_43xx.o(i.Chip_UART_Read) refers to uart_18xx_43xx.o(i.Chip_UART_ReadLineStatus) for Chip_UART_ReadLineStatus
    uart_18xx_43xx.o(i.Chip_UART_ReadBlocking) refers to uart_18xx_43xx.o(i.Chip_UART_Read) for Chip_UART_Read
    uart_18xx_43xx.o(i.Chip_UART_ReadRB) refers to ring_buffer.o(i.RingBuffer_PopMult) for RingBuffer_PopMult
    uart_18xx_43xx.o(i.Chip_UART_Send) refers to uart_18xx_43xx.o(i.Chip_UART_SendByte) for Chip_UART_SendByte
    uart_18xx_43xx.o(i.Chip_UART_Send) refers to uart_18xx_43xx.o(i.Chip_UART_ReadLineStatus) for Chip_UART_ReadLineStatus
    uart_18xx_43xx.o(i.Chip_UART_SendBlocking) refers to uart_18xx_43xx.o(i.Chip_UART_Send) for Chip_UART_Send
    uart_18xx_43xx.o(i.Chip_UART_SendRB) refers to uart_18xx_43xx.o(i.Chip_UART_IntDisable) for Chip_UART_IntDisable
    uart_18xx_43xx.o(i.Chip_UART_SendRB) refers to ring_buffer.o(i.RingBuffer_InsertMult) for RingBuffer_InsertMult
    uart_18xx_43xx.o(i.Chip_UART_SendRB) refers to uart_18xx_43xx.o(i.Chip_UART_TXIntHandlerRB) for Chip_UART_TXIntHandlerRB
    uart_18xx_43xx.o(i.Chip_UART_SetBaud) refers to uart_18xx_43xx.o(i.Chip_UART_GetClockIndex) for Chip_UART_GetClockIndex
    uart_18xx_43xx.o(i.Chip_UART_SetBaud) refers to clock_18xx_43xx.o(i.Chip_Clock_GetRate) for Chip_Clock_GetRate
    uart_18xx_43xx.o(i.Chip_UART_SetBaud) refers to uart_18xx_43xx.o(i.Chip_UART_EnableDivisorAccess) for Chip_UART_EnableDivisorAccess
    uart_18xx_43xx.o(i.Chip_UART_SetBaud) refers to uart_18xx_43xx.o(i.Chip_UART_SetDivisorLatches) for Chip_UART_SetDivisorLatches
    uart_18xx_43xx.o(i.Chip_UART_SetBaud) refers to uart_18xx_43xx.o(i.Chip_UART_DisableDivisorAccess) for Chip_UART_DisableDivisorAccess
    uart_18xx_43xx.o(i.Chip_UART_SetBaudFDR) refers to uart_18xx_43xx.o(i.Chip_UART_GetClockIndex) for Chip_UART_GetClockIndex
    uart_18xx_43xx.o(i.Chip_UART_SetBaudFDR) refers to clock_18xx_43xx.o(i.Chip_Clock_GetRate) for Chip_Clock_GetRate
    uart_18xx_43xx.o(i.Chip_UART_SetBaudFDR) refers to lludivv7m.o(.text) for __aeabi_uldivmod
    uart_18xx_43xx.o(i.Chip_UART_SetBaudFDR) refers to uart_18xx_43xx.o(i.Chip_UART_EnableDivisorAccess) for Chip_UART_EnableDivisorAccess
    uart_18xx_43xx.o(i.Chip_UART_SetBaudFDR) refers to uart_18xx_43xx.o(i.Chip_UART_SetDivisorLatches) for Chip_UART_SetDivisorLatches
    uart_18xx_43xx.o(i.Chip_UART_SetBaudFDR) refers to uart_18xx_43xx.o(i.Chip_UART_DisableDivisorAccess) for Chip_UART_DisableDivisorAccess
    uart_18xx_43xx.o(i.Chip_UART_TXIntHandlerRB) refers to uart_18xx_43xx.o(i.Chip_UART_SendByte) for Chip_UART_SendByte
    uart_18xx_43xx.o(i.Chip_UART_TXIntHandlerRB) refers to uart_18xx_43xx.o(i.Chip_UART_ReadLineStatus) for Chip_UART_ReadLineStatus
    uart_18xx_43xx.o(i.Chip_UART_TXIntHandlerRB) refers to ring_buffer.o(i.RingBuffer_Pop) for RingBuffer_Pop
    uart_18xx_43xx.o(i.Chip_UART_TXIntHandlerRB) refers to uart_18xx_43xx.o(i.RingBuffer_IsEmpty) for RingBuffer_IsEmpty
    uart_18xx_43xx.o(i.Chip_UART_TXIntHandlerRB) refers to uart_18xx_43xx.o(i.Chip_UART_IntDisable) for Chip_UART_IntDisable
    ring_buffer.o(i.RingBuffer_Insert) refers to ring_buffer.o(i.RingBuffer_IsFull) for RingBuffer_IsFull
    ring_buffer.o(i.RingBuffer_Insert) refers to rt_memcpy_v6.o(.text) for __aeabi_memcpy
    ring_buffer.o(i.RingBuffer_InsertMult) refers to ring_buffer.o(i.RingBuffer_IsFull) for RingBuffer_IsFull
    ring_buffer.o(i.RingBuffer_InsertMult) refers to ring_buffer.o(i.RingBuffer_GetCount) for RingBuffer_GetCount
    ring_buffer.o(i.RingBuffer_InsertMult) refers to rt_memcpy_v6.o(.text) for __aeabi_memcpy
    ring_buffer.o(i.RingBuffer_IsFull) refers to ring_buffer.o(i.RingBuffer_GetCount) for RingBuffer_GetCount
    ring_buffer.o(i.RingBuffer_Pop) refers to ring_buffer.o(i.RingBuffer_IsEmpty) for RingBuffer_IsEmpty
    ring_buffer.o(i.RingBuffer_Pop) refers to rt_memcpy_v6.o(.text) for __aeabi_memcpy
    ring_buffer.o(i.RingBuffer_PopMult) refers to ring_buffer.o(i.RingBuffer_IsEmpty) for RingBuffer_IsEmpty
    ring_buffer.o(i.RingBuffer_PopMult) refers to ring_buffer.o(i.RingBuffer_GetCount) for RingBuffer_GetCount
    ring_buffer.o(i.RingBuffer_PopMult) refers to rt_memcpy_v6.o(.text) for __aeabi_memcpy
    atexit_aeabi.o(.text) refers to aeabi_atexit.o(.text) for __aeabi_atexit
    atexit_aeabi.o(.ARM.exidx) refers to atexit_aeabi.o(.text) for .text
    aeabi_atexit.o(.text) refers (Special) to cxa_finalize.o(.text) for __cxa_finalize
    aeabi_atexit.o(.text) refers to h1_alloc.o(.text) for malloc
    aeabi_atexit.o(.text) refers to rt_ddtor_pointer_addr_intlibspace.o(.text) for __rt_ddtor_pointer_addr
    aeabi_atexit.o(.ARM.exidx) refers (Special) to cxa_finalize.o(.text) for __cxa_finalize
    aeabi_atexit.o(.ARM.exidx) refers to aeabi_atexit.o(.text) for .text
    rt_memcpy_v6.o(.text) refers to rt_memcpy_w.o(.text) for __aeabi_memcpy4
    rt_memmove_v6.o(.text) refers to rt_memcpy_v6.o(.text) for __aeabi_memcpy
    rt_memmove_v6.o(.text) refers to rt_memmove_w.o(.text) for __memmove_aligned
    __main.o(!!!main) refers to __rtentry.o(.ARM.Collect$$rtentry$$00000000) for __rt_entry
    init_aeabi.o(.emb_text) refers (Special) to libinit2.o(.ARM.Collect$$libinit$$00000031) for __rt_lib_init_cpp_2
    init_aeabi.o(.init_array) refers (Special) to libinit2.o(.ARM.Collect$$libinit$$00000031) for __rt_lib_init_cpp_2
    init_aeabi.o(.init_array) refers to init_aeabi.o(.text) for __cpp_initialize__aeabi_
    init_aeabi.o(.dummy_text) refers (Special) to libinit2.o(.ARM.Collect$$libinit$$00000031) for __rt_lib_init_cpp_2
    init_aeabi.o(.text) refers (Special) to libinit2.o(.ARM.Collect$$libinit$$00000031) for __rt_lib_init_cpp_2
    init_aeabi.o(.ARM.exidx) refers (Special) to libinit2.o(.ARM.Collect$$libinit$$00000031) for __rt_lib_init_cpp_2
    init_aeabi.o(.ARM.exidx) refers to init_aeabi.o(.text) for .text
    ios.o(i._ZNSt8ios_base10_C_copyfmtERKS_) refers to array_new.o(i._Znaj) for operator new[] (unsigned)
    ios.o(i._ZNSt8ios_base10_C_copyfmtERKS_) refers to rt_memcpy_w.o(.text) for __aeabi_memcpy4
    ios.o(i._ZNSt8ios_base10_C_copyfmtERKS_) refers to ios.o(i._ZNSt8ios_base13_C_fire_eventENS_5eventEb) for std::ios_base::_C_fire_event(std::ios_base::event, bool)
    ios.o(i._ZNSt8ios_base10_C_copyfmtERKS_) refers to array_del.o(i._ZdaPv) for operator delete[] (void*)
    ios.o(i._ZNSt8ios_base10_C_copyfmtERKS_) refers to arm_rethrow_noexceptions.o(.text) for __cxa_rethrow
    ios.o(i._ZNSt8ios_base10_C_copyfmtERKS_.clean) refers to arm_exceptions_cleanup.o(.emb_text) for __cxa_end_cleanup
    ios.o(i._ZNSt8ios_base13_C_fire_eventENS_5eventEb) refers to ios.o(i._ZN4__rw27__rw_reallocate_temp_bufferEPvj) for __rw::__rw_reallocate_temp_buffer(void*, unsigned)
    ios.o(i._ZNSt8ios_base13_C_fire_eventENS_5eventEb) refers to rt_memcpy_w.o(.text) for __aeabi_memcpy4
    ios.o(i._ZNSt8ios_base13_C_fire_eventENS_5eventEb) refers to ios.o(i._ZNSt8ios_base15_C_unsafe_clearEii) for std::ios_base::_C_unsafe_clear(int, int)
    ios.o(i._ZNSt8ios_base13_C_fire_eventENS_5eventEb) refers to ios.o(t._ZSt23return_temporary_bufferINSt8ios_base11_C_event_cbEEvPT_) for void std::return_temporary_buffer<std::ios_base::_C_event_cb>(T1*)
    ios.o(i._ZNSt8ios_base13_C_fire_eventENS_5eventEb) refers to arm_rethrow_noexceptions.o(.text) for __cxa_rethrow
    ios.o(i._ZNSt8ios_base13_C_fire_eventENS_5eventEb.clean) refers to arm_exceptions_cleanup.o(.emb_text) for __cxa_end_cleanup
    ios.o(i._ZNSt8ios_base15_C_unsafe_clearEii) refers to rwstdexcept.o(i._ZN4__rw10__rw_throwEiz) for __rw::__rw_throw(int, ...)
    ios.o(i._ZNSt8ios_base15_C_unsafe_clearEii) refers to ios.o(.bss) for .bss
    ios.o(i._ZNSt8ios_base15_C_unsafe_clearEii) refers to ios.o(.constdata) for .constdata
    ios.o(i._ZNSt8ios_base17register_callbackEPFvNS_5eventERS_iEi) refers to ios.o(t._ZN4__rw17__rw_resize_arrayINSt8ios_base11_C_event_cbEjEEPT_S4_RT0_i) for T1* __rw::__rw_resize_array<std::ios_base::_C_event_cb, unsigned>(T1*, T2&, int)
    ios.o(i._ZNSt8ios_base17register_callbackEPFvNS_5eventERS_iEi) refers to ios.o(i._ZNSt8ios_base15_C_unsafe_clearEii) for std::ios_base::_C_unsafe_clear(int, int)
    ios.o(i._ZNSt8ios_base4InitC1Ev) refers to ios.o(t._ZNSt13basic_filebufIcSt11char_traitsIcEEC1EPSt6__FILEPcl) for std::basic_filebuf<char, std::char_traits<char>>::basic_filebuf(std::__FILE*, char*, long)
    ios.o(i._ZNSt8ios_base4InitC1Ev) refers to ios.o(t._ZNSt9basic_iosIcSt11char_traitsIcEEC1Ev) for std::basic_ios<char, std::char_traits<char>>::basic_ios()
    ios.o(i._ZNSt8ios_base4InitC1Ev) refers to ios.o(t._ZNSt9basic_iosIcSt11char_traitsIcEE4initEPSt15basic_streambufIcS1_E) for std::basic_ios<char, std::char_traits<char>>::init(std::basic_streambuf<char, std::char_traits<char>>*)
    ios.o(i._ZNSt8ios_base4InitC1Ev) refers to ios.o(t._ZNSoC1EPSt15basic_streambufIcSt11char_traitsIcEE) for std::basic_ostream<char, std::char_traits<char>>::basic_ostream(std::basic_streambuf<char, std::char_traits<char>>*)
    ios.o(i._ZNSt8ios_base4InitC1Ev) refers to ios.o(t._ZNSt13basic_filebufIwSt11char_traitsIwEEC1EPSt6__FILEPwl) for std::basic_filebuf<wchar_t, std::char_traits<wchar_t>>::basic_filebuf(std::__FILE*, wchar_t*, long)
    ios.o(i._ZNSt8ios_base4InitC1Ev) refers to ios.o(t._ZNSt9basic_iosIwSt11char_traitsIwEEC1Ev) for std::basic_ios<wchar_t, std::char_traits<wchar_t>>::basic_ios()
    ios.o(i._ZNSt8ios_base4InitC1Ev) refers to ios.o(t._ZNSt9basic_iosIwSt11char_traitsIwEE4initEPSt15basic_streambufIwS1_E) for std::basic_ios<wchar_t, std::char_traits<wchar_t>>::init(std::basic_streambuf<wchar_t, std::char_traits<wchar_t>>*)
    ios.o(i._ZNSt8ios_base4InitC1Ev) refers to ios.o(t._ZNSt13basic_ostreamIwSt11char_traitsIwEEC1EPSt15basic_streambufIwS1_E) for std::basic_ostream<wchar_t, std::char_traits<wchar_t>>::basic_ostream(std::basic_streambuf<wchar_t, std::char_traits<wchar_t>>*)
    ios.o(i._ZNSt8ios_base4InitC1Ev) refers to ios.o(.data) for .data
    ios.o(i._ZNSt8ios_base4InitC1Ev) refers to ios.o(.bss) for .bss
    ios.o(i._ZNSt8ios_base4InitC1Ev) refers to board.o(.data) for __stdin
    ios.o(i._ZNSt8ios_base4InitC1Ev) refers to stdio_streams.o(.bss) for __stdin
    ios.o(i._ZNSt8ios_base4InitC1Ev) refers to ios.o(.constdata__ZTVSi) for VTT for std::basic_istream<char, std::char_traits<char>>
    ios.o(i._ZNSt8ios_base4InitC1Ev) refers to stdio_streams.o(.bss) for __stdout
    ios.o(i._ZNSt8ios_base4InitC1Ev) refers to stdio_streams.o(.bss) for __stderr
    ios.o(i._ZNSt8ios_base4InitC1Ev) refers to ios.o(.constdata__ZTVSt13basic_istreamIwSt11char_traitsIwEE) for VTT for std::basic_istream<wchar_t, std::char_traits<wchar_t>>
    ios.o(i._ZNSt8ios_base4InitC1Ev.clean) refers to ios.o(i._ZNSt9basic_iosIcSt11char_traitsIcEED1Ev) for std::basic_ios<char, std::char_traits<char>>::~basic_ios()
    ios.o(i._ZNSt8ios_base4InitC1Ev.clean) refers to ios.o(i._ZNSt9basic_iosIwSt11char_traitsIwEED1Ev) for std::basic_ios<wchar_t, std::char_traits<wchar_t>>::~basic_ios()
    ios.o(i._ZNSt8ios_base4InitC1Ev.clean) refers to arm_exceptions_cleanup.o(.emb_text) for __cxa_end_cleanup
    ios.o(i._ZNSt8ios_base4InitD1Ev) refers to ios.o(t._ZNSt15basic_streambufIcSt11char_traitsIcEE9pubsetbufEPcl) for std::basic_streambuf<char, std::char_traits<char>>::pubsetbuf(char*, long)
    ios.o(i._ZNSt8ios_base4InitD1Ev) refers to ios.o(t._ZNSt15basic_streambufIwSt11char_traitsIwEE9pubsetbufEPwl) for std::basic_streambuf<wchar_t, std::char_traits<wchar_t>>::pubsetbuf(wchar_t*, long)
    ios.o(i._ZNSt8ios_base4InitD1Ev) refers to ios.o(.data) for .data
    ios.o(i._ZNSt8ios_base4InitD1Ev) refers to ios.o(.bss) for .bss
    ios.o(i._ZNSt8ios_base5iwordEi) refers to ios.o(t._ZN4__rw17__rw_resize_arrayIljEEPT_S2_RT0_i) for T1* __rw::__rw_resize_array<long, unsigned>(T1*, T2&, int)
    ios.o(i._ZNSt8ios_base5iwordEi) refers to ios.o(i._ZNSt8ios_base15_C_unsafe_clearEii) for std::ios_base::_C_unsafe_clear(int, int)
    ios.o(i._ZNSt8ios_base5iwordEi) refers to ios.o(.data) for .data
    ios.o(i._ZNSt8ios_base5pwordEi) refers to ios.o(t._ZN4__rw17__rw_resize_arrayIPvjEEPT_S3_RT0_i) for T1* __rw::__rw_resize_array<void*, unsigned>(T1*, T2&, int)
    ios.o(i._ZNSt8ios_base5pwordEi) refers to ios.o(i._ZNSt8ios_base15_C_unsafe_clearEii) for std::ios_base::_C_unsafe_clear(int, int)
    ios.o(i._ZNSt8ios_base5pwordEi) refers to ios.o(.data) for .data
    ios.o(.ARM.exidx) refers to ios.o(i._ZNSt8ios_base15_C_unsafe_clearEii) for i._ZNSt8ios_base15_C_unsafe_clearEii
    ios.o(.ARM.exidx) refers to unwind_pr0.o(.text) for __aeabi_unwind_cpp_pr0
    ios.o(.ARM.exidx) refers to ios.o(i._ZNSt8ios_base5iwordEi) for i._ZNSt8ios_base5iwordEi
    ios.o(.ARM.exidx) refers to unwind_pr0.o(.text) for __aeabi_unwind_cpp_pr0
    ios.o(.ARM.exidx) refers to ios.o(i._ZNSt8ios_base5pwordEi) for i._ZNSt8ios_base5pwordEi
    ios.o(.ARM.exidx) refers to unwind_pr0.o(.text) for __aeabi_unwind_cpp_pr0
    ios.o(.ARM.exidx) refers to ios.o(i._ZNSt8ios_base17register_callbackEPFvNS_5eventERS_iEi) for i._ZNSt8ios_base17register_callbackEPFvNS_5eventERS_iEi
    ios.o(.ARM.exidx) refers to unwind_pr0.o(.text) for __aeabi_unwind_cpp_pr0
    ios.o(.ARM.exidx) refers to ios.o(i._ZNSt8ios_base13_C_fire_eventENS_5eventEb) for i._ZNSt8ios_base13_C_fire_eventENS_5eventEb
    ios.o(.ARM.exidx) refers to unwind_pr0.o(.text) for __aeabi_unwind_cpp_pr0
    ios.o(.ARM.exidx) refers to ios.o(.ARM.extab) for .extab._ZNSt8ios_base13_C_fire_eventENS_5eventEb
    ios.o(.ARM.exidx) refers to ios.o(i._ZNSt8ios_base13_C_fire_eventENS_5eventEb.clean) for i._ZNSt8ios_base13_C_fire_eventENS_5eventEb.clean
    ios.o(.ARM.exidx) refers to ios.o(i._ZNSt8ios_base10_C_copyfmtERKS_) for i._ZNSt8ios_base10_C_copyfmtERKS_
    ios.o(.ARM.exidx) refers to unwind_pr0.o(.text) for __aeabi_unwind_cpp_pr0
    ios.o(.ARM.exidx) refers to ios.o(.ARM.extab) for .extab._ZNSt8ios_base10_C_copyfmtERKS_
    ios.o(.ARM.exidx) refers to ios.o(i._ZNSt8ios_base10_C_copyfmtERKS_.clean) for i._ZNSt8ios_base10_C_copyfmtERKS_.clean
    ios.o(.ARM.exidx) refers to ios.o(i._ZNSt8ios_base4InitC1Ev) for i._ZNSt8ios_base4InitC1Ev
    ios.o(.ARM.exidx) refers to unwind_pr1.o(.text) for __aeabi_unwind_cpp_pr1
    ios.o(.ARM.exidx) refers to ios.o(.ARM.extab) for .extab._ZNSt8ios_base4InitC1Ev
    ios.o(.ARM.exidx) refers to ios.o(i._ZNSt8ios_base4InitC1Ev.clean) for i._ZNSt8ios_base4InitC1Ev.clean
    ios.o(.ARM.exidx) refers to ios.o(i._ZNSt8ios_base4InitD1Ev) for i._ZNSt8ios_base4InitD1Ev
    ios.o(.ARM.exidx) refers to unwind_pr0.o(.text) for __aeabi_unwind_cpp_pr0
    ios.o(.ARM.exidx) refers to ios.o(.ARM.extab) for .extab._ZNSt8ios_base4InitD1Ev
    ios.o(.ARM.extab) refers to ios.o(i._ZNSt8ios_base13_C_fire_eventENS_5eventEb) for i._ZNSt8ios_base13_C_fire_eventENS_5eventEb
    ios.o(.ARM.extab) refers to ios.o(i._ZNSt8ios_base13_C_fire_eventENS_5eventEb.clean) for i._ZNSt8ios_base13_C_fire_eventENS_5eventEb.clean
    ios.o(.ARM.extab) refers to ios.o(i._ZNSt8ios_base10_C_copyfmtERKS_) for i._ZNSt8ios_base10_C_copyfmtERKS_
    ios.o(.ARM.extab) refers to ios.o(i._ZNSt8ios_base10_C_copyfmtERKS_.clean) for i._ZNSt8ios_base10_C_copyfmtERKS_.clean
    ios.o(.ARM.extab) refers to ios.o(i._ZNSt8ios_base4InitC1Ev.clean) for i._ZNSt8ios_base4InitC1Ev.clean
    ios.o(.ARM.extab) refers to arm_callunex_noexceptions.o(.text) for __cxa_call_unexpected
    ios.o(.ARM.extab) refers to arm_exceptions_callterm.o(.text) for __cxa_call_terminate
    ios.o(.ARM.extab) refers to ios.o(i.__ARM_common_noexcept_landing) for __ARM_common_noexcept_landing
    ios.o(.data) refers to ios.o(.bss) for std::__rw_indestructible_cin
    ios.o(.data) refers to ios.o(.bss) for std::__rw_indestructible_cout
    ios.o(.data) refers to ios.o(.bss) for std::__rw_indestructible_cerr
    ios.o(.data) refers to ios.o(.bss) for std::__rw_indestructible_clog
    ios.o(.data) refers to ios.o(.bss) for std::__rw_indestructible_wcin
    ios.o(.data) refers to ios.o(.bss) for std::__rw_indestructible_wcout
    ios.o(.data) refers to ios.o(.bss) for std::__rw_indestructible_wcerr
    ios.o(.data) refers to ios.o(.bss) for std::__rw_indestructible_wclog
    rwalloc.o(i._ZN4__rw13__rw_allocateEji) refers to new.o(i._Znwj) for operator new(unsigned)
    rwalloc.o(i._ZN4__rw13__rw_allocateEji) refers to rwstdexcept.o(i._ZN4__rw10__rw_throwEiz) for __rw::__rw_throw(int, ...)
    rwalloc.o(i._ZN4__rw15__rw_deallocateEPvji) refers to delete.o(i._ZdlPv) for operator delete (void*)
    rwalloc.o(.ARM.exidx) refers to rwalloc.o(i._ZN4__rw13__rw_allocateEji) for i._ZN4__rw13__rw_allocateEji
    rwalloc.o(.ARM.exidx) refers to unwind_pr0.o(.text) for __aeabi_unwind_cpp_pr0
    rwalloc.o(.ARM.exidx) refers to rwalloc.o(.ARM.extab) for .extab._ZN4__rw13__rw_allocateEji
    rwalloc.o(.ARM.exidx) refers to rwalloc.o(i._ZN4__rw15__rw_deallocateEPvji) for i._ZN4__rw15__rw_deallocateEPvji
    rwalloc.o(.ARM.extab) refers to rwalloc.o(i._ZN4__rw13__rw_allocateEji) for i._ZN4__rw13__rw_allocateEji
    rwstdexcept.o(i._ZN37_INTERNAL_15_rwstdexcept_cpp_8697b68a4__rw13__rw_vfmatstrEPcjPKcSt9__va_list) refers to array_new.o(i._Znaj) for operator new[] (unsigned)
    rwstdexcept.o(i._ZN37_INTERNAL_15_rwstdexcept_cpp_8697b68a4__rw13__rw_vfmatstrEPcjPKcSt9__va_list) refers to vsnprintf.o(.text) for vsnprintf
    rwstdexcept.o(i._ZN37_INTERNAL_15_rwstdexcept_cpp_8697b68a4__rw13__rw_vfmatstrEPcjPKcSt9__va_list) refers to array_del.o(i._ZdaPv) for operator delete[] (void*)
    rwstdexcept.o(i._ZN37_INTERNAL_15_rwstdexcept_cpp_8697b68a4__rw13__rw_vfmatstrEPcjiSt9__va_list) refers to strrchr.o(.text) for strrchr
    rwstdexcept.o(i._ZN37_INTERNAL_15_rwstdexcept_cpp_8697b68a4__rw13__rw_vfmatstrEPcjiSt9__va_list) refers to sscanf.o(.text) for sscanf
    rwstdexcept.o(i._ZN37_INTERNAL_15_rwstdexcept_cpp_8697b68a4__rw13__rw_vfmatstrEPcjiSt9__va_list) refers to locale.o(t._ZNSsC1EPKcRKSaIcE) for std::basic_string<char, std::char_traits<char>, std::allocator<char>>::basic_string(const char*, const std::allocator<char>&)
    rwstdexcept.o(i._ZN37_INTERNAL_15_rwstdexcept_cpp_8697b68a4__rw13__rw_vfmatstrEPcjiSt9__va_list) refers to ios.o(t._ZNSsC1ERKSs) for std::basic_string<char, std::char_traits<char>, std::allocator<char>>::basic_string(const std::basic_string<char, std::char_traits<char>, std::allocator<char>>&)
    rwstdexcept.o(i._ZN37_INTERNAL_15_rwstdexcept_cpp_8697b68a4__rw13__rw_vfmatstrEPcjiSt9__va_list) refers to ios.o(t._ZNSsD1Ev) for std::basic_string<char, std::char_traits<char>, std::allocator<char>>::~basic_string()
    rwstdexcept.o(i._ZN37_INTERNAL_15_rwstdexcept_cpp_8697b68a4__rw13__rw_vfmatstrEPcjiSt9__va_list) refers to ios.o(i._ZNSt6localeC1Ev) for std::locale::locale()
    rwstdexcept.o(i._ZN37_INTERNAL_15_rwstdexcept_cpp_8697b68a4__rw13__rw_vfmatstrEPcjiSt9__va_list) refers to ios.o(i._ZNSt6localeD1Ev) for std::locale::~locale()
    rwstdexcept.o(i._ZN37_INTERNAL_15_rwstdexcept_cpp_8697b68a4__rw13__rw_vfmatstrEPcjiSt9__va_list) refers to rwstdexcept.o(i._ZN37_INTERNAL_15_rwstdexcept_cpp_8697b68a4__rw13__rw_vfmatstrEPcjPKcSt9__va_list) for [local to rwstdexcept_cpp]::__rw::__rw_vfmatstr(char*, unsigned, const char*, std::__va_list)
    rwstdexcept.o(i._ZN37_INTERNAL_15_rwstdexcept_cpp_8697b68a4__rw13__rw_vfmatstrEPcjiSt9__va_list) refers to rwstdexcept.o(.data) for .data
    rwstdexcept.o(i._ZN37_INTERNAL_15_rwstdexcept_cpp_8697b68a4__rw13__rw_vfmatstrEPcjiSt9__va_list) refers to rwstdexcept.o(.bss) for .bss
    rwstdexcept.o(i._ZN37_INTERNAL_15_rwstdexcept_cpp_8697b68a4__rw13__rw_vfmatstrEPcjiSt9__va_list) refers to ios.o(.constdata__ZTVNSt6locale5facetE) for vtable for std::locale::facet
    rwstdexcept.o(i._ZN37_INTERNAL_15_rwstdexcept_cpp_8697b68a4__rw13__rw_vfmatstrEPcjiSt9__va_list) refers to rwstdexcept.o(.constdata__ZZNSt8messagesIcEC1EjEs) for std::messages<char>::messages(unsigned)::string
    rwstdexcept.o(i._ZN37_INTERNAL_15_rwstdexcept_cpp_8697b68a4__rw13__rw_vfmatstrEPcjiSt9__va_list) refers to rwstdexcept.o(.constdata__ZTVSt8messagesIcE) for vtable for std::messages<char>
    rwstdexcept.o(i._ZN37_INTERNAL_15_rwstdexcept_cpp_8697b68a4__rw13__rw_vfmatstrEPcjiSt9__va_list.clean) refers to ios.o(t._ZNSsD1Ev) for std::basic_string<char, std::char_traits<char>, std::allocator<char>>::~basic_string()
    rwstdexcept.o(i._ZN37_INTERNAL_15_rwstdexcept_cpp_8697b68a4__rw13__rw_vfmatstrEPcjiSt9__va_list.clean) refers to ios.o(i._ZNSt6localeD1Ev) for std::locale::~locale()
    rwstdexcept.o(i._ZN37_INTERNAL_15_rwstdexcept_cpp_8697b68a4__rw13__rw_vfmatstrEPcjiSt9__va_list.clean) refers to arm_exceptions_cleanup.o(.emb_text) for __cxa_end_cleanup
    rwstdexcept.o(i._ZN4__rw10__rw_throwEiz) refers to rwstdexcept.o(i._ZNSt14__rw_exceptionC1Ev) for std::__rw_exception::__rw_exception()
    rwstdexcept.o(i._ZN4__rw10__rw_throwEiz) refers to rwstdexcept.o(i._ZNSt14__rw_exception10_C_vformatEiSt9__va_list) for std::__rw_exception::_C_vformat(int, std::__va_list)
    rwstdexcept.o(i._ZN4__rw10__rw_throwEiz) refers to rwthrowproc_noex.o(.data) for __rw_throw_proc
    rwstdexcept.o(i._ZN4__rw16__rw_assert_failEPKcS1_iS1_) refers to fprintf.o(.text) for fprintf
    rwstdexcept.o(i._ZN4__rw16__rw_assert_failEPKcS1_iS1_) refers to abort.o(.text) for abort
    rwstdexcept.o(i._ZN4__rw16__rw_assert_failEPKcS1_iS1_) refers to board.o(.data) for __stderr
    rwstdexcept.o(i._ZN4__rw16__rw_assert_failEPKcS1_iS1_) refers to stdio_streams.o(.bss) for __stderr
    rwstdexcept.o(i._ZNSt14__rw_exception10_C_vformatEPKcSt9__va_list) refers to rwstdexcept.o(i._ZN37_INTERNAL_15_rwstdexcept_cpp_8697b68a4__rw13__rw_vfmatstrEPcjPKcSt9__va_list) for [local to rwstdexcept_cpp]::__rw::__rw_vfmatstr(char*, unsigned, const char*, std::__va_list)
    rwstdexcept.o(i._ZNSt14__rw_exception10_C_vformatEPKcSt9__va_list) refers to strlen.o(.text) for strlen
    rwstdexcept.o(i._ZNSt14__rw_exception10_C_vformatEPKcSt9__va_list) refers to array_new.o(i._Znaj) for operator new[] (unsigned)
    rwstdexcept.o(i._ZNSt14__rw_exception10_C_vformatEPKcSt9__va_list) refers to strcpy.o(.text) for strcpy
    rwstdexcept.o(i._ZNSt14__rw_exception10_C_vformatEPKcSt9__va_list) refers to strcat.o(.text) for strcat
    rwstdexcept.o(i._ZNSt14__rw_exception10_C_vformatEPKcSt9__va_list) refers to array_del.o(i._ZdaPv) for operator delete[] (void*)
    rwstdexcept.o(i._ZNSt14__rw_exception10_C_vformatEiSt9__va_list) refers to rwstdexcept.o(i._ZN37_INTERNAL_15_rwstdexcept_cpp_8697b68a4__rw13__rw_vfmatstrEPcjiSt9__va_list) for [local to rwstdexcept_cpp]::__rw::__rw_vfmatstr(char*, unsigned, int, std::__va_list)
    rwstdexcept.o(i._ZNSt14__rw_exception10_C_vformatEiSt9__va_list) refers to rwstdexcept.o(i._ZN37_INTERNAL_15_rwstdexcept_cpp_8697b68a4__rw13__rw_vfmatstrEPcjPKcSt9__va_list) for [local to rwstdexcept_cpp]::__rw::__rw_vfmatstr(char*, unsigned, const char*, std::__va_list)
    rwstdexcept.o(i._ZNSt14__rw_exception10_C_vformatEiSt9__va_list) refers to strlen.o(.text) for strlen
    rwstdexcept.o(i._ZNSt14__rw_exception10_C_vformatEiSt9__va_list) refers to array_new.o(i._Znaj) for operator new[] (unsigned)
    rwstdexcept.o(i._ZNSt14__rw_exception10_C_vformatEiSt9__va_list) refers to strcpy.o(.text) for strcpy
    rwstdexcept.o(i._ZNSt14__rw_exception10_C_vformatEiSt9__va_list) refers to strcat.o(.text) for strcat
    rwstdexcept.o(i._ZNSt14__rw_exception10_C_vformatEiSt9__va_list) refers to array_del.o(i._ZdaPv) for operator delete[] (void*)
    rwstdexcept.o(i._ZNSt14__rw_exception10_C_vformatEiSt9__va_list) refers to rwstdexcept.o(.constdata) for .constdata
    rwstdexcept.o(i._ZNSt14__rw_exception9_C_assignEPKcj) refers to strlen.o(.text) for strlen
    rwstdexcept.o(i._ZNSt14__rw_exception9_C_assignEPKcj) refers to array_new.o(i._Znaj) for operator new[] (unsigned)
    rwstdexcept.o(i._ZNSt14__rw_exception9_C_assignEPKcj) refers to strcpy.o(.text) for strcpy
    rwstdexcept.o(i._ZNSt14__rw_exception9_C_assignEPKcj) refers to array_del.o(i._ZdaPv) for operator delete[] (void*)
    rwstdexcept.o(i._ZNSt14__rw_exceptionC1ERKSs) refers to exception_ctor.o(i._ZNSt9exceptionC1Ev) for std::exception::exception()
    rwstdexcept.o(i._ZNSt14__rw_exceptionC1ERKSs) refers to rwstdexcept.o(i._ZNSt14__rw_exception9_C_assignEPKcj) for std::__rw_exception::_C_assign(const char*, unsigned)
    rwstdexcept.o(i._ZNSt14__rw_exceptionC1ERKSs) refers to rwstdexcept.o(.constdata__ZTVSt14__rw_exception) for vtable for std::__rw_exception
    rwstdexcept.o(.ARM.exidx) refers to rwstdexcept.o(i._ZN37_INTERNAL_15_rwstdexcept_cpp_8697b68a4__rw13__rw_vfmatstrEPcjPKcSt9__va_list) for i._ZN37_INTERNAL_15_rwstdexcept_cpp_8697b68a4__rw13__rw_vfmatstrEPcjPKcSt9__va_list
    rwstdexcept.o(.ARM.exidx) refers to unwind_pr0.o(.text) for __aeabi_unwind_cpp_pr0
    rwstdexcept.o(.ARM.exidx) refers to rwstdexcept.o(i._ZN37_INTERNAL_15_rwstdexcept_cpp_8697b68a4__rw13__rw_vfmatstrEPcjiSt9__va_list) for i._ZN37_INTERNAL_15_rwstdexcept_cpp_8697b68a4__rw13__rw_vfmatstrEPcjiSt9__va_list
    rwstdexcept.o(.ARM.exidx) refers to unwind_pr0.o(.text) for __aeabi_unwind_cpp_pr0
    rwstdexcept.o(.ARM.exidx) refers to rwstdexcept.o(.ARM.extab) for .extab._ZN37_INTERNAL_15_rwstdexcept_cpp_8697b68a4__rw13__rw_vfmatstrEPcjiSt9__va_list
    rwstdexcept.o(.ARM.exidx) refers to rwstdexcept.o(i._ZN37_INTERNAL_15_rwstdexcept_cpp_8697b68a4__rw13__rw_vfmatstrEPcjiSt9__va_list.clean) for i._ZN37_INTERNAL_15_rwstdexcept_cpp_8697b68a4__rw13__rw_vfmatstrEPcjiSt9__va_list.clean
    rwstdexcept.o(.ARM.exidx) refers to rwstdexcept.o(i._ZNSt14__rw_exception10_C_vformatEiSt9__va_list) for i._ZNSt14__rw_exception10_C_vformatEiSt9__va_list
    rwstdexcept.o(.ARM.exidx) refers to unwind_pr0.o(.text) for __aeabi_unwind_cpp_pr0
    rwstdexcept.o(.ARM.exidx) refers to rwstdexcept.o(.ARM.extab) for .extab._ZNSt14__rw_exception10_C_vformatEiSt9__va_list
    rwstdexcept.o(.ARM.exidx) refers to rwstdexcept.o(i._ZN4__rw10__rw_throwEiz) for i._ZN4__rw10__rw_throwEiz
    rwstdexcept.o(.ARM.exidx) refers to unwind_pr0.o(.text) for __aeabi_unwind_cpp_pr0
    rwstdexcept.o(.ARM.exidx) refers to rwstdexcept.o(i._ZNSt14__rw_exception9_C_assignEPKcj) for i._ZNSt14__rw_exception9_C_assignEPKcj
    rwstdexcept.o(.ARM.exidx) refers to unwind_pr0.o(.text) for __aeabi_unwind_cpp_pr0
    rwstdexcept.o(.ARM.exidx) refers to rwstdexcept.o(.ARM.extab) for .extab._ZNSt14__rw_exception9_C_assignEPKcj
    rwstdexcept.o(.ARM.exidx) refers to rwstdexcept.o(i._ZNSt14__rw_exception10_C_vformatEPKcSt9__va_list) for i._ZNSt14__rw_exception10_C_vformatEPKcSt9__va_list
    rwstdexcept.o(.ARM.exidx) refers to unwind_pr0.o(.text) for __aeabi_unwind_cpp_pr0
    rwstdexcept.o(.ARM.exidx) refers to rwstdexcept.o(.ARM.extab) for .extab._ZNSt14__rw_exception10_C_vformatEPKcSt9__va_list
    rwstdexcept.o(.ARM.exidx) refers to rwstdexcept.o(i._ZNSt14__rw_exceptionC1ERKSs) for i._ZNSt14__rw_exceptionC1ERKSs
    rwstdexcept.o(.ARM.exidx) refers to rwstdexcept.o(i._ZN4__rw16__rw_assert_failEPKcS1_iS1_) for i._ZN4__rw16__rw_assert_failEPKcS1_iS1_
    rwstdexcept.o(.ARM.extab) refers to rwstdexcept.o(i._ZN37_INTERNAL_15_rwstdexcept_cpp_8697b68a4__rw13__rw_vfmatstrEPcjiSt9__va_list.clean) for i._ZN37_INTERNAL_15_rwstdexcept_cpp_8697b68a4__rw13__rw_vfmatstrEPcjiSt9__va_list.clean
    rwstdexcept.o(.ARM.extab) refers to arm_callunex_noexceptions.o(.text) for __cxa_call_unexpected
    rwstdexcept.o(.ARM.extab) refers to rwstdexcept.o(i._ZNSt14__rw_exception10_C_vformatEiSt9__va_list) for i._ZNSt14__rw_exception10_C_vformatEiSt9__va_list
    rwstdexcept.o(.ARM.extab) refers to arm_callunex_noexceptions.o(.text) for __cxa_call_unexpected
    rwstdexcept.o(.ARM.extab) refers to rwstdexcept.o(i._ZNSt14__rw_exception9_C_assignEPKcj) for i._ZNSt14__rw_exception9_C_assignEPKcj
    rwstdexcept.o(.ARM.extab) refers to arm_callunex_noexceptions.o(.text) for __cxa_call_unexpected
    rwstdexcept.o(.ARM.extab) refers to rwstdexcept.o(i._ZNSt14__rw_exception10_C_vformatEPKcSt9__va_list) for i._ZNSt14__rw_exception10_C_vformatEPKcSt9__va_list
    rwstdexcept.o(.constdata) refers to rwstdexcept.o(.conststring) for .conststring
    delete.o(i._ZdlPv) refers to h1_free.o(.text) for free
    delete.o(.ARM.exidx) refers to delete.o(i._ZdlPv) for i._ZdlPv
    lib_rtti_impl.o(i._ZN10__cxxabiv116__enum_type_infoD0Ev) refers to lib_rtti_impl.o(i._ZN10__cxxabiv116__enum_type_infoD1Ev) for __cxxabiv1::__enum_type_info::~__enum_type_info()
    lib_rtti_impl.o(i._ZN10__cxxabiv117__array_type_infoD0Ev) refers to lib_rtti_impl.o(i._ZN10__cxxabiv117__array_type_infoD1Ev) for __cxxabiv1::__array_type_info::~__array_type_info()
    lib_rtti_impl.o(i._ZN10__cxxabiv117__class_type_infoD0Ev) refers to lib_rtti_impl.o(i._ZN10__cxxabiv117__class_type_infoD1Ev) for __cxxabiv1::__class_type_info::~__class_type_info()
    lib_rtti_impl.o(i._ZN10__cxxabiv117__pbase_type_infoD0Ev) refers to lib_rtti_impl.o(i._ZN10__cxxabiv117__pbase_type_infoD1Ev) for __cxxabiv1::__pbase_type_info::~__pbase_type_info()
    lib_rtti_impl.o(i._ZN10__cxxabiv119__pointer_type_infoD0Ev) refers to lib_rtti_impl.o(i._ZN10__cxxabiv119__pointer_type_infoD1Ev) for __cxxabiv1::__pointer_type_info::~__pointer_type_info()
    lib_rtti_impl.o(i._ZN10__cxxabiv119__pointer_type_infoD1Ev) refers to lib_rtti_impl.o(i._ZN10__cxxabiv117__pbase_type_infoD1Ev) for __cxxabiv1::__pbase_type_info::~__pbase_type_info()
    lib_rtti_impl.o(i._ZN10__cxxabiv120__function_type_infoD0Ev) refers to lib_rtti_impl.o(i._ZN10__cxxabiv120__function_type_infoD1Ev) for __cxxabiv1::__function_type_info::~__function_type_info()
    lib_rtti_impl.o(i._ZN10__cxxabiv120__si_class_type_infoD0Ev) refers to lib_rtti_impl.o(i._ZN10__cxxabiv120__si_class_type_infoD1Ev) for __cxxabiv1::__si_class_type_info::~__si_class_type_info()
    lib_rtti_impl.o(i._ZN10__cxxabiv120__si_class_type_infoD1Ev) refers to lib_rtti_impl.o(i._ZN10__cxxabiv117__class_type_infoD1Ev) for __cxxabiv1::__class_type_info::~__class_type_info()
    lib_rtti_impl.o(i._ZN10__cxxabiv121__vmi_class_type_infoD0Ev) refers to lib_rtti_impl.o(i._ZN10__cxxabiv121__vmi_class_type_infoD1Ev) for __cxxabiv1::__vmi_class_type_info::~__vmi_class_type_info()
    lib_rtti_impl.o(i._ZN10__cxxabiv121__vmi_class_type_infoD1Ev) refers to lib_rtti_impl.o(i._ZN10__cxxabiv117__class_type_infoD1Ev) for __cxxabiv1::__class_type_info::~__class_type_info()
    lib_rtti_impl.o(i._ZN10__cxxabiv123__fundamental_type_infoD0Ev) refers to lib_rtti_impl.o(i._ZN10__cxxabiv123__fundamental_type_infoD1Ev) for __cxxabiv1::__fundamental_type_info::~__fundamental_type_info()
    lib_rtti_impl.o(i._ZN10__cxxabiv129__pointer_to_member_type_infoD0Ev) refers to lib_rtti_impl.o(i._ZN10__cxxabiv129__pointer_to_member_type_infoD1Ev) for __cxxabiv1::__pointer_to_member_type_info::~__pointer_to_member_type_info()
    lib_rtti_impl.o(i._ZN10__cxxabiv129__pointer_to_member_type_infoD1Ev) refers to lib_rtti_impl.o(i._ZN10__cxxabiv117__pbase_type_infoD1Ev) for __cxxabiv1::__pbase_type_info::~__pbase_type_info()
    lib_rtti_impl.o(.ARM.exidx) refers to lib_rtti_impl.o(i._ZN10__cxxabiv123__fundamental_type_infoD1Ev) for i._ZN10__cxxabiv123__fundamental_type_infoD1Ev
    lib_rtti_impl.o(.ARM.exidx) refers to lib_rtti_impl.o(i._ZN10__cxxabiv123__fundamental_type_infoD0Ev) for i._ZN10__cxxabiv123__fundamental_type_infoD0Ev
    lib_rtti_impl.o(.ARM.exidx) refers to lib_rtti_impl.o(i._ZN10__cxxabiv117__array_type_infoD1Ev) for i._ZN10__cxxabiv117__array_type_infoD1Ev
    lib_rtti_impl.o(.ARM.exidx) refers to lib_rtti_impl.o(i._ZN10__cxxabiv117__array_type_infoD0Ev) for i._ZN10__cxxabiv117__array_type_infoD0Ev
    lib_rtti_impl.o(.ARM.exidx) refers to lib_rtti_impl.o(i._ZN10__cxxabiv120__function_type_infoD1Ev) for i._ZN10__cxxabiv120__function_type_infoD1Ev
    lib_rtti_impl.o(.ARM.exidx) refers to lib_rtti_impl.o(i._ZN10__cxxabiv120__function_type_infoD0Ev) for i._ZN10__cxxabiv120__function_type_infoD0Ev
    lib_rtti_impl.o(.ARM.exidx) refers to lib_rtti_impl.o(i._ZN10__cxxabiv116__enum_type_infoD1Ev) for i._ZN10__cxxabiv116__enum_type_infoD1Ev
    lib_rtti_impl.o(.ARM.exidx) refers to lib_rtti_impl.o(i._ZN10__cxxabiv116__enum_type_infoD0Ev) for i._ZN10__cxxabiv116__enum_type_infoD0Ev
    lib_rtti_impl.o(.ARM.exidx) refers to lib_rtti_impl.o(i._ZN10__cxxabiv117__class_type_infoD1Ev) for i._ZN10__cxxabiv117__class_type_infoD1Ev
    lib_rtti_impl.o(.ARM.exidx) refers to lib_rtti_impl.o(i._ZN10__cxxabiv117__class_type_infoD0Ev) for i._ZN10__cxxabiv117__class_type_infoD0Ev
    lib_rtti_impl.o(.ARM.exidx) refers to lib_rtti_impl.o(i._ZN10__cxxabiv120__si_class_type_infoD1Ev) for i._ZN10__cxxabiv120__si_class_type_infoD1Ev
    lib_rtti_impl.o(.ARM.exidx) refers to lib_rtti_impl.o(i._ZN10__cxxabiv120__si_class_type_infoD0Ev) for i._ZN10__cxxabiv120__si_class_type_infoD0Ev
    lib_rtti_impl.o(.ARM.exidx) refers to lib_rtti_impl.o(i._ZN10__cxxabiv121__vmi_class_type_infoD1Ev) for i._ZN10__cxxabiv121__vmi_class_type_infoD1Ev
    lib_rtti_impl.o(.ARM.exidx) refers to lib_rtti_impl.o(i._ZN10__cxxabiv121__vmi_class_type_infoD0Ev) for i._ZN10__cxxabiv121__vmi_class_type_infoD0Ev
    lib_rtti_impl.o(.ARM.exidx) refers to lib_rtti_impl.o(i._ZN10__cxxabiv117__pbase_type_infoD1Ev) for i._ZN10__cxxabiv117__pbase_type_infoD1Ev
    lib_rtti_impl.o(.ARM.exidx) refers to lib_rtti_impl.o(i._ZN10__cxxabiv117__pbase_type_infoD0Ev) for i._ZN10__cxxabiv117__pbase_type_infoD0Ev
    lib_rtti_impl.o(.ARM.exidx) refers to lib_rtti_impl.o(i._ZN10__cxxabiv119__pointer_type_infoD1Ev) for i._ZN10__cxxabiv119__pointer_type_infoD1Ev
    lib_rtti_impl.o(.ARM.exidx) refers to lib_rtti_impl.o(i._ZN10__cxxabiv119__pointer_type_infoD0Ev) for i._ZN10__cxxabiv119__pointer_type_infoD0Ev
    lib_rtti_impl.o(.ARM.exidx) refers to lib_rtti_impl.o(i._ZN10__cxxabiv129__pointer_to_member_type_infoD1Ev) for i._ZN10__cxxabiv129__pointer_to_member_type_infoD1Ev
    lib_rtti_impl.o(.ARM.exidx) refers to lib_rtti_impl.o(i._ZN10__cxxabiv129__pointer_to_member_type_infoD0Ev) for i._ZN10__cxxabiv129__pointer_to_member_type_infoD0Ev
    __rtentry.o(.ARM.Collect$$rtentry$$00000000) refers (Special) to __rtentry2.o(.ARM.Collect$$rtentry$$0000000A) for __rt_entry_li
    __rtentry.o(.ARM.Collect$$rtentry$$00000000) refers (Special) to __rtentry2.o(.ARM.Collect$$rtentry$$0000000D) for __rt_entry_main
    __rtentry.o(.ARM.Collect$$rtentry$$00000000) refers (Special) to __rtentry2.o(.ARM.Collect$$rtentry$$0000000C) for __rt_entry_postli_1
    __rtentry.o(.ARM.Collect$$rtentry$$00000000) refers (Special) to __rtentry2.o(.ARM.Collect$$rtentry$$00000009) for __rt_entry_postsh_1
    __rtentry.o(.ARM.Collect$$rtentry$$00000000) refers (Special) to __rtentry2.o(.ARM.Collect$$rtentry$$00000002) for __rt_entry_presh_1
    __rtentry.o(.ARM.Collect$$rtentry$$00000000) refers (Special) to __rtentry4.o(.ARM.Collect$$rtentry$$00000004) for __rt_entry_sh
    aeabi_ldiv0_sigfpe.o(.text) refers to rt_div0.o(.text) for __rt_div0
    rt_ddtor_pointer_addr.o(.text) refers to rt_ddtor_pointer_addr.o(.bss) for __rt_ddtor_pointer_addr_data
    rt_ddtor_pointer_addr_intlibspace.o(.text) refers to libspace.o(.bss) for __libspace_start
    malloc.o(.text) refers (Special) to hguard.o(.text) for __heap$guard
    malloc.o(.text) refers (Special) to init_alloc.o(.text) for _init_alloc
    malloc.o(.text) refers to rt_heap_descriptor_intlibspace.o(.text) for __rt_heap_descriptor
    malloc.o(.text) refers to heapstubs.o(.text) for __Heap_Alloc
    free.o(.text) refers (Special) to hguard.o(.text) for __heap$guard
    free.o(.text) refers to rt_heap_descriptor_intlibspace.o(.text) for __rt_heap_descriptor
    free.o(.text) refers to heapstubs.o(.text) for __Heap_Free
    h1_alloc.o(.text) refers (Special) to h1_init.o(.text) for __Heap_Initialize
    h1_alloc.o(.text) refers to rt_heap_descriptor_intlibspace.o(.text) for __rt_heap_descriptor
    h1_alloc.o(.text) refers to init_alloc.o(.text) for __Heap_Full
    h1_free.o(.text) refers to rt_heap_descriptor_intlibspace.o(.text) for __rt_heap_descriptor
    h1_alloc_mt.o(.text) refers (Special) to h1_init.o(.text) for __Heap_Initialize
    h1_alloc_mt.o(.text) refers to init_alloc.o(.text) for __Heap_Full
    h1_alloc_mt.o(.text) refers to rt_heap_descriptor_intlibspace.o(.text) for __rt_heap_descriptor
    h1_free_mt.o(.text) refers to rt_heap_descriptor_intlibspace.o(.text) for __rt_heap_descriptor
    heap2.o(i._FDIterate) refers to heap2.o(.conststring) for .conststring
    heap2.o(i.___Heap_ProvideMemory$realtime) refers to fdtree.o(i._FDTree_Delete) for _FDTree_Delete
    heap2.o(i.___Heap_ProvideMemory$realtime) refers to fdtree.o(i._FDTree_Insert) for _FDTree_Insert
    heap2.o(i.___Heap_Stats$realtime) refers to heap2.o(i._Heap2_StatsIterate) for _Heap2_StatsIterate
    heap2.o(i.___Heap_Valid$realtime) refers to heap2.o(i._FDIterate) for _FDIterate
    heap2.o(i.___Heap_Valid$realtime) refers to heap2.o(.conststring) for .conststring
    heap2.o(i._free$realtime) refers to rt_heap_descriptor_intlibspace.o(.text) for __rt_heap_descriptor
    heap2.o(i._free$realtime) refers to fdtree.o(i._FDTree_Delete) for _FDTree_Delete
    heap2.o(i._free$realtime) refers to fdtree.o(i._FDTree_Insert) for _FDTree_Insert
    heap2.o(i._malloc$realtime) refers to rt_heap_descriptor_intlibspace.o(.text) for __rt_heap_descriptor
    heap2.o(i._malloc$realtime) refers to fdtree.o(i._FDTree_FindFirst) for _FDTree_FindFirst
    heap2.o(i._malloc$realtime) refers to init_alloc.o(.text) for __Heap_Full
    heap2.o(i._malloc$realtime) refers to fdtree.o(i._FDTree_RemoveNode) for _FDTree_RemoveNode
    heap2.o(i._malloc$realtime) refers to fdtree.o(i._FDTree_Insert) for _FDTree_Insert
    heap2.o(i._posix_memalign$realtime) refers to rt_heap_descriptor_intlibspace.o(.text) for __rt_heap_descriptor
    heap2.o(i._posix_memalign$realtime) refers to fdtree.o(i._FDTree_FindFirst) for _FDTree_FindFirst
    heap2.o(i._posix_memalign$realtime) refers to init_alloc.o(.text) for __Heap_Full
    heap2.o(i._posix_memalign$realtime) refers to fdtree.o(i._FDTree_RemoveNode) for _FDTree_RemoveNode
    heap2.o(i._posix_memalign$realtime) refers to fdtree.o(i._FDTree_Insert) for _FDTree_Insert
    heap2.o(i._realloc$realtime) refers to rt_heap_descriptor_intlibspace.o(.text) for __rt_heap_descriptor
    heap2.o(i._realloc$realtime) refers to fdtree.o(i._FDTree_Insert) for _FDTree_Insert
    heap2.o(i._realloc$realtime) refers to h1_free.o(.text) for free
    heap2.o(i._realloc$realtime) refers to h1_alloc.o(.text) for malloc
    heap2.o(i._realloc$realtime) refers to fdtree.o(i._FDTree_Delete) for _FDTree_Delete
    heap2.o(i._realloc$realtime) refers to rt_memcpy_w.o(.text) for __aeabi_memcpy4
    heap2mt.o(i._FDIterate) refers to heap2mt.o(.conststring) for .conststring
    heap2mt.o(i.___Heap_Initialize$realtime$concurrent) refers to mutex_dummy.o(.text) for _mutex_initialize
    heap2mt.o(i.___Heap_ProvideMemory$realtime$concurrent) refers to fdtree.o(i._FDTree_Delete) for _FDTree_Delete
    heap2mt.o(i.___Heap_ProvideMemory$realtime$concurrent) refers to fdtree.o(i._FDTree_Insert) for _FDTree_Insert
    heap2mt.o(i.___Heap_Stats$realtime$concurrent) refers to heap2mt.o(i._Heap2_StatsIterate) for _Heap2_StatsIterate
    heap2mt.o(i.___Heap_Valid$realtime$concurrent) refers to heap2mt.o(i._FDIterate) for _FDIterate
    heap2mt.o(i.___Heap_Valid$realtime$concurrent) refers to heap2mt.o(.conststring) for .conststring
    heap2mt.o(i._free$realtime$concurrent) refers to rt_heap_descriptor_intlibspace.o(.text) for __rt_heap_descriptor
    heap2mt.o(i._free$realtime$concurrent) refers to fdtree.o(i._FDTree_Delete) for _FDTree_Delete
    heap2mt.o(i._free$realtime$concurrent) refers to fdtree.o(i._FDTree_Insert) for _FDTree_Insert
    heap2mt.o(i._malloc$realtime$concurrent) refers to rt_heap_descriptor_intlibspace.o(.text) for __rt_heap_descriptor
    heap2mt.o(i._malloc$realtime$concurrent) refers to fdtree.o(i._FDTree_FindFirst) for _FDTree_FindFirst
    heap2mt.o(i._malloc$realtime$concurrent) refers to init_alloc.o(.text) for __Heap_Full
    heap2mt.o(i._malloc$realtime$concurrent) refers to fdtree.o(i._FDTree_RemoveNode) for _FDTree_RemoveNode
    heap2mt.o(i._malloc$realtime$concurrent) refers to fdtree.o(i._FDTree_Insert) for _FDTree_Insert
    heap2mt.o(i._posix_memalign$realtime$concurrent) refers to rt_heap_descriptor_intlibspace.o(.text) for __rt_heap_descriptor
    heap2mt.o(i._posix_memalign$realtime$concurrent) refers to fdtree.o(i._FDTree_FindFirst) for _FDTree_FindFirst
    heap2mt.o(i._posix_memalign$realtime$concurrent) refers to init_alloc.o(.text) for __Heap_Full
    heap2mt.o(i._posix_memalign$realtime$concurrent) refers to fdtree.o(i._FDTree_RemoveNode) for _FDTree_RemoveNode
    heap2mt.o(i._posix_memalign$realtime$concurrent) refers to fdtree.o(i._FDTree_Insert) for _FDTree_Insert
    heap2mt.o(i._realloc$realtime$concurrent) refers to rt_heap_descriptor_intlibspace.o(.text) for __rt_heap_descriptor
    heap2mt.o(i._realloc$realtime$concurrent) refers to fdtree.o(i._FDTree_Insert) for _FDTree_Insert
    heap2mt.o(i._realloc$realtime$concurrent) refers to h1_free.o(.text) for free
    heap2mt.o(i._realloc$realtime$concurrent) refers to h1_alloc.o(.text) for malloc
    heap2mt.o(i._realloc$realtime$concurrent) refers to fdtree.o(i._FDTree_Delete) for _FDTree_Delete
    heap2mt.o(i._realloc$realtime$concurrent) refers to rt_memcpy_w.o(.text) for __aeabi_memcpy4
    fprintf.o(.text) refers (Special) to _printf_a.o(.ARM.Collect$$_printf_percent$$00000006) for _printf_a
    fprintf.o(.text) refers (Special) to _printf_c.o(.ARM.Collect$$_printf_percent$$00000013) for _printf_c
    fprintf.o(.text) refers (Special) to _printf_charcount.o(.text) for _printf_charcount
    fprintf.o(.text) refers (Special) to _printf_d.o(.ARM.Collect$$_printf_percent$$00000009) for _printf_d
    fprintf.o(.text) refers (Special) to _printf_e.o(.ARM.Collect$$_printf_percent$$00000004) for _printf_e
    fprintf.o(.text) refers (Special) to _printf_f.o(.ARM.Collect$$_printf_percent$$00000003) for _printf_f
    fprintf.o(.text) refers (Special) to printf1.o(x$fpl$printf1) for _printf_fp_dec
    fprintf.o(.text) refers (Special) to printf2.o(x$fpl$printf2) for _printf_fp_hex
    fprintf.o(.text) refers (Special) to _printf_g.o(.ARM.Collect$$_printf_percent$$00000005) for _printf_g
    fprintf.o(.text) refers (Special) to _printf_i.o(.ARM.Collect$$_printf_percent$$00000008) for _printf_i
    fprintf.o(.text) refers (Special) to _printf_dec.o(.text) for _printf_int_dec
    fprintf.o(.text) refers (Special) to _printf_l.o(.ARM.Collect$$_printf_percent$$00000012) for _printf_l
    fprintf.o(.text) refers (Special) to _printf_lc.o(.ARM.Collect$$_printf_percent$$00000015) for _printf_lc
    fprintf.o(.text) refers (Special) to _printf_ll.o(.ARM.Collect$$_printf_percent$$00000007) for _printf_ll
    fprintf.o(.text) refers (Special) to _printf_lld.o(.ARM.Collect$$_printf_percent$$0000000E) for _printf_lld
    fprintf.o(.text) refers (Special) to _printf_lli.o(.ARM.Collect$$_printf_percent$$0000000D) for _printf_lli
    fprintf.o(.text) refers (Special) to _printf_llo.o(.ARM.Collect$$_printf_percent$$00000010) for _printf_llo
    fprintf.o(.text) refers (Special) to _printf_llu.o(.ARM.Collect$$_printf_percent$$0000000F) for _printf_llu
    fprintf.o(.text) refers (Special) to _printf_llx.o(.ARM.Collect$$_printf_percent$$00000011) for _printf_llx
    fprintf.o(.text) refers (Special) to _printf_longlong_dec.o(.text) for _printf_longlong_dec
    fprintf.o(.text) refers (Special) to _printf_hex_int_ll_ptr.o(.text) for _printf_longlong_hex
    fprintf.o(.text) refers (Special) to _printf_oct_int_ll.o(.text) for _printf_longlong_oct
    fprintf.o(.text) refers (Special) to _printf_ls.o(.ARM.Collect$$_printf_percent$$00000016) for _printf_ls
    fprintf.o(.text) refers (Special) to _printf_n.o(.ARM.Collect$$_printf_percent$$00000001) for _printf_n
    fprintf.o(.text) refers (Special) to _printf_o.o(.ARM.Collect$$_printf_percent$$0000000B) for _printf_o
    fprintf.o(.text) refers (Special) to _printf_p.o(.ARM.Collect$$_printf_percent$$00000002) for _printf_p
    fprintf.o(.text) refers (Special) to _printf_percent.o(.ARM.Collect$$_printf_percent$$00000000) for _printf_percent
    fprintf.o(.text) refers (Special) to _printf_pad.o(.text) for _printf_post_padding
    fprintf.o(.text) refers (Special) to _printf_s.o(.ARM.Collect$$_printf_percent$$00000014) for _printf_s
    fprintf.o(.text) refers (Special) to _printf_str.o(.text) for _printf_str
    fprintf.o(.text) refers (Special) to _printf_truncate.o(.text) for _printf_truncate_signed
    fprintf.o(.text) refers (Special) to _printf_u.o(.ARM.Collect$$_printf_percent$$0000000A) for _printf_u
    fprintf.o(.text) refers (Special) to _printf_wctomb.o(.text) for _printf_wctomb
    fprintf.o(.text) refers (Special) to _printf_x.o(.ARM.Collect$$_printf_percent$$0000000C) for _printf_x
    fprintf.o(.text) refers to _printf_char_file.o(.text) for _printf_char_file
    vsnprintf.o(.text) refers (Special) to _printf_a.o(.ARM.Collect$$_printf_percent$$00000006) for _printf_a
    vsnprintf.o(.text) refers (Special) to _printf_c.o(.ARM.Collect$$_printf_percent$$00000013) for _printf_c
    vsnprintf.o(.text) refers (Special) to _printf_charcount.o(.text) for _printf_charcount
    vsnprintf.o(.text) refers (Special) to _printf_d.o(.ARM.Collect$$_printf_percent$$00000009) for _printf_d
    vsnprintf.o(.text) refers (Special) to _printf_e.o(.ARM.Collect$$_printf_percent$$00000004) for _printf_e
    vsnprintf.o(.text) refers (Special) to _printf_f.o(.ARM.Collect$$_printf_percent$$00000003) for _printf_f
    vsnprintf.o(.text) refers (Special) to printf1.o(x$fpl$printf1) for _printf_fp_dec
    vsnprintf.o(.text) refers (Special) to printf2.o(x$fpl$printf2) for _printf_fp_hex
    vsnprintf.o(.text) refers (Special) to _printf_g.o(.ARM.Collect$$_printf_percent$$00000005) for _printf_g
    vsnprintf.o(.text) refers (Special) to _printf_i.o(.ARM.Collect$$_printf_percent$$00000008) for _printf_i
    vsnprintf.o(.text) refers (Special) to _printf_dec.o(.text) for _printf_int_dec
    vsnprintf.o(.text) refers (Special) to _printf_l.o(.ARM.Collect$$_printf_percent$$00000012) for _printf_l
    vsnprintf.o(.text) refers (Special) to _printf_lc.o(.ARM.Collect$$_printf_percent$$00000015) for _printf_lc
    vsnprintf.o(.text) refers (Special) to _printf_ll.o(.ARM.Collect$$_printf_percent$$00000007) for _printf_ll
    vsnprintf.o(.text) refers (Special) to _printf_lld.o(.ARM.Collect$$_printf_percent$$0000000E) for _printf_lld
    vsnprintf.o(.text) refers (Special) to _printf_lli.o(.ARM.Collect$$_printf_percent$$0000000D) for _printf_lli
    vsnprintf.o(.text) refers (Special) to _printf_llo.o(.ARM.Collect$$_printf_percent$$00000010) for _printf_llo
    vsnprintf.o(.text) refers (Special) to _printf_llu.o(.ARM.Collect$$_printf_percent$$0000000F) for _printf_llu
    vsnprintf.o(.text) refers (Special) to _printf_llx.o(.ARM.Collect$$_printf_percent$$00000011) for _printf_llx
    vsnprintf.o(.text) refers (Special) to _printf_longlong_dec.o(.text) for _printf_longlong_dec
    vsnprintf.o(.text) refers (Special) to _printf_hex_int_ll_ptr.o(.text) for _printf_longlong_hex
    vsnprintf.o(.text) refers (Special) to _printf_oct_int_ll.o(.text) for _printf_longlong_oct
    vsnprintf.o(.text) refers (Special) to _printf_ls.o(.ARM.Collect$$_printf_percent$$00000016) for _printf_ls
    vsnprintf.o(.text) refers (Special) to _printf_n.o(.ARM.Collect$$_printf_percent$$00000001) for _printf_n
    vsnprintf.o(.text) refers (Special) to _printf_o.o(.ARM.Collect$$_printf_percent$$0000000B) for _printf_o
    vsnprintf.o(.text) refers (Special) to _printf_p.o(.ARM.Collect$$_printf_percent$$00000002) for _printf_p
    vsnprintf.o(.text) refers (Special) to _printf_percent.o(.ARM.Collect$$_printf_percent$$00000000) for _printf_percent
    vsnprintf.o(.text) refers (Special) to _printf_pad.o(.text) for _printf_post_padding
    vsnprintf.o(.text) refers (Special) to _printf_s.o(.ARM.Collect$$_printf_percent$$00000014) for _printf_s
    vsnprintf.o(.text) refers (Special) to _printf_str.o(.text) for _printf_str
    vsnprintf.o(.text) refers (Special) to _printf_truncate.o(.text) for _printf_truncate_signed
    vsnprintf.o(.text) refers (Special) to _printf_u.o(.ARM.Collect$$_printf_percent$$0000000A) for _printf_u
    vsnprintf.o(.text) refers (Special) to _printf_wctomb.o(.text) for _printf_wctomb
    vsnprintf.o(.text) refers (Special) to _printf_x.o(.ARM.Collect$$_printf_percent$$0000000C) for _printf_x
    vsnprintf.o(.text) refers to _printf_char_common.o(.text) for _printf_char_common
    vsnprintf.o(.text) refers to _sputc.o(.text) for _sputc
    vsnprintf.o(.text) refers to _snputc.o(.text) for _snputc
    sscanf.o(.text) refers (Special) to _scanf_int.o(.text) for _scanf_int
    sscanf.o(.text) refers (Special) to _scanf_longlong.o(.text) for _scanf_longlong
    sscanf.o(.text) refers (Special) to _scanf_mbtowc.o(.text) for _scanf_mbtowc
    sscanf.o(.text) refers (Special) to scanf1.o(x$fpl$scanf1) for _scanf_real
    sscanf.o(.text) refers (Special) to _scanf_str.o(.text) for _scanf_string
    sscanf.o(.text) refers (Special) to _scanf_wctomb.o(.text) for _scanf_wctomb
    sscanf.o(.text) refers (Special) to _scanf_wstr.o(.text) for _scanf_wstring
    sscanf.o(.text) refers to scanf_char.o(.text) for __vfscanf_char
    sscanf.o(.text) refers to _sgetc.o(.text) for _sgetc
    fseek.o(.text) refers to sys_io.o(.text) for _sys_istty
    fseek.o(.text) refers to ftell.o(.text) for _ftell_internal
    fseek.o(.text) refers to stdio.o(.text) for _seterr
    ftell.o(.text) refers to rt_errno_addr_intlibspace.o(.text) for __aeabi_errno_addr
    fwrite.o(.text) refers to board.o(i.fputc) for fputc
    fread_bytes_avail_replaced.o(.text) refers to board.o(i.fgetc) for fgetc
    fclose.o(.text) refers to stdio.o(.text) for _fflush
    fclose.o(.text) refers to sys_io.o(.text) for _sys_close
    fclose.o(.text) refers to h1_free.o(.text) for free
    fclose.o(.text) refers to rt_memclr_w.o(.text) for __aeabi_memclr4
    ftell_locked.o(.text) refers to ftell.o(.text) for _ftell_internal
    fclose_locked.o(.text) refers to fclose.o(.text) for _fclose_internal
    fclose_locked.o(.text) refers to streamlock.o(.data) for _stream_list_lock
    fseek_locked.o(.text) refers to fseek.o(.text) for _fseek
    abort.o(.text) refers to defsig_abrt_outer.o(.text) for __rt_SIGABRT
    abort.o(.text) refers (Weak) to libshutdown.o(.ARM.Collect$$libshutdown$$00000000) for __rt_lib_shutdown
    abort.o(.text) refers to board.o(i._sys_exit) for _sys_exit
    cxa_finalize.o(.text) refers (Special) to libshutdown2.o(.ARM.Collect$$libshutdown$$00000001) for __rt_lib_shutdown_cpp_2
    cxa_finalize.o(.text) refers to rt_ddtor_pointer_addr_intlibspace.o(.text) for __rt_ddtor_pointer_addr
    cxa_finalize.o(.text) refers to h1_free.o(.text) for free
    cxa_finalize.o(.ARM.exidx) refers (Special) to libshutdown2.o(.ARM.Collect$$libshutdown$$00000001) for __rt_lib_shutdown_cpp_2
    cxa_finalize.o(.ARM.exidx) refers to cxa_finalize.o(.text) for .text
    wmemmove.o(.text) refers to memmove.o(.text) for memmove
    rt_memmove_w.o(.text) refers to rt_memcpy_w.o(.text) for __aeabi_memcpy4
    libinit2.o(.ARM.Collect$$libinit$$00000001) refers to fpinit.o(x$fpl$fpinit) for _fp_init
    libinit2.o(.ARM.Collect$$libinit$$00000005) refers (Weak) to init_alloc.o(.text) for _init_alloc
    libinit2.o(.ARM.Collect$$libinit$$0000000F) refers (Weak) to rt_locale_intlibspace.o(.text) for __rt_locale
    libinit2.o(.ARM.Collect$$libinit$$00000010) refers to libinit2.o(.ARM.Collect$$libinit$$0000000F) for .ARM.Collect$$libinit$$0000000F
    libinit2.o(.ARM.Collect$$libinit$$00000010) refers (Weak) to lc_collate_c.o(locale$$code) for _get_lc_collate
    libinit2.o(.ARM.Collect$$libinit$$00000012) refers to libinit2.o(.ARM.Collect$$libinit$$0000000F) for .ARM.Collect$$libinit$$0000000F
    libinit2.o(.ARM.Collect$$libinit$$00000012) refers (Weak) to lc_ctype_c.o(locale$$code) for _get_lc_ctype
    libinit2.o(.ARM.Collect$$libinit$$00000014) refers to libinit2.o(.ARM.Collect$$libinit$$0000000F) for .ARM.Collect$$libinit$$0000000F
    libinit2.o(.ARM.Collect$$libinit$$00000014) refers (Weak) to lc_monetary_c.o(locale$$code) for _get_lc_monetary
    libinit2.o(.ARM.Collect$$libinit$$00000016) refers to libinit2.o(.ARM.Collect$$libinit$$0000000F) for .ARM.Collect$$libinit$$0000000F
    libinit2.o(.ARM.Collect$$libinit$$00000016) refers (Weak) to lc_numeric_c.o(locale$$code) for _get_lc_numeric
    libinit2.o(.ARM.Collect$$libinit$$00000018) refers to libinit2.o(.ARM.Collect$$libinit$$0000000F) for .ARM.Collect$$libinit$$0000000F
    libinit2.o(.ARM.Collect$$libinit$$00000024) refers (Weak) to initio.o(.text) for _initio
    libinit2.o(.ARM.Collect$$libinit$$00000026) refers to argv_veneer.o(.emb_text) for __ARM_argv_veneer
    libinit2.o(.ARM.Collect$$libinit$$00000027) refers to argv_veneer.o(.emb_text) for __ARM_argv_veneer
    libinit2.o(.ARM.Collect$$libinit$$00000031) refers (Weak) to init_aeabi.o(.text) for __cpp_initialize__aeabi_
    char.o(i._ZNKSt14collate_bynameIcE10do_compareEPKcS2_S2_S2_) refers to locale.o(i._ZN4__rw21__rw_use_c_lib_localeC1EPKci) for __rw::__rw_use_c_lib_locale::__rw_use_c_lib_locale(const char*, int)
    char.o(i._ZNKSt14collate_bynameIcE10do_compareEPKcS2_S2_S2_) refers to array_new.o(i._Znaj) for operator new[] (unsigned)
    char.o(i._ZNKSt14collate_bynameIcE10do_compareEPKcS2_S2_S2_) refers to rt_memcpy_v6.o(.text) for __aeabi_memcpy
    char.o(i._ZNKSt14collate_bynameIcE10do_compareEPKcS2_S2_S2_) refers to strcoll.o(.text) for strcoll
    char.o(i._ZNKSt14collate_bynameIcE10do_compareEPKcS2_S2_S2_) refers to array_del.o(i._ZdaPv) for operator delete[] (void*)
    char.o(i._ZNKSt14collate_bynameIcE10do_compareEPKcS2_S2_S2_) refers to char.o(i._ZN4__rw21__rw_use_c_lib_localeD1Ev) for __rw::__rw_use_c_lib_locale::~__rw_use_c_lib_locale()
    char.o(i._ZNKSt14collate_bynameIcE10do_compareEPKcS2_S2_S2_.clean) refers to char.o(i._ZN4__rw21__rw_use_c_lib_localeD1Ev) for __rw::__rw_use_c_lib_locale::~__rw_use_c_lib_locale()
    char.o(i._ZNKSt14collate_bynameIcE10do_compareEPKcS2_S2_S2_.clean) refers to arm_exceptions_cleanup.o(.emb_text) for __cxa_end_cleanup
    char.o(i._ZNKSt14collate_bynameIcE12do_transformEPKcS2_) refers to locale.o(i._ZN4__rw21__rw_use_c_lib_localeC1EPKci) for __rw::__rw_use_c_lib_locale::__rw_use_c_lib_locale(const char*, int)
    char.o(i._ZNKSt14collate_bynameIcE12do_transformEPKcS2_) refers to array_new.o(i._Znaj) for operator new[] (unsigned)
    char.o(i._ZNKSt14collate_bynameIcE12do_transformEPKcS2_) refers to rt_memcpy_v6.o(.text) for __aeabi_memcpy
    char.o(i._ZNKSt14collate_bynameIcE12do_transformEPKcS2_) refers to strxfrm.o(.text) for strxfrm
    char.o(i._ZNKSt14collate_bynameIcE12do_transformEPKcS2_) refers to char.o(t._ZNSsC1EPKcjRKSaIcE) for std::basic_string<char, std::char_traits<char>, std::allocator<char>>::basic_string(const char*, unsigned, const std::allocator<char>&)
    char.o(i._ZNKSt14collate_bynameIcE12do_transformEPKcS2_) refers to char.o(t._ZNSs5beginEv) for std::basic_string<char, std::char_traits<char>, std::allocator<char>>::begin()
    char.o(i._ZNKSt14collate_bynameIcE12do_transformEPKcS2_) refers to array_del.o(i._ZdaPv) for operator delete[] (void*)
    char.o(i._ZNKSt14collate_bynameIcE12do_transformEPKcS2_) refers to char.o(i._ZN4__rw21__rw_use_c_lib_localeD1Ev) for __rw::__rw_use_c_lib_locale::~__rw_use_c_lib_locale()
    char.o(i._ZNKSt14collate_bynameIcE12do_transformEPKcS2_.clean) refers to ios.o(t._ZNSsD1Ev) for std::basic_string<char, std::char_traits<char>, std::allocator<char>>::~basic_string()
    char.o(i._ZNKSt14collate_bynameIcE12do_transformEPKcS2_.clean) refers to char.o(i._ZN4__rw21__rw_use_c_lib_localeD1Ev) for __rw::__rw_use_c_lib_locale::~__rw_use_c_lib_locale()
    char.o(i._ZNKSt14collate_bynameIcE12do_transformEPKcS2_.clean) refers to arm_exceptions_cleanup.o(.emb_text) for __cxa_end_cleanup
    char.o(i._ZNSt12ctype_bynameIcE17_C_get_mask_tableEPKc) refers to strcmpv7m.o(.text) for strcmp
    char.o(i._ZNSt12ctype_bynameIcE17_C_get_mask_tableEPKc) refers to array_new.o(i._Znaj) for operator new[] (unsigned)
    char.o(i._ZNSt12ctype_bynameIcE17_C_get_mask_tableEPKc) refers to locale.o(i._ZN4__rw21__rw_use_c_lib_localeC1EPKci) for __rw::__rw_use_c_lib_locale::__rw_use_c_lib_locale(const char*, int)
    char.o(i._ZNSt12ctype_bynameIcE17_C_get_mask_tableEPKc) refers to rt_ctype_table.o(.text) for __rt_ctype_table
    char.o(i._ZNSt12ctype_bynameIcE17_C_get_mask_tableEPKc) refers to char.o(i._ZN4__rw21__rw_use_c_lib_localeD1Ev) for __rw::__rw_use_c_lib_locale::~__rw_use_c_lib_locale()
    char.o(i._ZNSt12ctype_bynameIcE17_C_get_mask_tableEPKc) refers to char.o(.constdata) for .constdata
    char.o(i._ZNSt12ctype_bynameIcE17_C_get_mask_tableEPKc.clean) refers to arm_exceptions_cleanup.o(.emb_text) for __cxa_end_cleanup
    char.o(i._ZNSt12ctype_bynameIcEC1EPKcj) refers to char.o(i._ZNSt12ctype_bynameIcE17_C_get_mask_tableEPKc) for std::ctype_byname<char>::_C_get_mask_table(const char*)
    char.o(i._ZNSt12ctype_bynameIcEC1EPKcj) refers to char.o(i._ZNSt5ctypeIcEC1EPKNSt10ctype_base4maskEbj) for std::ctype<char>::ctype(const std::ctype_base::mask*, bool, unsigned)
    char.o(i._ZNSt12ctype_bynameIcEC1EPKcj) refers to locale.o(i._ZN4__rw21__rw_use_c_lib_localeC1EPKci) for __rw::__rw_use_c_lib_locale::__rw_use_c_lib_locale(const char*, int)
    char.o(i._ZNSt12ctype_bynameIcEC1EPKcj) refers to char.o(i._ZNKSt5ctypeIcE2isENSt10ctype_base4maskEc) for std::ctype<char>::is(std::ctype_base::mask, char) const
    char.o(i._ZNSt12ctype_bynameIcEC1EPKcj) refers to char.o(i._ZN4__rw21__rw_use_c_lib_localeD1Ev) for __rw::__rw_use_c_lib_locale::~__rw_use_c_lib_locale()
    char.o(i._ZNSt12ctype_bynameIcEC1EPKcj) refers to char.o(.constdata__ZTVSt12ctype_bynameIcE) for vtable for std::ctype_byname<char>
    char.o(i._ZNSt12ctype_bynameIcEC1EPKcj) refers to char.o(.constdata) for .constdata
    char.o(i._ZNSt12ctype_bynameIcEC1EPKcj.clean) refers to char.o(i._ZN4__rw21__rw_use_c_lib_localeD1Ev) for __rw::__rw_use_c_lib_locale::~__rw_use_c_lib_locale()
    char.o(i._ZNSt12ctype_bynameIcEC1EPKcj.clean) refers to char.o(i._ZNSt5ctypeIcED1Ev) for std::ctype<char>::~ctype()
    char.o(i._ZNSt12ctype_bynameIcEC1EPKcj.clean) refers to arm_exceptions_cleanup.o(.emb_text) for __cxa_end_cleanup
    char.o(i._ZNSt5ctypeIcE12_C_initfacetERKSt6locale) refers to locale.o(i._ZNKSt6locale4nameEv) for std::locale::name() const
    char.o(i._ZNSt5ctypeIcE12_C_initfacetERKSt6locale) refers to locale.o(i._ZN4__rw21__rw_use_c_lib_localeC1EPKci) for __rw::__rw_use_c_lib_locale::__rw_use_c_lib_locale(const char*, int)
    char.o(i._ZNSt5ctypeIcE12_C_initfacetERKSt6locale) refers to ios.o(t._ZNSsD1Ev) for std::basic_string<char, std::char_traits<char>, std::allocator<char>>::~basic_string()
    char.o(i._ZNSt5ctypeIcE12_C_initfacetERKSt6locale) refers to char.o(i._ZNKSt5ctypeIcE2isENSt10ctype_base4maskEc) for std::ctype<char>::is(std::ctype_base::mask, char) const
    char.o(i._ZNSt5ctypeIcE12_C_initfacetERKSt6locale) refers to char.o(i._ZN4__rw21__rw_use_c_lib_localeD1Ev) for __rw::__rw_use_c_lib_locale::~__rw_use_c_lib_locale()
    char.o(i._ZNSt5ctypeIcE12_C_initfacetERKSt6locale.clean) refers to char.o(i._ZN4__rw21__rw_use_c_lib_localeD1Ev) for __rw::__rw_use_c_lib_locale::~__rw_use_c_lib_locale()
    char.o(i._ZNSt5ctypeIcE12_C_initfacetERKSt6locale.clean) refers to arm_exceptions_cleanup.o(.emb_text) for __cxa_end_cleanup
    char.o(i._ZNSt5ctypeIcE12_C_initfacetERKSt6locale.clean) refers to ios.o(t._ZNSsD1Ev) for std::basic_string<char, std::char_traits<char>, std::allocator<char>>::~basic_string()
    char.o(i._ZNSt5ctypeIcEC1EPKNSt10ctype_base4maskEbj) refers to char.o(i._ZNKSt5ctypeIcE2isENSt10ctype_base4maskEc) for std::ctype<char>::is(std::ctype_base::mask, char) const
    char.o(i._ZNSt5ctypeIcEC1EPKNSt10ctype_base4maskEbj) refers to array_new.o(i._Znaj) for operator new[] (unsigned)
    char.o(i._ZNSt5ctypeIcEC1EPKNSt10ctype_base4maskEbj) refers to char.o(.constdata__ZTVSt5ctypeIcE) for vtable for std::ctype<char>
    char.o(i._ZNSt5ctypeIcEC1EPKNSt10ctype_base4maskEbj) refers to char.o(.constdata) for .constdata
    char.o(i._ZNSt5ctypeIcEC1EPKNSt10ctype_base4maskEbj.clean) refers to arm_exceptions_cleanup.o(.emb_text) for __cxa_end_cleanup
    char.o(i.__sti___8_char_cpp_a3dc957a) refers to char.o(.data) for .data
    char.o(.ARM.exidx) refers to char.o(i._ZNSt5ctypeIcE12_C_initfacetERKSt6locale) for i._ZNSt5ctypeIcE12_C_initfacetERKSt6locale
    char.o(.ARM.exidx) refers to unwind_pr0.o(.text) for __aeabi_unwind_cpp_pr0
    char.o(.ARM.exidx) refers to char.o(.ARM.extab) for .extab._ZNSt5ctypeIcE12_C_initfacetERKSt6locale
    char.o(.ARM.exidx) refers to char.o(i._ZNSt5ctypeIcE12_C_initfacetERKSt6locale.clean) for i._ZNSt5ctypeIcE12_C_initfacetERKSt6locale.clean
    char.o(.ARM.exidx) refers to char.o(i._ZNSt5ctypeIcEC1EPKNSt10ctype_base4maskEbj) for i._ZNSt5ctypeIcEC1EPKNSt10ctype_base4maskEbj
    char.o(.ARM.exidx) refers to unwind_pr0.o(.text) for __aeabi_unwind_cpp_pr0
    char.o(.ARM.exidx) refers to char.o(.ARM.extab) for .extab._ZNSt5ctypeIcEC1EPKNSt10ctype_base4maskEbj
    char.o(.ARM.exidx) refers to char.o(i._ZNSt5ctypeIcEC1EPKNSt10ctype_base4maskEbj.clean) for i._ZNSt5ctypeIcEC1EPKNSt10ctype_base4maskEbj.clean
    char.o(.ARM.exidx) refers to char.o(i._ZNSt12ctype_bynameIcE17_C_get_mask_tableEPKc) for i._ZNSt12ctype_bynameIcE17_C_get_mask_tableEPKc
    char.o(.ARM.exidx) refers to unwind_pr0.o(.text) for __aeabi_unwind_cpp_pr0
    char.o(.ARM.exidx) refers to char.o(i._ZNSt12ctype_bynameIcE17_C_get_mask_tableEPKc.clean) for i._ZNSt12ctype_bynameIcE17_C_get_mask_tableEPKc.clean
    char.o(.ARM.exidx) refers to char.o(i._ZNSt12ctype_bynameIcEC1EPKcj) for i._ZNSt12ctype_bynameIcEC1EPKcj
    char.o(.ARM.exidx) refers to unwind_pr0.o(.text) for __aeabi_unwind_cpp_pr0
    char.o(.ARM.exidx) refers to char.o(.ARM.extab) for .extab._ZNSt12ctype_bynameIcEC1EPKcj
    char.o(.ARM.exidx) refers to char.o(i._ZNSt12ctype_bynameIcEC1EPKcj.clean) for i._ZNSt12ctype_bynameIcEC1EPKcj.clean
    char.o(.ARM.exidx) refers to char.o(i._ZNKSt14collate_bynameIcE10do_compareEPKcS2_S2_S2_) for i._ZNKSt14collate_bynameIcE10do_compareEPKcS2_S2_S2_
    char.o(.ARM.exidx) refers to unwind_pr0.o(.text) for __aeabi_unwind_cpp_pr0
    char.o(.ARM.exidx) refers to char.o(.ARM.extab) for .extab._ZNKSt14collate_bynameIcE10do_compareEPKcS2_S2_S2_
    char.o(.ARM.exidx) refers to char.o(i._ZNKSt14collate_bynameIcE10do_compareEPKcS2_S2_S2_.clean) for i._ZNKSt14collate_bynameIcE10do_compareEPKcS2_S2_S2_.clean
    char.o(.ARM.exidx) refers to char.o(i._ZNKSt14collate_bynameIcE12do_transformEPKcS2_) for i._ZNKSt14collate_bynameIcE12do_transformEPKcS2_
    char.o(.ARM.exidx) refers to unwind_pr0.o(.text) for __aeabi_unwind_cpp_pr0
    char.o(.ARM.exidx) refers to char.o(.ARM.extab) for .extab._ZNKSt14collate_bynameIcE12do_transformEPKcS2_
    char.o(.ARM.exidx) refers to char.o(i._ZNKSt14collate_bynameIcE12do_transformEPKcS2_.clean) for i._ZNKSt14collate_bynameIcE12do_transformEPKcS2_.clean
    char.o(.ARM.exidx) refers to char.o(i.__sti___8_char_cpp_a3dc957a) for i.__sti___8_char_cpp_a3dc957a
    char.o(.ARM.extab) refers to char.o(i._ZNSt5ctypeIcE12_C_initfacetERKSt6locale.clean) for i._ZNSt5ctypeIcE12_C_initfacetERKSt6locale.clean
    char.o(.ARM.extab) refers to char.o(i._ZNSt5ctypeIcEC1EPKNSt10ctype_base4maskEbj.clean) for i._ZNSt5ctypeIcEC1EPKNSt10ctype_base4maskEbj.clean
    char.o(.ARM.extab) refers to char.o(i._ZNSt12ctype_bynameIcEC1EPKcj.clean) for i._ZNSt12ctype_bynameIcEC1EPKcj.clean
    char.o(.ARM.extab) refers to char.o(i._ZNKSt14collate_bynameIcE10do_compareEPKcS2_S2_S2_.clean) for i._ZNKSt14collate_bynameIcE10do_compareEPKcS2_S2_S2_.clean
    char.o(.ARM.extab) refers to char.o(i._ZNKSt14collate_bynameIcE12do_transformEPKcS2_.clean) for i._ZNKSt14collate_bynameIcE12do_transformEPKcS2_.clean
    char.o(.init_array) refers to char.o(i.__sti___8_char_cpp_a3dc957a) for __sti___8_char_cpp_a3dc957a
    char.o(.init_array) refers to init_aeabi.o(.text) for __cpp_initialize__aeabi_
    locale.o(i.<Func5>) refers to locale.o(t._ZNSsC1ERKSaIcE) for std::basic_string<char, std::char_traits<char>, std::allocator<char>>::basic_string(const std::allocator<char>&)
    locale.o(i._ZN4__rw21__rw_use_c_lib_localeC1EPKci) refers to locale.o(.text) for setlocale
    locale.o(i._ZN4__rw21__rw_use_c_lib_localeC1EPKci) refers to strlen.o(.text) for strlen
    locale.o(i._ZN4__rw21__rw_use_c_lib_localeC1EPKci) refers to array_new.o(i._Znaj) for operator new[] (unsigned)
    locale.o(i._ZN4__rw21__rw_use_c_lib_localeC1EPKci) refers to strcpy.o(.text) for strcpy
    locale.o(i._ZN4__rw23__rw_numpunct_impl_base18_C_get_named_init_EPKc) refers to locale.o(i._ZN4__rw21__rw_use_c_lib_localeC1EPKci) for __rw::__rw_use_c_lib_locale::__rw_use_c_lib_locale(const char*, int)
    locale.o(i._ZN4__rw23__rw_numpunct_impl_base18_C_get_named_init_EPKc) refers to rwstdexcept.o(i._ZN4__rw10__rw_throwEiz) for __rw::__rw_throw(int, ...)
    locale.o(i._ZN4__rw23__rw_numpunct_impl_base18_C_get_named_init_EPKc) refers to localeconv.o(.text) for localeconv
    locale.o(i._ZN4__rw23__rw_numpunct_impl_base18_C_get_named_init_EPKc) refers to strlen.o(.text) for strlen
    locale.o(i._ZN4__rw23__rw_numpunct_impl_base18_C_get_named_init_EPKc) refers to array_new.o(i._Znaj) for operator new[] (unsigned)
    locale.o(i._ZN4__rw23__rw_numpunct_impl_base18_C_get_named_init_EPKc) refers to strcpy.o(.text) for strcpy
    locale.o(i._ZN4__rw23__rw_numpunct_impl_base18_C_get_named_init_EPKc) refers to char.o(i._ZN4__rw21__rw_use_c_lib_localeD1Ev) for __rw::__rw_use_c_lib_locale::~__rw_use_c_lib_locale()
    locale.o(i._ZN4__rw23__rw_numpunct_impl_base18_C_get_named_init_EPKc.clean) refers to char.o(i._ZN4__rw21__rw_use_c_lib_localeD1Ev) for __rw::__rw_use_c_lib_locale::~__rw_use_c_lib_locale()
    locale.o(i._ZN4__rw23__rw_numpunct_impl_base18_C_get_named_init_EPKc.clean) refers to arm_exceptions_cleanup.o(.emb_text) for __cxa_end_cleanup
    locale.o(i._ZNKSt14codecvt_bynameIwcSt11__mbstate_tE5do_inERS0_PKcS4_RS4_PwS6_RS6_) refers to mbrtowc.o(.text) for mbrtowc
    locale.o(i._ZNKSt14codecvt_bynameIwcSt11__mbstate_tE6do_outERS0_PKwS4_RS4_PcS6_RS6_) refers to _mbcurmax.o(.text) for __aeabi_MB_CUR_MAX
    locale.o(i._ZNKSt14codecvt_bynameIwcSt11__mbstate_tE6do_outERS0_PKwS4_RS4_PcS6_RS6_) refers to wcrtomb.o(.text) for wcrtomb
    locale.o(i._ZNKSt6locale13_C_make_facetERKNS_2idEbiPFPN4__rw15__rw_facet_baseEiPKcjE) refers to locale.o(t._ZN4__rw18__rw_locale_vectorIPNS_15__rw_facet_baseEE6resizeEjRKS2_) for __rw::__rw_locale_vector<__rw::__rw_facet_base*>::resize(unsigned, __rw::__rw_facet_base*const &)
    locale.o(i._ZNKSt6locale13_C_make_facetERKNS_2idEbiPFPN4__rw15__rw_facet_baseEiPKcjE) refers to rwstdexcept.o(i._ZN4__rw10__rw_throwEiz) for __rw::__rw_throw(int, ...)
    locale.o(i._ZNKSt6locale13_C_make_facetERKNS_2idEbiPFPN4__rw15__rw_facet_baseEiPKcjE) refers to locale.o(i._ZNSt6localeC1EPN4__rw15__rw_locale_impE) for std::locale::locale(__rw::__rw_locale_imp*)
    locale.o(i._ZNKSt6locale13_C_make_facetERKNS_2idEbiPFPN4__rw15__rw_facet_baseEiPKcjE) refers to locale.o(i._ZNKSt6locale16_C_install_facetEPN4__rw15__rw_facet_baseERKNS_2idE) for std::locale::_C_install_facet(__rw::__rw_facet_base*, const std::locale::id&) const
    locale.o(i._ZNKSt6locale13_C_make_facetERKNS_2idEbiPFPN4__rw15__rw_facet_baseEiPKcjE) refers to ios.o(i._ZNSt6localeD1Ev) for std::locale::~locale()
    locale.o(i._ZNKSt6locale13_C_make_facetERKNS_2idEbiPFPN4__rw15__rw_facet_baseEiPKcjE) refers to locale.o(.data) for .data
    locale.o(i._ZNKSt6locale13_C_make_facetERKNS_2idEbiPFPN4__rw15__rw_facet_baseEiPKcjE) refers to locale.o(.constdata__ZZNK4__rw15__rw_locale_imp16_C_category_nameEiEs) for __rw::__rw_locale_imp::_C_category_name(int) const::string
    locale.o(i._ZNKSt6locale13_C_make_facetERKNS_2idEbiPFPN4__rw15__rw_facet_baseEiPKcjE.clean) refers to ios.o(i._ZNSt6localeD1Ev) for std::locale::~locale()
    locale.o(i._ZNKSt6locale13_C_make_facetERKNS_2idEbiPFPN4__rw15__rw_facet_baseEiPKcjE.clean) refers to arm_exceptions_cleanup.o(.emb_text) for __cxa_end_cleanup
    locale.o(i._ZNKSt6locale16_C_install_facetEPN4__rw15__rw_facet_baseERKNS_2idE) refers to locale.o(t._ZN4__rw18__rw_locale_vectorIPNS_15__rw_facet_baseEE6resizeEjRKS2_) for __rw::__rw_locale_vector<__rw::__rw_facet_base*>::resize(unsigned, __rw::__rw_facet_base*const &)
    locale.o(i._ZNKSt6locale16_C_install_facetEPN4__rw15__rw_facet_baseERKNS_2idE) refers to locale.o(.data__ZZNKSt6locale2id7_C_initEvE9_C_id_gen) for std::locale::id::_C_init() const::_C_id_gen
    locale.o(i._ZNKSt6locale4nameEv) refers to locale.o(t._ZNSsC1EPKcRKSaIcE) for std::basic_string<char, std::char_traits<char>, std::allocator<char>>::basic_string(const char*, const std::allocator<char>&)
    locale.o(i._ZNSt6locale6globalERKS_) refers to locale.o(i._ZNKSt6locale4nameEv) for std::locale::name() const
    locale.o(i._ZNSt6locale6globalERKS_) refers to locale.o(.text) for setlocale
    locale.o(i._ZNSt6locale6globalERKS_) refers to ios.o(t._ZNSsD1Ev) for std::basic_string<char, std::char_traits<char>, std::allocator<char>>::~basic_string()
    locale.o(i._ZNSt6locale6globalERKS_) refers to rwstdexcept.o(i._ZN4__rw10__rw_throwEiz) for __rw::__rw_throw(int, ...)
    locale.o(i._ZNSt6locale6globalERKS_) refers to locale.o(i._ZNSt6localeC1EPN4__rw15__rw_locale_impE) for std::locale::locale(__rw::__rw_locale_imp*)
    locale.o(i._ZNSt6locale6globalERKS_) refers to locale.o(.data) for .data
    locale.o(i._ZNSt6locale6globalERKS_.clean) refers to ios.o(t._ZNSsD1Ev) for std::basic_string<char, std::char_traits<char>, std::allocator<char>>::~basic_string()
    locale.o(i._ZNSt6locale6globalERKS_.clean) refers to arm_exceptions_cleanup.o(.emb_text) for __cxa_end_cleanup
    locale.o(i._ZNSt6locale7_C_initEv) refers to new.o(i._Znwj) for operator new(unsigned)
    locale.o(i._ZNSt6locale7_C_initEv) refers to locale.o(i._ZN4__rw15__rw_locale_impC1EPKcjj) for __rw::__rw_locale_imp::__rw_locale_imp(const char*, unsigned, unsigned)
    locale.o(i._ZNSt6locale7_C_initEv) refers to locale.o(t._ZNSsaSEPKc) for std::basic_string<char, std::char_traits<char>, std::allocator<char>>::operator =(const char*)
    locale.o(i._ZNSt6locale7_C_initEv) refers to ios.o(i._ZN4__rw15__rw_locale_impD1Ev) for __rw::__rw_locale_imp::~__rw_locale_imp()
    locale.o(i._ZNSt6locale7_C_initEv) refers to delete.o(i._ZdlPv) for operator delete (void*)
    locale.o(i._ZNSt6locale7_C_initEv) refers to locale.o(.data) for .data
    locale.o(i._ZNSt6locale7_C_initEv.clean) refers to delete.o(i._ZdlPv) for operator delete (void*)
    locale.o(i._ZNSt6locale7_C_initEv.clean) refers to arm_exceptions_cleanup.o(.emb_text) for __cxa_end_cleanup
    locale.o(i._ZNSt6locale7classicEv) refers to locale.o(i._ZNSt6locale7_C_initEv) for std::locale::_C_init()
    locale.o(i._ZNSt6locale7classicEv) refers to cxa_guard_acquire.o(i.__cxa_guard_acquire) for __cxa_guard_acquire
    locale.o(i._ZNSt6locale7classicEv) refers to locale.o(i._ZNSt6localeC1EPN4__rw15__rw_locale_impE) for std::locale::locale(__rw::__rw_locale_imp*)
    locale.o(i._ZNSt6locale7classicEv) refers to aeabi_atexit.o(.text) for __aeabi_atexit
    locale.o(i._ZNSt6locale7classicEv) refers to locale.o(.data) for .data
    locale.o(i._ZNSt6locale7classicEv) refers to ios.o(i._ZNSt6localeD1Ev) for std::locale::~locale()
    locale.o(i._ZNSt6locale7classicEv.clean) refers to arm_exceptions_cleanup.o(.emb_text) for __cxa_end_cleanup
    locale.o(i._ZNSt6locale7classicEv.clean) refers to locale.o(.data) for .data
    locale.o(i._ZNSt6localeC1EPKc) refers to rwstdexcept.o(i._ZN4__rw10__rw_throwEiz) for __rw::__rw_throw(int, ...)
    locale.o(i._ZNSt6localeC1EPKc) refers to locale.o(i._ZNSt6locale7_C_initEv) for std::locale::_C_init()
    locale.o(i._ZNSt6localeC1EPKc) refers to strcmpv7m.o(.text) for strcmp
    locale.o(i._ZNSt6localeC1EPKc) refers to new.o(i._Znwj) for operator new(unsigned)
    locale.o(i._ZNSt6localeC1EPKc) refers to locale.o(i._ZN4__rw15__rw_locale_impC1EPKcjj) for __rw::__rw_locale_imp::__rw_locale_imp(const char*, unsigned, unsigned)
    locale.o(i._ZNSt6localeC1EPKc) refers to vendor.o(i._ZN4__rw15__rw_locale_imp13_C_parse_nameERNS_18__rw_locale_vectorISsEEPKc) for __rw::__rw_locale_imp::_C_parse_name(__rw::__rw_locale_vector<std::basic_string<char, std::char_traits<char>, std::allocator<char>>>&, const char*)
    locale.o(i._ZNSt6localeC1EPKc) refers to ios.o(i._ZN4__rw15__rw_locale_impD1Ev) for __rw::__rw_locale_imp::~__rw_locale_imp()
    locale.o(i._ZNSt6localeC1EPKc) refers to delete.o(i._ZdlPv) for operator delete (void*)
    locale.o(i._ZNSt6localeC1EPKc) refers to locale.o(.data) for .data
    locale.o(i._ZNSt6localeC1EPKc.clean) refers to delete.o(i._ZdlPv) for operator delete (void*)
    locale.o(i._ZNSt6localeC1EPKc.clean) refers to arm_exceptions_cleanup.o(.emb_text) for __cxa_end_cleanup
    locale.o(i._ZNSt6localeC1ERKS_PKci) refers to rwstdexcept.o(i._ZN4__rw10__rw_throwEiz) for __rw::__rw_throw(int, ...)
    locale.o(i._ZNSt6localeC1ERKS_PKci) refers to new.o(i._Znwj) for operator new(unsigned)
    locale.o(i._ZNSt6localeC1ERKS_PKci) refers to locale.o(i._ZN4__rw15__rw_locale_impC1ERKS0_PKcj) for __rw::__rw_locale_imp::__rw_locale_imp(const __rw::__rw_locale_imp&, const char*, unsigned)
    locale.o(i._ZNSt6localeC1ERKS_PKci) refers to vendor.o(i._ZN4__rw15__rw_locale_imp15_C_map_categoryEi) for __rw::__rw_locale_imp::_C_map_category(int)
    locale.o(i._ZNSt6localeC1ERKS_PKci) refers to locale.o(i._ZNSt6locale16_C_remove_facetsEi) for std::locale::_C_remove_facets(int)
    locale.o(i._ZNSt6localeC1ERKS_PKci) refers to aeabi_vec_new_cookie.o(i.__aeabi_vec_new_cookie) for __aeabi_vec_new_cookie
    locale.o(i._ZNSt6localeC1ERKS_PKci) refers to vendor.o(i._ZN4__rw15__rw_locale_imp13_C_parse_nameERNS_18__rw_locale_vectorISsEEPKc) for __rw::__rw_locale_imp::_C_parse_name(__rw::__rw_locale_vector<std::basic_string<char, std::char_traits<char>, std::allocator<char>>>&, const char*)
    locale.o(i._ZNSt6localeC1ERKS_PKci) refers to locale.o(t._ZNSsaSEPKc) for std::basic_string<char, std::char_traits<char>, std::allocator<char>>::operator =(const char*)
    locale.o(i._ZNSt6localeC1ERKS_PKci) refers to ios.o(t._ZN4__rw18__rw_locale_vectorISsED1Ev) for __rw::__rw_locale_vector<std::basic_string<char, std::char_traits<char>, std::allocator<char>>>::~__rw_locale_vector()
    locale.o(i._ZNSt6localeC1ERKS_PKci) refers to ios.o(t._ZNSsD1Ev) for std::basic_string<char, std::char_traits<char>, std::allocator<char>>::~basic_string()
    locale.o(i._ZNSt6localeC1ERKS_PKci) refers to locale.o(i.<Func5>) for <Func5>
    locale.o(i._ZNSt6localeC1ERKS_PKci.clean) refers to delete.o(i._ZdlPv) for operator delete (void*)
    locale.o(i._ZNSt6localeC1ERKS_PKci.clean) refers to arm_exceptions_cleanup.o(.emb_text) for __cxa_end_cleanup
    locale.o(i._ZNSt6localeC1ERKS_PKci.clean) refers to ios.o(t._ZN4__rw18__rw_locale_vectorISsED1Ev) for __rw::__rw_locale_vector<std::basic_string<char, std::char_traits<char>, std::allocator<char>>>::~__rw_locale_vector()
    locale.o(i._ZNSt6localeC1ERKS_S1_i) refers to new.o(i._Znwj) for operator new(unsigned)
    locale.o(i._ZNSt6localeC1ERKS_S1_i) refers to locale.o(i._ZN4__rw15__rw_locale_impC1ERKS0_PKcj) for __rw::__rw_locale_imp::__rw_locale_imp(const __rw::__rw_locale_imp&, const char*, unsigned)
    locale.o(i._ZNSt6localeC1ERKS_S1_i) refers to vendor.o(i._ZN4__rw15__rw_locale_imp15_C_map_categoryEi) for __rw::__rw_locale_imp::_C_map_category(int)
    locale.o(i._ZNSt6localeC1ERKS_S1_i) refers to locale.o(t._ZNSsaSERKSs) for std::basic_string<char, std::char_traits<char>, std::allocator<char>>::operator =(const std::basic_string<char, std::char_traits<char>, std::allocator<char>>&)
    locale.o(i._ZNSt6localeC1ERKS_S1_i) refers to locale.o(i._ZNSt6locale16_C_remove_facetsEi) for std::locale::_C_remove_facets(int)
    locale.o(i._ZNSt6localeC1ERKS_S1_i.clean) refers to delete.o(i._ZdlPv) for operator delete (void*)
    locale.o(i._ZNSt6localeC1ERKS_S1_i.clean) refers to arm_exceptions_cleanup.o(.emb_text) for __cxa_end_cleanup
    locale.o(i._ZNSt6localeaSERKS_) refers to ios.o(i._ZN4__rw15__rw_locale_impD1Ev) for __rw::__rw_locale_imp::~__rw_locale_imp()
    locale.o(i._ZNSt6localeaSERKS_) refers to delete.o(i._ZdlPv) for operator delete (void*)
    locale.o(i.__sti___10_locale_cpp_ff99fc7b) refers to locale.o(.data) for .data
    locale.o(.ARM.exidx) refers to locale.o(i.<Func5>) for i.<Func5>
    locale.o(.ARM.exidx) refers to unwind_pr0.o(.text) for __aeabi_unwind_cpp_pr0
    locale.o(.ARM.exidx) refers to locale.o(i._ZNSt6locale7_C_initEv) for i._ZNSt6locale7_C_initEv
    locale.o(.ARM.exidx) refers to unwind_pr0.o(.text) for __aeabi_unwind_cpp_pr0
    locale.o(.ARM.exidx) refers to locale.o(.ARM.extab) for .extab._ZNSt6locale7_C_initEv
    locale.o(.ARM.exidx) refers to locale.o(i._ZNSt6locale7_C_initEv.clean) for i._ZNSt6locale7_C_initEv.clean
    locale.o(.ARM.exidx) refers to locale.o(i._ZNSt6localeC1EPKc) for i._ZNSt6localeC1EPKc
    locale.o(.ARM.exidx) refers to unwind_pr0.o(.text) for __aeabi_unwind_cpp_pr0
    locale.o(.ARM.exidx) refers to locale.o(.ARM.extab) for .extab._ZNSt6localeC1EPKc
    locale.o(.ARM.exidx) refers to locale.o(i._ZNSt6localeC1EPKc.clean) for i._ZNSt6localeC1EPKc.clean
    locale.o(.ARM.exidx) refers to locale.o(i._ZNSt6localeC1ERKS_PKci) for i._ZNSt6localeC1ERKS_PKci
    locale.o(.ARM.exidx) refers to unwind_pr0.o(.text) for __aeabi_unwind_cpp_pr0
    locale.o(.ARM.exidx) refers to locale.o(.ARM.extab) for .extab._ZNSt6localeC1ERKS_PKci
    locale.o(.ARM.exidx) refers to locale.o(i._ZNSt6localeC1ERKS_PKci.clean) for i._ZNSt6localeC1ERKS_PKci.clean
    locale.o(.ARM.exidx) refers to locale.o(i._ZNSt6localeC1ERKS_S1_i) for i._ZNSt6localeC1ERKS_S1_i
    locale.o(.ARM.exidx) refers to unwind_pr0.o(.text) for __aeabi_unwind_cpp_pr0
    locale.o(.ARM.exidx) refers to locale.o(.ARM.extab) for .extab._ZNSt6localeC1ERKS_S1_i
    locale.o(.ARM.exidx) refers to locale.o(i._ZNSt6localeC1ERKS_S1_i.clean) for i._ZNSt6localeC1ERKS_S1_i.clean
    locale.o(.ARM.exidx) refers to locale.o(i._ZNSt6localeaSERKS_) for i._ZNSt6localeaSERKS_
    locale.o(.ARM.exidx) refers to locale.o(i._ZNKSt6locale4nameEv) for i._ZNKSt6locale4nameEv
    locale.o(.ARM.exidx) refers to unwind_pr0.o(.text) for __aeabi_unwind_cpp_pr0
    locale.o(.ARM.exidx) refers to locale.o(i._ZNSt6locale6globalERKS_) for i._ZNSt6locale6globalERKS_
    locale.o(.ARM.exidx) refers to unwind_pr0.o(.text) for __aeabi_unwind_cpp_pr0
    locale.o(.ARM.exidx) refers to locale.o(.ARM.extab) for .extab._ZNSt6locale6globalERKS_
    locale.o(.ARM.exidx) refers to locale.o(i._ZNSt6locale6globalERKS_.clean) for i._ZNSt6locale6globalERKS_.clean
    locale.o(.ARM.exidx) refers to locale.o(i._ZNSt6locale7classicEv) for i._ZNSt6locale7classicEv
    locale.o(.ARM.exidx) refers to unwind_pr0.o(.text) for __aeabi_unwind_cpp_pr0
    locale.o(.ARM.exidx) refers to locale.o(.ARM.extab) for .extab._ZNSt6locale7classicEv
    locale.o(.ARM.exidx) refers to locale.o(i._ZNSt6locale7classicEv.clean) for i._ZNSt6locale7classicEv.clean
    locale.o(.ARM.exidx) refers to locale.o(i._ZNKSt6locale16_C_install_facetEPN4__rw15__rw_facet_baseERKNS_2idE) for i._ZNKSt6locale16_C_install_facetEPN4__rw15__rw_facet_baseERKNS_2idE
    locale.o(.ARM.exidx) refers to unwind_pr0.o(.text) for __aeabi_unwind_cpp_pr0
    locale.o(.ARM.exidx) refers to locale.o(i._ZNKSt6locale13_C_make_facetERKNS_2idEbiPFPN4__rw15__rw_facet_baseEiPKcjE) for i._ZNKSt6locale13_C_make_facetERKNS_2idEbiPFPN4__rw15__rw_facet_baseEiPKcjE
    locale.o(.ARM.exidx) refers to unwind_pr0.o(.text) for __aeabi_unwind_cpp_pr0
    locale.o(.ARM.exidx) refers to locale.o(.ARM.extab) for .extab._ZNKSt6locale13_C_make_facetERKNS_2idEbiPFPN4__rw15__rw_facet_baseEiPKcjE
    locale.o(.ARM.exidx) refers to locale.o(i._ZNKSt6locale13_C_make_facetERKNS_2idEbiPFPN4__rw15__rw_facet_baseEiPKcjE.clean) for i._ZNKSt6locale13_C_make_facetERKNS_2idEbiPFPN4__rw15__rw_facet_baseEiPKcjE.clean
    locale.o(.ARM.exidx) refers to locale.o(i._ZNKSt14codecvt_bynameIwcSt11__mbstate_tE6do_outERS0_PKwS4_RS4_PcS6_RS6_) for i._ZNKSt14codecvt_bynameIwcSt11__mbstate_tE6do_outERS0_PKwS4_RS4_PcS6_RS6_
    locale.o(.ARM.exidx) refers to unwind_pr0.o(.text) for __aeabi_unwind_cpp_pr0
    locale.o(.ARM.exidx) refers to locale.o(i._ZNKSt14codecvt_bynameIwcSt11__mbstate_tE5do_inERS0_PKcS4_RS4_PwS6_RS6_) for i._ZNKSt14codecvt_bynameIwcSt11__mbstate_tE5do_inERS0_PKcS4_RS4_PwS6_RS6_
    locale.o(.ARM.exidx) refers to unwind_pr0.o(.text) for __aeabi_unwind_cpp_pr0
    locale.o(.ARM.exidx) refers to locale.o(i._ZN4__rw21__rw_use_c_lib_localeC1EPKci) for i._ZN4__rw21__rw_use_c_lib_localeC1EPKci
    locale.o(.ARM.exidx) refers to unwind_pr0.o(.text) for __aeabi_unwind_cpp_pr0
    locale.o(.ARM.exidx) refers to locale.o(i._ZN4__rw23__rw_numpunct_impl_base18_C_get_named_init_EPKc) for i._ZN4__rw23__rw_numpunct_impl_base18_C_get_named_init_EPKc
    locale.o(.ARM.exidx) refers to unwind_pr0.o(.text) for __aeabi_unwind_cpp_pr0
    locale.o(.ARM.exidx) refers to locale.o(.ARM.extab) for .extab._ZN4__rw23__rw_numpunct_impl_base18_C_get_named_init_EPKc
    locale.o(.ARM.exidx) refers to locale.o(i._ZN4__rw23__rw_numpunct_impl_base18_C_get_named_init_EPKc.clean) for i._ZN4__rw23__rw_numpunct_impl_base18_C_get_named_init_EPKc.clean
    locale.o(.ARM.exidx) refers to locale.o(i.__sti___10_locale_cpp_ff99fc7b) for i.__sti___10_locale_cpp_ff99fc7b
    locale.o(.ARM.extab) refers to locale.o(i._ZNSt6locale7_C_initEv.clean) for i._ZNSt6locale7_C_initEv.clean
    locale.o(.ARM.extab) refers to locale.o(i._ZNSt6locale7_C_initEv) for i._ZNSt6locale7_C_initEv
    locale.o(.ARM.extab) refers to locale.o(i._ZNSt6localeC1EPKc.clean) for i._ZNSt6localeC1EPKc.clean
    locale.o(.ARM.extab) refers to locale.o(i._ZNSt6localeC1ERKS_PKci.clean) for i._ZNSt6localeC1ERKS_PKci.clean
    locale.o(.ARM.extab) refers to locale.o(i._ZNSt6localeC1ERKS_S1_i.clean) for i._ZNSt6localeC1ERKS_S1_i.clean
    locale.o(.ARM.extab) refers to locale.o(i._ZNSt6locale6globalERKS_.clean) for i._ZNSt6locale6globalERKS_.clean
    locale.o(.ARM.extab) refers to locale.o(i._ZNSt6locale7classicEv.clean) for i._ZNSt6locale7classicEv.clean
    locale.o(.ARM.extab) refers to locale.o(i._ZNKSt6locale13_C_make_facetERKNS_2idEbiPFPN4__rw15__rw_facet_baseEiPKcjE.clean) for i._ZNKSt6locale13_C_make_facetERKNS_2idEbiPFPN4__rw15__rw_facet_baseEiPKcjE.clean
    locale.o(.ARM.extab) refers to locale.o(i._ZN4__rw23__rw_numpunct_impl_base18_C_get_named_init_EPKc.clean) for i._ZN4__rw23__rw_numpunct_impl_base18_C_get_named_init_EPKc.clean
    locale.o(.init_array) refers to locale.o(i.__sti___10_locale_cpp_ff99fc7b) for __sti___10_locale_cpp_ff99fc7b
    locale.o(.init_array) refers to init_aeabi.o(.text) for __cpp_initialize__aeabi_
    messages.o(i._ZNKSt18__rw_messages_base11_C_cat_openERKSsRKSt6locale) refers to locale.o(i._ZN4__rw21__rw_use_c_lib_localeC1EPKci) for __rw::__rw_use_c_lib_locale::__rw_use_c_lib_locale(const char*, int)
    messages.o(i._ZNKSt18__rw_messages_base11_C_cat_openERKSsRKSt6locale) refers to rwcats.o(i._Z7catopenPKci) for catopen(const char*, int)
    messages.o(i._ZNKSt18__rw_messages_base11_C_cat_openERKSsRKSt6locale) refers to messages.o(i._ZSt13__rw_get_catsv) for std::__rw_get_cats()
    messages.o(i._ZNKSt18__rw_messages_base11_C_cat_openERKSsRKSt6locale) refers to messages.o(t._ZN4__rw18__rw_locale_vectorISt18__rw_open_cat_dataE6resizeEj) for __rw::__rw_locale_vector<std::__rw_open_cat_data>::resize(unsigned)
    messages.o(i._ZNKSt18__rw_messages_base11_C_cat_openERKSsRKSt6locale) refers to char.o(i._ZN4__rw21__rw_use_c_lib_localeD1Ev) for __rw::__rw_use_c_lib_locale::~__rw_use_c_lib_locale()
    messages.o(i._ZNKSt18__rw_messages_base11_C_cat_openERKSsRKSt6locale) refers to locale.o(i._ZNSt6localeaSERKS_) for std::locale::operator =(const std::locale&)
    messages.o(i._ZNKSt18__rw_messages_base11_C_cat_openERKSsRKSt6locale.clean) refers to char.o(i._ZN4__rw21__rw_use_c_lib_localeD1Ev) for __rw::__rw_use_c_lib_locale::~__rw_use_c_lib_locale()
    messages.o(i._ZNKSt18__rw_messages_base11_C_cat_openERKSsRKSt6locale.clean) refers to arm_exceptions_cleanup.o(.emb_text) for __cxa_end_cleanup
    messages.o(i._ZNKSt18__rw_messages_base12_C_cat_closeEi) refers to messages.o(i._ZSt13__rw_get_catsv) for std::__rw_get_cats()
    messages.o(i._ZNKSt18__rw_messages_base12_C_cat_closeEi) refers to rwcats.o(i._Z8catclosePN4__rw8__rw_catE) for catclose(__rw::__rw_cat*)
    messages.o(i._ZNKSt18__rw_messages_base12_C_cat_closeEi) refers to locale.o(i._ZNSt6locale7classicEv) for std::locale::classic()
    messages.o(i._ZNKSt18__rw_messages_base12_C_cat_closeEi) refers to locale.o(i._ZNSt6localeaSERKS_) for std::locale::operator =(const std::locale&)
    messages.o(i._ZNKSt18__rw_messages_base13_C_get_localeEi) refers to messages.o(i._ZSt13__rw_get_catsv) for std::__rw_get_cats()
    messages.o(i._ZNKSt18__rw_messages_base13_C_get_localeEi) refers to locale.o(i._ZNSt6locale7classicEv) for std::locale::classic()
    messages.o(i._ZNKSt18__rw_messages_base14_C_get_messageEiii) refers to messages.o(i._ZSt13__rw_get_catsv) for std::__rw_get_cats()
    messages.o(i._ZNKSt18__rw_messages_base14_C_get_messageEiii) refers to rwcats.o(i._Z7catgetsPN4__rw8__rw_catEiiPKc) for catgets(__rw::__rw_cat*, int, int, const char*)
    messages.o(i._ZNSt18__rw_messages_base18_C_get_locale_nameEPKc) refers to locale.o(i._ZN4__rw21__rw_use_c_lib_localeC1EPKci) for __rw::__rw_use_c_lib_locale::__rw_use_c_lib_locale(const char*, int)
    messages.o(i._ZNSt18__rw_messages_base18_C_get_locale_nameEPKc) refers to locale.o(.text) for setlocale
    messages.o(i._ZNSt18__rw_messages_base18_C_get_locale_nameEPKc) refers to strlen.o(.text) for strlen
    messages.o(i._ZNSt18__rw_messages_base18_C_get_locale_nameEPKc) refers to locale.o(t._ZNSs11_C_allocateEjjj) for std::basic_string<char, std::char_traits<char>, std::allocator<char>>::_C_allocate(unsigned, unsigned, unsigned)
    messages.o(i._ZNSt18__rw_messages_base18_C_get_locale_nameEPKc) refers to test.o(i._ZNSt11char_traitsIcE4copyEPcPKcj) for std::char_traits<char>::copy(char*, const char*, unsigned)
    messages.o(i._ZNSt18__rw_messages_base18_C_get_locale_nameEPKc) refers to char.o(i._ZN4__rw21__rw_use_c_lib_localeD1Ev) for __rw::__rw_use_c_lib_locale::~__rw_use_c_lib_locale()
    messages.o(i._ZNSt18__rw_messages_base18_C_get_locale_nameEPKc) refers to vendor.o(.bss__ZNSs9__nullrefE) for std::basic_string<char, std::char_traits<char>, std::allocator<char>>::__nullref
    messages.o(i._ZNSt18__rw_messages_base18_C_get_locale_nameEPKc.clean) refers to char.o(i._ZN4__rw21__rw_use_c_lib_localeD1Ev) for __rw::__rw_use_c_lib_locale::~__rw_use_c_lib_locale()
    messages.o(i._ZNSt18__rw_messages_base18_C_get_locale_nameEPKc.clean) refers to arm_exceptions_cleanup.o(.emb_text) for __cxa_end_cleanup
    messages.o(.ARM.exidx) refers to messages.o(i._ZNKSt18__rw_messages_base11_C_cat_openERKSsRKSt6locale) for i._ZNKSt18__rw_messages_base11_C_cat_openERKSsRKSt6locale
    messages.o(.ARM.exidx) refers to unwind_pr0.o(.text) for __aeabi_unwind_cpp_pr0
    messages.o(.ARM.exidx) refers to messages.o(.ARM.extab) for .extab._ZNKSt18__rw_messages_base11_C_cat_openERKSsRKSt6locale
    messages.o(.ARM.exidx) refers to messages.o(i._ZNKSt18__rw_messages_base11_C_cat_openERKSsRKSt6locale.clean) for i._ZNKSt18__rw_messages_base11_C_cat_openERKSsRKSt6locale.clean
    messages.o(.ARM.exidx) refers to messages.o(i._ZNKSt18__rw_messages_base14_C_get_messageEiii) for i._ZNKSt18__rw_messages_base14_C_get_messageEiii
    messages.o(.ARM.exidx) refers to unwind_pr0.o(.text) for __aeabi_unwind_cpp_pr0
    messages.o(.ARM.exidx) refers to messages.o(i._ZNKSt18__rw_messages_base13_C_get_localeEi) for i._ZNKSt18__rw_messages_base13_C_get_localeEi
    messages.o(.ARM.exidx) refers to unwind_pr0.o(.text) for __aeabi_unwind_cpp_pr0
    messages.o(.ARM.exidx) refers to messages.o(i._ZNKSt18__rw_messages_base12_C_cat_closeEi) for i._ZNKSt18__rw_messages_base12_C_cat_closeEi
    messages.o(.ARM.exidx) refers to unwind_pr0.o(.text) for __aeabi_unwind_cpp_pr0
    messages.o(.ARM.exidx) refers to messages.o(i._ZNSt18__rw_messages_base18_C_get_locale_nameEPKc) for i._ZNSt18__rw_messages_base18_C_get_locale_nameEPKc
    messages.o(.ARM.exidx) refers to unwind_pr0.o(.text) for __aeabi_unwind_cpp_pr0
    messages.o(.ARM.exidx) refers to messages.o(.ARM.extab) for .extab._ZNSt18__rw_messages_base18_C_get_locale_nameEPKc
    messages.o(.ARM.exidx) refers to messages.o(i._ZNSt18__rw_messages_base18_C_get_locale_nameEPKc.clean) for i._ZNSt18__rw_messages_base18_C_get_locale_nameEPKc.clean
    messages.o(.ARM.extab) refers to messages.o(i._ZNKSt18__rw_messages_base11_C_cat_openERKSsRKSt6locale.clean) for i._ZNKSt18__rw_messages_base11_C_cat_openERKSsRKSt6locale.clean
    messages.o(.ARM.extab) refers to messages.o(i._ZNSt18__rw_messages_base18_C_get_locale_nameEPKc.clean) for i._ZNSt18__rw_messages_base18_C_get_locale_nameEPKc.clean
    rwthrowproc_noex.o(.data) refers to rwthrowproc_impl_noex.o(i._ZN4__rw25__rw_throw_exception_noexEiPc) for __rw::__rw_throw_exception_noex(int, char*)
    array_del.o(i._ZdaPv) refers to delete.o(i._ZdlPv) for operator delete (void*)
    array_del.o(.ARM.exidx) refers to array_del.o(i._ZdaPv) for i._ZdaPv
    array_new.o(i._Znaj) refers to new.o(i._Znwj) for operator new(unsigned)
    array_new.o(.ARM.exidx) refers to array_new.o(i._Znaj) for i._Znaj
    array_new.o(.ARM.exidx) refers to unwind_pr0.o(.text) for __aeabi_unwind_cpp_pr0
    array_new.o(.ARM.exidx) refers to array_new.o(.ARM.extab) for .extab._Znaj
    array_new.o(.ARM.extab) refers to arm_callunex_noexceptions.o(.text) for __cxa_call_unexpected
    array_new.o(.ARM.extab) refers to bad_alloc_dtor.o(.constdata__ZTISt9bad_alloc) for typeinfo for std::bad_alloc
    new.o(i._Znwj) refers to rt_new_handler_addr_intlibspace.o(.text) for __rt_new_handler_addr
    new.o(i._Znwj) refers to h1_alloc.o(.text) for malloc
    new.o(i._Znwj) refers to arm_newhandler_noexceptions.o(.text) for __default_new_handler()
    new.o(.ARM.exidx) refers to new.o(i._Znwj) for i._Znwj
    new.o(.ARM.exidx) refers to unwind_pr0.o(.text) for __aeabi_unwind_cpp_pr0
    new.o(.ARM.exidx) refers to new.o(.ARM.extab) for .extab._Znwj
    new.o(.ARM.extab) refers to arm_callunex_noexceptions.o(.text) for __cxa_call_unexpected
    new.o(.ARM.extab) refers to bad_alloc_dtor.o(.constdata__ZTISt9bad_alloc) for typeinfo for std::bad_alloc
    arm_begincatch_noexceptions.o(.ARM.exidx) refers to arm_begincatch_noexceptions.o(.text) for .text
    arm_callunex_noexceptions.o(.ARM.exidx) refers to arm_callunex_noexceptions.o(.text) for .text
    arm_endcatch_noexceptions.o(.ARM.exidx) refers to arm_endcatch_noexceptions.o(.text) for .text
    arm_rethrow_noexceptions.o(.ARM.exidx) refers to arm_rethrow_noexceptions.o(.text) for .text
    cxa_guard_acquire.o(.ARM.exidx) refers to cxa_guard_acquire.o(i.__cxa_guard_acquire) for i.__cxa_guard_acquire
    cxa_guard_release.o(.ARM.exidx) refers to cxa_guard_release.o(i.__cxa_guard_release) for i.__cxa_guard_release
    cxa_throw_bad_array_new_length.o(.ARM.exidx) refers to cxa_throw_bad_array_new_length.o(i.__cxa_throw_bad_array_new_length) for i.__cxa_throw_bad_array_new_length
    exception_ctor.o(i._ZNSt9exceptionC1Ev) refers to exception_dtor.o(.constdata__ZTVSt9exception) for vtable for std::exception
    exception_ctor.o(.ARM.exidx) refers to exception_ctor.o(i._ZNSt9exceptionC1Ev) for i._ZNSt9exceptionC1Ev
    exception_dtor.o(i._ZNSt9exceptionD0Ev) refers to delete.o(i._ZdlPv) for operator delete (void*)
    exception_dtor.o(.ARM.exidx) refers to exception_dtor.o(i._ZNSt9exceptionD1Ev) for i._ZNSt9exceptionD1Ev
    exception_dtor.o(.ARM.exidx) refers to exception_dtor.o(i._ZNSt9exceptionD0Ev) for i._ZNSt9exceptionD0Ev
    type_info_dtor.o(.ARM.exidx) refers to type_info_dtor.o(i._ZNSt9type_infoD1Ev) for i._ZNSt9type_infoD1Ev
    type_info_dtor.o(.ARM.exidx) refers to type_info_dtor.o(i._ZNSt9type_infoD0Ev) for i._ZNSt9type_infoD0Ev
    aeabi_vec_delete_noexceptions.o(.text) refers to aeabi_vec_dtor_cookie.o(i.__aeabi_vec_dtor_cookie) for __aeabi_vec_dtor_cookie
    aeabi_vec_delete_noexceptions.o(.text) refers to array_del.o(i._ZdaPv) for operator delete[] (void*)
    aeabi_vec_delete_noexceptions.o(.ARM.exidx) refers to aeabi_vec_delete_noexceptions.o(.text) for .text
    arm_exceptions_cleanup.o(.emb_text) refers to arm_exceptions_cleanup.o(.text) for __ARM_cxa_end_cleanup
    arm_exceptions_cleanup.o(.emb_text) refers (Weak) to unwinder.o(.emb_text) for _Unwind_Resume
    arm_exceptions_cleanup.o(.ARM.exidx) refers to arm_exceptions_cleanup.o(.emb_text) for __cxa_end_cleanup
    arm_exceptions_cleanup.o(.text) refers to arm_exceptions_globs.o(.text) for __cxa_get_globals
    arm_exceptions_cleanup.o(.text) refers to arm_exceptions_support.o(.text) for __ARM::is_foreign_exception(_Unwind_Control_Block*)
    arm_exceptions_cleanup.o(.text) refers to arm_exceptions_foreign.o(.text) for __ARM::get_foreign_intermediary(__cxa_exception*, _Unwind_Control_Block*)
    arm_exceptions_cleanup.o(.text) refers to arm_exceptions_terminate.o(.text) for std::terminate()
    arm_exceptions_cleanup.o(.text) refers to arm_exceptions_free.o(.text) for __cxa_free_exception
    arm_exceptions_cleanup.o(.ARM.exidx) refers to arm_exceptions_cleanup.o(.text) for .text
    arm_exceptions_callterm.o(.text) refers to arm_exceptions_globs.o(.text) for __cxa_get_globals
    arm_exceptions_callterm.o(.text) refers to arm_exceptions_support.o(.text) for __ARM::is_foreign_exception(_Unwind_Control_Block*)
    arm_exceptions_callterm.o(.text) refers to arm_exceptions_terminate.o(.text) for std::terminate()
    arm_exceptions_callterm.o(.ARM.exidx) refers to arm_exceptions_callterm.o(.text) for .text
    unwind_pr1.o(.text) refers to unwind_prcommon.o(.text) for __ARM_unwind_cpp_prcommon
    unwind_pr1.o(.ARM.exidx) refers to unwind_pr1.o(.text) for .text
    unwind_pr0.o(.text) refers to unwind_prcommon.o(.text) for __ARM_unwind_cpp_prcommon
    unwind_pr0.o(.ARM.exidx) refers to unwind_pr0.o(.text) for .text
    sys_io.o(.text) refers (Special) to use_no_semi.o(.text) for __I$use$semihosting
    sys_io.o(.text) refers (Special) to indicate_semi.o(.text) for __semihosting_library_function
    sys_io.o(.text) refers to strlen.o(.text) for strlen
    sys_io.o(.constdata) refers (Special) to use_no_semi.o(.text) for __I$use$semihosting
    sys_io.o(.constdata) refers (Special) to indicate_semi.o(.text) for __semihosting_library_function
    sys_io.o(.constdata) refers (Special) to use_no_semi.o(.text) for __I$use$semihosting
    sys_io.o(.constdata) refers (Special) to indicate_semi.o(.text) for __semihosting_library_function
    sys_io.o(.constdata) refers (Special) to use_no_semi.o(.text) for __I$use$semihosting
    sys_io.o(.constdata) refers (Special) to indicate_semi.o(.text) for __semihosting_library_function
    libspace.o(.text) refers to libspace.o(.bss) for __libspace_start
    __rtentry2.o(.ARM.Collect$$rtentry$$00000008) refers to boardinit2.o(.text) for _platform_post_stackheap_init
    __rtentry2.o(.ARM.Collect$$rtentry$$0000000A) refers to libinit.o(.ARM.Collect$$libinit$$00000000) for __rt_lib_init
    __rtentry2.o(.ARM.Collect$$rtentry$$0000000B) refers to boardinit3.o(.text) for _platform_post_lib_init
    __rtentry2.o(.ARM.Collect$$rtentry$$0000000D) refers to main.o(.text) for main
    __rtentry2.o(.ARM.Collect$$rtentry$$0000000D) refers to exit.o(.text) for exit
    __rtentry2.o(.ARM.exidx) refers to __rtentry2.o(.ARM.Collect$$rtentry$$00000001) for .ARM.Collect$$rtentry$$00000001
    __rtentry2.o(.ARM.exidx) refers to __rtentry2.o(.ARM.Collect$$rtentry$$00000008) for .ARM.Collect$$rtentry$$00000008
    __rtentry2.o(.ARM.exidx) refers to __rtentry2.o(.ARM.Collect$$rtentry$$0000000A) for .ARM.Collect$$rtentry$$0000000A
    __rtentry2.o(.ARM.exidx) refers to __rtentry2.o(.ARM.Collect$$rtentry$$0000000B) for .ARM.Collect$$rtentry$$0000000B
    __rtentry2.o(.ARM.exidx) refers to __rtentry2.o(.ARM.Collect$$rtentry$$0000000D) for .ARM.Collect$$rtentry$$0000000D
    __rtentry4.o(.ARM.Collect$$rtentry$$00000004) refers to sys_stackheap_outer.o(.text) for __user_setup_stackheap
    __rtentry4.o(.ARM.exidx) refers to __rtentry4.o(.ARM.Collect$$rtentry$$00000004) for .ARM.Collect$$rtentry$$00000004
    rt_ctype_table.o(.text) refers to rt_locale_intlibspace.o(.text) for __rt_locale
    rt_ctype_table.o(.text) refers to lc_ctype_c.o(locale$$code) for _get_lc_ctype
    rt_div0.o(.text) refers to defsig_fpe_outer.o(.text) for __rt_SIGFPE
    rt_heap_descriptor.o(.text) refers to rt_heap_descriptor.o(.bss) for __rt_heap_descriptor_data
    rt_heap_descriptor_intlibspace.o(.text) refers to libspace.o(.bss) for __libspace_start
    rt_new_handler_addr.o(.text) refers to rt_new_handler_addr.o(.bss) for __rt_new_handler_addr_data
    rt_new_handler_addr_intlibspace.o(.text) refers to libspace.o(.bss) for __libspace_start
    rt_errno_addr.o(.text) refers to rt_errno_addr.o(.bss) for __aeabi_errno_addr_data
    rt_errno_addr_intlibspace.o(.text) refers to libspace.o(.bss) for __libspace_start
    init_alloc.o(.text) refers (Special) to hguard.o(.text) for __heap$guard
    init_alloc.o(.text) refers (Special) to libinit2.o(.ARM.Collect$$libinit$$00000005) for __rt_lib_init_heap_2
    init_alloc.o(.text) refers (Special) to maybetermalloc1.o(.emb_text) for _maybe_terminate_alloc
    init_alloc.o(.text) refers to h1_extend.o(.text) for __Heap_ProvideMemory
    init_alloc.o(.text) refers to defsig_rtmem_outer.o(.text) for __rt_SIGRTMEM
    init_alloc.o(.text) refers to rt_heap_descriptor_intlibspace.o(.text) for __rt_heap_descriptor
    init_alloc.o(.text) refers to h1_init.o(.text) for __Heap_Initialize
    h1_init_mt.o(.text) refers to mutex_dummy.o(.text) for _mutex_initialize
    __printf.o(.text) refers to _printf_percent.o(.ARM.Collect$$_printf_percent$$00000000) for _printf_percent
    _printf_str.o(.text) refers (Special) to _printf_char.o(.text) for _printf_cs_common
    _printf_str.o(.text) refers (Weak) to _printf_pad.o(.text) for _printf_pre_padding
    _printf_str.o(.text) refers (Weak) to _printf_pad.o(.text) for _printf_post_padding
    _printf_dec.o(.text) refers (Weak) to _printf_truncate.o(.text) for _printf_truncate_signed
    _printf_dec.o(.text) refers (Weak) to _printf_truncate.o(.text) for _printf_truncate_unsigned
    _printf_dec.o(.text) refers to _printf_intcommon.o(.text) for _printf_int_common
    _printf_char_common.o(.text) refers to __printf_flags_ss_wp.o(.text) for __printf
    _printf_char_file.o(.text) refers to _printf_char_common.o(.text) for _printf_char_common
    _printf_char_file.o(.text) refers to board.o(i.ferror) for ferror
    _printf_char_file.o(.text) refers to board.o(i.fputc) for fputc
    _printf_wctomb.o(.text) refers (Special) to _printf_wchar.o(.text) for _printf_lcs_common
    _printf_wctomb.o(.text) refers to _wcrtomb.o(.text) for _wcrtomb
    _printf_wctomb.o(.text) refers (Weak) to _printf_pad.o(.text) for _printf_pre_padding
    _printf_wctomb.o(.text) refers (Weak) to _printf_pad.o(.text) for _printf_post_padding
    _printf_wctomb.o(.text) refers to _printf_wctomb.o(.constdata) for .constdata
    _printf_wctomb.o(.constdata) refers (Special) to _printf_wchar.o(.text) for _printf_lcs_common
    _printf_longlong_dec.o(.text) refers to lludiv10.o(.text) for _ll_udiv10
    _printf_longlong_dec.o(.text) refers to _printf_intcommon.o(.text) for _printf_int_common
    _printf_oct_ll.o(.text) refers to _printf_intcommon.o(.text) for _printf_int_common
    _printf_oct_int.o(.text) refers (Weak) to _printf_truncate.o(.text) for _printf_truncate_unsigned
    _printf_oct_int.o(.text) refers to _printf_intcommon.o(.text) for _printf_int_common
    _printf_oct_int_ll.o(.text) refers to _printf_intcommon.o(.text) for _printf_int_common
    _printf_oct_int_ll.o(.text) refers (Weak) to _printf_truncate.o(.text) for _printf_truncate_unsigned
    _printf_hex_ll.o(.text) refers to _printf_intcommon.o(.text) for _printf_int_common
    _printf_hex_ll.o(.text) refers to _printf_hex_ll.o(.constdata) for .constdata
    _printf_hex_int.o(.text) refers (Weak) to _printf_truncate.o(.text) for _printf_truncate_unsigned
    _printf_hex_int.o(.text) refers to _printf_intcommon.o(.text) for _printf_int_common
    _printf_hex_int.o(.text) refers to _printf_hex_int.o(.constdata) for .constdata
    _printf_hex_int_ll.o(.text) refers to _printf_intcommon.o(.text) for _printf_int_common
    _printf_hex_int_ll.o(.text) refers (Weak) to _printf_truncate.o(.text) for _printf_truncate_unsigned
    _printf_hex_int_ll.o(.text) refers to _printf_hex_int_ll.o(.constdata) for .constdata
    _printf_hex_ptr.o(.text) refers to _printf_intcommon.o(.text) for _printf_int_common
    _printf_hex_ptr.o(.text) refers to _printf_hex_ptr.o(.constdata) for .constdata
    _printf_hex_int_ptr.o(.text) refers to _printf_intcommon.o(.text) for _printf_int_common
    _printf_hex_int_ptr.o(.text) refers (Weak) to _printf_truncate.o(.text) for _printf_truncate_unsigned
    _printf_hex_int_ptr.o(.text) refers to _printf_hex_int_ptr.o(.constdata) for .constdata
    _printf_hex_ll_ptr.o(.text) refers to _printf_intcommon.o(.text) for _printf_int_common
    _printf_hex_ll_ptr.o(.text) refers to _printf_hex_ll_ptr.o(.constdata) for .constdata
    _printf_hex_int_ll_ptr.o(.text) refers to _printf_intcommon.o(.text) for _printf_int_common
    _printf_hex_int_ll_ptr.o(.text) refers (Weak) to _printf_truncate.o(.text) for _printf_truncate_unsigned
    _printf_hex_int_ll_ptr.o(.text) refers to _printf_hex_int_ll_ptr.o(.constdata) for .constdata
    __printf_flags.o(.text) refers to _printf_percent.o(.ARM.Collect$$_printf_percent$$00000000) for _printf_percent
    __printf_flags.o(.text) refers to __printf_flags.o(.constdata) for .constdata
    __printf_ss.o(.text) refers to _printf_percent.o(.ARM.Collect$$_printf_percent$$00000000) for _printf_percent
    __printf_flags_ss.o(.text) refers to _printf_percent.o(.ARM.Collect$$_printf_percent$$00000000) for _printf_percent
    __printf_flags_ss.o(.text) refers to __printf_flags_ss.o(.constdata) for .constdata
    __printf_wp.o(.text) refers to __printf_wp.o(i._is_digit) for _is_digit
    __printf_wp.o(.text) refers to _printf_percent.o(.ARM.Collect$$_printf_percent$$00000000) for _printf_percent
    __printf_flags_wp.o(.text) refers to __printf_wp.o(i._is_digit) for _is_digit
    __printf_flags_wp.o(.text) refers to _printf_percent.o(.ARM.Collect$$_printf_percent$$00000000) for _printf_percent
    __printf_flags_wp.o(.text) refers to __printf_flags_wp.o(.constdata) for .constdata
    __printf_ss_wp.o(.text) refers to __printf_wp.o(i._is_digit) for _is_digit
    __printf_ss_wp.o(.text) refers to _printf_percent.o(.ARM.Collect$$_printf_percent$$00000000) for _printf_percent
    __printf_flags_ss_wp.o(.text) refers to __printf_wp.o(i._is_digit) for _is_digit
    __printf_flags_ss_wp.o(.text) refers to _printf_percent.o(.ARM.Collect$$_printf_percent$$00000000) for _printf_percent
    __printf_flags_ss_wp.o(.text) refers to __printf_flags_ss_wp.o(.constdata) for .constdata
    _printf_c.o(.ARM.Collect$$_printf_percent$$00000013) refers (Weak) to _printf_char.o(.text) for _printf_char
    _printf_s.o(.ARM.Collect$$_printf_percent$$00000014) refers (Weak) to _printf_char.o(.text) for _printf_string
    _printf_n.o(.ARM.Collect$$_printf_percent$$00000001) refers (Weak) to _printf_charcount.o(.text) for _printf_charcount
    _printf_x.o(.ARM.Collect$$_printf_percent$$0000000C) refers (Weak) to _printf_hex_int_ll_ptr.o(.text) for _printf_int_hex
    _printf_p.o(.ARM.Collect$$_printf_percent$$00000002) refers (Weak) to _printf_hex_int_ll_ptr.o(.text) for _printf_hex_ptr
    _printf_o.o(.ARM.Collect$$_printf_percent$$0000000B) refers (Weak) to _printf_oct_int_ll.o(.text) for _printf_int_oct
    _printf_i.o(.ARM.Collect$$_printf_percent$$00000008) refers (Weak) to _printf_dec.o(.text) for _printf_int_dec
    _printf_d.o(.ARM.Collect$$_printf_percent$$00000009) refers (Weak) to _printf_dec.o(.text) for _printf_int_dec
    _printf_u.o(.ARM.Collect$$_printf_percent$$0000000A) refers (Weak) to _printf_dec.o(.text) for _printf_int_dec
    _printf_f.o(.ARM.Collect$$_printf_percent$$00000003) refers (Weak) to printf1.o(x$fpl$printf1) for _printf_fp_dec
    _printf_e.o(.ARM.Collect$$_printf_percent$$00000004) refers (Weak) to printf1.o(x$fpl$printf1) for _printf_fp_dec
    _printf_g.o(.ARM.Collect$$_printf_percent$$00000005) refers (Weak) to printf1.o(x$fpl$printf1) for _printf_fp_dec
    _printf_a.o(.ARM.Collect$$_printf_percent$$00000006) refers (Weak) to printf2.o(x$fpl$printf2) for _printf_fp_hex
    _printf_percent.o(.ARM.Collect$$_printf_percent$$00000000) refers (Special) to _printf_percent_end.o(.ARM.Collect$$_printf_percent$$00000017) for _printf_percent_end
    _printf_lli.o(.ARM.Collect$$_printf_percent$$0000000D) refers (Special) to _printf_ll.o(.ARM.Collect$$_printf_percent$$00000007) for _printf_ll
    _printf_lli.o(.ARM.Collect$$_printf_percent$$0000000D) refers (Weak) to _printf_longlong_dec.o(.text) for _printf_longlong_dec
    _printf_lld.o(.ARM.Collect$$_printf_percent$$0000000E) refers (Special) to _printf_ll.o(.ARM.Collect$$_printf_percent$$00000007) for _printf_ll
    _printf_lld.o(.ARM.Collect$$_printf_percent$$0000000E) refers (Weak) to _printf_longlong_dec.o(.text) for _printf_longlong_dec
    _printf_llu.o(.ARM.Collect$$_printf_percent$$0000000F) refers (Special) to _printf_ll.o(.ARM.Collect$$_printf_percent$$00000007) for _printf_ll
    _printf_llu.o(.ARM.Collect$$_printf_percent$$0000000F) refers (Weak) to _printf_longlong_dec.o(.text) for _printf_longlong_dec
    _printf_lc.o(.ARM.Collect$$_printf_percent$$00000015) refers (Special) to _printf_l.o(.ARM.Collect$$_printf_percent$$00000012) for _printf_l
    _printf_lc.o(.ARM.Collect$$_printf_percent$$00000015) refers (Weak) to _printf_wchar.o(.text) for _printf_wchar
    _printf_ls.o(.ARM.Collect$$_printf_percent$$00000016) refers (Special) to _printf_l.o(.ARM.Collect$$_printf_percent$$00000012) for _printf_l
    _printf_ls.o(.ARM.Collect$$_printf_percent$$00000016) refers (Weak) to _printf_wchar.o(.text) for _printf_wstring
    _printf_llo.o(.ARM.Collect$$_printf_percent$$00000010) refers (Special) to _printf_ll.o(.ARM.Collect$$_printf_percent$$00000007) for _printf_ll
    _printf_llo.o(.ARM.Collect$$_printf_percent$$00000010) refers (Weak) to _printf_oct_int_ll.o(.text) for _printf_ll_oct
    _printf_llx.o(.ARM.Collect$$_printf_percent$$00000011) refers (Special) to _printf_ll.o(.ARM.Collect$$_printf_percent$$00000007) for _printf_ll
    _printf_llx.o(.ARM.Collect$$_printf_percent$$00000011) refers (Weak) to _printf_hex_int_ll_ptr.o(.text) for _printf_ll_hex
    _scanf_longlong.o(.text) refers to _chval.o(.text) for _chval
    _scanf_int.o(.text) refers to _chval.o(.text) for _chval
    scanf_char.o(.text) refers to _scanf.o(.text) for __vfscanf
    scanf_char.o(.text) refers to isspace.o(.text) for isspace
    _scanf_mbtowc.o(.text) refers to _mbrtowc.o(.text) for _mbrtowc
    _scanf_wctomb.o(.text) refers to _wcrtomb.o(.text) for _wcrtomb
    _scanf_wctomb.o(.text) refers to _scanf_wcharmap.o(.text) for _scanf_wcharmap
    _scanf_wstr.o(.text) refers to _scanf_wcharmap.o(.text) for _scanf_wcharmap
    stdio.o(.text) refers to sys_io.o(.text) for _sys_seek
    streamlock.o(.data) refers (Special) to initio.o(.text) for _initio
    locale.o(.text) refers to locale_r.o(.text) for _setlocale_r
    locale.o(.text) refers to locale.o(.bss) for .bss
    localeconv.o(.text) refers to _lconv.o(.text) for _get_lconv
    localeconv.o(.text) refers to localeconv.o(.bss) for .bss
    mbrtowc.o(.text) refers to _mbrtowc.o(.text) for _mbrtowc
    mbrtowc.o(.text) refers to rt_errno_addr_intlibspace.o(.text) for __aeabi_errno_addr
    wcrtomb.o(.text) refers to _wcrtomb.o(.text) for _wcrtomb
    wcrtomb.o(.text) refers to rt_memcpy_v6.o(.text) for __aeabi_memcpy
    wcrtomb.o(.text) refers to rt_errno_addr_intlibspace.o(.text) for __aeabi_errno_addr
    _mbcurmax.o(.text) refers to rt_ctype_table.o(.text) for __rt_ctype_table
    defsig_abrt_outer.o(.text) refers to defsig_abrt_inner.o(.text) for __rt_SIGABRT_inner
    defsig_abrt_outer.o(.text) refers to defsig_exit.o(.text) for __sig_exit
    defsig_abrt_formal.o(.text) refers to rt_raise.o(.text) for __rt_raise
    strcoll.o(.text) refers (Special) to lc_collate_c.o(locale$$code) for _get_lc_collate
    strcoll.o(.text) refers to rt_locale_intlibspace.o(.text) for __rt_locale
    strcoll.o(.text) refers to strcmpv7m.o(.text) for strcmp
    strxfrm.o(.text) refers (Special) to lc_collate_c.o(locale$$code) for _get_lc_collate
    strxfrm.o(.text) refers to strlen.o(.text) for strlen
    strxfrm.o(.text) refers to rt_locale_intlibspace.o(.text) for __rt_locale
    memcpy.o(.text) refers to rt_memcpy_v6.o(.text) for __aeabi_memcpy
    memmove.o(.text) refers to rt_memmove_v6.o(.text) for __aeabi_memmove
    _get_argv.o(.text) refers (Special) to hrguard.o(.text) for __heap_region$guard
    _get_argv.o(.text) refers to h1_alloc.o(.text) for malloc
    _get_argv.o(.text) refers to defsig_rtmem_outer.o(.text) for __rt_SIGRTMEM
    _get_argv.o(.text) refers to sys_command.o(.text) for _sys_command_string
    argv_veneer.o(.emb_text) refers to no_argv.o(.text) for __ARM_get_argv
    libshutdown2.o(.ARM.Collect$$libshutdown$$00000001) refers (Weak) to cxa_finalize.o(.text) for __cxa_finalize
    libshutdown2.o(.ARM.Collect$$libshutdown$$00000003) refers (Weak) to initio.o(.text) for _terminateio
    libshutdown2.o(.ARM.Collect$$libshutdown$$0000000D) refers (Weak) to term_alloc.o(.text) for _terminate_alloc
    rwcats.o(i._Z7catgetsPN4__rw8__rw_catEiiPKc) refers to rwcats.o(i._ZN4__rw9__catfindEPNS_8__rw_catE) for __rw::__catfind(__rw::__rw_cat*)
    rwcats.o(i._Z7catgetsPN4__rw8__rw_catEiiPKc) refers to rwcats.o(.data) for .data
    rwcats.o(i._Z7catopenPKci) refers to new.o(i._Znwj) for operator new(unsigned)
    rwcats.o(i._Z7catopenPKci) refers to delete.o(i._ZdlPv) for operator delete (void*)
    rwcats.o(i._Z7catopenPKci.clean) refers to arm_exceptions_cleanup.o(.emb_text) for __cxa_end_cleanup
    rwcats.o(i._Z8catclosePN4__rw8__rw_catE) refers to rwcats.o(i._ZN4__rw9__catfindEPNS_8__rw_catE) for __rw::__catfind(__rw::__rw_cat*)
    rwcats.o(i._Z8catclosePN4__rw8__rw_catE) refers to delete.o(i._ZdlPv) for operator delete (void*)
    rwcats.o(i._Z8catclosePN4__rw8__rw_catE) refers to rwcats.o(.data) for .data
    rwcats.o(i._ZN4__rw9__catfindEPNS_8__rw_catE) refers to rwcats.o(.data) for .data
    rwcats.o(i.__sti___10_rwcats_cpp_64e8068e) refers to array_new.o(i._Znaj) for operator new[] (unsigned)
    rwcats.o(i.__sti___10_rwcats_cpp_64e8068e) refers to aeabi_atexit.o(.text) for __aeabi_atexit
    rwcats.o(i.__sti___10_rwcats_cpp_64e8068e) refers to rwcats.o(.data) for .data
    rwcats.o(i.__sti___10_rwcats_cpp_64e8068e) refers to rwcats.o(t._ZN4__rw18__rw_locale_vectorIPNS_8__rw_catEED1Ev) for __rw::__rw_locale_vector<__rw::__rw_cat*>::~__rw_locale_vector()
    rwcats.o(.ARM.exidx) refers to rwcats.o(i._Z7catopenPKci) for i._Z7catopenPKci
    rwcats.o(.ARM.exidx) refers to unwind_pr0.o(.text) for __aeabi_unwind_cpp_pr0
    rwcats.o(.ARM.exidx) refers to rwcats.o(.ARM.extab) for .extab._Z7catopenPKci
    rwcats.o(.ARM.exidx) refers to rwcats.o(i._Z7catopenPKci.clean) for i._Z7catopenPKci.clean
    rwcats.o(.ARM.exidx) refers to rwcats.o(i._ZN4__rw9__catfindEPNS_8__rw_catE) for i._ZN4__rw9__catfindEPNS_8__rw_catE
    rwcats.o(.ARM.exidx) refers to rwcats.o(i._Z7catgetsPN4__rw8__rw_catEiiPKc) for i._Z7catgetsPN4__rw8__rw_catEiiPKc
    rwcats.o(.ARM.exidx) refers to unwind_pr0.o(.text) for __aeabi_unwind_cpp_pr0
    rwcats.o(.ARM.exidx) refers to rwcats.o(.ARM.extab) for .extab._Z7catgetsPN4__rw8__rw_catEiiPKc
    rwcats.o(.ARM.exidx) refers to rwcats.o(i._Z8catclosePN4__rw8__rw_catE) for i._Z8catclosePN4__rw8__rw_catE
    rwcats.o(.ARM.exidx) refers to unwind_pr0.o(.text) for __aeabi_unwind_cpp_pr0
    rwcats.o(.ARM.exidx) refers to rwcats.o(i.__sti___10_rwcats_cpp_64e8068e) for i.__sti___10_rwcats_cpp_64e8068e
    rwcats.o(.ARM.exidx) refers to unwind_pr0.o(.text) for __aeabi_unwind_cpp_pr0
    rwcats.o(.ARM.extab) refers to rwcats.o(i._Z7catopenPKci) for i._Z7catopenPKci
    rwcats.o(.ARM.extab) refers to rwcats.o(i._Z7catgetsPN4__rw8__rw_catEiiPKc) for i._Z7catgetsPN4__rw8__rw_catEiiPKc
    rwcats.o(.init_array) refers to rwcats.o(i.__sti___10_rwcats_cpp_64e8068e) for __sti___10_rwcats_cpp_64e8068e
    rwcats.o(.init_array) refers to init_aeabi.o(.text) for __cpp_initialize__aeabi_
    rwthrowproc_impl_noex.o(i._ZN4__rw25__rw_throw_exception_noexEiPc) refers to fprintf.o(.text) for fprintf
    rwthrowproc_impl_noex.o(i._ZN4__rw25__rw_throw_exception_noexEiPc) refers to array_del.o(i._ZdaPv) for operator delete[] (void*)
    rwthrowproc_impl_noex.o(i._ZN4__rw25__rw_throw_exception_noexEiPc) refers to abort.o(.text) for abort
    rwthrowproc_impl_noex.o(i._ZN4__rw25__rw_throw_exception_noexEiPc) refers to board.o(.data) for __stderr
    rwthrowproc_impl_noex.o(i._ZN4__rw25__rw_throw_exception_noexEiPc) refers to stdio_streams.o(.bss) for __stderr
    rwthrowproc_impl_noex.o(.ARM.exidx) refers to rwthrowproc_impl_noex.o(i._ZN4__rw25__rw_throw_exception_noexEiPc) for i._ZN4__rw25__rw_throw_exception_noexEiPc
    vendor.o(i._ZN4__rw15__rw_locale_imp13_C_parse_nameERNS_18__rw_locale_vectorISsEEPKc) refers to locale.o(.text) for setlocale
    vendor.o(i._ZN4__rw15__rw_locale_imp13_C_parse_nameERNS_18__rw_locale_vectorISsEEPKc) refers to strlen.o(.text) for strlen
    vendor.o(i._ZN4__rw15__rw_locale_imp13_C_parse_nameERNS_18__rw_locale_vectorISsEEPKc) refers to locale.o(t._ZNSs11_C_allocateEjjj) for std::basic_string<char, std::char_traits<char>, std::allocator<char>>::_C_allocate(unsigned, unsigned, unsigned)
    vendor.o(i._ZN4__rw15__rw_locale_imp13_C_parse_nameERNS_18__rw_locale_vectorISsEEPKc) refers to test.o(i._ZNSt11char_traitsIcE4copyEPcPKcj) for std::char_traits<char>::copy(char*, const char*, unsigned)
    vendor.o(i._ZN4__rw15__rw_locale_imp13_C_parse_nameERNS_18__rw_locale_vectorISsEEPKc) refers to locale.o(t._ZNSsaSEPKc) for std::basic_string<char, std::char_traits<char>, std::allocator<char>>::operator =(const char*)
    vendor.o(i._ZN4__rw15__rw_locale_imp13_C_parse_nameERNS_18__rw_locale_vectorISsEEPKc) refers to ios.o(t._ZNSsD1Ev) for std::basic_string<char, std::char_traits<char>, std::allocator<char>>::~basic_string()
    vendor.o(i._ZN4__rw15__rw_locale_imp13_C_parse_nameERNS_18__rw_locale_vectorISsEEPKc) refers to vendor.o(.bss__ZNSs9__nullrefE) for std::basic_string<char, std::char_traits<char>, std::allocator<char>>::__nullref
    vendor.o(i._ZN4__rw15__rw_locale_imp13_C_parse_nameERNS_18__rw_locale_vectorISsEEPKc.clean) refers to ios.o(t._ZNSsD1Ev) for std::basic_string<char, std::char_traits<char>, std::allocator<char>>::~basic_string()
    vendor.o(i._ZN4__rw15__rw_locale_imp13_C_parse_nameERNS_18__rw_locale_vectorISsEEPKc.clean) refers to arm_exceptions_cleanup.o(.emb_text) for __cxa_end_cleanup
    vendor.o(i._ZN4__rw22__rw_digit_reader_base10_C_reallocERPcS1_Rj) refers to array_new.o(i._Znaj) for operator new[] (unsigned)
    vendor.o(i._ZN4__rw22__rw_digit_reader_base10_C_reallocERPcS1_Rj) refers to array_del.o(i._ZdaPv) for operator delete[] (void*)
    vendor.o(i._ZN4__rw22__rw_digit_reader_base10_C_reallocERPcS1_Rj) refers to arm_rethrow_noexceptions.o(.text) for __cxa_rethrow
    vendor.o(i._ZN4__rw22__rw_digit_reader_base10_C_reallocERPcS1_Rj.clean) refers to arm_exceptions_cleanup.o(.emb_text) for __cxa_end_cleanup
    vendor.o(i._ZN4__rw22__rw_digit_reader_base14_C_parse_floatEPKcS2_Pv) refers to vendor.o(i._ZN4__rw22__rw_digit_reader_base10_C_reallocERPcS1_Rj) for __rw::__rw_digit_reader_base::_C_realloc(char*&, char*, unsigned&)
    vendor.o(i._ZN4__rw22__rw_digit_reader_base14_C_parse_floatEPKcS2_Pv) refers to locale.o(i._ZN4__rw21__rw_use_c_lib_localeC1EPKci) for __rw::__rw_use_c_lib_locale::__rw_use_c_lib_locale(const char*, int)
    vendor.o(i._ZN4__rw22__rw_digit_reader_base14_C_parse_floatEPKcS2_Pv) refers to char.o(i._ZN4__rw21__rw_use_c_lib_localeD1Ev) for __rw::__rw_use_c_lib_locale::~__rw_use_c_lib_locale()
    vendor.o(i._ZN4__rw22__rw_digit_reader_base14_C_parse_floatEPKcS2_Pv) refers to sscanf.o(.text) for sscanf
    vendor.o(i._ZN4__rw22__rw_digit_reader_base14_C_parse_floatEPKcS2_Pv) refers to array_del.o(i._ZdaPv) for operator delete[] (void*)
    vendor.o(i._ZN4__rw22__rw_digit_reader_base14_C_parse_floatEPKcS2_Pv) refers to locale.o(.constdata) for __rw::__rw_digit_map_base::_C_digit_chars
    vendor.o(i._ZN4__rw22__rw_digit_reader_base8_C_parseEPKcPv) refers to vendor.o(i._ZN4__rw22__rw_digit_reader_base10_C_reallocERPcS1_Rj) for __rw::__rw_digit_reader_base::_C_realloc(char*&, char*, unsigned&)
    vendor.o(i._ZN4__rw22__rw_digit_reader_base8_C_parseEPKcPv) refers to sscanf.o(.text) for sscanf
    vendor.o(i._ZN4__rw22__rw_digit_reader_base8_C_parseEPKcPv) refers to array_del.o(i._ZdaPv) for operator delete[] (void*)
    vendor.o(i._ZN4__rw22__rw_digit_reader_base8_C_parseEPKcPv) refers to locale.o(.constdata) for __rw::__rw_digit_map_base::_C_digit_chars
    vendor.o(i._ZN4__rw22__rw_digit_reader_base8_C_parseEPKcm) refers to vendor.o(i._ZN4__rw22__rw_digit_reader_base16_C_parse_decimalEPKcS2_) for __rw::__rw_digit_reader_base::_C_parse_decimal(const char*, const char*)
    vendor.o(i._ZN4__rw22__rw_digit_reader_base8_C_parseEPKcy) refers to vendor.o(i._ZN4__rw22__rw_digit_reader_base10_C_reallocERPcS1_Rj) for __rw::__rw_digit_reader_base::_C_realloc(char*&, char*, unsigned&)
    vendor.o(i._ZN4__rw22__rw_digit_reader_base8_C_parseEPKcy) refers to strtoull.o(.text) for strtoull
    vendor.o(i._ZN4__rw22__rw_digit_reader_base8_C_parseEPKcy) refers to array_del.o(i._ZdaPv) for operator delete[] (void*)
    vendor.o(i._ZN4__rw22__rw_digit_writer_base11_C_digitizeEPKv) refers to sprintf.o(.text) for sprintf
    vendor.o(i._ZN4__rw22__rw_digit_writer_base11_C_digitizeEPKv) refers to rt_memmove_v6.o(.text) for __aeabi_memmove
    vendor.o(i._ZN4__rw22__rw_digit_writer_base11_C_digitizeEd) refers to _printf_pad.o(.text) for _printf_pre_padding
    vendor.o(i._ZN4__rw22__rw_digit_writer_base11_C_digitizeEd) refers to _printf_truncate.o(.text) for _printf_truncate_unsigned
    vendor.o(i._ZN4__rw22__rw_digit_writer_base11_C_digitizeEd) refers to _printf_percent.o(.ARM.Collect$$_printf_percent$$00000000) for _printf_percent
    vendor.o(i._ZN4__rw22__rw_digit_writer_base11_C_digitizeEd) refers to _printf_d.o(.ARM.Collect$$_printf_percent$$00000009) for _printf_d
    vendor.o(i._ZN4__rw22__rw_digit_writer_base11_C_digitizeEd) refers to _printf_i.o(.ARM.Collect$$_printf_percent$$00000008) for _printf_i
    vendor.o(i._ZN4__rw22__rw_digit_writer_base11_C_digitizeEd) refers to _printf_u.o(.ARM.Collect$$_printf_percent$$0000000A) for _printf_u
    vendor.o(i._ZN4__rw22__rw_digit_writer_base11_C_digitizeEd) refers to _printf_o.o(.ARM.Collect$$_printf_percent$$0000000B) for _printf_o
    vendor.o(i._ZN4__rw22__rw_digit_writer_base11_C_digitizeEd) refers to _printf_x.o(.ARM.Collect$$_printf_percent$$0000000C) for _printf_x
    vendor.o(i._ZN4__rw22__rw_digit_writer_base11_C_digitizeEd) refers to _printf_f.o(.ARM.Collect$$_printf_percent$$00000003) for _printf_f
    vendor.o(i._ZN4__rw22__rw_digit_writer_base11_C_digitizeEd) refers to _printf_e.o(.ARM.Collect$$_printf_percent$$00000004) for _printf_e
    vendor.o(i._ZN4__rw22__rw_digit_writer_base11_C_digitizeEd) refers to _printf_g.o(.ARM.Collect$$_printf_percent$$00000005) for _printf_g
    vendor.o(i._ZN4__rw22__rw_digit_writer_base11_C_digitizeEd) refers to _printf_c.o(.ARM.Collect$$_printf_percent$$00000013) for _printf_c
    vendor.o(i._ZN4__rw22__rw_digit_writer_base11_C_digitizeEd) refers to _printf_lc.o(.ARM.Collect$$_printf_percent$$00000015) for _printf_lc
    vendor.o(i._ZN4__rw22__rw_digit_writer_base11_C_digitizeEd) refers to _printf_a.o(.ARM.Collect$$_printf_percent$$00000006) for _printf_a
    vendor.o(i._ZN4__rw22__rw_digit_writer_base11_C_digitizeEd) refers to printf2.o(x$fpl$printf2) for _printf_fp_hex
    vendor.o(i._ZN4__rw22__rw_digit_writer_base11_C_digitizeEd) refers to _printf_dec.o(.text) for _printf_int_dec
    vendor.o(i._ZN4__rw22__rw_digit_writer_base11_C_digitizeEd) refers to _printf_oct_int_ll.o(.text) for _printf_longlong_oct
    vendor.o(i._ZN4__rw22__rw_digit_writer_base11_C_digitizeEd) refers to _printf_hex_int_ll_ptr.o(.text) for _printf_longlong_hex
    vendor.o(i._ZN4__rw22__rw_digit_writer_base11_C_digitizeEd) refers to printf1.o(x$fpl$printf1) for _printf_fp_dec
    vendor.o(i._ZN4__rw22__rw_digit_writer_base11_C_digitizeEd) refers to _printf_str.o(.text) for _printf_str
    vendor.o(i._ZN4__rw22__rw_digit_writer_base11_C_digitizeEd) refers to _printf_wctomb.o(.text) for _printf_wctomb
    vendor.o(i._ZN4__rw22__rw_digit_writer_base11_C_digitizeEd) refers to vendor.o(i._ZN4__rw22__rw_digit_writer_base16_C_get_f_patternEPcc) for __rw::__rw_digit_writer_base::_C_get_f_pattern(char*, char)
    vendor.o(i._ZN4__rw22__rw_digit_writer_base11_C_digitizeEd) refers to deqf.o(x$fpl$deqf) for __aeabi_cdcmpeq
    vendor.o(i._ZN4__rw22__rw_digit_writer_base11_C_digitizeEd) refers to dleqf.o(x$fpl$dleqf) for __aeabi_cdcmple
    vendor.o(i._ZN4__rw22__rw_digit_writer_base11_C_digitizeEd) refers to array_new.o(i._Znaj) for operator new[] (unsigned)
    vendor.o(i._ZN4__rw22__rw_digit_writer_base11_C_digitizeEd) refers to __2sprintf.o(.text) for __2sprintf
    vendor.o(i._ZN4__rw22__rw_digit_writer_base11_C_digitizeEe) refers to _printf_pad.o(.text) for _printf_pre_padding
    vendor.o(i._ZN4__rw22__rw_digit_writer_base11_C_digitizeEe) refers to _printf_truncate.o(.text) for _printf_truncate_unsigned
    vendor.o(i._ZN4__rw22__rw_digit_writer_base11_C_digitizeEe) refers to _printf_percent.o(.ARM.Collect$$_printf_percent$$00000000) for _printf_percent
    vendor.o(i._ZN4__rw22__rw_digit_writer_base11_C_digitizeEe) refers to _printf_d.o(.ARM.Collect$$_printf_percent$$00000009) for _printf_d
    vendor.o(i._ZN4__rw22__rw_digit_writer_base11_C_digitizeEe) refers to _printf_i.o(.ARM.Collect$$_printf_percent$$00000008) for _printf_i
    vendor.o(i._ZN4__rw22__rw_digit_writer_base11_C_digitizeEe) refers to _printf_u.o(.ARM.Collect$$_printf_percent$$0000000A) for _printf_u
    vendor.o(i._ZN4__rw22__rw_digit_writer_base11_C_digitizeEe) refers to _printf_o.o(.ARM.Collect$$_printf_percent$$0000000B) for _printf_o
    vendor.o(i._ZN4__rw22__rw_digit_writer_base11_C_digitizeEe) refers to _printf_x.o(.ARM.Collect$$_printf_percent$$0000000C) for _printf_x
    vendor.o(i._ZN4__rw22__rw_digit_writer_base11_C_digitizeEe) refers to _printf_f.o(.ARM.Collect$$_printf_percent$$00000003) for _printf_f
    vendor.o(i._ZN4__rw22__rw_digit_writer_base11_C_digitizeEe) refers to _printf_e.o(.ARM.Collect$$_printf_percent$$00000004) for _printf_e
    vendor.o(i._ZN4__rw22__rw_digit_writer_base11_C_digitizeEe) refers to _printf_g.o(.ARM.Collect$$_printf_percent$$00000005) for _printf_g
    vendor.o(i._ZN4__rw22__rw_digit_writer_base11_C_digitizeEe) refers to _printf_c.o(.ARM.Collect$$_printf_percent$$00000013) for _printf_c
    vendor.o(i._ZN4__rw22__rw_digit_writer_base11_C_digitizeEe) refers to _printf_lc.o(.ARM.Collect$$_printf_percent$$00000015) for _printf_lc
    vendor.o(i._ZN4__rw22__rw_digit_writer_base11_C_digitizeEe) refers to _printf_a.o(.ARM.Collect$$_printf_percent$$00000006) for _printf_a
    vendor.o(i._ZN4__rw22__rw_digit_writer_base11_C_digitizeEe) refers to printf2.o(x$fpl$printf2) for _printf_fp_hex
    vendor.o(i._ZN4__rw22__rw_digit_writer_base11_C_digitizeEe) refers to _printf_dec.o(.text) for _printf_int_dec
    vendor.o(i._ZN4__rw22__rw_digit_writer_base11_C_digitizeEe) refers to _printf_oct_int_ll.o(.text) for _printf_longlong_oct
    vendor.o(i._ZN4__rw22__rw_digit_writer_base11_C_digitizeEe) refers to _printf_hex_int_ll_ptr.o(.text) for _printf_longlong_hex
    vendor.o(i._ZN4__rw22__rw_digit_writer_base11_C_digitizeEe) refers to printf1.o(x$fpl$printf1) for _printf_fp_dec
    vendor.o(i._ZN4__rw22__rw_digit_writer_base11_C_digitizeEe) refers to _printf_str.o(.text) for _printf_str
    vendor.o(i._ZN4__rw22__rw_digit_writer_base11_C_digitizeEe) refers to _printf_wctomb.o(.text) for _printf_wctomb
    vendor.o(i._ZN4__rw22__rw_digit_writer_base11_C_digitizeEe) refers to vendor.o(i._ZN4__rw22__rw_digit_writer_base16_C_get_f_patternEPcc) for __rw::__rw_digit_writer_base::_C_get_f_pattern(char*, char)
    vendor.o(i._ZN4__rw22__rw_digit_writer_base11_C_digitizeEe) refers to deqf.o(x$fpl$deqf) for __aeabi_cdcmpeq
    vendor.o(i._ZN4__rw22__rw_digit_writer_base11_C_digitizeEe) refers to dleqf.o(x$fpl$dleqf) for __aeabi_cdcmple
    vendor.o(i._ZN4__rw22__rw_digit_writer_base11_C_digitizeEe) refers to array_new.o(i._Znaj) for operator new[] (unsigned)
    vendor.o(i._ZN4__rw22__rw_digit_writer_base11_C_digitizeEe) refers to __2sprintf.o(.text) for __2sprintf
    vendor.o(i._ZN4__rw22__rw_digit_writer_base11_C_digitizeEmbPKc) refers to _printf_pad.o(.text) for _printf_pre_padding
    vendor.o(i._ZN4__rw22__rw_digit_writer_base11_C_digitizeEmbPKc) refers to _printf_truncate.o(.text) for _printf_truncate_unsigned
    vendor.o(i._ZN4__rw22__rw_digit_writer_base11_C_digitizeEmbPKc) refers to _printf_percent.o(.ARM.Collect$$_printf_percent$$00000000) for _printf_percent
    vendor.o(i._ZN4__rw22__rw_digit_writer_base11_C_digitizeEmbPKc) refers to _printf_d.o(.ARM.Collect$$_printf_percent$$00000009) for _printf_d
    vendor.o(i._ZN4__rw22__rw_digit_writer_base11_C_digitizeEmbPKc) refers to _printf_i.o(.ARM.Collect$$_printf_percent$$00000008) for _printf_i
    vendor.o(i._ZN4__rw22__rw_digit_writer_base11_C_digitizeEmbPKc) refers to _printf_u.o(.ARM.Collect$$_printf_percent$$0000000A) for _printf_u
    vendor.o(i._ZN4__rw22__rw_digit_writer_base11_C_digitizeEmbPKc) refers to _printf_o.o(.ARM.Collect$$_printf_percent$$0000000B) for _printf_o
    vendor.o(i._ZN4__rw22__rw_digit_writer_base11_C_digitizeEmbPKc) refers to _printf_x.o(.ARM.Collect$$_printf_percent$$0000000C) for _printf_x
    vendor.o(i._ZN4__rw22__rw_digit_writer_base11_C_digitizeEmbPKc) refers to _printf_c.o(.ARM.Collect$$_printf_percent$$00000013) for _printf_c
    vendor.o(i._ZN4__rw22__rw_digit_writer_base11_C_digitizeEmbPKc) refers to _printf_lc.o(.ARM.Collect$$_printf_percent$$00000015) for _printf_lc
    vendor.o(i._ZN4__rw22__rw_digit_writer_base11_C_digitizeEmbPKc) refers to _printf_dec.o(.text) for _printf_int_dec
    vendor.o(i._ZN4__rw22__rw_digit_writer_base11_C_digitizeEmbPKc) refers to _printf_oct_int_ll.o(.text) for _printf_longlong_oct
    vendor.o(i._ZN4__rw22__rw_digit_writer_base11_C_digitizeEmbPKc) refers to _printf_hex_int_ll_ptr.o(.text) for _printf_longlong_hex
    vendor.o(i._ZN4__rw22__rw_digit_writer_base11_C_digitizeEmbPKc) refers to _printf_str.o(.text) for _printf_str
    vendor.o(i._ZN4__rw22__rw_digit_writer_base11_C_digitizeEmbPKc) refers to _printf_wctomb.o(.text) for _printf_wctomb
    vendor.o(i._ZN4__rw22__rw_digit_writer_base11_C_digitizeEmbPKc) refers to vendor.o(i._ZN4__rw22__rw_digit_writer_base14_C_get_patternEPcPKcb) for __rw::__rw_digit_writer_base::_C_get_pattern(char*, const char*, bool)
    vendor.o(i._ZN4__rw22__rw_digit_writer_base11_C_digitizeEmbPKc) refers to __2sprintf.o(.text) for __2sprintf
    vendor.o(i._ZN4__rw22__rw_digit_writer_base11_C_digitizeEmbPKc) refers to vendor.o(i._ZN4__rw22__rw_digit_writer_base12_C_to_binaryEm) for __rw::__rw_digit_writer_base::_C_to_binary(unsigned long)
    vendor.o(i._ZN4__rw22__rw_digit_writer_base11_C_digitizeEyb) refers to _printf_pad.o(.text) for _printf_pre_padding
    vendor.o(i._ZN4__rw22__rw_digit_writer_base11_C_digitizeEyb) refers to _printf_truncate.o(.text) for _printf_truncate_unsigned
    vendor.o(i._ZN4__rw22__rw_digit_writer_base11_C_digitizeEyb) refers to _printf_percent.o(.ARM.Collect$$_printf_percent$$00000000) for _printf_percent
    vendor.o(i._ZN4__rw22__rw_digit_writer_base11_C_digitizeEyb) refers to _printf_d.o(.ARM.Collect$$_printf_percent$$00000009) for _printf_d
    vendor.o(i._ZN4__rw22__rw_digit_writer_base11_C_digitizeEyb) refers to _printf_i.o(.ARM.Collect$$_printf_percent$$00000008) for _printf_i
    vendor.o(i._ZN4__rw22__rw_digit_writer_base11_C_digitizeEyb) refers to _printf_u.o(.ARM.Collect$$_printf_percent$$0000000A) for _printf_u
    vendor.o(i._ZN4__rw22__rw_digit_writer_base11_C_digitizeEyb) refers to _printf_lld.o(.ARM.Collect$$_printf_percent$$0000000E) for _printf_lld
    vendor.o(i._ZN4__rw22__rw_digit_writer_base11_C_digitizeEyb) refers to _printf_lli.o(.ARM.Collect$$_printf_percent$$0000000D) for _printf_lli
    vendor.o(i._ZN4__rw22__rw_digit_writer_base11_C_digitizeEyb) refers to _printf_llu.o(.ARM.Collect$$_printf_percent$$0000000F) for _printf_llu
    vendor.o(i._ZN4__rw22__rw_digit_writer_base11_C_digitizeEyb) refers to _printf_o.o(.ARM.Collect$$_printf_percent$$0000000B) for _printf_o
    vendor.o(i._ZN4__rw22__rw_digit_writer_base11_C_digitizeEyb) refers to _printf_llo.o(.ARM.Collect$$_printf_percent$$00000010) for _printf_llo
    vendor.o(i._ZN4__rw22__rw_digit_writer_base11_C_digitizeEyb) refers to _printf_x.o(.ARM.Collect$$_printf_percent$$0000000C) for _printf_x
    vendor.o(i._ZN4__rw22__rw_digit_writer_base11_C_digitizeEyb) refers to _printf_llx.o(.ARM.Collect$$_printf_percent$$00000011) for _printf_llx
    vendor.o(i._ZN4__rw22__rw_digit_writer_base11_C_digitizeEyb) refers to _printf_c.o(.ARM.Collect$$_printf_percent$$00000013) for _printf_c
    vendor.o(i._ZN4__rw22__rw_digit_writer_base11_C_digitizeEyb) refers to _printf_lc.o(.ARM.Collect$$_printf_percent$$00000015) for _printf_lc
    vendor.o(i._ZN4__rw22__rw_digit_writer_base11_C_digitizeEyb) refers to _printf_dec.o(.text) for _printf_int_dec
    vendor.o(i._ZN4__rw22__rw_digit_writer_base11_C_digitizeEyb) refers to _printf_longlong_dec.o(.text) for _printf_longlong_dec
    vendor.o(i._ZN4__rw22__rw_digit_writer_base11_C_digitizeEyb) refers to _printf_oct_int_ll.o(.text) for _printf_longlong_oct
    vendor.o(i._ZN4__rw22__rw_digit_writer_base11_C_digitizeEyb) refers to _printf_hex_int_ll_ptr.o(.text) for _printf_longlong_hex
    vendor.o(i._ZN4__rw22__rw_digit_writer_base11_C_digitizeEyb) refers to _printf_str.o(.text) for _printf_str
    vendor.o(i._ZN4__rw22__rw_digit_writer_base11_C_digitizeEyb) refers to _printf_wctomb.o(.text) for _printf_wctomb
    vendor.o(i._ZN4__rw22__rw_digit_writer_base11_C_digitizeEyb) refers to vendor.o(i._ZN4__rw22__rw_digit_writer_base14_C_get_patternEPcPKcb) for __rw::__rw_digit_writer_base::_C_get_pattern(char*, const char*, bool)
    vendor.o(i._ZN4__rw22__rw_digit_writer_base11_C_digitizeEyb) refers to __2sprintf.o(.text) for __2sprintf
    vendor.o(i._ZN4__rw22__rw_digit_writer_base11_C_digitizeEyb) refers to vendor.o(i._ZN4__rw22__rw_digit_writer_base12_C_to_binaryEy) for __rw::__rw_digit_writer_base::_C_to_binary(unsigned long long)
    vendor.o(i._ZN4__rw22__rw_digit_writer_base12_C_to_binaryEy) refers to vendor.o(.data) for .data
    vendor.o(i._ZN4__rw22__rw_digit_writer_base12_C_to_binaryEy) refers to locale.o(.constdata) for __rw::__rw_digit_map_base::_C_digit_chars
    vendor.o(.ARM.exidx) refers to vendor.o(i._ZN4__rw15__rw_locale_imp15_C_map_categoryEi) for i._ZN4__rw15__rw_locale_imp15_C_map_categoryEi
    vendor.o(.ARM.exidx) refers to vendor.o(i._ZN4__rw15__rw_locale_imp13_C_parse_nameERNS_18__rw_locale_vectorISsEEPKc) for i._ZN4__rw15__rw_locale_imp13_C_parse_nameERNS_18__rw_locale_vectorISsEEPKc
    vendor.o(.ARM.exidx) refers to unwind_pr0.o(.text) for __aeabi_unwind_cpp_pr0
    vendor.o(.ARM.exidx) refers to vendor.o(.ARM.extab) for .extab._ZN4__rw15__rw_locale_imp13_C_parse_nameERNS_18__rw_locale_vectorISsEEPKc
    vendor.o(.ARM.exidx) refers to vendor.o(i._ZN4__rw15__rw_locale_imp13_C_parse_nameERNS_18__rw_locale_vectorISsEEPKc.clean) for i._ZN4__rw15__rw_locale_imp13_C_parse_nameERNS_18__rw_locale_vectorISsEEPKc.clean
    vendor.o(.ARM.exidx) refers to vendor.o(i._ZN4__rw22__rw_digit_reader_base16_C_parse_decimalEPKcS2_) for i._ZN4__rw22__rw_digit_reader_base16_C_parse_decimalEPKcS2_
    vendor.o(.ARM.exidx) refers to vendor.o(i._ZN4__rw22__rw_digit_reader_base8_C_parseEPKcm) for i._ZN4__rw22__rw_digit_reader_base8_C_parseEPKcm
    vendor.o(.ARM.exidx) refers to unwind_pr0.o(.text) for __aeabi_unwind_cpp_pr0
    vendor.o(.ARM.exidx) refers to vendor.o(i._ZN4__rw22__rw_digit_reader_base10_C_reallocERPcS1_Rj) for i._ZN4__rw22__rw_digit_reader_base10_C_reallocERPcS1_Rj
    vendor.o(.ARM.exidx) refers to unwind_pr0.o(.text) for __aeabi_unwind_cpp_pr0
    vendor.o(.ARM.exidx) refers to vendor.o(.ARM.extab) for .extab._ZN4__rw22__rw_digit_reader_base10_C_reallocERPcS1_Rj
    vendor.o(.ARM.exidx) refers to vendor.o(i._ZN4__rw22__rw_digit_reader_base10_C_reallocERPcS1_Rj.clean) for i._ZN4__rw22__rw_digit_reader_base10_C_reallocERPcS1_Rj.clean
    vendor.o(.ARM.exidx) refers to vendor.o(i._ZN4__rw22__rw_digit_reader_base8_C_parseEPKcy) for i._ZN4__rw22__rw_digit_reader_base8_C_parseEPKcy
    vendor.o(.ARM.exidx) refers to unwind_pr0.o(.text) for __aeabi_unwind_cpp_pr0
    vendor.o(.ARM.exidx) refers to vendor.o(i._ZN4__rw22__rw_digit_reader_base8_C_parseEPKcPv) for i._ZN4__rw22__rw_digit_reader_base8_C_parseEPKcPv
    vendor.o(.ARM.exidx) refers to unwind_pr0.o(.text) for __aeabi_unwind_cpp_pr0
    vendor.o(.ARM.exidx) refers to vendor.o(i._ZN4__rw22__rw_digit_reader_base14_C_parse_floatEPKcS2_Pv) for i._ZN4__rw22__rw_digit_reader_base14_C_parse_floatEPKcS2_Pv
    vendor.o(.ARM.exidx) refers to unwind_pr0.o(.text) for __aeabi_unwind_cpp_pr0
    vendor.o(.ARM.exidx) refers to vendor.o(i._ZN4__rw22__rw_digit_writer_base14_C_get_patternEPcPKcb) for i._ZN4__rw22__rw_digit_writer_base14_C_get_patternEPcPKcb
    vendor.o(.ARM.exidx) refers to vendor.o(i._ZN4__rw22__rw_digit_writer_base16_C_get_f_patternEPcc) for i._ZN4__rw22__rw_digit_writer_base16_C_get_f_patternEPcc
    vendor.o(.ARM.exidx) refers to vendor.o(i._ZN4__rw22__rw_digit_writer_base12_C_to_binaryEm) for i._ZN4__rw22__rw_digit_writer_base12_C_to_binaryEm
    vendor.o(.ARM.exidx) refers to vendor.o(i._ZN4__rw22__rw_digit_writer_base11_C_digitizeEmbPKc) for i._ZN4__rw22__rw_digit_writer_base11_C_digitizeEmbPKc
    vendor.o(.ARM.exidx) refers to unwind_pr0.o(.text) for __aeabi_unwind_cpp_pr0
    vendor.o(.ARM.exidx) refers to vendor.o(i._ZN4__rw22__rw_digit_writer_base11_C_digitizeEPKv) for i._ZN4__rw22__rw_digit_writer_base11_C_digitizeEPKv
    vendor.o(.ARM.exidx) refers to vendor.o(i._ZN4__rw22__rw_digit_writer_base12_C_to_binaryEy) for i._ZN4__rw22__rw_digit_writer_base12_C_to_binaryEy
    vendor.o(.ARM.exidx) refers to vendor.o(i._ZN4__rw22__rw_digit_writer_base11_C_digitizeEyb) for i._ZN4__rw22__rw_digit_writer_base11_C_digitizeEyb
    vendor.o(.ARM.exidx) refers to unwind_pr0.o(.text) for __aeabi_unwind_cpp_pr0
    vendor.o(.ARM.exidx) refers to vendor.o(i._ZN4__rw22__rw_digit_writer_base11_C_digitizeEd) for i._ZN4__rw22__rw_digit_writer_base11_C_digitizeEd
    vendor.o(.ARM.exidx) refers to unwind_pr0.o(.text) for __aeabi_unwind_cpp_pr0
    vendor.o(.ARM.exidx) refers to vendor.o(i._ZN4__rw22__rw_digit_writer_base11_C_digitizeEe) for i._ZN4__rw22__rw_digit_writer_base11_C_digitizeEe
    vendor.o(.ARM.exidx) refers to unwind_pr0.o(.text) for __aeabi_unwind_cpp_pr0
    vendor.o(.ARM.exidx) refers to vendor.o(i._ZN4__rw22__rw_digit_writer_base14_C_calc_groupsEiPKc) for i._ZN4__rw22__rw_digit_writer_base14_C_calc_groupsEiPKc
    vendor.o(.ARM.extab) refers to vendor.o(i._ZN4__rw15__rw_locale_imp13_C_parse_nameERNS_18__rw_locale_vectorISsEEPKc.clean) for i._ZN4__rw15__rw_locale_imp13_C_parse_nameERNS_18__rw_locale_vectorISsEEPKc.clean
    vendor.o(.ARM.extab) refers to vendor.o(i._ZN4__rw22__rw_digit_reader_base10_C_reallocERPcS1_Rj) for i._ZN4__rw22__rw_digit_reader_base10_C_reallocERPcS1_Rj
    vendor.o(.ARM.extab) refers to vendor.o(i._ZN4__rw22__rw_digit_reader_base10_C_reallocERPcS1_Rj.clean) for i._ZN4__rw22__rw_digit_reader_base10_C_reallocERPcS1_Rj.clean
    arm_newhandler_noexceptions.o(.text) refers to arm_exceptions_terminate.o(.text) for std::terminate()
    arm_newhandler_noexceptions.o(.ARM.exidx) refers to arm_newhandler_noexceptions.o(.text) for .text
    bad_alloc_dtor.o(i._ZNSt9bad_allocD0Ev) refers to bad_alloc_dtor.o(i._ZNSt9bad_allocD1Ev) for std::bad_alloc::~bad_alloc()
    bad_alloc_dtor.o(i._ZNSt9bad_allocD0Ev) refers to delete.o(i._ZdlPv) for operator delete (void*)
    bad_alloc_dtor.o(.ARM.exidx) refers to bad_alloc_dtor.o(i._ZNSt9bad_allocD1Ev) for i._ZNSt9bad_allocD1Ev
    bad_alloc_dtor.o(.ARM.exidx) refers to bad_alloc_dtor.o(i._ZNSt9bad_allocD0Ev) for i._ZNSt9bad_allocD0Ev
    cxa_guard_abort.o(.ARM.exidx) refers to cxa_guard_abort.o(i.__cxa_guard_abort) for i.__cxa_guard_abort
    exception_what.o(.ARM.exidx) refers to exception_what.o(i._ZNKSt9exception4whatEv) for i._ZNKSt9exception4whatEv
    aeabi_vec_new_cookie.o(i.__aeabi_vec_new_cookie) refers to cxa_vec_new.o(i.__cxa_vec_new) for __cxa_vec_new
    aeabi_vec_new_cookie.o(.ARM.exidx) refers to aeabi_vec_new_cookie.o(i.__aeabi_vec_new_cookie) for i.__aeabi_vec_new_cookie
    aeabi_vec_new_cookie.o(.ARM.exidx) refers to unwind_pr0.o(.text) for __aeabi_unwind_cpp_pr0
    aeabi_vec_dtor_cookie.o(i.__aeabi_vec_dtor_cookie) refers to aeabi_vec_dtor_noexceptions.o(.text) for __aeabi_vec_dtor
    aeabi_vec_dtor_cookie.o(.ARM.exidx) refers to aeabi_vec_dtor_cookie.o(i.__aeabi_vec_dtor_cookie) for i.__aeabi_vec_dtor_cookie
    arm_exceptions_support.o(.text) refers to arm_exceptions_support.o(.constdata) for .constdata
    arm_exceptions_support.o(.ARM.exidx) refers to arm_exceptions_support.o(.text) for .text
    arm_exceptions_free.o(.text) refers to arm_exceptions_globs.o(.text) for __cxa_get_globals
    arm_exceptions_free.o(.text) refers to arm_exceptions_mem.o(.text) for __ARM_exceptions_buffer_free
    arm_exceptions_free.o(.text) refers to h1_free.o(.text) for free
    arm_exceptions_free.o(.ARM.exidx) refers to arm_exceptions_free.o(.text) for .text
    arm_exceptions_terminate.o(.text) refers to arm_exceptions_globs.o(.text) for __cxa_get_globals
    arm_exceptions_terminate.o(.text) refers to abort.o(.text) for abort
    arm_exceptions_terminate.o(.ARM.exidx) refers to arm_exceptions_terminate.o(.text) for .text
    arm_exceptions_globs.o(.text) refers to abort.o(.text) for abort
    arm_exceptions_globs.o(.text) refers to rt_eh_globals_addr_intlibspace.o(.text) for __rt_eh_globals_addr
    arm_exceptions_globs.o(.text) refers to h1_alloc.o(.text) for malloc
    arm_exceptions_globs.o(.text) refers to arm_exceptions_mem.o(.text) for __ARM_exceptions_buffer_init
    arm_exceptions_globs.o(.ARM.exidx) refers to arm_exceptions_globs.o(.text) for .text
    arm_exceptions_foreign.o(.text) refers to arm_exceptions_support.o(.text) for __ARM::same_exceptions_class(const void*, const void*)
    arm_exceptions_foreign.o(.text) refers to arm_exceptions_alloc.o(.text) for __cxa_allocate_exception
    arm_exceptions_foreign.o(.ARM.exidx) refers to arm_exceptions_foreign.o(.text) for .text
    unwind_prcommon.o(.text) refers to unwinder.o(.text) for _Unwind_VRS_Get
    unwind_prcommon.o(.text) refers (Weak) to arm_exceptions_cleanup.o(.text) for __cxa_begin_cleanup
    unwind_prcommon.o(.text) refers to unwind_activity.o(.emb_text) for _Unwind_Activity
    unwind_prcommon.o(.text) refers (Weak) to arm_callunex_noexceptions.o(.text) for __cxa_call_unexpected
    unwind_prcommon.o(.ARM.exidx) refers to unwind_prcommon.o(.text) for .text
    printf1.o(x$fpl$printf1) refers to _printf_fp_dec.o(.text) for _printf_fp_dec_real
    printf2.o(x$fpl$printf2) refers to _printf_fp_hex.o(.text) for _printf_fp_hex_real
    printf2b.o(x$fpl$printf2) refers to _printf_fp_hex.o(.text) for _printf_fp_hex_real
    scanf1.o(x$fpl$scanf1) refers to scanf_fp.o(.text) for _scanf_really_real
    sys_command.o(.text) refers (Special) to use_no_semi.o(.text) for __I$use$semihosting
    sys_command.o(.text) refers (Special) to indicate_semi.o(.text) for __semihosting_library_function
    sys_stackheap_outer.o(.text) refers to libspace.o(.text) for __user_perproc_libspace
    sys_stackheap_outer.o(.text) refers to keil_startup_lpc18xx43xx.o(.text) for __user_initial_stackheap
    rt_raise.o(.text) refers to __raise.o(.text) for __raise
    rt_raise.o(.text) refers to board.o(i._sys_exit) for _sys_exit
    rt_locale.o(.text) refers to rt_locale.o(.bss) for __rt_locale_data
    rt_locale_intlibspace.o(.text) refers to libspace.o(.bss) for __libspace_start
    rt_eh_globals_addr.o(.text) refers to rt_eh_globals_addr.o(.bss) for __rt_eh_globals_addr_data
    rt_eh_globals_addr_intlibspace.o(.text) refers to libspace.o(.bss) for __libspace_start
    maybetermalloc2.o(.emb_text) refers (Special) to term_alloc.o(.text) for _terminate_alloc
    h1_extend.o(.text) refers to h1_free.o(.text) for free
    h1_extend_mt.o(.text) refers to h1_free_mt.o(.text) for _free_internal
    isspace.o(.text) refers to rt_ctype_table.o(.text) for __rt_ctype_table
    sprintf.o(.text) refers (Special) to _printf_a.o(.ARM.Collect$$_printf_percent$$00000006) for _printf_a
    sprintf.o(.text) refers (Special) to _printf_c.o(.ARM.Collect$$_printf_percent$$00000013) for _printf_c
    sprintf.o(.text) refers (Special) to _printf_charcount.o(.text) for _printf_charcount
    sprintf.o(.text) refers (Special) to _printf_d.o(.ARM.Collect$$_printf_percent$$00000009) for _printf_d
    sprintf.o(.text) refers (Special) to _printf_e.o(.ARM.Collect$$_printf_percent$$00000004) for _printf_e
    sprintf.o(.text) refers (Special) to _printf_f.o(.ARM.Collect$$_printf_percent$$00000003) for _printf_f
    sprintf.o(.text) refers (Special) to printf1.o(x$fpl$printf1) for _printf_fp_dec
    sprintf.o(.text) refers (Special) to printf2.o(x$fpl$printf2) for _printf_fp_hex
    sprintf.o(.text) refers (Special) to _printf_g.o(.ARM.Collect$$_printf_percent$$00000005) for _printf_g
    sprintf.o(.text) refers (Special) to _printf_i.o(.ARM.Collect$$_printf_percent$$00000008) for _printf_i
    sprintf.o(.text) refers (Special) to _printf_dec.o(.text) for _printf_int_dec
    sprintf.o(.text) refers (Special) to _printf_l.o(.ARM.Collect$$_printf_percent$$00000012) for _printf_l
    sprintf.o(.text) refers (Special) to _printf_lc.o(.ARM.Collect$$_printf_percent$$00000015) for _printf_lc
    sprintf.o(.text) refers (Special) to _printf_ll.o(.ARM.Collect$$_printf_percent$$00000007) for _printf_ll
    sprintf.o(.text) refers (Special) to _printf_lld.o(.ARM.Collect$$_printf_percent$$0000000E) for _printf_lld
    sprintf.o(.text) refers (Special) to _printf_lli.o(.ARM.Collect$$_printf_percent$$0000000D) for _printf_lli
    sprintf.o(.text) refers (Special) to _printf_llo.o(.ARM.Collect$$_printf_percent$$00000010) for _printf_llo
    sprintf.o(.text) refers (Special) to _printf_llu.o(.ARM.Collect$$_printf_percent$$0000000F) for _printf_llu
    sprintf.o(.text) refers (Special) to _printf_llx.o(.ARM.Collect$$_printf_percent$$00000011) for _printf_llx
    sprintf.o(.text) refers (Special) to _printf_longlong_dec.o(.text) for _printf_longlong_dec
    sprintf.o(.text) refers (Special) to _printf_hex_int_ll_ptr.o(.text) for _printf_longlong_hex
    sprintf.o(.text) refers (Special) to _printf_oct_int_ll.o(.text) for _printf_longlong_oct
    sprintf.o(.text) refers (Special) to _printf_ls.o(.ARM.Collect$$_printf_percent$$00000016) for _printf_ls
    sprintf.o(.text) refers (Special) to _printf_n.o(.ARM.Collect$$_printf_percent$$00000001) for _printf_n
    sprintf.o(.text) refers (Special) to _printf_o.o(.ARM.Collect$$_printf_percent$$0000000B) for _printf_o
    sprintf.o(.text) refers (Special) to _printf_p.o(.ARM.Collect$$_printf_percent$$00000002) for _printf_p
    sprintf.o(.text) refers (Special) to _printf_percent.o(.ARM.Collect$$_printf_percent$$00000000) for _printf_percent
    sprintf.o(.text) refers (Special) to _printf_pad.o(.text) for _printf_post_padding
    sprintf.o(.text) refers (Special) to _printf_s.o(.ARM.Collect$$_printf_percent$$00000014) for _printf_s
    sprintf.o(.text) refers (Special) to _printf_str.o(.text) for _printf_str
    sprintf.o(.text) refers (Special) to _printf_truncate.o(.text) for _printf_truncate_signed
    sprintf.o(.text) refers (Special) to _printf_u.o(.ARM.Collect$$_printf_percent$$0000000A) for _printf_u
    sprintf.o(.text) refers (Special) to _printf_wctomb.o(.text) for _printf_wctomb
    sprintf.o(.text) refers (Special) to _printf_x.o(.ARM.Collect$$_printf_percent$$0000000C) for _printf_x
    sprintf.o(.text) refers to _printf_char_common.o(.text) for _printf_char_common
    sprintf.o(.text) refers to _sputc.o(.text) for _sputc
    __2sprintf.o(.text) refers to _printf_char_common.o(.text) for _printf_char_common
    __2sprintf.o(.text) refers to _sputc.o(.text) for _sputc
    noretval__2sprintf.o(.text) refers to _printf_char_common.o(.text) for _printf_char_common
    noretval__2sprintf.o(.text) refers to _sputc.o(.text) for _sputc
    _printf_intcommon.o(.text) refers (Weak) to _printf_pad.o(.text) for _printf_pre_padding
    _printf_intcommon.o(.text) refers (Weak) to _printf_pad.o(.text) for _printf_pre_padding
    _printf_intcommon.o(.text) refers (Weak) to _printf_pad.o(.text) for _printf_post_padding
    _printf_fp_dec.o(.text) refers (Special) to usenofp.o(x$fpl$usenofp) for __I$use$fp
    _printf_fp_dec.o(.text) refers (Special) to lc_numeric_c.o(locale$$code) for _get_lc_numeric
    _printf_fp_dec.o(.text) refers to bigflt0.o(.text) for _btod_etento
    _printf_fp_dec.o(.text) refers to btod.o(CL$$btod_d2e) for _btod_d2e
    _printf_fp_dec.o(.text) refers to btod.o(CL$$btod_ediv) for _btod_ediv
    _printf_fp_dec.o(.text) refers to btod.o(CL$$btod_emul) for _btod_emul
    _printf_fp_dec.o(.text) refers to lludiv10.o(.text) for _ll_udiv10
    _printf_fp_dec.o(.text) refers to fpclassify.o(i.__ARM_fpclassify) for __ARM_fpclassify
    _printf_fp_dec.o(.text) refers to _printf_fp_infnan.o(.text) for _printf_fp_infnan
    _printf_fp_dec.o(.text) refers (Weak) to _printf_pad.o(.text) for _printf_pre_padding
    _printf_fp_dec.o(.text) refers (Weak) to _printf_pad.o(.text) for _printf_pre_padding
    _printf_fp_dec.o(.text) refers to rt_locale_intlibspace.o(.text) for __rt_locale
    _printf_fp_dec.o(.text) refers (Weak) to _printf_pad.o(.text) for _printf_post_padding
    _printf_fp_hex.o(.text) refers (Special) to usenofp.o(x$fpl$usenofp) for __I$use$fp
    _printf_fp_hex.o(.text) refers to fpclassify.o(i.__ARM_fpclassify) for __ARM_fpclassify
    _printf_fp_hex.o(.text) refers to _printf_fp_infnan.o(.text) for _printf_fp_infnan
    _printf_fp_hex.o(.text) refers (Weak) to _printf_pad.o(.text) for _printf_pre_padding
    _printf_fp_hex.o(.text) refers (Weak) to _printf_pad.o(.text) for _printf_pre_padding
    _printf_fp_hex.o(.text) refers (Weak) to _printf_pad.o(.text) for _printf_post_padding
    _printf_fp_hex.o(.text) refers to _printf_fp_hex.o(.constdata) for .constdata
    _printf_fp_hex.o(.constdata) refers (Special) to usenofp.o(x$fpl$usenofp) for __I$use$fp
    _printf_char.o(.text) refers (Weak) to _printf_str.o(.text) for _printf_str
    _printf_wchar.o(.text) refers (Weak) to _printf_wctomb.o(.text) for _printf_wctomb
    _scanf.o(.text) refers (Weak) to scanf1.o(x$fpl$scanf1) for _scanf_real
    _scanf.o(.text) refers (Weak) to _scanf_longlong.o(.text) for _scanf_longlong
    _scanf.o(.text) refers (Weak) to _scanf_int.o(.text) for _scanf_int
    _scanf.o(.text) refers (Weak) to _scanf_wstr.o(.text) for _scanf_wstring
    _scanf.o(.text) refers (Weak) to _scanf_mbtowc.o(.text) for _scanf_mbtowc
    _scanf.o(.text) refers (Weak) to _scanf_str.o(.text) for _scanf_string
    _scanf.o(.text) refers (Weak) to _scanf_wctomb.o(.text) for _scanf_wctomb
    scanf_fp.o(.text) refers (Special) to usenofp.o(x$fpl$usenofp) for __I$use$fp
    scanf_fp.o(.text) refers (Special) to lc_numeric_c.o(locale$$code) for _get_lc_numeric
    scanf_fp.o(.text) refers to rt_errno_addr_intlibspace.o(.text) for __aeabi_errno_addr
    scanf_fp.o(.text) refers to bigflt0.o(.text) for _btod_etento
    scanf_fp.o(.text) refers to btod.o(CL$$btod_emuld) for _btod_emuld
    scanf_fp.o(.text) refers to btod.o(CL$$btod_edivd) for _btod_edivd
    scanf_fp.o(.text) refers to rt_locale_intlibspace.o(.text) for __rt_locale
    scanf_fp.o(.text) refers to scanf2.o(x$fpl$scanf2) for _scanf_infnan
    scanf_fp.o(.text) refers to __printf_wp.o(i._is_digit) for _is_digit
    scanf_fp.o(.text) refers to narrow.o(i.__mathlib_narrow) for __mathlib_narrow
    scanf_fp.o(.text) refers to fpconst.o(c$$dinf) for __huge_val
    strtoull.o(.text) refers to __strtoull.o(.text) for __strtoull
    initio.o(.text) refers (Special) to libinit2.o(.ARM.Collect$$libinit$$00000024) for __rt_lib_init_stdio_2
    initio.o(.text) refers (Special) to libshutdown2.o(.ARM.Collect$$libshutdown$$00000003) for __rt_lib_shutdown_stdio_2
    initio.o(.text) refers to rt_memclr_w.o(.text) for __aeabi_memclr4
    initio.o(.text) refers to fopen.o(.text) for freopen
    initio.o(.text) refers to defsig_rtred_outer.o(.text) for __rt_SIGRTRED
    initio.o(.text) refers to setvbuf.o(.text) for setvbuf
    initio.o(.text) refers to fclose.o(.text) for _fclose_internal
    initio.o(.text) refers to h1_free.o(.text) for free
    initio.o(.text) refers to board.o(.data) for __stdin
    initio.o(.text) refers to stdio_streams.o(.bss) for __stdin
    initio.o(.text) refers to stdio_streams.o(.bss) for __stdout
    initio.o(.text) refers to stdio_streams.o(.bss) for __stderr
    initio.o(.text) refers to stdio_streams.o(.data) for __aeabi_stdin
    initio.o(.text) refers to stdio_streams.o(.data) for __aeabi_stdout
    initio.o(.text) refers to stdio_streams.o(.data) for __aeabi_stderr
    initio.o(.text) refers to sys_io.o(.constdata) for __stdin_name
    initio.o(.text) refers to sys_io.o(.constdata) for __stdout_name
    initio.o(.text) refers to sys_io.o(.constdata) for __stderr_name
    initio_locked.o(.text) refers (Special) to libinit2.o(.ARM.Collect$$libinit$$00000024) for __rt_lib_init_stdio_2
    initio_locked.o(.text) refers (Special) to libshutdown2.o(.ARM.Collect$$libshutdown$$00000003) for __rt_lib_shutdown_stdio_2
    initio_locked.o(.text) refers to rt_memclr_w.o(.text) for __aeabi_memclr4
    initio_locked.o(.text) refers to fopen.o(.text) for freopen
    initio_locked.o(.text) refers to defsig_rtred_outer.o(.text) for __rt_SIGRTRED
    initio_locked.o(.text) refers to setvbuf.o(.text) for setvbuf
    initio_locked.o(.text) refers to fclose.o(.text) for _fclose_internal
    initio_locked.o(.text) refers to h1_free.o(.text) for free
    initio_locked.o(.text) refers to board.o(.data) for __stdin
    initio_locked.o(.text) refers to stdio_streams.o(.bss) for __stdin
    initio_locked.o(.text) refers to stdio_streams.o(.bss) for __stdout
    initio_locked.o(.text) refers to stdio_streams.o(.bss) for __stderr
    initio_locked.o(.text) refers to stdio_streams.o(.data) for __aeabi_stdin
    initio_locked.o(.text) refers to stdio_streams.o(.data) for __aeabi_stdout
    initio_locked.o(.text) refers to stdio_streams.o(.data) for __aeabi_stderr
    initio_locked.o(.text) refers to streamlock.o(.data) for _stream_list_lock
    initio_locked.o(.text) refers to sys_io.o(.constdata) for __stdin_name
    initio_locked.o(.text) refers to sys_io.o(.constdata) for __stdout_name
    initio_locked.o(.text) refers to sys_io.o(.constdata) for __stderr_name
    _lconv.o(.text) refers (Special) to lc_monetary_c.o(locale$$code) for _get_lc_monetary
    _lconv.o(.text) refers (Special) to lc_numeric_c.o(locale$$code) for _get_lc_numeric
    _lconv.o(.text) refers to rt_locale_intlibspace.o(.text) for __rt_locale
    locale_r.o(.text) refers to rt_locale_intlibspace.o(.text) for __rt_locale
    locale_r.o(.text) refers (Weak) to lc_ctype_c.o(locale$$code) for _get_lc_ctype
    locale_r.o(.text) refers (Weak) to lc_collate_c.o(locale$$code) for _get_lc_collate
    locale_r.o(.text) refers (Weak) to lc_monetary_c.o(locale$$code) for _get_lc_monetary
    locale_r.o(.text) refers (Weak) to lc_numeric_c.o(locale$$code) for _get_lc_numeric
    locale_r.o(.text) refers to null_locale.o(locale$$data) for __lcnull_start
    _mbrtowc.o(.text) refers to rt_ctype_table.o(.text) for __rt_ctype_table
    _wcrtomb.o(.text) refers to rt_ctype_table.o(.text) for __rt_ctype_table
    lc_ctype_c.o(locale$$data) refers (Special) to libinit2.o(.ARM.Collect$$libinit$$00000012) for __rt_lib_init_lc_ctype_2
    lc_ctype_c.o(locale$$code) refers (Special) to libinit2.o(.ARM.Collect$$libinit$$00000012) for __rt_lib_init_lc_ctype_2
    lc_ctype_c.o(locale$$code) refers to strcmpv7m.o(.text) for strcmp
    lc_ctype_c.o(locale$$code) refers to lc_ctype_c.o(locale$$data) for __lcctype_c_name
    lc_collate_c.o(locale$$data) refers (Special) to libinit2.o(.ARM.Collect$$libinit$$00000010) for __rt_lib_init_lc_collate_2
    lc_collate_c.o(locale$$code) refers (Special) to libinit2.o(.ARM.Collect$$libinit$$00000010) for __rt_lib_init_lc_collate_2
    lc_collate_c.o(locale$$code) refers to strcmpv7m.o(.text) for strcmp
    lc_collate_c.o(locale$$code) refers to lc_collate_c.o(locale$$data) for __lccoll_c_name
    exit.o(.text) refers to rtexit.o(.ARM.Collect$$rtexit$$00000000) for __rt_exit
    defsig_exit.o(.text) refers to board.o(i._sys_exit) for _sys_exit
    defsig_abrt_inner.o(.text) refers to defsig_general.o(.text) for __default_signal_display
    defsig_fpe_outer.o(.text) refers to defsig_fpe_inner.o(.text) for __rt_SIGFPE_inner
    defsig_fpe_outer.o(.text) refers to defsig_exit.o(.text) for __sig_exit
    defsig_fpe_formal.o(.text) refers to rt_raise.o(.text) for __rt_raise
    defsig_rtmem_outer.o(.text) refers to defsig_rtmem_inner.o(.text) for __rt_SIGRTMEM_inner
    defsig_rtmem_outer.o(.text) refers to defsig_exit.o(.text) for __sig_exit
    defsig_rtmem_formal.o(.text) refers to rt_raise.o(.text) for __rt_raise
    heapauxa.o(.text) refers to heapauxa.o(.data) for .data
    _get_argv_nomalloc.o(.text) refers (Special) to hrguard.o(.text) for __heap_region$guard
    _get_argv_nomalloc.o(.text) refers to defsig_rtmem_outer.o(.text) for __rt_SIGRTMEM
    _get_argv_nomalloc.o(.text) refers to sys_command.o(.text) for _sys_command_string
    libinit.o(.ARM.Collect$$libinit$$00000000) refers (Special) to libinit2.o(.ARM.Collect$$libinit$$0000002E) for __rt_lib_init_alloca_1
    libinit.o(.ARM.Collect$$libinit$$00000000) refers (Special) to libinit2.o(.ARM.Collect$$libinit$$0000002C) for __rt_lib_init_argv_1
    libinit.o(.ARM.Collect$$libinit$$00000000) refers (Special) to libinit2.o(.ARM.Collect$$libinit$$0000001B) for __rt_lib_init_atexit_1
    libinit.o(.ARM.Collect$$libinit$$00000000) refers (Special) to libinit2.o(.ARM.Collect$$libinit$$00000021) for __rt_lib_init_clock_1
    libinit.o(.ARM.Collect$$libinit$$00000000) refers (Special) to libinit2.o(.ARM.Collect$$libinit$$00000032) for __rt_lib_init_cpp_1
    libinit.o(.ARM.Collect$$libinit$$00000000) refers (Special) to libinit2.o(.ARM.Collect$$libinit$$00000030) for __rt_lib_init_exceptions_1
    libinit.o(.ARM.Collect$$libinit$$00000000) refers (Special) to libinit2.o(.ARM.Collect$$libinit$$00000001) for __rt_lib_init_fp_1
    libinit.o(.ARM.Collect$$libinit$$00000000) refers (Special) to libinit2.o(.ARM.Collect$$libinit$$0000001F) for __rt_lib_init_fp_trap_1
    libinit.o(.ARM.Collect$$libinit$$00000000) refers (Special) to libinit2.o(.ARM.Collect$$libinit$$00000023) for __rt_lib_init_getenv_1
    libinit.o(.ARM.Collect$$libinit$$00000000) refers (Special) to libinit2.o(.ARM.Collect$$libinit$$0000000A) for __rt_lib_init_heap_1
    libinit.o(.ARM.Collect$$libinit$$00000000) refers (Special) to libinit2.o(.ARM.Collect$$libinit$$00000011) for __rt_lib_init_lc_collate_1
    libinit.o(.ARM.Collect$$libinit$$00000000) refers (Special) to libinit2.o(.ARM.Collect$$libinit$$00000013) for __rt_lib_init_lc_ctype_1
    libinit.o(.ARM.Collect$$libinit$$00000000) refers (Special) to libinit2.o(.ARM.Collect$$libinit$$00000015) for __rt_lib_init_lc_monetary_1
    libinit.o(.ARM.Collect$$libinit$$00000000) refers (Special) to libinit2.o(.ARM.Collect$$libinit$$00000017) for __rt_lib_init_lc_numeric_1
    libinit.o(.ARM.Collect$$libinit$$00000000) refers (Special) to libinit2.o(.ARM.Collect$$libinit$$00000019) for __rt_lib_init_lc_time_1
    libinit.o(.ARM.Collect$$libinit$$00000000) refers (Special) to libinit2.o(.ARM.Collect$$libinit$$00000004) for __rt_lib_init_preinit_1
    libinit.o(.ARM.Collect$$libinit$$00000000) refers (Special) to libinit2.o(.ARM.Collect$$libinit$$0000000E) for __rt_lib_init_rand_1
    libinit.o(.ARM.Collect$$libinit$$00000000) refers (Special) to libinit2.o(.ARM.Collect$$libinit$$00000033) for __rt_lib_init_return
    libinit.o(.ARM.Collect$$libinit$$00000000) refers (Special) to libinit2.o(.ARM.Collect$$libinit$$0000001D) for __rt_lib_init_signal_1
    libinit.o(.ARM.Collect$$libinit$$00000000) refers (Special) to libinit2.o(.ARM.Collect$$libinit$$00000025) for __rt_lib_init_stdio_1
    libinit.o(.ARM.Collect$$libinit$$00000000) refers (Special) to libinit2.o(.ARM.Collect$$libinit$$0000000C) for __rt_lib_init_user_alloc_1
    bad_alloc_what.o(.ARM.exidx) refers to bad_alloc_what.o(i._ZNKSt9bad_alloc4whatEv) for i._ZNKSt9bad_alloc4whatEv
    cxa_vec_new.o(i.__cxa_vec_new) refers to array_new_general.o(i.__ARM_array_new_general) for __ARM_array_new_general
    cxa_vec_new.o(i.__cxa_vec_new) refers to array_del.o(i._ZdaPv) for operator delete[] (void*)
    cxa_vec_new.o(.ARM.exidx) refers to cxa_vec_new.o(i.__cxa_vec_new) for i.__cxa_vec_new
    cxa_vec_new.o(.ARM.exidx) refers to unwind_pr0.o(.text) for __aeabi_unwind_cpp_pr0
    aeabi_vec_dtor_noexceptions.o(.ARM.exidx) refers to aeabi_vec_dtor_noexceptions.o(.text) for .text
    arm_exceptions_mem.o(.text) refers to h1_alloc.o(.text) for malloc
    arm_exceptions_mem.o(.ARM.exidx) refers to arm_exceptions_mem.o(.text) for .text
    arm_exceptions_alloc.o(.text) refers to arm_exceptions_globs.o(.text) for __cxa_get_globals
    arm_exceptions_alloc.o(.text) refers to h1_alloc.o(.text) for malloc
    arm_exceptions_alloc.o(.text) refers to arm_exceptions_mem.o(.text) for __ARM_exceptions_buffer_allocate
    arm_exceptions_alloc.o(.text) refers to arm_exceptions_callterm.o(.text) for __ARM::call_terminate_handler(_Unwind_Control_Block*)
    arm_exceptions_alloc.o(.ARM.exidx) refers to arm_exceptions_alloc.o(.text) for .text
    unwinder.o(.emb_text) refers to unwinder.o(.text) for __ARM_Unwind_RaiseException
    unwinder.o(.text) refers to bsearchnoex.o(.text) for bsearch
    unwinder.o(.text) refers to unwind_activity.o(.emb_text) for _Unwind_Activity
    unwinder.o(.text) refers to abort.o(.text) for abort
    unwinder.o(.text) refers to unwinder.o(.emb_text) for __ARM_Unwind_VRS_corerestore
    unwinder.o(.text) refers to h1_alloc.o(.text) for malloc
    unwinder.o(.text) refers to rt_memcpy_w.o(.text) for __aeabi_memcpy4
    unwinder.o(.text) refers to h1_free.o(.text) for free
    unwinder.o(.text) refers (Weak) to unwind_pr0.o(.text) for __aeabi_unwind_cpp_pr0
    unwinder.o(.text) refers (Weak) to unwind_pr1.o(.text) for __aeabi_unwind_cpp_pr1
    unwinder.o(.ARM.exidx) refers to unwinder.o(.text) for .text
    deqf.o(x$fpl$deqf) refers (Special) to usenofp.o(x$fpl$usenofp) for __I$use$fp
    deqf.o(x$fpl$deqf) refers to dnaninf.o(x$fpl$dnaninf) for __fpl_dnaninf
    deqf.o(x$fpl$deqf) refers to dcmpi.o(x$fpl$dcmpinf) for __fpl_dcmp_Inf
    dleqf.o(x$fpl$dleqf) refers (Special) to usenofp.o(x$fpl$usenofp) for __I$use$fp
    dleqf.o(x$fpl$dleqf) refers to dnaninf.o(x$fpl$dnaninf) for __fpl_dnaninf
    dleqf.o(x$fpl$dleqf) refers to dcmpi.o(x$fpl$dcmpinf) for __fpl_dcmp_Inf
    rtexit.o(.ARM.Collect$$rtexit$$00000000) refers (Special) to rtexit2.o(.ARM.Collect$$rtexit$$00000004) for __rt_exit_exit
    rtexit.o(.ARM.Collect$$rtexit$$00000000) refers (Special) to rtexit2.o(.ARM.Collect$$rtexit$$00000003) for __rt_exit_ls
    rtexit.o(.ARM.Collect$$rtexit$$00000000) refers (Special) to rtexit2.o(.ARM.Collect$$rtexit$$00000002) for __rt_exit_prels_1
    rtexit.o(.ARM.exidx) refers (Special) to rtexit2.o(.ARM.Collect$$rtexit$$00000004) for __rt_exit_exit
    rtexit.o(.ARM.exidx) refers (Special) to rtexit2.o(.ARM.Collect$$rtexit$$00000003) for __rt_exit_ls
    rtexit.o(.ARM.exidx) refers (Special) to rtexit2.o(.ARM.Collect$$rtexit$$00000002) for __rt_exit_prels_1
    rtexit.o(.ARM.exidx) refers to rtexit.o(.ARM.Collect$$rtexit$$00000000) for .ARM.Collect$$rtexit$$00000000
    term_alloc.o(.text) refers (Special) to libshutdown2.o(.ARM.Collect$$libshutdown$$0000000E) for __rt_lib_shutdown_heap_2
    term_alloc.o(.text) refers to rt_heap_descriptor_intlibspace.o(.text) for __rt_heap_descriptor
    term_alloc.o(.text) refers to h1_final.o(.text) for __Heap_Finalize
    _printf_fp_infnan.o(.text) refers (Weak) to _printf_pad.o(.text) for _printf_pre_padding
    _printf_fp_infnan.o(.text) refers (Weak) to _printf_pad.o(.text) for _printf_post_padding
    __strtoull.o(.text) refers to rt_errno_addr_intlibspace.o(.text) for __aeabi_errno_addr
    __strtoull.o(.text) refers to rt_ctype_table.o(.text) for __rt_ctype_table
    __strtoull.o(.text) refers to _strtoull.o(.text) for _strtoull
    bigflt0.o(.text) refers (Special) to usenofp.o(x$fpl$usenofp) for __I$use$fp
    bigflt0.o(.text) refers to btod.o(CL$$btod_emul) for _btod_emul
    bigflt0.o(.text) refers to btod.o(CL$$btod_ediv) for _btod_ediv
    bigflt0.o(.text) refers to bigflt0.o(.constdata) for .constdata
    bigflt0.o(.constdata) refers (Special) to usenofp.o(x$fpl$usenofp) for __I$use$fp
    btod.o(CL$$btod_d2e) refers (Special) to usenofp.o(x$fpl$usenofp) for __I$use$fp
    btod.o(CL$$btod_d2e) refers to btod.o(CL$$btod_d2e_norm_op1) for _d2e_norm_op1
    btod.o(CL$$btod_d2e_norm_op1) refers (Special) to usenofp.o(x$fpl$usenofp) for __I$use$fp
    btod.o(CL$$btod_d2e_norm_op1) refers to btod.o(CL$$btod_d2e_denorm_low) for _d2e_denorm_low
    btod.o(CL$$btod_d2e_denorm_low) refers (Special) to usenofp.o(x$fpl$usenofp) for __I$use$fp
    btod.o(CL$$btod_emul) refers (Special) to usenofp.o(x$fpl$usenofp) for __I$use$fp
    btod.o(CL$$btod_emul) refers to btod.o(CL$$btod_mult_common) for __btod_mult_common
    btod.o(CL$$btod_emul) refers to btod.o(CL$$btod_e2e) for _e2e
    btod.o(CL$$btod_ediv) refers (Special) to usenofp.o(x$fpl$usenofp) for __I$use$fp
    btod.o(CL$$btod_ediv) refers to btod.o(CL$$btod_div_common) for __btod_div_common
    btod.o(CL$$btod_ediv) refers to btod.o(CL$$btod_e2e) for _e2e
    btod.o(CL$$btod_emuld) refers (Special) to usenofp.o(x$fpl$usenofp) for __I$use$fp
    btod.o(CL$$btod_emuld) refers to btod.o(CL$$btod_mult_common) for __btod_mult_common
    btod.o(CL$$btod_emuld) refers to btod.o(CL$$btod_e2d) for _e2d
    btod.o(CL$$btod_edivd) refers (Special) to usenofp.o(x$fpl$usenofp) for __I$use$fp
    btod.o(CL$$btod_edivd) refers to btod.o(CL$$btod_div_common) for __btod_div_common
    btod.o(CL$$btod_edivd) refers to btod.o(CL$$btod_e2d) for _e2d
    btod.o(CL$$btod_e2e) refers (Special) to usenofp.o(x$fpl$usenofp) for __I$use$fp
    btod.o(CL$$btod_e2d) refers (Special) to usenofp.o(x$fpl$usenofp) for __I$use$fp
    btod.o(CL$$btod_e2d) refers to btod.o(CL$$btod_e2e) for _e2e
    btod.o(CL$$btod_mult_common) refers (Special) to usenofp.o(x$fpl$usenofp) for __I$use$fp
    btod.o(CL$$btod_div_common) refers (Special) to usenofp.o(x$fpl$usenofp) for __I$use$fp
    fopen.o(.text) refers to fclose.o(.text) for _fclose_internal
    fopen.o(.text) refers to board.o(i._sys_open) for _sys_open
    fopen.o(.text) refers to sys_io.o(.text) for _sys_open
    fopen.o(.text) refers to fseek.o(.text) for _fseek
    fopen.o(.text) refers to h1_alloc.o(.text) for malloc
    fopen.o(.text) refers to rt_memclr_w.o(.text) for __aeabi_memclr4
    fopen.o(.text) refers to board.o(.data) for __stdin
    fopen.o(.text) refers to stdio_streams.o(.bss) for __stdin
    stdio_streams.o(.bss) refers (Special) to initio.o(.text) for _initio
    stdio_streams.o(.bss) refers (Special) to initio.o(.text) for _initio
    stdio_streams.o(.bss) refers (Special) to initio.o(.text) for _initio
    stdio_streams.o(.data) refers (Special) to initio.o(.text) for _initio
    stdio_streams.o(.data) refers (Special) to initio.o(.text) for _initio
    stdio_streams.o(.data) refers (Special) to initio.o(.text) for _initio
    fopen_locked.o(.text) refers to fclose.o(.text) for _fclose_internal
    fopen_locked.o(.text) refers to board.o(i._sys_open) for _sys_open
    fopen_locked.o(.text) refers to sys_io.o(.text) for _sys_open
    fopen_locked.o(.text) refers to fseek.o(.text) for _fseek
    fopen_locked.o(.text) refers to h1_alloc.o(.text) for malloc
    fopen_locked.o(.text) refers to rt_memclr_w.o(.text) for __aeabi_memclr4
    fopen_locked.o(.text) refers to streamlock.o(.data) for _stream_list_lock
    fopen_locked.o(.text) refers to board.o(.data) for __stdin
    fopen_locked.o(.text) refers to stdio_streams.o(.bss) for __stdin
    lc_monetary_c.o(locale$$data) refers (Special) to libinit2.o(.ARM.Collect$$libinit$$00000014) for __rt_lib_init_lc_monetary_2
    lc_monetary_c.o(locale$$code) refers (Special) to libinit2.o(.ARM.Collect$$libinit$$00000014) for __rt_lib_init_lc_monetary_2
    lc_monetary_c.o(locale$$code) refers to strcmpv7m.o(.text) for strcmp
    lc_monetary_c.o(locale$$code) refers to lc_monetary_c.o(locale$$data) for __lcmon_c_name
    lc_numeric_c.o(locale$$data) refers (Special) to libinit2.o(.ARM.Collect$$libinit$$00000016) for __rt_lib_init_lc_numeric_2
    lc_numeric_c.o(locale$$code) refers (Special) to libinit2.o(.ARM.Collect$$libinit$$00000016) for __rt_lib_init_lc_numeric_2
    lc_numeric_c.o(locale$$code) refers to strcmpv7m.o(.text) for strcmp
    lc_numeric_c.o(locale$$code) refers to lc_numeric_c.o(locale$$data) for __lcnum_c_name
    __raise.o(.text) refers to defsig.o(CL$$defsig) for __default_signal_handler
    defsig_general.o(.text) refers to sys_wrch.o(.text) for _ttywrch
    defsig_fpe_inner.o(.text) refers to defsig_general.o(.text) for __default_signal_display
    defsig_rtred_outer.o(.text) refers to defsig_rtred_inner.o(.text) for __rt_SIGRTRED_inner
    defsig_rtred_outer.o(.text) refers to defsig_exit.o(.text) for __sig_exit
    defsig_rtred_formal.o(.text) refers to rt_raise.o(.text) for __rt_raise
    defsig_rtmem_inner.o(.text) refers to defsig_general.o(.text) for __default_signal_display
    array_new_general.o(i.__ARM_array_new_general) refers to array_new.o(i._Znaj) for operator new[] (unsigned)
    array_new_general.o(i.__ARM_array_new_general) refers to ARM_vec_cleanup_noexceptions.o(.text) for __ARM_vec_cleanup
    array_new_general.o(i.__ARM_array_new_general) refers to arm_exceptions_terminate.o(.text) for std::terminate()
    array_new_general.o(i.__ARM_array_new_general) refers to arm_rethrow_noexceptions.o(.text) for __cxa_rethrow
    array_new_general.o(i.__ARM_array_new_general.clean) refers to arm_exceptions_cleanup.o(.emb_text) for __cxa_end_cleanup
