Component: ARM Compiler 5.06 (build 20) Tool: armlink [4d35a3]

==============================================================================

Section Cross References

    raw-os.o(.text) refers to cpu.o(.text) for OS_CPU_SR_Save
    raw-os.o(.text) refers to port_error_process.o(.text) for port_system_error_process
    raw-os.o(.text) refers to raw-os.o(.data) for .data
    raw-os.o(.text) refers to raw-os.o(.bss) for .bss
    raw-os.o(.text) refers to user_extension.o(.text) for raw_memset
    raw-os.o(.text) refers to port.o(.text) for port_stack_init
    raw-os.o(.text) refers to port_hook.o(.text) for task_create_hook
    raw-os.o(.text) refers to port_extension.o(.text) for user_sys_time_get
    raw-os.o(.text) refers to lludivv7m.o(.text) for __aeabi_uldivmod
    fifo.o(.text) refers to cpu.o(.text) for OS_CPU_SR_Save
    fifo.o(.text) refers to user_extension.o(.text) for raw_memcpy
    rsh.o(.text) refers to cpu.o(.text) for OS_CPU_SR_Save
    rsh.o(.text) refers to string.o(.text) for raw_strncmp
    rsh.o(.text) refers to user_extension.o(.text) for raw_memset
    rsh.o(.text) refers to rsh.o(.data) for .data
    rsh.o(.text) refers to rsh.o(.conststring) for .conststring
    rsh.o(.constdata) refers to rsh.o(.conststring) for .conststring
    rsh.o(.constdata) refers to rsh.o(.text) for rsh_help_command
==============================================================================

Removing Unused input sections from the image.

    Removing rsh.o(.text), (472 bytes).
    Removing rsh.o(.constdata), (16 bytes).
    Removing rsh.o(.conststring), (50 bytes).
    Removing rsh.o(.conststring), (173 bytes).
    Removing rsh.o(.data), (20 bytes).
    Removing string.o(.text), (592 bytes).
    Removing sysinit.o(.rev16_text), (4 bytes).
    Removing sysinit.o(.revsh_text), (4 bytes).
    Removing lpc43xx_scu.o(.rev16_text), (4 bytes).
    Removing lpc43xx_scu.o(.revsh_text), (4 bytes).
    Removing lpc43xx_sdram.o(.rev16_text), (4 bytes).
    Removing lpc43xx_sdram.o(.revsh_text), (4 bytes).
    Removing main.o(.rev16_text), (4 bytes).
    Removing main.o(.revsh_text), (4 bytes).
    Removing main.o(.data), (4 bytes).
    Removing main.o(.data), (8 bytes).
    Removing k9f1g08.o(.rev16_text), (4 bytes).
    Removing k9f1g08.o(.revsh_text), (4 bytes).
==============================================================================

Image Symbol Table

    Local Symbols

    Symbol Name                              Value     Ov Type        Size  Object(Section)

    ../../../edgfe/lib_src/newnothrow.c      0x00000000   Number         0  nothrow_obj.o ABSOLUTE
    ../clib/angel/boardlib.s                 0x00000000   Number         0  boardinit1.o ABSOLUTE
    ../clib/angel/boardlib.s                 0x00000000   Number         0  boardinit2.o ABSOLUTE
    ../clib/angel/boardlib.s                 0x00000000   Number         0  boardshut.o ABSOLUTE
    ../clib/angel/boardlib.s                 0x00000000   Number         0  boardinit3.o ABSOLUTE
    ../clib/angel/handlers.s                 0x00000000   Number         0  __scatter_zi.o ABSOLUTE
    ../clib/angel/handlers.s                 0x00000000   Number         0  __scatter_copy.o ABSOLUTE
    ../clib/angel/kernel.s                   0x00000000   Number         0  __rtentry2.o ABSOLUTE
    ../clib/angel/kernel.s                   0x00000000   Number         0  __rtentry4.o ABSOLUTE
    ../clib/angel/kernel.s                   0x00000000   Number         0  rtexit.o ABSOLUTE
    ../clib/angel/kernel.s                   0x00000000   Number         0  rtexit2.o ABSOLUTE
    ../clib/angel/kernel.s                   0x00000000   Number         0  __rtentry.o ABSOLUTE
    ../clib/angel/rt.s                       0x00000000   Number         0  rt_raise.o ABSOLUTE
    ../clib/angel/rt.s                       0x00000000   Number         0  aeabi_ldiv0_sigfpe.o ABSOLUTE
    ../clib/angel/rt.s                       0x00000000   Number         0  aeabi_ldiv0.o ABSOLUTE
    ../clib/angel/rt.s                       0x00000000   Number         0  rt_div0.o ABSOLUTE
    ../clib/angel/scatter.s                  0x00000000   Number         0  __scatter.o ABSOLUTE
    ../clib/angel/startup.s                  0x00000000   Number         0  __main.o ABSOLUTE
    ../clib/angel/sys.s                      0x00000000   Number         0  libspace.o ABSOLUTE
    ../clib/angel/sys.s                      0x00000000   Number         0  use_no_semi.o ABSOLUTE
    ../clib/angel/sys.s                      0x00000000   Number         0  indicate_semi.o ABSOLUTE
    ../clib/angel/sys.s                      0x00000000   Number         0  sys_stackheap_outer.o ABSOLUTE
    ../clib/angel/sysapp.c                   0x00000000   Number         0  sys_wrch.o ABSOLUTE
    ../clib/angel/sysapp.c                   0x00000000   Number         0  sys_command.o ABSOLUTE
    ../clib/armsys.c                         0x00000000   Number         0  no_argv.o ABSOLUTE
    ../clib/armsys.c                         0x00000000   Number         0  _get_argv_nomalloc.o ABSOLUTE
    ../clib/armsys.c                         0x00000000   Number         0  argv_veneer.o ABSOLUTE
    ../clib/armsys.c                         0x00000000   Number         0  argv_veneer.o ABSOLUTE
    ../clib/heapalloc.c                      0x00000000   Number         0  hrguard.o ABSOLUTE
    ../clib/heapaux.c                        0x00000000   Number         0  heapauxi.o ABSOLUTE
    ../clib/libinit.s                        0x00000000   Number         0  libinit2.o ABSOLUTE
    ../clib/libinit.s                        0x00000000   Number         0  libinit.o ABSOLUTE
    ../clib/libinit.s                        0x00000000   Number         0  libshutdown.o ABSOLUTE
    ../clib/libinit.s                        0x00000000   Number         0  libshutdown2.o ABSOLUTE
    ../clib/longlong.s                       0x00000000   Number         0  lludivv7m.o ABSOLUTE
    ../clib/longlong.s                       0x00000000   Number         0  lludiv10.o ABSOLUTE
    ../clib/memcpset.s                       0x00000000   Number         0  rt_memcpy_v6.o ABSOLUTE
    ../clib/memcpset.s                       0x00000000   Number         0  rt_memcpy_w.o ABSOLUTE
    ../clib/memcpset.s                       0x00000000   Number         0  strncpy.o ABSOLUTE
    ../clib/memcpset.s                       0x00000000   Number         0  aeabi_memset.o ABSOLUTE
    ../clib/memcpset.s                       0x00000000   Number         0  strcmpv7m.o ABSOLUTE
    ../clib/memcpset.s                       0x00000000   Number         0  rt_memclr.o ABSOLUTE
    ../clib/memcpset.s                       0x00000000   Number         0  rt_memclr_w.o ABSOLUTE
    ../clib/misc.s                           0x00000000   Number         0  printf_stubs.o ABSOLUTE
    ../clib/printf.c                         0x00000000   Number         0  _printf_pad.o ABSOLUTE
    ../clib/printf.c                         0x00000000   Number         0  noretval__2printf.o ABSOLUTE
    ../clib/printf.c                         0x00000000   Number         0  __2printf.o ABSOLUTE
    ../clib/printf.c                         0x00000000   Number         0  __printf_ss_wp.o ABSOLUTE
    ../clib/printf.c                         0x00000000   Number         0  _printf_dec.o ABSOLUTE
    ../clib/printf.c                         0x00000000   Number         0  _printf_longlong_dec.o ABSOLUTE
    ../clib/printf.c                         0x00000000   Number         0  _printf_hex_int.o ABSOLUTE
    ../clib/printf.c                         0x00000000   Number         0  _printf_hex_int_ll.o ABSOLUTE
    ../clib/printf.c                         0x00000000   Number         0  _printf_hex_ptr.o ABSOLUTE
    ../clib/printf.c                         0x00000000   Number         0  _printf_hex_int_ptr.o ABSOLUTE
    ../clib/printf.c                         0x00000000   Number         0  _printf_hex_ll_ptr.o ABSOLUTE
    ../clib/printf.c                         0x00000000   Number         0  _printf_hex_int_ll_ptr.o ABSOLUTE
    ../clib/printf.c                         0x00000000   Number         0  __printf_flags.o ABSOLUTE
    ../clib/printf.c                         0x00000000   Number         0  __printf_flags_wp.o ABSOLUTE
    ../clib/printf.c                         0x00000000   Number         0  __printf.o ABSOLUTE
    ../clib/printf.c                         0x00000000   Number         0  _printf_str.o ABSOLUTE
    ../clib/printf.c                         0x00000000   Number         0  __printf_wp.o ABSOLUTE
    ../clib/printf.c                         0x00000000   Number         0  _printf_char_common.o ABSOLUTE
    ../clib/printf.c                         0x00000000   Number         0  __printf_flags_ss.o ABSOLUTE
    ../clib/printf.c                         0x00000000   Number         0  __printf_nopercent.o ABSOLUTE
    ../clib/printf.c                         0x00000000   Number         0  _printf_hex_ll.o ABSOLUTE
    ../clib/printf.c                         0x00000000   Number         0  _printf_intcommon.o ABSOLUTE
    ../clib/printf.c                         0x00000000   Number         0  _printf_char.o ABSOLUTE
    ../clib/printf.c                         0x00000000   Number         0  _printf_char_file.o ABSOLUTE
    ../clib/printf.c                         0x00000000   Number         0  __printf_flags_ss_wp.o ABSOLUTE
    ../clib/printf.c                         0x00000000   Number         0  __printf_ss.o ABSOLUTE
    ../clib/printf_percent.s                 0x00000000   Number         0  _printf_percent.o ABSOLUTE
    ../clib/printf_percent.s                 0x00000000   Number         0  _printf_u.o ABSOLUTE
    ../clib/printf_percent.s                 0x00000000   Number         0  _printf_s.o ABSOLUTE
    ../clib/printf_percent.s                 0x00000000   Number         0  _printf_ll.o ABSOLUTE
    ../clib/printf_percent.s                 0x00000000   Number         0  _printf_p.o ABSOLUTE
    ../clib/printf_percent.s                 0x00000000   Number         0  _printf_d.o ABSOLUTE
    ../clib/printf_percent.s                 0x00000000   Number         0  _printf_percent_end.o ABSOLUTE
    ../clib/printf_percent.s                 0x00000000   Number         0  _printf_x.o ABSOLUTE
    ../clib/printf_percent.s                 0x00000000   Number         0  _printf_lld.o ABSOLUTE
    ../clib/signal.c                         0x00000000   Number         0  defsig_fpe_inner.o ABSOLUTE
    ../clib/signal.c                         0x00000000   Number         0  defsig_exit.o ABSOLUTE
    ../clib/signal.c                         0x00000000   Number         0  defsig_rtred_inner.o ABSOLUTE
    ../clib/signal.c                         0x00000000   Number         0  defsig_abrt_inner.o ABSOLUTE
    ../clib/signal.c                         0x00000000   Number         0  defsig_rtmem_outer.o ABSOLUTE
    ../clib/signal.c                         0x00000000   Number         0  defsig_rtmem_inner.o ABSOLUTE
    ../clib/signal.c                         0x00000000   Number         0  defsig_pvfn_inner.o ABSOLUTE
    ../clib/signal.c                         0x00000000   Number         0  defsig_cppl_inner.o ABSOLUTE
    ../clib/signal.c                         0x00000000   Number         0  defsig_segv_inner.o ABSOLUTE
    ../clib/signal.c                         0x00000000   Number         0  defsig_other.o ABSOLUTE
    ../clib/signal.c                         0x00000000   Number         0  defsig_rtmem_formal.o ABSOLUTE
    ../clib/signal.c                         0x00000000   Number         0  defsig_stak_inner.o ABSOLUTE
    ../clib/signal.c                         0x00000000   Number         0  __raise.o ABSOLUTE
    ../clib/signal.c                         0x00000000   Number         0  defsig_fpe_outer.o ABSOLUTE
    ../clib/signal.c                         0x00000000   Number         0  defsig_fpe_formal.o ABSOLUTE
    ../clib/signal.c                         0x00000000   Number         0  defsig_general.o ABSOLUTE
    ../clib/signal.s                         0x00000000   Number         0  defsig.o ABSOLUTE
    ../clib/stdlib.c                         0x00000000   Number         0  exit.o ABSOLUTE
    ../clib/string.c                         0x00000000   Number         0  strcpy.o ABSOLUTE
    ../clib/string.c                         0x00000000   Number         0  strncmp.o ABSOLUTE
    ../clib/string.c                         0x00000000   Number         0  strcat.o ABSOLUTE
    ../clib/string.c                         0x00000000   Number         0  memcmp.o ABSOLUTE
    ../fplib/fpinit.s                        0x00000000   Number         0  fpinit.o ABSOLUTE
    ..\..\..\..\software\common\k9f1g08.c    0x00000000   Number         0  k9f1g08.o ABSOLUTE
    ..\..\..\..\software\common\lpc43xx_gpio.c 0x00000000   Number         0  lpc43xx_gpio.o ABSOLUTE
    ..\..\..\..\software\common\lpc43xx_scu.c 0x00000000   Number         0  lpc43xx_scu.o ABSOLUTE
    ..\..\..\..\software\common\lpc43xx_sdram.c 0x00000000   Number         0  lpc43xx_sdram.o ABSOLUTE
    ..\..\..\..\software\common\yaffs_port_nand_drv.c 0x00000000   Number         0  yaffs_port_nand_drv.o ABSOLUTE
    ..\..\..\..\software\filesystems\yaffs2\direct\test-framework\yaffs_osglue.c 0x00000000   Number         0  yaffs_osglue.o ABSOLUTE
    ..\..\..\..\software\filesystems\yaffs2\direct\test-framework\yaffscfg2k.c 0x00000000   Number         0  yaffscfg2k.o ABSOLUTE
    ..\..\..\..\software\filesystems\yaffs2\direct\yaffs_attribs.c 0x00000000   Number         0  yaffs_attribs.o ABSOLUTE
    ..\..\..\..\software\filesystems\yaffs2\direct\yaffs_error.c 0x00000000   Number         0  yaffs_error.o ABSOLUTE
    ..\..\..\..\software\filesystems\yaffs2\direct\yaffs_hweight.c 0x00000000   Number         0  yaffs_hweight.o ABSOLUTE
    ..\..\..\..\software\filesystems\yaffs2\direct\yaffs_qsort.c 0x00000000   Number         0  yaffs_qsort.o ABSOLUTE
    ..\..\..\..\software\filesystems\yaffs2\direct\yaffs_startup.c 0x00000000   Number         0  yaffs_startup.o ABSOLUTE
    ..\..\..\..\software\filesystems\yaffs2\direct\yaffsfs.c 0x00000000   Number         0  yaffsfs.o ABSOLUTE
    ..\..\..\..\software\filesystems\yaffs2\yaffs_allocator.c 0x00000000   Number         0  yaffs_allocator.o ABSOLUTE
    ..\..\..\..\software\filesystems\yaffs2\yaffs_bitmap.c 0x00000000   Number         0  yaffs_bitmap.o ABSOLUTE
    ..\..\..\..\software\filesystems\yaffs2\yaffs_checkptrw.c 0x00000000   Number         0  yaffs_checkptrw.o ABSOLUTE
    ..\..\..\..\software\filesystems\yaffs2\yaffs_ecc.c 0x00000000   Number         0  yaffs_ecc.o ABSOLUTE
    ..\..\..\..\software\filesystems\yaffs2\yaffs_guts.c 0x00000000   Number         0  yaffs_guts.o ABSOLUTE
    ..\..\..\..\software\filesystems\yaffs2\yaffs_nameval.c 0x00000000   Number         0  yaffs_nameval.o ABSOLUTE
    ..\..\..\..\software\filesystems\yaffs2\yaffs_nand.c 0x00000000   Number         0  yaffs_nand.o ABSOLUTE
    ..\..\..\..\software\filesystems\yaffs2\yaffs_packedtags1.c 0x00000000   Number         0  yaffs_packedtags1.o ABSOLUTE
    ..\..\..\..\software\filesystems\yaffs2\yaffs_packedtags2.c 0x00000000   Number         0  yaffs_packedtags2.o ABSOLUTE
    ..\..\..\..\software\filesystems\yaffs2\yaffs_summary.c 0x00000000   Number         0  yaffs_summary.o ABSOLUTE
    ..\..\..\..\software\filesystems\yaffs2\yaffs_tagscompat.c 0x00000000   Number         0  yaffs_tagscompat.o ABSOLUTE
    ..\..\..\..\software\filesystems\yaffs2\yaffs_tagsmarshall.c 0x00000000   Number         0  yaffs_tagsmarshall.o ABSOLUTE
    ..\..\..\..\software\filesystems\yaffs2\yaffs_verify.c 0x00000000   Number         0  yaffs_verify.o ABSOLUTE
    ..\..\..\..\software\filesystems\yaffs2\yaffs_yaffs1.c 0x00000000   Number         0  yaffs_yaffs1.o ABSOLUTE
    ..\..\..\..\software\filesystems\yaffs2\yaffs_yaffs2.c 0x00000000   Number         0  yaffs_yaffs2.o ABSOLUTE
    ..\..\..\..\software\kernel\port\cpu.asm 0x00000000   Number         0  cpu.o ABSOLUTE
    ..\..\..\..\software\kernel\port\port.c  0x00000000   Number         0  port.o ABSOLUTE
    ..\..\..\..\software\kernel\port\port_error_process.c 0x00000000   Number         0  port_error_process.o ABSOLUTE
    ..\..\..\..\software\kernel\port\port_extension.c 0x00000000   Number         0  port_extension.o ABSOLUTE
    ..\..\..\..\software\kernel\port\port_hook.c 0x00000000   Number         0  port_hook.o ABSOLUTE
    ..\..\..\..\software\kernel\port\raw_trace_port.c 0x00000000   Number         0  raw_trace_port.o ABSOLUTE
    ..\..\..\..\software\kernel\port\user_extension.c 0x00000000   Number         0  user_extension.o ABSOLUTE
    ..\..\..\..\software\kernel\raw-os\extension\lib\fifo.c 0x00000000   Number         0  fifo.o ABSOLUTE
    ..\..\..\..\software\kernel\raw-os\extension\lib\string.c 0x00000000   Number         0  string.o ABSOLUTE
    ..\..\..\..\software\kernel\raw-os\extension\mm\raw_malloc.c 0x00000000   Number         0  raw_malloc.o ABSOLUTE
    ..\..\..\..\software\kernel\raw-os\extension\mm\raw_page.c 0x00000000   Number         0  raw_page.o ABSOLUTE
    ..\..\..\..\software\kernel\raw-os\extension\shell\rsh.c 0x00000000   Number         0  rsh.o ABSOLUTE
    ..\..\..\..\software\kernel\raw-os\raw-os.c 0x00000000   Number         0  raw-os.o ABSOLUTE
    ..\..\..\..\software\runtime\new.cpp     0x00000000   Number         0  new.o ABSOLUTE
    ..\..\..\..\software\runtime\test.cpp    0x00000000   Number         0  test.o ABSOLUTE
    ..\..\board_common\uda1380.c             0x00000000   Number         0  uda1380.o ABSOLUTE
    ..\..\examples\yaffs2\main.c             0x00000000   Number         0  main.o ABSOLUTE
    ..\..\startup_code\keil_startup_lpc18xx43xx.s 0x00000000   Number         0  keil_startup_lpc18xx43xx.o ABSOLUTE
    ..\..\startup_code\sysinit.c             0x00000000   Number         0  sysinit.o ABSOLUTE
    ..\\..\\..\\..\\software\\common\\k9f1g08.c 0x00000000   Number         0  k9f1g08.o ABSOLUTE
    ..\\..\\..\\..\\software\\common\\lpc43xx_gpio.c 0x00000000   Number         0  lpc43xx_gpio.o ABSOLUTE
    ..\\..\\..\\..\\software\\common\\lpc43xx_scu.c 0x00000000   Number         0  lpc43xx_scu.o ABSOLUTE
    ..\\..\\..\\..\\software\\common\\lpc43xx_sdram.c 0x00000000   Number         0  lpc43xx_sdram.o ABSOLUTE
    ..\\..\\board_common\\uda1380.c          0x00000000   Number         0  uda1380.o ABSOLUTE
    ..\\..\\examples\\yaffs2\\main.c         0x00000000   Number         0  main.o ABSOLUTE
    ..\\..\\startup_code\\sysinit.c          0x00000000   Number         0  sysinit.o ABSOLUTE
    ..\\chip_common\\fpu_init.c              0x00000000   Number         0  fpu_init.o ABSOLUTE
    ..\chip_common\fpu_init.c                0x00000000   Number         0  fpu_init.o ABSOLUTE
    ..\chip_common\ring_buffer.c             0x00000000   Number         0  ring_buffer.o ABSOLUTE
    board.c                                  0x00000000   Number         0  board.o ABSOLUTE
    board.c                                  0x00000000   Number         0  board.o ABSOLUTE
    board_sysinit.c                          0x00000000   Number         0  board_sysinit.o ABSOLUTE
    board_sysinit.c                          0x00000000   Number         0  board_sysinit.o ABSOLUTE
    chip_18xx_43xx.c                         0x00000000   Number         0  chip_18xx_43xx.o ABSOLUTE
    chip_18xx_43xx.c                         0x00000000   Number         0  chip_18xx_43xx.o ABSOLUTE
    clock_18xx_43xx.c                        0x00000000   Number         0  clock_18xx_43xx.o ABSOLUTE
    clock_18xx_43xx.c                        0x00000000   Number         0  clock_18xx_43xx.o ABSOLUTE
    dc.s                                     0x00000000   Number         0  dc.o ABSOLUTE
    emc_18xx_43xx.c                          0x00000000   Number         0  emc_18xx_43xx.o ABSOLUTE
    emc_18xx_43xx.c                          0x00000000   Number         0  emc_18xx_43xx.o ABSOLUTE
    gpio_18xx_43xx.c                         0x00000000   Number         0  gpio_18xx_43xx.o ABSOLUTE
    gpio_18xx_43xx.c                         0x00000000   Number         0  gpio_18xx_43xx.o ABSOLUTE
    i2c_18xx_43xx.c                          0x00000000   Number         0  i2c_18xx_43xx.o ABSOLUTE
    i2c_18xx_43xx.c                          0x00000000   Number         0  i2c_18xx_43xx.o ABSOLUTE
    i2s_18xx_43xx.c                          0x00000000   Number         0  i2s_18xx_43xx.o ABSOLUTE
    i2s_18xx_43xx.c                          0x00000000   Number         0  i2s_18xx_43xx.o ABSOLUTE
    rgu_18xx_43xx.c                          0x00000000   Number         0  rgu_18xx_43xx.o ABSOLUTE
    rgu_18xx_43xx.c                          0x00000000   Number         0  rgu_18xx_43xx.o ABSOLUTE
    ssp_18xx_43xx.c                          0x00000000   Number         0  ssp_18xx_43xx.o ABSOLUTE
    ssp_18xx_43xx.c                          0x00000000   Number         0  ssp_18xx_43xx.o ABSOLUTE
    sysinit_18xx_43xx.c                      0x00000000   Number         0  sysinit_18xx_43xx.o ABSOLUTE
    sysinit_18xx_43xx.c                      0x00000000   Number         0  sysinit_18xx_43xx.o ABSOLUTE
    uart_18xx_43xx.c                         0x00000000   Number         0  uart_18xx_43xx.o ABSOLUTE
    uart_18xx_43xx.c                         0x00000000   Number         0  uart_18xx_43xx.o ABSOLUTE
    .data                                    0x10000000   Section       56  raw-os.o(.data)
    .data                                    0x10000038   Section        4  raw_malloc.o(.data)
    .data                                    0x1000003c   Section       12  k9f1g08.o(.data)
    .data                                    0x10000048   Section       20  board.o(.data)
    .data                                    0x1000005c   Section        4  chip_18xx_43xx.o(.data)
    .data                                    0x10000060   Section        8  clock_18xx_43xx.o(.data)
    audio_usb_pll_freq                       0x10000060   Data           8  clock_18xx_43xx.o(.data)
    .data                                    0x10000068   Section       56  i2c_18xx_43xx.o(.data)
    i2c                                      0x10000068   Data          56  i2c_18xx_43xx.o(.data)
    .bss                                     0x100000a0   Section     3548  raw-os.o(.bss)
    .bss                                     0x10000e80   Section       80  raw_malloc.o(.bss)
    malloc_macb                              0x10000e80   Data          80  raw_malloc.o(.bss)
    .bss                                     0x10000ed0   Section       56  raw_page.o(.bss)
    system_page_table                        0x10000ed0   Data          56  raw_page.o(.bss)
    .bss                                     0x10000f08   Section     1932  main.o(.bss)
    fifo_buffer                              0x10001614   Data         128  main.o(.bss)
    .bss                                     0x10001694   Section       96  libspace.o(.bss)
    HEAP                                     0x100016f8   Section      256  keil_startup_lpc18xx43xx.o(HEAP)
    Heap_Mem                                 0x100016f8   Data         256  keil_startup_lpc18xx43xx.o(HEAP)
    STACK                                    0x100017f8   Section     1536  keil_startup_lpc18xx43xx.o(STACK)
    __initial_sp                             0x10001df8   Data           0  keil_startup_lpc18xx43xx.o(STACK)
    RESET                                    0x1a000000   Section      276  keil_startup_lpc18xx43xx.o(RESET)
    !!!main                                  0x1a000114   Section        8  __main.o(!!!main)
    !!!scatter                               0x1a00011c   Section       52  __scatter.o(!!!scatter)
    !!handler_copy                           0x1a000150   Section       26  __scatter_copy.o(!!handler_copy)
    !!handler_zi                             0x1a00016c   Section       28  __scatter_zi.o(!!handler_zi)
    .ARM.Collect$$_printf_percent$$00000000  0x1a000188   Section        0  _printf_percent.o(.ARM.Collect$$_printf_percent$$00000000)
    .ARM.Collect$$_printf_percent$$00000009  0x1a000188   Section        6  _printf_d.o(.ARM.Collect$$_printf_percent$$00000009)
    .ARM.Collect$$_printf_percent$$0000000C  0x1a00018e   Section        6  _printf_x.o(.ARM.Collect$$_printf_percent$$0000000C)
    .ARM.Collect$$_printf_percent$$00000017  0x1a000194   Section        4  _printf_percent_end.o(.ARM.Collect$$_printf_percent$$00000017)
    .ARM.Collect$$libinit$$00000000          0x1a000198   Section        2  libinit.o(.ARM.Collect$$libinit$$00000000)
    .ARM.Collect$$libinit$$00000001          0x1a00019a   Section        4  libinit2.o(.ARM.Collect$$libinit$$00000001)
    .ARM.Collect$$libinit$$00000004          0x1a00019e   Section        0  libinit2.o(.ARM.Collect$$libinit$$00000004)
    .ARM.Collect$$libinit$$0000000A          0x1a00019e   Section        0  libinit2.o(.ARM.Collect$$libinit$$0000000A)
    .ARM.Collect$$libinit$$0000000C          0x1a00019e   Section        0  libinit2.o(.ARM.Collect$$libinit$$0000000C)
    .ARM.Collect$$libinit$$0000000E          0x1a00019e   Section        0  libinit2.o(.ARM.Collect$$libinit$$0000000E)
    .ARM.Collect$$libinit$$00000011          0x1a00019e   Section        0  libinit2.o(.ARM.Collect$$libinit$$00000011)
    .ARM.Collect$$libinit$$00000013          0x1a00019e   Section        0  libinit2.o(.ARM.Collect$$libinit$$00000013)
    .ARM.Collect$$libinit$$00000015          0x1a00019e   Section        0  libinit2.o(.ARM.Collect$$libinit$$00000015)
    .ARM.Collect$$libinit$$00000017          0x1a00019e   Section        0  libinit2.o(.ARM.Collect$$libinit$$00000017)
    .ARM.Collect$$libinit$$00000019          0x1a00019e   Section        0  libinit2.o(.ARM.Collect$$libinit$$00000019)
    .ARM.Collect$$libinit$$0000001B          0x1a00019e   Section        0  libinit2.o(.ARM.Collect$$libinit$$0000001B)
    .ARM.Collect$$libinit$$0000001D          0x1a00019e   Section        0  libinit2.o(.ARM.Collect$$libinit$$0000001D)
    .ARM.Collect$$libinit$$0000001F          0x1a00019e   Section        0  libinit2.o(.ARM.Collect$$libinit$$0000001F)
    .ARM.Collect$$libinit$$00000021          0x1a00019e   Section        0  libinit2.o(.ARM.Collect$$libinit$$00000021)
    .ARM.Collect$$libinit$$00000023          0x1a00019e   Section        0  libinit2.o(.ARM.Collect$$libinit$$00000023)
    .ARM.Collect$$libinit$$00000025          0x1a00019e   Section        0  libinit2.o(.ARM.Collect$$libinit$$00000025)
    .ARM.Collect$$libinit$$0000002C          0x1a00019e   Section        0  libinit2.o(.ARM.Collect$$libinit$$0000002C)
    .ARM.Collect$$libinit$$0000002E          0x1a00019e   Section        0  libinit2.o(.ARM.Collect$$libinit$$0000002E)
    .ARM.Collect$$libinit$$00000030          0x1a00019e   Section        0  libinit2.o(.ARM.Collect$$libinit$$00000030)
    .ARM.Collect$$libinit$$00000032          0x1a00019e   Section        0  libinit2.o(.ARM.Collect$$libinit$$00000032)
    .ARM.Collect$$libinit$$00000033          0x1a00019e   Section        2  libinit2.o(.ARM.Collect$$libinit$$00000033)
    .ARM.Collect$$libshutdown$$00000000      0x1a0001a0   Section        2  libshutdown.o(.ARM.Collect$$libshutdown$$00000000)
    .ARM.Collect$$libshutdown$$00000002      0x1a0001a2   Section        0  libshutdown2.o(.ARM.Collect$$libshutdown$$00000002)
    .ARM.Collect$$libshutdown$$00000004      0x1a0001a2   Section        0  libshutdown2.o(.ARM.Collect$$libshutdown$$00000004)
    .ARM.Collect$$libshutdown$$00000007      0x1a0001a2   Section        0  libshutdown2.o(.ARM.Collect$$libshutdown$$00000007)
    .ARM.Collect$$libshutdown$$0000000A      0x1a0001a2   Section        0  libshutdown2.o(.ARM.Collect$$libshutdown$$0000000A)
    .ARM.Collect$$libshutdown$$0000000C      0x1a0001a2   Section        0  libshutdown2.o(.ARM.Collect$$libshutdown$$0000000C)
    .ARM.Collect$$libshutdown$$0000000F      0x1a0001a2   Section        0  libshutdown2.o(.ARM.Collect$$libshutdown$$0000000F)
    .ARM.Collect$$libshutdown$$00000010      0x1a0001a2   Section        2  libshutdown2.o(.ARM.Collect$$libshutdown$$00000010)
    .ARM.Collect$$rtentry$$00000000          0x1a0001a4   Section        0  __rtentry.o(.ARM.Collect$$rtentry$$00000000)
    .ARM.Collect$$rtentry$$00000002          0x1a0001a4   Section        0  __rtentry2.o(.ARM.Collect$$rtentry$$00000002)
    .ARM.Collect$$rtentry$$00000004          0x1a0001a4   Section        6  __rtentry4.o(.ARM.Collect$$rtentry$$00000004)
    .ARM.Collect$$rtentry$$00000009          0x1a0001aa   Section        0  __rtentry2.o(.ARM.Collect$$rtentry$$00000009)
    .ARM.Collect$$rtentry$$0000000A          0x1a0001aa   Section        4  __rtentry2.o(.ARM.Collect$$rtentry$$0000000A)
    .ARM.Collect$$rtentry$$0000000C          0x1a0001ae   Section        0  __rtentry2.o(.ARM.Collect$$rtentry$$0000000C)
    .ARM.Collect$$rtentry$$0000000D          0x1a0001ae   Section        8  __rtentry2.o(.ARM.Collect$$rtentry$$0000000D)
    .ARM.Collect$$rtexit$$00000000           0x1a0001b6   Section        2  rtexit.o(.ARM.Collect$$rtexit$$00000000)
    .ARM.Collect$$rtexit$$00000002           0x1a0001b8   Section        0  rtexit2.o(.ARM.Collect$$rtexit$$00000002)
    .ARM.Collect$$rtexit$$00000003           0x1a0001b8   Section        4  rtexit2.o(.ARM.Collect$$rtexit$$00000003)
    .ARM.Collect$$rtexit$$00000004           0x1a0001bc   Section        6  rtexit2.o(.ARM.Collect$$rtexit$$00000004)
    .text                                    0x1a0001c4   Section        0  raw-os.o(.text)
    tick_task_process                        0x1a000729   Thumb Code    28  raw-os.o(.text)
    pend_task_wake_up                        0x1a0008c9   Thumb Code    96  raw-os.o(.text)
    is_list_empty                            0x1a0029b1   Thumb Code    14  raw-os.o(.text)
    list_insert                              0x1a0029bf   Thumb Code    14  raw-os.o(.text)
    list_delete                              0x1a0029cd   Thumb Code    12  raw-os.o(.text)
    add_to_priority_list                     0x1a0029d9   Thumb Code    30  raw-os.o(.text)
    bit_set                                  0x1a0029f7   Thumb Code    20  raw-os.o(.text)
    release_mutex                            0x1a002a0b   Thumb Code    30  raw-os.o(.text)
    timer_list_remove                        0x1a002a29   Thumb Code    22  raw-os.o(.text)
    timer_list_priority_insert               0x1a002a3f   Thumb Code    32  raw-os.o(.text)
    raw_byte_pool_search                     0x1a002a5f   Thumb Code   188  raw-os.o(.text)
    .text                                    0x1a002b2c   Section        0  fifo.o(.text)
    internal_fifo_out_peek                   0x1a002bcd   Thumb Code    62  fifo.o(.text)
    .text                                    0x1a002ca0   Section        0  raw_malloc.o(.text)
    chkalloc_test                            0x1a002ca1   Thumb Code   210  raw_malloc.o(.text)
    removeFreeQue                            0x1a002df7   Thumb Code    68  raw_malloc.o(.text)
    allocate                                 0x1a002e3b   Thumb Code    58  raw_malloc.o(.text)
    _mem_malloc                              0x1a002e75   Thumb Code   172  raw_malloc.o(.text)
    _mem_free                                0x1a002f21   Thumb Code   134  raw_malloc.o(.text)
    list_insert                              0x1a003189   Thumb Code    14  raw_malloc.o(.text)
    insertAreaQue                            0x1a003197   Thumb Code    22  raw_malloc.o(.text)
    removeAreaQue                            0x1a0031ad   Thumb Code    24  raw_malloc.o(.text)
    _mem_realloc                             0x1a0031c5   Thumb Code   174  raw_malloc.o(.text)
    .text                                    0x1a003278   Section        0  raw_page.o(.text)
    remove_free_page                         0x1a003279   Thumb Code    52  raw_page.o(.text)
    search_free_page                         0x1a0032ad   Thumb Code    50  raw_page.o(.text)
    add_page_to_pool                         0x1a0032df   Thumb Code   168  raw_page.o(.text)
    set_page_attr                            0x1a003481   Thumb Code    20  raw_page.o(.text)
    get_pages                                0x1a003495   Thumb Code    90  raw_page.o(.text)
    free_pages                               0x1a0034ef   Thumb Code   178  raw_page.o(.text)
    set_page_used                            0x1a0035a1   Thumb Code   142  raw_page.o(.text)
    .text                                    0x1a003650   Section      172  cpu.o(.text)
    $v0                                      0x1a003650   Number         0  cpu.o(.text)
    .text                                    0x1a0036fc   Section        0  port.o(.text)
    .text                                    0x1a0038b0   Section        0  port_hook.o(.text)
    .text                                    0x1a0038ce   Section        0  user_extension.o(.text)
    .text                                    0x1a003956   Section        0  port_error_process.o(.text)
    .text                                    0x1a0039b0   Section        0  port_extension.o(.text)
    .text                                    0x1a0039e0   Section       68  keil_startup_lpc18xx43xx.o(.text)
    $v0                                      0x1a0039e0   Number         0  keil_startup_lpc18xx43xx.o(.text)
    .text                                    0x1a003a24   Section        0  sysinit.o(.text)
    .text                                    0x1a003a40   Section        0  lpc43xx_scu.o(.text)
    .text                                    0x1a003a54   Section        0  lpc43xx_sdram.o(.text)
    .text                                    0x1a003eb0   Section        0  main.o(.text)
    NVIC_EnableIRQ                           0x1a004043   Thumb Code    22  main.o(.text)
    NVIC_SetPriority                         0x1a004059   Thumb Code    32  main.o(.text)
    .text                                    0x1a00409c   Section        0  k9f1g08.o(.text)
    k9f_state_read                           0x1a00411f   Thumb Code    36  k9f1g08.o(.text)
    k9f_busy_wait                            0x1a0043fb   Thumb Code    22  k9f1g08.o(.text)
    .text                                    0x1a004418   Section        0  lpc43xx_gpio.o(.text)
    .text                                    0x1a004458   Section        0  new.o(.text)
    .text                                    0x1a004478   Section        0  test.o(.text)
    .text                                    0x1a004510   Section        0  board.o(.text)
    delay                                    0x1a004579   Thumb Code    12  board.o(.text)
    Board_Audio_CodecInit                    0x1a004585   Thumb Code    32  board.o(.text)
    writeLCD00_16                            0x1a0045a5   Thumb Code    58  board.o(.text)
    writeLCD01_16                            0x1a0045df   Thumb Code    72  board.o(.text)
    writeLCDReg                              0x1a004627   Thumb Code    20  board.o(.text)
    pinConfig                                0x1a00463b   Thumb Code    14  board.o(.text)
    writeTSCReg                              0x1a004649   Thumb Code    28  board.o(.text)
    readTSCReg                               0x1a004665   Thumb Code    24  board.o(.text)
    detectTSCTouch                           0x1a00467d   Thumb Code    36  board.o(.text)
    getTSCCoord                              0x1a0046a1   Thumb Code   114  board.o(.text)
    Board_LED_Init                           0x1a0047ab   Thumb Code    28  board.o(.text)
    Chip_SCU_PinMuxSet                       0x1a004f2d   Thumb Code    12  board.o(.text)
    Chip_GPIO_SetPinState                    0x1a004f39   Thumb Code    10  board.o(.text)
    Chip_GPIO_GetPinState                    0x1a004f43   Thumb Code    18  board.o(.text)
    Chip_GPIO_SetPinDIROutput                0x1a004f55   Thumb Code    72  board.o(.text)
    Chip_GPIO_SetPinDIRInput                 0x1a004f9d   Thumb Code    28  board.o(.text)
    .text                                    0x1a004fb8   Section        0  board_sysinit.o(.text)
    Chip_SCU_SetPinMuxing                    0x1a004fb9   Thumb Code    44  board_sysinit.o(.text)
    .text                                    0x1a005154   Section        0  uda1380.o(.text)
    Audio_Codec_SetDefaultValues             0x1a0051bb   Thumb Code    36  uda1380.o(.text)
    .text                                    0x1a0052d8   Section      238  lludivv7m.o(.text)
    .text                                    0x1a0053c8   Section        0  noretval__2printf.o(.text)
    .text                                    0x1a0053e0   Section        0  _printf_pad.o(.text)
    .text                                    0x1a005430   Section        0  _printf_dec.o(.text)
    .text                                    0x1a0054a8   Section        0  _printf_hex_int_ptr.o(.text)
    _printf_hex_common                       0x1a0054a9   Thumb Code     0  _printf_hex_int_ptr.o(.text)
    .text                                    0x1a005524   Section        0  __printf_flags_ss_wp.o(.text)
    .text                                    0x1a0056ac   Section       78  rt_memclr_w.o(.text)
    .text                                    0x1a0056fa   Section        0  heapauxi.o(.text)
    .text                                    0x1a005700   Section        0  _printf_intcommon.o(.text)
    .text                                    0x1a0057b4   Section        0  _printf_char_file.o(.text)
    .text                                    0x1a0057d8   Section        0  _printf_char_common.o(.text)
    _printf_input_char                       0x1a0057d9   Thumb Code    10  _printf_char_common.o(.text)
    .text                                    0x1a005808   Section       74  sys_stackheap_outer.o(.text)
    .text                                    0x1a005852   Section        0  exit.o(.text)
    .text                                    0x1a005864   Section        8  libspace.o(.text)
    i.Chip_Clock_Enable                      0x1a00586c   Section        0  clock_18xx_43xx.o(i.Chip_Clock_Enable)
    i.Chip_Clock_EnableOpts                  0x1a0058a4   Section        0  clock_18xx_43xx.o(i.Chip_Clock_EnableOpts)
    i.Chip_Clock_FindBaseClock               0x1a0058e0   Section        0  clock_18xx_43xx.o(i.Chip_Clock_FindBaseClock)
    Chip_Clock_FindBaseClock                 0x1a0058e1   Thumb Code    74  clock_18xx_43xx.o(i.Chip_Clock_FindBaseClock)
    i.Chip_Clock_GetBaseClock                0x1a005930   Section        0  clock_18xx_43xx.o(i.Chip_Clock_GetBaseClock)
    i.Chip_Clock_GetBaseClocktHz             0x1a005954   Section        0  clock_18xx_43xx.o(i.Chip_Clock_GetBaseClocktHz)
    i.Chip_Clock_GetClockInputHz             0x1a005968   Section        0  clock_18xx_43xx.o(i.Chip_Clock_GetClockInputHz)
    i.Chip_Clock_GetDivRate                  0x1a005a3c   Section        0  clock_18xx_43xx.o(i.Chip_Clock_GetDivRate)
    Chip_Clock_GetDivRate                    0x1a005a3d   Thumb Code    40  clock_18xx_43xx.o(i.Chip_Clock_GetDivRate)
    i.Chip_Clock_GetDividerDivisor           0x1a005a64   Section        0  clock_18xx_43xx.o(i.Chip_Clock_GetDividerDivisor)
    i.Chip_Clock_GetDividerSource            0x1a005a84   Section        0  clock_18xx_43xx.o(i.Chip_Clock_GetDividerSource)
    i.Chip_Clock_GetEMCRate                  0x1a005aa4   Section        0  clock_18xx_43xx.o(i.Chip_Clock_GetEMCRate)
    i.Chip_Clock_GetMainPLLHz                0x1a005ad4   Section        0  clock_18xx_43xx.o(i.Chip_Clock_GetMainPLLHz)
    i.Chip_Clock_GetRate                     0x1a005b4c   Section        0  clock_18xx_43xx.o(i.Chip_Clock_GetRate)
    i.Chip_Clock_SetBaseClock                0x1a005ba4   Section        0  clock_18xx_43xx.o(i.Chip_Clock_SetBaseClock)
    i.Chip_Clock_SetDivider                  0x1a005bec   Section        0  clock_18xx_43xx.o(i.Chip_Clock_SetDivider)
    i.Chip_EMC_Dynamic_Init                  0x1a005c3c   Section        0  emc_18xx_43xx.o(i.Chip_EMC_Dynamic_Init)
    i.Chip_EMC_Init                          0x1a005c58   Section        0  emc_18xx_43xx.o(i.Chip_EMC_Init)
    i.Chip_EMC_Static_Init                   0x1a005c84   Section        0  emc_18xx_43xx.o(i.Chip_EMC_Static_Init)
    i.Chip_GPIO_Init                         0x1a005ca0   Section        0  gpio_18xx_43xx.o(i.Chip_GPIO_Init)
    i.Chip_I2C_EventHandler                  0x1a005ca4   Section        0  i2c_18xx_43xx.o(i.Chip_I2C_EventHandler)
    i.Chip_I2C_EventHandlerPolling           0x1a005ccc   Section        0  i2c_18xx_43xx.o(i.Chip_I2C_EventHandlerPolling)
    i.Chip_I2C_GetMasterEventHandler         0x1a005d0c   Section        0  i2c_18xx_43xx.o(i.Chip_I2C_GetMasterEventHandler)
    i.Chip_I2C_Init                          0x1a005d20   Section        0  i2c_18xx_43xx.o(i.Chip_I2C_Init)
    i.Chip_I2C_IsStateChanged                0x1a005d4c   Section        0  i2c_18xx_43xx.o(i.Chip_I2C_IsStateChanged)
    i.Chip_I2C_MasterCmdRead                 0x1a005d64   Section        0  i2c_18xx_43xx.o(i.Chip_I2C_MasterCmdRead)
    i.Chip_I2C_MasterSend                    0x1a005d9e   Section        0  i2c_18xx_43xx.o(i.Chip_I2C_MasterSend)
    i.Chip_I2C_MasterStateHandler            0x1a005dd0   Section        0  i2c_18xx_43xx.o(i.Chip_I2C_MasterStateHandler)
    i.Chip_I2C_MasterTransfer                0x1a005e08   Section        0  i2c_18xx_43xx.o(i.Chip_I2C_MasterTransfer)
    i.Chip_I2C_SetClockRate                  0x1a005e74   Section        0  i2c_18xx_43xx.o(i.Chip_I2C_SetClockRate)
    i.Chip_I2C_SetMasterEventHandler         0x1a005eb0   Section        0  i2c_18xx_43xx.o(i.Chip_I2C_SetMasterEventHandler)
    i.Chip_I2S_Init                          0x1a005ed8   Section        0  i2s_18xx_43xx.o(i.Chip_I2S_Init)
    i.Chip_I2S_TxConfig                      0x1a005ee4   Section        0  i2s_18xx_43xx.o(i.Chip_I2S_TxConfig)
    i.Chip_RGU_InReset                       0x1a005f60   Section        0  rgu_18xx_43xx.o(i.Chip_RGU_InReset)
    i.Chip_RGU_TriggerReset                  0x1a005f98   Section        0  rgu_18xx_43xx.o(i.Chip_RGU_TriggerReset)
    i.Chip_SSP_ClearIntPending               0x1a005fc4   Section        0  ssp_18xx_43xx.o(i.Chip_SSP_ClearIntPending)
    Chip_SSP_ClearIntPending                 0x1a005fc5   Thumb Code     4  ssp_18xx_43xx.o(i.Chip_SSP_ClearIntPending)
    i.Chip_SSP_GetClockIndex                 0x1a005fc8   Section        0  ssp_18xx_43xx.o(i.Chip_SSP_GetClockIndex)
    Chip_SSP_GetClockIndex                   0x1a005fc9   Thumb Code    16  ssp_18xx_43xx.o(i.Chip_SSP_GetClockIndex)
    i.Chip_SSP_GetRawIntStatus               0x1a005fdc   Section        0  ssp_18xx_43xx.o(i.Chip_SSP_GetRawIntStatus)
    Chip_SSP_GetRawIntStatus                 0x1a005fdd   Thumb Code    16  ssp_18xx_43xx.o(i.Chip_SSP_GetRawIntStatus)
    i.Chip_SSP_GetStatus                     0x1a005fec   Section        0  ssp_18xx_43xx.o(i.Chip_SSP_GetStatus)
    Chip_SSP_GetStatus                       0x1a005fed   Thumb Code    16  ssp_18xx_43xx.o(i.Chip_SSP_GetStatus)
    i.Chip_SSP_Init                          0x1a005ffc   Section        0  ssp_18xx_43xx.o(i.Chip_SSP_Init)
    i.Chip_SSP_ReceiveFrame                  0x1a006038   Section        0  ssp_18xx_43xx.o(i.Chip_SSP_ReceiveFrame)
    Chip_SSP_ReceiveFrame                    0x1a006039   Thumb Code     8  ssp_18xx_43xx.o(i.Chip_SSP_ReceiveFrame)
    i.Chip_SSP_SendFrame                     0x1a006040   Section        0  ssp_18xx_43xx.o(i.Chip_SSP_SendFrame)
    Chip_SSP_SendFrame                       0x1a006041   Thumb Code     6  ssp_18xx_43xx.o(i.Chip_SSP_SendFrame)
    i.Chip_SSP_SetBitRate                    0x1a006046   Section        0  ssp_18xx_43xx.o(i.Chip_SSP_SetBitRate)
    i.Chip_SSP_SetClockRate                  0x1a00608c   Section        0  ssp_18xx_43xx.o(i.Chip_SSP_SetClockRate)
    i.Chip_SSP_SetMaster                     0x1a0060a0   Section        0  ssp_18xx_43xx.o(i.Chip_SSP_SetMaster)
    i.Chip_SSP_Set_Mode                      0x1a0060bc   Section        0  ssp_18xx_43xx.o(i.Chip_SSP_Set_Mode)
    Chip_SSP_Set_Mode                        0x1a0060bd   Thumb Code    12  ssp_18xx_43xx.o(i.Chip_SSP_Set_Mode)
    i.Chip_SSP_WriteFrames_Blocking          0x1a0060c8   Section        0  ssp_18xx_43xx.o(i.Chip_SSP_WriteFrames_Blocking)
    i.Chip_SetupCoreClock                    0x1a0061b2   Section        0  sysinit_18xx_43xx.o(i.Chip_SetupCoreClock)
    i.Chip_UART_DisableDivisorAccess         0x1a0061c0   Section        0  uart_18xx_43xx.o(i.Chip_UART_DisableDivisorAccess)
    Chip_UART_DisableDivisorAccess           0x1a0061c1   Thumb Code    10  uart_18xx_43xx.o(i.Chip_UART_DisableDivisorAccess)
    i.Chip_UART_EnableDivisorAccess          0x1a0061ca   Section        0  uart_18xx_43xx.o(i.Chip_UART_EnableDivisorAccess)
    Chip_UART_EnableDivisorAccess            0x1a0061cb   Thumb Code    10  uart_18xx_43xx.o(i.Chip_UART_EnableDivisorAccess)
    i.Chip_UART_GetClockIndex                0x1a0061d4   Section        0  uart_18xx_43xx.o(i.Chip_UART_GetClockIndex)
    Chip_UART_GetClockIndex                  0x1a0061d5   Thumb Code    36  uart_18xx_43xx.o(i.Chip_UART_GetClockIndex)
    i.Chip_UART_Init                         0x1a006204   Section        0  uart_18xx_43xx.o(i.Chip_UART_Init)
    i.Chip_UART_SetBaud                      0x1a006250   Section        0  uart_18xx_43xx.o(i.Chip_UART_SetBaud)
    i.Chip_UART_SetDivisorLatches            0x1a006292   Section        0  uart_18xx_43xx.o(i.Chip_UART_SetDivisorLatches)
    Chip_UART_SetDivisorLatches              0x1a006293   Thumb Code     6  uart_18xx_43xx.o(i.Chip_UART_SetDivisorLatches)
    i.SystemCoreClockUpdate                  0x1a006298   Section        0  chip_18xx_43xx.o(i.SystemCoreClockUpdate)
    i._is_digit                              0x1a0062ac   Section        0  __printf_wp.o(i._is_digit)
    i.clock_init_delay                       0x1a0062ba   Section        0  sysinit_18xx_43xx.o(i.clock_init_delay)
    clock_init_delay                         0x1a0062bb   Thumb Code    36  sysinit_18xx_43xx.o(i.clock_init_delay)
    i.clock_main_init                        0x1a0062e0   Section        0  sysinit_18xx_43xx.o(i.clock_main_init)
    clock_main_init                          0x1a0062e1   Thumb Code   168  sysinit_18xx_43xx.o(i.clock_main_init)
    i.convertTimmingParam                    0x1a00639c   Section        0  emc_18xx_43xx.o(i.convertTimmingParam)
    convertTimmingParam                      0x1a00639d   Thumb Code    50  emc_18xx_43xx.o(i.convertTimmingParam)
    i.fpuInit                                0x1a0063d4   Section        0  fpu_init.o(i.fpuInit)
    i.getClkDiv                              0x1a006424   Section        0  i2s_18xx_43xx.o(i.getClkDiv)
    getClkDiv                                0x1a006425   Thumb Code   354  i2s_18xx_43xx.o(i.getClkDiv)
    i.getClkRate                             0x1a006588   Section        0  i2c_18xx_43xx.o(i.getClkRate)
    getClkRate                               0x1a006589   Thumb Code    22  i2c_18xx_43xx.o(i.getClkRate)
    i.getColsLen                             0x1a0065a4   Section        0  emc_18xx_43xx.o(i.getColsLen)
    getColsLen                               0x1a0065a5   Thumb Code    40  emc_18xx_43xx.o(i.getColsLen)
    i.getCurState                            0x1a0065cc   Section        0  i2c_18xx_43xx.o(i.getCurState)
    getCurState                              0x1a0065cd   Thumb Code    10  i2c_18xx_43xx.o(i.getCurState)
    i.handleMasterXferState                  0x1a0065d6   Section        0  i2c_18xx_43xx.o(i.handleMasterXferState)
    i.initDynMem                             0x1a0066b6   Section        0  emc_18xx_43xx.o(i.initDynMem)
    i.initStaticMem                          0x1a00689e   Section        0  emc_18xx_43xx.o(i.initStaticMem)
    i.startSlaverXfer                        0x1a006906   Section        0  i2c_18xx_43xx.o(i.startSlaverXfer)
    startSlaverXfer                          0x1a006907   Thumb Code    10  i2c_18xx_43xx.o(i.startSlaverXfer)
    x$fpl$fpinit                             0x1a006910   Section       10  fpinit.o(x$fpl$fpinit)
    $v0                                      0x1a006910   Number         0  fpinit.o(x$fpl$fpinit)
    .constdata                               0x1a00691c   Section       64  board.o(.constdata)
    ledports                                 0x1a00691c   Data           8  board.o(.constdata)
    ledbits                                  0x1a006924   Data           8  board.o(.constdata)
    .constdata                               0x1a00695c   Section      700  board_sysinit.o(.constdata)
    InitClkStates                            0x1a00695c   Data          16  board_sysinit.o(.constdata)
    spifipinmuxing                           0x1a00696c   Data          24  board_sysinit.o(.constdata)
    pinmuxing                                0x1a006984   Data         496  board_sysinit.o(.constdata)
    pinclockmuxing                           0x1a006b74   Data          16  board_sysinit.o(.constdata)
    MT48LC4M32_config                        0x1a006b84   Data         116  board_sysinit.o(.constdata)
    S29GL64N90_config                        0x1a006bf8   Data          32  board_sysinit.o(.constdata)
    .constdata                               0x1a006c18   Section       31  uda1380.o(.constdata)
    UDA_sys_regs_dat                         0x1a006c18   Data          11  uda1380.o(.constdata)
    UDA_interfil_regs_dat                    0x1a006c23   Data          11  uda1380.o(.constdata)
    UDA_decimator_regs_dat                   0x1a006c2e   Data           9  uda1380.o(.constdata)
    .constdata                               0x1a006c38   Section      108  clock_18xx_43xx.o(.constdata)
    periph_to_base                           0x1a006c38   Data         108  clock_18xx_43xx.o(.constdata)
    .constdata                               0x1a006ca4   Section       72  sysinit_18xx_43xx.o(.constdata)
    InitClkStates                            0x1a006ca4   Data          72  sysinit_18xx_43xx.o(.constdata)
    .constdata                               0x1a006cec   Section       40  _printf_hex_int_ptr.o(.constdata)
    uc_hextab                                0x1a006cec   Data          20  _printf_hex_int_ptr.o(.constdata)
    lc_hextab                                0x1a006d00   Data          20  _printf_hex_int_ptr.o(.constdata)
    .constdata                               0x1a006d14   Section       17  __printf_flags_ss_wp.o(.constdata)
    maptable                                 0x1a006d14   Data          17  __printf_flags_ss_wp.o(.constdata)
    .constdata                               0x1a006d25   Section        1  nothrow_obj.o(.constdata)

    Global Symbols

    Symbol Name                              Value     Ov Type        Size  Object(Section)

    BuildAttributes$$THM_ISAv4$E$P$D$K$B$S$7EM$VFPi3$EXTD16$VFPS$VFMA$PE$A:L22UL41UL21$X:L11$S22US41US21$IEEE1$IW$USESV6$~STKCKD$USESV7$~SHL$OSPACE$ROPI$EBA8$UX$STANDARDLIB$REQ8$PRES8$EABIv2 0x00000000   Number         0  anon$$obj.o ABSOLUTE
    __ARM_use_no_argv                        0x00000000   Number         0  main.o ABSOLUTE
    _printf_flags                            0x00000000   Number         0  printf_stubs.o ABSOLUTE
    _printf_return_value                     0x00000000   Number         0  printf_stubs.o ABSOLUTE
    _printf_sizespec                         0x00000000   Number         0  printf_stubs.o ABSOLUTE
    _printf_widthprec                        0x00000000   Number         0  printf_stubs.o ABSOLUTE
    __ARM_exceptions_init                     - Undefined Weak Reference
    __alloca_initialize                       - Undefined Weak Reference
    __arm_preinit_                            - Undefined Weak Reference
    __cpp_initialize__aeabi_                  - Undefined Weak Reference
    __cxa_finalize                            - Undefined Weak Reference
    __rt_locale                               - Undefined Weak Reference
    __sigvec_lookup                           - Undefined Weak Reference
    _atexit_init                              - Undefined Weak Reference
    _call_atexit_fns                          - Undefined Weak Reference
    _clock_init                               - Undefined Weak Reference
    _fp_trap_init                             - Undefined Weak Reference
    _fp_trap_shutdown                         - Undefined Weak Reference
    _get_lc_collate                           - Undefined Weak Reference
    _get_lc_ctype                             - Undefined Weak Reference
    _get_lc_monetary                          - Undefined Weak Reference
    _get_lc_numeric                           - Undefined Weak Reference
    _get_lc_time                              - Undefined Weak Reference
    _getenv_init                              - Undefined Weak Reference
    _handle_redirection                       - Undefined Weak Reference
    _init_alloc                               - Undefined Weak Reference
    _init_user_alloc                          - Undefined Weak Reference
    _initio                                   - Undefined Weak Reference
    _printf_mbtowc                            - Undefined Weak Reference
    _printf_truncate_signed                   - Undefined Weak Reference
    _printf_truncate_unsigned                 - Undefined Weak Reference
    _rand_init                                - Undefined Weak Reference
    _signal_finish                            - Undefined Weak Reference
    _signal_init                              - Undefined Weak Reference
    _terminate_alloc                          - Undefined Weak Reference
    _terminate_user_alloc                     - Undefined Weak Reference
    _terminateio                              - Undefined Weak Reference
    idle_task_exit                           0x10000000   Data           1  raw-os.o(.data)
    raw_sched_lock                           0x10000001   Data           1  raw-os.o(.data)
    raw_int_nesting                          0x10000002   Data           1  raw-os.o(.data)
    raw_os_active                            0x10000004   Data           2  raw-os.o(.data)
    high_ready_obj                           0x10000008   Data           4  raw-os.o(.data)
    raw_task_active                          0x1000000c   Data           4  raw-os.o(.data)
    raw_tick_count                           0x10000010   Data           4  raw-os.o(.data)
    raw_timer_count                          0x10000014   Data           4  raw-os.o(.data)
    raw_timer_ctrl                           0x10000018   Data           4  raw-os.o(.data)
    raw_idle_count                           0x10000020   Data           8  raw-os.o(.data)
    timer_head                               0x10000028   Data           8  raw-os.o(.data)
    sys_time_tick                            0x10000030   Data           8  raw-os.o(.data)
    _mem_minfragment                         0x10000038   Data           4  raw_malloc.o(.data)
    K9F_NF_CLE                               0x1000003c   Data           4  k9f1g08.o(.data)
    K9F_NF_ALE                               0x10000040   Data           4  k9f1g08.o(.data)
    K9F_NF_DATA                              0x10000044   Data           4  k9f1g08.o(.data)
    __stdout                                 0x10000048   Data           4  board.o(.data)
    __stdin                                  0x1000004c   Data           4  board.o(.data)
    __stderr                                 0x10000050   Data           4  board.o(.data)
    g_isPenDn                                0x10000054   Data           4  board.o(.data)
    g_isNewPenDn                             0x10000058   Data           4  board.o(.data)
    SystemCoreClock                          0x1000005c   Data           4  chip_18xx_43xx.o(.data)
    raw_ready_queue                          0x100000a0   Data         508  raw-os.o(.bss)
    raw_idle_obj                             0x100002a0   Data         144  raw-os.o(.bss)
    idle_stack                               0x10000330   Data         320  raw-os.o(.bss)
    tick_head                                0x10000470   Data          64  raw-os.o(.bss)
    raw_timer_obj                            0x100004b0   Data         144  raw-os.o(.bss)
    timer_task_stack                         0x10000540   Data        1024  raw-os.o(.bss)
    timer_sem                                0x10000940   Data          36  raw-os.o(.bss)
    timer_mutex                              0x10000964   Data          40  raw-os.o(.bss)
    raw_task_debug                           0x1000098c   Data          56  raw-os.o(.bss)
    tick_task_obj                            0x100009c8   Data         144  raw-os.o(.bss)
    tick_task_stack                          0x10000a58   Data        1024  raw-os.o(.bss)
    tick_semaphore_obj                       0x10000e58   Data          36  raw-os.o(.bss)
    shell_task_stack                         0x10000f08   Data        1600  main.o(.bss)
    shell_task_obj                           0x10001548   Data         144  main.o(.bss)
    uart_sema                                0x100015d8   Data          36  main.o(.bss)
    uart_fifo                                0x100015fc   Data          24  main.o(.bss)
    __libspace_start                         0x10001694   Data          96  libspace.o(.bss)
    __temporary_stack_top$libspace           0x100016f4   Data           0  libspace.o(.bss)
    Stack_Mem                                0x100017f8   Data        1536  keil_startup_lpc18xx43xx.o(STACK)
    __Vectors                                0x1a000000   Data           4  keil_startup_lpc18xx43xx.o(RESET)
    __main                                   0x1a000115   Thumb Code     8  __main.o(!!!main)
    __scatterload                            0x1a00011d   Thumb Code     0  __scatter.o(!!!scatter)
    __scatterload_rt2                        0x1a00011d   Thumb Code    44  __scatter.o(!!!scatter)
    __scatterload_rt2_thumb_only             0x1a00011d   Thumb Code     0  __scatter.o(!!!scatter)
    __scatterload_null                       0x1a00012b   Thumb Code     0  __scatter.o(!!!scatter)
    __scatterload_copy                       0x1a000151   Thumb Code    26  __scatter_copy.o(!!handler_copy)
    __scatterload_zeroinit                   0x1a00016d   Thumb Code    28  __scatter_zi.o(!!handler_zi)
    _printf_d                                0x1a000189   Thumb Code     0  _printf_d.o(.ARM.Collect$$_printf_percent$$00000009)
    _printf_percent                          0x1a000189   Thumb Code     0  _printf_percent.o(.ARM.Collect$$_printf_percent$$00000000)
    _printf_x                                0x1a00018f   Thumb Code     0  _printf_x.o(.ARM.Collect$$_printf_percent$$0000000C)
    _printf_percent_end                      0x1a000195   Thumb Code     0  _printf_percent_end.o(.ARM.Collect$$_printf_percent$$00000017)
    __rt_lib_init                            0x1a000199   Thumb Code     0  libinit.o(.ARM.Collect$$libinit$$00000000)
    __rt_lib_init_fp_1                       0x1a00019b   Thumb Code     0  libinit2.o(.ARM.Collect$$libinit$$00000001)
    __rt_lib_init_alloca_1                   0x1a00019f   Thumb Code     0  libinit2.o(.ARM.Collect$$libinit$$0000002E)
    __rt_lib_init_argv_1                     0x1a00019f   Thumb Code     0  libinit2.o(.ARM.Collect$$libinit$$0000002C)
    __rt_lib_init_atexit_1                   0x1a00019f   Thumb Code     0  libinit2.o(.ARM.Collect$$libinit$$0000001B)
    __rt_lib_init_clock_1                    0x1a00019f   Thumb Code     0  libinit2.o(.ARM.Collect$$libinit$$00000021)
    __rt_lib_init_cpp_1                      0x1a00019f   Thumb Code     0  libinit2.o(.ARM.Collect$$libinit$$00000032)
    __rt_lib_init_exceptions_1               0x1a00019f   Thumb Code     0  libinit2.o(.ARM.Collect$$libinit$$00000030)
    __rt_lib_init_fp_trap_1                  0x1a00019f   Thumb Code     0  libinit2.o(.ARM.Collect$$libinit$$0000001F)
    __rt_lib_init_getenv_1                   0x1a00019f   Thumb Code     0  libinit2.o(.ARM.Collect$$libinit$$00000023)
    __rt_lib_init_heap_1                     0x1a00019f   Thumb Code     0  libinit2.o(.ARM.Collect$$libinit$$0000000A)
    __rt_lib_init_lc_collate_1               0x1a00019f   Thumb Code     0  libinit2.o(.ARM.Collect$$libinit$$00000011)
    __rt_lib_init_lc_ctype_1                 0x1a00019f   Thumb Code     0  libinit2.o(.ARM.Collect$$libinit$$00000013)
    __rt_lib_init_lc_monetary_1              0x1a00019f   Thumb Code     0  libinit2.o(.ARM.Collect$$libinit$$00000015)
    __rt_lib_init_lc_numeric_1               0x1a00019f   Thumb Code     0  libinit2.o(.ARM.Collect$$libinit$$00000017)
    __rt_lib_init_lc_time_1                  0x1a00019f   Thumb Code     0  libinit2.o(.ARM.Collect$$libinit$$00000019)
    __rt_lib_init_preinit_1                  0x1a00019f   Thumb Code     0  libinit2.o(.ARM.Collect$$libinit$$00000004)
    __rt_lib_init_rand_1                     0x1a00019f   Thumb Code     0  libinit2.o(.ARM.Collect$$libinit$$0000000E)
    __rt_lib_init_return                     0x1a00019f   Thumb Code     0  libinit2.o(.ARM.Collect$$libinit$$00000033)
    __rt_lib_init_signal_1                   0x1a00019f   Thumb Code     0  libinit2.o(.ARM.Collect$$libinit$$0000001D)
    __rt_lib_init_stdio_1                    0x1a00019f   Thumb Code     0  libinit2.o(.ARM.Collect$$libinit$$00000025)
    __rt_lib_init_user_alloc_1               0x1a00019f   Thumb Code     0  libinit2.o(.ARM.Collect$$libinit$$0000000C)
    __rt_lib_shutdown                        0x1a0001a1   Thumb Code     0  libshutdown.o(.ARM.Collect$$libshutdown$$00000000)
    __rt_lib_shutdown_cpp_1                  0x1a0001a3   Thumb Code     0  libshutdown2.o(.ARM.Collect$$libshutdown$$00000002)
    __rt_lib_shutdown_fp_trap_1              0x1a0001a3   Thumb Code     0  libshutdown2.o(.ARM.Collect$$libshutdown$$00000007)
    __rt_lib_shutdown_heap_1                 0x1a0001a3   Thumb Code     0  libshutdown2.o(.ARM.Collect$$libshutdown$$0000000F)
    __rt_lib_shutdown_return                 0x1a0001a3   Thumb Code     0  libshutdown2.o(.ARM.Collect$$libshutdown$$00000010)
    __rt_lib_shutdown_signal_1               0x1a0001a3   Thumb Code     0  libshutdown2.o(.ARM.Collect$$libshutdown$$0000000A)
    __rt_lib_shutdown_stdio_1                0x1a0001a3   Thumb Code     0  libshutdown2.o(.ARM.Collect$$libshutdown$$00000004)
    __rt_lib_shutdown_user_alloc_1           0x1a0001a3   Thumb Code     0  libshutdown2.o(.ARM.Collect$$libshutdown$$0000000C)
    __rt_entry                               0x1a0001a5   Thumb Code     0  __rtentry.o(.ARM.Collect$$rtentry$$00000000)
    __rt_entry_presh_1                       0x1a0001a5   Thumb Code     0  __rtentry2.o(.ARM.Collect$$rtentry$$00000002)
    __rt_entry_sh                            0x1a0001a5   Thumb Code     0  __rtentry4.o(.ARM.Collect$$rtentry$$00000004)
    __rt_entry_li                            0x1a0001ab   Thumb Code     0  __rtentry2.o(.ARM.Collect$$rtentry$$0000000A)
    __rt_entry_postsh_1                      0x1a0001ab   Thumb Code     0  __rtentry2.o(.ARM.Collect$$rtentry$$00000009)
    __rt_entry_main                          0x1a0001af   Thumb Code     0  __rtentry2.o(.ARM.Collect$$rtentry$$0000000D)
    __rt_entry_postli_1                      0x1a0001af   Thumb Code     0  __rtentry2.o(.ARM.Collect$$rtentry$$0000000C)
    __rt_exit                                0x1a0001b7   Thumb Code     0  rtexit.o(.ARM.Collect$$rtexit$$00000000)
    __rt_exit_ls                             0x1a0001b9   Thumb Code     0  rtexit2.o(.ARM.Collect$$rtexit$$00000003)
    __rt_exit_prels_1                        0x1a0001b9   Thumb Code     0  rtexit2.o(.ARM.Collect$$rtexit$$00000002)
    __rt_exit_exit                           0x1a0001bd   Thumb Code     0  rtexit2.o(.ARM.Collect$$rtexit$$00000004)
    get_ready_task                           0x1a0001c5   Thumb Code    16  raw-os.o(.text)
    raw_sched                                0x1a0001d5   Thumb Code    46  raw-os.o(.text)
    raw_semaphore_create                     0x1a000203   Thumb Code    54  raw-os.o(.text)
    raw_task_semaphore_create                0x1a000239   Thumb Code    16  raw-os.o(.text)
    tick_list_remove                         0x1a000249   Thumb Code    24  raw-os.o(.text)
    mutex_priority_look                      0x1a000261   Thumb Code    74  raw-os.o(.text)
    change_pend_list_priority                0x1a0002ab   Thumb Code    34  raw-os.o(.text)
    add_ready_list_end                       0x1a0002cd   Thumb Code    40  raw-os.o(.text)
    add_ready_list_head                      0x1a0002f5   Thumb Code    40  raw-os.o(.text)
    bit_search_first_one                     0x1a00031d   Thumb Code   116  raw-os.o(.text)
    remove_ready_list                        0x1a000391   Thumb Code   104  raw-os.o(.text)
    change_internal_task_priority            0x1a0003f9   Thumb Code   168  raw-os.o(.text)
    mutex_state_change                       0x1a0004a1   Thumb Code    38  raw-os.o(.text)
    add_ready_list                           0x1a0004c7   Thumb Code    20  raw-os.o(.text)
    tick_list_update                         0x1a0004db   Thumb Code   246  raw-os.o(.text)
    block_state_post_process                 0x1a0005d1   Thumb Code    62  raw-os.o(.text)
    tick_list_insert                         0x1a00060f   Thumb Code    62  raw-os.o(.text)
    raw_pend_object                          0x1a00064d   Thumb Code    70  raw-os.o(.text)
    raw_semaphore_get                        0x1a000693   Thumb Code   140  raw-os.o(.text)
    raw_task_semaphore_get                   0x1a00071f   Thumb Code    10  raw-os.o(.text)
    raw_task_create                          0x1a000745   Thumb Code   266  raw-os.o(.text)
    tick_task_start                          0x1a00084f   Thumb Code    56  raw-os.o(.text)
    raw_mutex_create                         0x1a000887   Thumb Code    66  raw-os.o(.text)
    raw_wake_object                          0x1a000929   Thumb Code     2  raw-os.o(.text)
    raw_mutex_put                            0x1a00092b   Thumb Code   170  raw-os.o(.text)
    raw_mutex_get                            0x1a0009d5   Thumb Code   346  raw-os.o(.text)
    raw_semaphore_set                        0x1a000b2f   Thumb Code    84  raw-os.o(.text)
    timer_task                               0x1a000b83   Thumb Code   166  raw-os.o(.text)
    raw_timer_init                           0x1a000c29   Thumb Code    66  raw-os.o(.text)
    raw_idle_task                            0x1a000c6b   Thumb Code    30  raw-os.o(.text)
    tick_list_init                           0x1a000c89   Thumb Code    24  raw-os.o(.text)
    run_queue_init                           0x1a000ca1   Thumb Code    26  raw-os.o(.text)
    raw_os_init                              0x1a000cbb   Thumb Code   132  raw-os.o(.text)
    raw_os_start                             0x1a000d3f   Thumb Code    36  raw-os.o(.text)
    move_to_ready_list_end                   0x1a000d63   Thumb Code    34  raw-os.o(.text)
    calculate_time_slice                     0x1a000d85   Thumb Code    76  raw-os.o(.text)
    wake_send_msg                            0x1a000dd1   Thumb Code     4  raw-os.o(.text)
    wake_send_msg_size                       0x1a000dd5   Thumb Code     6  raw-os.o(.text)
    delete_pend_obj                          0x1a000ddb   Thumb Code    98  raw-os.o(.text)
    raw_task_stack_check                     0x1a000e3d   Thumb Code    52  raw-os.o(.text)
    raw_isr_stack_check                      0x1a000e71   Thumb Code    14  raw-os.o(.text)
    raw_disable_sche                         0x1a000e7f   Thumb Code    42  raw-os.o(.text)
    raw_enable_sche                          0x1a000ea9   Thumb Code    58  raw-os.o(.text)
    raw_sleep                                0x1a000ee3   Thumb Code   174  raw-os.o(.text)
    raw_task_yield                           0x1a000f91   Thumb Code    36  raw-os.o(.text)
    raw_time_sleep                           0x1a000fb5   Thumb Code    94  raw-os.o(.text)
    task_suspend                             0x1a001013   Thumb Code   154  raw-os.o(.text)
    raw_task_suspend                         0x1a0010ad   Thumb Code    24  raw-os.o(.text)
    task_resume                              0x1a0010c5   Thumb Code   162  raw-os.o(.text)
    raw_task_resume                          0x1a001167   Thumb Code    10  raw-os.o(.text)
    chg_pri_mutex                            0x1a001171   Thumb Code   114  raw-os.o(.text)
    raw_task_priority_change                 0x1a0011e3   Thumb Code   140  raw-os.o(.text)
    raw_task_free_mutex                      0x1a00126f   Thumb Code    68  raw-os.o(.text)
    raw_task_delete                          0x1a0012b3   Thumb Code   180  raw-os.o(.text)
    raw_set_task_user_point                  0x1a001367   Thumb Code    34  raw-os.o(.text)
    raw_get_task_user_point                  0x1a001389   Thumb Code     8  raw-os.o(.text)
    raw_task_time_slice_change               0x1a001391   Thumb Code    52  raw-os.o(.text)
    raw_set_sched_way                        0x1a0013c5   Thumb Code    56  raw-os.o(.text)
    raw_get_sched_way                        0x1a0013fd   Thumb Code    46  raw-os.o(.text)
    raw_task_wait_abort                      0x1a00142b   Thumb Code   164  raw-os.o(.text)
    raw_task_identify                        0x1a0014cf   Thumb Code     6  raw-os.o(.text)
    raw_iter_block_task                      0x1a0014d5   Thumb Code    72  raw-os.o(.text)
    raw_get_system_global_space              0x1a00151d   Thumb Code     6  raw-os.o(.text)
    raw_block_pool_create                    0x1a001523   Thumb Code   108  raw-os.o(.text)
    raw_block_allocate                       0x1a00158f   Thumb Code    76  raw-os.o(.text)
    raw_block_release                        0x1a0015db   Thumb Code    52  raw-os.o(.text)
    raw_byte_pool_create                     0x1a00160f   Thumb Code    88  raw-os.o(.text)
    raw_byte_allocate                        0x1a001667   Thumb Code    94  raw-os.o(.text)
    raw_byte_release                         0x1a0016c5   Thumb Code    64  raw-os.o(.text)
    raw_event_create                         0x1a001705   Thumb Code    42  raw-os.o(.text)
    raw_event_get                            0x1a00172f   Thumb Code   238  raw-os.o(.text)
    event_set                                0x1a00181d   Thumb Code   132  raw-os.o(.text)
    raw_event_set                            0x1a0018a1   Thumb Code    22  raw-os.o(.text)
    raw_event_delete                         0x1a0018b7   Thumb Code    96  raw-os.o(.text)
    raw_mutex_delete                         0x1a001917   Thumb Code   104  raw-os.o(.text)
    raw_queue_create                         0x1a00197f   Thumb Code    78  raw-os.o(.text)
    raw_queue_block_way_set                  0x1a0019cd   Thumb Code    14  raw-os.o(.text)
    raw_queue_full_register                  0x1a0019db   Thumb Code    32  raw-os.o(.text)
    msg_post                                 0x1a0019fb   Thumb Code   198  raw-os.o(.text)
    raw_queue_front_post                     0x1a001ac1   Thumb Code    22  raw-os.o(.text)
    raw_queue_end_post                       0x1a001ad7   Thumb Code    22  raw-os.o(.text)
    raw_queue_post_notify                    0x1a001aed   Thumb Code    22  raw-os.o(.text)
    raw_queue_all_post                       0x1a001b03   Thumb Code    20  raw-os.o(.text)
    raw_queue_send_notify                    0x1a001b17   Thumb Code    56  raw-os.o(.text)
    raw_queue_receive                        0x1a001b4f   Thumb Code   214  raw-os.o(.text)
    raw_queue_full_check                     0x1a001c25   Thumb Code    58  raw-os.o(.text)
    raw_queue_flush                          0x1a001c5f   Thumb Code    70  raw-os.o(.text)
    raw_queue_delete                         0x1a001ca5   Thumb Code    94  raw-os.o(.text)
    raw_queue_get_information                0x1a001d03   Thumb Code    82  raw-os.o(.text)
    raw_queue_buffer_create                  0x1a001d55   Thumb Code    98  raw-os.o(.text)
    queue_buffer_post                        0x1a001db7   Thumb Code   194  raw-os.o(.text)
    raw_queue_buffer_end_post                0x1a001e79   Thumb Code    30  raw-os.o(.text)
    raw_queue_buffer_receive                 0x1a001e97   Thumb Code   288  raw-os.o(.text)
    raw_queue_buffer_flush                   0x1a001fb7   Thumb Code    62  raw-os.o(.text)
    raw_queue_buffer_delete                  0x1a001ff5   Thumb Code    94  raw-os.o(.text)
    raw_queue_buffer_info_get                0x1a002053   Thumb Code    66  raw-os.o(.text)
    raw_queue_size_create                    0x1a002095   Thumb Code    90  raw-os.o(.text)
    raw_queue_size_full_register             0x1a0020ef   Thumb Code    32  raw-os.o(.text)
    msg_size_post                            0x1a00210f   Thumb Code   198  raw-os.o(.text)
    raw_queue_size_receive                   0x1a0021d5   Thumb Code   258  raw-os.o(.text)
    raw_queue_size_front_post                0x1a0022d7   Thumb Code    30  raw-os.o(.text)
    raw_queue_size_end_post                  0x1a0022f5   Thumb Code    30  raw-os.o(.text)
    raw_queue_size_all_post                  0x1a002313   Thumb Code    28  raw-os.o(.text)
    raw_queue_size_full_check                0x1a00232f   Thumb Code    58  raw-os.o(.text)
    raw_queue_size_flush                     0x1a002369   Thumb Code    74  raw-os.o(.text)
    raw_queue_size_delete                    0x1a0023b3   Thumb Code    94  raw-os.o(.text)
    raw_queue_size_get_information           0x1a002411   Thumb Code    78  raw-os.o(.text)
    raw_semaphore_block_way_set              0x1a00245f   Thumb Code    26  raw-os.o(.text)
    semaphore_put                            0x1a002479   Thumb Code   138  raw-os.o(.text)
    raw_semaphore_put                        0x1a002503   Thumb Code    12  raw-os.o(.text)
    raw_semaphore_put_notify                 0x1a00250f   Thumb Code    12  raw-os.o(.text)
    raw_semaphore_put_all                    0x1a00251b   Thumb Code    12  raw-os.o(.text)
    raw_semphore_send_notify                 0x1a002527   Thumb Code    56  raw-os.o(.text)
    raw_semaphore_delete                     0x1a00255f   Thumb Code    94  raw-os.o(.text)
    raw_stack_check                          0x1a0025bd   Thumb Code    68  raw-os.o(.text)
    raw_statistics_check                     0x1a002601   Thumb Code    46  raw-os.o(.text)
    raw_finish_int                           0x1a00262f   Thumb Code    80  raw-os.o(.text)
    call_timer_task                          0x1a00267f   Thumb Code    20  raw-os.o(.text)
    raw_task_semaphore_put                   0x1a002693   Thumb Code     4  raw-os.o(.text)
    raw_time_tick                            0x1a002697   Thumb Code    48  raw-os.o(.text)
    raw_enter_interrupt                      0x1a0026c7   Thumb Code    62  raw-os.o(.text)
    raw_system_time_get                      0x1a002705   Thumb Code    36  raw-os.o(.text)
    raw_os_version_get                       0x1a002729   Thumb Code     6  raw-os.o(.text)
    raw_task_qsize_create                    0x1a00272f   Thumb Code    20  raw-os.o(.text)
    raw_task_qsize_receive                   0x1a002743   Thumb Code    20  raw-os.o(.text)
    raw_task_qsize_front_post                0x1a002757   Thumb Code     4  raw-os.o(.text)
    raw_task_qsize_end_post                  0x1a00275b   Thumb Code     4  raw-os.o(.text)
    raw_task_qsize_flush                     0x1a00275f   Thumb Code     4  raw-os.o(.text)
    raw_task_qsize_delete                    0x1a002763   Thumb Code     4  raw-os.o(.text)
    raw_task_qsize_get_information           0x1a002767   Thumb Code     4  raw-os.o(.text)
    raw_task_semaphore_set                   0x1a00276b   Thumb Code     6  raw-os.o(.text)
    raw_task_semaphore_delete                0x1a002771   Thumb Code     4  raw-os.o(.text)
    raw_timer_activate                       0x1a002775   Thumb Code   132  raw-os.o(.text)
    raw_timer_create                         0x1a0027f9   Thumb Code    96  raw-os.o(.text)
    raw_timer_change                         0x1a002859   Thumb Code   104  raw-os.o(.text)
    raw_timer_deactivate                     0x1a0028c1   Thumb Code   132  raw-os.o(.text)
    raw_timer_delete                         0x1a002945   Thumb Code   108  raw-os.o(.text)
    fifo_init                                0x1a002b2d   Thumb Code    68  fifo.o(.text)
    fifo_in                                  0x1a002b71   Thumb Code    92  fifo.o(.text)
    fifo_out_peek                            0x1a002c0b   Thumb Code    38  fifo.o(.text)
    fifo_out                                 0x1a002c31   Thumb Code    50  fifo.o(.text)
    fifo_out_all                             0x1a002c63   Thumb Code    62  fifo.o(.text)
    check_malloc_test                        0x1a002d73   Thumb Code     4  raw_malloc.o(.text)
    searchFreeArea                           0x1a002d77   Thumb Code    68  raw_malloc.o(.text)
    appendFreeArea                           0x1a002dbb   Thumb Code    60  raw_malloc.o(.text)
    raw_malloc                               0x1a002fa7   Thumb Code    50  raw_malloc.o(.text)
    raw_free                                 0x1a002fd9   Thumb Code    46  raw_malloc.o(.text)
    raw_calloc                               0x1a003007   Thumb Code    66  raw_malloc.o(.text)
    raw_realloc                              0x1a003049   Thumb Code    56  raw_malloc.o(.text)
    raw_malloc_init                          0x1a003081   Thumb Code   264  raw_malloc.o(.text)
    system_page_table_get                    0x1a003387   Thumb Code     4  raw_page.o(.text)
    raw_page_allocate                        0x1a00338b   Thumb Code    50  raw_page.o(.text)
    raw_page_free                            0x1a0033bd   Thumb Code    88  raw_page.o(.text)
    raw_page_init                            0x1a003415   Thumb Code   108  raw_page.o(.text)
    OS_CPU_SR_Save                           0x1a003651   Thumb Code     0  cpu.o(.text)
    OS_CPU_SR_Restore                        0x1a003659   Thumb Code     0  cpu.o(.text)
    CPU_IntDis                               0x1a00365f   Thumb Code     0  cpu.o(.text)
    CPU_IntEn                                0x1a003663   Thumb Code     0  cpu.o(.text)
    raw_start_first_task                     0x1a003667   Thumb Code     0  cpu.o(.text)
    port_task_switch                         0x1a00368f   Thumb Code     0  cpu.o(.text)
    raw_int_switch                           0x1a003699   Thumb Code     0  cpu.o(.text)
    PendSV_Handler                           0x1a0036a3   Thumb Code     0  cpu.o(.text)
    port_stack_init                          0x1a0036fd   Thumb Code   324  port.o(.text)
    port_isr_stack_check                     0x1a003841   Thumb Code     2  port.o(.text)
    port_isr_stack_free_check                0x1a003843   Thumb Code    20  port.o(.text)
    system_mpu_enable                        0x1a003857   Thumb Code    46  port.o(.text)
    task_stack_mpu_set                       0x1a003885   Thumb Code    28  port.o(.text)
    raw_os_init_hook                         0x1a0038b1   Thumb Code    14  port_hook.o(.text)
    raw_task_delete_hook                     0x1a0038bf   Thumb Code     2  port_hook.o(.text)
    raw_task_abort_hook                      0x1a0038c1   Thumb Code     2  port_hook.o(.text)
    raw_idle_task_hook                       0x1a0038c3   Thumb Code     2  port_hook.o(.text)
    raw_task_switch_hook                     0x1a0038c5   Thumb Code     2  port_hook.o(.text)
    raw_tick_hook                            0x1a0038c7   Thumb Code     2  port_hook.o(.text)
    task_create_hook                         0x1a0038c9   Thumb Code     2  port_hook.o(.text)
    raw_idle_coroutine_hook                  0x1a0038cb   Thumb Code     4  port_hook.o(.text)
    raw_memcpy                               0x1a0038cf   Thumb Code    74  user_extension.o(.text)
    raw_memset                               0x1a003919   Thumb Code    62  user_extension.o(.text)
    port_system_error_process                0x1a003957   Thumb Code    88  port_error_process.o(.text)
    cpu_timer_init                           0x1a0039b1   Thumb Code    26  port_extension.o(.text)
    user_cpu_time_get                        0x1a0039cb   Thumb Code     6  port_extension.o(.text)
    user_sys_time_get                        0x1a0039d1   Thumb Code     6  port_extension.o(.text)
    Reset_Handler                            0x1a0039e1   Thumb Code     8  keil_startup_lpc18xx43xx.o(.text)
    NMI_Handler                              0x1a0039e9   Thumb Code     2  keil_startup_lpc18xx43xx.o(.text)
    HardFault_Handler                        0x1a0039eb   Thumb Code     2  keil_startup_lpc18xx43xx.o(.text)
    MemManage_Handler                        0x1a0039ed   Thumb Code     2  keil_startup_lpc18xx43xx.o(.text)
    BusFault_Handler                         0x1a0039ef   Thumb Code     2  keil_startup_lpc18xx43xx.o(.text)
    UsageFault_Handler                       0x1a0039f1   Thumb Code     2  keil_startup_lpc18xx43xx.o(.text)
    SVC_Handler                              0x1a0039f3   Thumb Code     2  keil_startup_lpc18xx43xx.o(.text)
    DebugMon_Handler                         0x1a0039f5   Thumb Code     2  keil_startup_lpc18xx43xx.o(.text)
    UnHandled_Vector                         0x1a0039fb   Thumb Code     2  keil_startup_lpc18xx43xx.o(.text)
    ADC0_IRQHandler                          0x1a0039fd   Thumb Code     0  keil_startup_lpc18xx43xx.o(.text)
    ADC1_IRQHandler                          0x1a0039fd   Thumb Code     0  keil_startup_lpc18xx43xx.o(.text)
    ADCHS_IRQHandler                         0x1a0039fd   Thumb Code     0  keil_startup_lpc18xx43xx.o(.text)
    ATIMER_IRQHandler                        0x1a0039fd   Thumb Code     0  keil_startup_lpc18xx43xx.o(.text)
    CAN0_IRQHandler                          0x1a0039fd   Thumb Code     0  keil_startup_lpc18xx43xx.o(.text)
    CAN1_IRQHandler                          0x1a0039fd   Thumb Code     0  keil_startup_lpc18xx43xx.o(.text)
    DAC_IRQHandler                           0x1a0039fd   Thumb Code     0  keil_startup_lpc18xx43xx.o(.text)
    DMA_IRQHandler                           0x1a0039fd   Thumb Code     0  keil_startup_lpc18xx43xx.o(.text)
    ETH_IRQHandler                           0x1a0039fd   Thumb Code     0  keil_startup_lpc18xx43xx.o(.text)
    EVRT_IRQHandler                          0x1a0039fd   Thumb Code     0  keil_startup_lpc18xx43xx.o(.text)
    FLASHEEPROM_IRQHandler                   0x1a0039fd   Thumb Code     0  keil_startup_lpc18xx43xx.o(.text)
    GINT0_IRQHandler                         0x1a0039fd   Thumb Code     0  keil_startup_lpc18xx43xx.o(.text)
    GINT1_IRQHandler                         0x1a0039fd   Thumb Code     0  keil_startup_lpc18xx43xx.o(.text)
    GPIO0_IRQHandler                         0x1a0039fd   Thumb Code     0  keil_startup_lpc18xx43xx.o(.text)
    GPIO1_IRQHandler                         0x1a0039fd   Thumb Code     0  keil_startup_lpc18xx43xx.o(.text)
    GPIO2_IRQHandler                         0x1a0039fd   Thumb Code     0  keil_startup_lpc18xx43xx.o(.text)
    GPIO3_IRQHandler                         0x1a0039fd   Thumb Code     0  keil_startup_lpc18xx43xx.o(.text)
    GPIO4_IRQHandler                         0x1a0039fd   Thumb Code     0  keil_startup_lpc18xx43xx.o(.text)
    GPIO5_IRQHandler                         0x1a0039fd   Thumb Code     0  keil_startup_lpc18xx43xx.o(.text)
    GPIO6_IRQHandler                         0x1a0039fd   Thumb Code     0  keil_startup_lpc18xx43xx.o(.text)
    GPIO7_IRQHandler                         0x1a0039fd   Thumb Code     0  keil_startup_lpc18xx43xx.o(.text)
    I2C0_IRQHandler                          0x1a0039fd   Thumb Code     0  keil_startup_lpc18xx43xx.o(.text)
    I2C1_IRQHandler                          0x1a0039fd   Thumb Code     0  keil_startup_lpc18xx43xx.o(.text)
    I2S0_IRQHandler                          0x1a0039fd   Thumb Code     0  keil_startup_lpc18xx43xx.o(.text)
    I2S1_IRQHandler                          0x1a0039fd   Thumb Code     0  keil_startup_lpc18xx43xx.o(.text)
    LCD_IRQHandler                           0x1a0039fd   Thumb Code     0  keil_startup_lpc18xx43xx.o(.text)
    MCPWM_IRQHandler                         0x1a0039fd   Thumb Code     0  keil_startup_lpc18xx43xx.o(.text)
    MX_CORE_IRQHandler                       0x1a0039fd   Thumb Code     0  keil_startup_lpc18xx43xx.o(.text)
    QEI_IRQHandler                           0x1a0039fd   Thumb Code     0  keil_startup_lpc18xx43xx.o(.text)
    RIT_IRQHandler                           0x1a0039fd   Thumb Code     0  keil_startup_lpc18xx43xx.o(.text)
    RTC_IRQHandler                           0x1a0039fd   Thumb Code     0  keil_startup_lpc18xx43xx.o(.text)
    SCT_IRQHandler                           0x1a0039fd   Thumb Code     0  keil_startup_lpc18xx43xx.o(.text)
    SDIO_IRQHandler                          0x1a0039fd   Thumb Code     0  keil_startup_lpc18xx43xx.o(.text)
    SGPIO_IRQHandler                         0x1a0039fd   Thumb Code     0  keil_startup_lpc18xx43xx.o(.text)
    SPIFI_IRQHandler                         0x1a0039fd   Thumb Code     0  keil_startup_lpc18xx43xx.o(.text)
    SPI_IRQHandler                           0x1a0039fd   Thumb Code     0  keil_startup_lpc18xx43xx.o(.text)
    SSP0_IRQHandler                          0x1a0039fd   Thumb Code     0  keil_startup_lpc18xx43xx.o(.text)
    SSP1_IRQHandler                          0x1a0039fd   Thumb Code     0  keil_startup_lpc18xx43xx.o(.text)
    TIMER0_IRQHandler                        0x1a0039fd   Thumb Code     0  keil_startup_lpc18xx43xx.o(.text)
    TIMER1_IRQHandler                        0x1a0039fd   Thumb Code     0  keil_startup_lpc18xx43xx.o(.text)
    TIMER2_IRQHandler                        0x1a0039fd   Thumb Code     0  keil_startup_lpc18xx43xx.o(.text)
    TIMER3_IRQHandler                        0x1a0039fd   Thumb Code     0  keil_startup_lpc18xx43xx.o(.text)
    UART0_IRQHandler                         0x1a0039fd   Thumb Code     0  keil_startup_lpc18xx43xx.o(.text)
    UART1_IRQHandler                         0x1a0039fd   Thumb Code     0  keil_startup_lpc18xx43xx.o(.text)
    UART2_IRQHandler                         0x1a0039fd   Thumb Code     0  keil_startup_lpc18xx43xx.o(.text)
    USB0_IRQHandler                          0x1a0039fd   Thumb Code     0  keil_startup_lpc18xx43xx.o(.text)
    USB1_IRQHandler                          0x1a0039fd   Thumb Code     0  keil_startup_lpc18xx43xx.o(.text)
    WDT_IRQHandler                           0x1a0039fd   Thumb Code     0  keil_startup_lpc18xx43xx.o(.text)
    __user_initial_stackheap                 0x1a003a01   Thumb Code     0  keil_startup_lpc18xx43xx.o(.text)
    SystemInit                               0x1a003a25   Thumb Code    20  sysinit.o(.text)
    scu_pinmux                               0x1a003a41   Thumb Code    16  lpc43xx_scu.o(.text)
    emc_init                                 0x1a003a55   Thumb Code   944  lpc43xx_sdram.o(.text)
    sdram_init                               0x1a003e05   Thumb Code   144  lpc43xx_sdram.o(.text)
    SysTick_Handler                          0x1a003eb1   Thumb Code    18  main.o(.text)
    OS_CPU_SysTickInit                       0x1a003ec3   Thumb Code    48  main.o(.text)
    uart_3_recv                              0x1a003ef3   Thumb Code    76  main.o(.text)
    UART3_IRQHandler                         0x1a003f3f   Thumb Code    56  main.o(.text)
    shell_task                               0x1a003f77   Thumb Code   148  main.o(.text)
    main                                     0x1a00400b   Thumb Code    56  main.o(.text)
    k9f_init                                 0x1a00409d   Thumb Code    88  k9f1g08.o(.text)
    k9f_id_read                              0x1a0040f5   Thumb Code    42  k9f1g08.o(.text)
    k9f_bad_block_check_product              0x1a004143   Thumb Code    96  k9f1g08.o(.text)
    k9f_block_erase                          0x1a0041a3   Thumb Code    40  k9f1g08.o(.text)
    k9f_page_read                            0x1a0041cb   Thumb Code    60  k9f1g08.o(.text)
    k9f_block_read                           0x1a004207   Thumb Code    78  k9f1g08.o(.text)
    k9f_page_write                           0x1a004255   Thumb Code    64  k9f1g08.o(.text)
    k9f_block_write                          0x1a004295   Thumb Code   128  k9f1g08.o(.text)
    k9f_random_read                          0x1a004315   Thumb Code    40  k9f1g08.o(.text)
    k9f_random_continue_read                 0x1a00433d   Thumb Code    58  k9f1g08.o(.text)
    k9f_random_write                         0x1a004377   Thumb Code    60  k9f1g08.o(.text)
    k9f_random_continue_write                0x1a0043b3   Thumb Code    72  k9f1g08.o(.text)
    GPIO_SetDir                              0x1a004419   Thumb Code    22  lpc43xx_gpio.o(.text)
    GPIO_SetValue                            0x1a00442f   Thumb Code    12  lpc43xx_gpio.o(.text)
    GPIO_ClearValue                          0x1a00443b   Thumb Code    12  lpc43xx_gpio.o(.text)
    GPIO_ReadValue                           0x1a004447   Thumb Code    12  lpc43xx_gpio.o(.text)
    operator new(unsigned)                   0x1a004459   Thumb Code     4  new.o(.text)
    operator delete (void*)                  0x1a00445d   Thumb Code     4  new.o(.text)
    operator new(unsigned, const std::nothrow_t&) 0x1a004461   Thumb Code     4  new.o(.text)
    operator delete (void*, const std::nothrow_t&) 0x1a004465   Thumb Code     4  new.o(.text)
    operator new[] (unsigned)                0x1a004469   Thumb Code     4  new.o(.text)
    operator delete[] (void*)                0x1a00446d   Thumb Code     4  new.o(.text)
    operator new[] (unsigned, const std::nothrow_t&) 0x1a004471   Thumb Code     4  new.o(.text)
    operator delete[] (void*, const std::nothrow_t&) 0x1a004475   Thumb Code     4  new.o(.text)
    Rectangle::set_values(int, int)          0x1a004479   Thumb Code     6  test.o(.text)
    ff2                                      0x1a00447f   Thumb Code    90  test.o(.text)
    Board_UARTPutChar                        0x1a004511   Thumb Code    26  board.o(.text)
    _sys_open                                0x1a00452b   Thumb Code     6  board.o(.text)
    fputc                                    0x1a004531   Thumb Code    20  board.o(.text)
    Board_UARTGetChar                        0x1a004545   Thumb Code    28  board.o(.text)
    fgetc                                    0x1a004561   Thumb Code    10  board.o(.text)
    ferror                                   0x1a00456b   Thumb Code     8  board.o(.text)
    _sys_exit                                0x1a004573   Thumb Code     6  board.o(.text)
    Board_UART_Init                          0x1a004713   Thumb Code    88  board.o(.text)
    Board_Debug_Init                         0x1a00476b   Thumb Code    42  board.o(.text)
    Board_UARTPutSTR                         0x1a004795   Thumb Code    22  board.o(.text)
    Board_LED_Set                            0x1a0047c7   Thumb Code    28  board.o(.text)
    Board_LED_Test                           0x1a0047e3   Thumb Code    28  board.o(.text)
    Board_LED_Toggle                         0x1a0047ff   Thumb Code    24  board.o(.text)
    Board_ENET_GetMacADDR                    0x1a004817   Thumb Code    22  board.o(.text)
    Board_Init                               0x1a00482d   Thumb Code    66  board.o(.text)
    Board_ADC_Init                           0x1a00486f   Thumb Code     2  board.o(.text)
    Board_I2C_Init                           0x1a004871   Thumb Code    44  board.o(.text)
    Board_Audio_Init                         0x1a00489d   Thumb Code    52  board.o(.text)
    Board_InitLCDController                  0x1a0048d1   Thumb Code   660  board.o(.text)
    Board_LCD_Init                           0x1a004b65   Thumb Code    36  board.o(.text)
    Board_InitTouchController                0x1a004b89   Thumb Code   202  board.o(.text)
    Board_I2C_GetTouchPos                    0x1a004c53   Thumb Code   196  board.o(.text)
    Board_GetTouchPos                        0x1a004d17   Thumb Code    60  board.o(.text)
    Board_SetLCDBacklight                    0x1a004d53   Thumb Code    28  board.o(.text)
    Board_SDMMC_Init                         0x1a004d6f   Thumb Code    74  board.o(.text)
    Board_SSP_Init                           0x1a004db9   Thumb Code   106  board.o(.text)
    Board_Buttons_Init                       0x1a004e23   Thumb Code    24  board.o(.text)
    Board_Joystick_Init                      0x1a004e3b   Thumb Code   104  board.o(.text)
    Joystick_GetStatus                       0x1a004ea3   Thumb Code    96  board.o(.text)
    Buttons_GetStatus                        0x1a004f03   Thumb Code    24  board.o(.text)
    Board_DAC_Init                           0x1a004f1b   Thumb Code    18  board.o(.text)
    Board_SetupMuxing                        0x1a004fe5   Thumb Code    58  board_sysinit.o(.text)
    Board_SetupExtMemory                     0x1a00501f   Thumb Code    82  board_sysinit.o(.text)
    Board_SetupClocking                      0x1a005071   Thumb Code   160  board_sysinit.o(.text)
    Board_SystemInit                         0x1a005111   Thumb Code    12  board_sysinit.o(.text)
    UDA1380_REG_VerifyMult                   0x1a005155   Thumb Code    72  uda1380.o(.text)
    UDA1380_REG_WriteMult                    0x1a00519d   Thumb Code    30  uda1380.o(.text)
    UDA1380_REG_Write                        0x1a0051df   Thumb Code    36  uda1380.o(.text)
    UDA1380_REG_Read                         0x1a005203   Thumb Code    42  uda1380.o(.text)
    UDA1380_REG_WriteVerify                  0x1a00522d   Thumb Code    34  uda1380.o(.text)
    UDA1380_Init                             0x1a00524f   Thumb Code   118  uda1380.o(.text)
    __aeabi_uldivmod                         0x1a0052d9   Thumb Code     0  lludivv7m.o(.text)
    _ll_udiv                                 0x1a0052d9   Thumb Code   238  lludivv7m.o(.text)
    __2printf                                0x1a0053c9   Thumb Code    20  noretval__2printf.o(.text)
    _printf_pre_padding                      0x1a0053e1   Thumb Code    44  _printf_pad.o(.text)
    _printf_post_padding                     0x1a00540d   Thumb Code    34  _printf_pad.o(.text)
    _printf_int_dec                          0x1a005431   Thumb Code   104  _printf_dec.o(.text)
    _printf_longlong_hex                     0x1a0054a9   Thumb Code    78  _printf_hex_int_ptr.o(.text)
    _printf_int_hex                          0x1a0054f7   Thumb Code    26  _printf_hex_int_ptr.o(.text)
    _printf_hex_ptr                          0x1a005511   Thumb Code    16  _printf_hex_int_ptr.o(.text)
    __printf                                 0x1a005525   Thumb Code   388  __printf_flags_ss_wp.o(.text)
    __aeabi_memclr4                          0x1a0056ad   Thumb Code     0  rt_memclr_w.o(.text)
    __aeabi_memclr8                          0x1a0056ad   Thumb Code     0  rt_memclr_w.o(.text)
    __rt_memclr_w                            0x1a0056ad   Thumb Code    78  rt_memclr_w.o(.text)
    _memset_w                                0x1a0056b1   Thumb Code     0  rt_memclr_w.o(.text)
    __use_two_region_memory                  0x1a0056fb   Thumb Code     2  heapauxi.o(.text)
    __rt_heap_escrow$2region                 0x1a0056fd   Thumb Code     2  heapauxi.o(.text)
    __rt_heap_expand$2region                 0x1a0056ff   Thumb Code     2  heapauxi.o(.text)
    _printf_int_common                       0x1a005701   Thumb Code   178  _printf_intcommon.o(.text)
    _printf_char_file                        0x1a0057b5   Thumb Code    32  _printf_char_file.o(.text)
    _printf_char_common                      0x1a0057e3   Thumb Code    32  _printf_char_common.o(.text)
    __user_setup_stackheap                   0x1a005809   Thumb Code    74  sys_stackheap_outer.o(.text)
    exit                                     0x1a005853   Thumb Code    18  exit.o(.text)
    __user_libspace                          0x1a005865   Thumb Code     8  libspace.o(.text)
    __user_perproc_libspace                  0x1a005865   Thumb Code     0  libspace.o(.text)
    __user_perthread_libspace                0x1a005865   Thumb Code     0  libspace.o(.text)
    Chip_Clock_Enable                        0x1a00586d   Thumb Code    46  clock_18xx_43xx.o(i.Chip_Clock_Enable)
    Chip_Clock_EnableOpts                    0x1a0058a5   Thumb Code    52  clock_18xx_43xx.o(i.Chip_Clock_EnableOpts)
    Chip_Clock_GetBaseClock                  0x1a005931   Thumb Code    32  clock_18xx_43xx.o(i.Chip_Clock_GetBaseClock)
    Chip_Clock_GetBaseClocktHz               0x1a005955   Thumb Code    18  clock_18xx_43xx.o(i.Chip_Clock_GetBaseClocktHz)
    Chip_Clock_GetClockInputHz               0x1a005969   Thumb Code   182  clock_18xx_43xx.o(i.Chip_Clock_GetClockInputHz)
    Chip_Clock_GetDividerDivisor             0x1a005a65   Thumb Code    18  clock_18xx_43xx.o(i.Chip_Clock_GetDividerDivisor)
    Chip_Clock_GetDividerSource              0x1a005a85   Thumb Code    26  clock_18xx_43xx.o(i.Chip_Clock_GetDividerSource)
    Chip_Clock_GetEMCRate                    0x1a005aa5   Thumb Code    38  clock_18xx_43xx.o(i.Chip_Clock_GetEMCRate)
    Chip_Clock_GetMainPLLHz                  0x1a005ad5   Thumb Code   110  clock_18xx_43xx.o(i.Chip_Clock_GetMainPLLHz)
    Chip_Clock_GetRate                       0x1a005b4d   Thumb Code    78  clock_18xx_43xx.o(i.Chip_Clock_GetRate)
    Chip_Clock_SetBaseClock                  0x1a005ba5   Thumb Code    64  clock_18xx_43xx.o(i.Chip_Clock_SetBaseClock)
    Chip_Clock_SetDivider                    0x1a005bed   Thumb Code    64  clock_18xx_43xx.o(i.Chip_Clock_SetDivider)
    Chip_EMC_Dynamic_Init                    0x1a005c3d   Thumb Code    22  emc_18xx_43xx.o(i.Chip_EMC_Dynamic_Init)
    Chip_EMC_Init                            0x1a005c59   Thumb Code    40  emc_18xx_43xx.o(i.Chip_EMC_Init)
    Chip_EMC_Static_Init                     0x1a005c85   Thumb Code    22  emc_18xx_43xx.o(i.Chip_EMC_Static_Init)
    Chip_GPIO_Init                           0x1a005ca1   Thumb Code     2  gpio_18xx_43xx.o(i.Chip_GPIO_Init)
    Chip_I2C_EventHandler                    0x1a005ca5   Thumb Code    36  i2c_18xx_43xx.o(i.Chip_I2C_EventHandler)
    Chip_I2C_EventHandlerPolling             0x1a005ccd   Thumb Code    58  i2c_18xx_43xx.o(i.Chip_I2C_EventHandlerPolling)
    Chip_I2C_GetMasterEventHandler           0x1a005d0d   Thumb Code    16  i2c_18xx_43xx.o(i.Chip_I2C_GetMasterEventHandler)
    Chip_I2C_Init                            0x1a005d21   Thumb Code    40  i2c_18xx_43xx.o(i.Chip_I2C_Init)
    Chip_I2C_IsStateChanged                  0x1a005d4d   Thumb Code    20  i2c_18xx_43xx.o(i.Chip_I2C_IsStateChanged)
    Chip_I2C_MasterCmdRead                   0x1a005d65   Thumb Code    58  i2c_18xx_43xx.o(i.Chip_I2C_MasterCmdRead)
    Chip_I2C_MasterSend                      0x1a005d9f   Thumb Code    50  i2c_18xx_43xx.o(i.Chip_I2C_MasterSend)
    Chip_I2C_MasterStateHandler              0x1a005dd1   Thumb Code    50  i2c_18xx_43xx.o(i.Chip_I2C_MasterStateHandler)
    Chip_I2C_MasterTransfer                  0x1a005e09   Thumb Code   102  i2c_18xx_43xx.o(i.Chip_I2C_MasterTransfer)
    Chip_I2C_SetClockRate                    0x1a005e75   Thumb Code    56  i2c_18xx_43xx.o(i.Chip_I2C_SetClockRate)
    Chip_I2C_SetMasterEventHandler           0x1a005eb1   Thumb Code    34  i2c_18xx_43xx.o(i.Chip_I2C_SetMasterEventHandler)
    Chip_I2S_Init                            0x1a005ed9   Thumb Code    12  i2s_18xx_43xx.o(i.Chip_I2S_Init)
    Chip_I2S_TxConfig                        0x1a005ee5   Thumb Code   122  i2s_18xx_43xx.o(i.Chip_I2S_TxConfig)
    Chip_RGU_InReset                         0x1a005f61   Thumb Code    52  rgu_18xx_43xx.o(i.Chip_RGU_InReset)
    Chip_RGU_TriggerReset                    0x1a005f99   Thumb Code    38  rgu_18xx_43xx.o(i.Chip_RGU_TriggerReset)
    Chip_SSP_Init                            0x1a005ffd   Thumb Code    56  ssp_18xx_43xx.o(i.Chip_SSP_Init)
    Chip_SSP_SetBitRate                      0x1a006047   Thumb Code    70  ssp_18xx_43xx.o(i.Chip_SSP_SetBitRate)
    Chip_SSP_SetClockRate                    0x1a00608d   Thumb Code    20  ssp_18xx_43xx.o(i.Chip_SSP_SetClockRate)
    Chip_SSP_SetMaster                       0x1a0060a1   Thumb Code    28  ssp_18xx_43xx.o(i.Chip_SSP_SetMaster)
    Chip_SSP_WriteFrames_Blocking            0x1a0060c9   Thumb Code   234  ssp_18xx_43xx.o(i.Chip_SSP_WriteFrames_Blocking)
    Chip_SetupCoreClock                      0x1a0061b3   Thumb Code    14  sysinit_18xx_43xx.o(i.Chip_SetupCoreClock)
    Chip_UART_Init                           0x1a006205   Thumb Code    72  uart_18xx_43xx.o(i.Chip_UART_Init)
    Chip_UART_SetBaud                        0x1a006251   Thumb Code    66  uart_18xx_43xx.o(i.Chip_UART_SetBaud)
    SystemCoreClockUpdate                    0x1a006299   Thumb Code    14  chip_18xx_43xx.o(i.SystemCoreClockUpdate)
    _is_digit                                0x1a0062ad   Thumb Code    14  __printf_wp.o(i._is_digit)
    fpuInit                                  0x1a0063d5   Thumb Code    62  fpu_init.o(i.fpuInit)
    handleMasterXferState                    0x1a0065d7   Thumb Code   224  i2c_18xx_43xx.o(i.handleMasterXferState)
    initDynMem                               0x1a0066b7   Thumb Code   488  emc_18xx_43xx.o(i.initDynMem)
    initStaticMem                            0x1a00689f   Thumb Code   104  emc_18xx_43xx.o(i.initStaticMem)
    _fp_init                                 0x1a006911   Thumb Code    10  fpinit.o(x$fpl$fpinit)
    __fplib_config_fpu_vfp                   0x1a006919   Thumb Code     0  fpinit.o(x$fpl$fpinit)
    __fplib_config_pureend_doubles           0x1a006919   Thumb Code     0  fpinit.o(x$fpl$fpinit)
    ad_left                                  0x1a00692c   Data           4  board.o(.constdata)
    ad_top                                   0x1a006930   Data           4  board.o(.constdata)
    ad_right                                 0x1a006934   Data           4  board.o(.constdata)
    ad_bottom                                0x1a006938   Data           4  board.o(.constdata)
    MCB4300_LCD                              0x1a00693c   Data          22  board.o(.constdata)
    ExtRateIn                                0x1a006954   Data           4  board.o(.constdata)
    OscRateIn                                0x1a006958   Data           4  board.o(.constdata)
    std::nothrow                             0x1a006d25   Data           1  nothrow_obj.o(.constdata)
    Region$$Table$$Base                      0x1a006d28   Number         0  anon$$obj.o(Region$$Table)
    Region$$Table$$Limit                     0x1a006d48   Number         0  anon$$obj.o(Region$$Table)



==============================================================================

Memory Map of the image

  Image Entry point : 0x1a000115

  Load Region LR_IROM1 (Base: 0x1a000000, Size: 0x00006de8, Max: 0x00080000, ABSOLUTE)

    Execution Region RW_IRAM1 (Base: 0x10000000, Size: 0x00001df8, Max: 0x00008000, ABSOLUTE)

    Base Addr    Size         Type   Attr      Idx    E Section Name        Object

    0x10000000   0x00000038   Data   RW            3    .data               raw-os.o
    0x10000038   0x00000004   Data   RW          268    .data               raw_malloc.o
    0x1000003c   0x0000000c   Data   RW          738    .data               k9f1g08.o
    0x10000048   0x00000014   Data   RW         1596    .data               lib_lpc_board_keil_mcb_4357.lib(board.o)
    0x1000005c   0x00000004   Data   RW         1891    .data               lib_lpc_chip_43xx.lib(chip_18xx_43xx.o)
    0x10000060   0x00000008   Data   RW         2378    .data               lib_lpc_chip_43xx.lib(clock_18xx_43xx.o)
    0x10000068   0x00000038   Data   RW         2724    .data               lib_lpc_chip_43xx.lib(i2c_18xx_43xx.o)
    0x100000a0   0x00000ddc   Zero   RW            2    .bss                raw-os.o
    0x10000e7c   0x00000004   PAD
    0x10000e80   0x00000050   Zero   RW          267    .bss                raw_malloc.o
    0x10000ed0   0x00000038   Zero   RW          293    .bss                raw_page.o
    0x10000f08   0x0000078c   Zero   RW          672    .bss                main.o
    0x10001694   0x00000060   Zero   RW         3358    .bss                c_w.l(libspace.o)
    0x100016f4   0x00000004   PAD
    0x100016f8   0x00000100   Zero   RW          381    HEAP                keil_startup_lpc18xx43xx.o
    0x100017f8   0x00000600   Zero   RW          380    STACK               keil_startup_lpc18xx43xx.o


    Execution Region ER_IROM1 (Base: 0x1a000000, Size: 0x00006d48, Max: 0x00080000, ABSOLUTE)

    Base Addr    Size         Type   Attr      Idx    E Section Name        Object

    0x1a000000   0x00000114   Data   RO          382    RESET               keil_startup_lpc18xx43xx.o
    0x1a000114   0x00000008   Code   RO         3304  * !!!main             c_w.l(__main.o)
    0x1a00011c   0x00000034   Code   RO         3484    !!!scatter          c_w.l(__scatter.o)
    0x1a000150   0x0000001a   Code   RO         3486    !!handler_copy      c_w.l(__scatter_copy.o)
    0x1a00016a   0x00000002   PAD
    0x1a00016c   0x0000001c   Code   RO         3488    !!handler_zi        c_w.l(__scatter_zi.o)
    0x1a000188   0x00000000   Code   RO         3278    .ARM.Collect$$_printf_percent$$00000000  c_w.l(_printf_percent.o)
    0x1a000188   0x00000006   Code   RO         3276    .ARM.Collect$$_printf_percent$$00000009  c_w.l(_printf_d.o)
    0x1a00018e   0x00000006   Code   RO         3274    .ARM.Collect$$_printf_percent$$0000000C  c_w.l(_printf_x.o)
    0x1a000194   0x00000004   Code   RO         3320    .ARM.Collect$$_printf_percent$$00000017  c_w.l(_printf_percent_end.o)
    0x1a000198   0x00000002   Code   RO         3356    .ARM.Collect$$libinit$$00000000  c_w.l(libinit.o)
    0x1a00019a   0x00000004   Code   RO         3368    .ARM.Collect$$libinit$$00000001  c_w.l(libinit2.o)
    0x1a00019e   0x00000000   Code   RO         3371    .ARM.Collect$$libinit$$00000004  c_w.l(libinit2.o)
    0x1a00019e   0x00000000   Code   RO         3374    .ARM.Collect$$libinit$$0000000A  c_w.l(libinit2.o)
    0x1a00019e   0x00000000   Code   RO         3376    .ARM.Collect$$libinit$$0000000C  c_w.l(libinit2.o)
    0x1a00019e   0x00000000   Code   RO         3378    .ARM.Collect$$libinit$$0000000E  c_w.l(libinit2.o)
    0x1a00019e   0x00000000   Code   RO         3381    .ARM.Collect$$libinit$$00000011  c_w.l(libinit2.o)
    0x1a00019e   0x00000000   Code   RO         3383    .ARM.Collect$$libinit$$00000013  c_w.l(libinit2.o)
    0x1a00019e   0x00000000   Code   RO         3385    .ARM.Collect$$libinit$$00000015  c_w.l(libinit2.o)
    0x1a00019e   0x00000000   Code   RO         3387    .ARM.Collect$$libinit$$00000017  c_w.l(libinit2.o)
    0x1a00019e   0x00000000   Code   RO         3389    .ARM.Collect$$libinit$$00000019  c_w.l(libinit2.o)
    0x1a00019e   0x00000000   Code   RO         3391    .ARM.Collect$$libinit$$0000001B  c_w.l(libinit2.o)
    0x1a00019e   0x00000000   Code   RO         3393    .ARM.Collect$$libinit$$0000001D  c_w.l(libinit2.o)
    0x1a00019e   0x00000000   Code   RO         3395    .ARM.Collect$$libinit$$0000001F  c_w.l(libinit2.o)
    0x1a00019e   0x00000000   Code   RO         3397    .ARM.Collect$$libinit$$00000021  c_w.l(libinit2.o)
    0x1a00019e   0x00000000   Code   RO         3399    .ARM.Collect$$libinit$$00000023  c_w.l(libinit2.o)
    0x1a00019e   0x00000000   Code   RO         3401    .ARM.Collect$$libinit$$00000025  c_w.l(libinit2.o)
    0x1a00019e   0x00000000   Code   RO         3405    .ARM.Collect$$libinit$$0000002C  c_w.l(libinit2.o)
    0x1a00019e   0x00000000   Code   RO         3407    .ARM.Collect$$libinit$$0000002E  c_w.l(libinit2.o)
    0x1a00019e   0x00000000   Code   RO         3409    .ARM.Collect$$libinit$$00000030  c_w.l(libinit2.o)
    0x1a00019e   0x00000000   Code   RO         3411    .ARM.Collect$$libinit$$00000032  c_w.l(libinit2.o)
    0x1a00019e   0x00000002   Code   RO         3412    .ARM.Collect$$libinit$$00000033  c_w.l(libinit2.o)
    0x1a0001a0   0x00000002   Code   RO         3438    .ARM.Collect$$libshutdown$$00000000  c_w.l(libshutdown.o)
    0x1a0001a2   0x00000000   Code   RO         3467    .ARM.Collect$$libshutdown$$00000002  c_w.l(libshutdown2.o)
    0x1a0001a2   0x00000000   Code   RO         3469    .ARM.Collect$$libshutdown$$00000004  c_w.l(libshutdown2.o)
    0x1a0001a2   0x00000000   Code   RO         3472    .ARM.Collect$$libshutdown$$00000007  c_w.l(libshutdown2.o)
    0x1a0001a2   0x00000000   Code   RO         3475    .ARM.Collect$$libshutdown$$0000000A  c_w.l(libshutdown2.o)
    0x1a0001a2   0x00000000   Code   RO         3477    .ARM.Collect$$libshutdown$$0000000C  c_w.l(libshutdown2.o)
    0x1a0001a2   0x00000000   Code   RO         3480    .ARM.Collect$$libshutdown$$0000000F  c_w.l(libshutdown2.o)
    0x1a0001a2   0x00000002   Code   RO         3481    .ARM.Collect$$libshutdown$$00000010  c_w.l(libshutdown2.o)
    0x1a0001a4   0x00000000   Code   RO         3307    .ARM.Collect$$rtentry$$00000000  c_w.l(__rtentry.o)
    0x1a0001a4   0x00000000   Code   RO         3323    .ARM.Collect$$rtentry$$00000002  c_w.l(__rtentry2.o)
    0x1a0001a4   0x00000006   Code   RO         3335    .ARM.Collect$$rtentry$$00000004  c_w.l(__rtentry4.o)
    0x1a0001aa   0x00000000   Code   RO         3325    .ARM.Collect$$rtentry$$00000009  c_w.l(__rtentry2.o)
    0x1a0001aa   0x00000004   Code   RO         3326    .ARM.Collect$$rtentry$$0000000A  c_w.l(__rtentry2.o)
    0x1a0001ae   0x00000000   Code   RO         3328    .ARM.Collect$$rtentry$$0000000C  c_w.l(__rtentry2.o)
    0x1a0001ae   0x00000008   Code   RO         3329    .ARM.Collect$$rtentry$$0000000D  c_w.l(__rtentry2.o)
    0x1a0001b6   0x00000002   Code   RO         3360    .ARM.Collect$$rtexit$$00000000  c_w.l(rtexit.o)
    0x1a0001b8   0x00000000   Code   RO         3414    .ARM.Collect$$rtexit$$00000002  c_w.l(rtexit2.o)
    0x1a0001b8   0x00000004   Code   RO         3415    .ARM.Collect$$rtexit$$00000003  c_w.l(rtexit2.o)
    0x1a0001bc   0x00000006   Code   RO         3416    .ARM.Collect$$rtexit$$00000004  c_w.l(rtexit2.o)
    0x1a0001c2   0x00000002   PAD
    0x1a0001c4   0x00002968   Code   RO            1    .text               raw-os.o
    0x1a002b2c   0x00000174   Code   RO          175    .text               fifo.o
    0x1a002ca0   0x000005d8   Code   RO          266    .text               raw_malloc.o
    0x1a003278   0x000003d8   Code   RO          292    .text               raw_page.o
    0x1a003650   0x000000ac   Code   RO          309    .text               cpu.o
    0x1a0036fc   0x000001b4   Code   RO          313    .text               port.o
    0x1a0038b0   0x0000001e   Code   RO          326    .text               port_hook.o
    0x1a0038ce   0x00000088   Code   RO          344    .text               user_extension.o
    0x1a003956   0x00000058   Code   RO          356    .text               port_error_process.o
    0x1a0039ae   0x00000002   PAD
    0x1a0039b0   0x00000030   Code   RO          368    .text               port_extension.o
    0x1a0039e0   0x00000044   Code   RO          383    .text               keil_startup_lpc18xx43xx.o
    0x1a003a24   0x0000001c   Code   RO          389    .text               sysinit.o
    0x1a003a40   0x00000014   Code   RO          615    .text               lpc43xx_scu.o
    0x1a003a54   0x0000045c   Code   RO          648    .text               lpc43xx_sdram.o
    0x1a003eb0   0x000001ec   Code   RO          671    .text               main.o
    0x1a00409c   0x0000037c   Code   RO          737    .text               k9f1g08.o
    0x1a004418   0x00000040   Code   RO          763    .text               lpc43xx_gpio.o
    0x1a004458   0x00000020   Code   RO          834    .text               new.o
    0x1a004478   0x00000098   Code   RO         1119    .text               test.o
    0x1a004510   0x00000aa8   Code   RO         1594    .text               lib_lpc_board_keil_mcb_4357.lib(board.o)
    0x1a004fb8   0x0000019c   Code   RO         1834    .text               lib_lpc_board_keil_mcb_4357.lib(board_sysinit.o)
    0x1a005154   0x00000184   Code   RO         2313    .text               lib_lpc_board_keil_mcb_4357.lib(uda1380.o)
    0x1a0052d8   0x000000ee   Code   RO         3216    .text               c_w.l(lludivv7m.o)
    0x1a0053c6   0x00000002   PAD
    0x1a0053c8   0x00000018   Code   RO         3220    .text               c_w.l(noretval__2printf.o)
    0x1a0053e0   0x0000004e   Code   RO         3224    .text               c_w.l(_printf_pad.o)
    0x1a00542e   0x00000002   PAD
    0x1a005430   0x00000078   Code   RO         3228    .text               c_w.l(_printf_dec.o)
    0x1a0054a8   0x0000007c   Code   RO         3244    .text               c_w.l(_printf_hex_int_ptr.o)
    0x1a005524   0x00000188   Code   RO         3270    .text               c_w.l(__printf_flags_ss_wp.o)
    0x1a0056ac   0x0000004e   Code   RO         3296    .text               c_w.l(rt_memclr_w.o)
    0x1a0056fa   0x00000006   Code   RO         3302    .text               c_w.l(heapauxi.o)
    0x1a005700   0x000000b2   Code   RO         3314    .text               c_w.l(_printf_intcommon.o)
    0x1a0057b2   0x00000002   PAD
    0x1a0057b4   0x00000024   Code   RO         3318    .text               c_w.l(_printf_char_file.o)
    0x1a0057d8   0x00000030   Code   RO         3339    .text               c_w.l(_printf_char_common.o)
    0x1a005808   0x0000004a   Code   RO         3341    .text               c_w.l(sys_stackheap_outer.o)
    0x1a005852   0x00000012   Code   RO         3345    .text               c_w.l(exit.o)
    0x1a005864   0x00000008   Code   RO         3357    .text               c_w.l(libspace.o)
    0x1a00586c   0x00000038   Code   RO         2348    i.Chip_Clock_Enable  lib_lpc_chip_43xx.lib(clock_18xx_43xx.o)
    0x1a0058a4   0x0000003c   Code   RO         2352    i.Chip_Clock_EnableOpts  lib_lpc_chip_43xx.lib(clock_18xx_43xx.o)
    0x1a0058e0   0x00000050   Code   RO         2354    i.Chip_Clock_FindBaseClock  lib_lpc_chip_43xx.lib(clock_18xx_43xx.o)
    0x1a005930   0x00000024   Code   RO         2355    i.Chip_Clock_GetBaseClock  lib_lpc_chip_43xx.lib(clock_18xx_43xx.o)
    0x1a005954   0x00000012   Code   RO         2357    i.Chip_Clock_GetBaseClocktHz  lib_lpc_chip_43xx.lib(clock_18xx_43xx.o)
    0x1a005966   0x00000002   PAD
    0x1a005968   0x000000d4   Code   RO         2358    i.Chip_Clock_GetClockInputHz  lib_lpc_chip_43xx.lib(clock_18xx_43xx.o)
    0x1a005a3c   0x00000028   Code   RO         2359    i.Chip_Clock_GetDivRate  lib_lpc_chip_43xx.lib(clock_18xx_43xx.o)
    0x1a005a64   0x00000020   Code   RO         2360    i.Chip_Clock_GetDividerDivisor  lib_lpc_chip_43xx.lib(clock_18xx_43xx.o)
    0x1a005a84   0x00000020   Code   RO         2361    i.Chip_Clock_GetDividerSource  lib_lpc_chip_43xx.lib(clock_18xx_43xx.o)
    0x1a005aa4   0x00000030   Code   RO         2362    i.Chip_Clock_GetEMCRate  lib_lpc_chip_43xx.lib(clock_18xx_43xx.o)
    0x1a005ad4   0x00000078   Code   RO         2363    i.Chip_Clock_GetMainPLLHz  lib_lpc_chip_43xx.lib(clock_18xx_43xx.o)
    0x1a005b4c   0x00000058   Code   RO         2365    i.Chip_Clock_GetRate  lib_lpc_chip_43xx.lib(clock_18xx_43xx.o)
    0x1a005ba4   0x00000048   Code   RO         2369    i.Chip_Clock_SetBaseClock  lib_lpc_chip_43xx.lib(clock_18xx_43xx.o)
    0x1a005bec   0x00000050   Code   RO         2370    i.Chip_Clock_SetDivider  lib_lpc_chip_43xx.lib(clock_18xx_43xx.o)
    0x1a005c3c   0x0000001c   Code   RO         2566    i.Chip_EMC_Dynamic_Init  lib_lpc_chip_43xx.lib(emc_18xx_43xx.o)
    0x1a005c58   0x0000002c   Code   RO         2568    i.Chip_EMC_Init     lib_lpc_chip_43xx.lib(emc_18xx_43xx.o)
    0x1a005c84   0x0000001c   Code   RO         2571    i.Chip_EMC_Static_Init  lib_lpc_chip_43xx.lib(emc_18xx_43xx.o)
    0x1a005ca0   0x00000002   Code   RO         2644    i.Chip_GPIO_Init    lib_lpc_chip_43xx.lib(gpio_18xx_43xx.o)
    0x1a005ca2   0x00000002   PAD
    0x1a005ca4   0x00000028   Code   RO         2698    i.Chip_I2C_EventHandler  lib_lpc_chip_43xx.lib(i2c_18xx_43xx.o)
    0x1a005ccc   0x00000040   Code   RO         2699    i.Chip_I2C_EventHandlerPolling  lib_lpc_chip_43xx.lib(i2c_18xx_43xx.o)
    0x1a005d0c   0x00000014   Code   RO         2701    i.Chip_I2C_GetMasterEventHandler  lib_lpc_chip_43xx.lib(i2c_18xx_43xx.o)
    0x1a005d20   0x0000002c   Code   RO         2702    i.Chip_I2C_Init     lib_lpc_chip_43xx.lib(i2c_18xx_43xx.o)
    0x1a005d4c   0x00000018   Code   RO         2704    i.Chip_I2C_IsStateChanged  lib_lpc_chip_43xx.lib(i2c_18xx_43xx.o)
    0x1a005d64   0x0000003a   Code   RO         2705    i.Chip_I2C_MasterCmdRead  lib_lpc_chip_43xx.lib(i2c_18xx_43xx.o)
    0x1a005d9e   0x00000032   Code   RO         2707    i.Chip_I2C_MasterSend  lib_lpc_chip_43xx.lib(i2c_18xx_43xx.o)
    0x1a005dd0   0x00000038   Code   RO         2708    i.Chip_I2C_MasterStateHandler  lib_lpc_chip_43xx.lib(i2c_18xx_43xx.o)
    0x1a005e08   0x0000006c   Code   RO         2709    i.Chip_I2C_MasterTransfer  lib_lpc_chip_43xx.lib(i2c_18xx_43xx.o)
    0x1a005e74   0x0000003c   Code   RO         2710    i.Chip_I2C_SetClockRate  lib_lpc_chip_43xx.lib(i2c_18xx_43xx.o)
    0x1a005eb0   0x00000028   Code   RO         2711    i.Chip_I2C_SetMasterEventHandler  lib_lpc_chip_43xx.lib(i2c_18xx_43xx.o)
    0x1a005ed8   0x0000000c   Code   RO         2872    i.Chip_I2S_Init     lib_lpc_chip_43xx.lib(i2s_18xx_43xx.o)
    0x1a005ee4   0x0000007a   Code   RO         2876    i.Chip_I2S_TxConfig  lib_lpc_chip_43xx.lib(i2s_18xx_43xx.o)
    0x1a005f5e   0x00000002   PAD
    0x1a005f60   0x00000038   Code   RO         2937    i.Chip_RGU_InReset  lib_lpc_chip_43xx.lib(rgu_18xx_43xx.o)
    0x1a005f98   0x0000002c   Code   RO         2938    i.Chip_RGU_TriggerReset  lib_lpc_chip_43xx.lib(rgu_18xx_43xx.o)
    0x1a005fc4   0x00000004   Code   RO         2968    i.Chip_SSP_ClearIntPending  lib_lpc_chip_43xx.lib(ssp_18xx_43xx.o)
    0x1a005fc8   0x00000014   Code   RO         2970    i.Chip_SSP_GetClockIndex  lib_lpc_chip_43xx.lib(ssp_18xx_43xx.o)
    0x1a005fdc   0x00000010   Code   RO         2971    i.Chip_SSP_GetRawIntStatus  lib_lpc_chip_43xx.lib(ssp_18xx_43xx.o)
    0x1a005fec   0x00000010   Code   RO         2972    i.Chip_SSP_GetStatus  lib_lpc_chip_43xx.lib(ssp_18xx_43xx.o)
    0x1a005ffc   0x0000003c   Code   RO         2973    i.Chip_SSP_Init     lib_lpc_chip_43xx.lib(ssp_18xx_43xx.o)
    0x1a006038   0x00000008   Code   RO         2979    i.Chip_SSP_ReceiveFrame  lib_lpc_chip_43xx.lib(ssp_18xx_43xx.o)
    0x1a006040   0x00000006   Code   RO         2980    i.Chip_SSP_SendFrame  lib_lpc_chip_43xx.lib(ssp_18xx_43xx.o)
    0x1a006046   0x00000046   Code   RO         2981    i.Chip_SSP_SetBitRate  lib_lpc_chip_43xx.lib(ssp_18xx_43xx.o)
    0x1a00608c   0x00000014   Code   RO         2982    i.Chip_SSP_SetClockRate  lib_lpc_chip_43xx.lib(ssp_18xx_43xx.o)
    0x1a0060a0   0x0000001c   Code   RO         2983    i.Chip_SSP_SetMaster  lib_lpc_chip_43xx.lib(ssp_18xx_43xx.o)
    0x1a0060bc   0x0000000c   Code   RO         2984    i.Chip_SSP_Set_Mode  lib_lpc_chip_43xx.lib(ssp_18xx_43xx.o)
    0x1a0060c8   0x000000ea   Code   RO         2985    i.Chip_SSP_WriteFrames_Blocking  lib_lpc_chip_43xx.lib(ssp_18xx_43xx.o)
    0x1a0061b2   0x0000000e   Code   RO         3106    i.Chip_SetupCoreClock  lib_lpc_chip_43xx.lib(sysinit_18xx_43xx.o)
    0x1a0061c0   0x0000000a   Code   RO         2119    i.Chip_UART_DisableDivisorAccess  lib_lpc_chip_43xx.lib(uart_18xx_43xx.o)
    0x1a0061ca   0x0000000a   Code   RO         2120    i.Chip_UART_EnableDivisorAccess  lib_lpc_chip_43xx.lib(uart_18xx_43xx.o)
    0x1a0061d4   0x00000030   Code   RO         2122    i.Chip_UART_GetClockIndex  lib_lpc_chip_43xx.lib(uart_18xx_43xx.o)
    0x1a006204   0x0000004c   Code   RO         2124    i.Chip_UART_Init    lib_lpc_chip_43xx.lib(uart_18xx_43xx.o)
    0x1a006250   0x00000042   Code   RO         2136    i.Chip_UART_SetBaud  lib_lpc_chip_43xx.lib(uart_18xx_43xx.o)
    0x1a006292   0x00000006   Code   RO         2138    i.Chip_UART_SetDivisorLatches  lib_lpc_chip_43xx.lib(uart_18xx_43xx.o)
    0x1a006298   0x00000014   Code   RO         1889    i.SystemCoreClockUpdate  lib_lpc_chip_43xx.lib(chip_18xx_43xx.o)
    0x1a0062ac   0x0000000e   Code   RO         3263    i._is_digit         c_w.l(__printf_wp.o)
    0x1a0062ba   0x00000024   Code   RO         3110    i.clock_init_delay  lib_lpc_chip_43xx.lib(sysinit_18xx_43xx.o)
    0x1a0062de   0x00000002   PAD
    0x1a0062e0   0x000000bc   Code   RO         3111    i.clock_main_init   lib_lpc_chip_43xx.lib(sysinit_18xx_43xx.o)
    0x1a00639c   0x00000038   Code   RO         2572    i.convertTimmingParam  lib_lpc_chip_43xx.lib(emc_18xx_43xx.o)
    0x1a0063d4   0x00000050   Code   RO         2290    i.fpuInit           lib_lpc_chip_43xx.lib(fpu_init.o)
    0x1a006424   0x00000162   Code   RO         2877    i.getClkDiv         lib_lpc_chip_43xx.lib(i2s_18xx_43xx.o)
    0x1a006586   0x00000002   PAD
    0x1a006588   0x0000001c   Code   RO         2714    i.getClkRate        lib_lpc_chip_43xx.lib(i2c_18xx_43xx.o)
    0x1a0065a4   0x00000028   Code   RO         2573    i.getColsLen        lib_lpc_chip_43xx.lib(emc_18xx_43xx.o)
    0x1a0065cc   0x0000000a   Code   RO         2715    i.getCurState       lib_lpc_chip_43xx.lib(i2c_18xx_43xx.o)
    0x1a0065d6   0x000000e0   Code   RO         2717    i.handleMasterXferState  lib_lpc_chip_43xx.lib(i2c_18xx_43xx.o)
    0x1a0066b6   0x000001e8   Code   RO         2574    i.initDynMem        lib_lpc_chip_43xx.lib(emc_18xx_43xx.o)
    0x1a00689e   0x00000068   Code   RO         2575    i.initStaticMem     lib_lpc_chip_43xx.lib(emc_18xx_43xx.o)
    0x1a006906   0x0000000a   Code   RO         2722    i.startSlaverXfer   lib_lpc_chip_43xx.lib(i2c_18xx_43xx.o)
    0x1a006910   0x0000000a   Code   RO         3426    x$fpl$fpinit        fz_wm.l(fpinit.o)
    0x1a00691a   0x00000002   PAD
    0x1a00691c   0x00000040   Data   RO         1595    .constdata          lib_lpc_board_keil_mcb_4357.lib(board.o)
    0x1a00695c   0x000002bc   Data   RO         1835    .constdata          lib_lpc_board_keil_mcb_4357.lib(board_sysinit.o)
    0x1a006c18   0x0000001f   Data   RO         2314    .constdata          lib_lpc_board_keil_mcb_4357.lib(uda1380.o)
    0x1a006c37   0x00000001   PAD
    0x1a006c38   0x0000006c   Data   RO         2377    .constdata          lib_lpc_chip_43xx.lib(clock_18xx_43xx.o)
    0x1a006ca4   0x00000048   Data   RO         3112    .constdata          lib_lpc_chip_43xx.lib(sysinit_18xx_43xx.o)
    0x1a006cec   0x00000028   Data   RO         3245    .constdata          c_w.l(_printf_hex_int_ptr.o)
    0x1a006d14   0x00000011   Data   RO         3271    .constdata          c_w.l(__printf_flags_ss_wp.o)
    0x1a006d25   0x00000001   Data   RO         3306    .constdata          cpprt_w.l(nothrow_obj.o)
    0x1a006d26   0x00000002   PAD
    0x1a006d28   0x00000020   Data   RO         3482    Region$$Table       anon$$obj.o


==============================================================================

Image component sizes


      Code (inc. data)   RO Data    RW Data    ZI Data      Debug   Object Name

       172         16          0          0          0        384   cpu.o
       372          0          0          0          0       8860   fifo.o
       892          8          0         12          0       7135   k9f1g08.o
        68         28        276          0       1792        936   keil_startup_lpc18xx43xx.o
        64          6          0          0          0       1351   lpc43xx_gpio.o
        20          4          0          0          0       1049   lpc43xx_scu.o
      1116         28          0          0          0       2138   lpc43xx_sdram.o
       492         36          0          0       1932      36430   main.o
        32          0          0          0          0       8702   new.o
       436         16          0          0          0       3602   port.o
        88          0          0          0          0       1344   port_error_process.o
        48         10          0          0          0        941   port_extension.o
        30          0          0          0          0       1963   port_hook.o
     10600        300          0         56       3548      84147   raw-os.o
      1496        188          0          4         80       9800   raw_malloc.o
       984         34          0          0         56       6430   raw_page.o
        28          8          0          0          0      13057   sysinit.o
       152         56          0          0          0       3066   test.o
       136          0          0          0          0       1856   user_extension.o

    ----------------------------------------------------------------------
     17228        738        308         72       7412     193191   Object Totals
         0          0         32          0          0          0   (incl. Generated)
         2          0          0          0          4          0   (incl. Padding)

    ----------------------------------------------------------------------

      Code (inc. data)   RO Data    RW Data    ZI Data      Debug   Library Member Name

         8          0          0          0          0         68   __main.o
       392          4         17          0          0         92   __printf_flags_ss_wp.o
        14          0          0          0          0         68   __printf_wp.o
         0          0          0          0          0          0   __rtentry.o
        12          0          0          0          0          0   __rtentry2.o
         6          0          0          0          0          0   __rtentry4.o
        52          8          0          0          0          0   __scatter.o
        26          0          0          0          0          0   __scatter_copy.o
        28          0          0          0          0          0   __scatter_zi.o
        48          6          0          0          0         96   _printf_char_common.o
        36          4          0          0          0         80   _printf_char_file.o
         6          0          0          0          0          0   _printf_d.o
       120         16          0          0          0         92   _printf_dec.o
       124          4         40          0          0        144   _printf_hex_int_ptr.o
       178          0          0          0          0         88   _printf_intcommon.o
        78          0          0          0          0        108   _printf_pad.o
         0          0          0          0          0          0   _printf_percent.o
         4          0          0          0          0          0   _printf_percent_end.o
         6          0          0          0          0          0   _printf_x.o
        18          0          0          0          0         80   exit.o
         6          0          0          0          0        152   heapauxi.o
         2          0          0          0          0          0   libinit.o
         6          0          0          0          0          0   libinit2.o
         2          0          0          0          0          0   libshutdown.o
         2          0          0          0          0          0   libshutdown2.o
         8          4          0          0         96         68   libspace.o
       238          0          0          0          0        100   lludivv7m.o
        24          4          0          0          0         84   noretval__2printf.o
        78          0          0          0          0         80   rt_memclr_w.o
         2          0          0          0          0          0   rtexit.o
        10          0          0          0          0          0   rtexit2.o
        74          0          0          0          0         80   sys_stackheap_outer.o
         0          0          1          0          0          0   nothrow_obj.o
        10          0          0          0          0        116   fpinit.o
      2728        102         64         20          0      65534   board.o
       412         56        700          0          0      10122   board_sysinit.o
       388         20         31          0          0       3135   uda1380.o
        20          6          0          4          0      26534   chip_18xx_43xx.o
       974        150        108          8          0       9866   clock_18xx_43xx.o
       788         22          0          0          0       5204   emc_18xx_43xx.o
        80         18          0          0          0       1234   fpu_init.o
         2          0          0          0          0       3265   gpio_18xx_43xx.o
       836         62          0         56          0      10510   i2c_18xx_43xx.o
       488          0          0          0          0       2828   i2s_18xx_43xx.o
       100         10          0          0          0       1447   rgu_18xx_43xx.o
       494          8          0          0          0      11299   ssp_18xx_43xx.o
       238         20         72          0          0       2286   sysinit_18xx_43xx.o
       216         16          0          0          0       9189   uart_18xx_43xx.o

    ----------------------------------------------------------------------
      9404        540       1036         88        100     164049   Library Totals
        22          0          3          0          4          0   (incl. Padding)

    ----------------------------------------------------------------------

      Code (inc. data)   RO Data    RW Data    ZI Data      Debug   Library Name

      1608         50         57          0         96       1480   c_w.l
         0          0          1          0          0          0   cpprt_w.l
        10          0          0          0          0        116   fz_wm.l
      3528        178        795         20          0      78791   lib_lpc_board_keil_mcb_4357.lib
      4236        312        180         68          0      83662   lib_lpc_chip_43xx.lib

    ----------------------------------------------------------------------
      9404        540       1036         88        100     164049   Library Totals

    ----------------------------------------------------------------------

==============================================================================


      Code (inc. data)   RO Data    RW Data    ZI Data      Debug   

     26632       1278       1344        160       7512     347016   Grand Totals
     26632       1278       1344        160       7512     347016   ELF Image Totals
     26632       1278       1344        160          0          0   ROM Totals

==============================================================================

    Total RO  Size (Code + RO Data)                27976 (  27.32kB)
    Total RW  Size (RW Data + ZI Data)              7672 (   7.49kB)
    Total ROM Size (Code + RO Data + RW Data)      28136 (  27.48kB)

==============================================================================

